:020000040800F2
:1000000000040020013A010803BB00080523010891
:10001000793A0108793A0108793A010800000000AC
:1000200000000000000000000000000001BB00080C
:10003000FFBA000800000000FDBA00086FB0000819
:10004000793A0108793A0108793A0108793A0108C0
:10005000793A0108793A0108793A0108793A0108B0
:10006000793A0108793A0108793A0108793A0108A0
:10007000793A0108250E0108F11C0108793A0108B6
:10008000793A0108751D0108793A0108793A0108A1
:10009000793A0108793A0108793A0108793A010870
:1000A000C97C0008F97C0008793A0108097D00083C
:1000B000E97C0008793A0108D97C0008953D0008E0
:1000C000993D00088D3D0008913D0008793A0108EE
:1000D000793A0108451F01083D1F0108351F010835
:1000E0007DB00008793A010805BB0008793A01089B
:1000F000793A0108793A0108793A0108793A010810
:10010000793A0108793A0108793A0108793A0108FF
:10011000793A0108793A0108793A0108793A0108EF
:10012000793A0108793A0108793A0108793A0108DF
:10013000793A0108793A0108793A0108793A0108CF
:10014000793A0108793A0108793A01082DB6000890
:10015000793A01086D1C01080D1E01082B7F00086B
:10016000793A0108793A0108793A0108793A01089F
:10017000793A0108793A0108793A0108793A01088F
:10018000793A0108793A01082DE9F04F9D4C23781E
:10019000092B9CBF9C4A34212DED108B98BF01FB8D
:1001A000032393B094BF9D6A0025984E984FF3683F
:1001B0000BA898479DF82C3023B12378092B0CD934
:1001C00000230FE00AF022FF924B1B68EB1A184441
:1001D0003B6864339842E8D3EFE78B4A342101FB54
:1001E00003239B6A8C4CD7ED007AD4ED016A8B4ACD
:1001F000DFED8BAA8B48884DF5EE406A9BB2F1EE9D
:1002000010FA1380B8EE677A07EE903A04BF864B77
:10021000636027EE2A7A94ED016A844AD4ED006A7D
:1002200082ED007A37EE066AF8EE677A87EE067A94
:1002300077EEE67AE7EE276AFCEEE67AC4ED006A2E
:1002400017EE903AA3817368764E984740B9784F7D
:10025000784D3B6813F0020F40F0F48000F041BC91
:1002600030463146AA7B08F04BFC95F80F80B8F178
:10027000000F2CD02B7C93B93A6842B36B6165694F
:10028000654F022D08DC404609F01FFD07EB850392
:10029000013598617D61F2E701233B7417E000238B
:1002A0006B6165695C4F022D11DC36F9153000EE8B
:1002B000103A07EB8503B8EEC00A986909F0DCFC38
:1002C00015F05EFE26F8150001357D61E9E75A4F0D
:1002D000DFF86C913B88002B6CD0636A1B7808EECA
:1002E000103AA9F14808A9F13C054FF0000A3988F5
:1002F000B1F57A7F02BF0023C8F800302B61D8F82F
:10030000002036F91A301A4407EE903A2B69C8F8E3
:1003100000200133012B4FEA4A0BF8EEE77A2B61FC
:1003200006D10023C5ED017AC5ED007AAB601BE074
:10033000D5ED006A07EE103A37EEE66AB8EEC77AF6
:1003400086EE077A36EE877AD5ED026A85ED017A78
:1003500077EEC77A85ED007AE6EE276AF0EE667AE8
:10036000C5ED036AC5ED026A0023012926F80B30AA
:1003700029F80B302AD12B69012BC3BF03F1FF33BE
:1003800000EE103AD5ED037A9FED2C0AC4BFB8EE0B
:10039000C00A87EE800A15F0D7FE18EE103A5BB15E
:1003A000F8EEC87AB4EEE70AF1EE10FA04DD4FF485
:1003B0007A733B8000231AE0D8F800304FF47A7249
:1003C00003F5FA7393FBF2F329F80B300AF1010AF3
:1003D000BAF1030F08F1040805F1140587D1388834
:1003E000012801D10AF080FE3B88013BE1E736F8A5
:1003F000132039F81310521A26F813200133032B57
:10040000F5D124E7CC060020C0040020BC30002039
:100410002C4A0020D4490020B80C0020941600205B
:10042000BD378635CC16002083F9223EDC30002013
:1004300098160020DC490020744A002000000000CB
:10044000280D0020DB4B1B78002B00F04A830AF0BC
:10045000DDFDA36FD4F87CA0A067C31AD64A9AF832
:1004600000000FEE903A00234FEA430EDFF884932A
:1004700098B335F91310D2ED017A06EE901AB8EE62
:100480006F7AF5EE407AF1EE10FAF8EEE66A27EEB2
:100490002A7A0DD107EE900A9FEDC86AF8EEE77A46
:1004A00027EE866AF7EE007AC7EE867AC2ED017A09
:1004B00092ED016AD2ED007A37EE066A76EEE76ACF
:1004C00087EE067AE7EE267AC2ED007AFDEEE77A4D
:1004D00017EE901A29F80E1003E035F8131029F8DA
:1004E00013100133032B02F10C02BDD13B68B44A57
:1004F00013F0080F08D0B2F9001029B1B2F90210B8
:1005000011B1B2F9041091BBAE49097801F01000A5
:1005100000F0FF0580B313F020052DD001F0020399
:1005200003F0FF0543B3A84B1B78042B23D9A74B3B
:100530001B88B3F5967F1ED3A54BB3F9043007EEA5
:10054000903AA44B1B88B8EEE77A07EE903AF8EEA3
:10055000E77AB2EE048A87EE888A01254FF0000B15
:1005600077EE487A9FED9C8A27EE888A07E000257F
:100570004FF0010B01E00025AB469FED988AB6F9DC
:100580000030B2F80080978808EE903AB6F9023051
:10059000F8EE6F7A09EE903A67EEAAAAF8EEE99AB9
:1005A000D4ED297AB6F90430568869EEA79AF8EEA8
:1005B000E88A09EE103A68EEA78A29EEA90AB9F985
:1005C0000030B8EEC99AA8EEA80A0CEE103AB9F9B4
:1005D000023029EE279A0CEE903AB9F90430A9EED0
:1005E000090A0DEE103A15F0AFFDB8EECCCAF8EEE0
:1005F000ECCAB8EECDDAB0EE40EA15B3DFED787AAA
:10060000B4EEE78AF1EE10FA04DDDFED6C7A38EE35
:10061000678AF3E7DFED737AB4EEE78AF1EE10FA5A
:1006200004D5DFED667A38EE278AF3E7B6EE000AE6
:1006300028EE000A09F0D3FD9FED68BA30EE0BBA40
:1006400001E09FED66BA9FED65AADFED67DA674DC1
:10065000F7EE00BABBF1000F53D00FFA88F807EE9F
:10066000908A33B2B8EEE7FA08EE103A2FEE0F0A8E
:10067000B8EEC88A3FB207EE907AA8EE080AF8EE04
:10068000E7EAAEEEAE0AB4EEED0AF1EE10FA38DDAE
:1006900015F05AFD8BEE800AD5ED017A95ED007AC2
:1006A00028EE008A2FEE00FA68EE277A6EEE80EAD6
:1006B000E7EE0F7A95ED040A95ED027A28EE008AAE
:1006C000E7EE2E7A95ED037AA7EE0F8A95ED057A7F
:1006D000A7EE2E8A28EE080AA7EEA70A15F034FD29
:1006E000D5ED067A20EE480AB0EE4A8AA7EE808A57
:1006F000D5ED077AA7EE80AAD5ED087AA7EE80BAE5
:1007000001E0B0EE4A8A2CEEAC0AACEE0C0AADEE7B
:100710000D0AB4EEED0AF1EE10FA21DD15F014FD2C
:100720008BEE800AD5ED076A95ED087A2DEE00DA9A
:100730006CEE80CA66EECD7A2CEE00CAECEE877ABB
:1007400027EE4C7A38EE278AD5ED067AADEE277A79
:1007500067EEEC7A3AEE07AAECEE267A3BEE27BA81
:10076000DAED017AF5EEC07AF1EE10FA4FF00003FF
:1007700042DD9FED1F7AB4EEC7EAF1EE10FA41D5E3
:1007800067EE886A94ED2A7AA6EEAA7A67EE8A6AFC
:1007900084ED2A7A94ED2B7AA6EEAA7A67EE8B7A0C
:1007A00084ED2B7A94ED2C7AA7EEAA7A84ED2C7A3C
:1007B00028E000BF0C4A0020380D0020DB0FC940A4
:1007C0009017002018170020191700202617002066
:1007D000001700202817002035FA8E3C000000008A
:1007E000DB0F4940DB0F49C00AD7233C4C320020C5
:1007F000C2B8B23EC6160020C4F8A830C4F8AC3067
:10080000C4F8B030D34EDAED027A337858070CD4FE
:10081000D14B1A6844F61F639A42F7EE006AB2EEB3
:10082000047A88BFB0EE667A01E0B7EE007A27EE70
:10083000877AD4ED2A7ADFF85483C84AD8ED005A73
:10084000DFF84CB392ED005AC54F0492E7EE087AF8
:1008500097ED006A9FEDC38A78EEA78AD4ED2B7AD4
:10086000E7EE0A7A79EEA79AD4ED2C7AE7EE0B7AC6
:10087000B1EE467A39EE279AF6EE007A6AEEA77A5A
:1008800069EEA79A29EE279A69EEE56A25EE890AAC
:1008900068EEA78ADBED007AA5EE280AE7EEE86AA3
:1008A000A7EE290AE7EE096A29EE677A37EE800A91
:1008B000A5EE297A67EEA97A75EE266AA6EE287A61
:1008C000E5EE097A8BED000A20EE000A35EE877A14
:1008D000A6EEA60AE5EEE87AA7EE070A76EE277AF4
:1008E000C2ED006AA7EEA70A88ED007AC7ED007A8C
:1008F00015F02AFC8BEE800A049AD2ED007AD7ED2F
:1009000000BA67EE807AC2ED007ADBED007A67EE1E
:10091000807ACBED007AD8ED007A67EE807A2BEE04
:10092000800AC8ED007A87ED000A0EF0C5F8D5ED13
:10093000080A95ED070A8C4F15F004FC20EE080A12
:1009400015F01EFB95ED060A3880B1EE400A15F051
:100950009BFBDFED867A37EEC00A20EE080A15F021
:100960000FFBD5ED000A95ED030A788015F0EAFB40
:10097000D4ED2D7AE0EE487AB0EE670A15F000FB70
:1009800083B2190458BFBB80D5ED085A784BD4ED1B
:100990002E7A1A7895ED010A95ED065AF4EEE75A8B
:1009A00044BF00F56160B880F1EE10FACCBF42F0B0
:1009B000080222F008021A70B9F90030D5ED007A69
:1009C00006EE103AB9F9023007EE103AB8EEC77ADF
:1009D000B8EEC66AB9F9043027EE000A06EE903A7E
:1009E000A7EE860A9AF80130F8EEE66AD5ED027AAB
:1009F000A7EEA60A012BD5ED077A67EE277AE5EE7A
:100A0000067AE5EEA67AD5ED045A27EE257AD5EDDD
:100A1000035AA5EE867A95ED056AA6EE267AF1EEE2
:100A2000478A18D133785A070FD4D4F8BC30402203
:100A300093FBF2F29B1A07EE103AB8EEC77A37EE44
:100A4000277ABDEEC77A84ED2F7AD4F8BC304022E5
:100A500093FBF2F301E0474B1B8894ED308A07EEDD
:100A6000103AB8EEC77A77EEC77A94ED317A3AEE5B
:100A7000877A77EEC87ACAEE87AAAAEEA78A84EDAB
:100A8000308A15F07DFAD4F8C850297809F098FB1F
:100A9000D4F8CC30B0EE680A1844C4F8CC0015F095
:100AA0006FFA297809F08CFBD4F8D030B0EE480A00
:100AB0001844C4F8D00015F063FA697809F080FB97
:100AC000D4F8D4302C4A18441FEE901A1368C4F896
:100AD000D4001944D4F8D83011600133C4F8D830A8
:100AE00003E000232B806B80AB80244BB3F90620FE
:100AF000234B1B6859898A420EDBB2F5FA6FD8790D
:100B0000BDBF531A4343A1F5FA60C0F16400BCBFF6
:100B100093FBF0F0643000E064201A4B1A49B3F8FC
:100B200094E193F95E31096806919BB20993002123
:100B3000124B33F91180CEEB080303F2F31640F2A7
:100B4000E635AE424FEA410C24D8002BB8BF5B42D9
:100B500022E000BF764A002078360020B80400204A
:100B6000483200204C3D0F4400170020DB0FC93FE6
:100B7000181700200C040020704A00207445002043
:100B800014170020183D0020E416002044320020F5
:100B9000403200204FF4FA73022904934FF06406A8
:100BA000069BC84D26D093F81D712FB1049BBB4204
:100BB000CCBFDB1B00230493049BDFF83CB393FB07
:100BC000F6F76FF0630A3BF817900AFB073301371B
:100BD0000FFA89FA3BF91770CAEB070A0AFB03F30D
:100BE00093FBF6F6B84B4E44F04525F80C6058548C
:100BF0002ADB2FE093F81E712FB1049BBB42CCBFC0
:100C0000DB1B00230493B14F049B93FBF6F907EB26
:100C1000490A07EB4907BAF9DCA0B7F9DE706FF0B3
:100C2000630B0BFB0933CAEB07077B4393FBFBFB0F
:100C3000BDF82430CAEB0B0A1AFB03FAA24BA5F845
:100C400004A0F0459E7009DA9E4E3CF806305B42E7
:100C50002CF80630013103297FF46AAF9C4EB6F8B8
:100C600096118A4205DBB2F5FA6FA8BF4FF4FA621B
:100C700000E00A46DFF884C2924F521A4FF47A73AA
:100C80006FF063005A43C1F5FA616423B2FBF1F2DD
:100C900092FBF3F13CF811E000FB012201310FFA65
:100CA0008EF03CF91110091A4A4392FBF3F3734496
:100CB000EB80884B1B885B0639D5874BDFED877A45
:100CC000B3F904300A2293FBF2F3B4F8EA209B1A3A
:100CD0001BB208EE103AB8EEC88A28EE278AB0EEAA
:100CE000480A09F0DDFAF0EE408AB0EE480A09F051
:100CF00076FAB7F9023006EE903AB7F90030F8EE1E
:100D0000E66A07EE903A20EE667AF8EEE77AA7EE0A
:100D1000A87A67EE807ABDEEC77AE6EEA87A17EE7B
:100D2000103AFDEEE77A3B8017EE903A7B8096F81A
:100D30009A31002B52D0654B9A89B3F8EC00B0FB86
:100D4000F2F0674A441C1278A4B2A3F8EE4012B342
:100D5000B3F8F09000215D4F35F811C007F1FA0E9D
:100D600007F1F2083EF8113038F811202EF811C0C2
:100D7000C3EB0C0A12FB09F223B292FBF3F35344C8
:100D800028F8113001310429E5D1554BA7F8F000BE
:100D900000221A7004E0B3F8F020013AA3F8F02022
:100DA0004A4AB2F8F00003B2002B4FF0000313DD03
:100DB000B2F9EE404B4931F81320083112FB00F232
:100DC00031F8131092FBF4F28A1A3E4921F81320ED
:100DD0000133042BEED101E0A2F8F03096F89B012C
:100DE000002861D03B4B1B885E065DD411F056FF96
:100DF00041EC100B41EC180B324C3B4D14F0DCFF76
:100E0000B4F900005BEC10AB11F058FFB0EE480AEB
:100E1000F0EE680A06460F4615F022F8B4F9040011
:100E20008DED040B11F04AFF3246804689463B4661
:100E30005046594611F0A8FF42464B46CDE90601FF
:100E4000DDE9040111F0A0FF02460B46DDE90601D1
:100E500011F0E8FD12F0AAF9B0F5FA7FA8BF4FF43F
:100E6000FA70A842B8BF284642464B4620805946F1
:100E7000504611F089FF3246804689463B46DDE9FF
:100E8000040111F081FF02460B464046494611F02D
:100E9000C9FD12F08BF9B0F5FA7FA8BF4FF4FA70D4
:100EA000A842B8BF2846A080104ADFF854901378B3
:100EB000049213F0040F0E4E24D00E4B4FF48042D8
:100EC0005A8358E0543000205C300020B80C0020D9
:100ED000183D00209C1600200017002035FA8E3C9B
:100EE000F4140020AA0D00200CFEFFFF764A00201B
:100EF000A0160020000C024006260020EE2500204F
:100F0000981600203268D5075EBF049A43F00103AB
:100F10001370864B1B781C075FBF049B049A1B78D9
:100F200023F0010358BF1370814B1A88814B1AB10B
:100F3000D9F80020900706D47F4A12881AB97F4951
:100F40000988642908D902221A70049B049A1B7824
:100F500023F00103137005E004990978C90758BF0D
:100F600002221A700AF052F8754B1B68C01A00284A
:100F700001DB11F06FFC734B9B680BB17248984713
:100F8000724B734F1B78ABB1724BB3F90620B7F8B5
:100F900096319A420EDC7B79012B01D0192B02D1BC
:100FA00097F8E62132B90E2B04D0082B1EBF6A4BEE
:100FB00000229A80694B6A4D1A68069392F8244180
:100FC0009CB3684B1B889B072FD0674BDFED677A7C
:100FD00093ED080AB4EEE70AF1EE10FA20D915F005
:100FE00053F8D5ED417A20EE270A14F0C9FFB0F589
:100FF000617FA8BF4FF4617007EE900AB8EEE70A70
:10100000DFED5B7A80EE270A09F0E9F807EE904AF7
:10101000F8EEE77A27EE800A14F0B2FF80B200E023
:1010200000204D4AD3881844D080D9F80030980663
:1010300040F1D0804B4B1B8803F03003002B00F0B5
:10104000C9803A4B1B78D90740F1C480494BDFED8A
:101050004A7AB3F90430DFF82C910A2293FBF2F3B9
:1010600008EE103AB8EEC88A28EE278AB0EE480A91
:1010700009F0B5F8F0EE408AB0EE480A09F010F930
:101080003E4B3F4A1B6893F80380B0EE409AB2EEA5
:10109000048AB8F1000F79D0DFF8ECB0B2F90200A1
:1010A000BBF80240099223B2C01A06F039FCC8F11D
:1010B00000039842099A03DB4045A8BF404600E080
:1010C00018462044BBF8004009931FFA80FAB2F991
:1010D0000000ABF802A022B2801A06F021FC099BA6
:1010E000984203DB40450346A8BF43461C44A4B2D4
:1010F000ABF8004024B207EE104A0FFA8AF307EE6D
:10110000903AB8EEC70AF8EEE77A28EEC07A20EEF9
:10111000090AA7EE897AA7EEA80A87EE087ABDEE3B
:10112000C77A17EE103AA9F800304BE018170020E4
:1011300024140020604A0020744A0020F446002055
:10114000644A0020BC300020A217002003040020C5
:10115000183D00207445002054300020E416002083
:10116000B80C00209C1600204C3200208FC2753C29
:10117000EFB6B0440017002035FA8E3C6C14002006
:10118000F0140020884A0020EC140020B2F902304C
:1011900007EE103AB2F9003000EE103AB8EEC00A8D
:1011A000B8EEC77A68EEC07A20EE090AE7EE097A4F
:1011B000A7EE280AC7EE887AFDEEE77A17EE903A96
:1011C000A9F8003080EE080AFDEEC07A17EE903ADA
:1011D000A9F80230C54B1B784BB1C54B00221A60F1
:1011E0005A609A60C34B00221A605A609A60069B4C
:1011F000B7F86A211868C04B0093C04B1C68C04BFD
:10120000196800F16403A047BE4B1C78BE4B032C49
:1012100019D9D5F808215788B7F5FA7F13D2BB4AF8
:10122000B3F904E0B2F9040080EAE07CACEBE07CC6
:101230007942CCEB0102964504DB07EB0C027245C8
:10124000A8BF72469A8037683A0105D4B04A11683F
:1012500041F21D020A4062B10021B3F800E0B3F888
:1012600002C0B3F90480D5F808A1AA4A0B46084683
:10127000B2E0A949D5F808910A70A449B3F800E092
:10128000C888B3F802C0B3F90450A449A24280F060
:10129000238199F90030DFF890825B426B4317F0AD
:1012A000805F07EE903A29D00FFA8CF306EE903A61
:1012B00003B206EE103A0FFA8EF3B8EEE77A07EEB5
:1012C000903ADFED975AF8EEE66AF8EEE77A76EEB6
:1012D000A56A77EEA57AD1ED005AB8EEC66A67EE38
:1012E000A57A51ED015AE6EE257A91ED016AE6EE16
:1012F000867AD1ED026AE7EE267A24E00FFA8EF3C1
:1013000006EE903A03B206EE103A0FFA8CF307EEAF
:10131000103AD1ED015AB8EEC77AB8EEC66A27EE98
:10132000257A51ED015AA6EE257AF8EEE66A91ED9E
:10133000006AA6EE867AF8EEE77AD1ED026AA7EEA9
:10134000A67AF0EE477AFDEEE77A103117EE903A82
:1013500028F81230013299E79AF900506D4208FBE3
:1013600005F507EE905A17F0805F0DF12C09F8EEA5
:10137000E77A34D00FFA8EF506EE905A0FFA8CF514
:1013800007EE105A9FED666AF8EEE66AB8EEC77A85
:1013900076EE866A37EE067A92ED026A27EE067AD4
:1013A00092ED016AA6EE867A0FFA83FBD2ED036A0C
:1013B000A7EEA67AFDEEC77A17EE905A29F81050DC
:1013C0000BAD35F810500FFA85F9D9451ADD2B46CB
:1013D0000D46013010322946A042BDD318E00FFA65
:1013E0008CF506EE905A0FFA8EF507EE105A92ED34
:1013F000016AB8EEC77AF8EEE66A27EE067A92ED51
:10140000026ACFE70FFA81FBD945E2DB1D46DEE732
:10141000444A41481268558817885B1AE91B89B20B
:101420000AB21BB293424FF0000214DD4FF0010EDE
:1014300080F800E0A2420BD20DF12C0E3EF8120013
:1014400010FB01F090FBF3F02EF812000132F1E7EF
:10145000B8B2ABB207E00270022193FBF1F3FA18C5
:10146000EB1A90B29BB2294AD5880021A14233D20F
:101470000BAA32F9112007EE902A2AB206EE902A22
:10148000244A02EB0112B8EEE77AF8EEE66AD2EDF2
:10149000007A02B266EEA76A07EE902AF8EEE77AC3
:1014A000F4EEE76AF1EE10FA0BD41AB207EE902AC6
:1014B000F8EEE77AF4EEE76AF1EE10FAD8BFF0EE54
:1014C000667A77EE277A184FFDEEE77A17EE902AC4
:1014D00027F811200131C9E7049B0A4F1A7802F05E
:1014E000040202F0FF030ABB3A7877E0050400200B
:1014F00060300020B03000209E3E00200804002014
:10150000141700201C3100208430002054300020AB
:1015100070450020C40D00208C4A0020C80D00201A
:1015200000000000C4310020E8160020AE4B3068F7
:10153000DB78069310F00060AC4C1ED1226841F2BB
:101540001D031340BBB9AA4A97F800E01388012194
:1015500071451DB207D232F91130AB42B8BF2B46EC
:101560009BB20131F4E7A34A12685288954204DD28
:101570009A1A92B202E0024600E000229E492368D5
:10158000B1F906409D4997F800B0D1F8CCC19C490B
:1015900041F21D0E03EA0E0E03F480580D689549C2
:1015A00003F010030993924B096803EB4B0B5B4567
:1015B0000BD0002840F04084BEF1000F40F0528470
:1015C0001F88BF1A1F8000F04DBC8C4890F8D031A6
:1015D000013BDBB2182B00F2448109E09342F4D2C4
:1015E000884931F81300824921F813000133F5E7E7
:1015F00001229A40844B1340002B00F03281834B30
:101600007D491B8813F4807F08D0814B1A88ADF880
:101610002C205A88ADF82E209B8815E07D4B1A8827
:10162000ADF82C205A88ADF82E20704A9B8812689D
:10163000ADF83030D40409D5D0F8CC21B1F906404A
:10164000D289944202DA5B42ADF83030724DB5F97E
:1016500002304FF47A7203F5E16353434FF461644F
:1016600093FBF4F3A3F5FA73ADF84430B5F9003009
:1016700003F5E1635A435E4B92FBF4F21B88A3F23D
:10168000DC53A2F5FA72ADF83230D0F8CC31ADF8B7
:101690004620DB890A88D21AADF834204A88D21A4B
:1016A000ADF836208A88D21AADF83820CA88D21A06
:1016B000ADF83A200A89D21AADF83C204A89D21AEC
:1016C000ADF83E208A89D21AADF84020CA89D31AD3
:1016D000ADF842300023514A002122F813100133A3
:1016E000082BF8D14E4B4F4A1B7812684E49069290
:1016F000D6F800B04D4D072202FB031A514500F009
:1017000097800B7833B103F115020123934013EA5C
:101710000B0365D011F806EC069B11F8059C11F837
:10172000034C11F801CCCEEBCE0703EB4707642046
:10173000B7F90020B7F902309B1A9BB211F9022CBD
:101740004FEA53085A434FEA490692FBF0F212A8B7
:10175000C8EB020292B2064414B936F81C0C0CE035
:10176000B5F9000036F91C6CB04208DA0444844232
:1017700003DBA6423046A8BF2046288008E007DDEC
:10178000041BB44203DB8442A8BF044626462E80D5
:10179000D7F80A4011F9046C012000FA09F0204240
:1017A000288812B216FB00F014BF4FF0FF3401245A
:1017B000642690FBF6F090420ADB4FFA8CF25A4313
:1017C00092FBF6F2C8EB020212B28242A8BF0246B6
:1017D000124B33F81E8002FB048423F81E4000E005
:1017E0002B800235073189E73C4A002070450020F4
:1017F000E8160020C431002074450020B80C0020F9
:10180000C0310020CE460020992098019C1600206F
:10181000543000208430002000170020D216002011
:10182000C831002074250020CF3100208A0E00200E
:10183000B04BB14E1F6800250E2202FB057236F830
:10184000023F92F90640E8B214FB03F3642493FBD1
:10185000F4F434800DF016F901352044082D308061
:10186000EAD1A64FA64D3B68A24E13F0200F32D00E
:1018700000200DF007F92880044601200DF002F940
:10188000A04B68801B68190625D59F4B9F4AD3F84B
:10189000F4311B78012B22D13168138891F914E0BF
:1018A000B2F902201EFB03F34FF0320C93FBFCF362
:1018B0001FFA83FE91F906305B4253436FF031010A
:1018C00093FBF1F10EEB0102A11893FBFCF37344BF
:1018D000298018446880D6F800E0002318E0D6F884
:1018E00000E053889EF9061011FB03F1322391FBAF
:1018F000F3F12144298011889EF9142012FB01F292
:1019000092FBF3F21044E5E70133082B2A5311D080
:101910000E2101FB03E135F91300B1F90020B1F903
:10192000021090424FEA4304EEDB0AB28242A8BFA3
:101930000246E9E7744CD4F8089199F90830A3B944
:1019400094F8D08108F1FF33182B72D8DFE803F048
:101950003571714F71717148717171717159717116
:101960007171714F657171593500DFF88CA14FF0BD
:101970000008674B3AF9021FB9F90620882000FBDE
:1019800008300CF0A7FE32680E2380B203FB082259
:10199000AAF80000B2F90030B2F9022000B2984271
:1019A00003DB13B28342A8BF034608F10108B8F174
:1019B000080FAAF80030DCD1C2E799F8043013B15F
:1019C0000020698908E0049B1B7803F0040303F0FE
:1019D000FF00002BF4D101460FF018FA012629E090
:1019E0000020E9880FF012FA0120298905E0002083
:1019F00029890FF00BFA698901200FF007FA0226F6
:101A000018E00226B01E35F81610C0B201360FF0ED
:101A1000FDF9082EF6D106260CE00326F01E35F857
:101A20001610C0B201360FF0F1F9072EF6D10426D8
:101A300000E000263B689A0602D4B8F1050F0AD1EF
:101A4000304629880FF0E2F9701CC0B269880FF0A7
:101A5000DDF90236F6B23B68DB0205D494F838367D
:101A60007BB10CF04FFF0CE0DFF8B080002570195F
:101A7000C0B238F8021F0FF0C9F90D2DEED00135B4
:101A8000F5E7244B1878002840F01F823B681D03BF
:101A900040F11B8294F83936023B052B19D81E4BB6
:101AA00093F800382BB9184BD3F83C0603689B68B1
:101AB0009847D4F8403694F844261344B3F5807F11
:101AC000A8BF4FF480738342D4BFC4F84036C4F833
:101AD000400694F83936023B082B00F2F681DFE825
:101AE00013F01F00550077008D00A600B8002A01F2
:101AF0004801550174250020D016002070450020B3
:101B0000D2160020A0160020B80C002000170020DC
:101B1000B00E0020774A0020183D00207A450020B2
:101B2000A94B1A68D4F84C3664339A4240F2CD81FE
:101B300040200DF0F3FE002840F0C7814027A34B62
:101B4000D4F84826A24E985C1D4670B10AF034FFC6
:101B5000D6F84036013BC6F84036D6F84836013F45
:101B600003F10103C6F84836E9D1D4F84826984B6A
:101B7000AA5C002A40F0A981C3F848264FF0FF3242
:101B8000C3F84C26032283F839269EE124230093D0
:101B9000904B019303F10C0202924920A3F10A0237
:101BA000502102330BF094FA002840F08E813B68FC
:101BB00013F080034FF0FF3205D0C4F84806C4F894
:101BC0004C260423ECE0C4F84836C4F84C262CE03C
:101BD000814A02230021009301910291482002F1E1
:101BE00008030BF075FA002840F06F814FF0FF33C7
:101BF000C4F84C36C4F848060523D1E00723009307
:101C0000764B019303F10C0202924720A3F10802E4
:101C1000002104330BF05CFA002840F056814FF0AD
:101C2000FF33C4F84806C4F84C360623B8E06C4AC3
:101C300005230021009301910291532002F1080332
:101C40000BF046FA002840F04081C4F8480607230C
:101C5000A6E040200DF062FE002840F03681D4F866
:101C600048360C2B00F2A480DFE803F0070B0E12BD
:101C700019252A2F3337455054005A480DF04AFF92
:101C800053E05948594913E059485A495A4A4AE0D9
:101C90005A4B5B4893F8FE1793F8FF2743E0574BE6
:101CA000584893F8D8270C2101FB023393F8DA1730
:101CB0000DF030FF39E0514B5348B3F84011F7E7CE
:101CC0004E4B5248B3F84211F2E7514B5148196953
:101CD000EEE7514B51481988EAE7D4F85036D8045A
:101CE00004D5464B4E4893F87811E1E7384B0B2268
:101CF000C3F8482619E0414B4A4893F87C1193F801
:101D00007D2193F87B310DF005FF0EE04648B4F8D5
:101D10005416CDE73B68190507D5384B4348B3F84F
:101D20008011B3F97E210DF0F5FED4F84836013369
:101D3000C4F84836C9E03E4B1B689A0116D5B4F882
:101D40005836234D93B9D5F85C360B93394B0E209A
:101D50001B680C930BA90AF0F7FE4FF48053A5F80B
:101D60005636092385F839360AF046FF0AF0CEFECA
:101D7000ABE094F86036002BF6D02D4B1B689B012E
:101D8000F2D4134B082283F83926EFE70E4B1A687A
:101D9000D4F84C36C8339A4205D90DF0DDFD012345
:101DA00084F8393691E00DF0F1FD0028F5D18CE092
:101DB0000DF0ECFD002800F088804FF48053A4F86B
:101DC00056360923ECE700BF783600204887010823
:101DD000B80C0020B28701085889010870890108F1
:101DE000BC89010808AA010822AA010837AA01082B
:101DF0003FAA010853AA01085FAA0108183D002064
:101E000068AA010879AA010883AA010892AA010810
:101E1000BC300020A1AA01080C040020B1AA0108CE
:101E2000BBAA0108C8AA0108E1AA0108ECAA010896
:101E3000A0160020D4490020B8F1000F15D0BCF83E
:101E40000E70B3F90090BC42CBBF6F888F88B1F899
:101E500002A0B5F800A0B94524DBD1454F46A8BF84
:101E600057461FE0B8F1000F20D1069FB1F802904D
:101E7000B3F900A03FB18F88BA4513DBCA45574676
:101E8000A8BF4F460EE00F88BA4503DBCA45574648
:101E9000A8BF4F461F80BCF81070BC4203DA099FF0
:101EA0000FB18F881F800233FFF781BBBCF80E9003
:101EB000EF88C7EB090A5445C1DD4F44BC42BEDA86
:101EC0004C45CCBF6F882F88ECE713B0BDEC108B6E
:101ED000BDE8F08F2DE9F04FA34FA44C3A6802F50E
:101EE0009C432DED028B20332360A14B1E7887B0DD
:101EF000D6B1A04909688A4240F20881013E1E70AD
:101F000004E1DFF890829C48D8F80030072D98BF94
:101F1000595D9A4B88BF29461B689847032D09D9FC
:101F200004EB45050136A88010F030FCF5B285427F
:101F3000E7D320E0D8F8002005F10E0302EB83037D
:101F4000D9881A890028EBD04FF47A73401A584385
:101F5000531A90FBF3F040F6C90300F57A709842EB
:101F600005DC40F2EE239842B8BF184601E040F687
:101F7000CA0080B2D4E7824B824E1B68D6F800803C
:101F800042F2010A03EA0A0ABAFA8AFA4FEA5A1A2C
:101F90007D4BBAF1000F05D194F828201A707B4AC6
:101FA000517811701B782BB1784B93F8009089F021
:101FB000010900E099460F23DFF8F0B184F82930D9
:101FC000002510F0E3FB854267DA6B00B9F1000FE2
:101FD00003D06F4A32F8150000E048466D4ADFF83A
:101FE000D0C11168CA8A82424FEA850E6A4A02D875
:101FF000098B81421CD25CF80E005C49804501D2FD
:10200000D05A19E0E8B202928DE80A0010F0D2FB33
:10201000032D019B029A0FDC00994FF0010E91F8FD
:1020200029C00EFA05FE2CEA0E0E81F829E003E025
:1020300008F596714CF80E10BAF1000F28D194F8FB
:10204000BC100322B1FBF2F202EB42028A1A03EB4C
:10205000050E5EFA82F204EB4202508594F8BD2030
:102060002AB9022913D9414A012182F8BD10BBF8CF
:1020700000203BF8020C1044BBF802201044474AF1
:1020800080B2D05200B2032290FBF2F080B2424AFA
:10209000D05201350BF1060B93E794F82920404B01
:1020A000A2F10F014A424A4184F8D6206AB13D4A62
:1020B0001268520109D43268D9689A60521AC82A43
:1020C0001FD9012283F821201BE0304A01215170E1
:1020D000117032689968DA605B68521A9A4282BF5E
:1020E0002F4B002283F82120002510F04FFB854262
:1020F00007DAE8B210F05EFB274B23F81500013534
:10210000F3E794F8BC30013384F8BC301C4B1A68F8
:1021100012F4805F984605D0224B1B68DE0701D47D
:1021200010F0BAF81B4B39681868837A002B41D03D
:10213000013B194D027B35F813301AB1C3F53B63EF
:1021400008339BB21BB2A3F57A73B3F57A7FA8BFAD
:102150004FF47A7323EAE37307EE903A9FED127A15
:10216000F8EEE77A5FE000BFD44900201C1300209E
:10217000384A0020344A002028450020BC040020B2
:102180007045002078360020302F00200104002008
:1021900020130020304A002074450020DA1300206C
:1021A0003C4A0020A016002000007A44481300207A
:1021B00090130020D8F80020150440D5D4F8D8207A
:1021C000934E8A1A002A3ADB01F59C422032C6F867
:1021D000D820904AC07A55798F4A32F8152096F85F
:1021E000DC50013592B292FBF0F205F00F0086F858
:1021F000DC00304480F8DD201A468848185C013342
:102200000244102B92B2F8D112B292FBF3F31BB23C
:10221000642BA8BF642323EAE37307EE903A9FED93
:10222000807AF8EEE77AC7EE877A7E4A9FED7E7A6B
:1022300067EE877AFCEEE77A17EE903A1380D8F8CB
:1022400000307A4D13F4807F00F00981784BDFF87D
:10225000E491994205D999F8022012B9012289F82E
:10226000022099F80220002A00F0F980714A2F78A4
:1022700092F82160721E564256416F4A1168002E34
:10228000C1F38063C7F380070093924614BF4FF0F9
:10229000000B4FF0030B99F82020052A00F2D9809B
:1022A000DFE802F0034D527584A1002F3AD0D4F834
:1022B000F000B4F8F41008F064FE012809D15F4979
:1022C0005F4A09681268C988642000FB0122C9F8C6
:1022D0001020009B6BB1594A126812794AB110F074
:1022E0006FFB032289F820204FF47A72C9F81C2072
:1022F000D1E7002E40F0AD80514AD9F81010106897
:102300004C4A88420AD9019210F05AFB019A0321E3
:1023100082F8201040F6B831D161BCE7012182F883
:102320002010B8E7009B4FF4806013B107F0D0FF96
:1023300001E007F0BDFF0022C9F8102089E0002E5F
:1023400046D110F03DFBA6E726B1052289F82020F2
:10235000012000E0304667B1D4F8F020D189394A35
:10236000118051809180354909684988D1804FF0AA
:10237000020B334A1168D9F81420914201D8002F7A
:1023800064D147F23052C9F81C20032221E02A7898
:1023900042F002022A700FF07FFF294AD9F81C1080
:1023A00012680A44C9F81820042212E0244A9EB197
:1023B0001168D9F8182091424BD9234A92781AB95A
:1023C000DAF80020D30744D42A7822F002022A70D7
:1023D000052289F820205EE71268D9F81C100A440B
:1023E000C9F8182035E01549154A09681268C988E6
:1023F000642000FB0122C9F810204FF48060002205
:1024000089F8202089F8032007F052FF43E700BF36
:102410001C1300208824002098240020F913002099
:102420000000C8420C17002000C07F44764A0020FC
:10243000404B4C003C4A0020A0160020684A002077
:1024400078360020744500200104002000287FF425
:1024500022AFBBF1000F02D0584608F045FEA94E4E
:10246000A94FB6F84E1106F5C37008F08AFD8246F2
:1024700030BBA64B1B6813F0006908D0FB7833B95A
:102480000CF078FEA24B012818BF002018702B78A2
:10249000580708D5D8F80030D90604D4B9F1000F90
:1024A00001D0FB785BB39B4B1B6803F57A73012269
:1024B000C4F8F830964B3A71FA7000221A701EE098
:1024C000D8F80030DA0615D42B785B0712D58F4B7D
:1024D0001B6818010ED5FB7863B18E4B1A68D4F8CF
:1024E000F8309A4209D90CF045FE30B9884BF870A3
:1024F000187002E0864B00221A7000233B712B7883
:10250000590735D5D8F80030DA0631D5824B1B781B
:10251000DB062DD4BB7893B196F8E031BAF1000F09
:1025200015D17BB17B4B1A68D4F8FC309B1A002B79
:1025300008DA0FF0B1FE794B83F800A118E0BAF188
:10254000000F0DD1102008F0CFFD01230EE03BB1AC
:10255000704A12684FF47A7101FB0323C4F8FC300F
:1025600094F8003123B108F0A7FD002384F800316E
:10257000002296F8DEB196F8DF11B6F896E1B6F8CB
:1025800098C11346DFF8A491CDF8009039F91200F4
:102590009B087045C4BF63F07F03DBB20132604526
:1025A000B8BF43F04003042AECD194F801215B4802
:1025B0009A4205D190F80221F92A04D8013200E0AC
:1025C000002280F8022184F80131BB78534ADFF8F9
:1025D0003C9133BBD9F80000C0070AD582F803311B
:1025E000BAF1000F1DD12B78DA071AD50FF0AEFC27
:1025F00017E02B785B0714D5494B1B788BB1494BFF
:10260000DB7873B992F803310133DBB2032B82F824
:10261000033106D911B10FF03FFE02E0BAF1000F0D
:10262000F9D094F802313D4ADFF804A1142B40F0B0
:102630009B80BB781BF1000B18BF4FF0010B6BB3F5
:1026400092F801315F2B11D12B7803F0040303F0D2
:10265000FF0113B10FF020FE08E00B200291019260
:1026600008F042FD019A029982F80211BBF1000FB5
:1026700014D094F801317D2B10D12B7803F0040392
:1026800003F0FF0213B10FF007FE07E00B200192E9
:1026900008F02AFD214B019A83F802212B7803F0E0
:1026A000040303F0FF01002B5ED194F801311B4AB3
:1026B000572B0AD11C4B4FF47A721A80D8F800308D
:1026C0001F0651D505F0EAF94EE0D8F800004007A2
:1026D00030D55A2B2ED192F804312BB1012382F838
:1026E000041182F805313FE092F8063183F00103CE
:1026F00082F806310BB10C2000E00D2008F0F4FC4C
:1027000032E000BF183D002001040020A016002088
:102710008D4A002078360020181700201C13002056
:10272000302F00203C4A0020744A002074450020CD
:10273000E41600205D2B00F0B5845B2B00F0B48420
:102740005E2B02D1032000F0B0BC562B01D108F063
:102750005BF8BB78002B00F0BB8494F801316F2B41
:1027600040F0B0840FF0F2FBD8F800305B0738D5AA
:1027700094F80631B94A9BB12B785F0710D5009BBE
:10278000B3F90610B6F89631994209DDD9F8003050
:1027900013F0010302BF3221A2F80A1182F80631B8
:1027A000D9F80030D8030DD594F80C21AB4B2AB9D9
:1027B00093F8042112B93222A3F80A21012384F8E4
:1027C0000C310EE094F80431A44A53B12B7803F095
:1027D000040303F0FF0123B9012382F8041182F8F6
:1027E0000531DAF800A00023C9F800300AF18707A4
:1027F0000AF1D70B3A787B7817F8010C9A420DD280
:10280000394608F073FB48B117F8022C012303FA8C
:1028100002F2D9F800301343C9F8003004375F459D
:10282000E8D18F4B1B785BB18E4BDFF854B21A683E
:10283000DFF850A212F0020F994640F03B8332E3DA
:102840000AF1D6070AF58F793A787B7817F8010CE8
:102850009A4225D2394608F049FB08B3BB7897F86D
:1028600004C0814A97F803A07C480C21013B01FB7E
:102870000C4103EB43031344D1F814219A420FD0C7
:10288000C1F81431002390F84021C1F81831012318
:1028900003FA0CF322EA030381F810A180F8403117
:1028A00006374F45D0D1714B1F68714B1B6802939F
:1028B000704B1B780393704B019300230093019B93
:1028C0001A68002A00F0E48292F800A0BAF1000F22
:1028D00000F0DE825B680299CB1A002B0CDB01F55D
:1028E000FA7301994B60009901238B4094F84011D1
:1028F00021EA030384F84031039B002B00F0C882D7
:10290000019B517813F8043C0433DBB2002940F0FA
:102910007E825A4931F91310B6F8943103F1C80098
:10292000814202DD92F802B015E0C83B994203DA19
:102930009178C1F1000B0EE0009A0123934094F8C6
:10294000402122EA030384F84031029B019A03F5F7
:10295000FA7353609CE294F84031009A1341D9070E
:1029600000F19682BBF1000FCCBF0220012008F0DD
:10297000F5FB0AF1FF33DFF8E490132B00F28082BD
:10298000DFE813F01400250037004B0064008800D6
:10299000EB004E01B501E30113027E024B005A0029
:1029A0008800EB004E01BD002001850197F80090E2
:1029B000D944B9F1FA0FA8BF4FF0FA0929EAE97929
:1029C000384687F8009008F07BFA01200FE097F86E
:1029D0000190D944B9F1640FA8BF4FF0640929EA06
:1029E000E979384687F8019008F06AFA02204946EA
:1029F000D8E197F803A0DA44BAF1640FA8BF4FF00A
:102A0000640A2AEAEA7A87F803A03846D9F844111A
:102A100008F00CFA03205146C4E17979594464293D
:102A2000A8BF642121EAE17179710D2008F0DAFA7A
:102A3000BAF10D0F00F02482397959446429A8BFF6
:102A4000642121EAE17139710E20ABE1B979594471
:102A500081F30801B9710520A4E100BF1C13002017
:102A6000774A0020A0160020E489010814170020EE
:102A700078360020302F00203014002074450020CC
:102A8000981600209C16002000007A440000C842DE
:102A900000000000D9F848311A78022A20D107EE48
:102AA00090BAB8EEE70A5FED077A93ED097A80EE07
:102AB000270A30EE070AB5EEC00AF1EE10FA07D485
:102AC000B4EE670AF1EE10FAC8BFB0EE670A01E093
:102AD0001FED110A83ED090A0F2008F06DFA0AE0D4
:102AE00099785944C829A8BFC82121EAE171997091
:102AF0000F2008F077FABAF10F0F00F0C181D9F872
:102B000048311A78022A1ED107EE90BAB8EEE78A49
:102B10005FED227A93ED080A88EE278A38EE000AE4
:102B2000B5EEC00AF1EE10FA07D4B4EE670AF1EE82
:102B300010FAC8BFB0EE670A01E01FED2B0A83ED63
:102B4000080A122056E159785944C829A8BFC8215B
:102B500021EAE1715970122024E1D9F848311A783C
:102B6000022A20D107EE90BAB8EEE70A5FED397A73
:102B700093ED0C7A80EE270A30EE070AB5EEC00A14
:102B8000F1EE10FA07D4B4EE670AF1EE10FAC8BFFE
:102B9000B0EE670A01E01FED420A83ED0C0A102037
:102BA00008F00AFA0AE0197B5944C829A8BFC821CD
:102BB00021EAE1711973102008F014FABAF1100F2C
:102BC00000F05E81D9F848311A78022A1ED107EE4A
:102BD00090BAB8EEE78A5FED537A93ED0B0A88EE70
:102BE000278A38EE000AB5EEC00AF1EE10FA07D4D3
:102BF000B4EE670AF1EE10FAC8BFB0EE670A01E062
:102C00001FED5D0A83ED0B0A1320F3E0D97A5944D6
:102C1000C829A8BFC82121EAE171D9721320C1E0F7
:102C2000D9F848311A78022A22D107EE90BA1FED5E
:102C30006A0AF8EEE77A87EE800AD3ED0F7A30EE73
:102C4000270AB5EEC00AF1EE10FA09D45FED717AE9
:102C5000B4EE670AF1EE10FAC8BFB0EE670A01E001
:102C60001FED750A83ED0F0A112008F0A5F90AE09F
:102C7000997D5944C829A8BFC82121EAE1719975F5
:102C8000112008F0AFF9BAF1110F00F0F980D9F86E
:102C900048311A78022A20D107EE90BA1FED860A31
:102CA000B8EEE78A88EE008A93ED0E0A38EE000A45
:102CB000B5EEC00AF1EE10FA09D45FED8C7AB4EEED
:102CC000670AF1EE10FAC8BFB0EE670A01E01FED27
:102CD000900A83ED0E0A14208CE0597D5944C829CE
:102CE000A8BFC82121EAE171597514205AE0D9F82A
:102CF00048311A78022A1ED107EE90BAB8EEE78A58
:102D00005FED9E7A93ED0A0A88EE278A38EE000A74
:102D1000B5EEC00AF1EE10FA07D4B4EE670AF1EE90
:102D200010FAC8BFB0EE670A01E01FEDA70A83EDF5
:102D30000A0A09205EE0D9785944C829A8BFC821E9
:102D400021EAE171D97009202CE0D9F848311A78CC
:102D5000022A1ED107EE90BAB8EEE78A5FEDB57A87
:102D600093ED0D0A88EE278A38EE000AB5EEC00A08
:102D7000F1EE10FA07D4B4EE670AF1EE10FAC8BF0C
:102D8000B0EE670A01E01FEDBE0A83ED0D0A0A20CE
:102D900030E0597B5944C829A8BFC82121EAE17114
:102DA00059730A2008F01EF96AE0D9F848311A78F8
:102DB000022A22D107EE90BA1FEDCD0AB8EEE78ABB
:102DC00088EE008A93ED100A38EE000AB5EEC00ACC
:102DD000F1EE10FA09D45FEDD37AB4EE670AF1EEA2
:102DE00010FAC8BFB0EE670A01E01FEDD70A83ED05
:102DF000100A0B2008F0E0F842E0D97D5944C829B8
:102E0000A8BFC82121EAE171D9750B20CAE70129C1
:102E100036D19078BF4A32F91390B9F5617F05DB5E
:102E200040F633039945A8BF994601E04FF4617914
:102E3000BAF10C0F24D1B84A4FF4966393FBF0F02B
:102E40001378A9F5617999FBF0F95FFA89F94B4597
:102E500016D0B9F1040F34BF4B4602231370AF4AAA
:102E60000AFB036303F2DA7313600CF0D2F95046E5
:102E7000494608F0B7F809F10100C0B208F06EF950
:102E8000009A0123934094F84021134384F8403181
:102E9000009B01330093019B0C330193009B042B97
:102EA0007FF40DADC0E4D8F80030DA050FD59C4BA7
:102EB000DB7863B1DBF800309B0708D5BAF8003047
:102EC00013F0010708D1012007F002FA04E0012005
:102ED00007F0EEF9012300E00023D9F8002057079E
:102EE0000BD553B1012007F0E3F9BAF80030980789
:102EF00006D4022007F0ECF902E0022007F0D8F92E
:102F0000BAF80070874B17F0030F4FF4004214BF5C
:102F10005A831A83DBF80030990609D4D9F80030B7
:102F20001A0540F18D804FF4807007F0D1F98BE0E5
:102F30007D4B1B789B074ED57C4B1B78042B4AD9C5
:102F4000D9F8003013F4007B07F010070CD0B7BBA2
:102F5000102007F0BDF9202007F0AAF97448011DE0
:102F600004F0F0FC022326E0BFB22FB1102007F0DE
:102F70009FF9012784F84CB1D9F80030580512D5D3
:102F8000D4F850316B495A89B1F90030002BB8BFE1
:102F90005B42934207DAB1F90230002BB8BF5B42C3
:102FA0009342C0F2FA80BAF80030990608D5202082
:102FB00007F07EF9002384F84C31012700E0002758
:102FC00094F85431A3B90E2008F08EF85A4B012220
:102FD00083F854210CE017F0300F9FD0102007F039
:102FE00067F9202007F064F9002384F84C3101E0F0
:102FF000002F93D0514B002003F1280E03F150070E
:103000004F4A002122F810104E4A596022F8101041
:103010000432CEF8041022F8101000221A609A60D0
:10302000CEF80020CEF808203A607960BA601433F8
:103030000EF1140E143700287FF470AF0120DFE783
:103040004FF4807007F034F97379082B01D00E2B00
:1030500002D1402007F02CF9D8F800305A0519D5D4
:1030600096F81C321BB92B7813F0040F03E0D9F843
:10307000003013F4002F09D0334B00221A703C208B
:103080000CF044F830B10EF05DFAF8E70AF0E0F920
:103090000BF059FF012384F8D83107B0BDEC028B47
:1030A000BDE8F08F012000E00220C7B27B1E86F849
:1030B000D83707F05DF907F0F1F9384608F04EF817
:1030C000FFF752BBBBF1000F02D07E2B3FF44AAB9F
:1030D00094F80131972B06D1174B4FF4C872A3F81F
:1030E0000821FFF741BBA72B06D10F4A137843F005
:1030F00004031370FFF738BB0022BB2B059201D1EC
:10310000022303E0B72B21D14FF6FE73ADF8163042
:1031100027E000BF74450020CC4600201417002093
:103120003C4A0020000C024018170020191700200C
:1031300030170020543000201C130020741400208D
:10314000884A0020EC1400202D450020BE2B01D120
:10315000022304E0BD2B7FF407AB4FF6FE73ADF8FE
:103160001430DAF80030BDF81410B3F864200A44C3
:10317000A3F86420BDF81610B3F866200A44A3F83B
:10318000662007F0F5F807F089F9012007F0E6FF5F
:10319000002384F80231FFF7E7BABAF800309B0643
:1031A0003FF50EAF202007F093F80748074B011DAD
:1031B0001A685B684360026004F0C4FB044B01279B
:1031C00083F84C71FCE600BF381700201C17002064
:1031D0001C1300208F4A1368988A80B2C1B270B560
:1031E000CE072ED5198821F400610904090C198035
:1031F000198889B241F480611980002111715179D7
:1032000099B1917911B9D179FF290ED1012191712B
:10321000117A022901BF198889B241F4006119802D
:10322000517A41F001011982DFE0517A01F0FE018B
:103230001982D379FF2B00F0D880764BFF211971CA
:10324000D3E08D073AD5BFF35F8F107AC0B2012863
:1032500013D1517989B1917979B1198821F48061BB
:103260000904090C1980BFF35F8F198B19889072BC
:1032700089B241F4007119801BE0198BBFF35F8F95
:10328000107A644902280AD1487940B1897931B16C
:10329000198821F480610904090C19809FE0107AD3
:1032A0005C49032805D1487918B18979002940F093
:1032B0009680998889B241F4806195E04C0754D595
:1032C000012191725179002936D09179002933D0AA
:1032D000117A1888022911791CD920F48060000421
:1032E000000C18801C8AD568C8B249B2E4B26C548C
:1032F000198889B241F400711980811C1171013063
:10330000198A40B2C9B22954998889B241F48061BE
:10331000998026E080B240F4007018801C8AD5683D
:10332000C8B249B2E4B26C54411C1C8A49B2E4B23E
:1033300003306C54107114E09179364809B9017C5E
:1033400041B1198889B241F40071198011790131B4
:10335000117106E0198889B241F480711980012148
:1033600081711988C905FCD43FE001F0400101F0EA
:10337000FF04E1B110791E8AD568C4B240B2F6B23A
:103380002E54611CC9B2157A117149B2C81C85420C
:1033900001BF988820F480600004000C08BF98806A
:1033A000137A8B4221D11B4B02341C711DE006069F
:1033B0001BD5117948B2451C0AD05469205C18828B
:1033C0000131C9B2107A117149B288420DD106E0BB
:1033D000D17919825179147109B9117A29B9998869
:1033E00021F480610904090C9980117A92F9040092
:1033F000084B013188420CD100219971997A31B181
:1034000019688B8823F440731B041B0C8B800023EA
:10341000137670BDF8140020054B5A7E02F0FF01B0
:1034200022B10122027000225A7670470170704763
:10343000F8140020194B73B59D7E0446EDB9184B66
:1034400006215E6818786A46B04718B39DF80020D8
:103450009DF8013043EA022323809DF802209DF865
:10346000033043EA022363809DF804209DF8053071
:1034700043EA0223A38001250CE00222D96991FBD3
:10348000F2F10180196A5B6A91FBF2F193FBF2F3AE
:1034900041808380284602B070BD00BFF814002030
:1034A0001C09002013B5044672B6104B06215B6858
:1034B0006A463B20984762B6A8B19DF800209DF867
:1034C000013043EA022323809DF802209DF8033057
:1034D00043EA022363809DF804209DF8053043EA07
:1034E0000223A380012002B010BD00BF1C090020F0
:1034F0002DE9F0438A4E33689A8A89B092B20192DC
:10350000019A12F4706F1CBF012286F82820019ADC
:1035100012F4E06F00F089811A8B9A8822F480629D
:103520001204120C9A80019A950500F17E811A8886
:10353000940500F17A811A88D00540F16B811A88D0
:10354000D105FCD41A8892B242F400721A801A880B
:103550009205FCD496F82920714B0AB9714A03E010
:10356000012A0CBF704A714A1A6034686D484FF6E0
:10357000FF7302220121844202938DF80C208DF802
:103580000D208DF80E108DF80F10654B3DD1684D54
:10359000684F002283F8292028464FF400724FF428
:1035A00080710BF093FB3B6B43F002033B633B6C7E
:1035B0000DF1200843F400133B644FF4807348F886
:1035C000183D2846414605F01FFA4FF4007328467F
:1035D0004146029305F018FA6B6A23F00F036B6201
:1035E0006B6A43F004036B626B6A23F0F0036B6257
:1035F0006B6A43F040036B623B6A43F400133B6227
:103600003B6A23F400133B6298E0474884423FD171
:10361000474D484F83F829104FF4006228464FF475
:1036200080610BF053FB3B6B43F002033B633B6C4D
:103630000DF1200843F480033B644FF4806348F8A5
:10364000183D2846414605F0DFF94FF40063414636
:103650002846029305F0D8F96B6A23F470636B6215
:103660006B6A43F480636B626B6A23F470436B6232
:103670006B6A43F480436B623B6A43F480033B62B2
:103680003B6A23F480033B624FF02208212758E075
:1036900026498C4252D1284F264D83F8292038469E
:1036A00010224FF480710BF011FB2B6BDFF8808040
:1036B00043F002032B632B6C0DF1200943F400034C
:1036C0002B644FF4807349F8183D3846494605F09D
:1036D0009BF9102340464946029305F095F97B6A11
:1036E00023F00F037B627B6A43F004037B62D8F80C
:1036F000203023F47023C8F82030D8F8203043F469
:103700008023C8F820302B6A43F400032B622B6A15
:1037100023F400032B6248274FF0490811E000BF53
:10372000F81400200054004000580040005C0040A5
:103730000004024000380240000002401F274FF002
:103740002008A38823F440731B041B0CA380238848
:103750009BB243F001032380A58825F03F052D048B
:1037600004A82D0C05F088F90699364BB1FBF3F34C
:103770001D43ADB2A580228822F001021204120C72
:103780002280314AB1FBF2F100298AB208BF01223E
:1037900042F400414FF4967253434FF47A7293FB14
:1037A000F2F301339BB22384A18323889BB243F0BD
:1037B00001032380238823F4816323F002031B0485
:1037C0001B0C43F4806323804FF480432381002546
:1037D000012404A88DF810808DF811508DF8125036
:1037E0008DF8134005F0EBF89DF813308DF810704C
:1037F0008DF811508DF812501BB104A805F0DFF8B8
:1038000013E07B09203307F01F07104ABC4042F841
:1038100023400AE01A8892B242F400721A809A8811
:1038200022F440721204120C9A803268938A23F4B4
:1038300070631B041B0C93820023337609B0BDE830
:10384000F08300BF40420F00804F120000E100E013
:103850002DE9F0410C4C4FF48065804665830120D2
:1038600017460E4607F0EEFB48F080000BF006FA14
:10387000314638460BF0D0F92583012007F0E2FBF2
:103880000120BDE8F08100BF00100240F8B5084CEF
:103890004FF4806517460E46658340F080000BF0BC
:1038A000EDF9384631460BF0B7F925830120F8BD14
:1038B00000100240F8B50A4C4FF480650746658356
:1038C00001200E4607F0BEFB38460BF0D7F9304614
:1038D0000BF0D4F92583012007F0B4FB0120F8BDDB
:1038E0000010024073B50D460646FFF7E3FF642063
:1038F00007F0A8FB1524304601210DF10702FFF760
:10390000A7FF9DF80730AB420CD029463046FFF7A1
:10391000D1FF013C642007F095FB14F0FF04EAD1CD
:10392000204600E0012002B070BDF0B5454D95F88D
:103930002A3085B0002B40F08280434B1B68002B5F
:103940007DD01A681AB14149086B02430A639A880C
:103950009868ADF800200026022269468DF8032001
:103960008DF802600DF060FB384B39485A6C42F01C
:1039700008025A645A6C42F480425A6403274FF496
:10398000806302A9012402938DF80C608DF80E600B
:103990008DF80F408DF80D7005F036F82D4B1A6933
:1039A00022F470621A611A6942F440721A61D3F803
:1039B000002422F48062C3F80024D3F8042422F403
:1039C0008062C3F80424D3F8002442F48062C3F870
:1039D0000024D3F8082422F48062C3F80824D3F822
:1039E0000C2422F48062C3F80C241B4A136843F4AD
:1039F0008063136001A828238DF804308DF80570CA
:103A00008DF806708DF8074004F0D9FF134B596804
:103A10001A4629B1DB6823B1304607F0B7FB07E04F
:103A20000C4602EBC4030E495960282302F83430D7
:103A30000C4B4FF480625A61012385F82A3005B09F
:103A4000F0BD00BFF814002030090020003802400B
:103A5000000C024000380140083C014018260020BC
:103A6000793B0008003C014008B5FFF75EFF024BC0
:103A70004FF480521A8008BD0C040020394AD388C4
:103A800013B5394C0133D380FFF74FFF94F82B3037
:103A9000002B3AD1354A138823F040031B041B0C3A
:103AA0001380138823F038031B041B0C43F03003EE
:103AB000138013889BB243F04003138080216B2056
:103AC000FFF7F8FE322007F0C8FA01216B20FFF75C
:103AD00009FF18211B20FFF705FF07211A20FFF718
:103AE00001FF234B19201978FFF7FCFE10211C2041
:103AF000FFF7F8FE12213720FFF7F4FE38200121EE
:103B0000FFF7F0FE012384F82B301A4C174A0023EC
:103B10002380138823F040031B041B0C138013889D
:103B200023F038031B041B0C43F008031380138895
:103B30009BB243F0400313806846FFF77BFC9DF97E
:103B40000230013303D19DF90030013302D02388C4
:103B50009BB223B100230620238007F017FB02B09D
:103B600010BD00BF86170020F81400200038004068
:103B7000340900207E360020804B5A6952052DE919
:103B8000F34740F1F7804FF480625A617C4C7D4EE0
:103B900007F03CFAD4F8C830C4F8C800C31A962B12
:103BA0000546338008D9E36A1F2B0EDC04EB830241
:103BB000012111630B4407E0E36A1F2B05DC04EBD2
:103BC0008302002111630133E362E26A6C4B202A15
:103BD0006ED1996B5A6B890041EA42011A6B0A4314
:103BE000D96B42EAC102196C42EA0112596C42EAED
:103BF0004112996C42EA8112D96C42EAC112196DE4
:103C000042EA0122596D42EA4122996D42EA81223B
:103C1000D96D42EAC122196E42EA0132596E42EA76
:103C20004132996E42EA8132D96E42EAC132996FCD
:103C3000B2805A6F890041EA42011A6F0A43D96F74
:103C400042EAC102D3F8801042EA0112D3F884108C
:103C500042EA4112D3F8881042EA8112D3F88C105C
:103C600042EAC112D3F8901042EA0122D3F894102C
:103C700042EA4122D3F8981042EA8122D3F89C10FC
:103C800042EAC122D3F8A01042EA0132D3F8A410CC
:103C900042EA4132D3F8A81042EA8132D3F8AC109C
:103CA00042EAC132F2807288013272800022DA6206
:103CB000D4F8B030324F0133C4F8B030324B062163
:103CC000D3F804C018786A46E047002840D0D7F8F7
:103CD000B4C03B6AF8699DF8052007EB4C0EBEF9AD
:103CE000BC10BEF9B8A0BEF9C080C1EB03097B6A65
:103CF0009DF80210CAEB000AC8EB03089DF800000B
:103D00009DF8013043EA00209DF80330AEF8B8007A
:103D100043EA01219DF80430AEF8BC1042EA0323C7
:103D2000AEF8C03008FA83F37B620CF10103012B7B
:103D3000C8BF00230AFA80F009FA81F1C4BFC7F8AE
:103D4000B4300123F8613962D4BFC7F8B430BB7610
:103D5000D4F8B0300A4F012B0CDD07F057F9D7F833
:103D6000C430C7F8C450C01A0023C7F8B0300123CC
:103D700070807B7602B0BDE8F08700BF003C014058
:103D8000F8140020861700201C090020FFF722BA33
:103D9000FFF7AEBBFFF71EBAFFF7AABB2DE9F04F46
:103DA0002DED028BB64E8DB034780096002C6ED07F
:103DB000B44F3B68002B01F0B180386807F036FA49
:103DC000002801F0AB80AF4BAF4C186807F02BFA1E
:103DD000092801D03F284ED14FF0000A2668AB4D8C
:103DE000D0462EB1AA482968324611F021FE20B9EA
:103DF000AA46B8F1000F00D1A846A64B10359D4247
:103E0000EFD3B8F1000F18D0D8F800E0DAF800C00E
:103E100023681EF803501CF80300A8420DD15A1C59
:103E20009B4938B92D2B05D8974D2A602025CD54B4
:103E3000885402E0CD542260EAE723680BB1D045F4
:103E400010D095480DF088FCD04507D858F8100BD5
:103E50000DF082FC09200DF077FCF5E78F480DF09E
:103E60007BFC002623689E42A7D2894B985D0DF00B
:103E70006BFC0136F6E72368002B40F0BD87042871
:103E800041F03180824805F093F801F047B82746A9
:103E9000834BE21892F84A10012940F0A287814D25
:103EA000DFF82082E3582A60C8F80030AA46C346EB
:103EB000DBF80000DFF80C9207F0B8F9002800F0FA
:103EC0008187D9F8000007F0AEF9DAF8003093F8EE
:103ED0004810064619B924283DD1012238E00129AD
:103EE00004D14D2814BF0022022231E0022904D15E
:103EF0003C2814BF002203222AE003290CD14028C9
:103F00004FF0000102D983F8481051E0587119713F
:103F1000D971987104221BE0042907D1997983F89B
:103F2000490080EA01029A71052211E005293FD17A
:103F3000587919798842987906D970409871481C47
:103F400018710B441E7233E0B0420CBF06220022EF
:103F500083F848202CE0544B1978490728D42328AB
:103F6000D9F8001012D10193009B01201870454828
:103F700001604E4801604E480DF0EEFB47480DF0E1
:103F8000EBFB019B197841F002011970494B1B684A
:103F90001B78B3420CD180216B20FFF78BFC96205D
:103FA00007F05BF8444B454A1A6072B603F0A2FF73
:103FB000DAF80030DFF8EC9093F84820062A7FF416
:103FC00077AF93F8490000F0B7FF8246002840F031
:103FD000F386D9F8002092F849304C2B00F0BF84CA
:103FE00072D8332B00F0F58422D8292B00F081847D
:103FF00009D8252B00F05684272B00F05A84232B58
:1040000040F0F78642E22D2B00F0858408D82B2B58
:1040100040F0EF860DF0B6FA294B587100F0C9BE9A
:104020002F2B00F03F85312B00F04F8500F0E1BED3
:104030003E2B00F0E58010D8372B00F0FF8404D829
:10404000352B00F05F8200F0D4BE392B00F03F84A6
:104050003C2B00F0E08000F0CCBE432B00F0CB8482
:1040600006D8412B40F0C5864FF0000800F0B7BCE1
:10407000442B00F05F854A2B00F09B8600F0B9BE10
:10408000774A0020F046002068250020308C010887
:1040900038250020F08D0108F1AB0108F6AB0108CE
:1040A000803C0020E8460020764A0020C815002009
:1040B00026AC010830450020FCFF0120EFBEADDE3C
:1040C000183D0020EC460020D12B00F0AF8320D813
:1040D000CC2B00F03F820FD8C82B61D004D84E2BD8
:1040E00000F04B8400F085BEC92B00F05883CA2B2A
:1040F00000F0A88000F07DBECE2B00F04183C0F020
:104100003583CF2B00F07082D02B00F0238300F09A
:1041100070BED82B00F031810BD8D32B3AD025D3E9
:10412000D42B00F0A882D62B40F063864FF0000815
:1041300096E2F22B00F0E58210D8EF2B40F0598682
:10414000C74ED6F800900DF027FAA9F86600366839
:104150000DF022FAA6F8640000F02BBEF32B00F05D
:10416000FB84FA2B00F0168300F043BEBD4B1B7896
:1041700003F0040303F0FF08002B40F01A860DF053
:1041800001FAB94B022883F8D80740F2EA8283F893
:10419000D887E6E20DF000FAB44B988000F009BE33
:1041A00092F805804FEA5808B8F1120F03D90BF0C6
:1041B00003F800F0FEBD4FF00009C14507D20DF035
:1041C000EBF903AB23F8190009F10109F5E74246C1
:1041D0000023434507DA03A931F81300A44921F865
:1041E00013000133F5E7122A05D0A14B002123F873
:1041F00012100132F7E79F4B01221A7000F0D9BD6F
:104200000DF0C0F9984E86F8E0010DF0BBF986F884
:10421000DF0100F0CEBD924ED6F800900DF0B2F95D
:1042200018B10228A8BF022000E0012089F8000090
:1042300033681B78022B904B14BF904A904A1A6047
:1042400000F0B7BD864B1A681278022A4FF00009B9
:10425000984673D1D8F800600DF094F907EE900AF3
:10426000F8EE677AB2EE048AC7EE887A06EB890A1E
:10427000D8F80060CAED087A0DF084F907EE900ACC
:104280009FED807AF8EE677A06EB890AC7EE877AA7
:10429000D8F80060CAED0B7A0DF074F907EE900AB9
:1042A0009FED797AF8EE677A06EB890AC7EE877A8E
:1042B00009F10109B9F1030FCAED0E7ACAD1B9F1BA
:1042C000070FD8F800601CD10DF05CF907EE900ADA
:1042D000F8EE677AC7EE887AC6ED117AD8F80060F2
:1042E0000DF050F907EE900AF8EE677AC7EE887A7B
:1042F000C6ED127AD8F800600DF044F986F84C004B
:1043000015E00DF03FF906EB090A8AF80100D8F82C
:1043100000600DF037F906EB090AD8F800608AF85A
:104320000B000DF02FF906EB090A8AF8150009F1C8
:104330000109B9F10A0FC2D100F03BBDD8F8006005
:104340000DF020F906EB090A8AF80100D8F80060A0
:104350000DF018F906EB090AD8F800608AF80B008E
:104360000DF010F906EB090A09F10109B9F10A0F7C
:104370008AF81500E2D100F01CBD8046384E9FED52
:10438000428AD6F800A00DF007F907EE900AF8EE81
:10439000677A0AEB880AC7EE887AB146CAED087ACE
:1043A000D6F800A00DF0F8F807EE900AF8EE677A5C
:1043B0000AEB880AC7EE887ACAED0B7AD6F800A015
:1043C0000DF0EAF807EE900AF8EE677A0AEB880A31
:1043D000C7EE887A08F10108B8F1030FCAED0E7A2A
:1043E000CCD1B8F1070FD9F800601CD10DF0D4F88A
:1043F00007EE900AF8EE677AC7EE887AC6ED117A72
:10440000D9F800600DF0C8F807EE900AF8EE677A68
:10441000C7EE887AC6ED127AD9F800600DF0BCF8C4
:1044200086F84C0015E00DF0B7F806EB080A8AF89C
:104430000100D9F800600DF0AFF806EB080AD9F8D2
:1044400000608AF80B000DF0A7F806EB080A8AF85E
:10445000150008F10108B8F10A0FC2D100F0A9BC9B
:10446000E4160020764A0020183D0020C8150020E0
:1044700074230020D545002008040020DDDE00085C
:1044800029E200080000C84200007A440DF07AF8E2
:10449000132882463FF68BAEDFF86093D9F80060B0
:1044A0000DF070F80023D0490C2202FB0312117AA0
:1044B000814223D10FFA8AF806EB8808137888F82E
:1044C00085300DF05FF888F886000DF05BF888F80D
:1044D00087000DF057F8C54BC54A1A6088F8880068
:1044E000C44BD9F8000018600021853006F038FD73
:1044F000C14B80F00100187000F05BBC0133222B2F
:10450000D1D154E60DF03EF80B2881463FF64FAE70
:10451000BA4B1E680DF036F803283FF648AE062366
:1045200003FB096888F8DA000DF02CF888F8D5004C
:104530000DF028F888F8D6000DF024F888F8D70098
:104540000DF020F888F8D8000DF01CF888F8D90094
:1045500000F02FBC5379092B7FF629AEA84ED6F870
:1045600000A00DF00FF88AF80000D6F800A00DF0BA
:1045700009F88AF801000DF005F833686428A8BF2F
:10458000642018710CF0FEFF33686428A8BF642013
:1045900058710CF0F7FF3368FF28A8BFFF2098710F
:1045A0000CF0F0FFD6F800A0642828BF64208AF839
:1045B00007000CF0E7FF8AF80200D6F800A00CF024
:1045C000E1FF8AF80300D6F800A00CF0E5FFD9F867
:1045D0000030AAF80A005B790A2B40F2EA833668B9
:1045E0000CF0D0FF3072E4E30CF0D6FF6FF4AF6252
:1045F00083189BB2834EC62B98BFA6F894010CF08B
:10460000CBFFA6F840010CF0C7FFA6F842010CF062
:10461000C3FFA6F844010CF0BFFFA6F8D8010CF0C8
:10462000B1FF86F8ED010CF0ADFF0CF0ABFF86F8A2
:10463000EE010CF0A7FF86F883010CF0A3FF86F8CB
:1046400090010CF09FFF6D4BD3F800900CF0A4FF8D
:1046500000EB80004000A9F862000CF093FF39E104
:104660000CF09AFF684B23F8180008F10108B8F124
:10467000080FF5D19DE353790F2B7FF498AD0CF023
:1046800081FF072880463FF692AD5C4ED6F800A029
:104690000CF082FF0E2303FB08F8C244AAF82501A0
:1046A000D6F800A00CF078FFC244AAF82701D6F88B
:1046B00000A00CF071FFC244AAF82901D6F800A0AE
:1046C0000CF060FFC2448AF82B01D6F800A00CF071
:1046D00059FFC2448AF82C01D6F800A00CF052FF12
:1046E000C2448AF82D01D6F800A00CF04BFFC2445A
:1046F00036688AF82E010CF059FFB044C8F82F0133
:1047000057E30CF03FFF0F2880463FF650AD0CF00A
:1047100039FF3C4BC8EBC808984488F8D0000CF02F
:1047200031FF88F8D1000CF02DFF88F8D2000CF092
:1047300029FF88F8D3000CF025FF88F8D4000CF08E
:1047400021FF88F8D5000CF01DFF88F8D6000AF08C
:1047500071F92EE32D4B1B785B0700F12A830AF0D9
:104760009FFD05F005FE05F099FE22E3274B1B781F
:104770005E0700F11E83264B4FF4C8721A8018E3BF
:10478000224B1B78580700F11483224A137843F018
:10479000040326E01D4B1B785907E2D529E30CF0F2
:1047A000F1FE1C4B1A7810B142F0020201E022F037
:1047B00002021A700CF0E6FE174B184E18700CF03F
:1047C000F5FE30600CF0F2FE70600CF0E5FE144B6C
:1047D00018800CF0E1FE134B134A1880137843F055
:1047E00002031370E5E200BF508A01086014002044
:1047F000583E00206414002003040020E41600202A
:1048000014170020183D0020CE460020764A0020D4
:104810002414002018170020191700201C1700204E
:1048200024170020261700202E1700200CF0AAFEC7
:1048300083460CF0BBFE82460CF0B8FE81460CF0BD
:10484000B5FE06460CF0A8FE0CF0A6FE0CF09AFE93
:10485000BBF1000F12D1B94B1020C3F800A0C3F870
:10486000049005F025FDB64A137843F00103137058
:10487000002E00F09E82B34B1E609AE2BBF1100F37
:1048800040F09782B04BC3F800A0C3F804900EB17B
:10489000AC4B1E60AC48AD4B0222011D1A7003F0F8
:1048A00051F886E2AA4B98600CF080FE05F028FDD6
:1048B0007FE20CF071FEA64EA6F858010CF06CFEDB
:1048C000A6F85A010CF068FEA6F85C0171E20CF043
:1048D00059FE9F4E86F878010CF054FE86F87C0154
:1048E0000CF050FE86F87B010CF04CFE86F87D0142
:1048F0005FE20CF051FE964EA6F87E010CF04CFEE5
:10490000A6F880010CF03EFE86F882010CF044FE11
:10491000A6F884014DE20CF035FE8D4E86F88E012E
:104920000CF03AFEA6F898010CF036FEA6F89401B9
:104930000CF032FEA6F896010CF024FED9F80030F7
:1049400086F88F015B79082B40F233820CF024FE4D
:10495000A6F89C010CF020FEA6F89E0129E20CF0BE
:1049600011FE7B4E86F8D6010CF00CFE86F8D701BE
:104970000CF012FEA6F8D8011BE292F80580032382
:10498000B8FBF3F8B8F1120F3FF611AC704E4FF0D0
:10499000000AC24580F00D820CF0F4FD86F8A001FB
:1049A0000CF0FAFD40F2ED23984205DD40F6CA0313
:1049B0009842A8BF184601E040F2EE20A0F2EE2097
:1049C00019230AF1010A90FBF3F0023686F89F01E1
:1049D000DFE70CF0D7FD5E4B83F89001E9E10CF0C6
:1049E000D1FD5B4B434408F10108B8F1080F83F88F
:1049F0008601F4D1DDE10CF0C5FD554E7071C6F8AD
:104A000008A00CF0D3FD05F07BFC0CF0BBFD86F894
:104A10008E010CF0C1FDA6F858010CF0BDFDA6F802
:104A20005A010CF0B9FDA6F85C010CF0B5FDA6F832
:104A30007E010CF0B1FDA6F88001BAE153794FF088
:104A40000708B3FBF8F2C2EBC2029A1A12F0FF0F8A
:104A50007FF4ADABB3FBF8F808F1FF385FFA88F8E4
:104A6000B8F1FF0F00F0A5810CF08CFD5FFA80FA21
:104A70004FFA8AF006F098F9064600283FF497AB03
:104A800080F800A00CF088FD70800CF07BFD307188
:104A90000CF078FD70710CF075FDF0710CF072FD8A
:104AA000B071D9E72A4E06F140090CF075FDA6F861
:104AB000AC020CF067FD86F8AE020CF063FD043624
:104AC00086F8AB024E45F0D173E10CF05BFD1F2878
:104AD00080463FF66CAB2B685B79082B7FF467ABA5
:104AE0000CF05AFD1A4B08F18A0803EB880800F015
:104AF0003F00A8F806000CF04FFDB8F80630800122
:104B000000F4FE501843A8F806000CF03BFD00012D
:104B100088F804000CF036FD98F8043000F00F001F
:104B2000184388F804000CF02DFD88F8050008F003
:104B3000FFFD3EE1074B01229A713AE13017002058
:104B40001817002040170020381700206814002094
:104B5000183D0020C81500200CF014FDFF288246E7
:104B6000DFF8209365D14FF0000809F108004146B5
:104B7000602289F8078010F00EFF8DF80B809DF8F9
:104B80000B3099F86A20BF4E9A424BD99DF80B30F2
:104B900006EBC30393F86D30DA073CD59DF80B3074
:104BA00006EBC30393F86C20B74B33F91230002B9C
:104BB00031DD9DF80B3096F8078006EBC3034FEA12
:104BC000C80E1B6F58689DF80B3006EBC30A06EB46
:104BD0000E02DAF8703090601989D18189B2002212
:104BE000012393400B4003D10132102AF8D100E099
:104BF000134609EB0E02ADF80C10938104238DF8D7
:104C00000E3003A9012308F101088DF80F300CF0D4
:104C10000BFA89F807809DF80B300133DBB28DF871
:104C20000B30ACE701200CF0FDFCF0790CF0C7FC78
:104C3000C2E099F807309842BFF4B9AA00200CF0FE
:104C4000F1FC0CF0CBFC2B6818680BF09DFFD8F83A
:104C500000000CF077FC06F02FFA72B6DFF8308215
:104C600080234FF0400BA8F81A300126A8F81AB09C
:104C70004046ADF80C3003A904238DF80E308DF8B2
:104C80000F604FEACA0A0CF0CFF9404603A9ADF80D
:104C90000CB08DF80E608DF80F600CF0C5F909EBC3
:104CA0000A039968B3F80CE008680EFA06F306FAEE
:104CB00003F303430B6006FA0EF39BB20B83A8F8D1
:104CC00018B0D8F810301B06FBD46E4A02EB0A0C61
:104CD0000123DCF80800BCF80C10D0F800E04FEA23
:104CE000410903FA09F949EA0E0EC0F800E0DCF8C0
:104CF00008E0BCF80CC003FA0CF39BB2AEF81A3013
:104D00004023A8F81A30614B4FF4804EA3F818E006
:104D10004FF4004EA3F81AE042F20F79D8F81030A1
:104D20001E0605D4B9F1000FF8D009F1FF39F5E7F7
:104D30004FF0010E0EFA01F352449BB20383D38964
:104D4000ADF80C3003A904238DF80E308DF80FE078
:104D50000CF06AF94D4B4FF400421A83B9F1000F81
:104D600017D0D8F810304A491B06AED5454B5344EE
:104D70009A6898891269012383401342434B4FF08C
:104D800040004FF4804215BF088348831A835A833A
:104D9000E7E73F4A402111834FF480421A8362B60D
:104DA0000A2006F05AF90AF0CEF82B68F32283F8AD
:104DB000492000200CF036FC0CF010FC2B6800227F
:104DC00083F848202F4B9B795BB14C235F43314BD9
:104DD000D8590BF0D9FE09F0EDFD05F099FA03F072
:104DE00099F84C34982C07F1010700F09780FFF7F1
:104DF0004FB80AF0E1F9DFE70C2803D126480CF0A0
:104E0000ABFC62E00A2801D00D2860D1234D244874
:104E10000CF0A2FC2846232110F0F3FD08B1401B42
:104E200020602368002B47D05A1EA95C202901D19D
:104E30001346F7E7194A23600021D154194B1A4D44
:104E4000D3F800A0D5F800B0144E584610F0E7FD96
:104E5000804642463046594610F0EAFD134A28B9CA
:104E600016F8083053445B78580703D01035954244
:104E7000E8D31DE095421BD208F10100EB683044F5
:104E8000984718E0C8150020E8160020000C0240E2
:104E900000040240803C0020FBAB010838250020C4
:104EA0002AB9010838070020308C0108F08D01086C
:104EB0001D480CF051FC00231C48236000213022C7
:104EC00010F069FD009B1B7843B3194807E07F2869
:104ED0000FD1013B154A174823600021D1540CF033
:104EE0003BFCFEF76ABF0C2888D07F2804D1FEF770
:104EF00064BF2F2B3EF661AFA0F12002D2B25E2A32
:104F00003EF65BAF13B920283EF457AF5A1C22601F
:104F1000064AD0540CF018FCFEF74FBF0DB0BDECA4
:104F2000028BBDE8F08F00BF06AC010838250020D9
:104F3000F6AB010822AC01082DE9F84F4D282DED04
:104F4000028B044600F0698600F2B980302800F038
:104F5000CD8651D8222800F0A58423D8032800F05C
:104F6000098214D8012800F0F981022840F0058751
:104F700004200CF057FB52200CF021FB43200CF0D6
:104F80001EFB46200CF01BFB4C2000F06CBE0428DE
:104F900000F0FB81052840F0F0861A200CF042FB5F
:104FA000002402E2282800F0F78515D8242800F014
:104FB000DE85262840F0E186E14C06200CF032FB2D
:104FC000B4F858010CF031FBB4F85A010CF02DFB89
:104FD000B4F85C0100F058BE2C2800F0F0852E28B3
:104FE00000F06E862A2840F0C88601200CF01AFBDB
:104FF000D34B587900F037BE3D2800F003831ED80C
:10500000362800F044860BD8322800F02686342853
:1050100040F0B38648200CF005FB002500F064BC8E
:105020003A2800F0C7823B2800F03584382840F049
:10503000A48604200CF0F6FAC14C00F09EBD452871
:1050400000F0888627D8402800F01086422840F0DB
:105050009486BB4C10200CF0E5FA60790CF0AFFAA6
:10506000A0680CF0EBFA94F88E010CF0A8FAB4F8F2
:1050700058010CF0DAFAB4F85A010CF0D6FAB4F888
:105080005C010CF0D2FAB4F87E010CF0CEFAB4F860
:10509000800100F0F9BD492800F0BF824B2800F0E4
:1050A000AD85462840F069860D200CF0BBFA002043
:1050B0000CF085FA00200CF0C1FA00F056BE702802
:1050C00000F0FE8200F2EE80692800F04C8200F2CF
:1050D000C180662800F0A68100F2B180642800F04B
:1050E0007D81652840F04986964C0B200CF09AFA99
:1050F00020880CF09AFA00200CF097FA6368C3F34A
:10510000C000C3F38002800040EA4200C3F34002C3
:105110001043C3F3401240EAC20003F010031843E7
:105120000CF083FAE3682289247C02F0080103F47E
:10513000475A4AEA010A03F480414AEA010A03F4A1
:1051400000414AEA010A03F480314AEA010A03F401
:1051500000314AEA010A03F480214AEA010A03F411
:10516000002103F4801B4AEA010A4AEA0B0A03F011
:10517000007B4AEA0B0A03F0006B4AEA0B0B724908
:1051800003F0805A4BEA0A0A03F0005B4AEA0B0B71
:10519000097803F0804A4BEA0A0A03F0004312F050
:1051A000010F4AEA0303C1F3800114BF4FF0020963
:1051B0004FF00009194312F0020F14BF4FF004081A
:1051C0004FF0000841EA090112F0040F14BF4FF03C
:1051D000100C4FF0000C41EA080112F0400F14BF10
:1051E0004FF0200E4FF0000E41EA0C0112F0100FAC
:1051F00014BF4FF40077002741EA0E0112F0200F90
:1052000014BF4FF480660026394312F4807F14BF28
:105210004FF400650025314312F4007F14BF4FF4B2
:1052200000100020294312F4806F41EA000114BFEE
:105230004FF080620022002011430346DEE0672821
:1052400000F01881682840F0988510200CF0EAF9E9
:1052500000247FE16C2800F0998117D86A2800F0BB
:1052600007846B2840F08985364C05200CF0DAF96C
:10527000B4F896000CF0D9F9B4F898000CF0D5F910
:1052800094F89A0000F0010000F0EDBC6E2800F0E8
:10529000958100F2C88106200CF0C4F900200CF0C2
:1052A000CDF985E1782800F0F28018D8742800F054
:1052B0003C830AD8722800F09B83732840F05D85F8
:1052C00008200CF0AFF90124CBE3762800F0F1833D
:1052D00000F264832F200CF0A5F91C4CD3E2A42823
:1052E00000F0118414D87B2800F07382A02840F0CD
:1052F00044850C200CF096F9154B18680CF09EF9BB
:10530000144B18680CF09AF9134B186800F031BD73
:10531000F12800F0F880FE2800F01C84F02840F00E
:105320002C85084C04200CF07DF9236DB3F8660041
:105330000CF07BF9236DB3F8640000F0A5BC00BF4E
:10534000183D002094160020764A00201F8A01088C
:10535000107AFF1F147AFF1F187AFF1F03200CF02A
:1053600061F900200CF02BF920460CF028F90D20F3
:1053700000F079BC0CF056F902200CF020F9204620
:105380000CF01DF9012000F06EBC06200CF04AF96B
:1053900056200CF014F952200CF011F943200CF0B7
:1053A0000EF94F200CF00BF902E1B84B185D0134F7
:1053B0000CF005F90B2CF8D10024B54B185D013425
:1053C0000CF0FDF8082CF8D10024B24B185D013424
:1053D0000CF0F5F8072CF8D100F0CDBC07200CF04C
:1053E00021F9E7200CF0EBF8AB4B58790CF0E7F81B
:1053F00000200CF0E4F8042000F0BBBCA3420AD269
:10540000A64A9D5C012202FA05F50D421CBF9A4096
:1054100010430133F2E70CF011F99F4B93F8D807D2
:1054200000F021BC12200CF0FDF89D4B1B88B3F559
:10543000806F8CBF0826012600259A4C04F13203A8
:1054400033F9150090FBF6F0013580B20CF0EDF861
:10545000032DF2D1208F0CF0E8F8608F0CF0E5F806
:10546000A08F0CF0E2F800200CF0DFF800200CF028
:10547000DCF89DE010200CF0D5F800248A4B185D74
:1054800001340CF09CF8102CF8D100F074BC7020A2
:105490000CF0C8F80026834D0E242B6D7443234472
:1054A0000136B3F825010CF0C0F82B6D2344B3F896
:1054B00027010CF0BAF82B6D2344B3F829010CF046
:1054C000B4F82B6D234493F82B010CF078F82B6D76
:1054D000234493F82C010CF072F82B6D234493F8BD
:1054E0002D010CF06CF82B6D234493F82E010CF079
:1054F00066F82B6D1C44D4F82F010CF09FF8082E91
:10550000C9D100F038BC7020634C0CF08BF804F16A
:10551000700594F8D0000CF052F894F8D1000CF01B
:105520004EF894F8D2000CF04AF894F8D3000CF03E
:1055300046F894F8D4000CF042F894F8D5000CF03A
:105540003EF8073494F8CF000CF039F8AC42E0D1C3
:1055500000F011BC554B185D01340CF030F8102CE4
:10556000F8D100F008BC524D2878400000F0FE0051
:105570000CF058F800242B789C4280F0FC834D4BB3
:1055800033F814000CF051F80134F4E7454C0620D0
:105590000CF048F8B4F86C000CF047F8B4F86E0062
:1055A0000CF043F8B4F970300A2093FBF0F027E0D8
:1055B000002069E304200CF035F8D9E307200CF053
:1055C00031F83D4B374C1888FF28A8BFFF20C0B2E8
:1055D0000BF0F5FF606F80F3100080B20CF025F83F
:1055E000B4F878000CF021F82B4BE06F93F883317E
:1055F00023B10A23584380F3100001E000F30F00A9
:1056000080B241E3244C02200CF00CF894F8E00145
:105610000BF0D5FF94F8DF0125E302200CF002F82F
:10562000264B188830E31F4C0B200BF0FBFFD4F8FF
:10563000803018780BF0C3FFD4F8803058780BF026
:10564000BEFF00262546D5F88030164C334401367F
:1056500018790BF0B4FF032EF5D1D4F88030D87947
:105660000BF0ADFFD4F8803098780BF0A8FFD4F899
:105670008030D8780BF0A3FFD4F8803058890BF035
:10568000D4FFD4F88030187AEDE200BF53AA0108A5
:105690005FAA010837AA0108183D0020A5160020BE
:1056A0000C04002094160020D2160020E8160020DA
:1056B0002845002074450020302500202C4A002079
:1056C000C64C1E200BF0AEFF236D1B78022B4FF053
:1056D00000056BD1236D03EB850393ED080AB2EE51
:1056E000048A20EE080A10F04BFC80F30800C0B2D8
:1056F0000BF065FF236DDFEDBA7A03EB850393EDC5
:105700000B0A20EE270A10F03BFC80F30800C0B221
:105710000BF055FF236DDFEDB37A03EB850393EDBB
:105720000E0A20EE270A10F02BFC80F30800C0B20E
:1057300001350BF044FF032DCCD1072D236D23D170
:1057400093ED110A20EE080A10F01AFC80F308000D
:10575000C0B20BF034FF236D93ED120A20EE080A5D
:1057600010F00EFC80F30800C0B20BF028FF236D90
:1057700093F84C3000EE103AB8EE400A10F000FCFE
:1057800080F30800C0B20BE02B4458780BF017FFF1
:10579000236D2B44D87A0BF012FF236D2B44587DD8
:1057A00001350BF00CFF0A2DC7D1E4E2236D2B4429
:1057B00058780BF004FF236D2B44D87A0BF0FFFED2
:1057C000236D2B440135587D0BF0F9FE0A2DEDD1E8
:1057D000D1E23C200BF026FF0024804D9FED818A12
:1057E0002B6D03EB840393ED080A20EE080A10F0FA
:1057F000C7FB80B20BF019FF2B6D03EB840393ED15
:105800000B0A20EE080A10F0BBFB80B20BF00DFF74
:105810002B6D03EB840393ED0E0A20EE080A10F0C3
:10582000AFFB013480B20BF000FF032CD5D1072C65
:105830002B6D16D193ED110A20EE080A10F0A0FB93
:1058400080B20BF0F2FE2B6D93ED120A20EE080AE7
:1058500010F096FB80B20BF0E8FE2B6D93F84C0035
:105860000BE0234458780BF0E0FE2B6D2344D87AEC
:105870000BF0DBFE2B6D2344587D01340BF0D5FE7D
:105880000A2CD4D177E214F8010F002800F07382BB
:105890000BF095FEF7E701200BF0C4FE4F4B1B6D9C
:1058A0001878E0E150200BF0BDFE00254B4B1C6D3D
:1058B0004D4B04EB85040C2194F8852001FB023349
:1058C000013593F838000BF07AFE94F886000BF05F
:1058D00076FE94F887000BF072FE94F888000BF0C7
:1058E0006EFE142DE2D146E23C4B1C6D062303FBF9
:1058F0000544013594F8DA000BF061FE94F8D50008
:105900000BF05DFE94F8D6000BF059FE94F8D7002A
:105910000BF055FE94F8D8000BF051FE94F8D90026
:105920000BF04DFE0C2DDFD125E24FF000080126D3
:1059300000272A4B1A7C974227DA11330024FA5C9D
:10594000294D0C2305F130016343595C914207D185
:105950002B44586B10F063F882462EB9B14605E02F
:105960000134222CECD10EE080440CE0D1450ADA5F
:105970000C2303FB04535B6B13F809000BF01FFEB1
:1059800009F10109F2E70137D3E7002E00F0F381B6
:105990005FFA88F00BF046FE0026C9E70F4D287C21
:1059A0000BF040FE00242B7C9C4280F0E4810F4BE6
:1059B000E65C00210C480C2200F1300702FB01F3E9
:1059C000DA5DB24205D1034493F838000BF0F7FDDD
:1059D00002E001312229EDD10134E4E794160020E0
:1059E0000000C84200007A44208A0108A516002061
:1059F000D14C16200BF016FEB4F894010BF015FEF6
:105A0000B4F840010BF011FEB4F842010BF00DFEAA
:105A1000B4F844010BF009FEB4F8D8010BF005FE10
:105A200094F8ED010BF0CBFD00200BF0C8FD94F8CD
:105A3000EE010BF0C4FD94F883010BF0C0FD94F867
:105A400090010BF0BCFD00200BF0B9FDBB4B1B6DB2
:105A50000A20B3F9623093FBF0F080B20BF0E5FD61
:105A60008BE0E0B201340BF0AAFD092CF9D182E100
:105A7000B24C10200BF0D6FD94F8840000F0020028
:105A80000BF09DFD94F885000BF099FDD4F888008B
:105A90000BF0D4FDD4F88C000BF0D0FDB4F89000DE
:105AA0000BF0C3FDB4F892000BF0BFFDB4F8940006
:105AB000EAE00BF067FD074612200BF0B3FD9F4CA8
:105AC00027B9D4F89C60D4F8A05007E0102F13BF7A
:105AD0000025D4F8A460D4F8A8502E4638460BF020
