:020000040800F2
:100000000004002069360108DF870008A9230108E1
:10001000E1360108E1360108E13601080000000080
:10002000000000000000000000000000DD87000864
:10003000DB87000800000000D9870008E3A900085A
:10004000E1360108E1360108E1360108E136010830
:10005000E1360108E1360108E1360108E136010820
:10006000E1360108E1360108E1360108E136010810
:10007000E1360108E13601089DDC0008E13601089F
:10008000E1360108E1360108E1360108E1360108F0
:10009000E1360108E1360108E1360108F1A900085E
:1000A00021710008E1360108E1360108E136010856
:1000B000EDD90008DFD90008E13601087F4C0008BF
:1000C000834C0008794C00087D4C0008E13601089B
:1000D000E136010835DD0008E136010895DC00084D
:1000E000F7A90008E1360108E1870008E1360108B8
:1000F00031710008E136010841710008E13601085C
:10010000E1360108E136010851710008E1360108C5
:10011000E1360108E1360108E1360108E13601085F
:10012000E1360108E1360108E1360108E13601084F
:10013000E1360108E1360108E1360108E13601083F
:10014000E1360108E1360108E136010807830008BD
:10015000E136010811DC00083DDD000809DC00087B
:10016000E1360108E1360108E1360108E13601080F
:10017000E1360108E1360108E1360108E1360108FF
:10018000E1360108E13601082DE9F04FA24C237851
:100190000A2B9CBFA14A34212DED108B98BF01FB87
:1001A000032391B094BF9E6A00269D4D09A8EB6879
:1001B00098479DF8243023B123780A2B0DD90023CA
:1001C00010E00AF0DDFB974B1B68F31A1844964BBE
:1001D0001B6864339842E8D3EEE7904A342101FB70
:1001E00003239B6A914ADFED92AA924C924E9BB2F6
:1001F00007EE903AB8EE670A138060EE2A0A8F4B3A
:1002000020460121C3ED000A09F030FAFCEEC07A65
:10021000894817EE903A23816B68984748B9884B14
:10022000884F1A6812F0020F984640F0CB8000F019
:1002300011BCD4F80CE0B51E0020834900F1100376
:1002400001EB000C0B4462460EF1FF37002132F83F
:10025000028F22F8028C17F9019F9A4218FB0911AC
:10026000F5D135F8023FACF810309EF90820123075
:10027000362813FB02134FF4807293FBF2F32B80AA
:10028000DBD16D48714F94F846206A4D014609F064
:100290006FF83B8805F1940A002B6BD0AB6C1B7890
:1002A00008EE103A05F14C084FF00009583539882E
:1002B000B1F57A7F02BF0023C8F800302B61D8F86F
:1002C000002036F919301A4407EE903A2B69C8F825
:1002D00000200133012B4FEA490BF8EEE77A2B613E
:1002E00006D10023C5ED017AC5ED007AAB601BE0B5
:1002F000D5ED006A07EE103A37EEE66AB8EEC77A37
:1003000086EE077A36EE877AD5ED026A85ED017AB8
:1003100077EEC77A85ED007AE6EE276AF0EE667A28
:10032000C5ED036AC5ED026A0023012926F80B30EA
:100330002AF80B302AD12B69012BC3BF03F1FF33FD
:1003400000EE103AD5ED037A9FED410AC4BFB8EE36
:10035000C00A87EE800A15F017FD18EE103A5BB15F
:10036000F8EEC87AB4EEE70AF1EE10FA04DD4FF4C5
:100370007A733B8000231AE0D8F800304FF47A7289
:1003800003F5FA7393FBF2F32AF80B3009F1010934
:10039000B9F1030F08F1040805F1140587D1388875
:1003A000012801D10AF048FB3B88013BE1E736F820
:1003B00013203AF81310521A26F813200133032B96
:1003C000F5D12CE7234B1B78002B00F043830AF078
:1003D000D7FAD4F89C30C4F89C00C31A0FEE903AB8
:1003E0000025D4F8A0A0DFF874909AF80010B9B3F3
:1003F00037F91530184800EE103AF8EE6F0AB8EEEB
:10040000C00A00EBC50060EEAA0A09F02FF9FDEE64
:10041000C07A17EE903A25E088070020E00400201B
:1004200094430020202D002048130020C0120020FB
:10043000BD378635600A0020F8120020102E0020FB
:10044000C412002070450020700A0020DE45002004
:1004500000000000A0450020040B0020F212002044
:1004600037F8153029F815300135032DB9D1D8F8F2
:100470000030BD4A13F0080F08D0B2F9001029B1BE
:10048000B2F9021011B1B2F9041091BBB749097861
:1004900001F0100000F0FF0580B313F020052DD00F
:1004A00001F0020303F0FF0543B3B14B1B78042BAB
:1004B00023D9B04B1B88B3F5967F1ED3AE4BB3F94F
:1004C000043007EE903AAD4B1B88B8EEE77A07EEA2
:1004D000903AF8EEE77AB2EE048A87EE888A012530
:1004E0004FF0000B77EE487A9FEDA58A27EE888AB9
:1004F00007E000254FF0010B01E00025AB469FED22
:10050000A18AB6F90030B2F80080978808EE903AD8
:10051000B6F90230F8EE6F7A09EE903A67EEAAAAC1
:10052000F8EEE99AD4ED2F7AB6F90430568869EEE0
:10053000A79AF8EEE88A09EE103A68EEA78A29EE43
:10054000A90AB9F90030B8EEC99AA8EEA80A0CEECB
:10055000103AB9F9023029EE279A0CEE903AB9F91F
:100560000430A9EE090A0DEE103A15F00DFCB8EEB4
:10057000CCCAF8EEECCAB8EECDDAB0EE40EA15B36C
:10058000DFED817AB4EEE78AF1EE10FA04DDDFEDFB
:100590007F7A38EE678AF3E7DFED7D7AB4EEE78A9B
:1005A000F1EE10FA04D5DFED797A38EE278AF3E719
:1005B000B6EE000A28EE000A09F0A5FA9FED71BA1E
:1005C00030EE0BBA01E09FED6FBA9FED6EAADFED42
:1005D00071DA714DF7EE00BABBF1000F53D00FFA8C
:1005E00088F807EE908A33B2B8EEE7FA08EE103AD0
:1005F0002FEE0F0AB8EEC88A3FB207EE907AA8EE47
:10060000080AF8EEE7EAAEEEAE0AB4EEED0AF1EE55
:1006100010FA38DD15F0B8FB8BEE800AD5ED017AC3
:1006200095ED007A28EE008A2FEE00FA68EE277A20
:100630006EEE80EAE7EE0F7A95ED040A95ED027A08
:1006400028EE008AE7EE2E7A95ED037AA7EE0F8A60
:1006500095ED057AA7EE2E8A28EE080AA7EEA70ADE
:1006600015F092FBD5ED067A20EE480AB0EE4A8AE4
:10067000A7EE808AD5ED077AA7EE80AAD5ED087A95
:10068000A7EE80BA01E0B0EE4A8A2CEEAC0AACEEDE
:100690000C0AADEE0D0AB4EEED0AF1EE10FA21DD12
:1006A00015F072FB8BEE800AD5ED076A95ED087A9E
:1006B0002DEE00DA6CEE80CA66EECD7A2CEE00CA22
:1006C000ECEE877A27EE4C7A38EE278AD5ED067A5B
:1006D000ADEE277A67EEEC7A3AEE07AAECEE267AD0
:1006E0003BEE27BADAED017AF5EEC07AF1EE10FAB8
:1006F0004FF000031FDD9FED297AB4EEC7EAF1EE5B
:1007000010FA1ED567EE886A94ED307AA6EEAA7AC2
:1007100067EE8A6A84ED307A94ED317AA6EEAA7A91
:1007200067EE8B7A84ED317A94ED327AA7EEAA7A6D
:1007300084ED327A05E0C4F8C030C4F8C430C4F89F
:10074000C830174EDAED027A337858072CD4154B9F
:100750001A6844F61F639A42F7EE006AB2EE047A12
:1007600088BFB0EE667A21E0C81300205013002045
:10077000511300205E1300202C1300206013002072
:1007800035FA8E3C00000000DB0F4940DB0FC9400A
:10079000DB0F49C00AD7233CEC2F0020C2B8B23E81
:1007A000E045002094340020B7EE007A27EE877AE7
:1007B000D4ED307ADFF84C83C44AD8ED005ADFF824
:1007C00048B392ED005AC24F0592E7EE087A97EDD2
:1007D000006A9FEDC08A78EEA78AD4ED317AE7EE01
:1007E0000A7A79EEA79AD4ED327AE7EE0B7AB1EE77
:1007F000467A39EE279AF6EE007A6AEEA77A69EE23
:10080000A79A29EE279A69EEE56A25EE890A68EE2D
:10081000A78ADBED007AA5EE280AE7EEE86AA7EEE4
:10082000290AE7EE096A29EE677A37EE800AA5EE13
:10083000297A67EEA97A75EE266AA6EE287AE5EEA1
:10084000097A8BED000A20EE000A35EE877AA6EED3
:10085000A60AE5EEE87AA7EE070A76EE277AC2ED59
:10086000006AA7EEA70A88ED007AC7ED007A15F0B6
:100870008BFA8BEE800A059AD2ED007AD7ED00BA9A
:1008800067EE807AC2ED007ADBED007A67EE807A5F
:10089000CBED007AD8ED007A67EE807A2BEE800AF5
:1008A000C8ED007A87ED000A0EF024FFD5ED080AA6
:1008B00095ED070A884F15F0C3F820EE080A15F0E9
:1008C0001BF895ED060A3880B1EE400A15F05AF88B
:1008D000DFED827A37EEC00A20EE080A15F00CF838
:1008E000D5ED000A95ED030A788015F0A9F8D4ED4E
:1008F000337AE0EE487AB0EE670A14F0FDFF83B277
:10090000190458BFBB80D5ED085A754BD4ED347A25
:100910001A7895ED010A95ED065AF4EEE75A44BFB0
:1009200000F56160B880F1EE10FACCBF42F0080229
:1009300022F008021A70B9F90030D5ED007A06EEFF
:10094000103AB9F9023007EE103AB8EEC77AB8EEAD
:10095000C66AB9F9043027EE000A06EE903AA7EE0F
:10096000860A9AF80130F8EEE66AD5ED027AA7EE2B
:10097000A60A012BD5ED077A67EE277AE5EE067A0F
:10098000E5EEA67AD5ED045A27EE257AD5ED035A81
:10099000A5EE867A95ED056AA6EE267AF1EE478AEF
:1009A00018D133785A070FD4D4F8D430402293FBAF
:1009B000F2F29B1A07EE103AB8EEC77A37EE277AB2
:1009C000BDEEC77A84ED357AD4F8D430402293FB5B
:1009D000F2F301E0434B1B8894ED368A07EE103AA0
:1009E000B8EEC77A77EEC77A94ED377A3AEE877A1F
:1009F00077EEC87ACAEE87AAAAEEA78A84ED368A6D
:100A000014F07AFFD4F8E050374C297809F06CF8EC
:100A10002368B0EE680A1844206014F06DFF29784E
:100A200009F062F86368B0EE480A1844606014F098
:100A300063FF697809F058F8A3682C4A18441FEE40
:100A4000901A1368A06019441160294A1368013391
:100A5000136003E000233B807B80BB80254BB3F910
:100A60000610254BD3F800E0BEF80A2091420FDBB8
:100A7000B1F5FA6F9EF80750BDBF8B1A6B43A2F514
:100A8000FA65C5F16405BCBF93FBF5F5643500E07C
:100A900064251A4B1A4AB3F894C193F95E3112686F
:100AA00005929BB2164606930022124B33F9128030
:100AB000CCEB080303F2F31440F2E63084424FEA31
:100AC000420923D8002BB8BF5B4221E0DC040020A0
:100AD000E82F00204C3D0F442C130020DB0FC93FB2
:100AE00050130020040400203C2D0020F445002079
:100AF000382D0020AC4200204C130020483B002041
:100B000010130020E42F0020E02F00204FF4FA7390
:100B1000022A059C4FF064002AD094F811411CB1C0
:100B2000A342CCBF1B1B0023BA4C93FBF0F76FF022
:100B3000630B34F817A00BFB073B013734F9174060
:100B40000FFA8AF7E41BB44F04FB0BF494FBF0F4A8
:100B5000544427F809400EEB020424796343AF4C58
:100B600093FBF4F364339BB26B4393FBF0F02CE004
:100B700094F812411CB1A342CCBF1B1B0023A84C0C
:100B800093FBF0F06FF0630A0AFB003B04EB4007B5
:100B900004EB4000B7F9E470B0F9E600C01B00FBBD
:100BA0000BFBBDF818009BFBFAFBC7EB0B0717FB11
:100BB00000F7994887809EF80600002BB8BF5B427B
:100BC0004343964893FBF0F064307478954B642768
:100BD000444394FBF7F49C5403F1030AF47A44432E
:100BE00094FBF7F40AF802400633747D022A00FBF6
:100BF00004F0894C90FBF7F098548B4B0ED1E045F4
:100C00009F700EDB894BB3F896219142984614DB16
:100C1000B1F5FA6FA8BF4FF4FA610FE0E0459D54BB
:100C200004DA34F809305B4224F809300132032A2F
:100C300006F101067FF439AFE4E711467C4F764DAB
:100C4000891A4FF47A736FF063005943C2F5FA6260
:100C50006423B1FBF2F191FBF3F237F8126000FB71
:100C60000211013230B237F91220121A514391FBAE
:100C7000F3F33344E3806F4B1B885B063AD56E4B2E
:100C8000DFED6E7AB3F904300A2293FBF2F3644A83
:100C9000B2F8FC209B1A1BB208EE103AB8EEC88AD4
:100CA00028EE278AB0EE480A08F08EFFF0EE408A60
:100CB000B0EE480A08F027FFB5F9023006EE903A88
:100CC000B5F90030F8EEE66A07EE903A20EE667A63
:100CD000F8EEE77AA7EEA87A67EE807ABDEEC77ADB
:100CE000E6EEA87A17EE103AFDEEE77A2B8017EEC3
:100CF000903A6B8098F89A31002B51D0484B1A8962
:100D0000B3F8FE00B0FBF2F04D4A451C1278ADB2CC
:100D1000A3F8005112B3B3F802910023404E34F807
:100D200013E006F5867706F5827C37F813203CF849
:100D3000131027F813E0C2EB0E0A11FB09F12AB2D7
:100D400091FBF2F252442CF813200133042BE5D12D
:100D50003B4BA6F8020100221A7004E0B3F802210E
:100D6000013AA3F802212E4AB2F8020103B2002B85
:100D70004FF0000312DDB2F90051324931F813206F
:100D8000083112FB00F231F8131092FBF5F28A1AC7
:100D900024F813200133042BEFD101E0A2F8023133
:100DA000294A2A4D1378DFF8C4A013F0040F03D0AA
:100DB000274B40225A8369E0DAF80010CF075CBF66
:100DC00043F001031370234B23491B781E075EBFBA
:100DD000137823F0010313702B6813F0040F02D073
:100DE0001E48008870B91E48008808B1980709D4C9
:100DF0001C4B1B88003318BF01231BB91A480088FD
:100E0000642835D902230B70137823F00103137083
:100E100033E000BF7E220020FC2D00200CFEFFFFEF
:100E2000600A0020520B0020042E0020483B0020C6
:100E300066220020C81200202C13002035FA8E3CB8
:100E4000BC120020640B0020E0450020C4120020EA
:100E50000004024050130020D4450020F245002039
:100E6000EC110020DE45002038300020CC1200209C
:100E70001278D20758BF02230B7009F081FDA84BEE
:100E80001B68C01A002801DB11F0F0FBA54B9B6822
:100E90000BB1A5489847A54BA54E012119702B68A9
:100EA00013F0140F6AD0A34B1B8803F40273002BBA
:100EB00064D0A14B1B7803F0100303F0FF0E4BB17D
:100EC0009E4B98F9EC21B3F90010638801FB0233C3
:100ED000638053E0D6F81821994BD078994F9278D7
:100EE000B7F90070B3F90630F0B1D81B0028B8BFCD
:100EF000404290420EDDBB42C8BF534286F81C11EF
:100F0000E1889148CCBF9BB293B20B44C0F800E09B
:100F1000E38033E096F81C3113B38C4B86F81CE168
:100F20001A688B4B1A601BE0DB1B83EAE37EAEEB97
:100F3000E37E964509DD022293FBF2F3854A86F8AB
:100F40001C111360844B19700AE096F81C313BB1F8
:100F50007E4B86F81C011A687D4B1A607E4B187018
:100F6000764BD6F820111B680A8849883B44934287
:100F700003DB8B42A8BF0B461A46E280774B1B78F7
:100F8000ABB16F4BB3F90620B8F896319A420EDC3C
:100F9000734B5B79012B01D0192B02D198F8E62114
:100FA0002AB90E2B03D0082B1CBF0023A3806D4B46
:100FB00005931A6892F818719FB35E4B1B889B07C4
:100FC0002FD0694BDFED697A93ED080AB4EEE70A9A
:100FD000F1EE10FA21D914F0D5FC554BD3ED497A36
:100FE00020EE270A14F088FCB0F5617FA8BF4FF40B
:100FF000617007EE900AB8EEE70ADFED5D7A80EEE9
:10100000270A08F080FD07EE907AF8EEE77A27EEDF
:10101000800A14F071FC80B200E00020E3881844DC
:10102000E0802B689F0640F1D580424B1B8803F07F
:101030003003002B00F0CE803F4B1B78DD0740F1E2
:10104000C9804C4BDFED4C7AB3F90430DFF838B18E
:101050000A2293FBF2F308EE103AB8EEC88A28EEA3
:10106000278AB0EE480A08F04EFDF0EE408AB0EE56
:10107000480A08F0A9FD414B41491B68DA78B0EEF7
:10108000409AB2EE048A002A00F080803D4FB1F908
:1010900002007D8807922BB2C01A069105F08EFDE2
:1010A000079A069953429842B94603DB9042A8BF7B
:1010B000104600E018464719B9F80050B1F9000091
:1010C000079329B2BFB2401A0692A9F8027005F040
:1010D00075FD079B984204DB069A90420346A8BF21
:1010E00013461D44ADB2A9F800502DB207EE105AB8
:1010F0003FB2B8EEC70A07EE907A28EEC07AF8EE53
:10110000E77A20EE090AA7EE897AA7EEA80A87EE09
:10111000087ABDEEC77A17EE103AABF8003051E00E
:10112000D845002094430020740B0020BD120020FD
:10113000600A0020C812002050130020602D0020FB
:10114000AC420020BE1200205C2D00203413002091
:1011500078130020F8450020642D002002040020B0
:10116000483B002010130020EC2F00208FC2753C5C
:10117000EFB6B0442C13002035FA8E3C3412002018
:10118000B8120020B4120020FC450020B1F9023052
:1011900007EE103AB1F9003000EE103AB8EEC00A8E
:1011A000B8EEC77A68EEC07A20EE090AE7EE097A4F
:1011B000A7EE280AC7EE887AFDEEE77A17EE903A96
:1011C000ABF8003080EE080AFDEEC07A17EE903AD8
:1011D000ABF80230059BB8F86A211868D54B00932C
:1011E000D54B1D68D54B196800F15803A847D44B5F
:1011F0001D78D44B032D15D9D6F828215788B7F57B
:10120000FA7F0FD2B4F90400B3F904E00028B8BFA4
:10121000404279420A1A964503DB3A187245A8BF44
:1012200072469A80DAF80070DFF848E3C64917F092
:10123000006F05D1C54A106841F21D020240B2B1EB
:10124000C34AD1ED004A92ED004AC24A9EED005ACF
:10125000D2ED003AB3F800E0B3F802C0B3F904806D
:10126000D6F828A1BC4A00210B460846CFE0D1EDB4
:10127000004AB749B94891ED004AB64902709EED5F
:10128000005AD1ED003AD6F82891E088B3F800E092
:10129000B3F802C0B3F90460B149AA4280F04081BA
:1012A00099F90030DFF8C4825B42734317F0805F26
:1012B00007EE903A33D00FFA8CF306EE103AF8EEC0
:1012C000E76AF7EE007A37EEE37A03B2B8EEC66A61
:1012D00005EE903A0FFA8EF327EE066A37EEE47ABF
:1012E00007EE903AF8EEE77A9FED9E3A67EE277A9E
:1012F00091ED007AE5EE037AF8EEE55A67EE877A2B
:1013000011ED017AA4EE036AE5EE877A91ED017A98
:10131000E6EE077A91ED027AE6EE877A24E00FFA9C
:101320008EF306EE903A03B206EE103A0FFA8CF303
:1013300007EE103AD1ED015AB8EEC77AB8EEC66A98
:1013400027EE257A51ED015AA6EE257AF8EEE66AE7
:1013500091ED006AA6EE867AF8EEE77AD1ED026AA0
:10136000A7EEA67AF0EE477AFDEEE77A103117EE97
:10137000903A28F8123001328FE79AF900607642ED
:1013800008FB06F617F0805F0DF1240907EE906A5E
:1013900040D00FFA8EF606EE106AF8EEE76AF7EE26
:1013A000007A37EEE47AB8EEC66A0FFA8CF627EECA
:1013B000066A37EEE37A07EE906AF8EEE77ADFED39
:1013C000695A67EE277AA5EE256AE4EE257A92ED52
:1013D000027A67EE877A92ED017AE6EE077A92ED6D
:1013E000037AE6EE877A0FFA83FBFDEEE77A17EED3
:1013F000906A29F8106009AE36F810600FFA86F985
:10140000D94524DD33460E46013010323146A8421C
:10141000B3D322E00FFA8CF606EE906A0FFA8EF63E
:1014200007EE106A92ED016AB8EEC77AF8EEE66A46
:1014300027EE067A92ED026AA6EE867AF8EEE77A51
:10144000D2ED036AA7EEA67AF0EE477ACBE70FFA61
:1014500081FBD945D8DB1E46D4E7434A3F48126892
:10146000568817885B1AF11B89B20AB21BB29342E5
:101470004FF0000214DD4FF0010E80F800E0AA42A8
:101480000BD20DF1240E3EF8120010FB01F090FB80
:10149000F3F02EF812000132F1E7B8B2B3B207E070
:1014A0000270022193FBF1F3FA18F31A90B29BB287
:1014B000E6880021A94233D209AA32F9112007EEA9
:1014C000902A32B206EE902A234A02EB0112B8EEBD
:1014D000E77AF8EEE66AD2ED007A02B266EEA76A23
:1014E00007EE902AF8EEE77AF4EEE76AF1EE10FAEA
:1014F0000BD41AB207EE902AF8EEE77AF4EEE76A18
:10150000F1EE10FAD8BFF0EE667A77EE277A174F31
:10151000FDEEE77A17EE902A27F811200131C9E78E
:10152000134B074F1A7802F0040202F0FF031ABBB4
:101530003A787AE0CE3C00201C0400204C130020B6
:10154000942E0020382E0020C4430020A842002002
:10155000D0430020CC4300208C0B0020004600200C
:10156000900B002000007A44642F00201413002008
:10157000E0450020C8430020AF4BB04DDB78059319
:10158000AF4B186810F000601ED12A6841F21D03AD
:101590001340BBB9AB4A97F800E0138801217145AD
:1015A0001EB207D232F91130B342B8BF33469BB2F4
:1015B0000131F4E7A44A12685288964204DD9A1A6F
:1015C00092B202E0024600E00022A0492B68B1F985
:1015D00006509F4997F800B0D1F8ECE19D4941F2DF
:1015E0001D0C03EA0C0C03F480580E68964903F0B6
:1015F00010030693934B096803EB4B0B5B450BD031
:10160000002840F07F84BCF1000F40F056841F8812
:10161000BF1A1F8000F051BC8D4D95F8F031013B91
:10162000DBB2182B00F2468109E09342F4D28A49DA
:1016300031F81300834921F813000133F5E7012243
:101640009A40864B1340002B00F03481844B7F4935
:101650001B8813F4807F07D02388ADF8243063887B
:10166000ADF82630A38815E07E4B1A88ADF824200B
:101670005A88ADF82620714A9B881268ADF8283048
:10168000D00409D5D5F8EC21B1F90600D2899042F1
:1016900002DA5B42ADF82830734CB4F902304FF4F3
:1016A0007A7203F5E16353434FF4616093FBF0F307
:1016B000A3F5FA73ADF83C30B4F9003003F5E163FB
:1016C0005A43604B92FBF0F21B88A3F2DC53ADF857
:1016D0002A305F4BA2F5FA72D3F8EC31ADF83E2018
:1016E000DB890A88D21AADF82C204A88D21AADF8C4
:1016F0002E208A88D21AADF83020CA88D21AADF8C6
:1017000032200A89D21AADF834204A89D21AADF8AB
:1017100036208A89D21AADF83820CA89D31AADF892
:101720003A300023514A002122F813100133082BCC
:10173000F8D1434A4E4B126805924E4A1B78126804
:101740004D4906924D4E072202FB031B594500F0FE
:1017500097800B7833B103F1150201239340059A6A
:10176000134065D011F806CC069B11F805AC11F8B2
:10177000034C11F8018CCCEBCC0E03EB4E0E642025
:10178000BEF90020BEF902309B1A9BB211F9022C5F
:101790004FEA53095A434FEA4A0792FBF0F210A866
:1017A000C9EB020292B2074414B937F81C0C0CE0E2
:1017B000B6F9000037F91C7CB84208DA04448442C8
:1017C00003DBA7423846A8BF2046308008E007DD8B
:1017D000041BBC4203DB8442A8BF04462746378073
:1017E000DEF80A4011F9047C012000FA0AF02042D8
:1017F000308812B217FB00F014BF4FF0FF34012401
:10180000642790FBF7F090420ADB4FFA88F25A43C4
:1018100092FBF7F2C9EB020212B28242A8BF024663
:10182000124B33F81C9002FB049423F81C4000E098
:1018300033800236073189E7B0450020A8420020F6
:10184000CC12002014130020642F0020AC42002092
:10185000600A0020602F002012300020992098019B
:10186000C8120020382E00202C130020FE12002069
:10187000682F0020B02900206F2F0020520C00207C
:10188000A34BA44FD3F8008000260E2202FB068251
:1018900037F8023F92F90640F0B214FB03F36424D8
:1018A00093FBF4F43C800DF00BFF01362044082E2E
:1018B0003880EAD1984B994E1A68954F12F0200F54
:1018C000984632D000200DF0FBFE30800446012007
:1018D0000DF0F6FE924B70801B68190625D5914BD2
:1018E000914AD3F814321B78012B22D1396813881E
:1018F00091F914E0B2F902201EFB03F34FF0320C11
:1019000093FBFCF31FFA83FE91F906305B425343CD
:101910006FF0310193FBF1F10EEB0102A11893FB83
:10192000FCF37344318018447080D7F800E0002342
:1019300018E0D7F800E053889EF9061011FB03F178
:10194000322391FBF3F12144318011889EF9142058
:1019500012FB01F292FBF3F21044E5E70133082B8E
:10196000325311D00E2101FB03E136F91300B1F916
:101970000020B1F9021090424FEA4304EEDB0AB2B4
:101980008242A8BF0246E9E7664CD4F828A19AF93A
:101990000830A3B994F8F09109F1FF33182B72D8ED
:1019A000DFE803F03571714F7171714871717171B8
:1019B000715971717171714F657171593500DFF82D
:1019C00054B14FF00009594B3BF9021FBAF90620F8
:1019D000882000FB09300DF09DFC3A680E2380B290
:1019E00003FB0922ABF80000B2F90030B2F9022083
:1019F00000B2984203DB13B28342A8BF034609F149
:101A00000109B9F1080FABF80030DCD1C2E79AF850
:101A1000043013B10020718908E0454B1B7803F0B6
:101A2000040303F0FF00002BF4D101460AF098F8FC
:101A3000012729E00020F1880AF092F8012031897D
:101A400005E0002031890AF08BF8718901200AF045
:101A500087F8022718E00227B81E36F81710C0B220
:101A600001370AF07DF8082FF6D106270CE003278E
:101A7000F81E36F81710C0B201370AF071F8072FB8
:101A8000F6D1042700E00027D8F800309A0602D4E7
:101A9000B9F1050F0AD1384631880AF061F8781C8F
:101AA000C0B271880AF05CF80237FFB2D8F8003093
:101AB000DB0205D494F858367BB10DF043FD0CE001
:101AC000DFF878900026B819C0B239F8021F0AF082
:101AD00047F80D2EEED00136F5E7164B18780028A2
:101AE00040F03482D8F800301E0340F12F8295F880
:101AF0005936023B052B39D80F4B93F81437FBB1FD
:101B0000012B23D105F086F9C0F17F001EE000BF54
:101B1000B0290020FC120020A8420020FE12002064
:101B2000CC120020600A00202C130020780C00202A
:101B3000E0450020F0450020483B0020B242002054
:101B4000B04BD3F85C0603689B689847D5F86036BD
:101B500095F864261344B3F5807FA8BF4FF48073D3
:101B60008342D4BFC5F86036C5F8600694F859368C
:101B7000023B082B00F28F81DFE813F009003F00E1
:101B8000620078009300A500180136017C019E4B8D
:101B90001A68D4F86C3664339A4240F27C81402053
:101BA0000CF04CFC002840F076814027974BD4F88D
:101BB0006826944E985C1D4670B103F02DFFD6F850
:101BC0006036013BC6F86036D6F86836013F03F14F
:101BD0000103C6F86836E9D1D4F86826894BAA5CB7
:101BE000002A40F05881C3F868264FF0FF32C3F84E
:101BF0006C26032283F859264DE125230093844B5C
:101C0000019303F10C0202924920A3F10A02502130
:101C1000023304F0BFFA002840F03D81D8F80030CC
:101C200013F080034FF0FF3205D0C5F86806C5F801
:101C30006C26042332E0C5F86836C5F86C262CE023
:101C4000744A02230021009301910291482002F17D
:101C5000080304F09FFA002840F01D814FF0FF3385
:101C6000C5F86C36C5F86806052317E0072300930E
:101C7000694B019303F10C0202924720A3F1080281
:101C80000021043304F086FA002840F004814FF06C
:101C9000FF33C5F86806C5F86C36062385F8593653
:101CA000F9E05E4A0523002100930191029153203F
:101CB00002F1080304F06EFA002840F0EC80C4F84A
:101CC00068060723E0E040200CF0B8FB002840F055
:101CD000E280D4F868360C2B00F2E580DFE803F0F0
:101CE000070B0E1219252A2F3337455054004C4844
:101CF0000CF026FD54E04B484B4913E04B484C494F
:101D00004C4A4BE04C4B4D4893F8121793F813276D
:101D100044E0494B4A4893F8EC260C2101FB02337E
:101D200093F8EE160CF00CFD3AE0434B4548B3F83F
:101D30004011F7E7404B4448B3F84211F2E7434BF8
:101D400043481969EEE7434B43481988EAE7D4F85A
:101D50007036D80404D5384B404893F87811E1E741
:101D6000284B0B22C3F868261AE0334B3C4893F803
:101D70007C1193F87D2193F87B310CF0E1FC0FE0AE
:101D80003848B4F87416CDE7D8F80030190507D5EF
:101D9000294B3548B3F88011B3F97E210CF0D0FC03
:101DA000D4F868360133C4F8683674E02F4B1B68EA
:101DB0009A0116D5B4F87836124D93B9D5F87C3619
:101DC00009932B4B0E201B680A9309A903F00EFF01
:101DD0004FF48053A5F87636092385F8593603F079
:101DE0005DFF03F0E5FE56E094F88036002BF6D058
:101DF0001E4B1B689B01F2D4024B082283F8592624
:101E0000EFE700BF600A002094340020586D0108FD
:101E1000C26D0108746F01088C6F0108D86F01084A
:101E2000308E01084A8E01085F8E0108678E010816
:101E30007B8E0108878E0108483B0020908E0108A8
:101E4000A18E0108AB8E0108BA8E010894430020D0
:101E5000C98E010804040020D98E0108E38E010810
:101E6000F08E0108098F0108148F0108CC120020A0
:101E7000202D0020384B1A68D4F86C36C8339A42AB
:101E800005D90CF021FB012384F8593603E00CF04E
:101E900035FB0028F5D10CF001FB002856D00123BA
:101EA00084F8593652E00CF029FB0028F3D04FF4A7
:101EB0008053A4F876360923E6E7B8F1000F24D062
:101EC000BEF80E90F788C7EB090A554502DD4F446E
:101ED000BD4212DBBEF80E70B3F90090BD42CBBF1D
:101EE00077888F88B1F802A0B6F800A0B94529DB41
:101EF000D1454F46A8BF574624E04D45CCBF778813
:101F000037881FE0B8F1000FE4D1059FB1F80290C7
:101F1000B3F900A03FB18F88BA4513DBCA455746D5
:101F2000A8BF4F460EE00F88BA4503DBCA455746A7
:101F3000A8BF4F461F80BEF81070BD4203DA069F4F
:101F40000FB18F881F800233FFF758BB11B0BDEC73
:101F5000108BBDE8F08F00BF943400202DE9F04FC6
:101F6000A249A34C0A6802F59C432DED028B203355
:101F70002360A04B87B01E780091C6B19E490968C6
:101F80008A4240F20581013E1E7001E1D9F800301D
:101F90009A48072D98BF595D994B88BF29461B6801
:101FA0009847032D0CD904EB45050136A880934BC7
:101FB000DFF870921A78F5B2AA421946E6D820E006
:101FC000D9F8002005F10E0302EB8303D9881A89A2
:101FD0000028E8D04FF47A73401A5843531A90FB04
:101FE000F3F040F6C90300F57A70984205DC40F240
:101FF000EE239842B8BF184601E040F6CA0080B20E
:10200000D1E7804B1B6842F2010803EA08087E4BC7
:10201000B8FA88F84FEA58181B68B8F1000F06D1D3
:1020200094F8292084F82820784A5078107094F881
:1020300028701FB1754A177887F0010794F82BB004
:1020400091F800A00F220326BBFBF6F606EB46062E
:1020500084F82A20C6EB0B06D9F80020DFF8CC91D3
:10206000F6B20025554559DA4FEA450C1FB16849CB
:1020700031F8150000E03846D18ADFF8B4E181423A
:1020800002D8118B81421ED25EF825005849834246
:1020900003D2604931F80C0019E0E8B202920193D2
:1020A000039110F097FA032D019B029A0FDC03991C
:1020B0004FF0010C91F82AE00CFA05FC2EEA0C0E08
:1020C00081F82AE003E003F596714EF82510B8F187
:1020D000000F1CD194F8BC1029F8160031B9BBF1DF
:1020E000020F14D94249012081F8BC00B9F802104E
:1020F000B9F800000844B9F804100844464980B211
:1021000021F8150000B2032190FBF1F080B24149A3
:1021100009F1060921F815000135A3E794F82A20F2
:1021200039493E4BA2F10F0EDEF1000242EB0E02E6
:1021300084F8D6206AB13A4A1268570109D40A686D
:10214000D9689A60521AC82A1DD9012283F8212021
:1021500019E02E4A0120507010700A689968DA6000
:102160005B68521A9A4282BF2C4B002283F82120CE
:102170000025554507DAE8B210F02CFA254B23F874
:1021800015000135F5E794F82B30013384F82B3036
:102190001C4B1A6812F4805F984605D0204B1B68D0
:1021A000DE0701D410F0CAF8009B19681D4B1F68A8
:1021B000BB7A002B3ED0013B16483A7B30F81330F7
:1021C0001AB1C3F53B6308339BB21BB2A3F57A7314
:1021D000B3F57A7FA8BF4FF47A7323EAE37307EE6F
:1021E000903A9FED117AF8EEE77A5CE0202D00201E
:1021F000E4100020AC450020A84500206C420020DF
:1022000020070020A8420020943400200004002071
:10221000E8100020AC420020A2110020B0450020B0
:10222000CC120020A445002000007A4410110020A8
:1022300058110020D8F80020150440D5D4F8D80053
:10224000934E081A00283ADB924A01F59C40203050
:10225000C6F8D8005079904A32F81050A8B2FD7AEA
:1022600090FBF5F596F8DC00013000F00F0286F8DF
:10227000DC20324482F8DD501A468848185C01336D
:102280000244102B92B2F8D112B292FBF3F31BB2BC
:10229000642BA8BF642323EAE37307EE903A9FED13
:1022A000807AF8EEE77AC7EE877A7E4A9FED7E7AEB
:1022B00067EE877AFCEEE77A17EE903A1380D8F84B
:1022C00000307A4D13F4807F00F00981784BDFF8FD
:1022D000E491994205D999F8022012B9012289F8AE
:1022E000022099F80220002A00F0F980714A2F7824
:1022F00092F82160704A701E464211684641002ED5
:10230000C1F38063C7F380070093924614BF4FF078
:10231000000B4FF0030B99F82020052A00F2D9801A
:10232000DFE802F0034D527584A1002F3AD0D4F8B3
:10233000F000B4F8F41008F0DEFA012809D15F4982
:102340005F4A09681268C988642000FB0122C9F845
:102350001020009B6BB1594A126812794AB10FF0F4
:1023600013FE032289F820204FF47A72C9F81C204A
:10237000D1E7002E40F0AD80514AD9F81010106816
:102380004C4A88420AD901920FF0FEFD019A0321BE
:1023900082F8201040F6B831D161BCE7012182F803
:1023A0002010B8E7009B4FF4806013B107F024FCC5
:1023B00001E007F011FC0022C9F8102089E0002E8E
:1023C00046D10FF0E1FDA6E726B1052289F82020CD
:1023D000012000E0304667B1D4F8F020D189394AB5
:1023E000118051809180354909684988D1804FF02A
:1023F000020B334A1168D9F81420914201D8002FFA
:1024000064D147F23052C9F81C20032221E02A7817
:1024100042F002022A700FF091FF294AD9F81C10ED
:1024200012680A44C9F81820042212E0244A9EB116
:102430001168D9F8182091424BD9234A92781AB9D9
:10244000DAF80020D10744D42A7822F002022A7058
:10245000052289F820205EE71268D9F81C100A448A
:10246000C9F8182035E01549154A09681268C98865
:10247000642000FB0122C9F810204FF48060002284
:1024800089F8202089F8032007F0A6FB43E700BF66
:10249000E41000205021002060210020C111002004
:1024A0000000C8424013002000C07F44E0450020E7
:1024B000404B4C00B0450020CC120020D4430020FB
:1024C00094340020AC4200200004002000287FF457
:1024D00022AFBBF1000F02D0584608F0ADFAA14E72
:1024E00006F5C370B6F84E1108F005FA81460028CB
:1024F0002ED19D4B9D4F1B6813F0006A08D0FB78CE
:1025000033B90EF02DFC9A4B012818BF002018702B
:102510002B785A0709D5D8F80030DB0605D4BAF174
:10252000000F02D0FB78002B2FD0924A00231360BB
:1025300053609360904A00211160516091608F4A0E
:10254000126802F57A72C4F8F8200122FA701AE0D3
:10255000D8F80030DF0618D42B78580715D5824BF1
:102560001B68190111D5814FFB7863B1834B1A6841
:10257000D4F8F8309A4208D90EF0F2FB28B97C4B17
:10258000F870187001E07A4A13702B785A0736D524
:10259000D8F80030DB0632D5794B1B78DF062ED415
:1025A000724B9B7893B196F8E031B9F1000F15D1D9
:1025B0007BB1724B1A68D4F8FC309B1A002B08DAF6
:1025C0000FF0BCFE6F4B83F8009118E0B9F1000FDB
:1025D0000DD1102008F030FA01230EE03BB1674A1C
:1025E00012684FF47A7101FB0323C4F8FC3094F8AD
:1025F000003123B108F008FA002384F800310022EA
:1026000096F8DEB196F8DF11B6F896E1B6F898C103
:1026100013465D48009030F912709B087745C4BF9F
:1026200063F07F03DBB201326745B8BF43F040037C
:10263000042AEED194F8012152489A4205D190F82B
:102640000221F92A04D8013200E0002280F8022198
:10265000464884F8013183784A4A434F82462BBB6F
:102660003868C0070AD582F80331B9F1000F1DD1CF
:102670002B78DB071AD50FF0A7FC17E02B7858074B
:1026800014D592F828308BB1404BDB7873B992F8AF
:1026900003310133DBB2032B82F8033106D911B1C8
:1026A0000FF04CFE02E0B9F1000FF9D094F80231BE
:1026B000344ADFF8E890142B40F0A9809AF80230F1
:1026C0001BF1000B18BF4FF0010B6BB392F80131F7
:1026D0005F2B11D12B7803F0040303F0FF0113B13A
:1026E0000FF02CFE08E00B200291019208F0A4F9F3
:1026F000019A029982F80211BBF1000F14D094F8EC
:1027000001317D2B10D12B7803F0040303F0FF027D
:1027100013B10FF013FE07E00B20019208F08CF9C3
:10272000184B019A83F802212B7803F0040303F07D
:10273000FF01002B6BD194F80131124A572B2FD196
:10274000134B4FF47A721A80D8F800301A0601D56C
:1027500004F0F2FA0F4B1B685B0758D50E4B0A22A8
:102760001A8054E0483B0020CC12002000040020D6
:1027700001460020202E00207043002094340020C9
:1027800050130020E4100020AC420020B04500208F
:10279000DE450020C4120020F24500201013002066
:1027A000D8F80000400717D55A2B15D192F80431FC
:1027B0002BB1012382F8041182F8053127E092F849
:1027C000063183F0010382F806310BB10C2000E0E2
:1027D0000D2008F031F91AE05D2B00F0DE845B2B50
:1027E00000F002855E2B02D1032000F0FEBC562BC8
:1027F00001D107F0D7FC9AF80230002B00F00A85CF
:1028000094F801316F2B40F0FF840FF0DDFBD8F816
:102810000030580736D594F80631B84A93B12B7872
:1028200059070FD5009BB3F90610B6F896319942B7
:1028300008DD3B6813F0010302BF3221A2F80A1140
:1028400082F806313B68DA030DD594F80C21AB4BC6
:102850002AB993F8042112B93222A3F80A210123DC
:1028600084F80C310EE094F80431A44A53B12B786B
:1028700003F0040303F0FF0123B9012382F80411DC
:1028800082F80531D9F800A000233B600AF17B09EA
:102890000AF1CB0B99F8002099F8013019F8010CD6
:1028A0009A420BD2494607F0EFFF38B119F8022CD3
:1028B000012303FA02F23B6813433B6009F1040968
:1028C000D945E7D18E4B1B785BB18E4BDFF84CB20C
:1028D0001A68DFF84CA212F0020F994640F03883D4
:1028E0002FE30AF1CA070AF589793A787B7817F855
:1028F000010C9A4225D2394607F0C6FF08B3BB78CF
:1029000097F804C0804A97F803A07C480C21013B4B
:1029100001FB0C4103EB43031344D1F814219A4209
:102920000FD0C1F81431002390F84021C1F81831BC
:10293000012303FA0CF322EA030381F810A180F8C3
:10294000403106374F45D0D1704B1F68704B1B6824
:10295000029394F8283003936E4B01930023009365
:10296000019B1A68002A00F0E18292F800A0BAF1F7
:10297000000F00F0DB825B680299CB1A002B0CDBA6
:1029800001F5FA7301994B60009901238B4094F88B
:10299000401121EA030384F84031039B002B00F02F
:1029A000C582019B517813F8043C0433DBB2002943
:1029B00040F07B82584931F91310B6F8943103F195
:1029C000C800814202DD92F802B015E0C83B99428E
:1029D00003DA9178C1F1000B0EE0009A01239340D5
:1029E00094F8402122EA030384F84031029B019AC3
:1029F00003F5FA73536099E294F84031009A134159
:102A0000DB0700F19382BBF1000FCCBF0220012055
:102A100008F04CF80AF1FF33DFF8E090132B00F2D6
:102A20007D82DFE813F01400250037004B006400BE
:102A30008500E8004B01B201E00110027B024B006F
:102A40005A008500E8004B01BA001D01820197F889
:102A50000090D944B9F1FA0FA8BF4FF0FA0929EA5A
:102A6000E979384687F8009007F0F8FE01200FE07A
:102A700097F80190D944B9F1640FA8BF4FF06409E9
:102A800029EAE979384687F8019007F0E7FE022045
:102A90004946D5E197F803A0DA44BAF1640FA8BF1C
:102AA0004FF0640A2AEAEA7A87F803A03846D9F890
:102AB000441107F089FE03205146C1E17979594458
:102AC0006429A8BF642121EAE17179710D2007F022
:102AD00043FFBAF10D0F00F021823979594464297E
:102AE000A8BF642121EAE17139710E20A8E1B9790A
:102AF000594481F30801B9710520A1E1E4100020D7
:102B0000F0450020CC120020007001084C1300207A
:102B100094340020F8110020AC420020C4120020A0
:102B2000C812002000007A440000C84200000000E3
:102B3000D9F848311A78022A20D107EE90BAB8EEB7
:102B4000E70A5FED077A93ED097A80EE270A30EE07
:102B5000070AB5EEC00AF1EE10FA07D4B4EE670A20
:102B6000F1EE10FAC8BFB0EE670A01E01FED110ADE
:102B700083ED090A0F2007F0D9FE0AE0997859443D
:102B8000C829A8BFC82121EAE17199700F2007F078
:102B9000E3FEBAF10F0F00F0C181D9F848311A787D
:102BA000022A1ED107EE90BAB8EEE78A5FED227ACC
:102BB00093ED080A88EE278A38EE000AB5EEC00ABF
:102BC000F1EE10FA07D4B4EE670AF1EE10FAC8BFBE
:102BD000B0EE670A01E01FED2B0A83ED080A122010
:102BE00056E159785944C829A8BFC82121EAE171A2
:102BF0005970122024E1D9F848311A78022A20D1DC
:102C000007EE90BAB8EEE70A5FED397A93ED0C7AE9
:102C100080EE270A30EE070AB5EEC00AF1EE10FA90
:102C200007D4B4EE670AF1EE10FAC8BFB0EE670A37
:102C300001E01FED420A83ED0C0A102007F076FE3A
:102C40000AE0197B5944C829A8BFC82121EAE171CB
:102C50001973102007F080FEBAF1100F00F05E81AA
:102C6000D9F848311A78022A1ED107EE90BAB8EE88
:102C7000E78A5FED537A93ED0B0A88EE278A38EEE8
:102C8000000AB5EEC00AF1EE10FA07D4B4EE670AF6
:102C9000F1EE10FAC8BFB0EE670A01E01FED5D0A61
:102CA00083ED0B0A1320F3E0D97A5944C829A8BF51
:102CB000C82121EAE171D9721320C1E0D9F8483165
:102CC0001A78022A22D107EE90BA1FED6A0AF8EEAE
:102CD000E77A87EE800AD3ED0F7A30EE270AB5EE59
:102CE000C00AF1EE10FA09D45FED717AB4EE670A0A
:102CF000F1EE10FAC8BFB0EE670A01E01FED750AE9
:102D000083ED0F0A112007F011FE0AE0997D594466
:102D1000C829A8BFC82121EAE1719975112007F0DF
:102D20001BFEBAF1110F00F0F980D9F848311A787A
:102D3000022A20D107EE90BA1FED860AB8EEE78A84
:102D400088EE008A93ED0E0A38EE000AB5EEC00A4E
:102D5000F1EE10FA09D45FED8C7AB4EE670AF1EE69
:102D600010FAC8BFB0EE670A01E01FED900A83EDCC
:102D70000E0A14208CE0597D5944C829A8BFC821E7
:102D800021EAE171597514205AE0D9F848311A78CE
:102D9000022A1ED107EE90BAB8EEE78A5FED9E7A5E
:102DA00093ED0A0A88EE278A38EE000AB5EEC00ACB
:102DB000F1EE10FA07D4B4EE670AF1EE10FAC8BFCC
:102DC000B0EE670A01E01FEDA70A83ED0A0A0920A9
:102DD0005EE0D9785944C829A8BFC82121EAE17129
:102DE000D97009202CE0D9F848311A78022A1ED16E
:102DF00007EE90BAB8EEE78A5FEDB57A93ED0D0A6B
:102E000088EE278A38EE000AB5EEC00AF1EE10FA15
:102E100007D4B4EE670AF1EE10FAC8BFB0EE670A45
:102E200001E01FEDBE0A83ED0D0A0A2030E0597B58
:102E30005944C829A8BFC82121EAE17159730A2061
:102E400007F08AFD6AE0D9F848311A78022A22D1BF
:102E500007EE90BA1FEDCD0AB8EEE78A88EE008A39
:102E600093ED100A38EE000AB5EEC00AF1EE10FA42
:102E700009D45FEDD37AB4EE670AF1EE10FAC8BF59
:102E8000B0EE670A01E01FEDD70A83ED100A0B20B0
:102E900007F04CFD42E0D97D5944C829A8BFC8219C
:102EA00021EAE171D9750B20CAE7012936D1907862
:102EB000BB4A32F91390B9F5617F05DB40F6330365
:102EC0009945A8BF994601E04FF46179BAF10C0F1A
:102ED00024D1B44A4FF4966393FBF0F01378A9F52C
:102EE000617999FBF0F95FFA89F94B4516D0B9F190
:102EF000040F34BF4B4602231370AB4A0AFB036333
:102F000003F2EE63136006F05DFF5046494607F09A
:102F100023FD09F10100C0B207F0C8FD009A0123AA
:102F2000934094F84021134384F84031009B0133CF
:102F30000093019B0C330193009B042B7FF410AD95
:102F4000C3E4D8F80030DF050FD5984BDB7863B1C8
:102F5000DBF80030980708D5BAF8003013F0010705
:102F600008D1012006F048FE04E0012006F034FEFE
:102F7000012300E00023D9F8002051070BD553B1FD
:102F8000012006F029FEBAF800309A0706D4022084
:102F900006F032FE02E0022006F01EFEBAF80070D3
:102FA000834B17F0030F4FF0100214BF5A831A839C
:102FB000DBF800309B0609D4D9F80030180540F141
:102FC00090804FF4807006F017FE8EE0794B1B78EE
:102FD000990751D5784B1B78042B4DD9D9F800307F
:102FE00013F4007307F010070DD0002F38D1102014
:102FF00006F002FE202006F0EFFD7048011D03F0F0
:10300000EFFD022328E0BFB23FB11020009306F08D
:10301000E3FD009B84F84C310127D9F800305A05B4
:1030200012D5D4F8503166495A89B1F90030002BD5
:10303000B8BF5B42934207DAB1F90230002BB8BF48
:103040005B429342C0F22E81BAF800309B0608D54D
:10305000202006F0C1FD002384F84C31012700E058
:10306000002794F85431A3B90E2007F0E5FC554B26
:10307000012283F854210CE017F0300F9CD010206F
:1030800006F0AAFD202006F0A7FD002384F84C31AD
:1030900001E0002F90D04C4A002002F1280E02F1EE
:1030A00050074A4B002123F81010494B516023F878
:1030B00010100433CEF8041023F81010002313600E
:1030C0009360CEF80030CEF808303B607960BB608A
:1030D00014320EF1140E143700287FF46DAF012066
:1030E000DFE74FF4807006F077FD7379082B01D08D
:1030F0000E2B02D1402006F06FFDD8F800305805A5
:1031000019D596F814321BB92B7813F0040F03E08D
:10311000D9F8003013F4002F09D02E4B00221A707A
:103120003C200DF0E9FD30B10CF06EFCF8E709F041
:10313000C1FE0DF0FEFC012384F8D83194F8D9319A
:10314000002B00F0C580DBF80030590740F1C0804B
:10315000D9F800301A0707D4082007B0BDEC028B5D
:10316000BDE8F04F06F038BDBAF8004004F008049E
:10317000A4B2002C40F0AC80082006F03DFD164BB8
:103180001A68164B1A60064BDA880E4BA3F8DA2140
:10319000134B1C60134B1C609AE0012025E000BF1C
:1031A000AC420020103000204C130020B04500201D
:1031B0000004024050130020511300206813002027
:1031C000FC2D0020E41000203C120020FC450020D3
:1031D000B412002071420020341300207813002024
:1031E0005C2D0020602D002002205FFA80FA0AF199
:1031F000FF3386F8EC3606F04FFD06F007FE50462A
:1032000007F054FCFFF703BBBBF1000F02D07E2B8D
:103210003FF4FBAA94F80131972B06D12F4B4FF4C2
:10322000C872A3F80821FFF7F2BAA72B06D12C4ADF
:10323000137843F004031370FFF7E9BA0022BB2BA5
:10324000059201D1022303E0B72B04D14FF6FE73A0
:10325000ADF816300AE0BE2B01D1022304E0BD2BED
:103260007FF4D5AA4FF6FE73ADF81430D9F80030CC
:10327000BDF81410B3F858200A44A3F85820BDF83C
:103280001610B3F85A200A44A3F85A2006F004FD99
:1032900006F0BCFD012007F009FC002384F8023190
:1032A000FFF7B5BABAF800309B063FF5DAAE20203A
:1032B00006F0A2FC0B480C4B011D1A685B684360CA
:1032C000026003F08DFC054B012783F84C71C8E6C2
:1032D00007B0BDEC028BBDE8F08F00BFE41000200A
:1032E0005013002070130020541300202DE9F04FDC
:1032F0002DED028B4D28A1B0044600F05A8600F255
:10330000B180342800F0B88451D8222800F092848B
:1033100023D8032800F0068214D8012800F0F68193
:10332000022840F0F38604200CF0D8FB52200CF069
:10333000A8FB43200CF0A5FB46200CF0A2FB4C2080
:1033400000F05DBE042800F0F881052840F0DE861C
:103350001A200CF0C3FB0024FFE1282800F0E885C8
:1033600015D8242800F0CF85262840F0CF86DF4CE2
:1033700006200CF0B3FBB4F858010CF0B2FBB4F823
:103380005A010CF0AEFBB4F85C0100F069BE2C28C9
:1033900000F0E185322800F02C862A2840F0B6861D
:1033A00001200CF09BFBD14B587900F028BE40283F
:1033B00000F0288621D83A2800F0D2820BD836288F
:1033C00000F05186382840F0A18604200CF086FBDE
:1033D000C64C00F09EBD3B2800F025843D2840F0FF
:1033E0009586C24C02200CF079FB94F8E0010CF0B9
:1033F00048FB94F8DF0100F002BE462800F04C863E
:103400000BD8422800F00C86452840F07F86132018
:103410000CF064FB002400F058BE492800F0C8827C
:103420004B2800F0B785472840F070860CF020FB51
:10343000054684200CF052FB28460CF05BFBAC4B9D
:103440001C6905F18003A3428CBF641B802403F038
:10345000D3FD28462246694603F038FE002405467F
:1034600000F02BBE702800F0F38200F2F280692891
:1034700000F0518200F2C180662800F0AB8100F2BA
:10348000B180642800F08281652840F03F86994C25
:103490000B200CF023FB20880CF023FB00200CF009
:1034A00020FB6368C3F3C000C3F38002800040EADE
:1034B0004200C3F340021043C3F3401240EAC2008B
:1034C00003F0100318430CF00CFBE3682289247C02
:1034D00002F0080103F4475A4AEA010A03F4804162
:1034E0004AEA010A03F400414AEA010A03F480317E
:1034F0004AEA010A03F400314AEA010A03F480218E
:103500004AEA010A03F4002103F4801B4AEA010A93
:103510004AEA0B0A03F0007B4AEA0B0A03F0006B4D
:103520004AEA0B0B744903F0805A4BEA0A0A03F08B
:10353000005B4AEA0B0B097803F0804A4BEA0A0A5F
:1035400003F0004312F0010F4AEA0303C1F38001C4
:1035500014BF4FF002094FF00009194312F0020F97
:1035600014BF4FF004084FF0000841EA090112F0BF
:10357000040F14BF4FF0100C4FF0000C41EA08018B
:1035800012F0400F14BF4FF0200E4FF0000E41EA32
:103590000C0112F0100F14BF4FF40077002741EA1E
:1035A0000E0112F0200F14BF4FF48066002639433D
:1035B00012F4807F14BF4FF400650025314312F4EC
:1035C000007F14BF4FF400100020294312F4806FD5
:1035D00041EA000114BF4FF0806200220020114335
:1035E0000346E3E0672800F01F81682840F08E85DD
:1035F00010200CF073FA002485E16C2800F09E8105
:1036000017D86A2800F000846B2840F07F85394C79
:1036100005200CF063FAB4F8A2000CF062FAB4F8DA
:10362000A4000CF05EFA94F8A60000F0010000F08F
:10363000E6BC6E282F4C00F0978100F2C081062076
:103640000CF04CFA606F0CF055FAB4F8780000F00A
:1036500007BD782800F0F58018D8742800F0318371
:103660000AD8722800F09083732840F04F85082014
:103670000CF034FA0124C0E3762800F0E68300F26F
:1036800059832F200CF02AFA1C4CC4E2A42800F025
:10369000068414D87B2800F06482A02840F0368588
:1036A0000C200CF01BFA164B18680CF023FA154B83
:1036B00018680CF01FFA144B186800F011BDF128BF
:1036C00000F0FB80FE2800F01184F02840F01E85F9
:1036D000084C04200CF002FA236DB3F85A000CF0E9
:1036E00000FA236DB3F8580000F0BABC483B002044
:1036F00004040020C0120020E04500203B700108B7
:10370000107AFF1F147AFF1F187AFF1F03200CF096
:10371000E5F900200CF0B5F920460CF0B2F90D20C7
:1037200000F06DBC0CF0DAF902200CF0AAF90120CF
:103730000CF0A7F9052000F062BC06200CF0CEF9D1
:1037400042200CF09EF94A200CF09BF946200CF028
:1037500098F934200CF095F963E0B14B185D013411
:103760000CF08FF90B2CF8D10024AE4B185D01340E
:103770000CF087F9082CF8D10024AB4B185D01340C
:103780000CF07FF9072CF8D100F0ACBC07200CF04E
:10379000A5F9E7200CF075F9A44B58790CF071F9F4
:1037A00000200CF06EF9042000F09ABCA3420AD26B
:1037B0009F4A9D5C012202FA05F50D421CBF9A400A
:1037C00010430133F2E70CF095F9984B93F8EC06AF
:1037D00000F015BC12200CF081F9964B1B88B3F554
:1037E000806F8CBF082601260025934C04F132031C
:1037F00033F9150090FBF6F0013580B20CF071F949
:10380000032DF2D1208F0CF06CF9608F0CF069F968
:10381000A08F0CF066F900200CF063F900200CF08A
:1038200060F9002000F01CBC10200CF057F90024B7
:10383000824B185D01340CF024F9102CF8D100F003
:1038400051BC70200CF04AF900267B4D0E242B6DE4
:10385000744323440136B3F819010CF042F92B6D7F
:103860002344B3F81B010CF03CF92B6D2344B3F84F
:103870001D010CF036F92B6D234493F81F010CF059
:1038800000F92B6D234493F820010CF0FAF82B6D0E
:10389000234493F821010CF0F4F82B6D234493F8A2
:1038A00022010CF0EEF82B6D1C44D4F823010CF02F
:1038B00021F9082EC9D100F015BC70205B4C0CF02A
:1038C0000DF904F1700594F8D0000CF0DAF894F8D2
:1038D000D1000CF0D6F894F8D2000CF0D2F894F89D
:1038E000D3000CF0CEF894F8D4000CF0CAF894F899
:1038F000D5000CF0C6F8073494F8CF000CF0C1F8EE
:10390000AC42E0D1EEE34E4B185D01340CF0B9F857
:10391000102CF8D1E6E34B4D2878400000F0FE0073
:103920000CF0DCF800242B789C4280F0DB83464BC3
:1039300033F814000CF0D5F80134F4E73E4C0620BF
:103940000CF0CCF8B4F86C000CF0CBF8B4F86E00C6
:103950000CF0C7F8B4F970300A2093FBF0F025E0C2
:1039600004200CF0BBF8BAE307200CF0B7F8374B93
:103970001888FF28A8BFFF20C0B20CF082F8E06FC3
:1039800080F3100080B20CF0ACF8B4F880000CF0BA
:10399000A8F8264BD4F8840093F8833123B10A2386
:1039A000584380F3100001E000F30F0080B257E3AA
:1039B00002200CF093F8204BB3F8880050E30B2062
:1039C0000CF08CF8D4F88C3018780CF05AF8D4F845
:1039D0008C3058780CF055F80026D4F88C30164D01
:1039E0003344013618790CF04CF8032EF5D1D5F894
:1039F0008C30D8790CF045F8D5F88C3098780CF0EC
:103A000040F8D5F88C30D8780CF03BF8D5F88C30ED
:103A100058890CF066F8D5F88C30187AEFE200BFC0
:103A20007B8E0108878E01085F8E0108483B0020CD
:103A3000D112002004040020C0120020FE12002039
:103A4000141300206C420020AC420020F82100201A
:103A5000C84C1E200CF042F8236D1B78022B4FF04F
:103A600000056BD1236D03EB850393ED080AB2EEDD
:103A7000048A20EE080A11F03FFF80F30800C0B26C
:103A80000BF0FFFF236DDFEDBC7A03EB850393EDB5
:103A90000B0A20EE270A11F02FFF80F30800C0B2B6
:103AA0000BF0EFFF236DDFEDB57A03EB850393EDAC
:103AB0000E0A20EE270A11F01FFF80F30800C0B2A3
:103AC00001350BF0DEFF032DCCD1072D236D23D163
:103AD00093ED110A20EE080A11F00EFF80F30800A2
:103AE000C0B20BF0CEFF236D93ED120A20EE080A50
:103AF00011F002FF80F30800C0B20BF0C2FF236D8B
:103B000093F84C3000EE103AB8EE400A11F0F4FE93
:103B100080F30800C0B20BE02B4458780BF0B1FFE3
:103B2000236D2B44D87A0BF0ACFF236D2B44587DCA
:103B300001350BF0A6FF0A2DC7D1D3E2236D2B442C
:103B400058780BF09EFF236D2B44D87A0BF099FF29
:103B5000236D2B440135587D0BF093FF0A2DEDD1D9
:103B6000C0E23C200BF0BAFF0024824D9FED838A17
:103B70002B6D03EB840393ED080A20EE080A11F085
:103B8000BBFE80B20BF0ADFF2B6D03EB840393ED16
:103B90000B0A20EE080A11F0AFFE80B20BF0A1FF75
:103BA0002B6D03EB840393ED0E0A20EE080A11F04F
:103BB000A3FE013480B20BF094FF032CD5D1072C67
:103BC0002B6D16D193ED110A20EE080A11F094FE28
:103BD00080B20BF086FF2B6D93ED120A20EE080ADF
:103BE00011F08AFE80B20BF07CFF2B6D93F84C0035
:103BF0000BE0234458780BF074FF2B6D2344D87AE4
:103C00000BF06FFF2B6D2344587D01340BF069FFDF
:103C10000A2CD4D166E214F8010F002800F0628269
:103C20000BF02FFFF7E701200BF058FF514B1B6DF6
:103C30001878E4E150200BF051FF00254D4B1C6D2E
:103C40004F4B04EB85040C2194F8792001FB0233DF
:103C5000013593F838000BF014FF94F87A000BF05C
:103C600010FF94F87B000BF00CFF94F87C000BF035
:103C700008FF142DE2D135E248200BF02FFF00257C
:103C80003C4B1C6D062303FB0544013594F8CE0024
:103C90000BF0F7FE94F8C9000BF0F3FE94F8CA009D
:103CA0000BF0EFFE94F8CB000BF0EBFE94F8CC0099
:103CB0000BF0E7FE94F8CD000BF0E3FE0C2DDFD106
:103CC00010E24FF00008012600272A4B1A7C974289
:103CD00027DA11330024FA5C294D0C2305F1300159
:103CE0006343595C914207D12B44586B11F039FC66
:103CF00082462EB9B14605E00134222CECD10EE00B
:103D000080440CE0D1450ADA0C2303FB04535B6BBF
:103D100013F809000BF0B5FE09F10109F2E70137CC
:103D2000D3E7002E00F0DE815FFA88F00BF0D6FEBC
:103D30000026C9E70F4D287C0BF0D0FE00242B7C19
:103D40009C4280F0CF810F4BE65C00210C480C2296
:103D500000F1300702FB01F3DA5DB24205D1034402
:103D600093F838000BF08DFE02E001312229EDD1ED
:103D70000134E4E7C01200200000C84200007A4489
:103D80003C700108D1120020D74C16200BF0A6FE83
:103D9000B4F894010BF0A5FEB4F840010BF0A1FEBD
:103DA000B4F842010BF09DFEB4F844010BF099FE0B
:103DB000B4F8D8010BF095FE94F8ED010BF061FE1C
:103DC00000200BF05EFE94F8EE010BF05AFE94F822
:103DD00083010BF056FE94F890010BF052FE002088
:103DE0000BF04FFEC14B1B6D0A20B3F9563093FB0D
:103DF000F0F080B20BF075FE8BE0E0B201340BF016
:103E000040FE092CF9D16DE1B84C10200BF066FE94
:103E100094F8900000F002000BF033FE94F891004B
:103E20000BF02FFED4F894000BF064FED4F8980049
:103E30000BF060FEB4F89C000BF053FEB4F89E004B
:103E40000BF04FFEB4F8A0000AE10BF0FDFD0746B1
:103E500012200BF043FEA54C27B9D4F8A860D4F883
:103E6000AC5007E0102F13BF0025D4F8B060D4F891
:103E7000B4502E4638460BF004FE30460BF03AFEA6
:103E800028460BF037FED4F8B8000BF033FE0020C4
:103E90000BF027FE00200BF024FE0020AFE0934D36
:103EA00095F8BC0080000130C0B20BF017FE95F809
:103EB000BC000BF0E6FD00242E4696F8BC309C4278
:103EC00080F010818A4D285D0BF0DBFD05F11003B9
:103ED000185D0BF0D6FD05F120033035185D0BF0B1
:103EE000D0FD285D0BF0CDFD0134E6E708200BF096
:103EF000F5FD00247F4B33F8140001340BF0F1FD85
:103F0000042CF7D1EEE004200BF0E8FD764B986826
:103F1000E6E094F878010BF0B4FD94F87C010BF026
:103F2000B0FD94F87B010BF0ACFD94F87D0166E0E8
:103F30006D4C07200BF0D2FDB4F87E010BF0D1FDE3
:103F4000B4F880010BF0CDFD94F882010BF099FDDF
:103F5000B4F8840184E0644C0C200BF0BFFD94F8AD
:103F60008E010BF08EFDB4F898010BF0BAFDB4F899
:103F700094010BF0B6FDB4F896010BF0B2FD94F885
:103F80008F010BF07EFDB4F89C010BF0AAFDB4F894
:103F90009E0165E0544C04200BF0A0FD94F8D6017E
:103FA0000BF06FFD94F8D7010BF06BFDB4F8D8015E
:103FB00056E0514C514D207800EB4000C0B20BF060
:103FC0008DFD002623789E4205F1020580F08A804F
:103FD00015F8020C0BF055FD15F8010C00EB8000F4
:103FE00000EB800000F2EE2080B20BF07AFD01368B
:103FF000E8E701200BF072FD3B4B93F890010BF0CA
:1040000040FD6FE008200BF069FD0024364B23448F
:10401000013493F886010BF034FD082CF6D161E0F1
:10402000314C10200BF05AFD60790BF02AFDA0688E
:104030000BF060FD94F88E010BF023FDB4F85801ED
:104040000BF04FFDB4F85A010BF04BFDB4F85C01D6
:104050000BF047FDB4F87E010BF043FDB4F880018E
:104060000BF03FFD3EE0214B1F4C93F80601C0EBE7
:10407000C000C0B20BF032FD04F1200594F8F40149
:1040800000231F4AD25C904242D00C33302BF8D12F
:104090000834AC42F2D125E01A4C0D200BF01EFD85
:1040A00002F0C8FE0BF0EDFCA0880BF023FD2069A8
:1040B0000BF020FD02F09EFE12E0AC4212DA1DF879
:1040C00004000BF0DEFC0134F7E70F4B185D013400
:1040D0000BF0D7FC0B2CF8D100200BF00BFD0020CF
:1040E0000BF008FD01202AE0483B0020C012002010
:1040F0007D130020BE1300206C420020E83C00200D
:1041000078420020040400207B8E0108002016E085
:104110000BF0B7FCB4F8F6010BF0E3FC94F8F801EF
:104120000BF0AFFC94F8F9010BF0ABFC94F8FB0139
:104130000BF0A7FC94F8FA010BF0A3FCA8E721B060
:10414000BDEC028BBDE8F08F8848894A0368F0B562
:104150009C8AA4B2E1B211F0010F32D01988854CCB
:1041600021F400610904090C1980198889B241F40D
:1041700080611980002111707F490978A9B15178B7
:1041800019B97E490978FF290FD1012151707C4965
:104190000978022901BF198889B241F400611980A8
:1041A000217841F00101198201E1217801F0FE013D
:1041B0001982724B1B78FF2B00F0F980FF231370DC
:1041C000F5E08E073CD5BFF35F8F6D490C78E4B204
:1041D000012C14D1684D2D788DB155787DB1198899
:1041E00021F480610904090C1980BFF35F8F198BDA
:1041F0001988947089B241F4007119801BE01C8BFE
:10420000BFF35F8F0C78022C0BD15B4C247844B148
:10421000547834B1198821F480610904090C19809B
:10422000BFE00978032906D15349097819B15178BB
:10423000002940F0B680998889B241F48061B5E0E8
:104240004D075BD5012191704B49097800293AD07F
:104250005178002937D04A494A4D09781C880229EB
:1042600011781ED924F480642404240C1C801E8A36
:104270002F68CCB249B2F6B27E5419882D6889B243
:1042800041F4007119800168A31C137001340B8A7A
:1042900064B2DBB22B558B889BB243F480638B8076
:1042A00027E0A4B244F400741C802E681D8ACCB2AE
:1042B00049B2EDB27554611C1B8A49B2DBB20334BA
:1042C0007354147015E0517811B92F49097841B130
:1042D000198889B241F40071198013780133137081
:1042E00007E0198889B241F480711980204B0121BF
:1042F000597001680B88DC05FCD458E001F04001DE
:1043000001F0FF061E4DF1B114781E491F8AD1F845
:1043100000E0E6B264B2FFB20EF80470711CC9B2DC
:104320002F78117049B2CC1CA74201BF9C8824F49D
:1043300080642404240C08BF9C802B788B4236D1E7
:104340000236167033E0210631D511784CB2671C65
:104350001ED00E4E3668345D1C820131C9B22C78F5
:10436000117049B28C4222D11BE000BFAC34002056
:10437000D0130020993400209C3400209A3400206F
:10438000A8340020A03400209B340020A434002056
:1043900012491670097819821149097809B92978E2
:1043A00029B9998821F480610904090C99800D4B81
:1043B00092F900201B780C4901339A420DD1002359
:1043C0004B708B7833B10268938823F440731B04DD
:1043D0001B0C9380054B00221A70F0BD9A3400200C
:1043E0009C340020A8340020D0130020A9340020E1
:1043F0006C4B6D4A2DE9F04F5E8954684FEA062AEE
:10440000B4EB0A0A9C884FEA04481C894FF0000567
:104410004FF0000B65EB0B0BA4FB0A6704FB0B775B
:10442000F40944EA476418EB04065C884FF000097D
:104430004FEAE7154FEAC438DC8849EB050787B037
:10444000CDE90467A4FB0A6704FB0B77340A44EA4E
:10445000076418EB04064FEA27259C894FF00009F2
:1044600049EB0507CDE90067AAFB046704FB0B775E
:10447000F40D44EA472414F5FA664FEAE75545F18E
:104480000007B6F5FA6F77F10003CDE902679646AB
:1044900067DAA4FB046704FB05F34FF0050C07EB98
:1044A0004307DDE90489A6FB0C230CFB07335F10EF
:1044B0004FEA3206B8EB06084FEA920669EB0709A5
:1044C00046EA83769F10DDE90023921B63EB070326
:1044D000DDE90267CDE90023344A4FF0FF3396420D
:1044E00077EB0303CDE9048928DA40F6AC52A4182F
:1044F0004FF000035D4104FB05F3A4FB044505EB0D
:1045000043056FF00602664202FB0566A4FB022328
:10451000334418EB020649EB0307CDE904670B2689
:10452000A4FB062306FB0533DDE900455B104FEADB
:104530003202A41A65EB0305CDE900450AFB0BF333
:10454000DDE90245AAFB0AAB0BEB430B4FEADA723B
:1045500042EA4B02A41A4FEAEB7365EB0305CDE97F
:104560000245DEF80840009B019DA4FB032304FBE9
:1045700005334FEA52584FEA635948EAC328DDE948
:104580000423B8EB020269EB03039946D30B43EA19
:10459000494300B1036009B1029B0B6007B0BDE85D
:1045A000F08F00BFF6090020D013002024FAFFFF8F
:1045B000054B1A7B02F0FF0122B10122027000229A
:1045C0001A73704701707047D0130020194B73B5F0
:1045D0005D7B0446EDB9184B06215E6818786A4683
:1045E000B04718B39DF800209DF8013043EA02233C
:1045F00023809DF802209DF8033043EA0223638064
:104600009DF804209DF8053043EA0223A38001258C
:104610000CE00222196991FBF2F1018059699B6952
:1046200091FBF2F193FBF2F341808380284602B0C4
:1046300070BD00BFD0130020DC09002013B5044674
:1046400072B6104B06215B686A463B20984762B6FB
:10465000A8B19DF800209DF8013043EA0223238091
:104660009DF802209DF8033043EA022363809DF801
:1046700004209DF8053043EA0223A380012002B004
:1046800010BD00BFDC09002013B524490B689A8ACD
:1046900092B20192019A12F4706F18BF204A0C4630
:1046A0001CBF01211170019A12F4E06F2AD01A8BFD
:1046B0009A8822F480621204120C9A80019A910561
:1046C00020D41A8892051DD41A88D0050FD51A88CF
:1046D000D105FCD41A8892B242F400721A801A886A
:1046E0009205FCD40F4B187807F0F8FB0AE01A8803
:1046F00092B242F400721A809A8822F44072120434
:10470000120C9A802268938A23F470631B041B0C9A
:104710009382054B00221A7002B010BDAC34002009
:10472000AA34002074290020A934002007B502A96A
:10473000012301F8013D48200CF0D4F803B05DF8E6
:1047400004FB07B502A9012301F8013D58200CF034
:10475000C9F803B05DF804FB07B5032101AA0020E6
:104760000CF078F89DF805309DF804001B0243EA30
:1047700000439DF80600184303B05DF804FB08B53C
:10478000FFF7EAFF014B986008BD00BFD01300207F
:1047900008B5FFF7E1FF014B586008BDD0130020BA
:1047A0002DE9F8430D4C0E4E1025814665830120FE
:1047B00090460F4606F000F949F08001304607F0B8
:1047C00071FB414600223B46304607F03DFB01208D
:1047D00006F0F2F825830120BDE8F88300080240C6
:1047E000003001402DE9F0410A4C0B4E1025904657
:1047F0000F46658340F08001304607F053FB30469A
:10480000414600223B4607F01FFB25830120BDE8FF
:10481000F08100BF00080240003001402DE9F04166
:104820000B4C0C4E10258046658301200F4606F088
:10483000C3F84146304607F035FB3946304607F0AD
:1048400031FB2583012006F0B7F80120BDE8F08197
:10485000000802400030014073B50D460646FFF7E0
:10486000DDFF642006F0A8F81524304601210DF183
:104870000702FFF795FF9DF80730AB420AD02946A3
:104880003046FFF7CBFF013C642006F095F814F0AA
:10489000FF04EAD1012002B070BD2DE9F0433C4D88
:1048A0002B7F85B0002B6FD13A4B1B68002B6BD050
:1048B0001A681AB13849086B02430A639A889868E3
:1048C000ADF800200026022269468DF803208DF8FD
:1048D000026007F051F9304B30485A6C304C42F0CE
:1048E00004025A645A6C42F480425A64032720231B
:1048F0004FF0010802A902938DF80C608DF80E604C
:104900008DF80F808DF80D7004F0B6FC254BDA6839
:1049100022F0F002DA60DA6842F02002DA602368FE
:10492000214A23F020032360636823F0200363609F
:10493000236843F020032360A36823F02003A360CF
:10494000E36823F02003E360136843F0200313605F
:104950004FF0170901A88DF804908DF805708DF8B7
:1049600006708DF8078004F062FC104B5A681AB18B
:10497000304606F0B3F803E00D4A5A6083F8009021
:104980002023636101232B7705B0BDE8F08300BFCE
:10499000D0130020F0090020003802400008024037
:1049A000003C014000380140083C01401422002036
:1049B000554A000810B5204CFFF76FFFFFF76DFF59
:1049C000A36880216B209847322006F000F8A36886
:1049D00001216B209847012005F0EEFFA368182104
:1049E0001B209847012005F0E7FFA36807211A2044
:1049F0009847012005F0E0FF104AA36811781920BC
:104A00009847012005F0D8FFA36810211C20984783
:104A1000012005F0D1FFA36812213720984701201B
:104A200005F0CAFFA3683820012198470120BDE89E
:104A3000104005F0C1BF00BFDC090020060A0020BD
:104A400008B5FFF72AFF024B4FF480521A8008BDC9
:104A5000040400207B4B2DE9F7435A69920640F18C
:104A6000EE8020225A61784D05F08AFFD5F8BC30DF
:104A70007649C5F8BC00C31A962B04460B8008D9AA
:104A80002B6A1F2B0EDC05EB8302012050620344CE
:104A900007E02B6A1F2B05DC05EB83020020506228
:104AA00001332B622A6A684B202A6BD1D86A9A6A32
:104AB000800040EA42005A6A0243186B42EAC00290
:104AC000586B42EA0012986B42EA4012D86B42EAF5
:104AD0008012186C42EAC012586C42EA0022986CAC
:104AE00042EA4022D86C42EA8022186D42EAC02293
:104AF000586D42EA0032986D42EA4032D86D42EA7F
:104B00008032186E42EAC032D86E8A809A6E800077
:104B100040EA42005A6E0243186F42EAC002586FE0
:104B200042EA0012986F42EA4012D86F42EA8012BD
:104B3000D3F8800042EAC012D3F8840042EA00228F
:104B4000D3F8880042EA4022D3F88C0042EA80225F
:104B5000D3F8900042EAC022D3F8940042EA00322F
:104B6000D3F8980042EA4032D3F89C0042EA8032FF
:104B7000D3F8A00042EAC032CA804A8801324A8093
:104B800000221A62D5F8A4302F4E0133C5F8A430A4
:104B90002F4B06215F6818786A46B847002840D036
:104BA000D6F8A8E030697169B3699DF8032006EB77
:104BB0004E07B7F9AC90B7F9B080B7F9B4C0C9EBFC
:104BC0000009C8EB0108CCEB030C9DF800009DF830
:104BD00001309DF8021043EA002042EA01219DF8CD
:104BE00004309DF80520A7F8AC0042EA0323A7F89B
:104BF000B4300CFA83F3B3610EF10103012BC8BF8B
:104C00000023A7F8B01009FA80F008FA81F1C4BFB8
:104C1000C6F8A830012330617161D4BFC6F8A8304E
:104C20007373D5F8A430084E012B08DD05F0A8FEFB
:104C30000023C6F8A4300123C6F8B840337303B08C
:104C4000BDE8F083003C0140D0130020BE130020DB
:104C5000DC090020064A08B5B2F8C03001339BB227
:104C6000A2F8C030034B187807F038F9002008BDCF
:104C7000D013002074290020FFF766BA04E5FFF77F
:104C800063BA01E508B5054B6B209B688021984706
:104C90006420BDE8084005F09ABE00BFDC09002092
:104CA0002DE9FF4708F006F9774B1F78002F40F0F9
:104CB000D685764D2B685B0540F1D185744B754CDC
:104CC000B3F84E812378744E002B00F019823268BD
:104CD0006368D31A7C2B40F21382237A626001331B
:104CE000237207F12400C0B208F0D4F86B4B33F9FB
:104CF000173007EE903A6A4B1B88B8EEE77A07EE5A
:104D0000903AF8EEE77A0137C7EE277A9FED657A99
:104D100067EE877AFDEEE77ACDED017ABDF9040002
:104D200008F0A6F8032FDCD1302008F0B3F85E4B72
:104D3000DFF86091B3F9000008F09AF808F0A2F8E3
:104D4000237A9F0732D1D9F8042041F288339A425E
:104D500019D9102008F09EF86427D9F80C0090FBB0
:104D6000F7F000B208F084F8212008F093F8D9F8A1
:104D70000C0090FBF7F307FB13000028B8BF40427C
:104D800000B208F075F8142008F084F8474BB3F926
:104D900004000A2390FBF3F008F06AF81C2008F0E6
:104DA00079F8002008F064F808F06CF8237A5807C6
:104DB00040F08281022008F06DF8364B18696423B8
:104DC000323090FBF3F000B208F052F8384B032079
:104DD000B3F9067008F05EF8364B1B7859074FF0B0
:104DE000050997FBF9F7BFB20BD53348414605F0EB
:104DF00082FD20B92B6813F0100F18BF002738B2BE
:104E000005E02E4B1B689889B0FBF9F000B208F062
:104E10002FF82B689A0740F1AC80DFF8A8A0B4F80F
:104E20001480274F9AF800303A884FEA08184FF05C
:104E300064091FFA88F809FB02325B00B2FBF3F346
:104E400048EA03281FFA88F8C3F3032348EA030853
:104E5000062008F01FF80FFA88F008F009F8A38A76
:104E60009AF8001001339BB293FBF1F201FB12336D
:104E7000A382A3699B7B012B26D1392008F00AF875
:104E8000B7F900003CE000BFF0450020A842002038
:104E9000483B00209414002094340020F21200209B
:104EA0000404002000007A44381300202C13002052
:104EB000FC2D0020E0450020CE3C00204C210020AD
:104EC000F8210020940700203F886E233A205F439A
:104ED0004FF0150807F0DEFF97FBF8F71FFA87F889
:104EE000B8FBF9F738B207F0C3FF09FB17873B207F
:104EF00007F0D0FFB8B2471D0A2097FBF0F000B2D0
:104F000007F0B6FF282007F0C5FFAB4B0A201B684F
:104F100093FBF0F000B207F0ABFF042007F0BAFFFC
:104F2000A64BA7491B6808689A894FF6FF739842F9
:104F3000A8BF1846C2B10028ACBF131A134607EE2B
:104F4000903A9FEDA07AF8EEE77A67EE877A07EE5F
:104F5000102AB8EEC77AC7EE877AFDEEE77A17EE29
:104F6000900A6428A8BF642020EAE07000B207F02D
:104F70007FFF954B1B689B0640F19380934B1A78FB
:104F800012F0020F98461FD0DFF87892112007F038
:104F900081FFB9F800008E4B4FF4F367784390FB24
:104FA000F3F000B207F064FF192007F073FFB9F8BF
:104FB00000004743642097FBF0F797FBF0F300FBFA
:104FC000137000B207F054FF824B1F8898F800302E
:104FD00013F0020F08BF0027012007F05BFF38B273
:104FE00007F046FF092007F055FF002007F040FFBB
:104FF000794B1F78794B1A88B2F5967F09D9237AB5
:1050000003F00F03072B04D842F20F77974228BF13
:105010001746052007F03EFFA3695B7B0BB938B24A
:105020001CE0A7F1200307EE903A9FED6D7AF8EEB1
:10503000E77AF6EE006AC7EE877ABEEE007AF5EE02
:10504000C07AF1EE10FA58BFB0EE667A77EE877A42
:10505000FDEEE77ACDED017ABDF9040007F008FF17
:1050600098F800309F0702D4237F012B03D101233E
:1050700023775C481CE05C4BDFED5C6A9B6993ED39
:10508000017AD3ED027A27EE267A67EEA67ABDEE94
:10509000C77AFDEEE77A8DED027ACDED037A02A8AC
:1050A00006E0534A92E8030002AB83E80300184687
:1050B00001F076F907F0E6FE237A282B20D14A4B3F
:1050C000306800221A724FF03C094FF47A73B0FB3B
:1050D000F3F8172007F0DEFEB8FBF9F7B7FBF9F09D
:1050E00009FB1070000200B207F0C2FE182007F0A2
:1050F000D1FE09FB178000B207F0BAFE07F0C2FE2E
:10510000637FDFF8E480002B00F0728105F038FC4B
:10511000D8F82030374AC31A9342074640F2EE804F
:10512000002388F8263088F82830334B1B88DAB201
:105130001B0A88F8422088F8433088F8382088F81D
:105140003930D8F8502033689A1AD8F85430D97BBF
:105150004FF47A734B439A420ED3284B1B68C8F81E
:105160005030274B1B78013B012B9FBF102388F841
:105170002630022388F828300F4B1B491A68104B41
:105180000A2092FBF0F284F84020121284F84120A9
:105190000E4A1B6893FBF0F384F844301B1284F82A
:1051A000453012780C4B96071B7884F872302BD45C
:1051B0002D2381F87330A0E0441300204C210020FF
:1051C0003C1300200000C842C412002050130020ED
:1051D000A08601005C130020511300202807002046
:1051E0006666E63F54130020941400208096184B06
:1051F000107201083F0D0300F821002094340020B4
:105200003A3000205E130020042B8CBF332332235E
:1052100081F87330C54BDFF84C93D3F800A05E687B
:10522000C34AC44B9AFBF3F04FF0060809FB00A1F8
:1052300096FBF3F309FB036903EB830308FB01F11E
:1052400003EB830391FBF2FC4FF0640E02FB1C1195
:105250009B0091FBFEF184F86410091208FB09F829
:1052600084F8651098FBF2F143FA81F39BB284F85D
:1052700067301B0A84F86830AF4B02FB118292FB47
:10528000FEF284F86920121284F86A201A88242316
:10529000534393FBFEFEA94B84F85FE01B8884F820
:1052A0006B301B0A84F86C30A54B00EB80001B8828
:1052B0000A22B3FBF2F303F5FA739BB200EB800012
:1052C000800084F86D301B0A40FA8CF084F86E3050
:1052D0009C4B80B24FEADA7A84F86200F60F000A3B
:1052E000CEF3072E1B8884F861A084F8630084F84D
:1052F000666084F860E084F87430276294F88490E3
:10530000914EB9F1000F0FD1D6F88C0005F032FCA8
:10531000012809D90228DFF8508200F0628201F0EA
:1053200031F8012388F80030D4F89060864B002EC5
:105330005ED093F884203AB1D3F8982040F6B73184
:10534000BA1A8A4216D853E0012283F88420D3F88F
:105350009C20D3F88C001278022A04D80430022151
:1053600000F0FAFF02E0022105F0F8FB002384F8C8
:10537000A0303BE093F89420AAB9C3F8902083F8BA
:105380008420D3F89C20D3F88C001278022A04D809
:105390000430012100F0E0FF02E0012105F0DEFB16
:1053A00000F0F0FF22E0013AD2B283F8942093F8A3
:1053B000A01093F8A10042B901304A1C83F8A10063
:1053C00083F8A020D3F88C000EE03246013012F8AA
:1053D00001EB83F8A1000EEB0106D3F88C0083F8F3
:1053E000A060C3F89020714605F0C7FBC4F8987020
:1053F00094F8A230544EEBB1D6F8A430D3B1D6F81D
:10540000A830BBB1514F1A683B60514B1A60514AEA
:10541000D6F8AC301344187AFDF768FF3B689879EA
:105420000AF02FFBD6F8AC300133092B88BF0023DC
:10543000C6F8AC30484E94F8B0203768424B002A8A
:1054400000F00D82D3F8B420002A00F0088293F80F
:10545000B830013B012B00F20282D4F8B400DFF82F
:10546000E88005F087FBE0B1D8F8B40005F07FFBD9
:1054700098F8B930D6F800A07E2B81460ED10223D1
:105480001B2888F8B83009D1D8F8B40005F072FBB1
:1054900020B90123C8F8BCA088F8C03084F8B990BE
:1054A000DBE7D8F8BC2033689B1A41F658329342A8
:1054B0001FD9032388F8B830D1E1284A32F8130005
:1054C00010B903464FF403600133B0F5C06FDBB28F
:1054D00000F0A2801ED9B0F5006F00F0A58051D970
:1054E000B0F5036F5FD184F8C1301D4B1B6899067E
:1054F00060D494F8C01094F8C130002900F06E8197
:105500003268D21B012AD8D984F8C130002384F82C
:10551000C030A4E1B0F5007F62D027D8B0F5807F1D
:1055200069D0B0F5887F00F0B380E6E7541300201F
:1055300040420F00809698005E1300206213002006
:105540005C13002064130020941400202C300020F1
:10555000303000201072010894340020409101087E
:10556000C4120020806967FF18040020B0F5806F26
:1055700000F0B080B0F5826F00F0EF80B0F5047FEE
:10558000BBD124E0B0F5E26F00F09580B0F5E46F98
:1055900000F09780B0F5E06FAFD184F8C130B14B27
:1055A000B3F9001092E0B0F5046F7BD0B0F5026F54
:1055B000A3D1FCE0AC4B1B789A079AD5AB4B19886A
:1055C00024234B431233642193FBF1F1FFE084F871
:1055D000C1302B689B078CD5A54B0A211B88F5E0B1
:1055E00084F8C1302B68190583D5A24B19680A23AA
:1055F00091FBF3F1EBE084F8C1309F4BDFF88C8234
:105600001B685A077FF575AFD8F80C1000F070FED4
:10561000002388F8C0306CE784F8C1302B681B0584
:105620007FF567AF954B3BE0934A84F8C130126831
:1056300091067FF55EAF8C4A127892077FF559AFDD
:1056400013F0010F8E4B11D05B6883EAE371002BDE
:10565000A1EBE37101EB51014FF01902B1FBF2F143
:10566000ACBF41F0004141F040410EE01B6883EACD
:10567000E371A1EBE371002B01EB51014FF0190233
:10568000B1FBF2F1B8BF41F080414FF400607DE022
:1056900084F8C130784B1B685B077FF52AAF794BE4
:1056A000196894E084F8C130774BB3F9041001EB2A
:1056B000810149006AE084F8C1306A4BB3F90210F5
:1056C00004E084F8C130674BB3F904102C2391FB3C
:1056D000F3F15BE084F8C13094F8C2306B4A0133D7
:1056E000DBB2032B88BF012382F8C23094F8C210CA
:1056F00042F210735943664B1B78D80748BF0131FB
:105700009A0748BF02315807624B1B8848BF0431D3
:10571000DA0748BF0A31980748BF14311A0648BF54
:105720002831D80548BF28315A0748BF64311807C7
:1057300048BFC8319A0548BF01F5C871980648BFEF
:1057400001F57A71DA0648BF01F5FA61580648BFDB
:1057500001F57A614FF4806039E084F8C130464B3E
:105760001B6813F0200817D03F4B1A7812F0020F75
:1057700014BF4FF47A71002112F0010F464A14BF92
:105780004FF4FA6300230B441178194400F0B0FD84
:10579000002384F8C030ACE62B6819067FF5A9AE6B
:1057A000414600F0A5FD394B83F8C080A1E684F89E
:1057B000C130314B1B689A067FF59BAE2A4B1B7894
:1057C0009B077FF596AE354B1B886421594300F04B
:1057D0008FFD2E4B002283F8C0208AE684F8C1306A
:1057E0003DE098F8003023B1C6F8887088F8009042
:1057F0009AE5D6F88830FB1AB3F57A6FFFF494ADCA
:105800000123D6F88C0088F8003005F0B0F9804606
:10581000D6F88C0005F0ABF918F07F0F7FF484AD5B
:105820008A2802D08E280DD07EE5134B1B6898067F
:105830007FF57AAD96F88430002B7FF475AD06F1D4
:10584000580306E096F88430002B7FF46DAD06F126
:105850002403C6F890302D2386F8943064E504B014
:10586000BDE8F087F2120020501300205E130020E4
:10587000F821002044130020C41200203C13002013
:1058800054130020381300202C13002094140020FF
:10589000E0450020C8120020511300205C130020B6
:1058A0002D4B2E4A1B68126810B51A602C4A1168DD
:1058B000596051689268DA602A4A996011681961E2
:1058C000516892689A61284A59611168D961516892
:1058D00092685A62254A196211881985518859853A
:1058E0009188D288DA85224A99851188198651884B
:1058F000598692889A861F4A1188D986518892883B
:105900005A871D4A1987118899875188D98719465E
:10591000928821F8402F194A10780022824206DA34
:10592000174C34F8124021F8024F0132F6E7154ABD
:105930001288A3F86A20144A1288A3F86C20134A2C
:1059400012681A67124A1288A3F87420114A528901
:10595000A3F8642010BD00BFF0430020202D0020DC
:10596000402E00204C2E0020582E0020FC2D002020
:10597000F8120020F21200202C130020942E002098
:10598000141300206821002078300020A01400208B
:1059900040130020FE120020A0F17D03012B70B502
:1059A00004460D460A4E05D830687D2105F0E5F81D
:1059B00084F020043068214605F0DFF835B12B88EB
:1059C0001C4404EB142404F0FF042C8070BD00BFC1
:1059D000481500202DE9F8430E4B93E88003054657
:1059E0000E460024B44213DA7B1933F9140008EB95
:1059F000050333F9142009EB050333F9143013447C
:105A0000022293FBF2F3C01A08F02BFE0134E9E7FF
:105A1000BDE8F883F043002010B5104B93F814371D
:105A2000012B014612D10E4A0E4C1078431CDBB2FA
:105A300013701B0644BF00231370215401F0EAF9D0
:105A40003F2809D9BDE8104001F0F2BA064BBDE885
:105A50001040186805F091B810BD00BF483B002009
:105A6000982B00209A2B0020BC10002070B54720F6
:105A7000FFF7D2FF174B1B681B0307D5164B174ABE
:105A80005B6810681B68C01A08F0DBFD144E154CEB
:105A9000154D307808F0D5FD23682868C01A08F045
:105AA000E0FD63686868C01A08F0DBFD0F4B1888DA
:105AB00008F0C7FD0E4B188808F0C3FD0D4B188881
:105AC00008F0BFFD337823742B68A3606B68E36034
:105AD00070BD00BFD0100020F0430020202D00201A
