:020000040800F2
:1000000000040020D12F01082F7C0008991F01084F
:100010002530010821200108A5200108000000006A
:100020000000000000000000000000002D7C00081F
:100030002B7C000800000000297C0008DFA10008DC
:100040002530010825300108253001082530010838
:100050002530010825300108253001082530010828
:100060002530010825300108EDA1000825300108E0
:10007000253001083D6400081911010825300108E8
:1000800025300108253001082530010825300108F8
:1000900025300108253001082530010825300108E8
:1000A0005D0E0108253001082530010825300108C2
:1000B0009D0E01088D0E0108253001084DE5000850
:1000C00051E5000845E5000849E50008253001082C
:1000D00025300108B1110108253001080D11010872
:1000E000F3A1000825300108297D00084D0E010804
:1000F0006D0E0108253001087D0E0108253001082C
:100100002530010825300108253001082530010877
:100110002530010825300108253001082530010867
:100120002530010825300108253001082530010857
:100130002530010825300108253001082530010847
:1001400025300108253001082530010859770008BD
:100150002530010889100108BD1101087D10010832
:100160002530010825300108253001082530010817
:100170002530010825300108253001082530010807
:1001800025300108253001082DE9F04F2DED068BB3
:10019000A14CA24B2360A3B0002363600EF097FC38
:1001A00018B90EF0B7FC0AF06DFCDFF8F4A29C4E13
:1001B0009C4DDFF8F0920AF01FFD9AF8003043F0F2
:1001C00001038AF800300EF023FF974BF3606B6F4A
:1001D000A360964BB3606B6B954823F080036B6311
:1001E0006B6F43F080736B672A6B924B13432B63E7
:1001F0006B6B6B63AB6BAB632A6C8F4B13432B64E2
:100200006A6C8E4B13430DF188086B6401238DF8E3
:10021000533048F2FF7348F83C3D002741464FF603
:10022000FF7B8DF850708DF851708DF852700DF085
:1002300061FC48464146CDF84CB00DF05BFC80486F
:10024000CDF84CB041460DF055FC7E4841460DF0CE
:1002500051FC7D4841460DF04DFC7C4841460DF077
:1002600049FC7B4841460DF045FC7A4841460DF07B
:1002700041FC414678480DF03DFC40460DF072FCD3
:10028000764A139BB3FBF2F3754A764813604FF03E
:10029000100C39466246CDF808C015F014F8724BC0
:1002A000724A5A604FF0F00B86F823B00722704E66
:1002B0009F601A606F4AB36813606F4BDDF808C027
:1002C0000FCB88E80F002B6B139843F002032B63CE
:1002D0002B6B43F002032B632023A9F8183014A9D9
:1002E000A9F818C006F0ACF916A9159806F0A8F9F7
:1002F000642009F06AFF39465A466048DFF874B155
:100300005D4F14F0E0FF2B6C5D4A43F04F032B640C
:100310006B6C43F4803343F002036B6402F1C00161
:10032000CDF80CA0CDF81490937B506892F80FE0B4
:1003300003F00705DB0800EB8303AD00186A4FF0FC
:100340000F0C0EFA05FE0CFA05F520EA05001862FE
:10035000186A10324EEA00008A421862E4D1002383
:10036000DFF8B49009F10C020021995401330C2BF1
:10037000F6D1FF2389F8183089F8193089F81A3036
:1003800089F81B3089F81C3089F81D303D4B3E4DF3
:10039000DFF814A11D603D4B04221A705046302234
:1003A00014F091FF14238AF8003002238AF81830E1
:1003B00005238AF82430364B96F805A083F800A070
:1003C000344AA5F5F173C9F82030A5F5917313608F
:1003D000314BDBF8005003EBCA035B78C9F82430DB
:1003E000AB0644BF0123C9F8243000232B4A40F256
:1003F000DC5122F813100133082BF7D10CA800218F
:100400001C2214F060FFBAF10E0F4FD00AF0EF0378
:10041000082B4ED14AE000BFA805002067A40008C1
:1004200000ED00E0003802400005FA050000000879
:1004300000000240FF916700FFC9FE36335F0700EE
:1004400000080240000C024000100240001402406C
:1004500000180240001C02400020024040420F00F1
:10046000EC1A00206C1A002010E000E03F9002001F
:1004700068390020302400205C5F01081416002039
:10048000847F01086C4100205A3B00209614002014
:10049000CC0B0020801700208C8D0108D813002081
:1004A000F0440020000402407041002001238DF838
:1004B0004230052009F040FD18B14088003018BFD7
:1004C0000120C5F340038DF83730C5F380138DF854
:1004D0003A30C5F340338DF83030C5F3C03300F007
:1004E00001008DF8333015F400638DF8360007D025
:1004F00096F8843103F1FF3EDEF1000343EB0E0377
:100500008DF83430C5F300438DF83B30636AB6F89C
:1005100044E1ADF846E0003318BF01238DF83C30CC
:10052000C5F300538DF83D30B6F84631ADF8403094
:10053000B6F85231ADF83E30C5F380438DF838300F
:1005400096F85431181C05F00101C5F3C00218BF1C
:100550000120ED0448BFAD4D8DF83900B6F85001CB
:1005600044BFB5F84C51ADF84650B0F5FA7F8DF860
:1005700031108DF83220ADF8440002D90BB9ADF836
:10058000463096F8D431A24884F82830002384F805
:10059000293043709DF84230002B0CBF002302230A
:1005A00001B902B1013307EB83074FF000093B6942
:1005B0009A1E163302920493029A32F8023F029274
:1005C0004FF6FF72934200F05F81DAB2190A9DF88C
:1005D0003B3033B113018F48C0588F4B984200F025
:1005E0004E819DF8373053B18A4B8C4D03EB02138B
:1005F0005868A84203D11B89042B00F040819DF864
:10060000333053B1834B864D03EB02135868A84235
:1006100003D11B89012B00F032819DF8343053B196
:100620007C4B7E4D03EB02135868A84203D11B8913
:10063000022B00F02481022902D19DF8303003E022
:10064000012904D19DF83130002B00F01881714D43
:100650009DF83D3017013D4433B19DF842301BB940
:10066000043A032A40F2F4800129CBB23ED1DFF8EC
:10067000A4B1C4F88050FF2384F8703084F871303E
:100680000BEB070300265A7B586884F8746003F16B
:10069000080A1B89ADF84C3013A902238DF84F309E
:1006A0008DF84E2084F82C6026636663A663E666A8
:1006B00084F8726084F8736005F0C2FF9AF8021043
:1006C0005BF80700324605F0F5FD284610F0D0F83B
:1006D000544B5549C4F88430544BC4F88830C4F89E
:1006E0008C6028460A1D10F0DFFBC8E0022B45D1C4
:1006F0005FFA89F24FF01C0C0CFB02FC04EB0C06B9
:10070000444A86F87590012186F87410D1194FF08B
:10071000000A91F80DE0486886F876A001F1080B10
:100720000989ADF84C1086F87EA013A9C6F8805050
:10073000CDF81CC08DF84EE08DF84F30069205F0D4
:100740007FFF069A9BF80210D059524605F0B2FD81
:10075000284610F08DF8DDF81CC03349344AC6F83D
:1007600084206144334AC6F88820C6F88CA0284605
:100770000A1D10F099FB09F1010980E0032B65D1F6
:100780009DF838302C4ED3B19DF839302B4F94F86A
:100790002AA053B12A4BBDF84420B3FBF2F22846FD
:1007A000082192B2BDF8463003E0284608214FF6F2
:1007B000FF7205F070FF46F82A00C76020E0BDF820
:1007C000442094F82A70BDF84630B2F5FA7F0BD970
:1007D0001B49B1FBF2F22846082192B205F05BFFFB
:1007E000184B46F827000AE01749B1FBF2F22846F9
:1007F000012192B205F04FFF104B46F82700C3606D
:1008000094F82A30013384F82A3038E0683900201F
:10081000D1050020847F0108000C00400008024040
:1008200000000240696000082C06002049610008B1
:10083000CD63000841600008E01500205961000800
:1008400000127A006961000840420F00042B16D1A3
:1008500094F82960BDF83E20584B93FBF2F22846ED
:10086000BDF84030012192B205F015FF94F829300F
:1008700004EB86060133C6F8540184F82930029B44
:10088000049A93427FF498AE94F8293084F8743136
:100890004B4B4C4F1E78A6F117030025022B3D70E1
:1008A00018D8236A2B44D3ED007AF5EE407AF1EEA6
:1008B00010FA02D1636A53BB24E0434A05EB020EEF
:1008C0000FCB8EE80F003B7810350133C02D3B7005
:1008D000E7D1EFE73D4B13F836C087F800C003EBD4
:1008E000C603D3F80490B9F1000FE3D06545E1DA0F
:1008F000354A2B0103EB020E4B440FCB01358EE83A
:100900000F00F3E7324D2B68DB0426D41FE0314B98
:10091000314A13F83600107003EBC6035D68002DF2
:10092000F0D000238342EDDAC3EBC3016A18DFF88D
:10093000B4C0D2F8009041F80C9001EB0C0E9188F5
:10094000AEF8041092798EF806200133EAE706F03B
:10095000EF03082B214B1FD120E03A78012AF6D96A
:100960001F4B03EB0212103210339342EFD053EDC2
:10097000047AB6EE007A67EE877A43ED047A53ED97
:10098000057A67EE877A43ED057A53ED037A67EED1
:10099000877A43ED037AE7E70E2E08D11A7842F002
:1009A00010021A70182E1FD107F096FB1CE01A785F
:1009B00022F010021A70192EF5E700BF40420F0016
:1009C000CC0B002010160020080B00208C8D010895
:1009D00030240020CC6801080C17002020140020CF
:1009E000100B00200D17002007F05AFB2B68DFF8D2
:1009F0001C93BC48DFF80CA3DFF80CB35D035EBFAB
:100A0000B94B01221A70039B039A1B7843F004032D
:100A1000137011238DF84E30D9F830300225102292
:100A20002B43ADF84C2002928DF84F504146C9F847
:100A3000303005F005FEAD4BAD491960002009F0DE
:100A4000DBFBAC4B93E80300D9F8303088E80300B7
:100A500043F00403C9F83030139814A905F0F0FDF1
:100A6000D9F8443043F48053C9F84430D9F82430DD
:100A700043F480530326C9F824305046A02341464E
:100A80008DF84E50ADF84C308DF84F6005F0D8FD24
:100A90004023504641460127ADF84C308DF84E506A
:100AA00005F0CEFD029AADF84C2050464146049226
:100AB0008DF84F608DF84E7005F0C2FDDAF82030E9
:100AC00023F47003CAF82030DAF8203043F4A0038E
:100AD000CAF82030DAF8203023F07063CAF82030EA
:100AE000DAF8203043F0A063CAF82030DAF820307A
:100AF00023F07043CAF82030DAF8203043F0A043E6
:100B0000CAF82030D9F8243043F48053C9F824308F
:100B1000D9F8243023F48053C9F82430764B19884F
:100B200001F4415141F4457131431980998B21F40D
:100B3000006109044FF00702090C99831A82198891
:100B400089B241F040011980D9F8403043F40043A4
:100B5000C9F84030D9F8203043F40043C9F82030B8
:100B600041464FF4806358468DF84E50ADF84C30F6
:100B70008DF84F6005F064FD4FF4805341465846B0
:100B80008DF84E50ADF84C308DF84F6005F058FDA3
:100B90004FF4006341465846ADF84C308DF84E5046
:100BA0008DF84F6005F04CFDD9F830304D483B438F
:100BB000C9F83030D9F830302B43C9F83030082527
:100BC0004146ADF84C508DF84E7005F039FD059B4F
:100BD00050461D8341464FF40045ADF84C508DF80A
:100BE0004E7005F02DFDAAF81850DBF8243043496B
:100BF000DFF81CA123F47063CBF82430DBF8243039
:100C000043F4C063CBF82430DBF8243023F4704382
:100C1000CBF82430DBF8243043F4C043CBF8243045
:100C2000DBF8243023F47023CBF82430DBF82430B5
:100C300043F4C023CBF82430D9F820302B43C9F833
:100C40002030D9F8203023F40043C9F820300B8835
:100C500003F4415343F4457333430B808B8B23F4EC
:100C600000631B041B0C8B834FF007030B820B8864
:100C70009BB243F040030B800020ABF818500DF0FE
:100C800091FCDAF80050049A05F4006302931C4BBF
:100C900003931846002114F016FB039B8DF82C607B
:100CA0004FF000094FF6FF7215F0020105F40048FD
:100CB0000A928DF82D908DF82E908DF82F90564633
:100CC0001D4627D022A9042341F8603D58460CF068
:100CD00011FF0C232B704FF0070385F80190AF70C4
:100CE000EB7018E000040240381000200C45002092
:100CF000D99900087C5F010800300140003C0040A9
:100D0000802300200000024000080240003802401A
:100D1000302400200F46B8F1000F11D022A94FF067
:100D2000010841F8608DC8480CF0E4FE00232B71E7
:100D3000072207EB08036F7185F80680EA71DFB2BE
:100D4000029B7BB122A9022341F8603DBF480CF011
:100D5000D1FE0B2301222B73AA737B1C07226F7316
:100D6000EA73DFB2BA4BBB481A6BDFF8E89242F481
:100D700080021A631A6B42F004021A635A6C42F43E
:100D800080725A640CF0FAFD13A80CF0BBFDB24B54
:100D900014934FF00008B14B1593012F8CBF4FF403
:100DA0008063434619934FF400631A934FF4005342
:100DB0001B934FF480731C9348464FF4003313A9E0
:100DC00017971D93CDF84C80CDF85880CDF86080F2
:100DD0000CF0A9FDD9F80030A14A43F00103C9F88D
:100DE000003051689F4B0B4043F440339E495360A1
:100DF0004B68012F23F0407394BF0022012223F49B
:100E0000807343EA02234B608A68984B134043F097
:100E100002038B60CB6A013F23F47003FFB243EA05
:100E20000757CF62404601232A189778002F5AD0DF
:100E300015F800E0D2785F1CBEF1090FFFB211D99E
:100E4000AEF10A0CD1F80C900CEB4C0C4FF00708EB
:100E500008FA0CF829EA080802FA0CF248EA020239
:100E6000CA600EE0D1F810800EEB4E094FF0070C6F
:100E70000CFA09FC28EA0C0C02FA09F24CEA02020C
:100E80000A61062B0ED8013B4A6B03EB83034FF03C
:100E90001F0C0CFA03FC22EA0C020EFA03F31343B4
:100EA0004B631FE00C2B0ED8DA1FD1F8308002EB19
:100EB00082021F23934028EA030C0EFA02F34CEA45
:100EC00003030B630EE0A3F10D02D1F82C8002EBBB
:100ED00082021F23934028EA030C0EFA02F34CEA25
:100EE0000303CB623B46043010289DD18B68604DD4
:100EF00043F400738B608B6843F480738B608B6862
:100F000043F001038B608B6843F080438B60B5F83E
:100F10005831002B40F04887B5F95A21002A40F09B
:100F20004387B5F95C21002A40F03E87DFF86481F1
:100F3000DFF864B1D8F800304E48B3F85E9095F809
:100F40005F7100210C2214F0BEF94FF0000A00215D
:100F50001422494814F0B7F984F875A151460C22BF
:100F60008BF876A10BF5BC7014F0ADF9434BC4F8C7
:100F70008431232009F029F9752001210DF1230284
:100F80000DF070F85C46B0B13D4BCBF87C313D4B79
:100F9000CBF8803150464323012109AA8BF87831E0
:100FA0000DF060F89DF8243003F07E038DF82430B6
:100FB000002873D17BE0344A138823F040031B04DC
:100FC0001B0C1380138823F038031B041B0C43F005
:100FD0003003138013889BB243F0400313806B20CF
:100FE00080210DF0B3F84FF0150A962009F0EDF8C6
:100FF0007520012113AA0DF08DF89DF84C30682B57
:1010000005D00AF1FF3A1AF0FF0AEED194E00C2065
:10101000012113AA0DF07EF89DF84C30142BC0F07E
:101020008B80182B03D9543B062B00F285800323B9
:1010300084F87531432384F87831144BC4F87C313B
:10104000134BC4F8803177E00000024000080240F2
:1010500000380240706402404C2001409023002080
:1010600000230140E030FCFF00200140FDF7FFC0FD
:10107000683900206426002084170020845F01085E
:1010800065E00008ADDF00080030014015E1000810
:101090004DE10008E8130020A8050020682B06D1C8
:1010A00001238BF875311D238BF8783144E09DF8CE
:1010B000233003F07E03682B8DF8233037D10223D1
:1010C000062084F875310146D4F87C3113AA98477C
:1010D0009DF8511001F001029DF84F1001F001013F
:1010E0004B0043EA82019DF84D2002F001030B43BF
:1010F0000AD05BB2012B01D1002302E0022B0FD1F9
:10110000012384F8763117E0504B0C20D3F87C3162
:1011100001210AAA98479DF8283013F00F0303D144
:10112000032009F0D3F807E0042BE9D1E4E7702BA2
:1011300004BF042384F87531454B00221A7094F8DB
:101140007521032A9A4640F09E86424B424A1A6015
:10115000424A5A60424ADA604248434A1A610122CE
:101160000270424AD2F800E04EF00101116093464D
:1011700039461F4603460A290A464FF0010028BF98
:101180000022904040F20231014081B910F0FD0F81
:101190000DD0374A1170374A3749116037495160CD
:1011A00007225A704EF00303CBF8003005E0012A05
:1011B0004FF00001DFD82E4B1970DBF80030980794
:1011C00002D52C4B1B6898472D4B4FF4FA721A60CE
:1011D0000022042384F8882184F889314FF4807038
:1011E0003B6802929847274B029A1A7095F855214E
:1011F0000AB18AF8002095F856210AB11C490A70F4
:1012000095F8572102B11A70DBF800301E4913F02F
:10121000080F3DD00FFA89F9642299FBF2F302FB23
:10122000139212B207EE902AB8EEE77A07EE903AE0
:10123000DFED166AF8EEE77AE7EE267AB2EE047A88
:1012400067EE877AC1ED007A24E000BFA805002090
:101250009817002084170020C1E200088DDE0008E6
:1012600071DE00083005002090C1793DA4130020F4
:101270000045002064260020ADE2000801DF0008E0
:1012800018140020F1440020AC1800208988883C04
:1012900000230B60C64AC74F137843F00203137054
:1012A00010237B8320233B834FF00A097B69DFF8FF
:1012B00004A383F010037B617B6983F020037B61CF
:1012C000192008F082FF012008F096FF192008F08D
:1012D0007CFF09F1FF39002008F08EFF19F0FF09AB
:1012E000E4D12023AAF818301023AAF81830B24B02
:1012F0009FEDB28A1B681B7B00EE103AB8EEC00A65
:1013000020EE080A09F064FBAD4B9FEDAE7A83ED49
:10131000000AAD4BD3ED047AAC4B67EE887AC3ED8F
:10132000007AAB4B1B8807EE903AF8EEE77AC7EEEF
:10133000277A9FEDA87AC7EE877AC4ED637A10F01A
:101340004BFCA54BFF2118461B2213F0BCFFA34A00
:10135000DFF8A8E2126880F80090012112F0020F75
:101360008EF800101FBF417003218EF8001002217B
:1013700018BF8170510748BF9EF80010734641BFE7
:1013800001F1010E83F800E04FF0030E00F801E0D8
:1013900012F00A0F0ED01A7804218154511CC9B2E0
:1013A0004FF0050E00F801E0D11C0232D2B21970E4
:1013B0000621815431688A0641BF1A7802F1010E74
:1013C00083F800E04FF0070E48BF00F802E00A067D
:1013D0000ED51A784FF0090E00F802E002F1020E65
:1013E0000132D2B283F800E04FF00A0E00F802E0BA
:1013F00095F805E0BEF1080F02D0BEF10E0F08D13E
:101400001A7802F1010C83F800C04FF00B0C00F8C1
:1014100002C01A7811F4803F4FF00C0900F80290D6
:1014200002F1010C1CBFDFF8D49102325FFA8CFC90
:1014300083F800C01FBF89F80020674A4FF00E09EB
:1014400002F80C904A0741BF1A7802F1010C83F8A8
:1014500000C04FF0100C48BF00F802C01A7802F12B
:10146000010C5FFA8CFC4FF0120911F4806F83F8C5
:1014700000C000F802900ED095F81492B9F1000F58
:1014800009D0DFF87891023289F80020524A4FF0F3
:10149000130902F80C908A0541BF1A7802F1010C79
:1014A00083F800C04FF0150C48BF00F802C0BEF131
:1014B000180F14D11A784FF0160C00F802C002F180
:1014C000010C5FFA8CFC4FF0170900F80C9002F148
:1014D000030C0232D2B283F800C000F802E00A0323
:1014E00041BF1A7802F1010E83F800E04FF0190EA7
:1014F00048BF00F802E0CA0541BF1A78511C1970B4
:101500001A2148BF81541A78511C1970142383542E
:1015100000219822324813F0D6FE0FF0A2FA314B88
:10152000314932481960324BB5F84E2101603149DA
:101530001A800023304AD8F800A00B70B5F8961135
:10154000138093701FFA81FC0AF18102DFF8B090DA
:10155000DFF8B0E0D9F80000DFF8ACB02EF813C027
:1015600000F596704BF823000133122B7046EDD135
:10157000D6F800E01EF4805F08BFB5F89CC1A0F863
:1015800006C00AF1D1061378002B4DD192F802C0A3
:10159000D3789C4548D2BCF1000F37D00CF1FF3C0A
:1015A0000CEB8C0C0CEB8C0C0CF5617335E000BF74
:1015B000F0440020000402405018002035FA8E3C10
:1015C000B01800200AE81C41841700206C18002085
:1015D0000804002000401C46B1130020A413002082
:1015E000D0380020C8120020F03A00202C2400201F
:1015F000CC1200200312002060240020B013002031
:10160000CC320020342400204C120020013303EBA4
:10161000830303EB830303F5617392F801C00CF1BC
:10162000040C9BB220F81C300432B242ABD11EF045
:10163000080F00F0BB8095F89021062A00F2B080D8
:10164000DFE802F004070E354F6D6D0045F2F052F1
:1016500001E042F6F8227F4B1A800FF0A0FA9EE0DC
:101660007C4B42F6F8221A8009010A2391FBF3F120
:101670000023A1F5B061784A42F823100133122B00
:10168000F9D1764A76491160764A4020137008F005
:101690008DFC002800F0848001234FF0070E90F9A4
:1016A0000000714A8DE808404021704B72E0694BA0
:1016B00042F6F8221A80694B6D4A1A60694B102273
:1016C00040201A7008F072FC002869D0012300261F
:1016D00090F90000674A8DE8480040214FF4E1335B
:1016E00058E05C4B42F6F8221A805C4B624A1A6062
:1016F0005C4B082240201A7008F058FC00284FD09C
:101700000123002590F900005C4A8DE82800402163
:101710004FF4E13308F06AF9C4F890013CE04D4B16
:10172000DFF894A1DFF894C1DFF894E1544E5548F6
:10173000554D42F6F82119804A4B0C21062A1970A2
:101740004FF000038AF800308CF800308EF800303B
:101750001BBF1B2333702123052314BF0370337079
:101760003E4B08BF0270494A18BF29704FF0400035
:101770000ABF29704FF4E135454D1A6008F016FC98
:1017800070B101210023434A90F900008DE80A005E
:1017900040212B4608F02AF9003018BF012028B953
:1017A000082009F03DF92D4B3B4A1A603B4D2D4A6C
:1017B0002B6813F4804F1FBF12211170274938483E
:1017C00018BF086042F20101194003F0010003F460
:1017D000005681B11F4944F6206EA1F800E026B101
:1017E000082111701D492F4E0E6020B10C2111707F
:1017F0001A492D4808601178043951701A0640F1D1
:101800009A804FF0000A294EDFF8B8B02848C4F893
:1018100094B15146152286F801A0C6F804A0C6F876
:1018200008A013F050FD234A0292ABF10503504685
:10183000136007F0CDFCD9F80030F360022008F007
:10184000B5FB029A964600283ED1802009F0E8F8C0
:1018500069E000BF8811002034220020C804002065
:1018600041D4000864410020C1D60008A0860100D0
:101870002DD4000815D6000815D40008C9D50008D5
:10188000C2220020C3220020C12100203DD3000835
:1018900090D00300A9D40008A5D40008302400206B
:1018A00075D4000895D4000885D40008BC0A00202F
:1018B00040070020DC0A0020C2210020C1220020B5
:1018C000C02200205A3B002090F805C07378D1490F
:1018D0000C2202FB03125278624504D00133DBB2C2
:1018E000042BF4D900237370DEF8003072781B7873
:1018F00090F90000002B4FF00C0303FB021314BF00
:101900004FF0030E4FF0010E00225B78CDF800E09F
:101910000192022108F06AF8BF4B1860002894D0A9
:10192000012007F055FCD8F80000BC4B00F5C97247
:101930001A6007F065FDBA4ABA4B1360BA4ADFF87D
:101940001CA3803313602B68002613F4803F8AF8B1
:1019500000600DF14C0800F0CC804FF001090DF053
:1019600005FEDFF8FCC28AF8009040F22A3A604691
:1019700031465246CDF808C013F0A5FCAB4BDFF85A
:10198000E4B21A6B42EA09021A631A6C42F00802C6
:101990001A641A6B42F400121A63022358468DF837
:1019A0002C300AA903238DF82D30CDF828908DF81E
:1019B0002F908DF82E600CF09DF8DBF820209C4BCA
:1019C00022F00F02CBF82020DBF8202042F00202A8
:1019D000CBF820201A8822F001021204120C1A807F
:1019E0001A8822F45C721204120C1A806822DA62DD
:1019F0001E85A3F814901A8C22F001021204120C16
:101A00001A841A8C9888198B22F0020221F0730133
:101A100009041204090C120C41F0600180B242EA80
:101A20000902988019835E631A841A8B22F00802D7
:101A30001204120C42F008021A831A880BF5C04BEC
:101A400092B20BF1400B42EA09021A80DBF8002047
:101A500022F00102CBF8002058460BF08FFF4046E1
:101A60000BF050FF4FF040621392724A14924022E2
:101A700016924FF4806219924FF480521A924FF4EA
:101A800080421B924FF44032DDF808C01D9241465F
:101A900004225846CDF854C01E92CDF85CA018968A
:101AA0001C961F96209621960BF03DFFDBF8002038
:101AB000614B42F01002CBF800204FF400129A6004
:101AC00009A80D238DF824308DF825908DF8266017
:101AD0008DF827900BF0E9FF3146584B1A68584BA8
:101AE00043F8212001312029F7D104F0CBFC04F088
:101AF000C9FC2B685B0555D5524BD4F8D894C3F874
:101B00000090042008F052FA0421C4F8DC0408F024
:101B100027FA4D4B84F8E0040820C3F8009008F041
:101B200045FA4A4B4A4E1860082108F019FA00217C
:101B300084F8E1042C22304613F0C5FB8E23737029
:101B40004FF07C0BE0234FF07D0AF37086F800B075
:101B500086F82BA03F4E2C220021304613F0B3FB19
:101B60008A2373701020A023F37086F800B086F8E3
:101B70002BA0C4F8E49408F019FA1021C4F8E80482
:101B800008F0EEF984F8EC042020C4F8F09408F092
:101B90000DFA2021C4F8F40408F0E2F984F8F804FE
:101BA00010F0FAF82C4E338823F040031B041B0C72
:101BB0003380338823F038031B041B0C43F00803E5
:101BC000338033889BB243F0400333804FF00009E9
:101BD0009F2332208DF828308DF829908DF82A9097
:101BE0008DF82B9008F0F1FA8DF84D904FF0080920
:101BF0000AAA0423A7F81A903046414604F088FE4A
:101C0000A7F818909DF84E209DF84D3002FA09F281
:101C10002AE000BF086001084021002018130020BE
:101C2000802100208C3B00207821002000380240D9
:101C3000000C0040340C0040006002409C5F010832
:101C4000F01000204410002080100020C810002058
:101C50005010002084100020003C0040EF100020B5
:101C6000550700200000024042EA03429DF84F3031
:101C70001A43874B9A42874B17D008D886498A4225
:101C80000CD001F51A4102318A4209D01BE0834988
:101C90008A4205D001318A4207D014E0202200E0B8
:101CA00080221A804FF4807202E04FF480721A8012
:101CB0005A809A88198812029A604A43DA6001228F
:101CC00084F8F92404E000221A805A809A60DA60CD
:101CD000DC680CB3E40A27464FF00009A14509DA95
:101CE00009EB04067610F002414610220FF084F84A
:101CF0000F2806DC07F000FE694BFF02C3F8FC74F6
:101D00000AE0002358F82320013249D10133042B83
:101D1000F8D137463446E1E72B68624A13F40023D2
:101D200018BF0123137008F029FA5F4B18605F4B4E
:101D30005A79052A194602BF5D4B4FF4C8721A80C2
:101D40005C4B4FF47A721A805B4A137843F00803B5
:101D500013705A4A137823F0020313702A6840F66E
:101D6000020313406BB1564B564A1A60564B03227E
:101D70001A70564B01221A70554A00231380554A97
:101D800013808B682B60544B01221A70534A1378CE
:101D900063F07F03137023B0BDEC068BBDE8F08FBA
:101DA00006F101092646B5E71BB208EE103AB5F96F
:101DB0005A31DFED4B7A4B4A09EE103AB5F95C31F6
:101DC000B8EEC88A08EE903A28EE278AB8EEC99A8B
:101DD000F8EEE88A0021B0EE480A29EE279A68EE6C
:101DE000A78A117008F0F4FDF0EE40AAB0EE480AA0
:101DF00008F08DFDF0EE409AB0EE490A08F0E8FDDB
:101E0000B0EE40AAB0EE490A08F081FDB0EE408A7B
:101E1000B0EE680A08F0DCFDB0EE409AB0EE680A59
:101E200008F075FD60EE2A6A69EE897AF0EE665A6E
:101E3000E7EE885A2C4B29EE2A6A29EE807AC3ED08
:101E4000035AF0EE465A2AEE400AE7EE485AE6EE0A
:101E5000887AA6EE487A29EE0A9A83ED010A69EE9D
:101E6000CA9A2AEE2A0A83ED009A83ED028AC3ED0C
:101E7000045AC3ED059A83ED067AC3ED077A83ED24
:101E8000080AFFF753B8012008F020FAFFF702BA5A
:101E900018BA20000C040020152020001740EF0085
:101EA000A8050020B6420020E00A00206839002082
:101EB0001C1800200845002020140020F8440020B1
:101EC0007C230020E23A0020602600203405002018
:101ED000B0110020B211002038100020F044002082
:101EE00035FA8E3CA5040020582300202DE9F04F40
:101EF000BB4BB3F90610BB4B2DED028B1E687289EC
:101F00008FB0914201930EDBB1F5FA6FF479BDBF4A
:101F10008B1A6343A2F5FA64C4F16404BCBF93FB5B
:101F2000F4F4643400E06424AF4BB04AB3F896B1E3
:101F300093F95E31126802929BB215460393002218
:101F4000A74B33F912E0CBEB0E0303F2F31740F289
:101F5000E63087424FEA420C03D8002BB8BF5B4201
:101F600001E04FF4FA73022A00934FF06400029BE1
:101F70002FD093F819712FB1009BBB42CCBFDB1B54
:101F800000230093009B9A4F93FBF0F86FF0630AD5
:101F900037F818900AFB083A08F10108954B37F911
:101FA00018700FFA89F8C8EB070707FB0AF797FBC9
:101FB000F0F74F4423F80C70B718009B3F797B4330
:101FC0008D4F93FBF7F364339BB2634393FBF0F0C5
:101FD0002EE093F81A712FB1009BBB42CCBFDB1BE4
:101FE00000230093009BDFF8309293FBF0F06FF03A
:101FF000630839F9107008FB003A0130BDF80C3065
:1020000039F91000C01B00FB0AFA9AFBF8FAC7EB7B
:102010000A0A1AFB03FA774BA3F804A0009BB079D5
:10202000002BB8BF5B424343734893FBF0F064302E
:102030006F78724B4FF06408474397FBF8F79F5453
:1020400003F10309EF7A474397FBF8F709F80270A9
:1020500006336F7D022A00FB07F0664F90FBF8F015
:102060009854674B0ED1DE4583F802800DDB5E4C41
:10207000B4F89821914214DBB1F5FA6FA8BF4FF480
:10208000FA610FE0DE459C5404DA37F80C305B420D
:1020900027F80C300132032A05F101057FF450AF17
:1020A000E5E71146DFF878E1524D891A4FF47A736B
:1020B0006FF063065943C2F5FA626423B1FBF2F193
:1020C00091FBF3F23EF8120006FB0211013206B258
:1020D0003EF91220921B514391FBF3F30344FB8022
:1020E000484B1B88590639D5474BDFED487AB3F981
:1020F00004300A2293FBF2F3454A12889B1A1BB262
:1021000008EE103AB8EEC88A28EE278AB0EE480AE0
:1021100008F05EFCF0EE408AB0EE480A08F0F7FBEB
:10212000B5F9023006EE903AB5F90030F8EEE66AFD
:1021300007EE903A20EE667AF8EEE77AA7EEA87AF4
:1021400067EE807ABDEEC77AE6EEA87A17EE103A0F
:10215000FDEEE77A2B8017EE903A6B802D4B2E4EDA
:102160001B88DFED2E0A358B00EE103A06F11C00BD
:10217000B8EE400A012108F07DF9BCEEC00A96F8DD
:1021800026308DED000ABDF80000B5FBF0F0451CCF
:10219000ADB2B584002B45D0B6F828B000231E4957
:1021A00037F8138001F1320C01F12A093CF813E0F1
:1021B00039F813202CF81380CEEB080E12FB0BF22B
:1021C0000FFA85FA92FBFAF2964429F813E00133EC
:1021D000042BE4D1002381F82630088525E000BFD8
:1021E000342400201C14002068390020E81300204B
:1021F000DE1A0020504400200CFEFFFF7E1100205C
:1022000058440020A81300200414002035FA8E3C06
:10221000B4420020A0130020701100206F12833AF6
:10222000C61A0020338D013B3385A54D288D03B29E
:10223000002B4FF0000312DDB5F924E0A14931F87D
:102240001320083112FB00F231F8131092FBFEF25A
:102250008A1A27F813200133042BEFD100E02B85D5
:10226000994B1A6812F0020F984678D0974BDFF816
:1022700050B21A68EB6B45F20721D31A8B426EDD20
:10228000CBF83C200BF064FD914BDFF880A21A786C
:10229000032A9946BAF8003024D10A2B2ED90023FC
:1022A000282089F8003007F090FF0BF051FD894B92
:1022B00018880BF037FD884B1A68D37890FBF3F041
:1022C00001300828854BA8BF08201870537980B2C8
:1022D00013FB00F3A5F84030137913FB00F0A5F8C9
:1022E00042000BE00A2B09D803237C4A89F800300E
:1022F00000231370ABF84030ABF8423099F800304F
:10230000734A012B0DD002D3022B1ED027E0B5F863
:102310004020BAF800309A4221DD012389F80030CC
:1023200011E0BAF80010B5F842308B4202DD02230A
:10233000137011E0624BB3F840300133994202DD73
:10234000002313700BE0082007E0B5F84230BAF81C
:10235000002001339A42E0DC072007F06BFFD8F839
:10236000008018F4006F7DD0584B6A6C1B6854488D
:10237000C2EB030945F20722914573DD564AB7F9CE
:1023800006C0D2F800A043649AF80A20544B554F77
:10239000B3F84E11012AACF57A7C03D049D3022A56
:1023A00022D048E0504B816C5A7B504B33F81220BE
:1023B0004FF0080E92B291FBFEF3C91A8B18A0F8E9
:1023C0004C20836440F6E44293FBFEF39BB25343FC
:1023D000BAF80820C2EB13334FF47A725343BAF9B8
:1023E000062093FBF2F325E0414ABAF808B01278D0
:1023F000C7F800B052071ED503F5C470CDF800C071
:1024000007F077FEDDF800C020B918F0100F18BFF4
:102410004FF0000C32220CFB0CF393FBF2F3BAF9F1
:10242000062063445A434FF47A7392FBF3F35B4400
:1024300000E000233B60D6E914013B6803FB09F987
:102440004FF47A7399FBF3F910EB090241EBE9734E
:10245000C6E9142310461946264A00230FF074FEDD
:10246000254B1860254F00973B6813F4805F52D0CE
:1024700018F0800F4CD0224B1B789B0748D5214B7E
:102480001878042844D900221F4B02EB030E0521C3
:10249000961C4FF00A0C122AD154F1B28EF801C0EA
:1024A00004D0B0EB510F3246EED800E014215A1898
:1024B000322002F8010CFF225A540F2029E000BFFD
:1024C000701100209A11002030240020F4440020D4
:1024D00060260020982300207C2300203405002063
:1024E000683900201414002080230020902300204D
:1024F000F8440020407E05000C140020AC1300209E
:102500002014002021140020702600202824002000
:102510000A2007F08FFEA44E3268002A58D0A34943
:10252000A34B08681F6887428946984650D8A14B3C
:10253000DFF890A21878516810BB01201870BAF823
:102540000030CB5C63B31378013B00FA03F29A4B83
:10255000D3F8F0371A4201D107F04EFE974B012213
:102560001A700BF061FCBAF80030CBB933681B78F5
:10257000053B012B14D807F001FE914B18600FE0CA
:102580004FF0000B83F800B0BAF80030CB5C3BB1E1
:10259000584607F031FE894B83F800B00BF044FC3D
:1025A0003268BAF8003052688648D25CFE2A01D1FF
:1025B00000230CE0FF2A02D107F024FE08E0D9F83E
:1025C00000600A2111FB0262C8F800200133038079
:1025D0007D4E33785F0703D57C4B20225A832EE053
:1025E000009A1268D0075CBF43F001033370784B48
:1025F0001B7819075EBF337823F001033370754BE6
:102600001A886E4B1AB1744A1268920702D4734A40
:10261000128832B102221A70337823F0010333702A
:1026200004E03178CF0758BF02221A7007F0A6FDE8
:102630006B4B1B68C01A002801DB0BF0F5FB0FF099
:10264000ABFB684B02931F78002F78D0664F3B6836
:10265000002B00F06A87386807F081FE002800F040
:102660006487614B614C186807F076FE092801D039
:102670003F2858D14FF0000AD4F80080DFF8889145
:102680005646B8F1000F06D05948D9F80010424616
:1026900012F066FE10B9CA4606B94E46554B09F10E
:1026A00010099945EDD3EEB1D6F800C0DAF80090E4
:1026B00023681CF803E019F80300704512D15A1C76
:1026C0004B4958B92D2B09D8DFF820E1CEF800206E
:1026D0004FF0200E01F803E0885403E001F803E016
:1026E0002260E5E723680BB1564511D042480DF052
:1026F0003BFD564507D856F8100B0DF035FD092067
:102700000DF02AFDF5E73D480DF02EFD4FF00008D5
:10271000236898459FD2364B13F808000DF01CFD36
:1027200008F10108F4E72368002B40F02287042811
:1027300040F081872E4809F03FFB00F0F6BE00977D
:102740002F4BFA1892F84A10012940F0E786DFF87B
:10275000BC80C8F80020FA582A4BC1461A60DFF83E
:10276000A4B0DBF8000007F0FAFD002800F0C186F5
:10277000DBF8000007F0F0FDD9F8003093F84820AE
:1027800082461AB9242870D101226BE0012A04D1B3
:102790004D2814BF0022022264E0022A38D13C28CE
:1027A00014BF002203225DE0FC1A0020CC3200207E
:1027B000F41A0020F01A0020683900208424002038
:1027C0003C440020F81A0020F84400200004024095
:1027D000201400201C180020A4130020084500200D
:1027E00088240020104500205C2600207421002051
:1027F000442100200C6801084C8301085183010822
:10280000D0380020582600202C66010854260020CD
:10281000032A0AD140284FF000029FBF1A71DA71D3
:102820005871987198BF04221CE0042A08D19A7943
:1028300083F8490080EA020A83F806A0052211E025
:10284000052A32D159791A799142997906D94140AC
:102850009971511C19711344187226E081420CBF02
:102860000622002283F848201FE03378C04A590727
:102870001BD42328DBF8003011D10392029ABD4803
:10288000AB6501211170BC490B600DF06DFCBB48BC
:102890000DF06AFC039A137843F002031370B84BEF
:1028A0001B681B78534500F03786D9F80030DFF8F5
:1028B000ECA293F848B0BBF1060F7FF450AF93F849
:1028C000490002F041F8002840F00C86DAF80020B8
:1028D00092F849304C2B00F0D98400F29380352BCC
:1028E00000F09D823CD82B2B00F0A68422D8252B0B
:1028F00000F0748404D8232B00F0568200F036BE1A
:10290000272B00F07784292B40F030860DF05EFBFA
:10291000DFF87092A9F880010DF058FBA9F8820148
:102920000DF04AFB89F884010DF050FBA9F88601EF
:1029300000F0D5BD2F2B00F0498504D82D2B00F0D9
:10294000808400F013BE312B00F05585332B40F00E
:102950000D860DF031FB8B4B83F8920100F0BFBD6B
:10296000412B00F0ED841AD8392B00F0528404D8A2
:10297000372B00F0F28400F0F9BD3C2B00F0DF8033
:102980003E2B40F0F3850DF017FBDFF8F89189F846
:10299000E0010DF011FB89F8DF0100F0A0BD442B30
:1029A00000F05E8526D8432B40F0E0850DF004FB57
:1029B0000023A36060710DF013FBA3681843A060AF
:1029C0000DF0FAFA84F890010DF000FBA4F858011C
:1029D0000DF0FCFAA4F85A010DF0F8FAA4F85C0125
:1029E0000DF0F4FAA4F880010DF0F0FAA4F88201D9
:1029F00000F075BD482B00F088834A2B00F06F85EE
:102A000000F0B4BDD12B00F0AA8320D8CC2B00F06D
:102A10002D820FD8C82B62D004D84E2B00F06284D0
:102A200000F0A4BDC92B00F07383CA2B00F0B8805E
:102A300000F09CBDCE2B00F05B83C0F05083CF2B09
:102A400000F07A82D02B00F03F8300F08FBDD82BAE
:102A500000F03B810BD8D32B3BD027D3D42B00F0F5
:102A6000C082D62B40F082854FF00009AEE2F22BF7
:102A700000F0FF8212D8EF2B40F07885DFF8189134
:102A8000D9F800A00DF0A2FAAAF86200D9F80090D7
:102A90000DF09CFAA9F8600000F021BDF32B00F0C6
:102AA000E384FA2B00F02D8300F060BD337803F04F
:102AB000040303F0FF09002B40F011850DF07CFAB0
:102AC000304B022883F8C40740F2048383F8C4978C
:102AD00000E30DF07BFAA5F85C0000F000BD92F871
:102AE00005904FEA5909B9F1120F03D90EF098F881
:102AF00000F0F5BC4FF0000ACA4507D20DF066FAA7
:102B000005AB23F81A000AF1010AF5E74A4600234B
:102B10004B4507DA05A931F813001B4921F81300CA
:102B20000133F5E7122A05D0174B002123F81210C4
:102B30000132F7E7012385F85E3000F0D0BCDFF802
:102B400058A0DAF800900DF037FA18B10228A8BFA3
:102B5000022000E0012089F80000DAF800301B783C
:102B6000022B0A4B14BF0A4A0A4A1A6000F0B7BC8B
:102B7000F8440020818301085C260020518301086D
:102B80006C410020683900207C220020D004002005
:102B9000E11501084D180108E81300205426002013
:102BA000DC4B1A681278022A4FF0000A994670D15D
:102BB000D9F800B00DF000FA07EE900AF8EE677A47
:102BC000B2EE048AC7EE887A0BEB8A0BCBED087A5B
:102BD000D9F800B00DF0F0F907EE900A9FEDCE7A2B
:102BE000F8EE677A0BEB8A0BC7EE877ACBED0B7AA0
:102BF000D9F800B00DF0E0F907EE900A9FEDC77A22
:102C0000F8EE677A0BEB8A0BC7EE877A0AF1010AB6
:102C1000BAF1030FCBED0E7ACAD1BAF1070FD9F88A
:102C200000B01CD10DF0C8F907EE900AF8EE677AF3
:102C3000C7EE887ACBED117AD9F800B00DF0BCF967
:102C400007EE900AF8EE677AC7EE887ACBED127A33
:102C5000D9F800B00DF0B0F98BF84C0012E00DF08F
:102C6000ABF9D3448BF80100D9F800B00DF0A4F90A
:102C7000D3448BF80B00D9F800B00DF09DF9D34484
:102C80008BF815000AF1010ABAF10A0FC5D100F05C
:102C900026BCD9F800B00DF08FF9D3448BF80100B1
:102CA000D9F800B00DF088F9D3448BF80B00D9F8AF
:102CB00000B00DF081F9D3440AF1010ABAF10A0F0C
:102CC0008BF81500E5D100F00ABC8246DFF844928B
:102CD0009FED928AD9F800B00DF078F907EE900ACE
:102CE000F8EE677A0BEB8A0BC7EE887ACBED087AA1
:102CF000D9F800B00DF06AF907EE900AF8EE677A9D
:102D00000BEB8A0BC7EE887ACBED0B7AD9F800B0C3
:102D10000DF05CF907EE900AF8EE677A0BEB8A0B80
:102D2000C7EE887A0AF1010ABAF1030FCBED0E7AE9
:102D3000CCD1BAF1070FD9F800B01CD10DF046F98B
:102D400007EE900AF8EE677AC7EE887ACBED117A33
:102D5000D9F800B00DF03AF907EE900AF8EE677A6C
:102D6000C7EE887ACBED127AD9F800B00DF02EF9C3
:102D70008BF84C0012E00DF029F9D3448BF80100D8
:102D8000D9F800B00DF022F9D3448BF80B00D9F834
:102D900000B00DF01BF9D3448BF815000AF1010ABD
:102DA000BAF10A0FC5D19AE30DF006F9132883464C
:102DB0003FF69CAEDFF85CA1DAF800900DF0FCF86D
:102DC0000023574A0C2101FB0322117A814222D1B0
:102DD0000FFA8BFB09EB8B09137889F881300DF022
:102DE000EBF889F882000DF0E7F889F883000DF020
:102DF000E3F84C4B4C4A1A6089F884004B4BDAF8E4
:102E0000000018600021813007F062F9484B80F023
:102E10000100187063E301331C2BD2D166E60DF07C
:102E2000CBF80B2881463FF661AE3A4BD3F800A0B1
:102E30000DF0C2F803283FF659AE0BFB09AB8BF837
:102E4000D6000DF0B9F88BF8D1000DF0B5F88BF87D
:102E5000D2000DF0B1F88BF8D3000DF0ADF88BF87F
:102E6000D4000DF0A9F88BF8D50038E35379092B7D
:102E70007FF63CAE019BD3F800900DF09DF8019BCE
:102E800089F80000D3F800900DF096F889F8010059
:102E90000DF092F8019B64281B68A8BF642018718C
:102EA0000DF08AF8019B64281B68A8BF6420587144
:102EB0000DF082F8019BFF281B68A8BFFF209871C6
:102EC0000DF07AF8019B6428D3F8009028BF6420A5
:102ED00089F807000DF070F8019B89F80200D3F81B
:102EE00000900DF069F8019B89F80300D3F8009079
:102EF0000DF06CF8DAF80030A9F80A005B790A2BBB
:102F000040F2ED820B4BD3F800900DF055F889F8A4
:102F10000800E4E2E81300200000C84200007A4400
:102F2000446401080C130020A83A0020101300206C
:102F3000040400201C1400200DF048F86FF4AF6268
:102F400083189BB2C62B9CBFD84BA3F896010DF0FB
:102F50003DF8A4F840010DF039F8A4F842010DF055
:102F600035F8A4F844010DF031F8A4F8D8010DF0BB
:102F700023F884F8ED010DF01FF80DF01DF884F82A
:102F8000EE010DF019F884F885010DF015F884F8BC
:102F900092010DF011F8C64BD3F800900DF016F821
:102FA00000EB80004000A9F85E000DF005F884F801
:102FB0007A010DF001F884F87E010CF0FDFF84F831
:102FC0007D010CF0F9FF84F87F0188E20CF0FEFF30
:102FD000B84B23F8190009F10109B9F1080FF5D12F
:102FE0007DE253790F2B7FF481AD0CF0E5FF0728CC
:102FF00081463FF67BADDFF8B8A2DAF800B00CF0FE
:10300000E5FF0E2303FB09F9CB44ABF82101DAF805
:1030100000B00CF0DBFFCB44ABF82301DAF800B0D2
:103020000CF0D4FFCB44ABF82501DAF800B00CF07B
:10303000C3FFCB448BF82701DAF800B00CF0BCFFDB
:10304000CB448BF82801DAF800B00CF0B5FFCB4484
:103050008BF82901DAF800B00CF0AEFFCB44DAF8B7
:1030600000A08BF82A010CF0BBFFD144C9F82B015A
:1030700035E20CF0A1FF0F2881463FF637ADC9EBD2
:10308000C9090CF099FF04EB090303F1D00983F897
:10309000D0000CF091FF89F801000CF08DFF89F849
:1030A00002000CF089FF89F803000CF085FF89F815
:1030B00004000CF081FF89F805000CF07DFF89F811
:1030C000060005F009F80AE233785B0700F1078291
:1030D0000BF020FD07F0D6FC07F08EFDFFE1337802
:1030E000580700F1FC81744B4FF4C8721A80F6E166
:1030F0003378590700F1F381704A137843F00403E1
:103100002BE033785A07E5D530E20DF049FEE6E1D1
:103110000CF052FF694B1A7810B142F0020201E044
:1031200022F002021A700CF047FF654BDFF8B091F5
:1031300018700CF055FFC9F800000CF051FFC9F8E9
:1031400004000CF043FF5F4B18800CF03FFF5E4B18
:103150005E4A1880137843F002031370BFE10CF04D
:103160002BFF03900CF03CFF83460CF039FF8246A6
:103170000CF036FF81460CF029FF0CF027FF0CF015
:103180001BFF039BA3B9524B1020C3F800B0C3F838
:1031900004A007F025FC494A137843F0010313709B
:1031A000B9F1000F00F09B814A4BC3F8009096E103
:1031B000102B40F09481484BC3F800B0C3F804A032
:1031C000B9F1000F02D0434BC3F800904248434B83
:1031D0000222011D1A7006F0C9F880E1DFF8CC90D8
:1031E000C9F808000CF0FCFED9F808301843C9F8FB
:1031F000080074E10CF0EAFEDFF8B090A9F858017D
:103200000CF0E4FEA9F85A010CF0E0FEA9F85C010C
:1032100065E10CF0D1FEDFF8949089F87A010CF0AA
:10322000CBFE89F87E010CF0C7FE89F87D010CF019
:10323000C3FE89F87F0152E10CF0BEFE1B4B5871B2
:103240004DE10CF0B9FE84F890010CF0BFFEA4F83B
:103250009A010CF0BBFEA4F896010CF0B7FEA4F89E
:1032600098010CF0A9FED8F8003084F891015B7940
:10327000DFF83890082B40F232810CF0A7FEA9F855
:103280009C010CF0A3FEA9F89E0128E10CF094FE2D
:10329000DFF8189089F8D6010CF08EFE89F8D70176
:1032A0000CF094FEA9F8D80119E100BF683900209C
:1032B000E81300203A2600201C18002020140020CB
:1032C000211400202C1400202E140020361400207D
:1032D000381400204814002040140020141300204B
:1032E0002414002092F805900323B9FBF3F9B9F1F7
:1032F000120F3FF6FBABDFF84CA34FF0000BCB45B2
:1033000080F0ED800CF058FE8AF8A0010CF05EFE13
:1033100040F2ED23984205DD40F6CA039842A8BF6B
:10332000184601E040F2EE20A0F2EE2019230BF146
:10333000010B90FBF3F00AF1020A8AF89F01DEE725
:1033400082460CF039FEBF4B53440AF1010ABAF130
:10335000080F83F88801F4D1C1E053794FF0070AD0
:10336000B3FBFAFACAEBCA029B1A13F0FF0F7FF401
:10337000BDAB5FFA8AFA0AF1FF3A5FFA8AFABAF14C
:10338000FF0F00F0AC800CF017FE5FFA80FB4FFAE5
:103390008BF006F0D1FD814600283FF4A7AB80F802
:1033A00000B00CF013FEA9F802000CF005FE89F83D
:1033B00004000CF001FE89F805000CF0FDFD89F811
:1033C00007000CF0F9FD89F80600D4E7DFF87492E5
:1033D00009F1400A0CF0FAFDA9F8A4020CF0ECFD8A
:1033E00089F8A6020CF0E8FD09F1040989F8A302A6
:1033F000D145EFD173E00CF0DFFD1F2881463FF689
:1034000075ABD8F800305B79082B7FF46FAB0CF00C
:10341000DDFD09F1880904EB890900F03F00A9F8F6
:1034200006000CF0D3FDB9F80630800100F4FE5020
:103430001843A9F806000CF0BFFD000189F804004C
:103440000CF0BAFD99F8043000F00F00184389F829
:1034500004000CF0B1FD89F805000CF087F83EE09F
:10346000012385F85F303AE00CF0A6FDFF28814685
:1034700021D100238DF813309DF81330052B14D87B
:103480009DF81300704A9DF8133052F8300002EB9B
:10349000C30301215B68994089B2042209F086FECA
:1034A0009DF813300133DBB2E4E7684810210022B5
:1034B00009F07CFE13E005283FF618AB00200CF065
:1034C000CBFD0CF0A5FD624B186806F03FFF18B964
:1034D000322006F07AFEF6E7484609F075FE002035
:1034E0000CF0BAFD0CF094FDD8F80030002283F8FF
:1034F000482095F85F308BB1009A4C235343554ACE
:10350000D05806F023FF18B9322006F05EFEF3E72C
:1035100004F0A2FD07F08CFA0DF09FFD009B4C37E4
:103520000133982F00937FF40BA94B4B1B689B062C
:1035300014D54A4B2A6E1B689A1A002A0EDB484A99
:103540001278042A0AD9474A03F5123303F5F873AF
:1035500013663E4A536983F010035361424B9B68E4
:10356000002B00F0AC8041489847A8E00DF058FBD4
:10357000B8E70C2803D13E480CF0F6FD4DE00A28D0
:1035800001D00D284BD13B4E3B480CF0EDFD3046B1
:10359000232111F0CEFE08B1801B2060236893B375
:1035A0005A1EB15C202901D11346F8E7314A236045
:1035B0000021D154314B324ED3F800A0D6F800B0E0
:1035C000DFF8B090584611F0C2FE804642464846A9
:1035D000594611F0C5FE2B4A28B919F80830534452
:1035E0005B78580703D010369642E7D307E096423F
:1035F00005D208F10100F3684844984702E02248E8
:103600000CF0B2FD00231B4823600021302211F092
:103610005AFE029B1B78002B87D01C4807E07F28AE
:1036200038D1013B134A1A4823600021D1540CF0D1
:103630009BFDFFF710B80C289DD07F282DD1FFF7F8
:103640000AB800BF68390020548F01080004024006
:1036500058260020D0380020A4130020F444002075
:10366000211400207011002084170020D4110020A4
:1036700056830108442100206C9101083805002080
:103680002C6601080C680108618301085183010858
:103690007D8301082F2B3EF6DEAFA0F12002D2B2CF
:1036A0005E2A3EF6D8AF13B920283EF4D4AF5A1C98
:1036B0002260054AD0540CF04FFDFEF7CCBF0FB08E
:1036C000BDEC028BBDE8F08F442100202DE9F04FC6
:1036D000A249A34C0A6802F59C432DED028B2033CE
:1036E0002360A04B87B01E780091C6B19E4909683F
:1036F0008A4240F20581013E1E7001E1D9F8003096
:103700009A48072D98BF595D994B88BF29461B6879
:103710009847032D0CD904EB45050136A880934B3F
:10372000DFF870921A78F5B2AA421946E6D820E07E
:10373000D9F8002005F10E0302EB83039988DA889B
:103740000028E8D04FF47A73401A5843531A90FB7C
:10375000F3F040F6C90300F57A70984205DC40F2B8
:10376000EE239842B8BF184601E040F6CA0080B286
:10377000D1E7804B1B6842F2010803EA08087E4B40
:10378000B8FA88F84FEA58181B68B8F1000F06D14C
:1037900094F8292084F82820784A5078107094F8FA
:1037A00028701FB1754A177887F0010794F82BB07D
:1037B00091F800A00F220326BBFBF6F606EB4606A7
:1037C00084F82A20C6EB0B06D9F80020DFF8CC914C
:1037D000F6B20025554559DA4FEA450C1FB1684944
:1037E00031F8150000E03846918ADFF8B4E18142F3
:1037F00002D8D18A81421ED25EF825005849834200
:1038000003D2604931F80C0019E0E8B2029201934A
:1038100003910AF0B5FA032D019B029A0FDC03997C
:103820004FF0010C91F82AE00CFA05FC2EEA0C0E80
:1038300081F82AE003E003F596714EF82510B8F1FF
:10384000000F1CD194F8BC1029F8160031B9BBF157
:10385000020F14D94249012081F8BC00B9F80210C6
:10386000B9F800000844B9F804100844464980B289
:1038700021F8150000B2032190FBF1F080B241491C
:1038800009F1060921F815000135A3E794F82A206B
:1038900039493E4BA2F10F0EDEF1000242EB0E025F
:1038A00084F8D6206AB13A4A1268570109D40A68E6
:1038B000D9689A60521AC82A1DD9012283F821209A
:1038C00019E02E4A0120507010700A689968DA6079
:1038D0005B68521A9A4282BF2C4B002283F8212047
:1038E0000025554507DAE8B20AF04AFA254B23F8D5
:1038F00015000135F5E794F82B30013384F82B30AF
:103900001C4B1A6812F4805F984605D0204B1B6848
:10391000DE0701D40DF030FE009B19681D4B1868BE
:10392000837A002B3ED0013B164D027B35F81330D5
:103930001AB1C3F53B6308339BB21BB2A3F57A738C
:10394000B3F57A7FA8BF4FF47A7323EAE37307EEE7
:10395000903A9FED117AF8EEE77A5CE0F4440020AB
:10396000D81100205C24002058240020644100204D
:10397000C804002030240020CC32002002040020A3
:10398000DC11002034240020961200206024002046
:10399000AC1300202C24002000007A4404120020E4
:1039A0004C120020D8F80020150440D5D4F8D820B7
:1039B000934E8A1A002A3ADB01F59C422032C6F85F
:1039C000D820904AC07A55798F4A32F8152096F857
:1039D000DC50013592B292FBF0F205F00F0086F850
:1039E000DC00304480F8DD201A468848185C01333A
:1039F0000244102B92B2F8D112B292FBF3F31BB235
:103A0000642BA8BF642323EAE37307EE903A9FED8B
:103A1000807AF8EEE77AC7EE877A7E4A9FED7E7A63
:103A200067EE877AFCEEE77A17EE903A1380D8F8C3
:103A300000307A4F13F4807F00F00981784BDFF873
:103A4000E491994205D999F8022012B9012289F826
:103A5000022099F80220002A00F0F980714A3E788D
:103A600092F82150704A681E454211684541002D68
:103A7000C1F38063C6F380060093924614BF4FF0F3
:103A8000000B4FF0030B99F82020052A00F2D98093
:103A9000DFE802F0034D527584A1002E3AD0D4F82D
:103AA000F000B4F8F41006F024FB012809D15F49B6
:103AB0005F4A09681268C988642000FB0122C9F8BE
:103AC0001020009B6BB1594A126812794AB10EF06E
:103AD000F9F8032289F820204FF47A72C9F81C20E3
:103AE000D1E7002D40F0AD80514AD9F81010106890
:103AF0004C4A88420AD901920EF0E4F8019A032157
:103B000082F8201040F6B831D161BCE7012182F87B
:103B10002010B8E7009B4FF4806013B106F070FFEF
:103B200001E006F05DFF0022C9F8102089E0002DB9
:103B300046D10EF0C7F8A6E725B1052289F8202066
:103B4000012000E0284666B1D4F8F020D189394A36
:103B5000118051809180354909684988D1804FF0A2
:103B6000020B334A1168D9F81420914201D8002E73
:103B700064D147F23052C9F81C20032221E03A7880
:103B800042F002023A700DF0F7FC294AD9F81C10F5
:103B900012680A44C9F81820042212E0244A9DB190
:103BA0001168D9F8182091424BD9234A92781AB952
:103BB000DAF80020D10744D43A7822F002023A70B1
:103BC000052289F820205EE71268D9F81C100A4403
:103BD000C9F8182035E01549154A09681268C988DE
:103BE000642000FB0122C9F810204FF480600022FD
:103BF00089F8202089F8032006F0F2FE43E700BF91
:103C0000D81100208023002090230020B51200202E
:103C10000000C8421014002000C07F44F844002077
:103C2000404B4C0060240020AC130020E8440020EE
:103C3000CC320020342400200204002000287FF42D
:103C400022AFBBF1000F02D0584606F0F3FAA94D9F
:103C500005F5C470B5F84E1106F04BFA834668B905
:103C60000EF022F8A44BC3F800B0C3F804B0C3F8B8
:103C700008B0A24B00221A605A609A603B785A073B
:103C800036D5D8F80030DB0632D59D4B1B78DE06E2
:103C90002ED49C4B9B7893B195F8E031BBF1000F8B
:103CA00015D17BB1984B1A68D4F8F8309B1A002BC9
:103CB00008DA0DF061FC954B83F8FCB018E0BBF11D
:103CC000000F0DD1102006F0B5FA01230EE03BB134
:103CD0008D4A12684FF47A7101FB0323C4F8F8305F
:103CE00094F8FC3023B106F08DFA002384F8FC3000
:103CF000002295F8DEA195F8DF11B5F898E1B5F846
:103D00009AC113468248009030F912609B087645AC
:103D1000C4BF63F07F03DBB201326645B8BF43F036
:103D20004003042AEED194F8FD2078489A4205D148
:103D300090F8FE20F92A04D8013200E0002280F831
:103D4000FE2084F8FD306F4B724E9A789946E2B9A6
:103D50003368D80708D5BBF1000F16D13B78D907D7
:103D600013D50DF077FA10E03B785A070DD5674B65
:103D700093F828304BB1684BDB7833B911B10DF0B3
:103D8000FBFB02E0BBF1000FF9D094F8FE305F4A74
:103D9000DFF89CB1142B40F0838099F802301AF1BF
:103DA000000A18BF4FF0010A6BB392F8FD305F2B89
:103DB00011D13B7803F0040303F0FF0113B10DF0C0
:103DC000DBFB08E00B200291019206F033FA019A26
:103DD000029982F8FE10BAF1000F14D094F8FD3069
:103DE0007D2B10D13B7803F0040303F0FF0213B1E5
:103DF0000DF0C2FB07E00B20019206F01BFA434BCB
:103E0000019A83F8FE203B7803F0040303F0FF01DE
:103E1000002B45D194F8FD303C4A572B0AD13F4B3B
:103E20004FF47A721A80D8F800301B0638D505F0A6
:103E300049FB35E0D8F80000400716D55A2B14D1BD
:103E4000374B187820B11970364B01221A7027E0D1
:103E500092F8FF3083F0010382F8FF300BB10C20A1
:103E600000E00D2006F0E6F91AE05D2B00F0D284A8
:103E70005B2B00F0D1845E2B02D1032000F0CDBC7F
:103E8000562B01D107F06AF899F80230002B00F0A8
:103E9000D98494F8FD306F2B40F0CE840DF0DAF920
:103EA000D8F800305A0752D594F8FF30A3B13B78C8
:103EB0005B0711D5009BB3F90620B5F898319A42FB
:103EC0000ADD336813F0010301BF174A3221118064
:103ED0000E4A08BF82F8FF303368D8032AD5134B47
:103EE0001A782AB90E4A127812B90F4A3221118073
:103EF00001222BE06839002064440020C0440020E7
:103F00002014002002040020CC320020D811002010
:103F100034240020AC130020602400200845002039
:103F2000491800204A1800203018002048180020A6
:103F3000E8130020B74A13784BB13B7803F0040331
:103F400003F0FF011BB9B44B117001221A70DBF8AA
:103F500000A0002333600AF183090AF1D30B99F81A
:103F6000002099F8013019F8010C9A420BD2494609
:103F700006F088F838B119F8022C012303FA02F28E
:103F800033681343336009F10409D945E7D1A34BE2
:103F90001B785BB1A24BDFF8A4B21A68DFF8A0A2CD
:103FA00012F0020F994640F03D8334E30AF1D20645
:103FB0000AF58D793278737816F8010C9A4225D279
:103FC000314606F05FF808B3B37896F804C0954A16
:103FD00096F803A094480C21013B01FB0C4103EB34
:103FE00043031344D1F804219A420FD0C1F804319D
:103FF000002390F83021C1F80831012303FA0CF3B3
:1040000022EA030381F800A180F8303106364E45DC
:10401000D0D1864B1E68864B1B68029394F82830DB
:104020000393844B019300230093019B1A68002A99
:1040300000F0E68292F800A0BAF1000F00F0E082F2
:104040005B680299CB1A002B0CDB01F5FA7301991E
:104050004B60009901238B4094F8301121EA03034F
:1040600084F83031039B002B00F0CA82019B517809
:1040700013F8043C0433DBB2002940F080826E491F
:1040800031F91310B5F8963103F1C800814202DD11
:1040900092F802B015E0C83B994203DA9178C1F179
:1040A000000B0EE0009A0123934094F8302122EA9D
:1040B000030384F83031029B019A03F5FA735360CD
:1040C0009EE294F83031009A1341D90700F19882AA
:1040D000BBF1000FCCBF0220012006F0DFF80AF18F
:1040E000FF33DFF84491132B00F28282DFE813F0F4
:1040F0001400250037004B0064006B00ED005001F8
:10410000B701E501150280024B005A006B00ED007B
:104110005001BF002201870196F80090D944B9F1FF
:10412000FA0FA8BF4FF0FA0929EAE979304686F874
:10413000009005F08DFF01200FE096F80190D94422
:10414000B9F1640FA8BF4FF0640929EAE979304654
:1041500086F8019005F07CFF02204946DAE196F8E6
:1041600003A0DA44BAF1640FA8BF4FF0640A2AEA48
:10417000EA7A86F803A03046D9F8341105F01EFF1C
:1041800003205146C6E1717959446429A8BF6421CE
:1041900021EAE17171710D2005F0DCFFBAF10D0F1C
:1041A00000F02682317959446429A8BF642121EAAC
:1041B000E17131710E20ADE1B179594481F308010B
:1041C000B1710520A6E1D9F838311A78022A3FD119
:1041D00007EE90BAB8EEE70ADFED1B7A93ED097AA5
:1041E00080EE270A30EE070AB5EEC00AF1EE10FAAB
:1041F00007D4B4EE670AF1EE10FAC8BFB0EE670A52
:1042000001E09FED120A83ED090A0F2005F08CFFF3
:1042100029E000BF491800204A180020104500205E
:10422000AC130020D6630108D81100201C14002014
:10423000CC320020DC12002034240020A413002003
:10424000A813002000007A440000C84200000000CB
:1042500099785944C829A8BFC82121EAE171997009
:104260000F2005F077FFBAF10F0F00F0C181D9F8E8
:1042700038311A78022A1ED107EE90BAB8EEE78AD2
:104280005FED0F7A93ED080A88EE278A38EE000A70
:10429000B5EEC00AF1EE10FA07D4B4EE670AF1EEFB
:1042A00010FAC8BFB0EE670A01E01FED180A83EDEF
:1042B000080A122056E159785944C829A8BFC821D4
:1042C00021EAE1715970122024E1D9F838311A78C5
:1042D000022A20D107EE90BAB8EEE70A5FED267AFF
:1042E00093ED0C7A80EE270A30EE070AB5EEC00A8D
:1042F000F1EE10FA07D4B4EE670AF1EE10FAC8BF77
:10430000B0EE670A01E01FED2F0A83ED0C0A1020C2
:1043100005F00AFF0AE0197B5944C829A8BFC82143
:1043200021EAE1711973102005F014FFBAF1100FA2
:1043300000F05E81D9F838311A78022A1ED107EED2
:1043400090BAB8EEE78A5FED407A93ED0B0A88EEFB
:10435000278A38EE000AB5EEC00AF1EE10FA07D44B
:10436000B4EE670AF1EE10FAC8BFB0EE670A01E0DA
:104370001FED4A0A83ED0B0A1320F3E0D97A594462
:10438000C829A8BFC82121EAE171D9721320C1E070
:10439000D9F838311A78022A22D107EE90BA1FEDE7
:1043A000570AF8EEE77A87EE800AD3ED0F7A30EEFF
:1043B000270AB5EEC00AF1EE10FA09D45FED5E7A75
:1043C000B4EE670AF1EE10FAC8BFB0EE670A01E07A
:1043D0001FED620A83ED0F0A112005F0A5FE0AE029
:1043E000997D5944C829A8BFC82121EAE17199756E
:1043F000112005F0AFFEBAF1110F00F0F980D9F8E5
:1044000038311A78022A20D107EE90BA1FED730ACC
:10441000B8EEE78A88EE008A93ED0E0A38EE000ABD
:10442000B5EEC00AF1EE10FA09D45FED797AB4EE78
:10443000670AF1EE10FAC8BFB0EE670A01E01FED9F
:104440007D0A83ED0E0A14208CE0597D5944C82959
:10445000A8BFC82121EAE171597514205AE0D9F8A2
:1044600038311A78022A1ED107EE90BAB8EEE78AE0
:104470005FED8B7A93ED0A0A88EE278A38EE000A00
:10448000B5EEC00AF1EE10FA07D4B4EE670AF1EE09
:1044900010FAC8BFB0EE670A01E01FED940A83ED81
:1044A0000A0A09205EE0D9785944C829A8BFC82162
:1044B00021EAE171D97009202CE0D9F838311A7855
:1044C000022A1ED107EE90BAB8EEE78A5FEDA27A13
:1044D00093ED0D0A88EE278A38EE000AB5EEC00A81
:1044E000F1EE10FA07D4B4EE670AF1EE10FAC8BF85
:1044F000B0EE670A01E01FEDAB0A83ED0D0A0A205A
:1045000030E0597B5944C829A8BFC82121EAE1718C
:1045100059730A2005F01EFE6AE0D9F838311A787E
:10452000022A22D107EE90BA1FEDBA0AB8EEE78A46
:1045300088EE008A93ED100A38EE000AB5EEC00A44
:10454000F1EE10FA09D45FEDC07AB4EE670AF1EE2D
:1045500010FAC8BFB0EE670A01E01FEDC40A83ED90
:10456000100A0B2005F0E0FD42E0D97D5944C8292E
:10457000A8BFC82121EAE171D9750B20CAE701293A
:1045800036D19078BF4A32F91390B9F5617F05DBD7
:1045900040F633039945A8BF994601E04FF461798D
:1045A000BAF10C0F24D1B84A4FF4966393FBF0F0A4
:1045B0001378A9F5617999FBF0F95FFA89F94B4510
:1045C00016D0B9F1040F34BF4B4602231370AF4A23
:1045D0000AFB035303F2C673136006F0E9FA504670
:1045E000494605F0B7FD09F10100C0B205F056FEDD
:1045F000009A0123934094F83021134384F830311A
:10460000009B01330093019B0C330193009B042B0F
:104610007FF40BADBEE4D8F80030DA0511D59C4B21
:10462000DB7873B1DBF800309B070AD5BAF80030AD
:1046300013F001060AD10DF037FB012006F0E0F976
:1046400004E0012006F0CCF9012300E00023D9F8B2
:10465000002056070DD563B1012006F0C1F9BAF864
:104660000030980708D40DF01FFB022006F0C8F9AF
:1046700002E0022006F0B4F9BAF80060854B16F0AB
:10468000030F4FF0100214BF5A831A83DBF8003077
:10469000990609D4D9F800301A0540F189804FF401
:1046A000807006F0ADF987E07B4B1B789B074ED5F9
:1046B0007A4B1B78042B4AD9D9F8003013F4007BCD
:1046C00006F010060CD0B6BB102006F099F9202099
:1046D00006F086F97248011D04F048FE022326E028
:1046E000B6B22EB1102006F07BF9012684F83CB159
:1046F000D9F80030580512D5D4F8403169495A89A3
:10470000B1F90030002BB8BF5B42934207DAB1F930
:104710000230002BB8BF5B429342C0F2F380BAF87C
:104720000030990608D5202006F05AF9002384F8B5
:104730003C31012600E0002694F84431A3B90E2054
:1047400005F078FD584B012283F844210CE016F067
:10475000300F9FD0102006F043F9202006F040F9DA
:10476000002384F83C3101E0002E93D04F4B002011
:1047700003F1280603F150044D4A002122F81010DD
:104780004C4A596022F810100432716022F810105F
:1047900000221A609A603260B26022606160A2609A
:1047A00014331436143400287FF474AF0120E3E787
:1047B0004FF4807006F014F96B79082B01D00E2BA2
:1047C00002D1402006F00CF9D8F800305A0540F12B
:1047D000AF8095F814321BB93B7813F0040F03E057
:1047E000D9F8003013F4002F0BD0334B00221A708D
:1047F0003C200CF019FA002800F09A800BF0BCFB6A
:10480000F6E70DF0C9FA07B0BDEC028BBDE8F04F3A
:104810000CF027B9012000E002205FFA80F909F1CD
:10482000FF3385F8C43706F02DF906F0E5F9484660
:1048300005F034FDFFF734BBBAF1000F02D07E2B38
:104840003FF42CAB94F8FD30972B05D11B4B4FF464
:10485000C8721A80FFF724BBA72B06D10E4A137823
:1048600043F004031370FFF71BBB0022BB2B059220
:1048700001D1022303E0B72B22D14FF6FE73ADF82E
:10488000163028E034240020382600201C14002094
:104890006024002000040240201400202114002085
:1048A0003814002050440020D8110020201300208C
:1048B0001C45002098130020694100201C1800208E
:1048C000BE2B01D1022304E0BD2B7FF4E9AA4FF6F1
:1048D000FE73ADF81430DBF80030BDF81410B3F8F7
:1048E00060200A44A3F86020BDF81610B3F86220D7
:1048F0000A44A3F8622006F031FB002384F8FE305E
:10490000FFF7CEBABAF800309B063FF515AF20206E
:1049100006F076F809480A4B011D1A685B68436087
:10492000026004F023FD074B012683F83C6103E796
:1049300007B0BDEC028BBDE8F08F00BF4014002033
:1049400024140020D81100202DE9F0472DED028B12
:104950004B28A0B0044600F02C8600F2B580302829
:1049600000F0B28651D8222800F0788423D803289A
:1049700000F05F8114D8012800F04F81022840F038
:104980000E8704200BF068FB43200BF032FB4C2019
:104990000BF02FFB46200BF02CFB4C2000F03EBE12
:1049A000042800F05081052840F0F9861A200BF009
:1049B00053FB002457E1282800F0C98515D8242886
:1049C00000F0B085262840F0EA86B34C06200BF0B4
:1049D00043FBB4F858010BF042FBB4F85A010BF05A
:1049E0003EFBB4F85C0100F02ABE2C2800F0C28522
:1049F0002E2800F041862A2840F0D18601200BF0B5
:104A00002BFBA54B587900F009BE3D2800F0ED8244
:104A10001ED8362800F016860BD8322800F0F8850C
:104A2000342840F0BC8648200BF016FB002500F02F
:104A300037BC3A2800F0B1823B2800F008843828BF
:104A400040F0AD8604200BF007FB934C00F070BDE6
:104A5000452800F0918627D8402800F0E2854228BA
:104A600040F09D868C4C10200BF0F6FA60790BF02C
:104A7000C0FAA0680BF0FCFA94F890010BF0B9FAB8
:104A8000B4F858010BF0EBFAB4F85A010BF0E7FA5E
:104A9000B4F85C010BF0E3FAB4F880010BF0DFFA34
:104AA000B4F8820100F0CBBD472800F04386C0F087
:104AB0003086492840F0738602200BF0CDFA774B00
:104AC000B3F8780000F0BBBD702800F0D58256D84E
:104AD000692800F03B822AD8652800F0F18015D8BB
:104AE0004D2800F07585642840F0598607200BF0AA
:104AF000B3FAE7200BF07DFA674B58790BF079FA9F
:104B000000200BF076FA042000F045BE672800F084
:104B1000A08100F20E8212200BF09EFA604B1B88DF
:104B2000B3F5806F8CBF08260126002574E16C2840
:104B300000F01F8217D86A2800F075846B2840F0B7
:104B40002E86564C05200BF087FAB4F892000BF035
:104B500086FAB4F894000BF082FA94F8960000F00C
:104B6000010000F05BBD6E2800F01B8200F25A824B
:104B700006200BF071FA00200BF07AFA0BE278288D
:104B800000F0748119D8742800F0AB830BD8722818
:104B900000F00984732840F0028608200BF05CFACC
:104BA000012400F039BC762800F05E8400F2DB833B
:104BB0002F200BF051FA3B4C41E3A42800F07E84F7
:104BC00014D87B2800F0E182A02840F0E8850C2072
:104BD0000BF042FA344B18680BF04AFA334B186862
:104BE0000BF046FA324B186800F0D5BDF12800F002
:104BF0007981FE2800F08984F02840F0D085274C88
:104C000004200BF029FAA36CB3F862000BF027FA2A
:104C1000A36CB3F8600000F012BD03200BF01CFA87
:104C200000200BF0E6F920460BF0E3F90D2000F030
:104C3000F5BC0BF011FA01200BF0DBF90B200BF0A7
:104C4000D8F900F039BC06200BF006FA52200BF020
:104C5000D0F945200BF0CDF956200BF0CAF94F20C2
:104C60000BF0C7F997E1134B185D01340BF0C1F954
:104C70000B2CF8D10024104B185D01340BF0B9F95E
:104C8000082CF8D100240D4B185D01340BF0B1F95C
:104C9000072CF8D100F081BD68390020A013002056
:104CA0000804002013640108107AFF1F147AFF1F04
:104CB000187AFF1FB3800108BF80010897800108A0
:104CC000CF4C0B200BF0C8F920880BF0C8F9608896
:104CD00080B20BF0C4F96368C3F3C000C3F3800271
:104CE000800040EA4200C3F340021043C3F3401285
:104CF00040EAC20003F0100318430BF0B0F9228918
:104D0000E368247C02F0080103F4475949EA0109E9
:104D100003F4804149EA010903F4004149EA010929
:104D200003F4803149EA010903F4003149EA010939
:104D300003F4802149EA010903F4002149EA010949
:104D400003F4801149EA010903F0007349EA0303FF
:104D5000DFF8CC9299F8009012F0010FC9F38009A6
:104D600014BF4FF002084FF0000843EA090312F0A5
:104D7000020F43EA080314BF4FF0040C4FF0000C7D
:104D800012F0040F43EA0C0C14BF4FF0100E4FF05A
:104D9000000E12F0400F14BF202700274CEA0E0E21
:104DA00012F0100F14BF4FF4007600264EEA0707EA
:104DB00012F0200F14BF4FF4806500253E4312F41B
:104DC000807F14BF4FF400600020354312F4007F51
:104DD00014BF4FF400110021284312F4806F41EA00
:104DE000000114BF4FF080630023002019430346E5
:104DF000A3420AD2834A9D5C012202FA05F50D42C4
:104E00001CBF9A4010430133F2E70BF031F97E4B9F
:104E100093F8C40700F002BC794C04F12C0333F979
:104E2000150090FBF6F0013580B20BF018F9032D58
:104E3000F2D1608E0BF013F9A08E0BF010F9E08E1A
:104E40000BF00DF900200BF00AF900200BF007F928
:104E5000A1E010200BF000F900246C4B185D013428
:104E60000BF0C7F8102CF8D100F097BC70200BF0B5
:104E7000F3F80026624D0E24AB6C744323440136D4
:104E8000B3F821010BF0EBF8AB6C2344B3F823012A
:104E90000BF0E5F8AB6C2344B3F825010BF0DFF819
:104EA000AB6C234493F827010BF0A3F8AB6C2344BD
:104EB00093F828010BF09DF8AB6C234493F829017B
:104EC0000BF097F8AB6C234493F82A010BF091F8A0
:104ED000AB6C1C44D4F82B010BF0CAF8082EC9D1D6
:104EE00000F05BBC7020484C0BF0B6F804F1700584
:104EF00094F8D0000BF07DF894F8D1000BF079F81D
:104F000094F8D2000BF075F894F8D3000BF071F818
:104F100094F8D4000BF06DF894F8D5000BF069F814
:104F2000073494F8CF000BF064F8AC42E0D100F005
:104F300034BC10200BF090F80024354B185D013480
:104F40000BF057F8102CF8D100F027BC314D287821
:104F5000400000F0FE000BF07FF800242B789C420C
:104F600080F01B842C4B33F814000BF078F80134DC
:104F7000F4E7234C06200BF06FF8B4F864000BF054
:104F80006EF8B4F866000BF06AF8B4F968300A20DD
:104F900093FBF0F027E0002051E304200BF05CF8D5
:104FA000F8E307200BF058F81C4B154C1888FF2825
:104FB000A8BFFF20C0B20BF01CF8E06E80F3100019
:104FC00080B20BF04CF8B4F870000BF048F80E4BC0
:104FD000606F93F8853123B10A23584380F31000A2
:104FE00001E000F30F0080B229E3074C02200BF030
:104FF00033F894F8E0010AF0FCFF94F8DF010DE3C8
:10500000A0130020B113002068390020D81300201D
:10501000EC130020644100203424002028240020C8
:10502000F8440020C64C0B200BF016F8E36F1878FC
:105030000AF0DFFFE36F58780AF0DBFF0026254611
:10504000EB6FBF4C3344013618790AF0D2FF032EC0
:10505000F6D1E36FD8790AF0CCFFE36F98780AF0C5
:10506000C8FFE36FD8780AF0C4FFE36F58890AF0ED
:10507000F6FFE36F187AD1E2B14C1E200AF0ECFF84
:10508000A36C1B78022B4FF000056BD1A36C03EBD4
:10509000850393ED080AB2EE048A20EE080A10F0A8
:1050A00021FB80F30800C0B20AF0A3FFA36CDFED80
:1050B000A57A03EB850393ED0B0A20EE270A10F087
:1050C00011FB80F30800C0B20AF093FFA36CDFED80
:1050D0009E7A03EB850393ED0E0A20EE270A10F06B
:1050E00001FB80F30800C0B201350AF082FF032DF6
:1050F000CCD1072DA36C23D193ED110A20EE080A21
:1051000010F0F0FA80F30800C0B20AF072FFA36C4E
:1051100093ED120A20EE080A10F0E4FA80F308007A
:10512000C0B20AF066FFA36C93F84C3000EE103A60
:10513000B8EE400A10F0D6FA80F30800C0B20BE0D7
:105140002B4458780AF055FFA36C2B44D87A0AF008
:1051500050FFA36C2B44587D01350AF04AFF0A2DFD
:10516000C7D11AE3A36C2B4458780AF042FFA36C12
:105170002B44D87A0AF03DFFA36C2B440135587DAF
:105180000AF037FF0A2DEDD107E33C200AF064FF57
:1051900000246B4D9FED6C8AAB6C03EB840393EDA5
:1051A000080A20EE080A10F09DFA80B20AF057FFB4
:1051B000AB6C03EB840393ED0B0A20EE080A10F0AE
:1051C00091FA80B20AF04BFFAB6C03EB840393EDD2
:1051D0000E0A20EE080A10F085FA013480B20AF0B7
:1051E0003EFF032CD5D1072CAB6C16D193ED110AE1
:1051F00020EE080A10F076FA80B20AF030FFAB6CAD
:1052000093ED120A20EE080A10F06CFA80B20AF050
:1052100026FFAB6C93F84C000BE0234458780AF05F
:105220001EFFAB6C2344D87A0AF019FFAB6C234401
:10523000587D01340AF013FF0A2CD4D1ADE214F8E2
:10524000010F002800F0A9820AF0D3FEF7E7012041
:105250000AF002FF3A4B9B6C1878DFE150200AF00D
:10526000FBFE0025364B9C6C384B04EB85040C216F
:1052700094F8812001FB0233013593F838000AF0DD
:10528000B8FE94F882000AF0B4FE94F883000AF0A5
:10529000B0FE94F884000AF0ACFE142DE2D17CE25A
:1052A000274B9C6C062303FB0544013594F8D6007C
:1052B0000AF09FFE94F8D1000AF09BFE94F8D20009
:1052C0000AF097FE94F8D3000AF093FE94F8D40005
:1052D0000AF08FFE94F8D5000AF08BFE0C2DDFD17A
:1052E0005BE24FF0000801260027154B1A7C97421D
:1052F00030DA11330024FA5C144D0C2305F130012F
:105300006343595C914207D12B44586B10F01FF84E
:1053100082462EB9B14605E001341C2CECD117E0D1
:10532000804415E0D14513DA0C2303FB04535B6B77
:1053300013F809000AF05DFE09F10109F2E700BF68
:10534000A01300200000C84200007A441464010841
:105350000137CAE7002E00F020825FFA88F00AF0D9
:105360007BFE0026C0E7CF4D287C0AF075FE0024A6
:105370002B7C9C4280F01182CB4BE65C0021CB4819
:105380000C2200F1300702FB01F3DA5DB24205D1D5
:10539000034493F838000AF02CFE02E001311C2986
:1053A000EDD10134E4E7C24C16200AF055FEB4F802
:1053B00096010AF054FEB4F840010AF050FEB4F829
:1053C00042010AF04CFEB4F844010AF048FEB4F879
:1053D000D8010AF044FE94F8ED010AF00AFE00201C
:1053E0000AF007FE94F8EE010AF003FE94F8850136
:1053F0000AF0FFFD94F892010AF0FBFD00200AF08C
:10540000F8FDA84B9B6C0A20B3F95E3093FBF0F0DB
:1054100080B20AF024FE8BE0E0B201340AF0E9FD2C
:10542000092CF9D1B9E19F4C10200AF015FE94F82F
:10543000800000F002000AF0DCFD94F881000AF020
:10544000D8FDD4F884000AF013FED4F888000AF0DE
:105450000FFEB4F88C000AF002FEB4F88E000AF0D9
:10546000FEFDB4F89000EAE00AF0A6FD074612201F
:105470000AF0F2FD8B4C27B9D4F89860D4F89C5010
:1054800007E0102F13BF0025D4F8A060D4F8A45073
:105490002E4638460AF0ADFD30460AF0E9FD2846B2
:1054A0000AF0E6FDD4F8A8000AF0E2FD00200AF0B8
:1054B000D6FD00200AF0D3FD0020AFE0794D95F82D
:1054C000AC0080000130C0B20AF0C6FD95F8AC0017
:1054D0000AF08FFD00242E4696F8AC309C4280F0F6
:1054E0005C81744D285D0AF084FD05F11003185DA0
:1054F0000AF07FFD05F120033035185D0AF079FDD3
:10550000285D0AF076FD0134E6E708200AF0A4FDE4
:105510000024694B33F8140001340AF0A0FD042C78
:10552000F7D13AE104200AF097FD614B986832E127
:1055300094F87A010AF05DFD94F87E010AF059FDB5
:1055400094F87D010AF055FD94F87F0166E0584C0F
:1055500007200AF081FDB4F880010AF080FDB4F85C
:1055600082010AF07CFD94F884010AF042FDB4F84F
:10557000860164E04E4C0C200AF06EFD94F8900118
:105580000AF037FDB4F89A010AF069FDB4F8960103
:105590000AF065FDB4F898010AF061FD94F89101F4
:1055A0000AF027FDB4F89C010AF059FDB4F89E01F9
:1055B00045E03F4C04200AF04FFD94F8D6010AF074
:1055C00018FD94F8D7010AF014FDB4F8D80136E0BC
:1055D0003A4C3B4D207800EB4000C0B20AF03CFD55
:1055E000002623789E4205F1020580F0D68015F84A
:1055F000020C0AF0FEFC15F8010C00EB800000EB39
:10560000800000F2EE2080B20AF029FD0136E8E7C2
:1056100001200AF021FD264B93F892010AF0E9FCE3
:10562000BBE008200AF018FD0024214B234401347C
:1056300093F888010AF0DDFC082CF6D1ADE00AF001
:105640000EFDAAE0174B1A4C93F8F600C0EBC00011
:10565000C0B20AF001FD04F1200594F8F401002322
:10566000184AD25C904200F09C800C33302BF7D16A
:105670000834AC42F1D190E040200D4C0AF0ECFC33
:1056800004F14005B4F8A4020AF0E9FC94F8A6027B
:105690000AF0AFFC043494F8A3020AF0AAFCAC426E
:1056A000F0D17AE0A0130020B113002014640108A7
:1056B000683900204D1400208E1400206441002021
:1056C000083B002070410020E020444C0AF0C4FC5C
:1056D00004F18005B4F8260200F03F000AF0BFFC98
:1056E000B4F82602C0F386100AF0B9FC94F824023C
:1056F00000090AF07EFC94F8240200F00F000AF082
:1057000078FC043494F821020AF073FCAC42E1D135
:1057100043E0334C0D200AF09FFC0BF00BFB0AF02A
:1057200068FCA0880AF0A4FC20690AF0A1FC04F03F
:1057300027F830E00AF054FC054684200AF08CFC7F
:1057400028460AF095FC264B1C6905F18003A3420C
:105750008CBF641B802404F0CFF82846224669469B
:105760000BF04AFB00240546AC4216DA1DF8040093
:105770000AF03FFC0134F7E713200AF06DFC002427
:10578000184B185D01340AF034FC0B2CF8D10020C2
:105790000AF06EFC00200AF06BFC012018E00020EB
:1057A00016E00AF026FCB4F8F6010AF058FC94F86A
:1057B000F8010AF01EFC94F8F9010AF01AFC94F8BA
:1057C000FB010AF016FC94F8FA010AF012FC4FE70C
:1057D00020B0BDEC028BBDE8F08700BF6839002027
:1057E00008040020B380010808B5D0F8E035DB6973
:1057F00003B19847002008BD08B5042380F8123192
:10580000D0F8E435DB689847002008BD10B5D0F823
:10581000E43504461B699847032384F812310020BD
:1058200010BDF8B5044600254027012680F87053C6
:1058300080F87153C0F8787380F8735300F55C7189
:1058400007F066FF04F58C7184F8185184F819612B
:10585000C4F8207184F81B51A4F81E51204607F0AB
:1058600057FFD4F8E43584F81261A0785B68984754
:105870002846F8BD38B504460D46C4F83821C4F8AA
:1058800034211346022280F8112100212A4607F014
:1058900097FF002038BD82B0002301930C4A0368B3
:1058A00019690191013A10D001990029F8DA019A99
:1058B00042F001020192019A1A61054A19690191A7
:1058C000013A02D00199C907F8D4002002B070470C
:1058D000410D030082B000230093C0238DF80330F4
:1058E00001224FF0000362F3C4038DF80230182345
:1058F0008DF80030436D009A1A61C278012A01BF09
:1059000000F5B96058611A684FF0802208BF1A602C
:1059100002B0704770B50446002948D190F81131A3
:10592000022B4DD1D0F83431D0F82051AB4213D9ED
:10593000C278012A08BFD0F82421A3EB050304BFD5
:10594000AD18C0F82451C0F834310021D0F824211A
:105950009BB207F035FF33E0D0F83831B3FBF5F6F2
:1059600005FB163666B9AB420AD3D0F83C21934208
:1059700006D23246334607F023FFC4F83C611FE0ED
:10598000D4F8E035DB682BB194F81221032A01D159
:10599000204698470021052384F8113120460A4605
:1059A0000B4607F02CFF2046FFF794FF08E0D0F8E5
:1059B000E0355B6923B190F81221032A00D19847A2
:1059C000002070BD10B50021042304460A4680F86B
:1059D00011310B4607F0F4FE2046FFF77BFF002055
:1059E00010BD10B5044669BB90F81131032B32D1BC
:1059F000D0F88C33D0F87823934216D9C178012996
:105A000008BFD0F87C13A3EB020304BF8918C0F8C9
:105A10007C139342C0F88C3328BF13460021D0F882
:105A20007C239BB207F0EBFE15E0D0F8E0351B6954
:105A300023B190F81221032A00D198472046FFF79E
:105A4000C1FF08E0D0F8E0359B6923B190F812213E
:105A5000032A00D19847002010BDF0B590F8CB255F
:105A600090F8CA3590F8CD5590F8CF7590F8C815D4
:105A700090F8C96503EB022390F8CC2502EB0525CD
:105A800090F8CE2502EB0722012785B080F811712E
:105A900001F01F0792B29BB2ADB2012F04468DF800
:105AA00008108DF80960ADF80A30ADF80C50ADF86B
:105AB0000E20C0F83C2100F0138103D3022F00F028
:105AC000228190E1092E00F21281DFE816F0C90070
:105AD000FD001001D90010016F000A001001BC0088
