:020000040800F2
:10000000C00700208901000813B70008B9430108A0
:1000100001020008010200080102000800000000BF
:1000200000000000000000000000000011B7000800
:100030000FB70008000000000DB7000863DA0008E1
:100040000102000801020008010200080102000884
:100050000102000801020008010200080102000874
:100060000102000801020008010200080102000864
:10007000010200081DFA0008453E010801020008BF
:100080000102000801020008010200080102000844
:100090000102000801020008010200080102000834
:1000A000E99E0008199F000801020008299F000826
:1000B000099F000801020008F99E000857CC0008BB
:1000C0005BCC000851CC000855CC000801020008A8
:1000D00001020008F93F010801020008F13F010890
:1000E00071DA00080102000815B7000801020008D3
:1000F00001020008010200080102000801020008D4
:1001000001020008010200080102000801020008C3
:1001100001020008010200080102000801020008B3
:1001200001020008010200080102000801020008A3
:100130000102000801020008010200080102000893
:100140000102000801020008010200083DB2000897
:1001500001020008C13D0108C93E010841A1000893
:100160000102000801020008010200080102000863
:100170000102000801020008010200080102000853
:1001800001020008010200081448154902680060D5
:100190008A421DD0002103E0124B5B5843500431CA
:1001A0001148124B42189A42F6D3114A02E000233A
:1001B00042F8043B0F4B9A42F9D30F48016841F4CF
:1001C0007001016010F046FB00F01CF87047FEE77C
:1001D0000A48D0F800D0406800470000FCFF01202A
:1001E000EFBEADDE88A5010800000020C00300209E
:1001F000C0070020F048002088ED00E00000FF1F4D
:10020000FEE700002DE98048C64DC74B2B60A3B028
:1002100000236B600FF0CFFF18B90FF0EFFF0BF06A
:100220006FFEDFF88093C14FC14EDFF87CA30BF067
:1002300021FF99F8003043F0010389F8003010F0F5
:10024000AFFABC4BFB60736FAB60BB4BBB60736BB7
:10025000BA4823F080037363736F43F0807373674E
:10026000326BB74B13433363736B7363B36BB3631B
:10027000326CB44B13433364726CB34B134322ACF4
:10028000736401238DF8533048F2FF7344F83C3D0A
:100290004FF0000B21464FF6FF788DF850B08DF8E7
:1002A00051B08DF852B00AF089FCA848CDF84C80C6
:1002B00021460AF083FCA648CDF84C8021460AF07E
:1002C0007DFCDFF8E8C2CDF808C0604621460AF0A0
:1002D00075FCA048DFF8D88221460AF06FFC9E48E2
:1002E00021460AF06BFC9D4821460AF067FC9C48B9
:1002F00021460AF063FC21469A480AF05FFC20463A
:100300000AF094FC984B9948A8221A60594610228A
:1003100015F01FFA964B974A5A60F02287F823206F
:100320000722C3F808B0944F1A60D8F80830CAF80A
:10033000003097E80F0084E80F00336BDDF808C049
:10034000139843F008033363336B43F008033363BC
:100350004FF48043ACF818304FF40043ACF8183039
:1003600014A90FF05DFC16A915980FF059FC642034
:100370000DF06DFBA0228148594615F0EAF9336C67
:100380007F4A43F013033364736C43F001137364C7
:1003900002F1C000CDF81090CDF80880937BD17B9E
:1003A00003F00706B60001FA06FE5168DB0801EB10
:1003B00083034FF00F0C196A0CFA06F621EA0601C6
:1003C0001962196A10324EEA010182421962E5D1BE
:1003D0000023DFF8508108F10C0200219954013309
:1003E0000C2BF6D1FF2388F8183088F8193088F8DC
:1003F0001A3088F81B30634B634EDFF8B8911E60EB
:10040000624B04221A704846302215F0A2F91423D8
:1004100089F80030022389F81830052389F8243040
:10042000029B93F805905A4B83F80090A6F5F17360
:10043000C8F81C30574BA6F591761E60564BDAF87B
:10044000006003EBC9035B78C8F82030B30644BFF3
:100450000123C8F820300023504A40F2DC5122F832
:1004600013100133082BF7D10BA80021202215F01F
:1004700070F9B9F10E0F03D009F0EF03082B02D188
:1004800001238DF8403005200DF09CF918B140880B
:10049000003018BF0120C6F340038DF83330C6F397
:1004A00080138DF83730C6F340338DF82C30C6F307
:1004B000C03300F001008DF82F3016F400638DF882
:1004C000320005D0029B93F88231581E43424341CB
:1004D0008DF83030C6F300438DF838302B6A304841
:1004E000003318BF01238DF83930C6F300538DF85F
:1004F0003A30029BB3F84631ADF83E30029BB3F878
:100500005231ADF83C30C6F380438DF83430C6F339
:1005100040538DF83530029B93F85431003318BFA7
:10052000012349E0C0070020C7B8000800ED00E043
:10053000003802400005FA050000000800000240F3
:10054000FF916700FFC9FE36335F070000040240D9
:10055000000802400010024000140240001802404F
:10056000001C024000200240182D00201C2D0020FD
:1005700010E000E03F9002008C6401081C30002075
:10058000386501087C4400205E3E0020FE160020F5
:10059000C00E002038310020047D01083E160020E6
:1005A0009C15002044480020B0440020000C02406C
:1005B0006C3C0020804400208DF83630029BB3F85C
:1005C0005031ADF84230029B002193F8D43185F8C8
:1005D000243006F00109C6F3C00864228DF82D907E
:1005E0008DF82E80ADF8441015F0B3F89DF840302A
:1005F000002B0CBF00230223B9F1000F02D1B8F188
:10060000000F00D0013307EB83074FF000093B696F
:100610009A1E163303920593039A32F8023F03920F
:100620004FF6FF72934200F0BE81DAB2190A9DF8CC
:10063000383033B11301B348C058B34B984200F07F
:10064000AD819DF8333053B1AE4BB04E03EB021386
:100650005868B04203D11B89012B00F09F819DF89F
:100660002F3053B1A74BAA4E03EB02135868B04288
:1006700003D11B89022B00F091819DF8303053B1DA
:10068000A04BA44E03EB02135868B04203D11B8960
:10069000202B00F08381022902D19DF82C3003E049
:1006A000012904D19DF82D30002B00F07781954869
:1006B0009DF83A301701C61933B19DF840301BB987
:1006C000043A032A40F248810129CBB254D19DF863
:1006D00035303BB99DF8343023B9BDF84230B3F51D
:1006E000FA7F06D9C2598C4B9A4202BF8B4B0C221F
:1006F0001A70DFF810B2EE67FF2385F86C3085F8CA
:100700006D300BEB07034FF000085A7B586885F8F3
:10071000708003F1080A1B89ADF84C3013A902233D
:100720008DF84F308DF84E2085F82880C5F82C8044
:10073000C5F83080C5F83480C5F8688085F86E80CB
:1007400085F86F800FF06CFA9AF802105BF80700DA
:10075000424607F0E3FD304611F078FF704B7149D7
:10076000C5F88030704BC5F88430C5F888803046B5
:100770000A1D09F071FC11E1022B45D15FFA89F2E3
:100780004FF01C0C0CFB02FC05EB0C085D4A88F8D2
:100790007190012188F87010D1194FF0000A91F87A
:1007A0000DE0486888F872A001F1080B0989ADF8DE
:1007B0004C1088F87AA013A9C8F87C60CDF81CC04A
:1007C0008DF84EE08DF84F3006920FF029FA069A18
:1007D0009BF80210D059524607F0A0FD304611F0A8
:1007E00035FFDDF81CC04F49504AC8F880206144ED
:1007F0004F4AC8F88420C8F888A030460A1D09F07E
:100800002BFC09F10109C9E0032B40F0A3809DF8FE
:100810003430484F2BB39DF8363097F8018083B1C0
:10082000BDF84220444BB3FBF2F23046BDF84430F1
:100830000C2192B20FF01FFA404B43F82800404BB6
:1008400009E030460C214FF6FF720FF014FA3B4BD3
:1008500043F828003B4BC360BB7807EBC307192361
:1008600042E09DF835208AB130460C214FF6FF72E8
:1008700097F801800FF0FFF9304B43F82800324B16
:10088000C360BB7807EBC30729232DE0BDF84220E6
:1008900097F80180B2F5FA7F13D9274BB3FBF2F238
:1008A0003046BDF844300C2192B20FF0E4F9234BEE
:1008B00043F82800254BC360BB7807EBC3070D2323
:1008C00012E0234BB3FBF2F23046BDF84430012175
:1008D00092B20FF0D0F9194B43F82800184BC360BF
:1008E000BB7807EBC30709237B71124B9A785978C1
:1008F00003EBC200013201710131866059709A70B8
:100900004CE000BF38650108000C004000080240C0
:1009100000040240000002400000014000000020EE
:10092000297C000840080020217D0008358400084B
:10093000017C00089C150020001BB700E82F002058
:100940009D7D00086D7D0008317D0008DDF90008FF
:1009500040420F00042B21D1614FBDF83C20BB78F1
:1009600097F8008007EBC303012183F80480304629
:100970005C4B93FBF2F2BDF83E3092B20FF07BF984
:10098000BB7807EBC3020A2151713A7805EB88085E
:1009900001320133C8F850013A70BB70039B059ACD
:1009A00093427FF439AE4E4A4F4B127885F870214E
:1009B0004E4A1778A7F117020026022A1E709E469B
:1009C0001AD8EB693344D3ED007AF5EE407AF1EEB4
:1009D00010FA02D12B6A63BB26E0454A06EB020CF3
:1009E0000FCB8CE80F009EF8003010360133C02E7C
:1009F0008EF80030E5D1EDE73E4B13F837808EF8E6
:100A0000008003EBC703D3F80490B9F1000FE1D0E5
:100A10004645DFDA364A330103EB020C4B440FCB79
:100A200001368CE80F00F3E7334E3368D90426D43F
:100A30001FE0324B324A13F83700107003EBC70344
:100A40005E68002EF0D000238342EDDAC3EBC301D1
:100A50007218DFF8B880D2F8009041F8089001EBE6
:100A6000080C9188ACF8041092798CF806200133B8
:100A7000EAE707F0EF03082B224B20D121E09EF894
:100A80000020012AF5D9204B03EB0212103210335B
:100A90009342EED053ED047AB6EE007A67EE877A91
:100AA00043ED047A53ED057A67EE877A43ED057AD4
:100AB00053ED037A67EE877A43ED037AE7E70E2F6B
:100AC00008D11A7842F010021A70182F20D111F0B4
:100AD0004DF81DE01A7822F010021A70192FF5E770
:100AE0009C15002040420F0018300020C00E00204E
:100AF000FC0D0020047D0108B0440020FC700108BA
:100B0000C430002088160020040E0020C5300020CC
:100B100011F010F83368DFF8B093DFF8A883DFF83E
:100B2000A0A3DFF8B4B313F4101F02BFDB4B012204
:100B30001A70049B049A1B7843F00403137011226B
:100B40008DF84E20D9F830204FF00103022642F0F4
:100B50000102ADF84C308DF84F604046C9F83020A6
:100B600021460FF05DF8CE4ACE49116000200CF00E
:100B700097FFCD4A92E80300D9F8302084E80300BB
:100B800042F00402C9F83020139814A90FF048F875
:100B9000D9F8442042F48052C9F84420D9F82420DE
:100BA00042F480520327C9F824204046A02221465F
:100BB0008DF84E60ADF84C208DF84F700FF030F886
:100BC000402240462146ADF84C208DF84E600FF093
:100BD00027F810224FF0010340462146ADF84C2083
:100BE00005928DF84E308DF84F700FF019F8D8F847
:100BF000201021F47001C8F82010D8F8201041F41A
:100C0000A001C8F82010D8F8201021F07061C8F8B1
:100C10002010D8F8201041F0A061C8F82010D8F8B2
:100C2000201021F07041C8F82010D8F8201041F0B1
:100C3000A041C8F82010D9F8241041F48051C9F817
:100C40002410D9F8241021F48051C9F824109749B0
:100C5000088800F4415040F4457038430880888B80
:100C600020F400600004000C4FF007088883A1F80E
:100C70001080088880B240F040000880D9F8401009
:100C800041F48041C9F84010D9F8201041F4804166
:100C9000C9F820104FF400515046ADF84C102146D1
:100CA0008DF84E608DF84F700EF0BAFF4FF4004192
:100CB0005046ADF84C1021468DF84E608DF84F70BF
:100CC0000EF0AEFF4FF480415046ADF84C10214677
:100CD0008DF84E608DF84F700EF0A2FF4FF48061DA
:100CE0004FF00103ADF84C10584621468DF84F7077
:100CF0008DF84E300EF094FFDAF824106C486D4BEE
:100D00006D4E059A21F47001CAF82410DAF8241007
:100D100041F4A001CAF82410DAF8241021F070611F
:100D2000CAF82410DAF8241041F0A061CAF824109F
:100D3000DAF8241021F07041CAF82410DAF82410EF
:100D400041F0A041CAF82410DBF8241021F47061AE
:100D5000CBF82410DBF8241041F4A061CBF8241068
:100D6000D9F8201041F48041C9F82010D9F820109A
:100D700021F48041C9F8201001881C6801F4415118
:100D800041F4457139430180818B21F400610904EC
:100D9000090C8183A0F81080018889B241F04001DC
:100DA00001804FF48051AAF81810304604930021B6
:100DB00004F40063039314F0CCFC049B8DF82870BA
:100DC0004FF0000904F4004A4FF6FF7214F00204D9
:100DD00009928DF829908DF82A908DF82B901F4656
:100DE0000FD022A9012341F8643D344809F0E6FE02
:100DF0004FF00103337086F80190B37086F80380DA
:100E00000124BAF1000F0FD022A9022341F8643D5A
:100E10002B4809F0D3FE0C2301223371B271631CFD
:100E200007227471F271DCB2039B7BB122A92023EB
:100E300041F8643D234809F0C1FE022301223373C7
:100E4000B273631C07227473F273DCB21E4B1F482B
:100E50001A6BDFF8789042F480021A631A6B42F042
:100E600004021A635A6C42F480725A6409F0EAFD73
:100E700013A809F0ABFD164B14934FF00008154B67
:100E80001593012C8CBF4FF48063434619934FF4A4
:100E900000631A934FF4005320E000BF2813002092
:100EA0003C2D002069D20008AC64010800300140EC
:100EB00000380040B044002010220020000802400A
:100EC000000402400000024000380240706402400A
:100ED0004C20014020220020001002401B934FF4C0
:100EE00080731C9313A94FF4003348461D93CDF82B
:100EF0004C80CDF858801794CDF8608009F077FDCC
:100F0000D9F80030B74A43F00103C9F800305168FE
:100F1000B54B0B4043F440335360A2F54072012CB3
:100F2000536823F0407394BF0021012123F48073A0
:100F300043EA012353609168AC4B0B4043F002033A
:100F40009360D36A23F47001631EDBB241EA03535A
:100F5000D362012306EB08018878002859D016F8DF
:100F60000840C978581C092CC0B211D9A4F10A0E46
:100F7000D2F80C900EEB4E0E4FF0070C0CFA0EFC54
:100F800029EA0C0C01FA0EF14CEA0101D1600EE0E5
:100F9000D2F810C004EB44094FF0070E0EFA09FE18
:100FA0002CEA0E0E01FA09F14EEA01011161062B3D
:100FB0000ED8013B516B03EB83034FF01F0E0EFA6B
:100FC00003FE21EA0E0104FA03F30B4353631FE00F
:100FD0000C2B0ED8073B116B03EB83034FF01F0E56
:100FE0000EFA03FE21EA0E0104FA03F30B43136326
:100FF0000EE0A3F10D01D2F82CC001EB81011F23FB
:101000008B402CEA030E04FA01F34EEA0303D36289
:10101000034608F10408B8F1100F9BD19368744C93
:1010200043F400739360936843F480739360936810
:1010300043F001039360936843F080439360B4F8F6
:101040005831002B40F08587B4F95A21002A40F02E
:101050008087B4F95C21002A40F07B87DFF8E481C7
:1010600094F85F310293D8F800306248B3F8629088
:10107000614E94F861A100210C2214F06AFB00215A
:1010800014225E4814F065FB002185F871111422CA
:1010900086F8721106F5BA7014F05BFB584AC5F871
:1010A000882123200CF0D3FC95F88C21002A31D123
:1010B000544955484A6C42F010024A6403214FF0EB
:1010C000010C4FF480628DF84F1013A98DF84EC0BB
:1010D000CDF810C0ADF84C2003920EF0A1FD4B49A5
:1010E000039AABF818200A88DDF810C022F04002FD
:1010F0001204120C0A800A8822F038021204120C20
:1011000042F030020A800A8892B242F040020A801D
:1011100086F88CC17520012113AA0BF061FB9DF8A4
:101120004C30703B012B11D8052385F871314323D6
:1011300085F87431364BC5F87831364BC5F88031B7
:10114000354BC5F88431354BC5F87C31344B95F8B7
:101150007111294D00221A700A1F012A9B461BD8C3
:10116000264B304A1A60304A5A60304ADA60304AB8
:101170001A610422DFF8D0E08BF800202D4A072006
:101180001070DEF8000040F00100CEF80000944638
:1011900002980293764603E001200CF0F1FCC3E0D4
:1011A0000A28024628BF00220120904040F2022374
:1011B0000340002B4CD140F2FD130340002B47D0DD
:1011C000042943D10B4A1C4911601C4951601C4A37
:1011D0000421117008228CF80120326842F00202CA
:1011E00032603BE000230140E030FCFFFDF7FFC030
:1011F0006C3C0020A0310020C0070020CC4500201E
:10120000B464010800380240001002400038004079
:10121000E1C70008A5C7000839C8000809C80008C8
:10122000160D0020B5C900081DC4000801C400083F
:1012300090C1793D4403002041CA00088DC40008D4
:10124000A548002050160020041600200529B9D01A
:10125000012A4FF00000A3D8234A10703268920789
:1012600002D5224A12689047214A029BFA21116056
:10127000002285F88D2102211B680392504685F8D3
:101280008E1198471B4B039A1A7094F855210AB196
:101290008BF8002094F856210AB113490A7094F88B
:1012A000572102B11A703368134913F0080F27D081
:1012B0000FFA89F9642299FBF2F302FB139212B23E
:1012C00007EE902AB8EEE77A07EE903ADFED0B6A68
:1012D000F8EEE77AE7EE267AB2EE047A67EE877ADE
:1012E000C1ED007A0EE000BFA5480020A03100202B
:1012F00080160020CC0C00209C0D00208988883CA2
:1013000000230B60CF4A138823F040031B041B0CFF
:101310001380138823F038031B041B0C13801388DD
:101320009BB243F040031380C74E337843F002036F
:101330003370C64B4FF400425A834FF480421A83F5
:101340004FF00A0ADFF80493D9F8143083F400430D
:10135000C9F81430D9F8143083F48043C9F8143034
:1013600019200CF074FB01200CF09AFB19200CF0F2
:101370006EFB0AF1FF3A00200CF092FB1AF0FF0A14
:10138000E0D14FF48043A9F818304FF40043A9F896
:101390001830AF4B9FEDAF8A1B681B7B00EE103AF5
:1013A000B8EEC00A4FF01C0920EE080A0AF040FD12
:1013B000A94B9FEDAA7A83ED000AA94BD3ED047ADD
:1013C000A84B67EE887AC3ED007AA74B1B8807EE1F
:1013D000903AF8EEE77AC7EE277A9FEDA47AC7EE47
:1013E000877AC5ED647A10F003FCA14BFF21184603
:1013F000212214F0AEF980F800A003469D489E49D2
:10140000D0F800E002901EF0020F4FF0010218BF6A
:101410005A70184618BF03230A701EBF0B700223B0
:1014200083700B781EF0040F4FF01B0C00F803C004
:1014300003F101021CBFDFF840C20233D2B20A70CE
:101440001FBF8CF800308A4B4FF0030C03F802C02A
:101450000B78DFF81CC21B22C2545A1CD2B21EF0F9
:101460000A0F00F8029003F10202D2B24FF01D09F8
:1014700000F8029003F10302D2B24FF01E0900F807
:10148000029003F10502D2B20A7003F10401C9B25D
:101490004FF01F0900F8019010D004210CF8021041
:1014A0009A1DD2B205210CF8021003F10801724A0C
:1014B0000733DBB2117006220CF8032039686E4A3C
:1014C00011F0200F1FBF137803F1010E82F800E026
:1014D0004FF0070E18BF00F803E00B060ED5137887
:1014E0004FF0090E00F803E003F1020E0133DBB206
:1014F00082F800E04FF00A0E00F803E094F805C00F
:10150000BCF1080F02D0BCF10E0F08D1137803F123
:10151000010E82F800E04FF00B0E00F803E01378A4
:1015200011F4803F4FF00C0900F8039003F1010E15
:101530001CBFDFF8449102335FFA8EFE82F800E0B0
:101540001FBF89F800304A4B4FF00E0903F80E9088
:101550004B0741BF137803F1010E82F800E04FF012
:10156000100E48BF00F803E0434B93F800E00EF183
:1015700001095FFA89F94FF0120A11F4806F83F8BC
:10158000009000F80EA00ED094F814A2BAF1000F4B
:1015900009D00EF1020E83F800E0DFF8D4E04FF03E
:1015A000130A0EF809A011F4007F1FBF93F800E0A2
:1015B0000EF1010983F800904FF0150918BF00F8EB
:1015C0000E90BCF1180F17D193F800E04FF01609F8
:1015D00000F80E900EF101095FFA89F94FF0170A31
:1015E00000F809A00EF103090EF1020E5FFA8EFE5B
:1015F00083F8009000F80EC011F4002F1FBF93F87D
:1016000000E00EF1010C83F800C04FF0190C18BF78
:1016100000F80EC0C90541BF197801F1010E83F829
:1016200000E01A2348BF43541378591C1170142248
:10163000C25400219822114814F08BF811F0FFF8E1
:101640001EE000BF0038004044480020000C02406B
:10165000700D002035FA8E3CA00D00200AE81C41D8
:10166000CC4500208C0D00200C00002000401C46C2
:10167000111600200416002010160020D43B002074
:10168000B24BB349B3481960B34BB4F84E21016073
:10169000B2491A800023B24AD8F800E00B70B4F8BF
:1016A0009411138093701FFA81FC0EF18502DFF80C
:1016B0002493AC48D9F800A0DFF81CB320F813C07D
:1016C0000AF5967A4BF823A00133122BEFD13F682D
:1016D000FB0458BFB4F89CC1A0F806C00EF1D50EAB
:1016E0001378F3B992F802C0D3789C4519D2BCF1B3
:1016F000000F08D00CF1FF3C0CEB8C0C0CEB8C0CAD
:101700000CF5617306E0013303EB830303EB830302
:1017100003F5617392F801C00CF1040C9BB220F840
:101720001C3004327245DBD13B0740F1BB8094F89A
:101730008E31062B00F2B080DFE803F004070E358F
:10174000506F6F0045F2F05201E042F6F822864BEE
:101750001A8011F012F99EE0834B42F6F8221A80AB
:1017600009010A2391FBF3F10023A1F5B0617F4A3F
:1017700042F823100133122BF9D17D4A7D491160C3
:101780007D4A402013700CF057F8002800F0848048
:1017900001234FF0070A90F90000784A8DE8080409
:1017A0004021774B72E0704B42F6F8221A80704B62
:1017B000744A1A60704B102240201A700CF03CF8EA
:1017C000002869D001234FF0000C90F900006E4A08
:1017D0008DE8081040214FF4E13357E0624B42F6A8
:1017E000F8221A80624B694A1A60634B0822402033
:1017F0001A700CF021F800284ED001234FF0000E93
:1018000090F90000624A8DE8084040214FF4E1332E
:101810000BF034FDC5F894013AE0534ADFF8BCE11F
:101820005C4F5D4C5D4842F6F821118052490C2214
:10183000062B0A700ED0002323708EF800303B7008
:101840001B230370564B1A70564B05221A704FF427
:10185000E1340BE0002121708EF800103970212155
:1018600001704F49504C0A704E4A1370404B4F4A1A
:101870001A6040200BF0E0FF70B1012300274C4AB2
:1018800090F9000040218DE8880023460BF0F6FC1B
:10189000003018BF012028B908200AF0F1FA344BB3
:1018A000444A1A60444C344A236813F4804F1FBFE3
:1018B000122111702E49414818BF086042F20101FF
:1018C000194003F0010003F4005781B1264944F6A2
:1018D000206EA1F800E027B1082111702449384F8B
:1018E0000F6020B10C211170214936480860117831
:1018F00004395170190640F1AC804FF0000B324FA3
:10190000DFF8DCA03148C5F898A15946152287F8C0
:1019100001B0C7F804B0C7F808B013F01AFF2C4A9A
:101920000392AAF105035846136008F04DF8D9F860
:101930000030FB6002200BF07FFF039A96460028E0
:1019400050D180200AF09CFA7BE000BF48140020B0
:10195000F23D0020A84800204C14002082130020F3
:10196000B4480020B4440020DE0D0020C420002034
:101970004C03002089A4000874440020FDA6000840
:10198000A086010075A4000851A600085DA4000807
:1019900005A60008512100205021002052210020DE
:1019A000512000205321002090D0030085A300087F
:1019B000DDA4000831480108B0440020BDA400089F
:1019C00025480108CDA40008484800205C090020F3
:1019D00068480020CC350020CC1300205220002085
:1019E0005E3E002090F805C07B78C8490C2202FBBF
:1019F00003125278624504D00133DBB2042BF4D9D0
:101A000000237B70DEF800307A781B7890F90000B4
:101A1000002B4FF00C0303FB021314BF4FF0030E17
:101A20004FF0010E00225B78CDF800E00192022118
:101A30000BF024FCB64B1860002882D0012007F080
:101A4000C3FFD8F80000B34B00F5CB721A6008F062
:101A5000D3F8B14AB14B1360B14ADFF81C9380331D
:101A6000136023680027DA0389F8007040F1C8800A
:101A70004FF00108DFF804A3DFF804B30DF0D8FB42
:101A800089F8008040F22A3939464A46504613F018
:101A900060FEA44B1A6B42EA08021A631A6C42F009
:101AA00008021A641A6B42F400121A6302235846A1
:101AB0008DF8283009A903238DF82930CDF824802A
:101AC0008DF82B808DF82A7009F078F8DBF820303B
:101AD00023F00F03CBF82030DBF8203043F0020373
:101AE000CBF82030904B1A8822F001021204120C1D
:101AF0001A801A8822F45C721204120C1A8068226E
:101B0000DA621F85A3F814801A8C22F001021204F5
:101B1000120C1A841A8C9888198B22F0020221F078
:101B2000730109041204090C120C41F0600180B227
:101B300042EA0802988019835F631A841A8B22F0A4
:101B400008021204120C42F008021A831A880BF5DC
:101B5000C04B92B20BF1400B42EA08021A80DBF84C
:101B6000003023F00103CBF80030584608F06AFF3C
:101B700013A808F02BFF4FF0406313936B4B1493A3
:101B8000402316934FF4806319934FF480531A93B4
:101B90004FF480431B934FF4403313A91D935846D1
:101BA00004231E93CDF854A0CDF85C9018971C9791
:101BB0001F972097219708F01AFFDBF8003043F0B9
:101BC0001003CBF800305A4B4FF400129A6008A86B
:101BD0000D238DF820308DF821808DF822708DF83E
:101BE000238008F0C6FF3946524B1A68524B43F81F
:101BF000212001312029F7D10DF034FF0DF032FF03
:101C000023685B0555D54D4BD5F8DC84C3F80080BF
:101C100004200BF011FE0421C5F8E0040BF0E6FDF2
:101C2000474B85F8E4040820C3F800800BF004FE5D
:101C3000444B454F186008210BF0D8FD002185F872
:101C4000E5042C22384613F084FD8E237B704FF080
:101C50007C0AE0234FF07D09FB7087F800A087F82D
:101C60002B903A4F2C220021384613F072FD8A2324
:101C70007B701020A023FB7087F800A087F82B90C2
:101C8000C5F8E8840BF0D8FD1021C5F8EC040BF082
:101C9000ADFD85F8F0042020C5F8F4840BF0CCFDF0
:101CA0002021C5F8F8040BF0A1FD85F8FC040DF027
:101CB0004FF92068264B10F4002218BF01221A7039
:101CC000244B5A79052A194602BF234B4FF4C87298
:101CD0001A80224B4FF47A721A80214A137843F00B
:101CE000080313701F4A137823F00203137040F6A1
:101CF00002030340002B4AD01B4B1C4A1A601C4BAA
:101D000003221A701B4B01221A703BE004A2010847
:101D1000C41D0020A8140020001E0020903E0020BA
:101D2000FC1D002000380240000C0040340C004034
:101D300000600240CC640108062C00201817002027
:101D4000541700209C17002024170020581700204B
:101D5000291300206C3C0020601400203215002064
:101D600088160020061700200C220020E43D0020E9
:101D70009E31002048030020042C0020710900201F
:101D800000000240AB4A00231380AB4A1380AB4BE8
:101D9000AB488A68006822600121197033780338E3
:101DA00063F07F030A283370A64B38BF0A205864BB
:101DB000029883F84010006883F8A810C0F3400030
:101DC00083F8740040F602001040003083F8DC1005
:101DD00083F84411C2F3C01118BF012083F87811B1
:101DE000C2F38021C2F3004283F8100183F8AC11E2
:101DF00083F8E02102930BF003FEDFF84CB2914C24
:101E0000CBF8000004F5027523464FF0FF3AD9469F
:101E10001A7D062A0CD119699A690A44811A002987
:101E200004DA121A924528BF924601E04FF0000AE8
:101E30003433AB42ECD1DFF824820027D8F80035E8
:101E400003930A2639463D46237B5FFA87FC002B25
:101E500042D062680AB3637D53B1D9F80030E269B9
:101E600020699B1AB3FBF0F301339BB223841EE07D
:101E7000D9F80000A369CDF814C0C01A04919047A6
:101E80000499DDF814C030B16F4B1B68E361012386
:101E90002384237D0EE0208410E0A269D9F800306D
:101EA00020699B1AB3FBF0F39AB2228432B1227DEF
:101EB00013FB02F3013301356375ADB2039A637D01
:101EC000924505D8228C012A02D8227D062A03D108
:101ED0008B4284BF1946664601370A2F04F1340449
:101EE000B2D1D8F80435594A0133C8F80435D8F8C6
:101EF00008350A2E1D44C8F8085528D0029BDBF887
:101F000000101670342404FB0634A369A161CB1AB7
:101F10000021A36261750BF073FDA368054603B150
:101F200098470BF06DFD029A342303FB0626401BF5
:101F3000736AC3EB431303445B097362336B03445B
:101F40003363F36A98422CBFF062F36253E7167072
:101F500051E71BB208EE103A029BDFED3D7AB3F970
:101F60005A313C4A09EE103A029BB3F95C31B8EEA3
:101F7000C88A08EE903A28EE278AB8EEC99AF8EE99
:101F8000E88A0021B0EE480A29EE279A68EEA78A6F
:101F9000117009F04DFFF0EE40AAB0EE480A09F0CA
:101FA000E6FEF0EE409AB0EE490A09F041FFB0EECD
:101FB000408AB0EE490A09F0DAFEB0EE409AB0EE7F
:101FC000680A09F035FFB0EE40AAB0EE680A09F0E1
:101FD000CEFE60EE2A6A69EE8A7AF0EE665AE7EE85
:101FE000895A1D4B2AEE2A6A29EE807AC3ED035ADC
:101FF000F0EE465AE7EE495AE6EE897AA6EE497ABD
:102000002AEE08AA28EE400A69EEC89A28EE2A8A23
:1020100083ED00AA83ED010A83ED029AC3ED045A11
:10202000C3ED059A83ED067AC3ED077A83ED088A3E
:10203000FFF714B81C4500201E450020281300207F
:1020400080160020380100206C480020010000208C
:1020500035FA8E3C22000020E8210020C007002035
:102060002DE9F04FA24C2378092B9CBFA14A3421C3
:102070002DED108B98BF01FB03238FB094BF9E6A98
:1020800000269D4D07A8EB6898479DF81C3023B1AA
:102090002378092B0DD9002310E00BF0B1FC974BEE
:1020A0001B68F31A1844964B1B6864339842E8D3B4
:1020B000EEE7904A342101FB03239B6A914ADFED4E
:1020C00092AA924C924E9BB207EE903AB8EE670AF3
:1020D000138060EE2A0A8F4B20460121C3ED000ACF
:1020E00009F0F8FBFCEEC07A894817EE903A23819C
:1020F0006B68984748B9884B884F1A6812F0020FEE
:10210000984640F0CB8000F017BCD4F80CE0B51E28
:102110000020834900F1100301EB000C0B446246E0
:102120000EF1FF37002132F8028F22F8028C17F9E6
:10213000019F9A4218FB0911F5D135F8023FACF81E
:1021400010309EF908201230362813FB02134FF48A
:10215000807293FBF2F32B80DBD16D48714F94F8C2
:1021600046206A4D014608F0A5FD3B8805F1940A1A
:10217000002B6BD0AB6C1B7808EE103A05F14C08C5
:102180004FF0000958353988B1F57A7F02BF002336
:10219000C8F800302B61D8F8002036F919301A44FD
:1021A00007EE903A2B69C8F800200133012B4FEA63
:1021B000490BF8EEE77A2B6106D10023C5ED017AD1
:1021C000C5ED007AAB601BE0D5ED006A07EE103A72
:1021D00037EEE66AB8EEC77A86EE077A36EE877A89
:1021E000D5ED026A85ED017A77EEC77A85ED007A42
:1021F000E6EE276AF0EE667AC5ED036AC5ED026A7F
:102200000023012926F80B302AF80B302AD12B693C
:10221000012BC3BF03F1FF3300EE103AD5ED037A73
:102220009FED410AC4BFB8EEC00A87EE800A13F0E2
:1022300045FD18EE103A5BB1F8EEC87AB4EEE70A45
:10224000F1EE10FA04DD4FF47A733B8000231AE0BC
:10225000D8F800304FF47A7203F5FA7393FBF2F377
:102260002AF80B3009F10109B9F1030F08F104084C
:1022700005F1140587D13888012801D10BF02EFC17
:102280003B88013BE1E736F813203AF81310521A65
:1022900026F813200133032BF5D12CE7234B1B78B1
:1022A000002B00F049830BF0ABFBD4F89C30C4F852
:1022B0009C00C31A0FEE903A0025D4F8A0A0DFF8D6
:1022C00074909AF80010B9B337F91530184800EE39
:1022D000103AF8EE6F0AB8EEC00A00EBC50060EEE7
:1022E000AA0A09F0F7FAFDEEC07A17EE903A25E057
:1022F0000100002038010020CC4500206C4800205F
:102300008016002000160020BD378635D00C002036
:1023100038160020942F0020041600207448002056
:10232000E00C00203215002000000000A44800202E
:10233000740D00203216002037F8153029F81530BA
:102340000135032DB9D1D8F80030BD4A13F0080F7C
:1023500008D0B2F9001029B1B2F9021011B1B2F9E6
:10236000041091BBB749097801F0100000F0FF0597
:1023700080B313F020052DD001F0020303F0FF0518
:1023800043B3B14B1B78042B23D9B04B1B88B3F557
:10239000967F1ED3AE4BB3F9043007EE903AAD4BA7
:1023A0001B88B8EEE77A07EE903AF8EEE77AB2EEDD
:1023B000048A87EE888A01254FF0000B77EE487A71
:1023C0009FEDA58A27EE888A07E000254FF0010BD4
:1023D00001E00025AB469FEDA18AB6F90030B2F8C6
:1023E0000080978808EE903AB6F90230F8EE6F7ADE
:1023F00009EE903A67EEAAAAF8EEE99AD4ED2F7AA0
:10240000B6F90430568869EEA79AF8EEE88A09EE24
:10241000103A68EEA78A29EEA90AB9F90030B8EE99
:10242000C99AA8EEA80A0CEE103AB9F9023029EEC2
:10243000279A0CEE903AB9F90430A9EE090A0DEE8C
:10244000103A13F03BFCB8EECCCAF8EEECCAB8EE8A
:10245000CDDAB0EE40EA15B3DFED817AB4EEE78A6B
:10246000F1EE10FA04DDDFED7F7A38EE678AF3E7EC
:10247000DFED7D7AB4EEE78AF1EE10FA04D5DFEDF8
:10248000797A38EE278AF3E7B6EE000A28EE000ADA
:1024900009F06DFC9FED71BA30EE0BBA01E09FEDD3
:1024A0006FBA9FED6EAADFED71DA714DF7EE00BAEB
:1024B000BBF1000F53D00FFA88F807EE908A33B2C1
:1024C000B8EEE7FA08EE103A2FEE0F0AB8EEC88A17
:1024D0003FB207EE907AA8EE080AF8EEE7EAAEEE11
:1024E000AE0AB4EEED0AF1EE10FA38DD13F0E6FBB9
:1024F0008BEE800AD5ED017A95ED007A28EE008A00
:102500002FEE00FA68EE277A6EEE80EAE7EE0F7A99
:1025100095ED040A95ED027A28EE008AE7EE2E7A10
:1025200095ED037AA7EE0F8A95ED057AA7EE2E8A30
:1025300028EE080AA7EEA70A13F0C0FBD5ED067A2D
:1025400020EE480AB0EE4A8AA7EE808AD5ED077AD7
:10255000A7EE80AAD5ED087AA7EE80BA01E0B0EE2A
:102560004A8A2CEEAC0AACEE0C0AADEE0D0AB4EEC3
:10257000ED0AF1EE10FA21DD13F0A0FB8BEE800ADC
:10258000D5ED076A95ED087A2DEE00DA6CEE80CA7B
:1025900066EECD7A2CEE00CAECEE877A27EE4C7A06
:1025A00038EE278AD5ED067AADEE277A67EEEC7A1B
:1025B0003AEE07AAECEE267A3BEE27BADAED017A7C
:1025C000F5EEC07AF1EE10FA4FF000031FDD9FED3B
:1025D000297AB4EEC7EAF1EE10FA1ED567EE886AE2
:1025E00094ED307AA6EEAA7A67EE8A6A84ED307AA4
:1025F00094ED317AA6EEAA7A67EE8B7A84ED317A81
:1026000094ED327AA7EEAA7A84ED327A05E0C4F826
:10261000C030C4F8C430C4F8C830174EDAED027ABE
:10262000337859072CD4154B1A6844F61F639A4225
:10263000F7EE006AB2EE047A88BFB0EE667A21E067
:10264000001700208816002089160020961600200A
:102650006C1600209816002035FA8E3C0000000011
:10266000DB0F4940DB0FC940DB0F49C00AD7233CD1
:1026700048310020C2B8B23E06170020CC350020F9
:10268000B7EE007A27EE877AD4ED307ADFF8508300
:10269000C74AD8ED005ADFF84CB392ED005AC54F47
:1026A0000492E7EE087A97ED006A9FEDC38A78EE10
:1026B000A78AD4ED317AE7EE0A7A79EEA79AD4EDBB
:1026C000327AE7EE0B7AB1EE467A39EE279AF6EED9
:1026D000007A6AEEA77A69EEA79A29EE279A69EE40
:1026E000E56A25EE890A68EEA78ADBED007AA5EE99
:1026F000280AE7EEE86AA7EE290AE7EE096A29EE5A
:10270000677A37EE800AA5EE297A67EEA97A75EE28
:10271000266AA6EE287AE5EE097A8BED000A20EE0D
:10272000000A35EE877AA6EEA60AE5EEE87AA7EE6D
:10273000070A76EE277AC2ED006AA7EEA70A88EDAF
:10274000007AC7ED007A13F0B9FA8BEE800A049A8A
:10275000D2ED007AD7ED00BA67EE807AC2ED007A4A
:10276000DBED007A67EE807ACBED007AD8ED007A67
:1027700067EE807A2BEE800AC8ED007A87ED000ABA
:102780000FF036FAD5ED080A95ED070A8B4F13F0D6
:1027900093FA20EE080A13F0EBF995ED060A38805B
:1027A000B1EE400A13F02AFADFED857A37EEC00A5F
:1027B00020EE080A13F0DCF9D5ED000A95ED030AC6
:1027C000788013F079FAD4ED337AE0EE487AB0EEFF
:1027D000670A13F0CDF983B21A0458BFBB80D5ED58
:1027E000085A784BD4ED347A1A7895ED010A95EDB4
:1027F000065AF4EEE75A44BF00F56160B880F1EE86
:1028000010FACCBF42F0080222F008021A70B9F99F
:102810000030D5ED007A06EE103AB9F9023007EE35
:10282000103AB8EEC77AB8EEC66AB9F9043027EEA6
:10283000000A06EE903AA7EE860A9AF80130F8EE02
:10284000E66AD5ED027AA7EEA60A012BD5ED077A46
:1028500067EE277AE5EE067AE5EEA67AD5ED045A1C
:1028600027EE257AD5ED035AA5EE867A95ED056A11
:10287000A6EE267AF1EE478A18D133785D070FD499
:10288000D4F8D430402293FBF2F29B1A07EE103AB0
:10289000B8EEC77A37EE277ABDEEC77A84ED357A7F
:1028A000D4F8D430402293FBF2F301E0464B1B886E
:1028B00094ED368A07EE103AB8EEC77A77EEC77A0B
:1028C00094ED377A3AEE877A77EEC87ACAEE87AA1D
:1028D000AAEEA78A84ED368A13F04AF9D4F8E050BC
:1028E000297809F035FAD4F8E430B0EE680A1844D3
:1028F000C4F8E40013F03CF9297809F029FAD4F877
:10290000E830B0EE480A1844C4F8E80013F030F993
:10291000697809F01DFAD4F8EC302C4A18441FEEFF
:10292000901A1368C4F8EC001944D4F8F030116020
:102930000133C4F8F03003E000233B807B80BB8090
:10294000234BB3F90610234BD3F800E0BEF80A205E
:1029500091420FDBB1F5FA6F9EF80750BDBF8B1A9D
:102960006B43A2F5FA65C5F16405BCBF93FBF5F5B1
:10297000643500E06425184B184AB3F894C193F904
:102980005E31126804929BB2164605930022104BEA
:1029900033F91280CCEB080303F2F31440F2E63073
:1029A00084424FEA42091FD8002BB8BF5B421DE0AA
:1029B00030010020443100204C3D0F446C160020B3
:1029C000DB0FC93F881600200C00002054130020A4
:1029D000B4440020841600206C3C002050160020D7
:1029E000403100203C3100204FF4FA73022A049C4D
:1029F0004FF064002AD094F81D411CB1A342CCBF13
:102A00001B1B0023B64C93FBF0F76FF0630B34F8FD
:102A100017A00BFB073B013734F917400FFA8AF771
:102A2000E41BB04F04FB0BF494FBF0F4544427F880
:102A300009400EEB020424796343AB4C93FBF4F39F
:102A400064339BB26B4393FBF0F02CE094F81E418F
:102A50001CB1A342CCBF1B1B0023A44C93FBF0F082
:102A60006FF0630A0AFB003B04EB400704EB4000F5
:102A7000B7F9F470B0F9F600C01B00FB0BFBBDF812
:102A800014009BFBFAFBC7EB0B0717FB00F79548FD
:102A900087809EF80600002BB8BF5B4243439248F4
:102AA00093FBF0F064307478914B6427444394FBBB
:102AB000F7F49C5403F1030AF47A444394FBF7F4CB
:102AC0000AF802400633747D022A00FB04F0854CAC
:102AD00090FBF7F09854874B0DD1E0459F700DDBCC
:102AE000854EB6F89621914214DBB1F5FA6FA8BF76
:102AF0004FF4FA610FE0E0459D5404DA34F80930F0
:102B00005B4224F809300132032A06F101067FF402
:102B10003EAFE5E71146DFF818E2724D891A4FF42F
:102B20007A736FF063005943C2F5FA626423B1FB14
:102B3000F2F191FBF3F23EF8127000FB0211013248
:102B400038B23EF91220121A514391FBF3F33B4481
:102B5000E3806A4B1B8858063AD5694BDFED697AEA
:102B6000B3F904300A2293FBF2F3604AB2F80C2165
:102B70009B1A1BB208EE103AB8EEC88A28EE278AD4
:102B8000B0EE480A09F054F9F0EE408AB0EE480A77
:102B900009F0EDF8B5F9023006EE903AB5F90030DB
:102BA000F8EEE66A07EE903A20EE667AF8EEE77AFB
:102BB000A7EEA87A67EE807ABDEEC77AE6EEA87A2D
:102BC00017EE103AFDEEE77A2B8017EE903A6B8005
:102BD00096F89A31002B51D0444B1A89B3F80E0164
:102BE000B0FBF2F0484A451C1278ADB2A3F8105180
:102BF00012B3B3F8129100233C4F34F813C007F519
:102C00008E7E07F58A783EF8132038F813102EF8D8
:102C100013C0C2EB0C0A11FB09F12AB291FBF2F2CC
:102C2000524428F813200133042BE5D1364BA7F882
:102C3000120100221A7004E0B3F81221013AA3F83D
:102C400012212A4AB2F8120103B2002B4FF00003FE
:102C500012DDB2F910512D4931F81320083112FB61
:102C600000F231F8131092FBF5F28A1A24F81320BF
:102C70000133042BEFD101E0A2F81231244BDFF82D
:102C8000B4901A78234F12F0040F04D0224B4FF463
:102C900080425A835FE03968C9075CBF42F0010295
:102CA0001A701E4A127812075EBF1A7822F00102CB
:102CB0001A701B4A11881B4A19B1D9F800108D07E8
:102CC00006D41949098819B918480088642833D9E5
:102CD000022111701A7822F001021A7032E000BF4E
:102CE0000A2D0020802F00200CFEFFFFD00C0020BA
:102CF000D20D0020882F00206C3C002008160020F8
:102D00006C16002035FA8E3C30150020E40D0020B2
:102D1000061700200C160020000C02408816002028
:102D200060140020D8480020321500209C3100207B
:102D3000F22C0020041600201B78D80756BF02236F
:102D4000117013700AF05CFEAA4B1B68C01A0028B1
:102D500001DB11F0BBFDA84B9B680BB1A74898475E
:102D6000A74B1B78ABB1A74BB3F90620B6F8963149
:102D70009A420EDCA44B5B79012B01D0192B02D1B6
:102D800096F8E6212AB90E2B03D0082B1CBF00238E
:102D9000A3809E4B04931A6892F824519DB39C4BD8
:102DA0001B889A072FD09B4BDFED9B7A93ED080A87
:102DB000B4EEE70AF1EE10FA21D912F01FFF974B9B
:102DC000D3ED497A20EE270A12F0D2FEB0F5617FEA
:102DD000A8BF4FF4617007EE900AB8EEE70ADFED86
:102DE000907A80EE270A08F0C2FF07EE905AF8EEBC
:102DF000E77A27EE800A12F0BBFE80B200E00020E6
:102E0000E3881844E080D9F800309B0640F1A080A8
:102E10007F4B1B8803F03003002B00F09980814B1F
:102E20001B78DD0740F194807F4BDFED807AB3F9AA
:102E30000430DFF82C920A2293FBF2F308EE103AEA
:102E4000B8EEC88A28EE278AB0EE480A08F08FFF4D
:102E5000F0EE408AB0EE480A08F0EAFF744B754A7B
:102E60001B6893F80380B0EE409AB2EE048AB8F182
:102E7000000F49D0DFF8ECB1B2F90200BBF8025004
:102E800005922BB2C01A06F05BFEC8F1000398420F
:102E9000059A03DB4045A8BF404600E01846284499
:102EA000BBF8005005931FFA80FAB2F90000ABF8A6
:102EB00002A02AB2801A06F043FE059B984203DB6B
:102EC00040450346A8BF43461D44ADB2ABF8005091
:102ED0002DB207EE105A0FFA8AF307EE903AB8EEC9
:102EE000C70AF8EEE77A28EEC07A20EE090AA7EEC4
:102EF000897AA7EEA80A87EE087ABDEEC77A17EEA0
:102F0000103AA9F800301BE0B2F9023007EE103A8F
:102F1000B2F9003000EE103AB8EEC00AB8EEC77A47
:102F200068EEC07A20EE090AE7EE097AA7EE280AD1
:102F3000C7EE887AFDEEE77A17EE903AA9F80030EE
:102F400080EE080AFDEEC07A17EE903AA9F802303A
:102F5000049BB6F86A211868374B0093374B1D68FD
:102F6000374B196800F16403A847364B2B491D788D
:102F7000354B032D18D9D1F82821B2F802E0BEF55F
:102F8000FA7F11D2B4F90460B3F904C0002EB8BFBF
:102F90007642CEF10000821B944504DB0EEB060264
:102FA0006245A8BF62469A803F68DFF8BCE0274EC2
:102FB00017F0006F06D1264A106841F21D02024048
:102FC000002A53D0234AD1F828A192ED004A224A80
:102FD0009EED005AD2ED003AB3F800E0B3F802C01B
:102FE000B3F90480D6ED004A1C4A00210B4608467E
:102FF0000CE100BFDC480020CC4500201217002067
:1030000004000020B44400206C3C00205016002036
:1030100008160020483100208FC2753CD00C0020DB
:10302000EFB6B044881600206C16002035FA8E3CAE
:10303000A81400202C150020F23D002008000020DC
:103040008416002018300020BC2F0020FC450020F2
:10305000B04400200846002004460020FC0D00205B
:103060006C31002028150020004600209EED005AFB
:10307000DFF83CE3C3489EED004ADFF838E3027016
:10308000D6ED004ADEED003AD1F82891E0881E889E
:10309000B3F802E0B3F904C0BB49AA4280F03F8113
:1030A00099F90030DFF8F0825B420CFB03F317F074
:1030B000805F07EE903A32D00FFA8EF306EE103AA8
:1030C000F8EEE76AF7EE007A37EEE37A03B2B8EE8D
:1030D000C66A05EE903A33B227EE066A37EEE47A16
:1030E00007EE903AF8EEE77A9FEDA83A67EE277A76
:1030F00091ED007AE5EE037AF8EEE55A67EE877A0D
:1031000011ED017AA4EE036AE5EE877A91ED017A7A
:10311000E6EE077A91ED027AE6EE877A23E033B2A3
:1031200006EE903A03B206EE103A0FFA8EF307EE6F
:10313000103AD1ED015AB8EEC77AB8EEC66A27EE5A
:10314000257A51ED015AA6EE257AF8EEE66A91ED60
:10315000006AA6EE867AF8EEE77AD1ED026AA7EE6B
:10316000A67AF0EE477AFDEEE77A103117EE903A44
:1031700028F81230013290E79AF90060764208FB95
:1031800006F617F0805F0DF11C0907EE906A40D03B
:103190000FFA8EF606EE106AF8EEE76AF7EE007A9E
:1031A00037EEE47AB8EEC66A0FFA8CF627EE066AB6
:1031B00037EEE37A07EE906AF8EEE77ADFED735ABE
:1031C00067EE277AA5EE256AE4EE257A92ED027A7B
:1031D00067EE877A92ED017AE6EE077A92ED037A4E
:1031E000E6EE877A0FFA83FBFDEEE77A17EE906A38
:1031F00029F8106007AE36F810600FFA86F9D94545
:1032000024DD33460E46013010323146A842B3D396
:1032100022E00FFA8CF606EE906A0FFA8EF607EEB1
:10322000106A92ED016AB8EEC77AF8EEE66A27EE08
:10323000067A92ED026AA6EE867AF8EEE77AD2ED89
:10324000036AA7EEA67AF0EE477ACBE70FFA81FB86
:10325000D945D8DB1E46D4E74D4A4A4812685788FC
:1032600016885B1AB91B89B20AB21BB293424FF09F
:10327000000214DD4FF0010E80F800E0AA420BD2EC
:103280000DF11C0E3EF8120010FB01F090FBF3F064
:103290002EF812000132F1E7B6B2BBB207E00270BD
:1032A000022193FBF1F3F218FB1A96B29BB2E78866
:1032B0000021A94233D207AA364832F9112007EE7D
:1032C000902A3AB206EE902A00EB0110B8EEE77AA7
:1032D000F8EEE66AD0ED007A32B266EEA76A07EE43
:1032E000902AF8EEE77AF4EEE76AF1EE10FA0BD4E2
:1032F0001AB207EE902AF8EEE77AF4EEE76AF1EEFA
:1033000010FAD8BFF0EE667A77EE277A2248FDEE03
:10331000E77A17EE902A20F811200131C9E71F4BF8
:103320001F4F1A7802F0040202F0FF030AB93A783C
:1033300073E01C4B1C4DDB7804931C4B186810F099
:10334000006039D12A6841F21D031340BBB9124A0B
:1033500097F800E01388012171451EB207D232F9B7
:103360001130B342B8BF33469BB20131F4E7084A8B
:103370001268528896421FDD9A1A92B21DE00246E8
:103380001BE000BF70310020000E002000007A44D6
:10339000C0300020FC0D002054160020061700202D
:1033A00018300020B4480020B04400200C16002043
:1033B000084600200446002000229B492B68B1F9F2
:1033C00006509A4997F800B0D1F8ECE1984941F2DB
:1033D0001D0C03EA0C0C03F480580E68954903F0A9
:1033E00010030593944B096803EB4B0B5B450BD023
:1033F000002840F04484BCF1000F40F056841F8840
:10340000BF1A1F8000F051BC884D95F8F031013B88
:10341000DBB2182B00F2448109E09342F4D28749D1
:1034200031F81300844921F813000133F5E7012234
:103430009A40834B1340002B00F03281814B7A4934
:103440001B8813F4807F07D02388ADF81C30638875
:10345000ADF81E30A38815E07B4B1A88ADF81C2010
:103460005A88ADF81E20794A9B881268ADF8203042
:10347000D00409D5D5F8EC21B1F90600D2899042E3
:1034800002DA5B42ADF82030714CB4F902304FF4EF
:103490007A7203F5E16353434FF4616093FBF0F3F9
:1034A000A3F5FA73ADF83430B4F9003003F5E163F5
:1034B0005A43614B92FBF0F21B88A3F2DC53ADF848
:1034C00022305A4BA2F5FA72D3F8EC31ADF836201F
:1034D000DB890A88D21AADF824204A88D21AADF8BE
:1034E00026208A88D21AADF82820CA88D21AADF8C8
:1034F0002A200A89D21AADF82C204A89D21AADF8AE
:103500002E208A89D21AADF83020CA89D31AADF894
:10351000323000234F4A002122F813100133082BC8
:10352000F8D14D4A4D4B126804924D4A1B781268EF
:103530004C4905924C4E072202FB031B594500F0F3
:1035400095800B7833B103F1150201239340049A5F
:10355000134065D011F806CC059B11F805AC11F8A5
:10356000034C11F8018CCCEBCC0E03EB4E0E642017
:10357000BEF90020BEF902309B1A9BB211F9022C51
:103580004FEA53095A434FEA4A0792FBF0F20EA85A
:10359000C9EB020292B2074414B937F81C0C0CE0D4
:1035A000B6F9000037F91C7CB84208DA04448442BA
:1035B00003DBA7423846A8BF2046308008E007DD7D
:1035C000041BBC4203DB8442A8BF04462746378065
:1035D000DEF80A4011F9047C012000FA0AF02042CA
:1035E000308812B217FB00F014BF4FF0FF340124F3
:1035F000642790FBF7F090420ADB4FFA88F25A43B7
:1036000092FBF7F2C9EB020212B28242A8BF024655
:10361000104B33F81C9002FB049423F81C4000E08C
:1036200033800236073189E7B4440020D00C0020F3
:10363000BC300020C030002054160020763100201D
:103640009920980108160020BC2F0020B0440020CB
:103650006C1600203E1600200C160020C4300020FE
:10366000041E0020CB300020C20E0020964B974F46
:10367000D3F8008000260E2202FB068237F8023FB4
:1036800092F90640F0B214FB03F3642493FBF4F4C4
:103690003C800EF093FA01362044082E3880EAD19F
:1036A0008B4B8C4E1A68884F12F0200F984632D000
:1036B00000200EF083FA3080044601200EF07EFADE
:1036C000854B70801B68190625D5844B844AD3F836
:1036D00014321B78012B22D13968138891F914E038
:1036E000B2F902201EFB03F34FF0320C93FBFCF304
:1036F0001FFA83FE91F906305B4253436FF03101AC
:1037000093FBF1F10EEB0102A11893FBFCF3734460
:10371000318018447080D7F800E0002318E0D7F813
:1037200000E053889EF9061011FB03F1322391FB50
:10373000F3F12144318011889EF9142012FB01F22B
:1037400092FBF3F21044E5E70133082B325311D01A
:103750000E2101FB03E136F91300B1F90020B1F9A4
:10376000021090424FEA4304EEDB0AB28242A8BF45
:103770000246E9E7594CD4F828A19AF90830A3B9D0
:1037800094F8F09109F1FF33182B72D8DFE803F0B9
:103790003571714F717171487171717171597171B8
:1037A0007171714F657171593500DFF820B14FF0BB
:1037B00000094C4B3BF9021FBAF90620882000FB98
:1037C00009300EF025F83A680E2380B203FB092277
:1037D000ABF80000B2F90030B2F9022000B2984212
:1037E00003DB13B28342A8BF034609F10109B9F113
:1037F000080FABF80030DCD1C2E79AF8043013B1FF
:103800000020718908E0384B1B7803F0040303F0B3
:10381000FF00002BF4D1014604F038FE012729E017
:103820000020F18804F032FE0120318905E00020FB
:10383000318904F02BFE7189012004F027FE022754
:1038400018E00227B81E36F81710C0B2013704F08E
:103850001DFE082FF6D106270CE00327F81E36F8C8
:103860001710C0B2013704F011FE072FF6D104275C
:1038700000E00027D8F800309A0602D4B9F1050F0D
:103880000AD13846318804F001FE781CC0B2718834
:1038900004F0FCFD0237FFB2D8F80030DB0205D49B
:1038A00094F8583623B30EF0CBF821E0DFF83C90C3
:1038B0000026B819C0B239F8021F04F0E7FD0D2E3A
:1038C000EED00136F5E700BF041E00203C160020B4
:1038D000B04400203E1600200C160020D00C002022
:1038E0006C160020E80E002006170020BA440020C5
:1038F000A44B1878002840F00B82D8F800301E0343
:1039000040F1068295F85936023B052B19D89E4B9B
:1039100093F8F8372BB99D4BD3F85C0603689B6886
:103920009847D5F8603695F864261344B3F5807F40
:10393000A8BF4FF480738342D4BFC5F86036C5F882
:10394000600694F85936023B082B00F2E181DFE86B
:1039500013F009003F0065007B009300A5004F01B4
:103960006D017A018A4B1A68D4F86C3664339A4236
:1039700040F2CE8140200CF095FF002840F0C88135
:103980004027844BD4F86826804E985C1D4670B161
:103990000AF092FDD6F86036013BC6F86036D6F8DC
:1039A0006836013F03F10103C6F86836E9D1D4F85F
:1039B0006826764BAA5C002A40F0AA81C3F86826E4
:1039C0004FF0FF32C3F86C26032283F859269FE19B
:1039D00024230093704B019303F10C0202924920BF
:1039E000A3F10A02502102330BF0F2F8002840F054
:1039F0008F81D8F8003013F080034FF0FF3205D0EC
:103A0000C5F86806C5F86C26042304E0C5F86836D6
:103A1000C5F86C26062385F8593679E15F4A0223FA
:103A20000021009301910291482002F108030BF05C
:103A3000CFF8002840F06C814FF0FF33C5F86C36AA
:103A4000C5F868060523E6E707230093544B019366
:103A500003F10C0202924720A3F108020021043373
:103A60000BF0B6F8002840F053814FF0FF33C5F853
:103A70006806C5F86C36CDE74A4A05230021009355
:103A800001910291532002F108030BF0A1F80028E4
:103A900040F03E81C4F868060723DEE040200CF0C9
:103AA00001FF002840F03481D4F868360C2B00F276
:103AB000DC80DFE803F0070B0E1219252A2F3337BD
:103AC0004550540038480CF0E9FF54E03748384975
:103AD00013E038483849394A4BE02B4B384893F8C3
:103AE000F61793F8F72744E0274B364893F8D0278A
:103AF0000C2101FB023393F8D2170CF0CFFF3AE010
:103B0000214B3148B3F84011F7E71F4B2F48B3F86A
:103B10004211F2E72E4B2F481969EEE72E4B2F4842
:103B20001988EAE7D4F87036D80404D5164B2C4827
:103B300093F87811E1E7154B0B22C3F868261AE0D9
:103B4000114B284893F87C1193F87D2193F87B3131
:103B50000CF0A4FF0FE02448B4F87416CDE7D8F8B1
:103B60000030190507D5084B2048B3F88011B3F988
:103B70007E210CF093FFD4F868360133C4F8683620
:103B8000C6E000BF081E00206C3C0020D00C0020C6
:103B9000CC350020F8650108626601080868010854
:103BA000206801086C68010894680108AE68010883
:103BB000C3680108CB680108DF680108EB680108E9
:103BC000F4680108056901080F6901081E69010808
:103BD000CC4500202D6901080C0000203D6901083A
:103BE00047690108546901086D690108786901088D
:103BF0004A4B1B689A0116D5B4F87836484D93B9EC
:103C0000D5F87C360793474B0E201B68089307A90D
:103C10000AF01AFD4FF48053A5F87636092385F88B
:103C200059360AF069FD0AF0F1FC71E094F880362B
:103C3000002BF6D0394B1B689B01F2D4384B08227D
:103C400083F85926EFE7384B1A68D4F86C36C83336
:103C50009A4205D90CF044FE012384F8593657E006
:103C60000CF058FE0028F5D152E00CF053FE00286D
:103C70004ED04FF48053A4F876360923EDE7B8F11F
:103C8000000F15D0BEF80E70B3F90090BD42CBBF47
:103C900077888F88B1F802A0B6F800A0B94524DB78
:103CA000D1454F46A8BF57461FE0B8F1000F20D1BD
:103CB000049FB1F80290B3F900A03FB18F88BA45D4
:103CC00013DBCA455746A8BF4F460EE00F88BA45DA
:103CD00003DBCA455746A8BF4F461F80BEF8107089
:103CE000BD4203DA059F0FB18F881F800233FFF7B3
:103CF0007DBBBEF80E90F788C7EB090A5545C1DDBC
:103D00004F44BD42BEDA4D45CCBF77883788ECE7DB
:103D10000FB0BDEC108BBDE8F08F00BF0C1600207B
:103D2000D00C00206C480020CC3500202DE9F04F4D
:103D3000A249A34C0A6802F59C432DED028B203367
:103D40002360A04B87B01E780091C6B19E490968D8
:103D50008A4240F20481013E1E7000E1D9F8003031
:103D60009A48072D98BF595D994B88BF29461B6813
:103D70009847032D0CD904EB45050136A880934BD9
:103D8000DFF874921A78F5B2AA421846E6D820E015
:103D9000D9F8002005F10E0302EB8303D9881A89B4
:103DA0000028E8D04FF47A73401A5843531A90FB16
:103DB000F3F040F6C90300F57A70984205DC40F252
:103DC000EE239842B8BF184601E040F6CA0080B220
:103DD000D1E7804B804A1B6842F2010803EA0808D9
:103DE0007E4BB8FA88F84FEA58181B68B8F1000FF4
:103DF00005D194F82810117079494D780D70177815
:103E00001FB1774A177887F0010794F82AB090F825
:103E100000A00F220326BBFBF6F606EB460684F84D
:103E20002920C6EB0B06D9F80020DFF8D491F6B2B2
:103E30000025554559DA4FEA450C1FB1694931F85B
:103E4000150000E03846D18ADFF8B8E1814202D897
:103E5000118B81421ED25EF825005949834203D25C
:103E6000614931F80C0019E0E8B202920193039124
:103E700010F0E0FC032D019B029A0FDC03994FF038
:103E8000010C91F829E00CFA05FC2EEA0C0E81F8E1
:103E900029E003E003F596714EF82510B8F1000F04
:103EA0001CD194F8BC1029F8160031B9BBF1020FEF
:103EB00014D94349012081F8BC00B9F80210B9F8BF
:103EC00000000844B9F804100844484980B221F8B9
:103ED000150000B2032190FBF1F080B2424909F1D4
:103EE000060921F815000135A3E794F829203B497C
:103EF0003F4BA2F10F0EDEF1000242EB0E0284F8FE
:103F0000D6206AB13B4A1268570109D40A68D968B9
:103F10009A60521AC82A1DD9012283F8212019E07B
:103F20002F4A0120507010700A689968DA605B6847
:103F3000521A9A4282BF2E4B002283F8212000257C
:103F4000554507DAE8B210F075FC274B23F8150049
:103F50000135F5E794F82A30013384F82A301D4BF7
:103F60001A6812F4805F984605D0224B1B68DE0762
:103F700001D410F0EBF9009B19681F4B1F68BB7A46
:103F8000002B41D0013B18483A7B30F813301AB16E
:103F9000C3F53B6308339BB21BB2A3F57A73B3F549
:103FA0007A7FA8BF4FF47A7323EAE37307EE903A5F
:103FB0009FED127AF8EEE77A5FE000BF6C480020D0
:103FC00058130020B0480020AC4800207444002062
:103FD0004C030020B0440020982C0020CC35002059
:103FE000020000205C130020B444002016140020BE
:103FF000B44800200C160020A848002000007A4495
:1040000084130020CC130020D8F80020150440D5DC
:10401000D4F8D800934E081A00283ADB924A01F5EA
:104020009C402030C6F8D8005079904A32F81050A1
:10403000A8B2FD7A90FBF5F596F8DC00013000F0AF
:104040000F0286F8DC20324482F8DD501A46884898
:10405000185C01330244102B92B2F8D112B292FBD9
:10406000F3F31BB2642BA8BF642323EAE37307EEC8
:10407000903A9FED807AF8EEE77AC7EE877A7E4A2B
:104080009FED7E7A67EE877AFCEEE77A17EE903A3C
:104090001380D8F800307A4D13F4807F00F0098146
:1040A000784BDFF8E491994205D999F8022012B9CA
:1040B000012289F8022099F80220002A00F0F980F4
:1040C000714A2F7892F82160704A701E464211683A
:1040D0004641002EC1F38063C7F3800700939246E8
:1040E00014BF4FF0000B4FF0030B99F82020052A66
:1040F00000F2D980DFE802F0034D527584A1002F51
:104100003AD0D4F8F000B4F8F41009F034FC0128E7
:1041100009D15F495F4A09681268C988642000FBB9
:104120000122C9F81020009B6BB1594A126812791C
:104130004AB10FF097FD032289F820204FF47A72DC
:10414000C9F81C20D1E7002E40F0AD80514AD9F8C3
:10415000101010684C4A88420AD901920FF082FD73
:10416000019A032182F8201040F6B831D161BCE7F2
:10417000012182F82010B8E7009B4FF4806013B152
:1041800007F06EFE01E007F05BFE0022C9F8102088
:1041900089E0002E46D10FF065FDA6E726B1052285
:1041A00089F82020012000E0304667B1D4F8F020E3
:1041B000D189394A118051809180354909684988EF
:1041C000D1804FF0020B334A1168D9F81420914284
:1041D00001D8002F64D147F23052C9F81C200322C5
:1041E00021E02A7842F002022A7010F0AFF8294A42
:1041F000D9F81C1012680A44C9F81820042212E0E9
:10420000244A9EB11168D9F8182091424BD9234A0B
:1042100092781AB9DAF80020D10744D42A7822F02B
:1042200002022A70052289F820205EE71268D9F878
:104230001C100A44C9F8182035E01549154A0968C8
:104240001268C988642000FB0122C9F810204FF4CD
:104250008060002289F8202089F8032007F0F0FD13
:1042600043E700BF58130020102200202022002026
:10427000351400200000C8427816002000C07F449A
:1042800006170020404B4C00B44800200C160020BC
:104290000C460020CC350020B44400200200002051
:1042A00000287FF422AFBBF1000F02D0584609F07E
:1042B00015FCA54E06F5C370B6F84E1109F05BFB70
:1042C000814600282ED1A14BA14F1B6813F0006A34
:1042D00008D0FB7833B90EF0C9FB9E4B012818BFFC
:1042E000002018702B785A0709D5D8F80030DB0663
:1042F00005D4BAF1000F02D0FB78002B2FD0964ADC
:104300000023136053609360944A00211160516050
:104310009160934A126802F57A72C4F8F82001227B
:10432000FA701AE0D8F80030DF0618D42B78580756
:1043300015D5864B1B68190111D5854FFB7863B1E4
:10434000874B1A68D4F8F8309A4208D90EF08EFBE1
:1043500028B9804BF870187001E07E4A13702B78F2
:104360005A0736D5D8F80030DB0632D57D4B1B789E
:10437000DF062ED4764B9B7893B196F8E031B9F1F5
:10438000000F15D17BB1764B1A68D4F8FC309B1A1C
:10439000002B08DA0FF0DAFF734B83F8009118E076
:1043A000B9F1000F0DD1102009F098FB01230EE0A8
:1043B0003BB16B4A12684FF47A7101FB0323C4F8D6
:1043C000FC3094F8003123B109F070FB002384F82D
:1043D0000031002296F8DEB196F8DF11B6F896E1CA
:1043E000B6F898C113466148009030F912709B08E6
:1043F0007745C4BF63F07F03DBB201326745B8BFC6
:1044000043F04003042AEED194F8012156489A4221
:1044100005D190F80221F92A04D8013200E00022E7
:1044200080F802214A4884F8013183784E4A474F88
:1044300082462BBB3868C0070AD582F80331B9F130
:10444000000F1DD12B78DB071AD50FF0D9FD17E02F
:104450002B78580714D5464B1B788BB1454BDB782E
:1044600073B992F803310133DBB2032B82F80331C5
:1044700006D911B10FF06AFF02E0B9F1000FF9D0CF
:1044800094F80231384ADFF8F490142B40F0A08001
:104490009AF802301BF1000B18BF4FF0010B6BB301
:1044A00092F801315F2B11D12B7803F0040303F054
:1044B000FF0113B10FF04AFF08E00B2002910192B7
:1044C00009F00CFB019A029982F80211BBF1000F6E
:1044D00014D094F801317D2B10D12B7803F0040314
:1044E00003F0FF0213B10FF031FF07E00B20019240
:1044F00009F0F4FA1C4B019A83F802212B7803F09F
:10450000040303F0FF01002B62D194F80131164A35
:10451000572B0AD1184B4FF47A721A80D8F8003012
:104520001B0655D505F0CAFB52E0D8F8000040073D
:1045300033D55A2B31D192F804310BB3012382F8D1
:10454000041182F8053143E06C3C00200C16002079
:104550000200002071310020A42F0020A845002077
:10456000CC3500208816002058130020B4440020C9
:10457000982C0020B448002032150020501600204E
:1045800092F8063183F0010382F806310BB10C205A
:1045900000E00D2009F0A2FA1AE05D2B00F0B484CF
:1045A0005B2B00F0B3845E2B02D1032000F0AFBC84
:1045B000562B01D107F01AFF9AF80230002B00F0B9
:1045C000BB8494F801316F2B40F0B0840FF018FDDC
:1045D000D8F800305A0736D594F80631B84A93B166
:1045E0002B785B070FD5009BB3F90610B6F8963110
:1045F000994208DD3B6813F0010302BF3221A2F8A3
:104600000A1182F806313B68D8030DD594F80C21C5
:10461000AB4B2AB993F8042112B93222A3F80A212C
:10462000012384F80C310EE094F80431A44A53B10C
:104630002B7803F0040303F0FF0123B9012382F870
:10464000041182F80531D9F800A000233B600AF17B
:1046500087090AF1D70B99F8002099F8013019F869
:10466000010C9A420BD2494609F04EF938B119F8BB
:10467000022C012303FA02F23B6813433B6009F169
:104680000409D945E7D18F4B1B785BB18E4BDFF81E
:1046900054B21A68DFF850A212F0020F994640F0A7
:1046A0003B8332E30AF1D6070AF58F793A787B78B3
:1046B00017F8010C9A4225D2394609F025F908B3BA
:1046C000BB7897F804C0814A97F803A07C480C2176
:1046D000013B01FB0C4103EB43031344D1F81421CC
:1046E0009A420FD0C1F81431002390F84021C1F84C
:1046F0001831012303FA0CF322EA030381F810A115
:1047000080F8403106374F45D0D1714B1F68714B4F
:104710001B680293704B1B780393704B019300232B
:104720000093019B1A68002A00F0E48292F800A02E
:10473000BAF1000F00F0DE825B680299CB1A002B01
:104740000CDB01F5FA7301994B60009901238B4052
:1047500094F8401121EA030384F84031039B002BB5
:1047600000F0C882019B517813F8043C0433DBB29B
:10477000002940F07E825A4931F91310B6F894317D
:1047800003F1C800814202DD92F802B015E0C83B97
:10479000994203DA9178C1F1000B0EE0009A0123EF
:1047A000934094F8402122EA030384F84031029BAD
:1047B000019A03F5FA7353609CE294F84031009A31
:1047C0001341D90700F19682BBF1000FCCBF022044
:1047D000012009F0BDF90AF1FF33DFF8E490132B53
:1047E00000F28082DFE813F01400250037004B0050
:1047F00064008800EB004E01B501E30113027E0264
:104800004B005A008800EB004E01BD0020018501DD
:1048100097F80090D944B9F1FA0FA8BF4FF0FA0900
:1048200029EAE979384687F8009009F057F801201D
:104830000FE097F80190D944B9F1640FA8BF4FF089
:10484000640929EAE979384687F8019009F046F8C1
:1048500002204946D8E197F803A0DA44BAF1640F80
:10486000A8BF4FF0640A2AEAEA7A87F803A038461C
:10487000D9F8441108F0E8FF03205146C4E17979E2
:1048800059446429A8BF642121EAE17179710D209E
:1048900009F0A2F8BAF10D0F00F0248239795944D9
:1048A0006429A8BF642121EAE17139710E20ABE1CE
:1048B000B979594481F30801B9710520A4E100BF19
:1048C00058130020081E00200C1600207D6A0108E5
:1048D00084160020CC350020982C00206C14002079
:1048E000B4440020041600200816002000007A447A
:1048F0000000C84200000000D9F848311A78022AA6
:1049000020D107EE90BAB8EEE70A5FED077A93ED93
:10491000097A80EE270A30EE070AB5EEC00AF1EEFA
:1049200010FA07D4B4EE670AF1EE10FAC8BFB0EE81
:10493000670A01E01FED110A83ED090A0F2009F053
:1049400035F80AE099785944C829A8BFC82121EA56
:10495000E17199700F2009F03FF8BAF10F0F00F0E4
:10496000C181D9F848311A78022A1ED107EE90BACF
:10497000B8EEE78A5FED227A93ED080A88EE278A7F
:1049800038EE000AB5EEC00AF1EE10FA07D4B4EE24
:10499000670AF1EE10FAC8BFB0EE670A01E01FED3A
:1049A0002B0A83ED080A122056E159785944C82988
:1049B000A8BFC82121EAE1715970122024E1D9F879
:1049C00048311A78022A20D107EE90BAB8EEE70AE9
:1049D0005FED397A93ED0C7A80EE270A30EE070A04
:1049E000B5EEC00AF1EE10FA07D4B4EE670AF1EEA4
:1049F00010FAC8BFB0EE670A01E01FED420A83ED6E
:104A00000C0A102008F0D2FF0AE0197B5944C8298B
:104A1000A8BFC82121EAE1711973102008F0DCFF5A
:104A2000BAF1100F00F05E81D9F848311A78022AE5
:104A30001ED107EE90BAB8EEE78A5FED537A93ED98
:104A40000B0A88EE278A38EE000AB5EEC00AF1EEAE
:104A500010FA07D4B4EE670AF1EE10FAC8BFB0EE50
:104A6000670A01E01FED5D0A83ED0B0A1320F3E0F6
:104A7000D97A5944C829A8BFC82121EAE171D9725D
:104A80001320C1E0D9F848311A78022A22D107EE62
:104A900090BA1FED6A0AF8EEE77A87EE800AD3ED46
:104AA0000F7A30EE270AB5EEC00AF1EE10FA09D4FB
:104AB0005FED717AB4EE670AF1EE10FAC8BFB0EE9E
:104AC000670A01E01FED750A83ED0F0A112008F057
:104AD0006DFF0AE0997D5944C829A8BFC82121EA81
:104AE000E1719975112008F077FFBAF1110F00F00C
:104AF000F980D9F848311A78022A20D107EE90BA05
:104B00001FED860AB8EEE78A88EE008A93ED0E0A5A
:104B100038EE000AB5EEC00AF1EE10FA09D45FEDE6
:104B20008C7AB4EE670AF1EE10FAC8BFB0EE670AED
:104B300001E01FED900A83ED0E0A14208CE0597DF0
:104B40005944C829A8BFC82121EAE1715975142028
:104B50005AE0D9F848311A78022A1ED107EE90BAE5
:104B6000B8EEE78A5FED9E7A93ED0A0A88EE278A0F
:104B700038EE000AB5EEC00AF1EE10FA07D4B4EE32
:104B8000670AF1EE10FAC8BFB0EE670A01E01FED48
:104B9000A70A83ED0A0A09205EE0D9785944C8299A
:104BA000A8BFC82121EAE171D97009202CE0D9F809
:104BB00048311A78022A1ED107EE90BAB8EEE78A79
:104BC0005FEDB57A93ED0D0A88EE278A38EE000A7C
:104BD000B5EEC00AF1EE10FA07D4B4EE670AF1EEB2
:104BE00010FAC8BFB0EE670A01E01FEDBE0A83ED00
:104BF0000D0A0A2030E0597B5944C829A8BFC821B2
:104C000021EAE17159730A2008F0E6FE6AE0D9F85A
:104C100048311A78022A22D107EE90BA1FEDCD0A48
:104C2000B8EEE78A88EE008A93ED100A38EE000AA3
:104C3000B5EEC00AF1EE10FA09D45FEDD37AB4EE06
:104C4000670AF1EE10FAC8BFB0EE670A01E01FED87
:104C5000D70A83ED100A0B2008F0A8FE42E0D97DA8
:104C60005944C829A8BFC82121EAE171D9750B2090
:104C7000CAE7012936D19078C04A32F91390B9F5C4
:104C8000617F05DB40F633039945A8BF994601E0F3
:104C90004FF46179BAF10C0F24D1B94A4FF49663FD
:104CA00093FBF0F01378A9F5617999FBF0F95FFABD
:104CB00089F94B4516D0B9F1040F34BF4B46022396
:104CC0001370B04A0AFB036303F2D273136007F058
:104CD000ADF95046494608F07FFE09F10100C0B227
:104CE00008F036FF009A0123934094F840211343C3
:104CF00084F84031009B01330093019B0C330193F6
:104D0000009B042B7FF40DADC0E4D8F80030DA0529
:104D10000FD59D4BDB7863B1DBF800309B0708D5DE
:104D2000BAF8003013F0010708D1012007F098F815
:104D300004E0012007F084F8012300E00023D9F803
:104D4000002057070BD553B1012007F079F8BAF8C6
:104D50000030980706D4022007F082F802E0022013
:104D600007F06EF8BAF80070884B17F0030F4FF495
:104D7000004214BF5A831A83DBF80030990609D425
:104D8000D9F800301A0540F18D804FF4807007F09B
:104D900067F88BE07E4B1B789B074ED57D4B1B78CD
:104DA000042B4AD9D9F8003013F4007B07F0100720
:104DB0000CD0B7BB102007F053F8202007F040F8C4
:104DC0007548011D04F0CEFE022326E0BFB22FB1CC
:104DD000102007F035F8012784F84CB1D9F80030DD
:104DE000580512D5D4F850316C495A89B1F90030C0
:104DF000002BB8BF5B42934207DAB1F90230002BB7
:104E0000B8BF5B429342C0F2FC80BAF8003099060A
:104E100008D5202007F014F8002384F84C3101272E
:104E200000E0002794F85431A3B90E2008F056FE94
:104E30005B4B012283F854210CE017F0300F9FD018
:104E4000102006F0FDFF202006F0FAFF002384F872
:104E50004C3101E0002F93D0524B002003F1280E7B
:104E600003F15007504A002122F810104F4A5960B0
:104E700022F810100432CEF8041022F8101000228C
:104E80001A609A60CEF80020CEF808203A60796067
:104E9000BA6014330EF1140E143700287FF470AF8B
:104EA0000120DFE74FF4807006F0CAFF7379082B0A
:104EB00001D00E2B02D1402006F0C2FFD8F80030FE
:104EC0005A0519D596F814321BB92B7813F0040F34
:104ED00003E0D9F8003013F4002F09D0344B00223E
:104EE0001A703C200DF08EFD30B10DF007F8F8E798
:104EF0000AF02EF80DF0A3FC012384F8D83107B096
:104F0000BDEC028BBDE8F08F012000E002205FFACB
:104F100080FA0AF1FF3386F8D03706F0F1FF07F088
:104F2000A9F8504608F014FEFFF752BBBBF1000F82
:104F300002D07E2B3FF44AAB94F80131972B06D177
:104F4000174B4FF4C872A3F80821FFF741BBA72BFA
:104F500006D10F4A137843F004031370FFF738BBF0
:104F60000022BB2B059201D1022303E0B72B21D1F4
:104F70004FF6FE73ADF8163027E000BFB4440020B2
:104F80007431002084160020B4480020000C024038
:104F90008816002089160020A0160020802F0020EF
:104FA00058130020B01400206C3100202815002078
:104FB00079440020BE2B01D1022304E0BD2B7FF4F5
:104FC00007AB4FF6FE73ADF81430D9F80030BDF8DA
:104FD0001410B3F864200A44A3F86420BDF8161036
:104FE000B3F866200A44A3F8662006F089FF07F0AC
:104FF00041F8012008F0ACFD002384F80231FFF7EE
:10500000E7BABAF800309B063FF50CAF202006F057
:1050100027FF0748074B011D1A685B684360026061
:1050200004F0A0FD044B012783F84C71FAE600BFA1
:10503000A81600208C160020581300202DE9F04FF0
:105040002DED028BB44E8DB034780096002C6ED0CE
:10505000B24F3B68002B01F0AD80386808F0E0FDEE
:10506000002801F0A780AD4BAD4C186808F0D5FDC5
:10507000092801D03F284ED14FF0000A2668A94DDB
:10508000D0462EB1A8482968324610F0AFFB20B9AF
:10509000AA46B8F1000F00D1A846A44B10359D4296
:1050A000EFD3B8F1000F18D0D8F800E0DAF800C05C
:1050B00023681EF803501CF80300A8420DD15A1CA7
:1050C000994938B92D2B05D8954D2A602025CD5406
:1050D000885402E0CD542260EAE723680BB1D04542
:1050E00010D093480DF014F8D04507D858F8100B9D
:1050F0000DF00EF809200DF003F8F5E78D480DF0DE
:1051000007F8002623689E42A7D2874B985D0CF0D3
:10511000F7FF0136F6E72368002B40F0B987042833
:1051200041F02D80804803F04BFB01F043B8274647
:10513000814BE21892F84A10012940F09E877F4D7A
:10514000DFF81882E3582A60C8F80030AA46C34640
:10515000DBF80000DFF8049208F062FD002800F0A0
:105160007D87D9F8000008F058FDDAF8003093F890
:105170004810064619B924283DD1012238E00129FA
:1051800004D14D2814BF0022022231E0022904D1AB
:105190003C2814BF002203222AE003290CD1402816
:1051A0004FF0000102D983F848104CE05871197192
:1051B000D971987104221BE0042907D1997983F8E9
:1051C000490080EA01029A71052211E005293AD1CD
:1051D000587919798842987906D970409871481C95
:1051E00018710B441E722EE0B0420CBF0622002242
:1051F00083F8482027E0524B1978490723D4232805
:10520000D9F8001012D10193009B01201870434877
:1052100001604C4801604C480CF07AFF45480CF0A6
:1052200077FF019B197841F002011970474B1B6809
:105230001B78B34207D107F011FD454B454A1A6070
:1052400072B604F067FFDAF80030DFF8F09093F8F8
:105250004820062A7FF47CAF93F8490000F0B8FF9D
:105260008246002840F0F486D9F8002092F84930B0
:105270004C2B00F0C08473D8332B00F0F68422D876
:10528000292B00F0828409D8252B00F05784272B86
:1052900000F05B84232B40F0F88643E22D2B00F0D6
:1052A000868408D82B2B40F0F0860CF047FE2A4B62
:1052B000587100F0CABE2F2B00F04085312B00F052
:1052C000508500F0E2BE3E2B00F0E68010D8372B70
:1052D00000F0008504D8352B00F0608200F0D5BEC8
:1052E000392B00F040843C2B00F0E18000F0CDBE73
:1052F000432B00F0CC8406D8412B40F0C6864FF0FB
:10530000000800F0B8BC442B00F060854A2B00F088
:105310009C8600F0BABE00BF081E00209831002015
:10532000F81D0020746E0108C81D002034700108AB
:10533000B96A0108BE6A0108D43B00209031002000
:105340000617002034150020EE6A01087C44002076
:10535000FCFF0120EFBEADDE6C3C0020943100204C
:10536000D12B00F0AF8320D8CC2B00F03F820FD898
:10537000C82B61D004D84E2B00F04B8400F085BEC2
:10538000C92B00F05883CA2B00F0A88000F07DBE26
:10539000CE2B00F04183C0F03583CF2B00F070821C
:1053A000D02B00F0238300F070BED82B00F03181A9
:1053B0000BD8D32B3AD025D3D42B00F0A882D62BF0
:1053C00040F063864FF0000896E2F22B00F0E58291
:1053D00010D8EF2B40F05986C74ED6F800900CF04D
:1053E000B7FDA9F8660036680CF0B2FDA6F86400B7
:1053F00000F02BBEF32B00F0FB84FA2B00F0168399
:1054000000F043BEBD4B1B7803F0040303F0FF081C
:10541000002B40F01A860CF091FDB94B022883F85E
:10542000D00740F2EA8283F8D087E6E20CF090FDE4
:10543000B44B988000F009BE92F805804FEA5808F6
:10544000B8F1120F03D90DF033FB00F0FEBD4FF0A1
:105450000009C14507D20CF07BFD03AB23F819000E
:1054600009F10109F5E742460023434507DA03A99C
:1054700031F81300A44921F813000133F5E7122A8B
:1054800005D0A14B002123F812100132F7E79F4B02
:1054900001221A7000F0D9BD0CF050FD984E86F82C
:1054A000E0010CF04BFD86F8DF0100F0CEBD924E1E
:1054B000D6F800900CF042FD18B10228A8BF0220D7
:1054C00000E0012089F8000033681B78022B904B24
:1054D00014BF904A904A1A6000F0B7BD864B1A6814
:1054E0001278022A4FF00009984673D1D8F800606C
:1054F0000CF024FD07EE900AF8EE677AB2EE048A0B
:10550000C7EE887A06EB890AD8F80060CAED087AF7
:105510000CF014FD07EE900A9FED807AF8EE677AA2
:1055200006EB890AC7EE877AD8F80060CAED0B7AD5
:105530000CF004FD07EE900A9FED797AF8EE677A99
:1055400006EB890AC7EE877A09F10109B9F1030F61
:10555000CAED0E7ACAD1B9F1070FD8F800601CD194
:105560000CF0ECFC07EE900AF8EE677AC7EE887A4A
:10557000C6ED117AD8F800600CF0E0FC07EE900A56
:10558000F8EE677AC7EE887AC6ED127AD8F800602E
:105590000CF0D4FC86F84C0015E00CF0CFFC06EBC8
:1055A000090A8AF80100D8F800600CF0C7FC06EB85
:1055B000090AD8F800608AF80B000CF0BFFC06EB73
:1055C000090A8AF8150009F10109B9F10A0FC2D1D7
:1055D00000F03BBDD8F800600CF0B0FC06EB090A07
:1055E0008AF80100D8F800600CF0A8FC06EB090A64
:1055F000D8F800608AF80B000CF0A0FC06EB090A52
:1056000009F10109B9F10A0F8AF81500E2D100F099
:105610001CBD8046384E9FED428AD6F800A00CF0A3
:1056200097FC07EE900AF8EE677A0AEB880AC7EE55
:10563000887AB146CAED087AD6F800A00CF088FC4A
:1056400007EE900AF8EE677A0AEB880AC7EE887AC6
:10565000CAED0B7AD6F800A00CF07AFC07EE900A9F
:10566000F8EE677A0AEB880AC7EE887A08F1010833
:10567000B8F1030FCAED0E7ACCD1B8F1070FD9F803
:1056800000601CD10CF064FC07EE900AF8EE677A1B
:10569000C7EE887AC6ED117AD9F800600CF058FC94
:1056A00007EE900AF8EE677AC7EE887AC6ED127AAE
:1056B000D9F800600CF04CFC86F84C0015E00CF0BA
:1056C00047FC06EB080A8AF80100D9F800600CF0E4
:1056D0003FFC06EB080AD9F800608AF80B000CF0D2
:1056E00037FC06EB080A8AF8150008F10108B8F142
:1056F0000A0FC2D100F0A9BC5016002006170020E6
:105700006C3C0020341500200C21002015450020A1
:10571000080000207D1301083D3201080000C84246
:1057200000007A440CF00AFC132882463FF68BAE48
:10573000DFF86093D9F800600CF000FC0023D0493A
:105740000C2202FB0312117A814223D10FFA8AF84C
:1057500006EB8808137888F885300CF0EFFB88F8A2
:1057600086000CF0EBFB88F887000CF0E7FBC54BDC
:10577000C54A1A6088F88800C44BD9F80000186040
:105780000021853008F0E6F8C14B80F00100187068
:1057900000F05BBC0133222BD1D154E60CF0CEFBE0
:1057A0000B2881463FF64FAEBA4B1E680CF0C6FB85
:1057B00003283FF648AE062303FB096888F8DA00A1
:1057C0000CF0BCFB88F8D5000CF0B8FB88F8D600CC
:1057D0000CF0B4FB88F8D7000CF0B0FB88F8D800C8
:1057E0000CF0ACFB88F8D90000F02FBC5379092BE2
:1057F0007FF629AEA84ED6F800A00CF09FFB8AF8E1
:105800000000D6F800A00CF099FB8AF801000CF01B
:1058100095FB33686428A8BF642018710CF08EFBD8
:1058200033686428A8BF642058710CF087FB336884
:10583000FF28A8BFFF2098710CF080FBD6F800A0CD
:10584000642828BF64208AF807000CF077FB8AF8E8
:105850000200D6F800A00CF071FB8AF80300D6F81D
:1058600000A00CF075FBD9F80030AAF80A005B79AB
:105870000A2B40F2EA8336680CF060FB3072E4E3F6
:105880000CF066FB6FF4AF6283189BB2834EC62B9D
:1058900098BFA6F894010CF05BFBA6F840010CF051
:1058A00057FBA6F842010CF053FBA6F844010CF09C
:1058B0004FFBA6F8D8010CF041FB86F8ED010CF087
:1058C0003DFB0CF03BFB86F8EE010CF037FB86F855
:1058D00083010CF033FB86F890010CF02FFB6D4B2D
:1058E000D3F800900CF034FB00EB80004000A9F8E6
:1058F00062000CF023FB39E10CF02AFB684B23F823
:10590000180008F10108B8F1080FF5D19DE35379AB
:105910000F2B7FF498AD0CF011FB072880463FF663
:1059200092AD5C4ED6F800A00CF012FB0E2303FBE8
:1059300008F8C244AAF82501D6F800A00CF008FB2C
:10594000C244AAF82701D6F800A00CF001FBC2441B
:10595000AAF82901D6F800A00CF0F0FAC2448AF89F
:105960002B01D6F800A00CF0E9FAC2448AF82C0109
:10597000D6F800A00CF0E2FAC2448AF82D01D6F85D
:1059800000A00CF0DBFAC24436688AF82E010CF055
:10599000E9FAB044C8F82F0157E30CF0CFFA0F280A
:1059A00080463FF650AD0CF0C9FA3C4BC8EBC80836
:1059B000984488F8D0000CF0C1FA88F8D1000CF0B7
:1059C000BDFA88F8D2000CF0B9FA88F8D3000CF0D0
:1059D000B5FA88F8D4000CF0B1FA88F8D5000CF0CC
:1059E000ADFA88F8D6000CF0C1F82EE32D4B1B78E9
:1059F0005B0700F12A830AF001FC06F081FA06F049
:105A000039FB22E3274B1B785E0700F11E83264BF0
:105A10004FF4C8721A8018E3224B1B78580700F124
:105A20001483224A137843F0040326E01D4B1B78AD
:105A30005907E2D529E30CF081FA1C4B1A7810B112
:105A400042F0020201E022F002021A700CF076FA33
:105A5000174B184E18700CF085FA30600CF082FA73
:105A600070600CF075FA144B18800CF071FA134B3F
:105A7000134A1880137843F002031370E5E200BF65
:105A8000586B01089C140020AC3D0020A01400209D
:105A90000400002050160020841600206C3C0020DA
:105AA00076310020061700206014002088160020A0
:105AB000891600208C1600209416002096160020CF
:105AC0009E1600200CF03AFA83460CF04BFA824600
:105AD0000CF048FA81460CF045FA06460CF038FA0C
