:020000040800F2
:10000000C0050020890100083F4401087944010827
:10001000E5010008E5010008E50100080000000016
:100020000000000000000000000000003D44010846
:100030003B44010800000000394401084144010824
:10004000E5010008E5010008E5010008E5010008F8
:10005000E5010008E5010008E5010008E5010008E8
:10006000E5010008E5010008E5010008E5010008D8
:10007000E5010008E1430108A5420108E501000887
:10008000E5010008E5010008E5010008E5010008B8
:10009000E5010008E5010008E5010008E5010008A8
:1000A000A5410108D5410108E5010008E541010825
:1000B000C5410108E5010008B541010835440108C2
:1000C0002D4401083144010829440108E5010008D4
:1000D000E50100083D430108E501000899420108D7
:1000E00051440108E5010008A5440108E5010008A4
:1000F000E5010008E5010008E5010008E501000848
:10010000E5010008E5010008E5010008E501000837
:10011000E5010008E5010008E5010008E501000827
:10012000E5010008E5010008E5010008E501000817
:10013000E5010008E5010008E5010008E501000807
:10014000E5010008E5010008E5010008A13B010800
:10015000E50100080142010849430108F541010891
:10016000E5010008E5010008E5010008E5010008D7
:10017000E5010008E5010008E5010008E5010008C7
:10018000E5010008E5010008002100F004B80F4B6C
:100190005B58435004310E480E4B42189A42FFF40C
:1001A000F6AF0D4A00F003B8002342F8043B0B4BB6
:1001B0009A42FFF4F9AF0A48016841F47001016006
:1001C00013F0C8FF00F010F87047000094A0010879
:1001D00000000020C0010020C005002000460020D3
:1001E00088ED00E0FFF7FEBF2DE9804895B001F0F3
:1001F00007FFC04C23792268254633B1A368D31A80
:10020000002B02DB002323712373216942F20103D7
:100210000B400BB9B74803750B0740F18581A36903
:100220001B7A062B00F27081DFE813F0070007004D
:100230003500EF002C015A015A01237FAD48002BF5
:1002400000F0638100230377036A90F81DE090F8C3
:10025000248093F800C00223EF1803F1010A97F8F5
:100260002500A44E40FA0EF000F00F0060450ED2BB
:100270000B280CD897F8259006EB0A0706EB8000B0
:1002800097F8257009EA080607EB0626866302330D
:10029000102BE1D12BE194F86800964B002800F078
:1002A000B28093F8B660002083F8680093F8B50038
:1002B00006F0070740EA0720D86693F8B70000F079
:1002C0003F077F0147EAD6061E6793F8B860B6007D
:1002D00046EA901693F8B90000F0010746EA87262F
:1002E0005E6793F8BA6006F00F07FF0147EA500017
:1002F000986793F8BB0000F07F073F0147EA1616A6
:10030000DE6793F8BC60760046EAD01093F8BD60D3
:1003100006F0030740EA4720C3F8800093F8BE00C8
:1003200000F01F07BF0147EA9606C3F8846093F800
:10033000BF60F60046EA501093F8C160C3F8880029
:1003400093F8C00006F0070740EA0720C3F88C00C6
:1003500093F8C20000F03F077F0147EAD606C3F8D2
:10036000906093F8C360B60046EA901693F8C40014
:1003700000F0010746EA8726C3F8946093F8C56049
:1003800006F00F07FF0147EA5000C3F8980093F802
:10039000C60000F07F073F0147EA1616C3F89C60CD
:1003A00093F8C760760046EAD01093F8C86006F06C
:1003B000030740EA4720C3F8A00093F8C90000F003
:1003C0001F07BF0147EA9606C3F8A46093F8CA6006
:1003D000F60046EA5010C3F8A80093F8CB00C70710
:1003E0004CBF40F21476AD26C3F8AC6086074CBF14
:1003F00040F21473AD2310F0080FC4F8B0300CBFF6
:100400000123032381E003467FE094F8CD6039485F
:100410000023AEB390F8CE60B0F8D0C080F8CD30F5
:100420004FF0020E03271EFB067880440EFB060EDB
:1004300098F8D2809EF8D6E04EEA082EF44564D1B2
:1004400090F8D300012803D081285ED13B4600E01C
:100450000346102E84BF102084F8CE0094F8CEE01E
:1004600000204FEA4E0E70454FD0234F3E182637DE
:1004700096F803C0367946EA0C26C6530230F2E7F6
:10048000334642E094F818011A4B00283CD0002073
:1004900083F8180193F81901A82835D193F82C3165
:1004A00093BB05EB43009FED157A90F81C6190F823
:1004B0001D0100EB062007EE900AF8EEE77A1048DF
:1004C000C7EE877A9FED0F7A77EEC77AFCEEE77A70
:1004D00017EE906A40F823600133082BE1D106E063
:1004E00094F850318BB1034B002083F85001012365
:1004F0000BE000BFC005002092060020CDCCCC4010
:10050000F00600200080BB430023D8070CD5012053
:100510002075AC48C3F34003037083F001032371DB
:1005200002F5C333A033A3604F0414D594F85131BE
:1005300023B1A54B002083F851010123A248237564
:100540004BB1012303719F4B00261E7002F543330C
:1005500003F5A0738360CE0711D594F8526194F827
:100560005301994BB0420AD001201873954883F883
:1005700053610027477002F5C330A03098608804AB
:100580000AD50023904800F5AA769E5B002E41F024
:10059000F4840233182BF5D1237D33B98A4BD3F879
:1005A0006C31D31ADB43DB0F00E001238BB1D4F8AD
:1005B0007031D21A12F1500F03D4834B93F8743177
:1005C0003BB104F0C7FF012384F8753184F874311E
:1005D0003AE1D4F878217C4B0132002AC8BF0022CE
:1005E0000906C3F8782140F12F81D4F87C31B3B9E2
:1005F00094F88031013B042B00F22681DFE813F0F0
:100600001600160016001101EC006F4BD3F87C01A8
:1006100006F081FB0EF06CFE08B10AF0F9FED5F889
:100620007C0106F07DFB0028EFD1E1E7D4F8A021A2
:10063000654D167816B1012E13D005E1012B00F29D
:100640000381624B95F88121D5F87C010C2101FBD7
:10065000023292F8312003EB8203196906F056FB4F
:1006600066E0D5F87C0106F04CFB002800F0EC8039
:1006700095F88031022B46D0032B55D0012B40F04A
:10068000E380534BD5F898211B689A1AC72A40F289
:10069000DB80D5F89411042933D84C4AC5F8983139
:1006A0000C2000FB0121D5F87C5191F83110AE6887
:1006B0000023484F57F82370B742D8B204D0013313
:1006C000082BF6D1002300E003468B4206D002EB54
:1006D00081022846116906F019FBB5E094F88131D2
:1006E0000C2101FB0322566B16F8011B19B1284699
:1006F00006F028FBF8E7D4F894310133C4F89431BC
:10070000A2E002209EE0314B95F88121D5F87C01D2
:100710000C2101FB023292F8312003EB82031969AC
:1007200006F0F4FA03208DE0D5F8A0319B780BB9E0
:10073000042087E095F89C310BB985F89C6194F80A
:100740009C31214D012B17D1D5F89431B22B0DD806
:100750001E4AD5F87C01134493F86C1006F0F2FAA7
:10076000D5F894310133C5F8943105E00023C5F87C
:100770009431022385F89C3194F89C31124D022B60
:100780001AD1D5F894310F2B13D8D5F8A0210F49E1
:100790005278D5F87C0102EB02120A44134493F814
:1007A000201106F0CFFAD5F894310133C5F8943111
:1007B00002E0032385F89C3194F89C31022B43D945
:1007C000B6E700BF00000020C005002074600108EB
:1007D000D845002084600108D4F88821C44B013238
:1007E000C4F88821D4F8A021D2785AB193F8812195
:1007F0000132D2B20521B2FBF1F101EB8101521AB3
:1008000083F88121BB4B1B68C4F88C31002384F82A
:10081000A43194F8A53123F0020384F8A531012016
:1008200010E0B44BD4F88C211968B14B8A1A40F609
:10083000C4118A4208D9D3F8A82122F02002C3F8B3
:10084000A82105200CF016FC06F0E6F90DAE20609C
:10085000D4F8B831A64D304698479DF8343033B9B6
:100860002A68D5F87031D31A642B01F19980D4F835
:10087000C02123689E4D1344C4F870314FF0000826
:10088000D4F8B03184F8748105F5E270984705F525
:10089000E27958B9B4F8CA31002B00F0AA80944B21
:1008A000D3F82402643011F0BFFFA2E0DFF854A2B5
:1008B00095F8CC214846494609F047FFBAF8003080
:1008C000524605F5077B002B00F08780D5F8D03124
:1008D0001B7808EE103A05F5EA75474610888649F8
:1008E000B0F57A7F03D1002341F808302B6139F944
:1008F00007E051F80830734441F808302B6905EEE1
:1009000090EA0133012BF8EEE57A2B6106D1002342
:10091000C5ED017AC5ED007AAB6019E095ED006A8E
:1009200005EE903A77EEC66AB8EEE57A86EE877AFB
:1009300036EE077A37EEC76AD5ED027A85ED017A91
:10094000E6EE867A85ED007AC5ED037AC5ED027A8A
:100950000023012829F807302BF807302DD12B6907
:10096000012B09DD013B00EE103AD5ED037AB8EE1C
:10097000C00A87EE800A01E09FED600A07900591AA
:10098000069214F095FF18EE103A07980599069A0A
:100990004BB1F8EEC87AB4EEE70AF1EE10FA02DDD8
:1009A0004FF47A7317E051F808304FF47A7103F579
:1009B000FA7393FBF1F32BF807300237062F08F197
:1009C000040805F1140589D1012801D10BF018FBA9
:1009D000BAF80030013BAAF80030002339F80310C0
:1009E0003BF803208A1A29F803200233062BF5D19D
:1009F00050E706F011F9D4F82C322060C31AA4F89D
:100A00002832C4F82C0203F0C7F8D4F83032384D3D
:100A1000DA0240F1B380B5F8CA7107F40067BFB2DB
:100A2000002F40F09780364B1B785B0740F1928097
:100A30004FF400600BF082FBD5F82432C5F8343255
:100A40001A78B3F85A3094F83C924FF47A7C0CFB45
:100A500003FCB4F82832022A08BF01229CFBF3FCF5
:100A60000CBF85F8382285F83872CCF1000CD4F828
:100A7000347294F838A21FFA8CFC0023A4F83AC20E
:100A8000384607F120011A4690F856E090F8535086
:100A9000BEF1000F01D0754507D8B9F1030F08D892
:100AA0005FFA82FEBEF1020F03D14FF0000E80F814
:100AB00056E0DFF85480BAF1000F27D005EE905AC7
:100AC000D1ED006AF2EE047A66EEA76AB8EEE57A36
:100AD000F4EEC76AF1EE10FA44BFC7EE277AC1ED13
:100AE000007AD1ED007AFDEEE77A17EE905A17E022
:100AF000C0050020D8450020D007002000000000DD
:100B00007017002076170020FE07002007EB020E6A
:100B10009EF801B0AB4538BF8EF801509EF80150E9
:100B2000AD0128F80350AB4D05F5117E4FF00008DC
:100B300023F80E80013205F24A2E032A23F80EC054
:100B400000F1010003F1020301F104019CD1012332
:100B500085F85032B4F8CA319E4D1F051AD49E4B09
:100B60001B7803F0040303F0FF079BB995F850329C
:100B700083B111F04FFE85F850720BE0B5F8CA3121
:100B80001D0507D5944B1B78580703D54FF400601B
:100B90000BF002FB914B9B78B3B1B4F95822B4F837
:100BA0000E349A4210DC8B4B93F87D32012B01D02E
:100BB000192B02D194F85E2432B90E2B04D0082BE5
:100BC0001CBF0023A4F8803AD4F82492814D99F8F0
:100BD0002471BFB3B5F8CA31990733D005F6842321
:100BE00093ED080ADFED7E7AB5F8828AB4EEE70A63
:100BF000F1EE10FA22D914F0FBFD05F6A825D5ED8B
:100C0000007A20EE270A14F0A9FDB0F5617FA8BF95
:100C10004FF4617006EE900ADFED727AB8EEE60AE4
:100C200080EE270A06F000FC07EE107AF8EEC77A8D
:100C300027EE800A14F092FD80B200E000204044CC
:100C4000A4F8820AD4F8A831624D9A0640F1858052
:100C5000B5F8CA3103F03003002B7ED095F8A531EA
:100C6000DB077AD5B5F9B02ADFED5F7A5F4F0A234B
:100C700092FBF3F308EE103AB8EEC88A28EE278A02
:100C8000B0EE480A06F0D0FBF0EE408AB0EE480A1B
:100C900006F02AFCD5F8B43AB5F9BE0A93F80380F9
:100CA000B0EE409AB2EE048AB8F1000F35D0B5F834
:100CB000BA3A1FFA83FA1BB2C01A06F06DFFC8F1E8
:100CC0000005A84203DB4045A8BF404600E0284697
:100CD000B4F8B83A8244B4F9BC0A1FFA83FB1BB2D9
:100CE0001FFA8AFAC01AA4F8BAAA06F055FFA84259
:100CF00003DB4045B4BF054645465D44ADB2A4F8AC
:100D0000B85A0FFA8AFA2DB207EE90AA05EE905A59
:100D1000B8EEE77AF8EEE56A09E006EE900AB5F972
:100D2000BC5AB8EEE67A06EE905AF8EEE66A68EE3D
:100D3000E67AE7EE097A26EE899AC7EE887AA7EE78
:100D4000289AFDEEE77A89EE089A17EE903ABDEE02
:100D5000C99A3B8019EE103A7B801E4DB4F8E2230D
:100D600005F2FE330093224BD4F8C01A1F684846A0
:100D700009F16403B84794F83C92B9F1030F16D90E
:100D8000D5F8C43A5A88B2F5FA7F10D2B5F9800A7C
:100D9000B5F9CC1A0028B8BF404253421B1A9942F9
:100DA00003DB13188B42A8BF0B46A4F8CC3AD4F847
:100DB0003022084B17011FD50023B4F8CAEAB4F853
:100DC000C8CAD4F8C48AB4F9CCAA0A4918461D4640
:100DD0008FE000BFC0050020701700200000002039
:100DE0008FC2753CEFB6B04435FA8E3C72170020C6
:100DF00008000020981000201A6912F48052DBD1FC
:100E0000B3F8821AB3F8CA0AB3F8C85AD3F8C46A56
:100E1000B3F9CC7A03F52D634A4503F1100380F052
:100E2000FD8096F900E0CEF1000E07FB0EFE07EE06
:100E300010EA0FFA85FE06EE10EA0FFA81FE05EEC3
:100E400090EA0FFA80FE07EE90EAF8EEC76AF8EE35
:100E5000E77A13ED027ADFF8ACE467EE877AF8EE12
:100E6000E55A13ED047AE5EE877AB8EEC66A13ED1B
:100E7000037AE6EE077A13ED017AE6EE877AFDEE65
:100E8000E77A17EE90CA2EF812C00132C4E798F93B
:100E9000002011ED017A0FFA8CF752420AFB02F2A0
:100EA00007EE907A05EE902A0FFA8EF206EE102ADF
:100EB000F8EEE77AB8EEC66A67EE877A91ED007AC7
:100EC000E6EE077A0FFA80FBF8EEE56A91ED017A1B
:100ED000E6EE877AFDEEE77A17EE902A92B217B225
:100EE0005F4526F8152007DD10461A4601351031FA
:100EF00013464D45CBD305E00FFA83FB5F45F5DB89
:100F00000246F1E7D4F8A82B57881588C5EB070EE1
:100F1000C31A1FFA8EFE19B20FFA8EF0814214DD49
:100F20000DF1320202EB49039A4207D0578817FBB2
:100F30000EF797FBF1F722F8027FF5E7022290FB0C
:100F4000F2F22A4492B2154606E0022391FBF3F333
:100F5000EA18FD1A92B2ADB2B4F8827A00234B457A
:100F60003CD236F913E006EE90EA0FFA87FE07EE60
:100F700090EADFF89CE30EEB031E9EED007AF8EE9C
:100F8000E77A0FFA82FE67EE877A07EE10EAB8EE8C
:100F9000C77A4FEA430CF4EEC77AF1EE10FAF8EE96
:100FA000E66A0DD40FFA85FE07EE10EAB8EEC77AAE
:100FB000F4EE477AF1EE10FAC8BFF0EE477A01E09E
:100FC000F0EE477A76EEA77ADFF838E3FDEEE77ABF
:100FD000013317EE908A2CF80E80C0E705EE900AD8
:100FE00006EE901AB8EEE57AF8EEE67AC7EE277AC2
:100FF0009FEDC07AF4EEC77AF1EE10FA09D4B7EE9D
:10100000007AF4EE477AF1EE10FAC8BFF0EE477AB4
:1010100001E0F0EE477AB84BC3ED007AB74B1A788F
:1010200002F0040202F0FF03002A7CD0D4F8303230
:1010300094F8AF0BB24A089013F0006C1BD11369FF
:10104000DE0416D4B2F8902B01234B4511B208D21E
:10105000AC4A32F913208A42B8BF0A4692B2013331
:10106000F3E7D4F8A83B5D88A94204DD551BADB277
:1010700002E0654600E000252369D4F8D02B0A92EF
:1010800003F48058B4F95812D4F8D40BD4F8A82B30
:1010900003F0100309934FEA490900234B4539D067
:1010A000BCF1000F0BD1B8F1000F40F07787954EDF
:1010B00033F806E0C5EB0E0E23F806E003E0B8F1C6
:1010C000000F40F076878F4E089FB2F802A036F9E5
:1010D00003B047B1B2F804E0F34517DBD345B4BF22
:1010E000DE46D64612E0B2F800E0F34503DBD34516
:1010F000B4BFDE46D6460A9F26F803E03E8AB142D8
:1011000006DA099E26B1B2F804E07E4E23F806E026
:101110000233C3E794F8D82B794B013AD2B2182A9C
:1011200000F259810AE04B45F4D2764A02F14A01B5
:1011300031F8131022F813100133F4E70121914024
:10114000714A0A40002A00F04681B3F8CA21D50549
:101150000CD5B3F87C2AADF83420B3F87E2AB3F866
:10116000803AADF83620ADF8383018E0B3F8C82A28
:101170001969ADF83420B3F8CA2AADF83620C8048E
:10118000B3F8CC2AADF8382009D5B3F95812D3F802
:10119000D03BDB899942BCBF5242ADF83820B4F94C
:1011A000AE1A4FF47A7201F5E16151434FF4616375
:1011B00091FBF3F1A1F5FA71ADF84C10B4F9AC1A4A
:1011C00001F5E1614A4392FBF3F3A3F5FA73ADF83D
:1011D0004E30B4F8903BB4F85222A3F2DC53ADF891
:1011E0003A30D4F8D03BDB89D21AADF83C20B4F8C1
:1011F0005422D21AADF83E20B4F85622D21AADF8D5
:101200004020B4F85822D21AADF84220B4F85A223D
:10121000D21AADF84420B4F85C22D21AADF84620B8
:10122000B4F85E22D21AADF84820B4F86022D31A7E
:10123000ADF84A300022324B03F6F2300021115251
:101240000232102AF7D1D3F83072D3F8040C93F895
:10125000023C08975B000A9309900B460A9E2848B7
:10126000B34200F09D8000F60844621895793DB1C4
:101270000126153506FA05F5089E354000F08A80EE
:10128000675C099892F904B092F8019092F803C053
:1012900092F805A0C7EBC70600EB46064FEA490ED9
:1012A000B6F90000B6F902502D1AADB2642005FB64
:1012B0000BFB9BFBF0FB4FEA5508C8EB0B0B1FFA2F
:1012C0008BFB124814ACBCF1000F03D1744434F80A
:1012D0001C4C0CE0A644C45E3EF91CEC744519DAC3
:1012E000A444A44503DBE645B4BF74466446C45237
:1012F0001BE000BFCDCCCC3D0C00002070170020BF
:10130000C0050020501100209920980138120020BB
:101310009010002009DDCCEB040CF44503DBA44560
:10132000B4BFE646A64620F803E04FF0010ED6F81B
:101330000A60B24892F902200EFA09F919EA060F7A
:101340000CBF76464FF0FF3600F6784E7F0033F83C
:101350000EE012FB0EF24FF0640EC41992FBFEF287
:101360000FFA8BFB5A45B4F8F24BB6B20CDB4FFACE
:101370008AFB05FB0BFB9BFBFEFBC8EB0B0B0FFA81
:101380008BFB9345A8BF934607440BFB064BA7F87E
:10139000F2BB02E000F678401D52023307315DE7F0
:1013A0000024D0F8048C25460E2202FB0582944EC0
:1013B00092F90670A35B17FB03F7642397FBF3F71F
:1013C000A753E8B205F0B2FD01353844082DA0530B
:1013D00004F10204E8D1894C266916F0200827465A
:1013E00034D0002005F0A2FDA4F8F20B0546012040
:1013F00005F09CFDD4F83032A4F8F40B190625D57D
:10140000D4F8983CB4F8AC2A1B78012B22D1D4F83C
:10141000043CB4F9AEEA93F9141093F9063011FBC9
:1014200002F25B4232210EFB03F392FBF1F26FF00A
:10143000310E92B293FBFEFE964493FBF1F175449C
:101440000A44A4F8F25B1044A4F8F40BD4F804ACFA
:10145000002319E0D4F8041CB4F8AE3A91F906E080
:1014600091F914101EFB03FE32239EFBF3FE11FBC9
:1014700002F2754492FBF3F3A4F8F25B1844E3E73D
:10148000D1520233102B10D0C3EBC3055C4A554434
:10149000985EB5F90010B5F9025088429146EFDB2D
:1014A00029B28842B8BF0146EAE7544BD3F8C4BA20
:1014B0009BF90830A3B994F8D8AB0AF1FF33182B85
:1014C00071D8DFE803F02F70704C7070704370704B
:1014D0007070705970707070704C647070592F001B
:1014E0000025484BBBF9062039F90510442000FBC4
:1014F000053006F001F8C5EBC50280B229F80500F9
:10150000524400B2B2F90030B2F90220984203DB33
:1015100013B29842B8BF034629F805300235102DA2
:10152000DFD1C8E79BF804301BB10020B4F8FC1BE6
:1015300008E0354B1B7803F0040303F0FF00002B99
:10154000F3D1014606F0F4FB01252DE00020B4F8AC
:10155000F81B06F0EDFB0120B4F8FA1B07E00020B1
:10156000B4F8FA1B06F0E4FBB4F8FC1B012006F00B
:10157000DFFB022500F00CBD002509EB4503E8B2B6
:101580009988013506F0D4FB062DF6D10CE0002534
:1015900009EB4503E8B2D988013506F0C9FB042DF3
:1015A000F6D100F0F5BC0025B8F1000F02D1BAF178
:1015B000050F0CD12846B4F8F21B06F0B9FB681CE5
:1015C000C0B2B4F8F41B06F0B3FB0235EDB2F20280
:1015D00007D40E4D15F8183CA846DBB10AF008FEFA
:1015E00018E000260A4B03EB4603A819C0B219897C
:1015F00006F09EFB0D2EECD00136F3E7C00500206F
:10160000B21100206012002070170020B8160020D0
:1016100012080020B4F8CA312BB9A94BD3F8240220
:10162000643011F001F9A74B1878002840F0B88118
:1016300023691B0340F1B48115F8173C023B052BCD
:1016400020D89F4B93F8703A33B1012B0AD106F0A2
:10165000E1FAC0F17F0005E09B4B53F8140C0368DE
:101660009B68984755F8103C15F80C2C1344B3F5BB
:10167000807FA8BF4FF480738342D4BF45F8103CED
:1016800045F8100C15F8173C023B082B00F282813C
:10169000DFE813F009004300610077009000A2002A
:1016A0004A0165017101894B1A6855F8043C64339D
:1016B0009A4240F26F81402010F070FE002840F006
:1016C00069814026824B58F8082C7F4C1A441F46EB
:1016D00092F8740170B110F0A3FE54F8101C013997
:1016E00044F8101C54F8081C013E01F1010144F8B3
:1016F000081CE7D155F8082C734B3A4492F8742132
:10170000002A40F0478143F8082C4FF0FF3243F89D
:10171000042C032203F8172C3CE1242300936D4B87
:10172000019303F10C0202924920A3F10A02502115
:1017300002330CF0D2FB002840F02C81236913F017
:1017400080024FF0FF3303D005E909000423B4E021
:1017500045F8082C2AE0604A0223002100930191F9
:101760000291482002F108030CF0B7FB002840F07A
:1017700011814FF0FF3345F8043C45F8080C052370
:101780009BE007230093554B019303F10C02029257
:101790004720A3F10802002104330CF09EFB00282F
:1017A00040F0F88045F8080C4FF0FF3345F8043C52
:1017B000062382E04A4A0523002100930191029109
:1017C000532002F108030CF088FB002840F0E2806F
:1017D00045F8080C072370E0402010F0DFFD0028DA
:1017E00040F0D88055F8083C0C2B5ED8DFE803F0B9
:1017F000070B0E121823272B2F333F494C00394873
:1018000010F0BEFF4BE03848384911E038483949FC
:10181000394A42E0394894F86E1A94F86F2A3CE04D
:1018200094F8483A36480C2202FB037797F84A1A94
:1018300010F0A6FF33E03348B4F8B813F8E73248A5
:10184000B4F8BA13F4E73148D4F8BC11F0E7304BE0
:1018500030489988ECE72B68DE0403D52E4894F8CD
:10186000F013E5E7184B0B2243F8082C17E02B4840
:1018700094F8F41394F8F52394F8F33310F080FF00
:101880000DE02748A988D3E722690D4B100506D53E
:101890002448B3F8F813B3F9F62310F071FF55F8A4
:1018A000083C013345F8083C74E010F0A7FD00281F
:1018B00070D04FF48053EB80092305F8173C69E0A2
:1018C000C005002079170020B8160020D845002058
:1018D0007460010852620108F8630108106401088D
:1018E0005C6401083C72010856720108608B0108B3
:1018F0006B7201087F7201088B72010894720108F3
:10190000A5720108AF720108BE720108CD7201080C
:1019100000000020DD720108E7720108F47201087E
:101920000D73010818730108D4F83032990113D5EA
:101930002B89AF4C83B9E3680D93AE4B0E201B6827
:101940000E930DA910F042FE4FF48053E38009235B
:1019500004F8173C11F03CFC05F0B4FF1AE02B7CB6
:10196000002BF7D0D4F830329A01F3D4A04B0822E0
:1019700003F8172CF0E7A04B1A6855F8043CC8335D
:101980009A4203D90FF032FD012396E710F036FD9D
:101990000028F7D108F0B8FA10B1012305F8173C78
:1019A000964B944E1B7833B933695B0503D5B6F873
:1019B000C60307F077F9D6F810A01AF4803F3EF47A
:1019C00018AC8B4C637C2546002B3EF412AC8C4B40
:1019D0001A7802F0FF03002A7EF40BAC854ADFF888
:1019E0004882D2F8302212F4804F0DD098F80620A9
:1019F0006AB1844A1168844A99500433802BF8D123
:101A000010F094F8002300E0012388F8063098F8DD
:101A10000630002B3EF4EDAB05F0FEF8D4F8943020
:101A2000C31ADB43DB0F0893D4F89830C31A6FEA6C
:101A30000309D4F89C30C31ADB43DB0F0993089BDE
:101A400007464FEAD9792BB9099B1BB9B9F1000FA9
:101A50003EF4CFAB4FF0000B95F8A82064495FFA35
:101A60008BF3934251D2D1F8A0009A0000EB020C04
:101A7000BCF8020010F4006F0ED110F4805F0A442D
:101A800006D09CF80100D1F8A41051F8201001E014
:101A90005C490968C2F81210BCF80220D10510D4C4
:101AA00090052FD5594B1B7813F0040F0CBF584AE3
:101AB000584A5FFA8BF305EB83031268C3F81220D0
:101AC00020E018466146544A0793CDF818C00BF041
:101AD00009FAB6F8CA21079BDDF818C012F0400FCA
:101AE00003D0184661464D4A0AE0910703D51846CF
:101AF00061464B4A04E0D20704D54A4A184661467B
:101B00000BF0F0F90BF1010BA6E7B6F95832D1F85A
:101B1000A0100A91A3F57A7378214B434FF47A71A0
:101B200093FBF1F303F22B130B93910000238B42F1
:101B300014D00A981844408840050DD53248DDF885
:101B40002CE033F800C0F44440F2671E9CFBFEFB1F
:101B50000EFB1BCE23F800E00433E8E7B9F1000FD9
:101B60002AD007F5C33394F8A900A033C4F89830FD
:101B70001F4B08BB1AF0020F83F8AA0005D093F898
:101B8000AB0010B1012083F8AA001AF4807F08D0BE
:101B900096F8AF3B2BB194F8AA3043F0020384F8D7
:101BA000AA301A4B1B7813F0050F05D194F8AA3010
:101BB00043F0040384F8AA3094F8AAE0BEF1000FC1
:101BC00004D10B4B93F8A930002B74D094F8A930B2
:101BD00013F0010FA3F10C0C3CD1032B26D80948BC
:101BE000DFF82CA01EF0040F18BF50461FE000BF06
:101BF000B8160020C0050020D84500207917002025
:101C00007817002038720108CA16002070170020CB
:101C10007460010880600108846401088A64010816
:101C2000906401089664010800000020B748043B56
:101C3000072B04D8B64B1EF0010F18BF18465FFAE9
:101C40008CFCBCF1030F12D8B24B1EF0020F18BF70
:101C500018460CE05FFA8CFCBCF1030F06D8AB4BC6
:101C6000AD481EF0020F08BF184600E0A7484FF02D
:101C7000000C5FFA8CF393420ED2D5F8A03003EB40
:101C80008C035B881B0604D5A44BD0F800A043F856
:101C90002CA00CF1010CECE7B9F1000F15D0BEF14E
:101CA000000F0BD094F8A9209D4B0132D2B2142A18
:101CB00009D1002207E0B9F1000F06D094F8A9304D
:101CC000002BEFD101E083F8A920089B1BB3B6F9E4
:101CD0007E3AB6F97C2A3220002AB8BF5242002B45
:101CE000B8BF5B4293FBF0F392FBF0F0DBB2C0B203
:101CF000834238BF03468B4A0BB192FBF3F23A445E
:101D0000C4F8942094F8AC20854B0AB9012200E075
:101D1000002283F8AC203079814B94F8AC20B0B924
:101D2000099B002B00F025817F4B94F8A8A01D781B
:101D3000D4F8A09098F80780D4F8A4E0002305F028
:101D40000405EDB24FEA8A0A18461946B6E022B9F0
:101D5000764AC3F8B02000230BE06C4AF9E7D5F8C7
:101D6000A0206F481A44B2F802E01EF0400F03D1E1
:101D700004338B42F3D1D3E7B6F97CEABEF1190FF5
:101D800022DD92F800C090F8B490D0F8B0E00CF0EA
:101D90000F0ACA4509DC90F8B590B9EB1C1F04DCAA
:101DA0001230DEF800C043F800C092F800C095F889
:101DB000B6905B480CF00F0ACA452FDB90F8B5903F
:101DC000B9EB1C1F2ADC24E01EF1190F26DA92F869
:101DD00000C090F8B490D0F8B0E00CF00F0ACA45FB
:101DE00009DC90F8B790B9EB1C1F04DB1230DEF869
:101DF00000C043F800C092F800C095F8B69048487B
:101E00000CF00F0ACA4509DB90F8B790B9EB1C1F1C
:101E100004DB1230DEF800E043F800E0B6F97E0A99
:101E200019281CDD92F8009095F8B4E0DFF8F0C0B6
:101E3000D5F8B00009F00F0AF2450ADC9CF8B5A00D
:101E4000BAEB191F05DC0CF1120CD0F8009043F826
:101E50000C90127802F00F0CF4451FDD88E7193062
:101E600086DA92F8009095F8B6E0DFF8B4C0D5F8BD
:101E7000B00009F00F0AF2450ADB9CF8B5A0BAEBF6
:101E8000191F05DC0CF1120CD0F8009043F80C90EF
:101E9000127802F00F0CF445FFF66AAF95F8B7E040
:101EA000BEEB121FFFF664AF1C4A006898505FE754
:101EB00009EB03025488240503D404335345F7D1B6
:101EC00036E04DB100EB080C06249CFBF4FB04FB50
:101ED0001BC4012C0CDC01E049B9012154780EEB44
:101EE00084023EF824B092F802C0D27803E029467A
:101EF000002294469346094C23F804B01C44013058
:101F000084F802C0E270C0B2D7E700BF387201089F
:101F1000786001087C60010880600108CA16002012
:101F2000B8160020400D0300701700209C640108C3
:101F30002E4BDA79013A12F0FF0208BF0622DA715D
:101F40002B4B1B785B070CD5B6F95832A3F57A7387
:101F500003EBC3034FF47A7293FBF2F30133DBB26A
:101F600000E00123234A92FBF3F3234A1F44C2F803
:101F70009C700FF0DBFDFEF73CB9012303731B4B94
:101F800000265E7002F5C333A0338360FEF704BB06
:101F9000B8F1000F3FF41BABFFF70CBB0A9FB0F882
:101FA00006E0FE89CEEB060A514502DDB6447145D6
:101FB00012DB0A9FFE89B142104EC8BFB0F802E0A2
:101FC00036F903A0D6BFB2F804E0B2F802B0B0F818
:101FD00000B0F245FFF781B8B142C8BFB0F802E0E7
:101FE000064ED8BFB0F800E0FFF790B80000002020
:101FF00070170020400D0300B8160020501100207B
:102000002DE9F04F2DED068B9D4C9E4B2360A1B02A
:102010000023636009F0BAFE18B90CF02BFB09F03D
:10202000D9FEDFF8CCB2DFF8CC82974DDFF8C8A23A
:102030000CF0A8FF9BF8003043F001038BF8003050
:1020400005F0E6FB914BC8F80C306B6FA360904B2A
:10205000C8F808306B6B8F4823F080036B636B6F9D
:1020600043F080736B672A6B8B4B13432B636B6B53
:102070006B63AB6BAB632A6C884B13432B646A6C4A
:10208000874B134320AE6B6401238DF84B3048F22D
:10209000FF7346F83C3D002731464FF6FF798DF837
:1020A00048708DF849708DF84A7008F0E3FA7D4861
:1020B000CDF84490314608F0DDFA7B48CDF84490E5
:1020C000314608F0D7FADFF834C2CDF808C06046D0
:1020D000314608F0CFFA7548DFF82492314608F00F
:1020E000C9FA7348314608F0C5FA7248314608F01B
:1020F000C1FA7148314608F0BDFA31466F4808F020
:10210000B9FA304608F062FAA823E3606C4B6D48D8
:102110009F803946102213F011F96B4B6B4A5A60BD
:10212000F02288F823200722DFF8D8819F601A6008
:10213000D8F80830CAF8003099E80F0086E80F0098
:102140002B6BDDF808C0119843F008032B632B6B51
:1021500043F008032B634FF48043ACF818304FF47E
:102160000043ACF8183012A908F0C4FA14A9139867
:1021700008F0C0FA642004F078FD39465448A022E3
:1021800013F0DCF82B6C43F013032B646B6C43F0FF
:1021900001136B644F4B474603F1C0009A7A93F8E2
:1021A0000BE053F8105B02F00701D20805EB820246
:1021B0008900156A4FF00F0C0EFA01FE0CFA01F1BE
:1021C00025EA01011162156A83424EEA0501116296
:1021D000E4D10023DFF8A88008F11002002199540F
:1021E00001330C2BF6D1FF233B4A88F81C3088F8CA
:1021F0001D3088F81E3088F81F30384B1360384D7A
:10220000384A0420107028463022029313F096F8C2
:1022100014222A7002222A760522029B85F82420A5
:10222000314A97F805B082F800B0A3F5F172A3F532
:102230009173C8F8243009EBCB03DAF800505B7CCB
:10224000C8F82830AB0644BF0123C8F82830C8F8C6
:1022500020200023254A40F2DC5199520233102BF2
:10226000F8D10AA800211C2213F068F8BBF10E0F68
:102270004AD00BF0EF0BBBF1080F48D144E000BF90
:102280007C1700204F6D0008003802400005FA0559
:102290000000000800000240FF916700FFC9FE3601
:1022A000335F0700000402400008024000100240B3
:1022B0000014024000180240001C024000200240AE
:1022C00010220020DC45002010E000E03F900200DA
:1022D0002444002024860108F81E00202A0A002039
:1022E0001C2200201822002098110020B21100208A
:1022F000EC45002000ED00E0D0050020000C02407D
:102300004C7E01083808002001238DF83A30052062
:1023100008F0B4FB18B14088003018BF0120C5F3A5
:1023200040038DF82F30C5F380138DF83230C5F39C
:1023300040338DF82830C5F3C03300F001008DF82C
:102340002B3015F400638DF82E0007D097F88231FA
:10235000B3F1010EDEF1000353EB0E038DF82C30C8
:10236000C5F300438DF83330A36AB7F84411ADF8D4
:102370003E10003318BF01238DF83430C5F30053ED
:102380008DF83530B7F84631ADF83830B7F85231FE
:10239000ADF83630C5F380438DF8303097F85431BE
:1023A0001A1C18BF012205F0010BC5F3C0088DF8F7
:1023B0003120ED04B7F850218DF829B08DF82A802E
:1023C000ADF83C2004D5C249B1F84C11ADF83E102F
:1023D000B2F5FA7F02D90BB9ADF83E3097F8D43197
:1023E000BC4884F82C300021642212F0A7FF9DF82D
:1023F0003A30002B14BF02230023BBF1000F02D19F
:10240000B8F1000F00D0013309EB83034FF000094E
:10241000D3F8E0300593CDF81090059931F80930E4
:102420004FF6FF72934200F0A781D8B2AA4A9DF8F6
:1024300033104FEA001B1B0A02EB0B0531B1DFF82A
:10244000C8E252F80B10714500F090819DF82F10F2
:1024500041B1DFF8B8E26968714503D129890129E2
:1024600000F084819DF82B1041B1DFF8A4E2696887
:10247000714503D12989022900F078819DF82C103B
:1024800041B1DFF890E26968714503D129892029BB
:1024900000F06C81022B02D19DF8281003E0012B83
:1024A00004D19DF82910002900F060819DF83510B5
:1024B00031B19DF83A1019B90438032840F22E8141
:1024C000012B4ED19DF8303023B9BDF83C30B3F527
:1024D000FA7F07D952F80B3080498B4204BF03239F
:1024E00084F82D30FF234FF00008298984F87430D8
:1024F00084F875306B7B686884F87880C4F8845001
:10250000ADF844108DF84630314602238DF847303F
:1025100084F83080C4F83480C4F83880C4F83C8033
:10252000C4F8708084F8768084F87780039208F08D
:10253000E1F8039AA97A52F80B0042460BF0E4F94D
:10254000284609F0A7FF664B6649C4F88830664BF9
:10255000C4F88C30C4F8908028460A1D0FF088FD1E
:1025600004E1022B4BD1DDF810E060488DF84730D4
:102570005FFA8EF14FF01C0E0EFB01F100EB01082B
:10258000DDF810E088F801E04FF0000C4FF0010E8C
:1025900088F802C088F80AC000F801E0697BB5F845
:1025A00008E06868C8F80C508DF846103146ADF860
:1025B00044E00392CDF808C008F09CF8DDF808C0AC
:1025C000039AA97A52F80B0062460BF09DF928464F
:1025D00009F060FF464BC8F81030DDF808C0454BE5
:1025E000C8F814302846C8F818C008F1100108F1DE
:1025F00014020FF03DFD049801300490B6E0032B67
:1026000040F08A809DF83030DFF8C8800BB39DF829
:10261000313098F8018053B1BDF83C30364AB2FBF6
:10262000F3F22846082192B2BDF83E3003E0284676
:1026300008214FF6FF720FF04FFB04EB8803C3F83D
:1026400058012E4BC360234B9A7803EBC203192227
:1026500031E0BDF83C3098F801B0B3F5FA7F15D9F8
:10266000254AB2FBF3F292B2BDF83E30284608216B
:102670000FF032FB04EB8B030D22C3F85801204B03
:10268000C36098F8023008EBC30314E01D4AB2FBA4
:10269000F3F292B2BDF83E30284601210FF01CFB48
:1026A00004EB8B030922C3F85801144BC36098F85C
:1026B000023008EBC3035A71064B9A78597803EB42
:1026C000C200013201710131856059709A704DE08C
:1026D00038080020A81F00202086010800000140C3
:1026E000E169000804180020ED6A0008F4170020D2
:1026F00025DA0008C56A000800127A00FD6A0008A1
:102700000D6B000840420F00000C00400008024022
:102710000004024000000240042B27D1DFF874823D
:102720009B4A98F8023098F800B008EBC3030121E7
:1027300083F804B0BDF8363092FBF3F292B2BDF8E4
:10274000383028460FF0C8FA04EB8B030A21C3F88F
:10275000880198F8023008EBC3020133517198F8F0
:10276000002088F80230013288F8002009F10209BF
:10277000B9F1180F7FF451AE864A874B127884F86E
:10278000A821864A1578A5F117024FF0000C022AFD
:1027900083F800C09E461CD8236A6344D3ED007AB8
:1027A000F5EE407AF1EE10FA02D1A36A83BB2AE07B
:1027B0007B4A0CEB02080FCB88E80F009EF8003034
:1027C0000CF1100C0133BCF1C00F8EF80030E3D1D6
:1027D000EBE7744B03EBC503D3F814B093F81090F8
:1027E0008EF80090BBF1000FDFD0CC45DDDA6C4AEB
:1027F0004FEA0C1303EB02085B440FCB0CF1010C06
:1028000088E80F00F1E7DAF80030D80427D420E098
:10281000644B654A03EBC503D3F8F44093F8F0002A
:102820001070002CEFD000238342ECDAC3EBC3011D
:102830006218DFF8A081D2F8009041F8089001EB0F
:10284000080C9188ACF8041092798CF806200133BA
:10285000EAE705F0EF03082B544B20D121E09EF866
:1028600000100129F5D9524B00228A4203F11003CE
:10287000EFDA13ED047AF6EE007A27EE277A0132CA
:1028800003ED047A13ED057A27EE277A03ED057A36
:1028900013ED037A67EE277A43ED037AE5E70E2D11
:1028A00008D11A7842F010021A70182D08D104F0DD
:1028B00018FB05E01A7822F010021A70192DF5E7BE
:1028C00009F07AFCDAF80030590302D4394B0122BE
:1028D0001A70394A394C13783948DFF8FCB043F0A4
:1028E0000403137011238DF8463002238DF847300E
:1028F000236B01252B433146ADF84450236307F089
:10290000F9FE304B304A1A60002004F0EDF92F4BED
:1029100093E80300236B86E8030043F0040323637A
:1029200012A9119807F0E6FE07F0C1F811F086FB36
:102930000EF0BCFA00200EF02BFB584600211022AE
:10294000DAF8004012F0FAFC4FF6FF730893032305
:102950004FF0000A8DF8243014F0020304F400490B
:1029600004F400688DF825A08DF826A08DF827A026
:102970005C4633D020A9164841F8605D07F07AFE26
:102980000723257084F801A0A570E37027E000BF3D
:1029900040420F00A81F0020FC07002098110020D3
:1029A000901000204C7E0108C21100206507002015
:1029B00098100020A0160020EC45002000380240AE
:1029C00000000240501D0020DD6800080C80010856
:1029D00000080240C8110020CC1D00201D46B9F19E
:1029E000000F0FD020A9022341F8603D814807F075
:1029F00041FE0C2301222371A2716B1C0722657119
:102A0000E271DDB2B8F1000F0FD020A9202341F808
:102A1000603D794807F02EFE022301222373A27342
:102A20006B1C07226573E273DDB2744B74481A6B3A
:102A3000DFF8CC9142F480021A631A6B42F0040270
:102A40001A635A6C42F480725A6407F011FD3046E2
:102A500007F0D2FC6B4B12934FF00008022D6A4B2B
:102A6000139334BF43464FF4806317934FF40063CE
:102A700018934FF4005319934FF480731A934846F8
:102A80004FF40033314615951B93CDF84480CDF8B3
:102A90005080CDF8588007F0C0FCD9F800305B4A70
:102AA00043F00103C9F800305168594B0B4043F41F
:102AB00040335360574B5A68012D22F0407294BF47
:102AC0000021012122F4807242EA01225A609968B1
:102AD000514A0A4042F002029A60DA6A013D22F449
:102AE0007002EDB242EA0555DD6240460122261829
:102AF000B178002958D0215C96F803E0551C0929CB
:102B0000EDB211D9A1F10A0606EB4606D3F80C8006
:102B10004FF0070C0CFA06FC28EA0C0C0EFA06FE25
:102B20004CEA0E06DE600EE001EB4106D3F81080A1
:102B30004FF0070C0CFA06FC28EA0C0C0EFA06FE05
:102B40004CEA0E061E61062A0ED8013A02EB8202FA
:102B50005E6B4FF01F0E0EFA02FE26EA0E06914043
:102B600046EA01025A6320E00C2A0ED8073A02EB2B
:102B700082021E6B4FF01F0E0EFA02FE26EA0E06B0
:102B8000914046EA01021A630FE00D3A02EB82021D
:102B9000DE6A4FF01F0E0EFA02FE26EA0E06914084
:102BA00046EA0102DA6200E015460430102801D03E
:102BB0002A469CE79A68194D42F400729A609A6816
:102BC00042F480729A609A6842F001029A609A68B0
:102BD00042F080429A60B5F858214AB9B5F95A31A5
:102BE000F3B9B5F95C31D3F1010338BF002318E024
:102BF000002316E0000402400000024000380240BA
:102C0000706402404C200140DC1D00200023014084
:102C1000E030FCFF00200140FDF7FFC03808002035
:102C2000134613F00103A64C6AD1A649B7F95CE13B
:102C30000B7012B208EE902AB7F95A31DFEDA27A82
:102C4000F8EEE88A08EE103A0AEE90EA68EEA78AF3
:102C5000B8EEC88AF8EEEAAAB0EE680A28EE278A2B
:102C60006AEEA7AA04F040FCB0EE409AB0EE680A03
:102C700004F0DAFBF0EE409AB0EE480A04F034FCBF
:102C8000F0EE408AB0EE480A04F0CEFBB0EE408A87
:102C9000B0EE6A0A04F028FCB0EE40AAB0EE6A0A70
:102CA00004F0C2FB20EE097A69EE8A7AF0EE475A08
:102CB000E7EE885A2AEE096A69EE806AC4ED6E5A18
:102CC000F0EE465AE6EEC85AE7EE087AE6EE486AB3
:102CD0002AEE28AA28EEC00A69EEE89A68EE898AE8
:102CE00084ED6BAA84ED6C0A84ED6D8AC4ED6F5A95
:102CF000C4ED709AC4ED716AC4ED727AC4ED738A42
:102D0000724B6F4E1A6897F85F91B2F8628097F82D
:102D100061A1029300210C2206F5E87012F00EFB6F
:102D20004FF0000B00211422694812F007FB5946AE
:102D300084F8DCB10C2286F8DDB106F5F07012F0F3
:102D4000FDFA644AC4F8EC21232003F08EFF7520BD
:102D500001210DF11B020EF087FA029B1F46B0B154
:102D60005D4BC6F8E4315D4BC6F8E8315846432365
:102D7000012107AA86F8E0310EF076FA9DF81C30A2
:102D800003F07E038DF81C3000284CD154E096F8F7
:102D9000F031002B2FD1524B5A6C42F010025A6482
:102DA00003238DF847304F4B02934FF480624FF06E
:102DB000010B184611A9ADF8442003928DF846B0D6
:102DC00007F098FC029B039A1A83474B1A8822F05B
:102DD00040021204120C1A801A8822F038021204DF
:102DE000120C42F030021A801A8892B242F040026D
:102DF0001A8086F8F0B17520012111AA09F02EFB86
:102E00009DF84430712B01D0702B78D1052384F8C4
:102E1000DC31432384F8E031344BC4F8E431344BE3
:102E2000C4F8E8316BE0682B06D1012386F8DC3169
:102E30001D2386F8E03162E09DF81B3003F07E032D
:102E4000682B8DF81B3055D10223062084F8DC3125
:102E50000146D4F8E4311A4E11AA98479DF847303C
:102E60009DF849B003F001035B000BF0010B43EA4E
:102E70008B0B9DF8453003F001035BEA030B0BD08D
:102E8000BBF1010F01D1002303E0BBF1020F0ED112
:102E9000012386F8DD3132E0D6F8E4310C2001213F
:102EA00008AA98479DF8203013F00F0303D10320A0
:102EB00007F0BDFE23E0042BEAD186F8DDB11EE069
:102EC0007C1700201000002035FA8E3CE40700201B
:102ED0006C0700201480010869120108E91101083B
:102EE0000038024000100240003800405DC4000875
:102EF00027CE0008702B04BF042384F8DC31484E31
:102F000094F8DC2100233370131F012B00F211868B
:102F1000444B45491960454959604549D96045497F
:102F2000DFF830C119610421317007218CF80010DD
:102F300041490868B9F1090F40F0010EC1F800E0FD
:102F400060468B4600F2F1854FF0010E0EFA09FE45
:102F500040F202210EEA0101002940F0DE8540F234
:102F6000FD110EEA0101002900F0D785042A40F086
:102F7000D185324AC4F8D021314AC4F8D421314A2B
:102F80000421117008224270DBF8002042F0020296
:102F9000CBF80020DBF80020920704D5D4F8D0212C
:102FA00002939047029B284A1B68FA214FF00009C0
:102FB000116084F8F1910222504684F8F22198477A
:102FC000224A95F8553182F8009003B1337095F894
:102FD00056310BB11B490B7095F8573103B1137083
:102FE000DBF800301B0737D50FFA88F8642398FB0D
:102FF000F3F203FB12880FFA88F807EE108AF8EE56
:10300000C76A07EE102AF8EEC77A9FED117AE6EE4E
:10301000877AB2EE047A67EE877AC4ED7D7A1EE095
:103020008C0700206C070020E5BC0008496B0008F5
:103030002D6B000890C1793D68070020D1BC0008C5
:10304000CD6B00084C1D002080070020541D00207F
:103050008988883C180000200023C4F8F431C84B4C
:103060001A8822F040021204120C1A801A8822F0E8
:1030700038021204120C1A801A8892B242F04002EE
:103080001A80C04B1A7842F002021A70BE4B4FF4FD
:1030900000425A834FF480421A834FF00A08BA4E16
:1030A000736983F400437361736983F480437361CC
:1030B000192003F0DAFD012003F016FE192003F0B9
:1030C000D4FD08F1FF38002003F00EFE18F0FF08D1
:1030D000E5D14FF4804333834FF400433383D4F876
:1030E000F8319FEDAA8A1B7BA94E00EE103AB8EE8C
:1030F000C00A20EE080A04F0F7F9A64B9FEDA67A65
:10310000D3ED047AA54B84ED7F0A1B8827EE888ACD
:1031100007EE903AF8EEE77A84ED808AC7EE277AD8
:103120009FED9F7AC7EE877AC4ED817A03F018FF8E
:10313000FF211C22304612F001F91B227270994ABD
:10314000994B126886F80080022112F0020F197064
:10315000304604D00126867004261E70C1705607C2
:1031600004D519784E1C1E700326465412F00A0F1F
:103170000CD01A7804218154511CC9B2052646543A
:10318000D11C0232D2B2197006218154874E3268A6
:10319000910608D5197801F1010E83F800E04FF08F
:1031A000070E00F801E011060ED519784FF0090E50
:1031B00000F801E001F1020E0131C9B283F800E02C
:1031C0004FF00A0E00F801E06979082901D00E29B4
:1031D00009D193F800E00EF1010C83F800C04FF024
:1031E0000B0C00F80EC093F800E00EF1010C5FFA32
:1031F0008CFC4FF00C0812F4803F83F800C000F8FC
:103200000E800BD0DFF8A0810EF1020E88F800E0EE
:10321000DFF87CE14FF00E080EF80C8012F0040F7E
:1032200009D093F800E00EF1010C83F800C04FF0D4
:10323000100C00F80EC093F800E00EF1010C5FFADC
:103240008CFC4FF0120812F4806F83F800C000F875
:103250000E8010D095F81482B8F1000F0BD0DFF873
:1032600048810EF1020E88F800E0DFF824E14FF00B
:1032700013080EF80C8012F4007F09D093F800E0D8
:103280000EF1010C83F800C04FF0150C00F80EC0D1
:10329000182917D193F800E04FF0160C00F80EC073
:1032A0000EF1010C5FFA8CFC4FF0170800F80C804F
:1032B0000EF1030C0EF1020E5FFA8EFE83F800C0D1
:1032C00000F80E10110308D5197801F1010E83F8EA
:1032D00000E04FF0190E00F801E0D20504D51A788D
:1032E000511C19701A2181541A78511C1970142319
:1032F0008354002198222E4812F020F80EF038F85E
:103300002C49B5F84E31A4F80C3200230B808B7099
:103310003968B5F89401284AC4F8082201F1850CEF
:10332000264984F80E320A6082B22549DFF894807B
:10333000D1F80090DFF890E023F8082009F596799D
:103340004EF813900233242B8946EED1D6F800E0D4
:103350001EF4805F0CBFB5F89C311346A8F8063008
:1033600000231CF80320002A3DD10CEB03029178C6
:1033700092F803A0514536D241B3013928E000BF8D
:1033800000380040EC450020000C024035FA8E3C2D
:10339000AB2100206C0700200AE81C41040000203B
:1033A00000401C4668070020AA210020D00500200C
:1033B0005C1E00206C110020BE090020D8050020F2
:1033C000D8450020120800208C1900200AF10101C4
:1033D000527801EB810101EB810101F56171043249
:1033E00089B228F812100433502BBAD11EF0080FFE
:1033F00000F0BA8095F88E31062B00F2AF80DFE83E
:1034000003F004070E35506E6E0045F2F05201E0F5
:1034100042F6F8227C4B1A800EF036F89DE07A4B8B
:1034200042F6F8221A8000010A2390FBF3F0A0F57F
:10343000B0600023754A98500433482BFAD1744B7E
:10344000744A5A60744B122240201A7007F054FBE1
:10345000002800F0838001234FF0070C90F9000052
:103460006E4A8DE8081040216D4B71E0664B42F6C4
:10347000F8221A80664B6B4A5A60674B1022402034
:103480001A7007F039FB002868D001234FF0000EB6
:1034900090F90000644A8DE8084040214FF4E13380
:1034A00056E0594B42F6F8221A80594B5F4A5A604F
:1034B000594B082240201A7007F01EFB00284DD0FF
:1034C0000123002590F90000594A8DE82800402189
:1034D0004FF4E13310F0E4F8C4F858023AE04A4AF5
:1034E000544842F6F82111804B490C22062B0A70F1
:1034F00010D00023037084F85C3284F85D321B2303
:1035000084F85E32052384F85F2284F860324FF439
:10351000E1350DE00021017084F85C1284F85D1241
:10352000454D84F85F22212184F85E1284F86032D0
:10353000374B424A5A60402007F0DEFA70B1012151
:1035400000233F4A90F900008DE80A0040212B46F5
:1035500010F0A6F8003018BF012028B9082004F0A8
:1035600047F92B4B374A5A6033682B4A13F4804F84
:1035700004D01221117026493348486042F20101FB
:10358000194003F0010003F4005581B11E4944F6CF
:10359000206EA1F800E025B1082111701C492B4DC7
:1035A0004D6020B10C2111701949294848601178EB
:1035B000043951701A0640F189804FF00008254DFA
:1035C000DFF898A0DFF898B02348C4F864A2414619
:1035D000152285F80180C5F80480C5F8088011F02F
:1035E000ADFEAAF105034046CBF8003009F042FDDC
:1035F000D9F80030EB60022007F07EFA594688BB0C
:10360000802004F0F5F85AE09A1D00202C060020D6
:103610001000002035A00008C7210020A9A2000842
:10362000A086010025A00008F9A1000811A000084B
:10363000ADA100081007002090D00300D19F000822
:103640008DA0000889A0000865A0000871A00008EE
:103650007DA0000840070020E41900202A0A00206D
:103660006007002090F805E06B78C74A4FF00C0C1B
:103670000CFB032C9CF801C0F44504D00133DBB2F1
:10368000042BF2D900236B700B6890F900001B78B3
:10369000002B6B784FF00C0505FB03220CBF0121BA
:1036A0000321537800910022019202210FF0F8FFCC
:1036B000B64B18600028A3D0012009F0DBFC386865
:1036C000B34B00F5CB721A6004F004FAB14AB24B66
:1036D0001360B24ADFF8F892803313603368002534
:1036E00013F4803F89F800500DF1440800F0C080C9
:1036F000DFF8E0B240F22A3A012704F093F92946B4
:103700005246584689F8007011F018FEA44BDFF8B5
:10371000C8921A6B3A431A631A6C42F008021A6490
:103720001A6B42F400121A63022348468DF82430C3
:1037300008A903238DF8253008978DF827708DF898
:10374000265006F097FFD9F8203023F00F03C9F870
:103750002030D9F8203043F00203C9F82030914BD3
:103760001A8822F001021204120C1A801A8822F41C
:103770005C721204120C1A806822DA621D859F8224
:103780001A8C22F001021204120C1A841A8C9888E6
:10379000198B22F0020221F0730109041204090CB2
:1037A000120C41F0600180B23A43988019835D6346
:1037B0001A841A8B22F008021204120C42F008023A
:1037C0001A831A8809F5C04992B209F140093A43AF
:1037D0001A80D9F8003023F00103C9F800304846B8
:1037E00006F046FE404606F007FE4FF04063119398
:1037F0006D4B1293402314934FF4806317934FF44F
:10380000805318934FF4804319934FF440331B9324
:103810004846042341461C93CDF84CB0CDF854A043
:1038200016951A951D951E951F9506F0F6FDD9F86B
:10383000003043F01003C9F800305C4B4FF4001225
:103840009A6007A80D238DF81C308DF81D708DF837
:103850001E508DF81F7006F091FE554B1A68554B9F
:10386000EA500435802DF8D10EF060F90EF05EF9C3
:1038700033685B0553D5504BD4F8A8751F600420FE
:1038800007F03AF90421C4F8AC0507F00BF94B4BEB
:1038900084F8B00508201F6007F02EF9484B494D09
:1038A0001860082107F0FEF8002184F8B1052C22E9
:1038B000284611F043FD8E236B704FF07C0AE02305
:1038C0004FF07D09EB7085F800A085F82B903E4DF8
:1038D0002C220021284611F031FD8A236B70102024
:1038E000A023EB7085F800A085F82B90C4F8B47580
:1038F00007F002F91021C4F8B80507F0D3F884F8EE
:10390000BC052020C4F8C07507F0F6F82021C4F8E3
:10391000C40507F0C7F884F8C8050DF0B3FF2B4CB9
:10392000238823F040031B041B0C2380238823F0EF
:1039300038031B041B0C238023889BB243F04003F5
:10394000238000259F2332208DF820308DF82150D0
:103950008DF822508DF8235003F087F98DF84550EB
:1039600005F1804505F50135082708AA04236F8372
:103970002046414608F0E6FC2F839DF846209DF83E
:103980004530BA402AE000BFA46001083C0700208F
:1039900074100020581700205C0A00205C170020DB
:1039A00000380240000C0040340C0040006002402F
:1039B000BC640108CA16002070220020C422002026
:1039C0001023002094220020C8220020003C004048
:1039D000C9160020F91900200000024042EA034203
:1039E0009DF847301A43574B9A42574B17D008D887
:1039F00056498A420CD001F51A4102318A4209D057
:103A00001CE053498A4205D001318A4207D015E0B3
:103A1000202200E080221A804FF4807202E04FF4EE
:103A200080721A805A809A88198812029A604A43D2
:103A3000DA60484A012182F8C91504E000221A80A0
:103A40005A809A60DA60DD6805B3ED0AA94600275E
:103A5000AF4208DA7C196410E0024146102208F0F7
:103A6000D3FC0F2807DC0EF081FC3A4B4FEAC92249
:103A7000C3F8CC250AE0002358F8032001325DD1B9
:103A80000433102BF8D1A1462546E1E73368324ACA
:103A900013F4002318BF0123137003F0BDF82F4B5C
:103AA00018602F4B5A79052A194603D12D4B4FF434
:103AB000C8721A802C4B4FF47A721A802B4B1A78EA
:103AC00042F008021A702A4B1A7822F002021A7089
:103AD000326840F6020313406BB1264B264A1A6047
:103AE000264B03221A70264B01221A70254A002306
:103AF0001380254A13808B683360244B01221A708F
:103B0000234B1A7862F07F021A7021B0BDEC068B4D
:103B1000BDE8F08F052A3FF42CAAB9F1010F04D8B3
:103B20001C4A00211170FFF735BA4FF00009FFF76A
:103B30000BBA012007F07BF8FFF7A3BA671C2C46ED
:103B4000A2E700BF18BA20002000002015202000A6
:103B50001740EF007C170020A1160020EC07002082
:103B6000380800201C1E0020761700206507002062
:103B70007017002068220020B00900206317002081
:103B800031000020BE1D0020C01D0020A016002016
:103B9000EC4500204C1D00202DE9F04FC54AC64BD6
:103BA000D2F800E0B3F90600BEF80A302DED028B22
:103BB00098428FB00FDBB0F5FA6F9EF8077007DA06
:103BC000C21A5743A3F5FA6397FBF3F7643703E090
:103BD000C7F1640700E06427B84BB3F89421029260
:103BE000B74A93F95E31D2F800C09BB2002103932B
:103BF00065460A46B04B029C31F903B0C4EB0B0397
:103C000003F2F31640F2E634A64203D8002BB8BF05
:103C10005B4201E04FF4FA73022A4FF06406A94CAC
:103C20002ED09CF81D81B8F1000F04D04345CCBFC5
:103C3000C8EB0303002393FBF6F86FF0630A34F834
:103C400018900AFB083A08F1010834F918800FFAB5
:103C500089F4C4EB080404FB0AF494FBF6F4A144D1
:103C6000994C21F804900EEB020424796343974C9D
:103C700093FBF4F364339BB27B4393FBF6F630E0A3
:103C80009CF81E81B8F1000F04D04345CCBFC8EBAF
:103C90000303002393FBF6F66FF0630904EB460879
:103CA00009FB063A04EB4606B8F90E80B6F9104057
:103CB000854EC8EB040404FB0AFA9AFBF9FA039C4C
:103CC000C8EB0A0808FB04F8A6F804809EF8064032
:103CD00083EAE376A6EBE37666437C4C96FBF4F648
:103CE00064360CEB0208774B98F8019003F11C0442
:103CF0004FF0640806FB09F999FBF8F902F8049003
:103D000095F80B9003F11F0406FB09F999FBF8F9EC
:103D100002F8049095F8159003F1220406FB09F6C9
:103D2000022A96FBF8F616551C4616BF253383F873
:103D30002780D754029B644E9B4502DA735A5B423C
:103D400073520231062902F1010205F101057FF4E7
:103D500051AF5A4DB5F89631984205DBB0F5FA6F80
:103D6000A8BF4FF4FA6000E01846C01A4FF47A7208
:103D70005043C3F5FA63B0FBF3F34FF0640E93FBCB
:103D8000FEF204EB42016FF0630000FB023304EB30
:103D90004202098DB2F92A004B4F0AB2821A5343EC
:103DA00093FBFEFE4A4B1B887144F18059063AD5BD
:103DB000484BDFED497AB3F904200A2392FBF3F371
:103DC000404AB2F840209B1A1BB208EE903AF8EE37
:103DD000E88A68EEA78AB0EE680A03F085FBB0EEC9
:103DE000408AB0EE680A03F01FFBB7F90220B7F96A
:103DF000003006EE902A07EE903AF8EEE66AF8EE0A
:103E0000E77A20EE667AA7EE887A67EE807ABDEED2
:103E1000C77AE6EE887A17EE103AFDEEE77A3B8035
:103E200017EE903A7B8095F89A31002B7BD02B4B84
:103E3000244F1B88DFED2A0AB4F8428000EE103AC6
:103E40000121B8EE400A07F1440003F0F1F8BCEE9E
:103E5000C00A244B10EE101A89B2B8FBF1F101F13F
:103E6000010C1B781FFA8CFCA4F84CC0002B3BD033
:103E7000B7F84EB00023134AF75A02F1500E02F180
:103E8000580033F80EA033F800801F521AFB0BFACB
:103E90000FFA8CF9C8EB07089AFBF9F9C84423F824
:103EA0000E800233082BE6D10E4BA2F84E100020F4
:103EB00018701EE080100020120800203808002032
:103EC000E4070020581D00203C1000200CFEFFFFDE
:103ED0008A0700206C10002035FA8E3CE80700208D
:103EE0006F12833A35070020B7F84E30013BA7F830
:103EF0004E30B4F84E10BB4A0BB2002B4FF000030B
:103F00000FDDB2F94C70B84A985A083210FB01F034
:103F10009A5A90FBF7F0121AF2520233082BF2D1A0
:103F200001E0A2F84E30B14B1A6812F0020F9A4627
:103F300074D0AF4B226E1B68AA4F9A1A45F2072124
:103F40008A426BDD3B6608F0B0FFAA4BDFF8D882EF
:103F50001A78032A9946B8F8003022D10A2B2CD9B6
:103F60000023282089F8003002F07FFE08F09DFF32
:103F7000B7F8640006F088FC9F4BA0491B68DA780C
:103F800090FBF2F0421C082A28BF08220A705979D7
:103F90001B7992B251435A43A7F86610A7F86820DC
:103FA0000BE00A2B09D80323944A89F80030002338
:103FB0001370A7F86630A7F8683099F800208D4B89
:103FC000012A0DD002D3022A1ED027E0B4F86620C1
:103FD000B8F800309A4221DD012389F8003011E061
:103FE000B8F80020B4F86810914202DD02221A707D
:103FF00011E07C49B1F8661001318A4202DD0022ED
:104000001A700BE0082007E0B4F86830B8F8002018
:1040100001339A42E0DC072007F0F2FFDAF8007083
:104020003A0579D5724BE16E1A686E4BC1EB020A04
:1040300045F207218A456FDDDA666F4AB6F90690C8
:10404000D2F800806E4898F80A20B0F84E116D4EF4
:10405000012AA9F57A7903D047D3022A23D046E072
:1040600093F88120196F03EB4202B2F88400082212
:1040700091FBF2FE80B2CEEB0101014491FBF2F222
:10408000A3F88C0092B21967B8F8080040F6E44330
:104090005343C0EB13334FF47A725343B8F90620FD
:1040A00093FBF2F322E0584BB8F808B01B78C6F83F
:1040B00000B05B071BD500F5C37007F083FF20B984
:1040C00017F0100F18BF4FF0000909FB09F2322357
:1040D00092FBF3F39944B8F906304FF47A7203FB7C
:1040E00009F393FBF2F35B4400E000233360336891
:1040F000464AD4E9240103FB0AFA4FF47A739AFB87
:10410000F3FA10EB0A0041EBEA710023C4E9240141
:1041100010F0FCF93E4B18603E4B1A6812F4805FB9
:10412000984626D03E0621D53B4B1B7898071DD5D7
:104130003A4B1978042919D90023394E05229A558A
:104140001E44981C0A27122BC2B2777004D0B1EB20
:10415000520F0346F1D800E014222244322382F8A1
:104160009730FF2382F898300F2000E00A2007F0F4
:1041700047FFD4F8B0301B4E002B7FD0294AD6F829
:10418000B41010688142914678D896F8B800B6F815
:10419000BA205968002849D1012086F8B8008A5C05
:1041A000002A4FD01A78164B013AD3F8FC3700FAA0
:1041B00002F21A4201D102F097FD012384F8BC30CB
:1041C00006F078FBB4F8BA30064E002B3AD1D6F898
:1041D000B0301B78053B012B34D802F01DFDC6F82A
:1041E000C0002FE0581D0020A81D0020D005002091
:1041F000C005002063170020682200203100002045
:10420000380800207422002070170020407E05002E
:1042100078220020F00700206507002064070020B6
:10422000F01D0020D84500206C220020002786F8D1
:10423000B8708B5C33B1384602F056FD86F8BC701E
:1042400006F038FBD4F8B020B4F8BA105268B24B7C
:10425000525CFE2A03D10022A3F8BA200EE0FF2A06
:1042600002D108F0A8FD09E0D9F800000A2616FBE3
:1042700002020131C3F8B420A3F8BA10A74E337874
:10428000590704D5A64B4FF480425A8334E0D8F83E
:104290000020D2075CBF43F001033370A14B1B78B1
:1042A0001F0703D4337823F001033370B4F8C4300C
:1042B0001BB19D4B1B68980705D49C4B1B88003392
:1042C00018BF012300E001233BB1022384F8BC3076
:1042D000337823F00103337005E03278D10758BFFB
:1042E000022384F8BC3002F097FCD4F8C830C01A1E
:1042F000002801DB06F0DEFA8D4F0DF0C3FA3B78A3
:10430000002B7AD0D4F8CC30002B01F01780D4F8F1
:10431000CC00814D02F004FD002801F00F80D5F89B
:10432000CC0002F0F8FC092801D03F2857D14FF00B
:104330000009D4F8D060DFF814824D4636B17D48CC
:10434000D8F80010324611F041F810B9C14605B94D
:104350004546794B08F110089845EFD3FDB1D4F8E4
:10436000D0302A686C4812F803E0D9F80020D15CFC
:10437000714514D15A1C61B92D2B0AD8C0F8D02030
:10438000034402444FF0200E83F8D4E082F8D410A6
:1043900005E02344C4F8D02083F8D4E0DFE7D4F864
:1043A000D0300BB14D4510D0644806F019FB4D4597
:1043B00007D855F8100B06F013FB092006F009FB8F
:1043C000F5E75F4806F00CFB0026D4F8D0309E429B
:1043D0009DD2584B985D06F0FCFA0136F5E7D5F80A
:1043E000D030002B41F00C80042841F0798005F199
:1043F000D40007F08FFF00F0A1BF524F97F84A306A
:10440000012B40F09687DFF84081DFF844913B684C
:10441000C8F80070C9F80030DFF834A152461068BF
:1044200002F07EFC002800F07887DAF8000002F045
:1044300072FC454A136893F8482083461AB9242829
:104440003BD1012236E0012A04D14D280CBF0222C3
:1044500000222FE0022A04D13C280CBF03220022B4
:1044600028E0032A09D140284FF0000222D81A710F
:10447000DA715871987104221CE0042A08D19A79E3
:1044800083F8490080EA020B83F806B0052211E0A8
:10449000052A17D159791A799142997906D941405B
:1044A0009971511C1971134418720BE081420CBFB1
:1044B0000622002283F8482004E03278174B520786
:1044C00040F17887DFF880A05246136893F848B02F
:1044D000BBF1060FA0D193F8490003F05DFC002862
:1044E00040F01487DAF8002092F849304C2B00F0A5
:1044F000EA8400F2AE80352B00F0B98258D82B2B1D
:1045000000F0B7843ED8252B00F08C8422D8232BD2
:1045100000F0188100F071BF581D002070170020B6
:10452000000C024065070020680700207617002075
:10453000791700202C1E0020B08801082C8B010860
:10454000318B01085C1E002020230020E08601083A
:1045500024230020272B00F06C84292B40F04D876A
:1045600006F024FAA5F87E0106F020FAA5F88001ED
:1045700006F011FA85F8820106F018FAA5F8840110
:1045800000F0C1BE2F2B00F0218504D82D2B00F0A8
:10459000758400F032BF312B00F02D85332B40F0B5
:1045A0002C8706F0F8F9DF4B83F8900100F0ABBEE2
:1045B000412B00F0C5841AD8392B00F0498404D867
:1045C000372B00F0CA8400F018BF3C2B00F0FB80B2
:1045D0003E2B40F0128706F0DEF9DFF8488388F8BA
:1045E000E00106F0D8F988F8DF0100F08CBE442B1A
:1045F00000F0358525D8432B40F0FF8606F0CBF937
:104600000023AB60687106F0DBF903F0F9F806F0FF
:10461000C2F985F88E0106F0C9F9A5F8580106F02F
:10462000C5F9A5F85A0106F0C1F9A5F85C0106F034
:10463000BDF9A5F87E0106F0B9F9A5F8800100F0F2
:1046400062BE482B00F084834A2B00F05C8600F0A9
:10465000D4BED12B00F0A78320D8CC2B00F0308221
:104660000FD8C82B64D004D84E2B00F03B8400F048
:10467000C4BEC92B00F06F83CA2B00F0BD8000F0D0
:10468000BCBECE2B00F05683C0F04B83CF2B00F086
:104690006B82D02B00F03A8300F0AFBED82B00F035
:1046A00055810DD8D32B3DD029D3D42B00F0A28235
:1046B000D62B08BF4FF0000800F0918200F09DBE9D
:1046C000F22B00F0E78212D8EF2B40F09686DFF84D
:1046D0007082D8F8009006F069F9A9F86600D8F859
:1046E000008006F063F9A8F8640000F00CBEF32B1C
:1046F00000F0CA84FA2B00F0278300F07EBE3378E6
:1047000003F0040303F0FF08002B40F0FC8506F0E3
:1047100042F9844B022883F8D00740F2FD8283F8E7
:10472000D087F9E206F042F9A4F8A40100F0EBBD4D
:1047300092F805804FEA5808B8F1120F1CD84FF0D4
:1047400000091DE006F027F9132815D8DFF8F091CD
:10475000D9F8003000F1200A03EB8A0A06F01BF9B1
:10476000714B0AF1050803F5AE72197A814200F027
:104770005D810C339342F8D108F062FF00F0C3BDB5
:10478000C14507D206F012F905AB23F8190009F16B
:104790000109F5E700234345644A06DA05A931F823
:1047A000131022F813100133F5E708F1FF3802EB7C
:1047B00048032232934203D0002123F8021FF9E775
:1047C00001225B4BBEE2DFF87881D8F8009006F05A
:1047D000E2F818B10228A8BF022000E0012089F801
:1047E0000000D8F800301B78022B524B14BF524AFD
:1047F000524A1A6000F087BD514B1A681278022A9B
:104800004FF00008994670D1D9F800A006F0C3F81F
:1048100007EE100AF8EE477AB2EE048AC7EE887AFD
:104820000AEB8803D9F800A0C3ED087A06F0B3F8C4
:1048300007EE900AB8EE677ADFED427AC7EE277A84
:104840000AEB8803D9F800A0C3ED0B7A06F0A3F8B1
:1048500007EE900AB8EE677ADFED3B7AC7EE277A6B
:104860000AEB880308F10108B8F1030FC3ED0E7AD3
:10487000CAD1B8F1070FD9F800A01CD106F08BF807
:1048800007EE100AF8EE477AC7EE887ACAED117A79
:10489000D9F800A006F07FF807EE100AF8EE477A84
:1048A000C7EE887ACAED127AD9F800A006F073F83C
:1048B0008AF84C0012E006F06EF80AEB0803587014
:1048C000D9F800A006F067F80AEB0803D9F800A0B1
:1048D000D87206F060F80AEB0803587508F1010871
:1048E000B8F10A0FC5D100F00EBDD9F800A006F04E
:1048F00052F80AEB08035870D9F800A006F04BF8FC
:104900000AEB0803D9F800A0D87206F044F80AEBC5
:10491000080308F10108B8F10A0F5875E5D100F055
:10492000F2BC00BF38080020B0880108FE1E00203D
:104930001107002008000020BDAC0008F1050108A7
:10494000E40700200000C84200007A448046DFF8F7
:10495000AC939FEDE68AD9F800A006F027F807EEA1
:10496000100AF8EE477A0AEB8803C7EE887AD9F87E
:1049700000A0C3ED087A06F019F807EE100AF8EE69
:10498000477A0AEB8803C7EE887AD9F800A0C3ED0E
:104990000B7A06F00BF807EE100AF8EE477A0AEBEE
:1049A0008803C7EE887A08F10108B8F1030FC3ED58
:1049B0000E7ACCD1B8F1070FD9F800A01CD105F0C0
:1049C000F5FF07EE100AF8EE477AC7EE887ACAEDCF
:1049D000117AD9F800A005F0E9FF07EE100AF8EE09
:1049E000477AC7EE887ACAED127AD9F800A005F0A6
:1049F000DDFF8AF84C0012E005F0D8FF0AEB08034F
:104A00005870D9F800A005F0D1FF0AEB0803D9F8D7
:104A100000A0D87205F0CAFF0AEB0803587508F128
:104A20000108B8F10A0FC5D100F06DBC1B788AF8F7
:104A3000053005F0B0FF88F8010005F0ACFF88F8FC
:104A4000020005F0A8FF88F80300A94BD9F8000080
:104A5000C3F8D001A74AC3F8CC218530002106F065
:104A6000D5F8A54B80F00100187000F04CBC05F0A3
:104A700092FF0B283FF680AEA04B0BFB00FB1B68A0
:104A80000BF1D00B9B4405F086FF03283FF674AE74
:104A90008BF80A0005F07FFF8BF8050005F07BFF1F
:104AA0008BF8060005F077FF8BF8070005F073FF21
:104AB0008BF8080005F06FFF8BF8090000F023BCAD
:104AC0005379092B7FF658AE8D4AD2F8008005F055
:104AD00062FF8B4B88F80000D3F8008005F05BFF85
:104AE00088F8010005F057FF854A13686428A8BFBD
:104AF0006420187105F04FFF814A13686428A8BF2D
:104B00006420587105F047FF7D4A1368FF28A8BF4D
:104B1000FF20987105F03FFF794BD3F8008064289F
:104B200028BF642088F8070005F035FF744A88F82C
:104B30000200D2F8008005F02EFF714B88F80300C8
:104B4000D3F8008005F032FFDAF80030A8F80A0048
:104B50005B790A2B40F2D783694BD3F8008005F0CC
:104B60001AFF88F80800CEE305F020FF6FF4AF6E5F
:104B700000EB0E039BB2C62B9CBF624BA3F89401C3
:104B800005F014FFA5F8400105F010FFA5F842015B
:104B900005F00CFFA5F8440105F008FFA5F8D801C1
:104BA00005F0F9FE85F8ED0105F0F5FE05F0F3FEE0
:104BB00085F8EE0105F0EFFE85F8830105F0EBFEC8
:104BC00085F8900105F0E7FE4C4BD3F8008005F026
:104BD000EDFE00EB80004000A8F8620038E105F02F
:104BE000E5FE494B23F8080008F10208B8F1100F60
:104BF000F5D188E353790F2B7FF4BEAD05F0CBFEE2
:104C0000072880463FF6B8ADDFF8F090D9F800A04D
:104C100005F0CCFE0E2303FB08F80AEB0803D9F8D5
:104C200000A0A3F8250105F0C1FE0AEB0803D9F89E
:104C300000A0A3F8270105F0B9FE0AEB0803D9F894
:104C400000A0A3F8290105F0A6FE0AEB0803D9F895
:104C500000A083F82B0105F09EFE0AEB0803D9F8AB
:104C600000A083F82C0105F096FE0AEB0803D9F8A2
:104C700000A083F82D0105F08EFE0AEB0803D9F899
:104C8000009083F82E0105F09BFE09EB0803C3F8A2
:104C90002F0138E305F07FFE0F2880463FF66CAD0C
:104CA000C8EBC80805F077FE05EB080303F1D00850
:104CB00083F8D00005F06FFE88F8010005F06BFE68
:104CC00088F8020005F067FE88F8030005F063FE2F
:104CD00088F8040005F05FFE88F8050005F05BFE2B
:104CE00088F8060002F0FDF80DE300BF00007A44EA
:104CF000581D00207809002002000020E407002051
:104D000080100020380800209A11002033785907BD
:104D100000F1F98209F0AEFC07F05CF80AF032F914
:104D2000F1E233785A0700F1EE824FF4C873A4F829
:104D3000C430E8E233785B0700F1E582CA4B1A78A9
:104D400042F004021A70DEE233785807E4D554E3E7
:104D500006F0D6FED7E205F01EFEC34B1A7810B15E
:104D600042F0020201E022F002021A7005F013FE86
:104D7000BE4BDFF81083187005F022FEC8F8000063
:104D800005F01EFEC8F8040005F010FEB84B1880B0
:104D900005F00CFEB74B188094F8D43143F00203B1
:104DA00084F8D431AFE205F0F6FD834605F008FE45
:104DB000824605F005FE814605F002FE804605F0BC
:104DC000F5FD05F0F3FD05F0E6FDBBF1000F13D195
:104DD0001020C4F8D8A1C4F8DC9107F0DDF9A24B8B
:104DE0001A7842F001021A70B8F1000F00F08B82BD
:104DF000A14BC3F8E08186E2BBF1100F40F0838243
:104E0000C4F8E4A1C4F8E891B8F1000F02D09A4BBD
:104E1000C3F8E08199480223011D84F8EC3104F0C5
:104E2000F7FF70E2964B986005F0CAFD02F0E8FCCF
:104E300069E205F0BBFDDFF84882A8F8580105F0EB
:104E4000B5FDA8F85A0105F0B1FDA8F85C015AE2D9
:104E500005F0A1FD85F8780105F09DFD85F87C0140
:104E600005F099FD85F87B0105F095FD85F87D013C
:104E700049E205F090FD824B587144E205F08BFD4C
:104E800085F88E0105F092FDA5F8980105F08EFDDC
:104E9000A5F8940105F08AFDA5F8960105F07BFDC3
:104EA000D8F8003085F88F015B79DFF8D491082BB2
:104EB00040F2298205F07AFDA9F89C0105F076FD03
:104EC000A9F89E011FE205F066FDDFF8B48188F8BD
:104ED000D60105F060FD88F8D70105F067FDA8F858
:104EE000D80110E292F805A00323BAFBF3FABAF155
:104EF000120F3FF641ACDFF888814FF00009D14531
:104F000080F0018205F047FD88F8A00105F04EFD14
:104F100040F2ED23984205DD40F6CA039842A8BF4F
:104F2000184601E040F2EE20A0F2EE20192390FB9B
:104F3000F3F088F8A10109F1010908F10208DEE7A0
:104F4000804605F028FD4E4B434408F10108B8F1B6
:104F5000080F83F88601F4D1D5E153794FF00709A2
:104F6000B3FBF9F9C9EBC9029B1A13F0FF0F7FF4E9
:104F700003AC5FFA89F9B9F1000F00F0C48105F0C4
:104F80000AFD5FFA80FA4FFA8AF005F077FD09F121
:104F9000FF395FFA89F9804600283FF4EDAB80F8CD
:104FA00000A005F003FDA8F8020005F0F4FC88F865
:104FB000040005F0F0FC88F8050005F0ECFC88F82A
:104FC000070005F0E8FC88F80600D4E7DFF8B080B9
:104FD00008F1400905F0EAFCA8F8A40205F0DBFCA2
:104FE00088F8A60205F0D7FC08F1040888F8A302A7
:104FF000C845EFD187E105F0CEFC1F283FF6BCABDA
:10500000D8F800305B79082B7FF4B6AB00F1880943
:1050100005F0CCFC05EB890900F03F00A9F806007B
:1050200005F0C4FCB9F80620800100F4FE531343D8
:10503000A9F8063005F0AFFC000189F8040005F07E
:10504000AAFC99F8043000F00F00184389F8040016
:1050500005F0A1FC89F8050002F0E4FC53E101230E
:1050600084F8ED314FE100BF6507002064070020A0
:105070007E2200207C220020581D00203C1F0020A2
:10508000380800208422002005F085FCFF28824695
:105090006FD14FF00008BB4884F8EE814146602292
:1050A00010F04CF98DF813809DF8133094F85222CB
:1050B000DFF8D8829A4254D99DF8133008EBC30325
:1050C00093F85532D90745D59DF8133008EBC30343
:1050D00093F85422AC4B33F91230002B3ADD9DF893
:1050E000133098F8EE9108EBC3034FEAC901D3F8E7
:1050F000583208EB01025B68C2F8F0319DF81330BA
:1051000008EBC303D3F858321889A2F8F60100233C
:1051100001229A40024003D10133102BF8D100E064
:105120001A46DFF8688208EB010309F10109A3F8C8
:10513000F421D3F8F001B3F8F631ADF814300423BC
:105140008DF8163005A901238DF8173005F0D2FA35
:1051500088F8EE919DF813300133DBB28DF81330EF
:10516000A2E7012005F002FC98F8EE0105F0C8FB6B
:10517000CCE094F8EE319842BFF4FEAA002005F08E
:10518000F5FB05F0CFFBD8F80030186805F03AFCC5
:10519000D9F8000005F052FC07F00DFE72B6DFF8FA
:1051A000F48180234FF0400BA8F81A304FF001092A
:1051B000A8F81AB04046ADF8143005A904238DF8BC
:1051C00016308DF8179005F095FA404605A9ADF810
:1051D00014B08DF816908DF8179005F08BFA6B4A85
:1051E00002EBCA02D2F8F031B2F8F421186802FAE0
:1051F00009F109FA01F109FA02F2014392B21960C8
:105200001A83A8F818B0D8F810301A06FBD45F49F2
:1052100001EBCA034FF0010ED3F8F001B3F8F4210B
:10522000D0F800C04FEA42090EFA09F949EA0C0C1D
:10523000C0F800C0D3F8F0C1B3F8F4310EFA03FEA1
:105240001FFA8EFE4023ACF81AE0A8F81A30504B33
:105250004FF4804EA3F818E04FF4004EA3F81AE084
:1052600042F20F79D8F810301B0605D4B9F1000FBF
:10527000F8D009F1FF39F5E701234FEACA0B03FA29
:1052800002F2594492B20283B1F8F621ADF814202B
:1052900005A904228DF816208DF8173005F02AFA9A
:1052A0003B4B4FF400421A83B9F1000F1AD0D8F8E3
:1052B0001030384A1806AAD5344959440120D1F88B
:1052C000F031B1F8F4111B6900FA01F11942304BC9
:1052D0004FF480414FF0400015BF10835083198375
:1052E0005983E4E72B4A402111834FF480421A830B
:1052F00062B60A2001F0B9FC0CF03AF8264B1B68A4
:10530000F32283F84920002005F030FB05F00AFB6A
:10531000214B1B68002283F8482094F8ED3143B1FB
:10532000386805F06FFB06F0B3FF01F0A8FC02F04F
:10533000F9FC1A4B4C379F427FF460A8184B1B684E
:10534000990616D5174BD4F8B4221B689A1A002A6E
:105350000FDB154A1278042A0BD90C4A03F51233D5
:1053600003F5F873C2F8B432094B5A6982F400426B
:105370005A610E4B9B68002B00F0CF800C48984779
:10538000CBE000BF481F002050110020581D002016
:10539000000C02400004024020230020F41E0020E4
:1053A00068070020C0050020640700206C0700206B
:1053B00064220020BBF1230FDAF8002012D15949F2
:1053C000C4F8CC20012008705748C4F89C210193F0
:1053D00005F006FB554805F003FB019B1A7842F0E7
:1053E00002021A70D4F8A0311B785B457FF46AA8DA
:1053F00001F06EFC72B602F085FC08F021F985E739
:105400000C2803D14A4805F0EBFA59E00A2801D0EC
:105410000D2857D1474D484805F1D40605F0E0FA6C
:10542000304623210FF0BDFF10B1801BC5F8D0001E
:10543000D4F8D030002B38D0591E3E4A705C20285A
:1054400001D10B46F6E7C2F8D0301344002283F8AE
:10545000D4203A4B3A4DD3F800B0D5F800A0DFF88D
:10546000D49050460FF0AAFF09F1D40806465146E1
:10547000404632460FF0AAFF324B38B909EB06021C
:1054800092F8D4205A445278520703D010359D42E6
:10549000E3D306E09D4204D2701CEB684044984779
:1054A00002E0294805F09CFA00232848C4F8D030CF
:1054B000002130220FF042FF3B78002B3FF43EAF3B
:1054C0001A4809E07F2811D1013BC5F8D0302B44A0
:1054D00000221F4883F8D42005F082FAFEF717BF98
:1054E0000C288FD07F2804D1FEF711BF2F2B3EF65A
:1054F0000EAFA0F12002D2B25E2A3EF608AF13B979
:1055000020283EF404AF5A1C2344C4F8D02083F86A
:10551000D40005F05EFAFEF7FABE0FB0BDEC028BC8
:10552000BDE8F08F79170020618B0108318B0108ED
:10553000368B0108581D0020DD9801085401002019
:10554000E0860108B0880108418B01082C1E00206C
:105550005D8B0108A449A5480A682DE9F04F02F5C2
:105560009C4320330360A24B1E7887B0C6B1194616
:105570005B689A4240F20C81013E0E7008E12B6894
:105580009C48072C98BF195D9B4B88BF21461B6820
:105590009847032C0CD9964A02EB4404013620812B
:1055A000944B964D1A78F4B2A2421A46E7D81EE000
:1055B0002B6804F10E0203EB8202D38812890028C3
:1055C000E9D0C01A4FF47A71D31A484390FBF3F034
:1055D000084440F6C903984205DC40F2EE239842A5
:1055E000B8BF184601E040F6CA0080B2D3E7844B4A
:1055F0001B6842F2010903EA0909D9F10109814B4B
:1056000038BF4FF00009D3F800A07F4BB9F1000F6D
:1056100006D17E49097819707D4908787D4908705E
:105620001E781EB17B4B1E7886F00106704992F8F9
:105630000080D5F800B00F2381F82C30764B1F780E
:105640000322B7FBF2F202EB4202BA1AD2B201F124
:105650002E0303EB420200244FEA480C0292254637
:1056600064455AD016B16D4BE05A00E03046BBF8A5
:105670001630834206D8BBF81810814234BF00218F
:10568000012100E00021664BE9B953F825309A4525
:1056900002D2644BE05A1AE0EBB218468DE80810CB
:1056A00006F066FC009BDDF804C0032B0FD8504BBE
:1056B0004FF0010E93F82C100EFA05FE21EA0E01B0
:1056C00083F82C1003E00AF5967143F81410B9F131
:1056D000000F1DD1029A464B04EB4401505293F83F
:1056E000762022B9022F13D9012083F876004E4B81
:1056F000581831F803E041887144B0F804E04A33A7
:10570000714489B2E15208B2032390FBF3F080B2F6
:10571000444B0135E0520234A2E7354B394A93F845
:105720002C10B1F10F0EDEF1000151EB0E0183F8E8
:1057300090103E4B69B13E4909684F0109D4126887
:10574000D9689A60521AC82A1ED9012283F82120EA
:105750001AE02F481268DA60012101702D480170AB
:1057600099685B68521A9A4203D9304B002283F839
:1057700021200024444507DAE0B206F0F9FB294B6A
:1057800023F814000134F5E7234B1A7801321A701C
:105790001B4F3B68DE0405D5254B1B68DD0701D494
:1057A0000BF03CFE104B1968144B1868837A002BE1
:1057B00042D01C4A013B32F81330027B1AB1C3F5C8
:1057C0003B6308339BB21BB2A3F57A73B3F57A7FC0
:1057D000A8BF4FF47A7323EAE37307EE903AB8EE6A
:1057E000E77ADFED147A5FE0C00500202C07002087
:1057F00010200020C721002014000020D805002020
:10580000D0050020D8450020C4050020CC0500208C
:1058100001000020000000208A190020182000202C
:105820008C190020120800203E2000206C1100205E
:10583000F007002000007A443A68140440D58F4AEB
:10584000D2F894400C1B002C3ADB01F59C44203428
:10585000C2F894408A4CC07A65798A4C34F8154075
:10586000A4B294FBF0F492F89800013000F00F001D
:1058700082F89800024482F899401A468248185CDF
:1058800001330244102B92B2F8D112B292FBF3F31F
:105890001BB2642BA8BF642323EAE37307EE903A9C
:1058A000B8EEE77ADFED797AC7EE277A784B9FED8D
:1058B000797A67EE877AFCEEE77A17EE902A1A80FB
:1058C0003B68754C13F4807F00F00081734B744E7D
:1058D000994203D9B3780BB90123B370B378002B85
:1058E00000F0F4806E4B94F8008093F821506D4BDB
:1058F000681E45421A684541002DC2F380690CBFFD
:1059000003220022C8F380089A46029296F82030BB
:10591000052B00F2D680DFE803F0034E5378859E16
:10592000B8F1000F3AD0604B1868604B198806F048
:1059300049FB012809D15E4B1A68504BD3F8AC30B3
:10594000DB88642101FB03233361B9F1000F0DD023
:105950004A4BD3F8AC301B7943B106F0FFFB03236D
:1059600086F820304FF47A73F361CFE7002D40F0D2
:10597000A8804F4B32691968DFF824B1914209D9E8
:1059800006F0ECFB03228BF8202040F6B832CBF86F
:105990001C20BBE701228BF82020B7E74FF4806082
:1059A000B9F1000F02D006F0C9FB01E006F0F4FBEC
:1059B0000023336185E0002D45D106F0CFFBA5E73C
:1059C00025B1052386F82030012100E02946B8F1F1
:1059D000000F0DD0344B1B68DA89364B1A805A8081
:1059E0009A80264AD2F8AC205288DA8002220292AB
:1059F0002F4B1A6873699A4202D8B8F1000F5DD133
:105A000047F23053F36103231EE0237843F002038F
:105A100023700BF003FD264B1A68F3691344B3613E
:105A2000042311E0224B1A688DB1B3699A4248D918
:105A3000214B1B781BB9DAF80030D90741D4237801
:105A400023F002032370052386F820305EE7F36914
:105A50001344B36135E0164B08491A68D1F8AC30ED
:105A6000DB88642101FB032333614FF48060002352
:105A700086F82030F37006F08FFB47E710200020F7
:105A8000CC1D0020DC1D0020A92000200000C84201
:105A9000CA21002000C07F4470170020404B4C00FA
:105AA0006C110020F00700208419002088190020C4
:105AB000D8450020120800200200002000297FF4B1
:105AC00025AF029A12B1104606F09AFAA54E06F5D5
:105AD000C370B6F84E1106F075FA8146002832D12F
