:020000040800F2
:1000000000040020258601087D9E0008A94E0108F5
:100010009D8601089D8601089D860108000000005C
:10002000000000000000000000000000799E0008B1
:10003000759E000800000000719E0008B59400083D
:100040009D8601089D8601089D8601089D86010800
:100050009D8601089D860108890D0108850D01080E
:10006000810D01087D0D0108790D01089D860108AB
:100070009D86010811FC000855FF00089D860108B7
:100080009D860108010001089D8601089D860108E2
:100090009D8601089D8601089D860108750D010851
:1000A00021FC00084DFC00089D8601085DFC00084D
:1000B00041FC00089D86010831FC0008197F0008FA
:1000C0001D7F0008117F0008157F00089D8601082C
:1000D0009D860108A1000108F5FF000849FF0008FE
:1000E000710D01089D860108819E00089D8601080A
:1000F0009D8601089D8601089D8601089D86010850
:100100009D8601089D8601089D8601089D8601083F
:100110009D8601089D8601089D8601089D8601082F
:100120009D8601089D8601089D8601089D8601081F
:100130009D8601089D8601089D8601089D8601080F
:100140009D8601089D8601089D8601085599000835
:100150009D860108BDFE0008AD000108B1FE000843
:10016000097F00080D7F00089D8601089D86010813
:100170009D8601089D8601089D8601089D860108CF
:100180009D8601089D8601082DE9F04FDFF8B892A1
:100190009B48D9F800209B4E2DED048B02F59C4323
:1001A0000178203395B03360002900F08C85964BA0
:1001B000DFF898821B68954D9A42954B029388BF51
:1001C00001F1FF3B934B88BF80F800B00093029B86
:1001D0008F4C1868C20403D52B68DB0741F17D8082
:1001E000D8F80010D9F800400B7B002B40F04C856C
:1001F000070447D5D6F89420824FA21A002A41DB83
:1002000097F898E0844A91F80D8092F805C0834AE7
:100210000EF1010101F00F0132F81C2087F898104F
:1002200007EB010C04F59C4E0EF1200E92B2C7F8BC
:1002300094E092FBF8F207F19B018CF89C20AB371D
:1002400011F8012F1344B9429BB2F9D11BB2002B14
:10025000B8BF0F331B11642BA8BF642323EAE373D9
:1002600007EE903A6E4ADFED6F6AB8EEE77ADFED9F
:100270006E7AC7EE277A67EEA67AFCEEE77A17EE7B
:10028000903A1380C0050AD5684BDFF8C4919C42B0
:1002900099F8022000F24284002A40F04384644B23
:1002A000DFF8B0A10693DFF8B0B1BBF8DE100BF5B4
:1002B000107008F077FF009ABBF85032B2F90220B4
:1002C00003F10B01914207465248C0F255810B3BA6
:1002D0009A42C0F25181B0F900209142C0F24C81A3
:1002E0009342CCBF00230123002F40F049812A68AC
:1002F000120100F16C87069B4E4918784E4C4F4B0B
:100300000F60002200F004004FF0010EC0B24F60F9
:100310008F601A605A609A6084F800E0484A0023AF
:10032000002111605160C6F8B430C6F8B83000281A
:1003300040F033819AF800E09BF89982354A9BF8A7
:100340009AC2BBF85292BBF8544218F1000818BF89
:100350004FF0010802F10800002332F9021B9B084C
:100360004945C4BF63F07F03DBB2A142B8BF43F08D
:1003700040038242F1D196F8C12022499A4200F00E
:10038000FD86002281F8C22086F8C1301D4ABEF1E8
:10039000000F40F02E812B68DC0740F12B8382F8A0
:1003A000C3E0002F00F0B78796F8C230154A142B2F
:1003B00018D19AF800306BB192F8C1305F2B01F080
:1003C0002F81B8F1000F05D096F8C1300D4F7D2B6D
:1003D00001F06381069B1B7803F00403DBB2002B62
:1003E00000F01283029B1B6803F00403002B40F013
:1003F0004483144C002304F150082B60012730E0A3
:10040000243A0020A8170020203A00203C4C00206D
:10041000F8390020FC390020A0390020B039002034
:10042000F41D002000C07F440000C842404B4C0037
:10043000744D00203C30002034300020504C00200F
:100440002C310020EB460020784D0020F4390020AC
:10045000283A0020680F0020104200200434444550
:1004600014D02278637814F8010C9A42F6D221460F
:1004700008F05AFE0028F1D014F8022C2B6807FA75
:1004800002F20434134344452B60EAD1AC4B1F788D
:10049000002F00F05C85DFF8E0A22B68980700F1E0
:1004A000B780029B1B68DC0500F1AD80A54B0B9368
:1004B00001200AF05BFF2B6813F0040FA24B00F041
:1004C00083861C4601200A930AF050FF21888A0780
:1004D00040F17C8711F003014FF0010018BF014685
:1004E00012F06EF80B9B1B689B0600F1C984974ABB
:1004F0002B6804921A054FF4807040F19B800AF03B
:1005000045FF9BF80530082B00F09B800E2B00F078
:100510009880029B186843050ED59BF8E432002BA7
:1005200000F04C822B681C0300F14D820EF04CFC55
:1005300013F092FA029B1868009ADAF80030B2F9C8
:10054000062008935B890792114699424FF00102F9
:1005500086F88C2179DBB1F5FA6F80F24582089A32
:10056000D179079AD21A02FB01F2A3F5FA6392FB42
:10057000F3F364331F466AE00023002F3FF4B7AE65
:10058000069B73491878734A00F004000023C0B238
:100590000B70137000283FF4CDAE029B1B68DB0686
:1005A0007FF5C8AE6C4B1B7803F0100303F0FF041B
:1005B000002B7FF4BFAE9AF800E0DFF8C081BEF1F7
:1005C000000F01F06F829BF89B32002F41F0E88210
:1005D00043B1624AD6F8BC301268614C9B1A002BBA
:1005E000C1F24D84102008F043FE012386F8C0308C
:1005F000A0E692F8C220142A7FF4F4AE5F2B7FF4B9
:10060000E0AE01F00DB8574BDB78002B3FF44EAF56
:100610004C4B0B931B6898077FF54AAF4A4B0A93E4
:100620001B88D90740F1B68702200AF09FFE0A9B7B
:1006300019884FE70AF09AFE9BF80530082B7FF4E3
:1006400065AF40200AF092FE63E764231F46464AE6
:100650009BF9D831D2F800E09BF82222029902924D
:100660009BF823220E925A429BB21093089B096872
:10067000BBF85042DFF808C1DFED3C4A9FED3C5A21
:1006800009910F9203F104090021B8460C95009BD3
:1006900033F911502B1B03F2F31240F2E637BA4242
:1006A0004FEA410A6ED8002BB8BF5B4202296DD1D8
:1006B0000E9A002A01F04C840E9A9A4281F24784E5
:1006C0009B1A83EAE372A2EBE3720D92C20141F13D
:1006D0001B84089A127A07EE903A05EE902AF8EEFB
:1006E000E77AF8EE655AC7EEA46A049AC5EE855A11
:1006F000B7EE007A37EE657A26EEA66A26EE877A9E
:1007000066EE866AA5EEA67A67EE877A9DED0F7A89
:10071000B8EEC77A67EE877AFDEEE77A17EE903A81
:100720009380089B0D9A9B7902FB03F21346114AB2
:1007300082FB0302DB17A3EB6213643365E000BFA7
:10074000654D0020B01D00203A4C00202C300020C8
:1007500034300020483000202A1E00208C2B00203E
:10076000A8170020283A0020041E00200000FA43A9
:100770000000C842D34D6210001E0020680F002008
:100780001F85EB5102294FF4FA7391D0029A1AB1E6
:100790009A42B4BF9B1A0023C00140F1EE80089A30
:1007A0000498527807EE903A05EE902AF8EEE77A30
:1007B000F8EE655AC7EEA46AC5EE855AB7EE007A20
:1007C00037EE657A26EEA66A26EE877A66EE866AA8
:1007D000A5EEA67A67EE877AFDEEE77A17EE902A05
:1007E00020F80A2099F8002002FB03F3B74A82FBA5
:1007F0000302DB17A3EB6212643292B208FB02F22F
:100800008CFB0230D317C3EB60139EF8012003FB6F
:1008100002F28CFB0270D217C2EB6012AC48425459
:100820009EF80B2002FB03F28CFB0270D217C2EB86
:100830006012A84842549EF8152002FB03F38CFB7B
:100840000302DB17C3EB6213A34A0229535413D0EC
:10085000A24BA54203F8018005DA049A32F80A3067
:100860005B4222F80A30013103290EF1010E09F131
:10087000010906D009980AE7984A6423A5429370B3
:10088000EBDBBBF85212079B0C9D8B42C0F2F98147
:10089000079B4FF47A7EB3F5FA6FD4BFC1EB030325
:1008A000C1F5FA630EFB03FE0A9B8D4F18888D4A33
:1008B0008D4CC1F5FA61BEFBF1FC87FB0C3E4FEAA3
:1008C000EC73C3EB6E1E0EF1010332F81E1032F909
:1008D00013206FF0630303FB0ECE0BB2D21A02FBA0
:1008E0000EF387FB0327DB17C3EB6713049A0B4454
:1008F000D380430600F1F0839BF85732002B40F081
:100900007B84069B794A19784F0700F1A4832B68F2
:10091000DD07774B1B785CBF41F0010111701C07AC
:1009200003D4069B01F0FE011970B6F8C8301BB164
:100930000B9B1B68980704D46E4B1B88002B00F0A0
:10094000BA806D4B069821F00101022201701A70E5
:1009500008F092FD694B1B68C01A002801DB11F0FA
:100960000DF9674B9B68002B00F07E83654815B03E
:10097000BDEC048BBDE8F04F18478CFB0302D81781
:10098000C0EB6212604830F812000D90571C5E48B0
:1009900030F91770BDF934003F1A6FF0630000FBA7
:1009A000023207FB02F78CFB0702FF17C7EB621747
:1009B0000D9A1744049A22F80A7013E7069B1B78D5
:1009C0005F077FF5B3AD514B00223C201A7013F046
:1009D0006FF900283FF4AEAD15F016FE3C2013F081
:1009E00067F90028F8D1A5E5089BDB79C3F164031A
:1009F0001F462CE6069B1B78590700F1CA8492F823
:100A0000C230142B7FF4EEAC96F8C140404A572C0C
:100A100000F0F887029B3F4F1B6813F0040302D0DD
:100A20005A2C00F06D865D2C01F007805B2C01F0E4
:100A30004C805E2C00F05386562C01F023819AF8EE
:100A4000003043B16F2C01F02781B8F1000F02D0C4
:100A50007E2C01F02181972C01F00381A72C40F01E
:100A6000EF872349029B0A781B6842F0040203F0D7
:100A700004030A70002B3FF4BCAC96F8C630244A3D
:100A8000002B00F06883069B1B785F0740F16383AF
:100A9000009BB3F90610BBF85232994240F35B83D6
:100AA0002B6813F0010040F05783322182F8C60012
:100AB000A2F8CA1050E3184A1288642A3FF641AFE0
:100AC000C90740F131840C4A137041E7D34D6210DD
:100AD0003431002048190020A43100203830002093
:100AE0001F85EB51481F00202C300020744D002042
:100AF0002A1E0020524D00204C3A0020503A00207F
:100B0000104D0020E41C0020601F0020B84700208A
:100B1000A8170020F8390020B41D002012B90122C6
:100B200089F80220854B99F8214006931B782868A4
:100B300099F82010DFF828A2DFF82882804F079567
:100B4000C3F38003A4F10104B4FA84F46409002C13
:100B50000493C0F3806314BF4FF0000B4FF0020BFF
:100B60000893052900F23984DFE801F0726B4634FE
:100B70001903D8F80020734BD2881B68642101FB4D
:100B800002334FF480600022C9F8103089F8202029
:100B900089F803200AF0EAFB99F82010E1E7002C1D
:100BA00000F01987674BD9F818201B689A4280F02B
:100BB00014849AF8003023B9079B1B68D90700F109
:100BC0000C84069A1378052123F00203137089F828
:100BD0002010C6E7069A137843F00203137014F04E
:100BE0002BF9584BD9F81C201B6804211344C9F871
:100BF000183089F82010B4E7002C00F0D3820523C8
:100C000089F820300123049A002A00F0C182D6F826
:100C1000AC20009D128A2A806A80AA80494AD8F8AE
:100C200000001168D9F814204088E8808A42C0F09A
:100C30009283002B01F08F8197F820104FF0030B67
:100C40008FE7002C00F0B082052189F8201088E79A
:100C5000049B002B40F07E84089B079D4FF480602E
:100C6000002B40F034830AF081FB0021C9F81010FA
:100C7000BBF1000F3FF417AB584608F0F9FAFFF745
:100C800012BB4FF0000E0FE6013B8A7B009931F852
:100C900013301AB1C3F53B6308339BB21BB2A3F503
:100CA0007A73B3F57A7FA8BF4FF47A7323EAE373BC
:100CB00007EE903ADFED246A244AB8EEE77ADFEDDA
:100CC000247AFFF7D6BADFF8A080224F8B46C246BF
:100CD00016E0595D20483B689847032D00F2CE800E
:100CE000DAF8003005F1100203EB8203D9881A8983
:100CF000002840F0AF8006EB45050BF1010BA88002
:100D000096F828405FFA8BF55CB9D8F80030124AA3
:100D10001B7E14780433DBB2A34227D90F4B83F830
:100D20002840A54228D2072DD8F80030D1D93B68F9
:100D300009482946984780B2DDE700BF744D00207E
:100D4000283A00208C2B002000C07F44F41D002096
:100D500000007A446C0F0020B0470020A817002044
:100D6000680F0020244D0020F4390020C14A1C46A1
:100D7000A54282F82830D6D3BF4B02931A68BF4BE6
:100D80001B68049342F201031340B3FA83F35B0937
:100D9000002B40F0BD82BA49BA484D7896F8292018
:100DA0000D7002701AB1B64A127882F0010296F8FC
:100DB0002B10B548B54FD8F800B006930D46A0FBF0
:100DC00005E0400800EB4000281AB1490895C0B280
:100DD0000990049891F800C0AE4900910F2500F5E4
:100DE000967086F82A500A900025CDF81CC08A46D5
:100DF000CDF8308064B99BF81840079B0434E4B206
:100E00009C4283BF1C46234686F8283086F828403B
:100E1000A54280F25483002A00F0FC829E4BBBF86E
:100E20001CE033F8150086454FEA450800F2F882C9
:100E3000BBF81EE08645C0F0F382984B0A9943F850
:100E40002510069B002B00F0F7822AF808000135D8
:100E50000637CFE74FF47A73401A03FB00F0521ABB
:100E600040F6C90390FBF2F000F57A70984200F367
:100E7000318240F2EE239842B8BF184680B23AE77A
:100E8000874B1B789F0723D5864B1B78042B1FD9D4
:100E90002B680A9A844F128813F4007940F0CD83AE
:100EA00002F01004A4B2DFF82082002C40F0CB86C0
:100EB00058057E4900F186860491910600F1DB8693
:100EC00096F80821002A00F0D183A4B9FFF712BBDD
:100ED0000A9B1B8803F03003002B3FF408AB102063
:100EE0000AF044FA20200AF041FA002386F8013182
:100EF0006E4A2B6804926E4ADFF8D08100204FF0D2
:100F0000000902F1280702F1500402F1780C02F105
:100F10007C0E0146C2F800905160C2F80890C7F8F4
:100F200000907960C7F80890C4F800906160C4F838
:100F3000089028F810102CF810102EF81010143209
:100F40001437143400287FF4D5AA0120E2E7594C65
:100F5000DFF87C81DFF81C9104F15A0A02E00634C4
:100F600054452DD02278637814F8010C9A42F6D2B9
:100F7000214608F0D9F80028F1D02179A37894F817
:100F800003C001EB410206EB8202013BD2F8D40020
:100F900003EB430343448342E1D099F8000182F814
:100FA000D0C04FF0010C0CFA01F1063420EA010127
:100FB0005445C2F8D430C2F8D87089F80011D1D1A4
:100FC0002E4ADFF810A12F4BD2F80090DAF800106B
:100FD0001B78394C9FED399ADFED398A07910493DC
:100FE0000027C84623687BB393F80090B9F1000F3F
:100FF0002AD06168C1EB080100290ADB96F80001DC
:101000000121B94020EA010108F5FA7086F80011C3
:101010006060049AC2B114F8041C58780431C9B253
:10102000002840F08681009ABBF8500232F9111076
:1010300000F1C80E714540F3B28296F800119B781A
:101040003941C90740F13E830137042F04F10C04F4
:10105000C8D1FFF722BA0020012111F0B1FA194BD3
:101060009B68002B7FF482AC15B0BDEC048BBDE80F
:10107000F08F00BFA8170020F83900208C2B00202B
:1010800001040020B02C0020ABAAAAAAD41700208B
:10109000B0470020FC390020AC1700205019002078
:1010A0002A1E00202B1E00203C4C00202C3000204B
:1010B000B41800203A4700207C18002000007A4431
:1010C0000000C842104D00203A4C0020684D00201E
:1010D000A0D40108001E0020C14BC24AB3F904305D
:1010E000B6F8A4119FEDC07A82FB0302DB17C3EBB5
:1010F000A2035B1A1BB208EE103AF8EEC87A27EE8C
:10110000878AB0EE480A0AF00FF9F0EE408AB0EE96
:10111000480A0AF01DF9B4F9023007EE103AB4F9A2
:101120000030B8EEC77A06EE903A67EE407AF8EEF5
:10113000E66A20EE260AE8EEA67AA8EE870AFDEE19
:10114000E77A17EE902AFDEEC07A228017EE903AE9
:101150006380FFF7D6BB2B68DC0340F1C38096F8B1
:10116000CC20A24B2AB993F8C42012B93222A3F89A
:10117000CA20012386F8CC30FFF73BB991F8C22092
:10118000F92A3FF601A9013281F8C220FFF7FCB825
:10119000974B1B6847F230530321C9F81C3089F87C
:1011A0002010DEE423462EE5D8F800301B7A012B10
:1011B00040F0D48016F0E2F8032140F6B83389F805
:1011C0002010C9F81C30CCE40A93FFF72DBA894AE5
:1011D000D278002A40F0C880069A127802F0040201
:1011E00002F0FF00002A00F0C480002B40F0738260
:1011F000814B1F70FFF7D1B907EE903A9FED7A7AD5
:101200007E4FF8EEE77A67EE877A17EE900A16F0CF
:10121000B3FB41EC100B41EC180B19F085FCB4F951
:10122000000059EC108B16F095FBB0EE480AF0EE7A
:10123000680ACDE9000119F0CBFCB4F904008DED8A
:10124000020B16F087FBDDE9002382468B46404601
:10125000494616F0E5FB5246CDE904015B46DDE95F
:10126000020116F0DDFB02460B46DDE9040116F033
:1012700023FA16F0E7FDB0F5FA7F8646A8BF4FF4D3
:10128000FA7EBE45B8BFBE46A4F800E052465B46B3
:101290004046494616F0C4FBDDE9022380468946F4
:1012A000DDE9000116F0BCFB02460B46404649460C
:1012B00016F004FA16F0C6FDB0F5FA7FA8BF4FF499
:1012C000FA70B842B8BF3846A080FFF71ABB0AF0E0
:1012D0005DF8CAE440F6CA000DE513F0ADFD2068E4
:1012E000FEF77EBF96F8C430404A002B3FF481A839
:1012F000069B1B7803F0040303F0FF01002B7FF42F
:1013000078A8012382F8C41082F8C530FFF771B8BD
:101310003B4A127846E5069B1B78D8077FF544A820
:1013200013F0ACFBFFF740B8364B02221A70FFF700
:101330000FBB012800F0DE8396F800110123BB40AB
:1013400001370B43042F86F8003104F10C047FF4BD
:1013500049AEFFF7A2B84FF0030B1BE716F00EF8EB
:1013600099F82010FFF7FDBB069B187800F00400E9
:10137000C0B2254C254ADFF898E000230021236005
:101380006360A3608EF80030116051609160FEF7D9
:10139000C5BF1B4B1B78002B3FF424A8154BDB78F3
:1013A000002B7FF41FA892F8C3300133DBB2032B6C
:1013B00082F8C3307EF6F8AFBCF1000F02D1002FE7
:1013C0007EF4F2AF13F038FDFEF7EEBF022009F015
:1013D000DDFF0A9B1988FFF77DB8079D48E400BF31
:1013E000E81D00206766666635FA8E3CA817002067
:1013F0008C2B0020283A0020483000200CFEFFFFF4
:10140000B02C00204C3A00203C300020504C0020F2
:1014100034300020BBF81C00002838D04FEA4508C3
:10142000C248049B50F82500984234D9069B3AF8EC
:101430000800002B7FF409AD099B96F874C008EBF7
:10144000050E9E4406EB4E0EAEF82C00BCF1000FCC
:1014500008D1089B022B7FF6F8ACB54B4FF0010189
:1014600083F87410B7F800C0B7F802E0B888B14B41
:10147000E64486441FFA8EFE0FFA8EFC83FB0C3086
:10148000AD4BA0EBEC7023F808E080B2DDE4104631
:101490004FEA4508D1E4E8B20B9210F015FB032D9A
:1014A0000B9A55DCA24B93F82AE0012303FA05FCC2
:1014B0009F4B2EEA0C0E80B283F82AE0C1E496F826
:1014C0002A30DDF830809D4DA3F10F03B3FA83F38A
:1014D0005B0986F890301BB12B68590140F1858279
:1014E0009748984B81681B684268C3605B1A9342B7
:1014F00088BF0023944FD8F800A088BF80F821301F
:10150000924B069501214FF0000B797039705D46C2
:101510001F78D346DDF800A054B99BF81840043476
:10152000E4B2BC4286BF86F828703C4686F8284064
:10153000A542E8B205DA10F0C7FA2AF8150001351D
:10154000EAE7069D089B013386F82B30FEF73FBE85
:1015500080B276E4D6F8AC00B6F8B01007F022FE00
:10156000012800F0BC82089B2BB1D8F800301B7911
:10157000002B40F08780002C7FF42FAF714BD9F8FF
:1015800010201B689A42C0F04E82012187F820107B
:10159000FFF7E7BA012009F0F9FEFFF745B8C838B0
:1015A000814256DA96F800119B783941CA073FF517
:1015B0004BAD5B4208EE103A012007F099FE09F1AD
:1015C000FF33132B3FF6B8AE01A252F823F000BF51
:1015D000591800082D180008FD170008B917000851
:1015E000DF18000885180008F7180008871700089A
:1015F0008319000859190008AD19000839130008AB
:10160000B9170008DD17000885180008F71800084A
:101610008717000855190008511900085D170008C0
:10162000069B1B7803F0040303F0FF04002B00F07B
:101630004F8213F001FCFEF7C4BED40640F1F382E2
:1016400096F80841002C00F03583414A0492FEF7D9
:1016500051BF96F800310121B94023EA010308F592
:10166000FA7186F800316160EEE401240E2007F083
:10167000FFFD012386F808312B68002C7FF43BAC7A
:10168000FEF738BF15F07AFE03214FF47A7389F81C
:101690002010C9F81C30FFF764BA069B2D4C1B784C
:1016A00003F0040303F0FF09002B00F06B8213F03A
:1016B000C3FB237803F00403DBB2002B7EF492AE6D
:1016C000FFF7A2B908EE103A002B3FF475AF0220E5
:1016D00007F00EFE73E7204A1370FEF75EBF022389
:1016E00003248BF8D83409F091FE09F05DFF204601
:1016F00007F0FEFD029B1B6803F00403FEF776BEB5
:1017000092F8C410002940F0EB8292F8C63083F0C2
:10171000010382F8C630002B40F0DA820D2007F07A
:10172000A7FD3B6803F00403FEF760BE50190020DC
:10173000A817002056555555201800203C4C002075
:10174000283A00208C2B002001040020B047002004
:101750002C300020744D002048300020CB4B1B68FB
:101760001978022900F00183597D18EE102A0A44E5
:10177000C82A1146A8BFC82121EAE1715975142071
:1017800007F048FDD8E5C14B18680178022900F040
:101790002883817D089318EE103A1944C829A8BF00
:1017A000C82121EAE1718175112007F033FD089B02
:1017B000B9F1110FD3D1BFE5079A18EE103A51795C
:1017C00019446429A8BF642121EAE17151710D20F7
:1017D00007F020FDB9F10D0F3FF4AEAD079A18EEFA
:1017E000103A11790B44642B1946A8BF642121EAF1
:1017F000E17111710E2007F00DFD9DE50798A44BD6
:1018000090F8039018EE101A494464298946A8BF3D
:101810004FF0640929EAE97980F80390196807F024
:1018200009FC4946032007F0F5FC85E5079818EE0A
:10183000103A90F801904B44642B9946A8BF4FF0A2
:10184000640929EAE97980F8019007F04FFC4946DC
:10185000022007F0DFFC6FE5079818EE103A90F8C9
:1018600000904B44FA2B9946A8BF4FF0FA0929EA99
:10187000E97980F8009007F039FC4946012007F02B
:10188000C9FC59E5814B18680178022900F01A83D8
:101890008178089318EE103A1944C829A8BFC821C6
:1018A00021EAE17181700F2007F0B4FC089BB9F1C7
:1018B0000F0F3FF441AD1B681978022900F0E78251
:1018C000597818EE102A0A44C82A1146A8BFC82120
:1018D00021EAE1715970122007F09CFC2CE5079A6F
:1018E00018EE103A91790B4483F3080191710520A9
:1018F00007F090FC20E5654B18680178022900F09C
:101900001282017B089318EE103A1944C829A8BF27
:10191000C82121EAE1710173102007F07BFC089BCC
:10192000B9F1100F3FF408AD1B681978022900F0D7
:10193000DF81D97A18EE102A0A44C82A1146A8BFB6
:10194000C82121EAE171D972132007F063FCF3E4A6
:101950004E4BE9E74D4BAEE74C4B1B68197802291B
:1019600000F01E82597B18EE102A0A44C82A11463C
:10197000A8BFC82121EAE17159730A2007F04AFC87
:10198000DAE4424B1B681978022900F05782D978B3
:1019900018EE102A0A44C82A1146A8BFC82121EA15
:1019A000E171D970092007F035FCC5E4374B1B689D
:1019B0001978022900F0D482D97D18EE102A0A4441
:1019C000C82A1146A8BFC82121EAE171D9750B20A8
:1019D00007F020FCB0E42F49D9F81C000968079DE6
:1019E0000144C9F81810FFF743B92B4A294BD168B5
:1019F0001B6893605B1AC82B7FF6A4AD012382F8A5
:101A000021309FE5029B254A1B68254C4FF47A71D3
:101A100011801A067EF5E8AC0CF0A0FE236803F0F6
:101A20000403FEF7E3BC15F0A9FC032140F6B8332C
:101A300087F82010FB61FFF794B80023012450E6DB
:101A40000023BB2C139300F00981B72C00F02E81EA
:101A5000BE2C00F03281BD2C7EF4C4AC4FF6FE7279
:101A6000BBF8F001BBF8F21102440B44ABF8F021D3
:101A7000ABF8F23109F018FF029B1B68002203F05B
:101A8000040386F8C220FEF7B1BC00BFA8470020BF
:101A9000A44700208C2B0020283A0020524D002023
:101AA000F8390020002F3EF49DAD96F8C0E0DFF835
:101AB0007493BEF1000F3EF43FAC07F0C3FB98F8FF
:101AC00000E089F8C040FEF737BC0123022408E695
:101AD0000B2007F0CDFB86F8C240FEF772BCD8F8A9
:101AE0000020CE4BD2881B68642101FB0233C9F869
:101AF000103038E5009A93F802E032F91110B1F590
:101B0000617FC0F2D18040F633038B42A8BF0B4601
:101B1000A3F56173B9F10C0F7FF40EACC0484FF41C
:101B2000966191FBFEF9017893FBF9F35FFA83F973
:101B300049453FF401ACB9F1030F9BF8D8E487BFE6
:101B40000223194649464B460EEBCE0E0170C3EBFD
:101B5000C3034FEA0E1000EB430358445B4403F207
:101B60001E4380F81C14CAF8003009F0F3FC0C2066
:101B7000494607F04FFB09F10100C0B207F0B8FB7E
:101B8000FFF7DABB0B2007F073FB237887F8C290CE
:101B900003F00403DBB2002B7EF424ACFEF734BF69
:101BA000002B40F08C8096F8C0309E4C002B3EF409
:101BB000C3AB07F047FB002384F8C0309AF800E07D
:101BC000FEF7BABB08460491B0F90000D6F804113C
:101BD000944F49890028B8BF40428842BFF66DA99A
:101BE0009148B0F902000028B8BF404281427FF717
:101BF00064A992063FF564A9202009F0C7FB8B4B2E
:101C00008B4A0ACB10461160111D53600CF0F0FC9A
:101C1000012387F8013196F80831002B3FF425ADF8
:101C20002B68FFF768B9102009F0B0FB202009F0FD
:101C30009DFB80487C4B0493011D0CF0D9FC0223D2
:101C400086F80131E7E7102009F090FB012486F8BF
:101C500001913B68B8F80020FFF72AB91A46022321
:101C6000FEE6029B1B684FF4C87203F00403A6F85B
:101C7000C820FEF7BBBB202009F078FB002386F8C4
:101C80000131C8E709F010FE9AF80030002B7FF40C
:101C9000D7AE1393FEF7A6BB12F0F0FE029B1B68B3
:101CA00003F00403FEF7A2BB002333E71A464FF606
:101CB000FE73D5E65C4B0493D8E40222D0E6574A83
:101CC00012684FF47A7101FB0323C6F8BC306AE74F
:101CD0000C2007F0CDFA3B6803F00403FEF786BB47
:101CE0000020012182F8C40082F8C510FEF77EBBF7
:101CF000B8EEC80AD3ED0B7A80EE280A30EE270A38
:101D0000B5EEC00AF1EE10FA29D4B4EE680AF1EE8D
:101D100010FAC8BFB0EE680A83ED0B0A132007F073
:101D200061FAFFF709BBB8EEC80AD0ED0C7A80EE75
:101D3000280A30EE270AB5EEC00AF1EE10FA11D4E7
:101D4000B4EE680AF1EE10FAC8BFB0EE680A80ED92
:101D50000C0A1020089307F045FA089BE0E59FED78
:101D6000360AD9E79FED340AF1E7B8EEC80AD3ED99
:101D70000E7A80EE090A30EE270AB5EEC00AF1EEBF
:101D800010FA28D4B4EE680AF1EE10FAC8BFB0EE2B
:101D9000680A83ED0E0A142007F024FAFFF7CCBA84
:101DA000B8EEC80AD3ED0D7A80EE280A30EE270A85
:101DB000B5EEC00AF1EE10FA10D4B4EE680AF1EEF6
:101DC00010FAC8BFB0EE680A83ED0D0A0A2007F0CA
:101DD00009FAFFF7B1BA9FED180ADAE79FED160A84
:101DE000F2E7B8EEC80AD0ED0F7A80EE090A30EEBD
:101DF000270AB5EEC00AF1EE10FA3AD4B4EE680A3A
:101E0000F1EE10FAC8BFB0EE680A80ED0F0A11209B
:101E1000089307F0E7F9089BCAE400BF8C2B002069
:101E2000384C0020A81700202C3000202C1E002049
:101E30004C1E0020441E002000000000B8EEC80A1E
:101E4000D3ED0A7A80EE280A30EE270AB5EEC00AF2
:101E5000F1EE10FA10D4B4EE680AF1EE10FAC8BF31
:101E6000B0EE680A83ED0A0A092007F0BBF9FFF714
:101E700063BA1FED0F0AC8E71FED110AF2E712F06F
:101E8000DBFF84F8C07098F800E0FEF755BAB8EEB2
:101E9000C80AD3ED087A80EE280A30EE270AB5EE9C
:101EA000C00AF1EE10FA29D4B4EE680AF1EE10FA85
:101EB000C8BFB0EE680A83ED080A122007F092F955
:101EC000FFF73ABAB8EEC80AD0ED097A80EE280AD0
:101ED00030EE270AB5EEC00AF1EE10FA11D4B4EED6
:101EE000680AF1EE10FAC8BFB0EE680A80ED090A80
:101EF0000F20089307F076F9089BD8E41FED320A0B
:101F0000D9E71FED330AF1E78CFB0327DA17C2EBA1
:101F1000671706EB47000246B0F990011190B2F93D
:101F200092016FF0630202FB0733119FC01B00FB9D
:101F300003F38CFB0302DB17A3EB6213BDF8402015
:101F4000DB1B13FB02F3049A9380FEF7EABB00232A
:101F50000D93FEF7BBBB079D4FF0030BFEF78CBE46
:101F6000B8EEC80AD3ED107A80EE090A30EE270ADF
:101F7000B5EEC00AF1EE10FA0DD4B4EE680AF1EE37
:101F800010FAC8BFB0EE680A83ED100A0B2007F004
:101F900029F9FFF7D1B91FED580AF5E72DE9F04F00
:101FA000B64CB74E23682DED028BA1B0D3F8288034
:101FB00007F062FA6368C01A308007F05DFAB14B2F
:101FC00060601B78012B00F04D82AF4DAF4F09E0F0
:101FD00007F052FA63683A68C3EB080318445032BA
:101FE000904206D2EB6819A898479DF86430002B00
:101FF000EED0277A002F40F0D98111AE6B683046C1
:10200000984780B3A24D9F4BDFF8C4E218782F4663
:102010002A460023032804BF11682EF8131036F94E
:10202000131042F8041B0133032BF3D1984894F8A2
:102030006A20924E01460FF045FC94ED1B8AB5EEE6
:10204000408AF1EE10FA1DD1DFF88892B9F800004D
:10205000B8BB904990482B6851F8042B9B1A45F85F
:10206000043B8542F7D194F83851DFF81082002DF7
:1020700000F08780013D88F8385121B0BDEC028B1B
:10208000BDE8F08F96F87030002B00F0738606F1F3
:102090007409DFF8FC810026D8ED007A09EB060010
:1020A000B8EEE70A08F0FCFD18F022FE24366C2E8C
:1020B00048F8040BF0D1DFF81C92B9F800000028B2
:1020C000C7D0D4F8E030DFF810821B789FED738A18
:1020D000069308F13C0AA8F1E40C002605954FEAA6
:1020E000860BB0F57A7F0BEB060300F0BC84D8F8C2
:1020F000102057F826505AF82610013204EB8303BB
:1021000004EB0B0E07EE905A2944012AC3F8F42081
:10211000CEF82011F8EEE76A00F0B78493ED397A33
:1021200093ED3B6A07EE902A76EEC75AF8EEE77A0F
:10213000C5EEA77A77EE277AB0EE467A76EEE76AB2
:10214000C3ED3A7AA5EEA67AC3ED397A83ED3C7AEF
:1021500083ED3B7A04EB0B0300220128C3F82C210A
:1021600047F8262000F0A0840136032E08F1140859
:10217000B5D10128059D01F0F1800138A9F80000D2
:1021800067E7474BDFF854E193F8E8714548464963
:10219000DEF800C0454EB3F83222006809680B969D
:1021A00003F5107E013FCDF800E003F5F87388F8E1
:1021B0003871E04733683E4ADB00D2780D9200F177
:1021C000AB833C4A3C4B099211461A680C930B684E
:1021D000079302F480530693384B187803281AD9D2
:1021E000D4F840315B88B3F5FA7F14D23449354EC8
:1021F000B1F90410B6F9047081EAE17EAEEBE17E3C
:102200005D42CEEB0505AF4204DB03EB0E05BD429C
:10221000A8BF3D46B5802C4B1B6893F80680B8F1EB
:10222000000F41F0A180C246002800F05087D4F88A
:102230004031244A93F90010B2F90430B2F9025047
:10224000B2F90020DFF888B0494203FB01F305EE44
:10225000105A05EE902A07EE903A0A4A4FF0000E07
:1022600092F80090194AB8EEE76AB8EEC55AF8EE4F
:10227000E55AF446754613AE41463EE098190020F3
:10228000544D0020BA390020104D0020FC1D0020C4
:10229000C41D0020C41A0020D01D00200000000032
:1022A00010420020041E0020001E00203C4C002094
:1022B000283A00203C360020F83900203B3000202E
:1022C0002C30002000310020EC390020DC1A0020E6
:1022D000BC390020524D00207C1A0020E00F002065
:1022E0004745C8BF9E46B9F1050F02F1100206F13D
:1022F000020627D0013585422BD0D2ED017AD2EDEE
:10230000026A92ED037A65EEA77AE6EE857AE7EE49
:10231000067AFDEEE77ACDED057ABDF81430002996
:102320003ED10FFA8CF70FFA83F8474533800FFA46
:102330008EF7D5DAB9F1050F9C4602F1100206F1CD
:102340000206D7D1042D98BF2BF8153001358542F0
:10235000D3D1CEEB0C0C1FFA8CFC069B002B00F0AB
:102360008880924B1B7803F0040303F0FF0208926D
:10237000002B00F06983D4F83C31198A8C4A8D4BCC
:102380001268B3F806E0D3880FFA8EF5CE1AB5427C
:1023900000F34C83079B17881D88A4F804E274E0BF
:1023A0001BB203FB0AF3C3F30F33BAE712F02EFAA2
:1023B000002800F07683DFF808B2DFF828A29BF847
:1023C0005632002B40F01281BAF800300593002BF2
:1023D00040F00F81784B0B931B68DB0209D5734AE1
:1023E00013785B0700F1228794F83E30002B40F011
:1023F000AE87724B1B78BBB16E4ABBF85232B2F952
:1024000006206F499A420FDC4B79012B00F0F384D0
:10241000192B00F0F0840E2B06D0082B04D0DFF827
:10242000B8C10023ACF804309BF8106226B1BAF8AA
:1024300000309F0740F03686624B1B68980609D52E
:10244000BAF8003003F0300323B15F4B1B78D90793
:1024500000F16E865D4B1B78002B00F0F5810023A8
:102460002372CAE55A4A5B4B1188328859801A8018
:10247000ABE54E4B07991B78574A0D88B2F806E03A
:102480004F8803F00403DBB20893BAB2ADB2561B17
:1024900036B20FFA8CF39E42C0F2F28103EBD37393
:1024A0005B104E491D44D71A0023ADB2BFB20B706A
:1024B000002800F040810B9E3D4B36683D490C9A48
:1024C00005961268B1F90610D3F80090059B099E95
:1024D0000F910FFA8EFEB4F904120A9107EE90EAFA
:1024E0000FFA87F8D4F83C11099102F0100E03F0AE
:1024F000006302F480520692CDF81C803668384999
:10250000DFF8E4C00E93B8EEE77A2DB2002213AFE5
:102510000590DDF8348018E0B6F804A0B6F802B0F3
:102520001BB2534503DB5B45A8BF5B469A4621F8C7
:1025300002ACBEF1000F03D0089B002B40F0D88006
:10254000059B01329A4200F0E8800CEB0213D3EDB8
:10255000007A37F812A067EE277AFDEEE77A17EED9
:10256000903AAB42C0F2B08007988342A8BF0346BE
:1025700053449BB221F8023BB8F1000FCCD106982E
:10258000002800F0AC800998B9F806B0B0F810A0A7
:102590000A98CBEB0A0A504500F39880B6F800A0E1
:1025A000B9F800B01BB25345BDDAC0E7744D002046
:1025B00038360020FC3900203C4C0020680F0020F9
:1025C00010420020B01D00202A1E0020654D002072
:1025D000B41D0020BC3900202C30002049300020E0
:1025E000D01D00203A4C0020DC1A0020BAF8003040
:1025F0000593B54B61891A68B44BB1FBF2F21B78B5
:10260000069202F1010E1FFA8EFEA4F80CE0B0480B
:10261000002B00F01F82C389DFF8F892079700F1C2
:1026200010080FFA8EFE18304FF0000C1F4639F8D4
:10263000021B0288B8F8003020F8021B8A1A0CF13D
:10264000010C13FB07F3BCF1040F93FBFEF31A44D8
:1026500028F8022BEBD19D4ABDF818E0079FA4F89B
:102660000EE0002313700FFA8EF3002B40F37F83EC
:102670009849B4F90C90DFF89CC2A1F1080001F16F
:10268000080831F8022B30F8023B414513FB0EF3EA
:1026900093FBF9F3A2EB03032CF8023BF1D18E4B31
:1026A0000B931B6813F4801F059B40F0C3801A0531
:1026B0007FF59FAE894B1B785B077FF59AAE4FF491
:1026C000006008F053FE94E62B4651E7B9F802A0EB
:1026D000B6F802B01BB25345BFF625AF27E7B6F8F0
:1026E00000A0B6F802B01BB25345BFF61CAF1EE700
:1026F000069B002B7FF424AF0E9B002B7FF420AFB2
:10270000099B0F985B8A9842BCBFB38821F8023CB2
:10271000059B01329A427FF418AF089B5BB952B116
:102720006F49704813B201EB430331F8022B20F8D4
:10273000022B9942F9D194F80C326548013BDBB287
:10274000182B07D80121684A01FA03F31A40002A1E
:1027500040F0E181654B664AD3F800E005920C9B9E
:102760001B68990624D4059B1D886148002100E060
:1027700005880EEB01022DB2B2F90030B2F9022049
:102780009D4201F10E0103DB13B2AB42A8BF2B4601
:10279000702920F8023BEBD112F038F8002840F005
:1027A00042810123237221B0BDEC028BBDE8F08F82
:1027B0009EF80930FF2B44D04E4A12789A4240D9F5
:1027C0004D4A32F813509EF81730059AFF2B1580AA
:1027D00034D0484A12789A4230D9474A32F81330F6
:1027E0000B9A059912684B80120619464048BCD5D1
:1027F000D4F830321B78012B00F071843F4A9EF9E7
:1028000006C053889EF914703D4E12881CFB03F3DA
:1028100017FB02F286FB03C7DB17C3EB271386FB0C
:102820000276D2171D44C2EB2613ADB20B440580CD
:1028300043809AE71A053FF5DCADD0E5BEF81230CB
:10284000CEE7BEF80450BEE72E4A0C92126812037F
:102850007FF505AE2C4E3278D11E052940F2D58584
:10286000023A092A3FF6FBADDFE812F09503410377
:1028700022037F0367030F03F602DD02CF029F03EB
:10288000224A01273103177091FBF3F1C4F80812B3
:10289000002800F0EB8513AA02EB4007B2F90030E4
:1028A00003FB01F31B1322F8023BBA42F6D1184B8B
:1028B0001B7806EBD67605EB6605062BADB200F06D
:1028C0007A822F46F4E500BFBC2F00203419002087
:1028D00098190020B01900203C4C0020744D0020B5
:1028E000C44B0020D01D002099209801F82C002016
:1028F000A01D0020B0470020FC390020E81D00206A
:102900001F85EB51F83900200A1C002049300020B7
:10291000BA3900202C300020C54B09931B68C54AEA
:10292000079319465B880888D8F83C710C921646C4
:102930001B1A3268B97EC04E97F819E0D6F800909D
:10294000DFF80CC3BD4E08921FFA83F80FFA88F324
:1029500001EB810A059302F480530AF10A0B0693F6
:10296000774606993CF81530002953D0B9F8020093
:10297000B9F80010091A0598014401EBD171C1F3AF
:102980004F01002F49D01BB2B3F5FA7FAC48A8BF66
:102990004FF4FA738342B8BF034683EAE370A0EBB7
:1029A000E370584540F3DF81002BCCBFCAEB030333
:1029B00053449BB21AB282EAE270A0EBE270A14AE1
:1029C00007FB00F082FB002E9F4A13FB01F3C017A8
:1029D000C0EB6E1182FB03209B4A0903DB1782FBCD
:1029E000012EC3EB6013C917C1EB6E111BB203FBC1
:1029F00001F3C3F30F33C1F58050B6F9001001FBAA
:102A000000F103EB2133012D26F8023B09D1089A8E
:102A1000FFF7E2BB4146002FB5D13B464FF4805053
:102A2000EBE701259DE711F00DFFBAE60B449D424F
:102A300080F2BA81B4F904329E42C0F273831788DF
:102A4000079BBE461D8820E5D4F83C31198AA4F8BE
:102A5000041293E4B0F80EE00EF1FF3E1FFA8EFE72
:102A6000A0F80EE0FFE557F8261004EB83030022E0
:102A7000C8F8102007EE901A0122C3F8F42004EBE6
:102A80000B03F8EEE76AC3F820110BEB060304EB27
:102A90008303C3ED3A6AC3ED396A83ED3B8AFFF7DE
:102AA00059BB11F0CFFE86E40BEB06030CEB83035E
:102AB000D3F8F420012A40F3A581013A07EE902AC9
:102AC00093ED3C7AF8EEE77AC7EE277AB1EEE70AA3
:102AD000B4EE400AF1EE10FA40F04285069B4BB18D
:102AE00007EE903AF8EEE77AF4EEC07AF1EE10FADB
:102AF00000F11585A344544ADBF82031B9F80000F1
:102B000003F5FA7382FB0312DB17C3EBA213CBF8B6
:102B10002C31FFF729BB4D4B1B88DE0540F154815A
:102B20004B4BD0F83C21598818884A4D9B88ADF80A
:102B30006400ADF86610ADF86830118AB5F806B0DB
:102B40000D95454A454EB2F90230B2F90020444D88
:102B5000B6F800800D984FF47A7603F5E16302F53C
:102B6000E16206FB02F206FB03F385FB03A685FB8D
:102B700002A51E441544DB17D217B0F800C0B0F808
:102B800002E08788B0F80890B0F80EA0C3EBE62307
:102B9000C2EBE52246898589C1EB0B00DFF8D4B092
:102BA000ADF87200A3F5FA73A2F5FA72C1EB0C0C42
:102BB000C1EB0E0E7F1AC1EB0909761A6D1AA8F245
:102BC000DC58C1EB0A01ADF87C30ADF87E20ADF8E1
:102BD0006A80ADF86CC0ADF86EE0ADF87070ADF81D
:102BE0007490ADF87660ADF87850ADF87A105B4629
:102BF000002223F8022F1B498B42FAD11A4B1B7873
:102C00000893002B00F07A84184B0B9AD3F800E05D
:102C100012680A92A1F10E0305930023DFF858C051
:102C20001348CDF838B01E46CDF824E038E000BF98
:102C30003C360020F83900203836002000310020D2
:102C40000CFEFFFF1F85EB51D34D62103A4C002064
:102C50002C300020FC390020E81D0020D01D002071
:102C6000C5B3A291AE1D002040360020F82C0020F4
:102C7000A81B00209E1D00204A360020012215338B
:102C800002FA03F30A9A13400ED103800136089A20
:102C9000F3B293420CF1070C00F1020080F0D981ED
:102CA0009CF80030002BE9D11CF8012C1CF8065CC4
:102CB0000792099A1CF9023C1CF8038C1CF805ECDD
:102CC000C5EBC50102EB4101B1F90220B1F9007079
:102CD000D21B92B2BF4F02FB03F387FB0397DB17B4
:102CE000C3EB67134FEA5209C9EB03039BB2069388
:102CF000B8F1000F40F08A8120AB03EB4E0737F8A4
:102D00001C7C078001231CF9048CD1F80A1003FAFB
:102D10000EFAB04B18FB07F783FB073EFF17BDF910
:102D200018301AEA010FC7EB6E1714BF4FF0FF31CE
:102D300001219F420FDB9DF91C3003FB02F2A54BE2
:102D400083FB02E3D217C2EB6313C9EB03031BB28D
:102D5000BB42A8BF3B46059F37F8152003FB012364
:102D600027F8153092E700234FF4805045E6002302
:102D7000E38194E4DFF88C82D8F8001000293FF456
:102D800063A99A4606F1740909EB0A00B0EE480AF5
:102D90000AF1240A07F0ACFFBAF16C0F8E4B00F079
:102DA0009981D8F80010EFE7079B55885F88A4F851
:102DB00004E2FFF76ABB02283FF683AD874B2F463C
:102DC000A3F802C0FFF774BB0C9A854B12681D88EC
:102DD0005988ADF864509B88ADF86610D504ADF8FD
:102DE000683000F14E837F4AD0F83C310D92198A49
:102DF000B2F806B0A5E69BF8A232002B3FF40FAB69
:102E0000FFF712BBDFED787A60E694F8683023B103
:102E10000B9B1B689A0140F1778308F01FFF09F0B4
:102E20000BFAFFF71CBB0B9B1B689901F7D5B4F895
:102E30006030694F002BF2D16C4A7B6E12681A9297
:102E400019A90E20199308F0A5FE4FF480520A2309
:102E5000A7F85E203370E0E7402012F09DFB0028C9
:102E60007FF4FDAA236D0C2B00F20C84DFE813F035
:102E70000404FD03F503EB03D503CD03C503B6033B
:102E8000AE03A8039C038A038203594A052000214C
:102E90008DE8030002F108030291532009F0F8F9CC
:102EA00000287FF4DCAA082320653370FFF7D7BA27
:102EB000504B019303F10C02242102920091A3F1E3
:102EC0000A0249200233502109F0E2F900287FF478
:102ED000C6AA0C9B1B6813F0800300F018834FF008
:102EE000FF320523206562653370FFF7B8BA424AA6
:102EF000636D1268384F64339342BFF4B0AA402028
:102F000012F04AFB00287FF4AAAA3B6DDFF8F89084
:102F100040270AE012F08EFCA26C236D013A0133C7
:102F2000013FA264236500F0018319F80330DFF844
:102F3000D8801846002BEDD1FDE2304B019303F110
:102F40000C02072702920097A3F1080247200433DE
:102F5000002109F09DF900287FF481AA4FF0FF338A
:102F6000206537706365FFF77ABA254A0220002191
:102F70008DE8030002F108030291482009F088F966
:102F800000287FF46CAA4FF0FF32062320656265AB
:102F90003370FFF764BA184A12686265002303228F
:102FA000A36423653270FFF75ABA134A636D12683F
:102FB000C833934204D312F00DFB00283FF44FAA0C
:102FC0009BF88575002F00F0BF8201233370FFF757
:102FD00046BA00BF1F85EB5198190020BC3900206C
:102FE00000310020FC39002000000000784D002056
:102FF00050D7010846D501088C2B002004D70108C2
:10300000ECD60108FC1D0020DCD4010820AB03EB4A
:103010004E0A07883AF91CAC0FFA87FBD3450DDB43
:103020007FF770AEC8EB0B08D04503DBD845A8BFCF
:10303000D846C2461FFA8AF7078063E6D844C345DC
:1030400003DCC245A8BFC246D3461FFA8BF70780F0
:1030500058E6DDF838B0DDF824E0C74BC7481D78E6
:103060000D9E71460AE036F812201344ABF800308A
:10307000C34B5B4501F10E013FF471AB3BF8023FDE
:1030800091F9062012FB03F280FB0273D217C2EB08
:103090006313ABF800304A7AFF2A01D0AA42E2D388
:1030A0008A88E2E7B74BDFEDB87A93ED080AB4EE11
:1030B000E70AF1EE10FA00F287810020DFF800C382
:1030C000BCF806300344ACF80630FFF7B5B98446C7
:1030D000FFF743B9012283F87020FEF7DABFAB4B4C
:1030E0009EF906709EF914C01A88B3F90260A34BCA
:1030F0007F421CFB02F206FB07F683FB02C783FB41
:1031000006C3D217C2EB27121B11F61792B2F71A99
:1031100017449B1B3D441344ADB20B4405804380D0
:10312000FFF723BB5588079BAE465F88FFF7ADB915
:10313000964B974AB3F904309FED967A82FB0312BF
:10314000DB17C3EBA2031BB208EE103AF8EEC87A05
:1031500027EE878AB0EE480A08F0FAF8F0EE408AC7
:10316000B0EE480A08F0E0F88B4B1B68DF78002FC0
:1031700000F05F8189488A4A4188B2F902300EB274
:103180009B1B44F25066B34200F3AC81854EB342C0
:10319000BCBF03F50C43A033C7F1000E9E4500F3FE
:1031A000A581BB42A8BF3B460688B2F9002019445E
:1031B00033B2D31A44F2506289B29342418000F391
:1031C0008D81784A9342BCBF03F50C43A0339E45E2
:1031D00003DCBB42A8BF3B469E460EEB06039BB2F8
:1031E0001AB207EE902A09B2F8EEE77A06EE901AC4
:1031F00027EEE87AF8EEE66A60EE277AA0EE267A05
:1032000069490380E8EEA67AB2EE046A87EE067A90
:10321000C7EE867ABDEEC77AFDEEE77A17EE102A82
:1032200017EE903A0A804B80FFF714B94FF4006014
:10323000059208F0ABF85D4B5D491B68236293F87B
:1032400000E0059A206A36880690BEF1020F0CBF96
:103250004FF0010E00279C460CBF81F824E081F856
:103260002470B3F86010534B1B78059394F8243006
:1032700007934FF47A7303FB01F393FBF6F3C3F167
:1032800000081FFA88F8002300F1590EA4F82680E0
:1032900060469946F2EE046ABC46C11891F85C702B
:1032A00091F859609FB3B74231D281F85C90BCF17C
:1032B000000F32D000EB8300D0ED087A07EE106AE1
:1032C00027EEA66AB8EEC77A3B4EB4EEC76AF1EEB7
:1032D00010FA44BFC7EE267AC0ED087AFDEEE77A11
:1032E000580017EE901A890126F81310334901335C
:1032F00021F800900831032B21F800800EF1010E17
:10330000A1F1380117D0DDF81CC00698C5E7059F6C
:10331000032FCCD8022BCAD1C7E74878B0423CBFB4
:103320009EF800000EF8580C49782348890120F8CF
:1033300013105800DAE7BAF80030012081F83E0097
:1033400018053FF556A8137859073FF552A808F01D
:10335000ABFA002384F83E30FFF74BB805F088FF46
:10336000B9F80000FEF709BF970700F19B804FF402
:10337000805AFEF759BF00BFB04700201F85EB51B0
:10338000AE1D0020C43600208FC2753CE81D002011
:103390006766666635FA8E3CAC1800202C19002052
:1033A00030190020B0B9FFFF684D0020041E002036
:1033B000981900203B300020C0190020C8190020B7
:1033C0002C300020EFB6B04417F016FDD4ED107A83
:1033D00020EE270A17F08CFCB0F5617FA8BF4FF4F0
:1033E000617007EE900A1FED090AF8EEE77A87EEA2
:1033F000800A07F0ADFF07EE906AF8EEE77A27EE55
:10340000800A17F075FC80B258E69BF885150029F4
:103410006ED01846A36C94F84C100B44B3F5807F23
:10342000A8BF4FF480738342A8BF0346A364FFF78D
:1034300017BA9B4B9B49B3F90020B3F9023007EE52
:10344000902A06EE903AF8EEE77AF8EEE66A27EE72
:10345000E87A60EE277AA0EE267AE8EEA67AF2EE17
:10346000046A87EE267AC7EEA67AD3E68E4B1B78DF
:1034700006EBD67605EB6605062BADB27FF45BA9AD
:103480009CE48A4A0D921146D0F83C21B1F806B06E
:10349000118A0FFA8BF28A42BCBF5B42ADF86830EA
:1034A000FFF74FBB824A1278012A7FF660AFDB78C4
:1034B000804902FB03F20988D31A99421FFA82FA63
:1034C00003DB8A421346A8BF0B460FFA8AFA4FEA7B
:1034D0000A3A1BB29AFBF3FAFEF7A6BEA3F50C4319
:1034E000A03B74E6A3F50C43A03B55E673465BE6B0
:1034F000606C03689B68984732788BE76E4B6F4A25
:103500000592D3F800E0A8E50923337087E44FF073
:10351000FF310722236561653270FEF7A0BF4FF4CB
:103520007A73059DA9F80030FEF793BD18F80330B3
:10353000002B7EF494AF00214FF0FF32042321656D
:1035400062653370FEF78BBF606C0FF0EDFF94F88F
:1035500069306764022B7FF438AD10F07DFA34E5F2
:10356000B0EE670ACDF81CC017F0A6FCDDF81CC051
:10357000FFF7B4BA0C9B1B6818050BD40D23236509
:10358000FEF76DBF4E48B4F85C1012F013F9236DCE
:103590000133F4E74B48BBF81C12BBF91A2212F0B6
:1035A00009F9236D0133EAE79BF8153246489BF889
:1035B00016129BF8172212F0FDF8236D0133DEE797
:1035C000A36D424EDF0410D40C23D8E7404B414892
:1035D000198812F0EFF8236D0133D0E73E482969CE
:1035E00012F0E8F8236D0133C9E79BF812123B484B
:1035F00012F0E0F8336D0133C1E7BBF8D210384860
:1036000012F0D8F8236D0133B9E7BBF8D010354874
:1036100012F0D0F8236D0133B1E79BF8D83432486B
:1036200003EBC3031B010BEB030292F81C24C2EB58
:10363000C20203EB42035B4493F81E1412F0BAF883
:10364000236D01339BE729489BF883159BF884255C
:1036500012F0B0F8236D013391E725482549264A39
:1036600012F0A8F8236D013389E72448244912F0A9
:10367000A1F8236D013382E7224812F09BF8236DF5
:1036800001337CE711F0A6FF00283EF4E8AE4FF4CA
:1036900080520A23A4F85E203370FEF7E0BE00BF1C
:1036A00030190020684D0020BA390020FC39002074
:1036B000E40F0020F0390020F82C0020A01D00208D
:1036C000D0F80108DCF80108B4F8010898190020C6
:1036D0007A04002098F8010888F80108A4F8010885
:1036E00078F8010868F801085CF8010848F8010852
:1036F0001CF8010830F801083CF80108FCF7010843
:1037000014F80108E0F701082DE9F04F2DED028BC8
:103710009C4B1B7897B0002B40F08E809FED9A8ACF
:1037200001939846994B53F80800434400284FD022
:10373000974D984CDFF888922B6005AE002114223B
:10374000954BC9F8006006902060A24605938DF85D
:103750001D108DF81C20914E914FDFF868B206E0E5
:10376000242853D03B7813F004033ED0206805F0A2
:10377000BFFE20B3206805F0B7FE2A6892F84830F3
:103780000146002BECD0012B44D0022B4BD0032B55
:1037900000F06A81042B00F0BC82052B00F09E81B2
:1037A000062BE3D192F8490002F0A6FE002800F0B3
:1037B000CF8112F07BFF2B68002283F84820D9F8D4
:1037C000000005F0AFFD96F83B30002B40F09B81E8
:1037D000019B08F14C080133B8F1980F0193A1D176
:1037E00017B0BDEC028BBDE8F08F2329DAF800207A
:1037F00000F0B282DBF800301B788B4200F0A1822F
:103800002A6892F84830062BB0D1CBE7012382F822
:103810004830ABE74D2814BF00230223062B82F863
:103820004830A3D1BEE73C2814BF00230323062B56
:1038300082F848309AD1B5E75A4F38680028CFD07F
:10384000DFF864B1DFF8809105F06CFDDBF8000073
:1038500005F04EFE0028C3D0534B544E186805F0B7
:1038600043FE092801461CD03F281AD03368002B9C
:1038700075D1042800F0C2820C2800F0EF807F2967
:10388000E4D0A1F12002D2B25E2ADFD80BB9202900
:10389000DCD0474A3868D1540133336005F050FD1D
:1038A000D4E733464FF0000A424D346898465646F6
:1038B0002CB13F482968224616F074FF10B9AA4679
:1038C000002E4AD010354D45F2D34346B0461E4631
:1038D000B8F1000F00F0B980D8F80000DAF8001055
:1038E000035D0A5D9A422044214440F01B82304D22
:1038F00004F1FF3EAE4422460BB92D2A3CD90EF806
:10390000013F0132326010F8013F11F801CF9C45B0
:10391000F2D00AB1C24511D0274812F0F9F8C245D9
:1039200009D358F8100B12F0F3F83868092105F0A4
:1039300007FDD045F5D90FF0DDFD00243368A34223
:1039400084D91E4D2544386815F8011F05F0F8FC90
:10395000336801349C42F6D378E72E46B2E70C2850
:103960007CD00A2932D00D2930D07F2900F0AD80DB
:103970002F2B3FF66BAF84E7511C2020A8543160F9
:103980006B54C7E7654D00200000C842704100201D
:10399000401E0020444C0020D9880008D01B002085
:1039A000744D0020C04B0020B84B0020EC2C0020B0
:1039B000BC2C0020F0E201081CFA0108BB2C0020FE
:1039C000404C00200C420020D0E40108554D5648E0
:1039D00012F09EF82846232116F0C5FE002800F0BC
:1039E000B981411B316081B14B1E4E4AE85C2028F1
:1039F00043D11A4443B112F8011D202903F1FF30CD
:103A000039D10346002BF6D13360484A484B117830
:103A100000222A6043F80C2C43F8082C43F8042CAD
:103A200043F8042B43F8042B43F8042B43F8042BEE
:103A300043F8042B43F8042B43F8042B1A600029A5
:103A40003FF4CEAE0FF056FD00E71CB1BAF1000F07
:103A50003FF474AF374812F05BF862E7364812F073
:103A600057F80FF047FDF1E640284FF0000342D928
:103A700082F848307AE619463360304ADFF8CC8065
:103A80001368019500226A5402961D46D8F800A0DA
:103A9000244C504616F07DFE51460646024620460E
:103AA00016F080FE28B9A25D2A445278530700F030
:103AB0003B8108F11008C845E8D3019D029E2048CB
:103AC00012F026F8002333609FE7013B154A1D489A
:103AD00033600021D15412F01BF8B7E61379507906
:103AE000984200F2818193798B4200F08B81002310
:103AF00082F848303AE60421507190711371D37105
:103B000082F8481032E6019A4C2303FB02F30E4A76
:103B1000D0580FF0FDFC0DF0B1F907F045FC0CF0AA
:103B2000A9F900BFBC2C0020801C0208654D0020B4
:103B3000CC2C00201CFA010824FA010828120020CD
:103B400030FA01084CFA010870410020F0E2010847
:103B50002B6893F84920233AD72A00F25781DFE8EF
:103B600012F01F0A5501150A5501EA095501BC0951
:103B70005501B3095501610955013C095501F30887
:103B80005501AE085501720855017F0255015308D1
:103B9000550155013C0855012B08550155011D08DB
:103BA0005501C307BE075501550155015501550182
:103BB000AE07550175075501210755015501DC0672
:103BC0005501550155015501550155015501550145
:103BD0005501550155015501550155015501550135
:103BE0005501550155015501550155015501550125
:103BF0005501550155015501550155015501550115
:103C00005501550155015501550155015501550104
:103C100055015501550155015501550155015501F4
:103C200055015501550155015501550155015501E4
:103C300055015501550155015501550155015501D4
:103C400055015501550155015501550155015501C4
:103C500055015501550155015501550155015501B4
:103C600055015501550155015501550155015501A4
:103C70005501550155015501550155015501550194
:103C80005501550155015501550155015501550184
:103C90005501550155015501550155015501550174
:103CA000550155015501550155015501A6060D0651
:103CB000E30555014F05440538057A0472041601E1
:103CC00049043C04840355016D03550155013A0331
:103CD00023033E01FA0355015501550155015501D4
:103CE0005501550155015501550155015501550124
:103CF00055015501550155015501DE035501550189
:103D00002602630155015501550155015501550123
:103D10005A01937982F8490059400523917182F83C
:103D2000483023E52246F4E5C845B246019D029E8F
:103D3000BFF4C5AE0AF101002044D8F80C30984712
:103D4000C0E6736B03B19847B54BB64A1A6072B6BA
:103D50000CF080F8316846E6B3487373B34B0260E9
:103D600002913260B249B260B24A1A6071601023A7
:103D7000B14933730122B1480A7011F0C9FE0FF046
:103D8000B9FB3B78029943F002033B7032E5DA79E4
:103D9000511C1A44D97192F808B012F055FC8246B1
:103DA00012F052FC074612F04FFC2A68D379053313
:103DB0000446D371BBF1000F00F03383BBF1100F49
:103DC0000DD19F4BC3F800A05F6008B19D4B1860F8
:103DD0009B489D4B0222011D1A700AF009FC00202D
:103DE000014612F077FCE4E4907902EB030E4840C0
:103DF0000133907113718EF80810B7E4934809F0FD
:103E000029F8EDE4062382F84830CBE401200021B4
:103E100012F060FCCDE48E4B1B785C07F6D407F003
:103E2000F5FA07F0C1FBDAE7DA79991801320F7A6F
:103E3000DA71FF2F00F0478196F83C30DFF81CA2C2
:103E40009F4280F03B810020014612F043FC12F0BB
:103E50002DFCD9F8000005F065FA2B6818680FF002
:103E600057FB206812F0D0FB05F0ECF972B6794BE5
:103E700078484FF0800E4FF0400B0DACFF00A3F8D8
:103E80001AE00422A3F81AB021460123BA44ADF87F
:103E900034E08DF836208DF8373002930EF0BEFBFB
:103EA000029B6C488DF8363021468DF83730ADF8DE
:103EB00034B00EF0B3FBBAF84400DAF84020029BAD
:103EC000D2F800E0410003FA00F08B4043EA0E0311
:103ED0001360604B80B21083A3F818B05D4B1B6970
:103EE0001806FBD4C3464FF0010AA046F319106828
:103EF000B3F844E01C6C0AFA01F10AFA0EF301432C
:103F00009BB211606383534B4022002001465A83C9
:103F10000EF056FB012001460EF052FB42F20F72EA
:103F200002E0002A40F02C824A4B19690906F8D5B4
:103F3000F4194FF0040EB4F84410206C03930AFAFD
:103F400001F189B20183B4F84610ADF8341041464E
:103F500002928DF836E08DF837A00EF05FFB01205D
:103F600000210EF02DFB029A039B002A00F0208214
:103F7000384B1B691B0614D5226CB4F84430106909
:103F80000AFA03F318404FF0400300F0FB81314A76
:103F90000020138301460EF013FB2E4B1B691B06FA
:103FA000EAD4F319B3F844101A6C49009EE7D879A3
:103FB0001918421C097AD2B20F29DA717ED8264C20
:103FC0001A44C1EBC1012144147A821CDA71CC710C
:103FD000DA7998180132007ADA710872DA79981869
:103FE0000132007ADA714872DA7998180132007A6F
:103FF000DA718872DA7998180132007ADA71C87247
:10400000DA7998180132007ADA710873DA79981837
:104010000132DA71037A4B730CF074FFDFE600BFF4
:10402000FCFF0120EFBEADDEB84B0020C04B0020EE
:10403000D9880008D41B0020654D002050FA0108E3
:104040004C1E0020541E0020A9180020BC2C00206B
:10405000744D002000040240F0420020D01B0020DC
:104060005C79CB4AA4FB0201621A01EB520292086E
:10407000C2EBC202A21A12F0FF0F1FD1C44AA2FB68
:104080000412A41A02EB5402C2F38702002A3FF47E
:10409000A6AEC0490F68D97958180131047AD97190
:1040A0004FFA84FE3846002190F902C0F44500F032
:1040B00010860131052900F10800F5D10120002109
:1040C00012F008FB8BE6002460222146B24886F8F5
:1040D0003C4016F013FB8DF813409DF8133096F812
:1040E000A2209A4256D9AD4CAD4F9DF8133006EB45
:1040F000C30393F8A530DB0740D59DF8133004EBDC
:10410000C30393F8A43037F91330002B36DD9DF844
:1041100013309DF8132094F83CA004EBC20204EB8A
:10412000C303D2F8A820D3F8A830128958684FEA00
:10413000CA0163181FFA82FE1864A3F846204FF0E4
:10414000010C00230CFA03F212EA0E0240F0438144
:104150000133102BF6D1134631440422A1F8443028
:104160000AF1010A01230DA9ADF834E08DF83620DB
:104170008DF837300EF052FA86F83CA09DF81330D7
:1041800096F8A2200133DBB28DF813309DF813307E
:104190009A42AAD80020012112F09CFA96F83C001D
:1041A00012F072FAFFF705BBDA797E4C99180132EA
:1041B000097ADA7184F82212DA7999180132097AC7
:1041C000DA7184F82312DA7999180132097ADA71EE
:1041D00084F8241203E6DA79724C511C53FA81F107
:1041E00098180F7A007A911C00EB0727D01C53FA1D
:1041F00080F053FA81F1A4F8D870097A077A101D7B
:1042000001EB0727511D53FA81F153FA80F0A4F80E
:10421000DA70007A0F7A911D00EB0727D01D53FA50
:1042200081F153FA80F0A4F8DC70097A007A083240
:1042300001EB0021DA71A4F8DE10D0E5DA795A4FEB
:1042400002F11004E4B2511C53FA81F103EB020EA7
:10425000087A9EF808100232D2B201EB0021A24285
:1042600027F8021FEFD1DA71B9E55A790F2A7FF4E6
:1042700025AFDA799818511C007AC9B20728D9718C
:104280003FF61CAF02F1020E194453FA8EFE0F7A6C
:104290009EF808E0434CC0EBC00104EB410407EB7F
:1042A0000E2ED11C171D53FA87F753FA81F1A4F88B
:1042B00057E1097A97F808E0571D01EB0E2E911D82
:1042C00053FA81F153FA87F7A4F859E191F808E01D
:1042D0003F7AD11D07EB0E2753FA81F1A4F85B71E9
:1042E000097A0832DA7184F85D11DA7999180132A5
:1042F000097ADA7184F85E11DA7999180132097A4B
:10430000DA7184F85F11DA7999180132DA710B7A6F
:1043100084F8603112F098F9C4F861015FE5DA7948
:10432000204C511C53FA81F19F18087A397A0232D5
:1043300001EB0021DA71A4F8F211DA79501C991816
:1043400053FA80F0097A007A023201EB0021DA7127
:10435000A4F8F01143E5DA79124C9918501C097A47
:1043600084F8C81153FA80F0911C007A84F8C901CE
:1043700053FA81F10332097ADA7184F8CA112EE511
:10438000013AD1E5094A012153830EF019F9EFE50D
:10439000254992240C420020101C0020D01B002034
:1043A000D01D002010420020C24B0020000402401B
:1043B000D846934640221A83584659460EF000F9D3
:1043C00062B60A2005F04CF80FF046FB2B68F3228A
:1043D00083F8492003E59BB2BEE6DA79511C53FA13
:1043E00081F19C18087A217A023201EB0021318791
:1043F000DA71F4E4C44A127802F0040202F0FF0415
:10440000002A7FF4ECACDA79C04998180132007ABE
:10441000DA71012881F8D8047FF601AD81F8D8441B
:10442000FDE4BB4B1020C3F800A05F6006F09EFFC8
:10443000B84A137843F001031370002C3FF4CFAC5B
:10444000B54B1C60CBE4B04B1B785A073FF5C7ACAB
:1044500010F08AFDE3E4DA79511C9C1853FA81F1DB
:10446000D71C087A217A01EB002080B26FF4AF6488
:104470000419911CC62CC9B2A44CD97153FA87F700
:10448000194498BFA4F85002087A3F7A9F4900EB7C
:104490000727A4F8D070101D571D53FA80F053FA67
:1044A00087F7007A3F7A00EB0727A4F8D270901DB7
:1044B000D71D53FA80F053FA87F7007A3F7A00EB62
:1044C0000727A4F8D47002F1080002F1090753FA93
:1044D00080F053FA87F7007A3F7A00EB072702F162
:1044E0000A0053FA80F0A4F8B07202F10C07007AC7
:1044F00084F8A90253FA87F702F10D003F7A84F895
:10450000AA7253FA80F00E32007ADA7184F81F0230
:10451000DA7998180132007ADA7184F84C02D87985
:10452000421C871C53FA82F253FA87F7127A3F7AB9
:1045300002EB072202EB8202C71C520053FA87F7F4
:10454000A4F8EE213F7A021DDA7184F81272DA794A
:1045500098180132007ADA7184F81602DA7998181C
:104560000132007ADA7184F81502DA79981801328A
:10457000007ADA7184F817025A79172A7FF62FAC7D
:10458000DA7998180132007ADA7181F8DB01DA7988
:10459000501C53FA80F09C18077A247A901C04EB84
:1045A000072453FA80F0A1F8E040007A0332DA7170
:1045B00081F8D901DA7998180132007ADA7181F834
:1045C000EC01DA7998180132007ADA7181F8EB019E
:1045D00005E44D4B1B785F073FF501AC4D4A13785E
:1045E00043F004031370FFF7FABB474B1B785B07DC
:1045F0003FF5F5AB494B4FF4C8721A80FFF7EFBB9C
:104600005A79092A7FF65AADD979454A581812685D
:10461000007A0131D9711070D97958180131007AB6
:10462000D9715070D97958180131007AD97164283C
:10463000A8BF64201071D97958180131007AD97156
:104640006428A8BF64205071D97958180131007AC4
:10465000D971FF28A8BFFF209071D979581801316E
:10466000007AD9716428014628BF6421D171D979B3
:1046700058180131007AD9719070D97958180131E0
:10468000007AD971D070D979481C53FA80F05F183C
:10469000047A387A023100EB0420D97150815979BB
:1046A0000A297FF69CABD97958180131007AD97163
:1046B000107259790B297FF692ABD979134C58189F
:1046C0000131007AD9711073DA79164998180132DC
:1046D000007ADA7184F82202DA79086899180132CE
:1046E000097ADA7184F82312DA79511C53FA81F1CC
:1046F0000232097ADA7107EE901AF8EE677AC0EDA5
:10470000147AFFF76CBB00BF744D002010420020EC
:10471000441E00202A1E0020541E00207018002075
:10472000001E0020041E0020BB4A126811780229D6
:1047300063D002F10A073C4602F11400D97903EB79
:10474000010E01319EF808E0D97102F801EFD97924
:1047500003EB010E01319EF808E0D97104F801EF76
:10476000D97903EB010EBA429EF808E001F101018C
:10477000D97100F801EFE1D1FFF731BBDA79A74C2D
:104780009818511C007AC9B2D971002800F08A80AB
:10479000207840F00200207019440232A048097AC3
:1047A000DA71017011F050FF9E4C9F4F206011F0A4
:1047B0004BFF2A686060D3795C1C981CD91C02EB03
:1047C000030E52FA81F152FA84F452FA80F091F811
:1047D00008C09EF808E0247A007A39780433D3714F
:1047E000924A934B0EEB042400EB0C2041F00201A3
:1047F000148018803970FFF7F2BADFED8E6A02F18B
:10480000200102F12C04B2EE047AD8791F1801308D
:104810003F7AD87107EE907AF8EE677AC7EE877A1A
:10482000E1EC017AD8791F1801303F7AD87107EE90
:10483000907AF8EE677AA142C7EE887AC1ED027AE3
:10484000D87903EB000700F101003F7AD87107EE39
:10485000907AF8EE677AC7EEA67AC1ED057AD4D1E0
:1048600002F10E010420B2EE047ADC791F19082847
:1048700004F101043F7A6DD0DC7101F80A7CDC7927
:104880001F1901343F7ADC710F70DC791F190A2877
:104890003F7A04F10104DC718F723FF4A0AA013069
:1048A0000131E2E7207820F00200207074E75A79A5
:1048B0005208122A3FF602AC1146002A68D093F83B
:1048C00007C00DAC11B26046A24604EB410B00F1EB
:1048D000010E1F1853FA8EFE3F7A9EF808E007EB90
:1048E0000E272AF8027B0230DA45C0B2EFD10CEB7A
:1048F000420C83F807C0002A4AD04F4B04EB41001A
:1049000034F8027B23F8027F8442F9D1122A3FD186
:104910004A4B01221A70FFF762BA96F83A20012A30
:104920003FF65DAADA79464C99180132097ADA71B4
:1049300084F88515DA7999180132097ADA7184F8E0
:104940008315DA7999180132097ADA7184F88415B5
:10495000FFF745BA07EE907AF8EE677ADC71C7EE9A
:10496000877AC2ED117ADC791F1901343F7ADC7144
:1049700007EE907AF8EE677AC7EE877AC2ED127A80
:10498000DC791F1901343F7ADC7182F84C7086E7BC
:104990002C4B002203EB4101243321F8022B9942D6
:1049A000FBD1B5E7D8791A18411C127AC9B2112A7D
:1049B000D9713FF683AB224C194402F5987204EB8F
:1049C000420791F808E0811CD97187F801E0D87995
:1049D000411C53FA81F103EB000E0F7A9EF8081088
:1049E00001EB072189B240F2ED270230B942D871BC
:1049F00063D940F6CA038B42A8BF0B461249A3F203
:104A0000EE2381FB0301DB17C3EBE103DBB204EB15
:104A100042029370FFF7E3B9041E00202A1E002013
:104A20002B1E00202C1E00203E1E0020341E0020C5
:104A3000361E002000007A441A3800205D3A00201B
:104A4000104200201C3800201F85EB51DA79BB4C46
:104A500099180132097ADA7184F8AE12DA79991864
:104A60000132097ADA7184F8AF12DA79511C981898
:104A700053FA81F1007A0F7A911C00EB072053FA68
:104A800081F1A4F8B002097A0332DA7184F8B21223
:104A9000DA79511C981853FA81F1007A0F7A911C37
:104AA00000EB072053FA81F1A4F8B402097A03322B
:104AB000DA7184F8B612FFF792B90023A7E7DA7922
:104AC000511C53FA81F19C18087A217A023201EBC9
:104AD000002080B2DA7111F033FEFFF780B90123B4
:104AE00086F83B30FFF77BB9DA79944C991801329C
:104AF000097ADA7100236171A36011F0A5FDA26843
:104B00002B681043A060DA7999180132097ADA71BA
:104B100084F84812DA79501C991853FA80F0097A0F
:104B2000007A971C01EB0021D01C89B253FA87F759
:104B300053FA80F0C4F8CC11397A007A171D01EBD2
:104B40000021501D89B253FA87F753FA80F0C4F858
:104B5000D011397A007AD71D01EB0021901D89B25E
:104B600053FA80F053FA87F7C4F8D411007A3F7AE9
:104B700002F1080100EB072702F1090053FA81F165
:104B800053FA80F0A4F81A72097A007A0A3201EB1B
:104B90000021DA71A4F81C12FFF721B9684A02F16A
:104BA0000800D9795C180131247AD97102F8014FD3
:104BB0008242F6D1FFF713B9DA79604C99180132C5
:104BC000097ADA7184F89B12DA7999180132097A34
:104BD000DA7184F89A12FFF702B9DA79594F981806
:104BE0003968047A91F800A00132DA7120460C701D
:104BF0000CF016FA3B681B7853453FF4F0A80020F0
:104C000011F09EFDFFF7EBB8DA794C4C99180132A0
:104C1000097ADA7184F81212DA7999180132097A6C
:104C2000DA7184F81612DA7999180132097ADA7190
:104C300084F81512DA7999180132097ADA7184F850
:104C40001712FFF7CCB8D8791A18411C127AC9B2DA
:104C50000E2AD9713FF632AA19440230097AD87166
:104C600003293FF62BAA354C02EB420204EB420229
:104C700082F82E15D97958180131007AD97182F845
:104C80002905D97958180131007AD97182F82A0595
:104C9000D97958180131007AD97182F82B05D97960
:104CA00058180131007AD97182F82C05D979581831
:104CB0000131007AD97182F82D05FFF790B8DA79C1
:104CC0001E4C99180132097ADA7184F84C12FFF7F8
:104CD00086B807EBC101881C3FF4F0A98C70D87925
:104CE000441C53FA84F403EB000C94F808E09CF89D
:104CF0000840023004EB0E24D8718C80D8791C183F
:104D00000130247AD8718C71D8791C180130247A3A
:104D1000D871CC71D8791C180130247AD8714C72B2
:104D2000D8791C18013A247A013012F0FF02D871A8
:104D30000C727FF4B0A9FFF752B800BF10420020F8
:104D40004F440020041E0020DF79D9197A1C097A0B
:104D5000D2B21F29DA713FF6B1A9587908287FF439
:104D6000ADA91A44AD4C92F808E0BE3104EB8100C5
:104D7000FA1C0EF03F0EDA71A0F802E0DA7903EBCC
:104D8000020E971C9EF80820DF714788920102F4FA
:104D9000FE523A434280DA799F1801323F7ADA7143
:104DA0003A0104F82120DA799F180132DA713F7A4A
:104DB00014F8212007F00F073A4304F82120DA798C
:104DC00099180132DA710B7A43700AF057F90AF038
:104DD000A7F90AF083F9FFF702B8904C04F14007F5
:104DE000DA79511C53FA81F103EB020E087A9EF82E
:104DF0000810023201EB0021DA71A4F87813DA7995
:104E000099180132097ADA7184F87A13DA799918E3
:104E10000132097ADA71043484F87713BC42DFD1A5
:104E2000FEF7DDBFDA797D4998180132007ADA7130
:104E300081F84802DA79501C9C1853FA80F0247AE1
:104E4000077A901C04EB0727D41C53FA84F453FA16
:104E500080F0A1F85472007A277A141D00EB07271E
:104E6000501D53FA80F053FA84F4A1F85072077A77
:104E7000247A901D04EB072453FA80F0A1F85242E3
:104E8000007A0732DA7181F84A025A79082A7EF6E6
:104E9000A6AFDA79501C53FA80F09C18077A247A6E
:104EA000901C04EB0727D41C53FA80F053FA84F4C7
:104EB000A1F85C72007A247A043200EB0420DA71E3
:104EC000A1F85E02FEF78BBFDA79544C99180132D3
:104ED000097A6171DA71FEF782BFDA794F4C511CA1
:104EE00053FA81F198180F7A007A911C00EB07278A
:104EF000D01C53FA81F153FA80F0A4F81A72007AA8
:104F0000097A171D01EB002153FA87F7A4F81C1248
:104F1000901D511D3F7A84F81E7253FA81F153FAA5
:104F200080F0097A007A073201EB0021DA71A4F8E7
:104F30002012FEF754BFDA79384C511C9F1853FAEF
:104F400081F1087A397A971C01EB0021D01C89B2D3
:104F500053FA87F753FA80F0C4F8CC11397A007A03
:104F6000171D01EB0021501D89B253FA87F753FA40
:104F700080F0C4F8D011397A007A01EB002189B2AF
:104F80000632DA71C4F8D411FEF729BF234C00238E
:104F9000A36011F059FBA3681843A060FEF71FBF80
:104FA000D8791918421C097AD2B21329DA713FF65E
:104FB00085A81A441A4F147A0230D8710022384654
:104FC00005E00132222A00F10C003FF477A890F8A6
:104FD00008E0A645F5D1114C01F59B7102EB4202A8
:104FE00004EB810417F822206270DA790D499818D1
:104FF0000132007ADA71A070DA7908689918013202
:10500000097ADA71E170DA79511C1A44D971137A8C
:1050100023710EF0D3FDFEF7E2BE00BF1042002068
:10502000B0D70108041E00202DE9F04F2DED028BB2
:1050300089B009F0C9FEB24B1B7823B109B0BDECB1
:10504000028BBDE8F08FDFF8E8B2DBF800205105F5
:10505000F4D5AC4CAC492278B1F8DE70AB4D002AE7
:105060007FD1637EA74F002B38D194F89E302E68F5
:10507000A44F43B1D7F8A00028B197F8A430013B62
:10508000012B40F2158194F8B5309E4E4BB1D6F805
:10509000B83033B12F68D6F8BC30FB1A632B00F25E
:1050A000B7819B4D2B78022B00F03A85994F97F8EA
:1050B0007430984E032BC1D1D4F8C400914C04F045
:1050C0000BFA0028BAD0D4F8C400012104F000FA89
:1050D0000222002386F874202B70AFE704F0CCF98D
:1050E000FB698D4AC31A9342064600F2678294F820
:1050F0008070DFF81082002F40F06181D8F88800BE
:1051000004F0F6F901280ED9022840F00A87814BF5
:105110001A78002A41F03880D8F88420B21AB2F503
:105120007A6F81F03680D4F88C30764A002B9CD090
:1051300092F88010002940F04781D2F89830D2F8D8
:1051400088001B780121022B82F880104FF00201A9
:1051500000F27C85043007F0FBF9002384F89C30D2
:1051600053E1626829688A1A7C2A7FF67AAF227A2C
:10517000DFF8C091DFF8C0819FED688A616001327D
:105180001E46227206F12400C0B209F00DFEB8F8E6
:10519000003007EE903A59F8263007EE103AF8EE54
:1051A000E77AB8EEC77A0136C7EE277A67EE887AD3
:1051B000FDEEE77ACDED017ABDF804A05FFA8AF042
:1051C00009F0CEFD4FEA1A2009F0CAFD032ED9D10D
:1051D000302009F0E9FD002009F0C2FD002009F0AF
:1051E000BFFDE068DFF81C815E210BF01FFD237A14
:1051F00013F0030627D1D8F8042041F288339A42ED
:1052000000F29C87142009F0CFFD454B454EB3F9C1
:10521000043086FB0326DB17C3EBA606B6B2F0B25A
:1052200009F09EFD300A09F09BFD1C2009F0BCFD31
:10523000002009F095FD002009F092FDE0685E2154
:105240000BF0F4FC237A5A0700F05A85282B7FF4E0
:1052500008AF2B68344E4FF000081720A6FB03362A
:1052600084F8088009F0A0FD404609F079FD2F4B35
:10527000B609A3FB06277F09A3FB07235B09C3EB42
:105280000313A7EB8300C0B209F06AFDC7EB071751
:10529000182009F089FDA6EB8700C0B209F060FD77
:1052A000404609F05DFDE0685E210BF0BFFCD8E6EA
:1052B0004FF002084FF0010903E0D4F8A00084F891
:1052C000A5A004F015F9002838D0D4F8A00004F007
:1052D0000BF994F8A5302A687E2B8246EDD11B2865
:1052E00087F8A480E9D1D7F8A000019204F000F972
:1052F0000028E2D1019AC7F8A82087F8AC90DCE733
:10530000654D0020D41C0020104200208C2B002072
:1053100097380020040400203F0D030000007A4469
:10532000E81D002067666666D34D6210898888880C
:10533000F8390020B81D00207A040020D4F8A81005
:105340002B68904A5B1A41F658318B4200F2168165
:1053500092F8AC108C4FDFF84082DFF840A2DFF803
:10536000509294F8AD20002900F0EE832B689B1B2F
:10537000012B00F2ED8337F81200002840F01A826A
:10538000012384F8AD30D8F800309A06E9D59AF8B0
:1053900000309B07E5D57D4B7D4A1B8803EBC3039B
:1053A0009B00123382FB0321DB17C3EB61114FF427
:1053B000036007F099F8002184F8AC10D1E7D4F825
:1053C0008C30002B3FF451AED4F894206D4FB21ABC
:1053D00040F6B7318A427FF648AE97F89020002A0F
:1053E00040F05A84D7F89830C7F88C201B7887F89B
:1053F0008020022BD7F888004FF0010100F2988539
:10540000043007F0A5F807F0BBF8C4F894602CE668
:10541000DFF8A0815F4D412007F04EF8B8F9023067
:1054200085FB0320DB17C3EBA00080B207F02AF84E
:10543000B8F9003085FB0320DB17C3EBA00080B276
:1054400007F020F8B8F9043085FB0320DB17C3EB25
:10545000A00080B207F016F8D6F8B80096F8C01091
:105460000BF0E4FB96F8C15015F0010600F08683BE
:10547000494B1B689E0672D5484BDFF83C811B7870
:10548000980740F1468698F80030052B34BF022576
:105490000325434E472007F00FF8306806F0C4FF9D
:1054A00070683B4E06F0C0FF384BD4F8B8001B883C
:1054B000A6FB0336C6F3471631460BF0B7FB394A55
:1054C00094F8C0301288642000FB02F05E4084F83B
:1054D000C06006F0A9FF98F80030D4F8B80045EA9B
:1054E0008305EDB229460BF0A1FB94F8C030D4F847
:1054F000B8005D40294684F8C0500BF097FB94F843
:10550000C15065BB284E4F2006F0D6FF306806F02C
:105510008BFF706806F088FF284606F085FFD4F8F8
:10552000B80001210BF082FB1C4B94F8C0201B78C3
:10553000D4F8B80003F00105294682F0010384F88D
:10554000C0300BF073FB94F8C030D4F8B8006B4057
:10555000194684F8C0300BF069FB94F8C150134B26
:10556000C4F8BC700135EDB2A3FB0523DB0803EBE7
:105570008303A5EB430584F8C15092E5032382F829
:10558000A43080E5D41C002088FA0108361E0020D3
:105590001F85EB5167666666B01D00202A1E00203D
:1055A0002C1E0020341E0020441E0020CDCCCCCC6C
:1055B000E9A28B2EE81D00202B1E0020CA4B396D5E
:1055C0001B882868FA6CDFF85CE35FFA83FC1B0A2F
:1055D00087F83F3087F8353087F83EC087F834C009
:1055E000097C4FF47A7303FB01F3821A00219A427B
:1055F00087F8221087F8241080F08284BB4BBC4AC5
:1056000018681268BB4BBC49DFF81C830F7898F808
:1056100000E084F86EE083FB00C183FB02C3D21775
:10562000C2EBA303C0171A12C0EBA101081284F841
:105630004120BA0784F8403084F83C1084F83D00DB
:10564000AE4B40F15984BEF1040F8CBF332232229D
:1056500083F86F20AA4AAB49D2F800E05768AA4BFA
:10566000AA480988ADF80410B0F800A0A84ADFF8ED
:10567000BC9283FB0E104FEAEE7883FB07134FEAD0
:10568000E77CCCEBA35CC8EBA05802FB08E002FB74
:105690000C7202EB4202520000EB40004000114647
:1056A00089FB00230A4689FB022908EB88080AEBDC
:1056B000CA0208EB880892000CEB8C0C0491029251
:1056C0004FEA8801019A03910CEB8C0C4FEA8C0194
:1056D0004FEAE07A05919B1402F5FA71FF0F8D4AAB
:1056E00084F86270CAEB030702FB17031FFA81F804
:1056F000039A0499CDF804804FEAA9494FEAE1786A
:1057000042FA87F7834ADFF828C2C8EB09004FEA5C
:10571000DE7E02FB101084F85DE005999DF804E040
:1057200084F869E0C8EB090E41FA8EFE8CFB031881
:10573000DB17C3EB68134FEAE07A8CFB0018764A5C
:1057400002981288DFF8EC9184F867208CFB001C2B
:10575000BFB2019984F85E70C0171FFA8EFECAEBC3
:105760006818C0EB6C104FEA172AB9F800C084F82B
:105770005FA04FEA1E2984F863E0090A120A1F128B
:105780004FEA282AC0F3072E84F8649084F860302A
:1057900084F8617084F8658084F866A084F85B0002
:1057A00084F85CE084F86A1084F8682084F870C09B
:1057B000E6619CE40132B0F5C06FD2B200F08081A6
:1057C0002FD8B0F5007F00F08D814CD9B0F5806FF7
:1057D00000F0B280B0F5826F00F01781B0F5047F61
:1057E0007FF4C1ADDBF8003084F8AD209807434A60
:1057F0007FF5B7ADD2F8B030DB7B002B00F0238211
:10580000394B464A1B88117893FBF1F101EB81017A
:1058100049004FF4047006F067FE002184F8AC10D4
:105820009FE5B0F5006F00F0118134D8B0F5E26F5C
:1058300000F0E680B0F5E46F00F0D380B0F5E06FE3
:105840007FF491AD364B84F8AD201B6889FB0321B2
:10585000DB17C3EBE1014FF4E06006F045FE0021E9
:1058600084F8AC107DE5B0F5807F00F01881B0F5CC
:10587000887F7FF478ADD8F8003084F8AD205B07DE
:105880007FF56FAD00214FF4887006F02DFE0021EA
:1058900084F8AC1065E5B0F5036F00F02086B0F534
:1058A000046F00F09080B0F5026F7FF45CADD8F823
:1058B000003084F8AD209806104A7FF552AD9AF872
:1058C00000309B077FF54DAD0E4B01921B88642184
:1058D00001FB03F14FF4026006F006FE019A00217D
:1058E00082F8AC103DE500BFF0390020F81D002023
:1058F000F01D0020676666662A1E0020D41C00206A
:105900002C1E0020341E00206BCA5F6B361E002048
:10591000806967FF40420F003A1E0020E40F00201C
:10592000B81D00208C2B00202B1E002083DE1B4383
:105930001F85EB513C1E002094F8B41084F8AD2074
:105940000131C9B20329C34A00F2E48042F2107364
:1059500082F8B41003FB01F1BF4B1B78D80748BF96
:1059600001319A0748BF02315807BC4B1B8848BF1A
:105970000431DA0748BF0A31980748BF14311A06C4
:1059800048BF2831D80548BF28315A0748BF64317D
:10599000180748BFC8319A0548BF01F5C871980675
:1059A00048BF01F57A71DA0648BF01F5FA61580679
:1059B00048BF01F57A614FF4806006F095FD002143
:1059C00084F8AC10CDE4A64B84F8AD20B3F90410F4
:1059D00001EB8101490006F087FD002184F8AC103D
:1059E000BFE4A04B84F8AD209B6889FB0321DB1743
:1059F000C3EBE10106F078FD002184F8AC10B0E4BF
:105A0000984B84F8AD205B68EFE7D8F8003084F855
:105A1000AD209A0640F1A3809AF80020924912F036
:105A2000020F14BF4FF47A70002012F0010F14BF60
:105A30004FF4FA6300230978034419444FF4826059
:105A400006F052FD002184F8AC108AE4D8F800304A
:105A500084F8AD209B067FF584AC9AF80030980757
:105A60007FF57FACD207814B40F13A815A6880497B
:105A700082EAE273A3EBE27303EB5303A1FB03138C
:105A8000D908002AACBF41F0004141F040414FF439
:105A9000006006F029FD002184F8AC1061E484F870
:105AA000AD20D8F800206B4B52077FF55AAC00218F
:105AB000019306F019FD019B002183F8AC1050E41E
:105AC00084F8AD20DBF80020624B12057FF549AC6D
:105AD000684A0193116806F007FD019B002183F8D5
