:020000040800F2
:100000000004002061280108D79500083114010878
:10001000D9280108D9280108D928010800000000C2
:10002000000000000000000000000000D59500085E
:10003000D395000800000000D1950008CB8200088D
:10004000D9280108D9280108D9280108D928010888
:10005000D9280108D9280108D9280108D928010878
:10006000D9280108D9280108D9280108D928010868
:10007000D9280108D9280108F9D60008D92801088B
:10008000D9280108D9280108D9280108D928010848
:10009000D9280108D9280108D9280108D9820008DF
:1000A000BD6C0008D9280108D9280108D928010801
:1000B0003DD400082FD40008D9280108D73A0008F9
:1000C000DB3A0008D13A0008D53A0008D9280108DF
:1000D000D928010891D70008D9280108F1D60008CD
:1000E000DF820008D9280108D9950008D92801081D
:1000F000CD6C0008D9280108DD6C0008D92801085A
:10010000D9280108D9280108ED6C0008D928010870
:10011000D9280108D9280108D9280108D9280108B7
:10012000D9280108D9280108D9280108D9280108A7
:10013000D9280108D9280108D9280108D928010897
:10014000D9280108D9280108D928010801910008F7
:10015000D92801086DD6000899D7000863D6000891
:10016000D9280108D9280108D9280108D928010867
:10017000D9280108D9280108D9280108D928010857
:10018000D9280108D92801082DE9F04FA24C23787D
:100190000A2B9CBFA14A34212DED108B98BF01FB87
:1001A00003238FB094BF9E6A00269D4D08A8EB687C
:1001B00098479DF8203023B123780A2B0DD90023CE
:1001C00010E008F051F8974B1B68F31A1844964B4F
:1001D0001B6864339842E8D3EEE7904A342101FB70
:1001E00003239B6A914ADFED92AA924C924E9BB2F6
:1001F00007EE903AB8EE670A138060EE2A0A8F4B3A
:1002000020460121C3ED000A0AF0FAFCFCEEC07A98
:10021000894817EE903A23816B68984748B9884B14
:10022000884F1A6812F0020F984640F0CB8000F019
:1002300011BCD4F80CE0B51E0022834802F1100373
:1002400000EB020C034461460EF1FF37002031F849
:10025000028F21F8028C17F9019F994218FB0900BF
:10026000F5D135F8023FACF810309EF90810123283
:10027000362A13FB01034FF4807193FBF1F32B80BB
:10028000DBD16D48714F94F846206A4D014607F066
:100290002BFA3B8805F1940A002B6BD0AB6C1B78D2
:1002A00008EE103A05F14C084FF00009583539882E
:1002B000B1F57A7F02BF0023C8F800302B61D8F86F
:1002C000002036F919301A4407EE903A2B69C8F825
:1002D00000200133012B4FEA490BF8EEE77A2B613E
:1002E00006D10023C5ED017AC5ED007AAB601BE0B5
:1002F000D5ED006A07EE103A37EEE66AB8EEC77A37
:1003000086EE077A36EE877AD5ED026A85ED017AB8
:1003100077EEC77A85ED007AE6EE276AF0EE667A28
:10032000C5ED036AC5ED026A0023012926F80B30EA
:100330002AF80B302AD12B69012BC3BF03F1FF33FD
:1003400000EE103AD5ED037A9FED410AC4BFB8EE36
:10035000C00A87EE800A14F0EBFC18EE103A5BB18D
:10036000F8EEC87AB4EEE70AF1EE10FA04DD4FF4C5
:100370007A733B8000231AE0D8F800304FF47A7289
:1003800003F5FA7393FBF2F32AF80B3009F1010934
:10039000B9F1030F08F1040805F1140587D1388875
:1003A000012801D107F0BCFF3B88013BE1E736F8AB
:1003B00013203AF81310521A26F813200133032B96
:1003C000F5D12CE7234B1B78002B00F0438307F07B
:1003D0004BFFD4F89C30C4F89C00C31A0FEE903A3F
:1003E0000025D4F8A0A0DFF874909AF80010B9B3F3
:1003F00037F91530184800EE103AF8EE6F0AB8EEEB
:10040000C00A00EBC50060EEAA0A0AF0F9FBFDEE97
:10041000C07A17EE903A25E08D070020DC0400201A
:10042000CC390020E82700205C0F0020EC0E0020D3
:10043000BD378635340A0020240F0020903A002072
:10044000F00E0020BC3E0020440A0020EE3E0020BA
:1004500000000000EC3E0020D80A00201E0F002003
:1004600037F8153029F815300135032DB9D1D8F8F2
:100470000030BD4A13F0080F08D0B2F9001029B1BE
:10048000B2F9021011B1B2F9041091BBB749097861
:1004900001F0100000F0FF0580B313F020052DD00F
:1004A00001F0020303F0FF0543B3B14B1B78042BAB
:1004B00023D9B04B1B88B3F5967F1ED3AE4BB3F94F
:1004C000043007EE903AAD4B1B88B8EEE77A07EEA2
:1004D000903AF8EEE77AB2EE048A87EE888A012530
:1004E0004FF0000B77EE487A9FEDA58A27EE888AB9
:1004F00007E000254FF0010B01E00025AB469FED22
:10050000A18AB6F90030B2F80080978808EE903AD8
:10051000B6F90230F8EE6F7A09EE903A67EEAAAAC1
:10052000F8EEE99AD4ED2F7AB6F90430568869EEE0
:10053000A79AF8EEE88A09EE103A68EEA78A29EE43
:10054000A90AB9F90030B8EEC99AA8EEA80A0CEECB
:10055000103AB9F9023029EE279A0CEE903AB9F91F
:100560000430A9EE090A0DEE103A14F0E1FBB8EEE2
:10057000CCCAF8EEECCAB8EECDDAB0EE40EA15B36C
:10058000DFED817AB4EEE78AF1EE10FA04DDDFEDFB
:100590007F7A38EE678AF3E7DFED7D7AB4EEE78A9B
:1005A000F1EE10FA04D5DFED797A38EE278AF3E719
:1005B000B6EE000A28EE000A0AF0E5FC9FED71BADB
:1005C00030EE0BBA01E09FED6FBA9FED6EAADFED42
:1005D00071DA714DF7EE00BABBF1000F53D00FFA8C
:1005E00088F807EE908A33B2B8EEE7FA08EE103AD0
:1005F0002FEE0F0AB8EEC88A3FB207EE907AA8EE47
:10060000080AF8EEE7EAAEEEAE0AB4EEED0AF1EE55
:1006100010FA38DD14F08CFB8BEE800AD5ED017AF0
:1006200095ED007A28EE008A2FEE00FA68EE277A20
:100630006EEE80EAE7EE0F7A95ED040A95ED027A08
:1006400028EE008AE7EE2E7A95ED037AA7EE0F8A60
:1006500095ED057AA7EE2E8A28EE080AA7EEA70ADE
:1006600014F066FBD5ED067A20EE480AB0EE4A8A11
:10067000A7EE808AD5ED077AA7EE80AAD5ED087A95
:10068000A7EE80BA01E0B0EE4A8A2CEEAC0AACEEDE
:100690000C0AADEE0D0AB4EEED0AF1EE10FA21DD12
:1006A00014F046FB8BEE800AD5ED076A95ED087ACB
:1006B0002DEE00DA6CEE80CA66EECD7A2CEE00CA22
:1006C000ECEE877A27EE4C7A38EE278AD5ED067A5B
:1006D000ADEE277A67EEEC7A3AEE07AAECEE267AD0
:1006E0003BEE27BADAED017AF5EEC07AF1EE10FAB8
:1006F0004FF000031FDD9FED297AB4EEC7EAF1EE5B
:1007000010FA1ED567EE886A94ED307AA6EEAA7AC2
:1007100067EE8A6A84ED307A94ED317AA6EEAA7A91
:1007200067EE8B7A84ED317A94ED327AA7EEAA7A6D
:1007300084ED327A05E0C4F8C030C4F8C430C4F89F
:10074000C830174EDAED027A337859072CD4154B9E
:100750001A6844F61F639A42F7EE006AB2EE047A12
:1007600088BFB0EE667A21E0E00F0020680F00201D
:10077000690F0020760F0020420F0020780F002024
:1007800035FA8E3C00000000DB0F4940DB0FC9400A
:10079000DB0F49C00AD7233CF43B0020C2B8B23E6D
:1007A000F03E0020602C0020B7EE007A27EE877A1A
:1007B000D4ED307ADFF84C83C44AD8ED005ADFF824
:1007C00048B392ED005AC24F0592E7EE087A97EDD2
:1007D000006A9FEDC08A78EEA78AD4ED317AE7EE01
:1007E0000A7A79EEA79AD4ED327AE7EE0B7AB1EE77
:1007F000467A39EE279AF6EE007A6AEEA77A69EE23
:10080000A79A29EE279A69EEE56A25EE890A68EE2D
:10081000A78ADBED007AA5EE280AE7EEE86AA7EEE4
:10082000290AE7EE096A29EE677A37EE800AA5EE13
:10083000297A67EEA97A75EE266AA6EE287AE5EEA1
:10084000097A8BED000A20EE000A35EE877AA6EED3
:10085000A60AE5EEE87AA7EE070A76EE277AC2ED59
:10086000006AA7EEA70A88ED007AC7ED007A14F0B7
:100870005FFA8BEE800A059AD2ED007AD7ED00BAC6
:1008800067EE807AC2ED007ADBED007A67EE807A5F
:10089000CBED007AD8ED007A67EE807A2BEE800AF5
:1008A000C8ED007A87ED000A10F072FBD5ED080A5A
:1008B00095ED070A884F14F097F820EE080A13F018
:1008C000EFFF95ED060A3880B1EE400A14F02EF8DD
:1008D000DFED827A37EEC00A20EE080A13F0E0FF5F
:1008E000D5ED000A95ED030A788014F07DF8D4ED7B
:1008F000337AE0EE487AB0EE670A13F0D1FF83B2A4
:100900001A0458BFBB80D5ED085A754BD4ED347A24
:100910001A7895ED010A95ED065AF4EEE75A44BFB0
:1009200000F56160B880F1EE10FACCBF42F0080229
:1009300022F008021A70B9F90030D5ED007A06EEFF
:10094000103AB9F9023007EE103AB8EEC77AB8EEAD
:10095000C66AB9F9043027EE000A06EE903AA7EE0F
:10096000860A9AF80130F8EEE66AD5ED027AA7EE2B
:10097000A60A012BD5ED077A67EE277AE5EE067A0F
:10098000E5EEA67AD5ED045A27EE257AD5ED035A81
:10099000A5EE867A95ED056AA6EE267AF1EE478AEF
:1009A00018D1337858070FD4D4F8D430402293FBB1
:1009B000F2F29B1A07EE103AB8EEC77A37EE277AB2
:1009C000BDEEC77A84ED357AD4F8D430402293FB5B
:1009D000F2F301E0434B1B8894ED368A07EE103AA0
:1009E000B8EEC77A77EEC77A94ED377A3AEE877A1F
:1009F00077EEC87ACAEE87AAAAEEA78A84ED368A6D
:100A000013F04EFFD4F8E050374C29780AF0ACFAD6
:100A10002368B0EE680A1844206013F041FF29787B
:100A20000AF0A2FA6368B0EE480A1844606013F056
:100A300037FF69780AF098FAA3682C4A18441FEE29
:100A4000901A1368A06019441160294A1368013391
:100A5000136003E000233B807B80BB80254BB3F910
:100A60000610254BD3F800E0BEF80A2091420FDBB8
:100A7000B1F5FA6F9EF80750BDBF8B1A6B43A2F514
:100A8000FA65C5F16405BCBF93FBF5F5643500E07C
:100A900064251A4B1A4AB3F824C193F9EE30126850
:100AA00005929BB2164606930022124B33F9128030
:100AB000CCEB080303F2F31440F2E63084424FEA31
:100AC000420923D8002BB8BF5B4221E02407002055
:100AD000F03B00204C3D0F44420F0020DB0FC93F8C
:100AE000680F00200404002004280020043F002098
:100AF00000280020B4380020600F002014330020AC
:100B0000640F0020EC3B0020E83B00204FF4FA7318
:100B1000022A059C4FF064002AD094F811411CB1C0
:100B2000A342CCBF1B1B0023BA4C93FBF0F76FF022
:100B3000630B34F817A00BFB073B013734F9174060
:100B40000FFA8AF7E41BB44F04FB0BF494FBF0F4A8
:100B5000544427F809400EEB020424796343AF4C58
:100B600093FBF4F364339BB26B4393FBF0F02CE004
:100B700094F812411CB1A342CCBF1B1B0023A84C0C
:100B800093FBF0F06FF0630A0AFB003B04EB4007B5
:100B900004EB4000B7F9E470B0F9E600C01B00FBBD
:100BA0000BFBBDF818009BFBFAFBC7EB0B0717FB11
:100BB00000F7994887809EF80600002BB8BF5B427B
:100BC0004343964893FBF0F064307478954B642768
:100BD000444394FBF7F49C5403F1030AF47A44432E
:100BE00094FBF7F40AF802400633747D022A00FBF6
:100BF00004F0894C90FBF7F098548B4B0ED1E045F4
:100C00009F700EDB894BB3F826219142984614DB86
:100C1000B1F5FA6FA8BF4FF4FA610FE0E0459D54BB
:100C200004DA34F809305B4224F809300132032A2F
:100C300006F101067FF439AFE4E711467C4F764EAA
:100C4000891A4FF47A736FF063055943C2F5FA625B
:100C50006423B1FBF2F191FBF3F237F8120005FBCC
:100C60000211013205B237F91220521B514391FB98
:100C7000F3F30344E3806F4B694D1B8813F0400F7F
:100C800039D06D4BDFED6D7AB3F904300A2293FB56
:100C9000F2F3B5F8FC209B1A1BB208EE103AB8EE3E
:100CA000C88A28EE278AB0EE480A0AF0CDF9F0EE9D
:100CB000408AB0EE480A0AF066F9B6F9023006EE4C
:100CC000903AB6F90030F8EEE66A07EE903A20EE78
:100CD000667AF8EEE77AA7EEA87A67EE807ABDEE3C
:100CE000C77AE6EEA87A17EE103AFDEEE77A33807F
:100CF00017EE903A738098F82A31002B51D02A8948
:100D0000B5F8FE00B0FBF2F04D4A454B1278461C98
:100D1000B6B2A5F8006112B3B3F802910023404FB8
:100D200034F813C007F5867E07F5827B3EF8132062
:100D30003BF813102EF813C0C2EB0C0A11FB09F19B
:100D400032B291FBF2F252442BF813200133042B00
:100D5000E5D13B4BA7F8020100221A7004E0B3F87A
:100D60000221013AA3F802212D4AB2F8020103B28E
:100D7000002B4FF0000312DDB2F90061314931F868
:100D80001320083112FB00F231F8131092FBF6F237
:100D90008A1A24F813200133042BEFD101E0A2F8C2
:100DA0000231294BDFF8C4901A78284F12F0040F53
:100DB00003D0274B40225A8369E03968C9075CBFDA
:100DC00042F001021A70234A2349127812075EBFCB
:100DD0001A7822F001021A70D9F8002012F0040FDC
:100DE00002D01E48008870B91D48008808B19607D7
:100DF00009D41C4A1288003218BF01221AB91A48B5
:100E00000088642834D902220A701A7822F001027C
:100E10001A7033E0761400207C3A00200CFEFFFFAD
:100E2000340A0020260B0020843A002014330020CE
:100E30005E140020F40E0020420F002035FA8E3C94
:100E4000280E0020380B0020F03E0020F80E002075
:100E500000040240680F0020B43E0020023F002042
:100E6000580D0020EE3E0020BC260020F00E002091
:100E70001B78D80756BF02230A700B7007F0F4F9ED
:100E8000A74B1B68C01A002801DB10F0F9FBA54B2B
:100E90009B680BB1A4489847A44BA54E012119703B
:100EA000D9F8003013F0140F71D0A24B1B8803F453
:100EB0000273002B6BD0A04B1B7803F0100303F0E0
:100EC000FF0E4BB19D4B98F97621B3F90010638862
:100ED00001FB023363805AE0D6F81821984BD07892
:100EE000DFF898C2927818B3BCF90000B3F906C0D5
:100EF000C0EB0C03002BB8BF5B4293420BDD914B60
:100F000086F81C118445C3F800E0C8BF5242E3884C
:100F100092B21A443AE096F81C312BB18A4B86F80B
:100F20001CE11A68894B1A60844B1B68034423E058
:100F3000BCF900E0B3F90630CEEB030383EAE37CAF
:100F4000ACEBE37C944509DD022293FBF2F3804A8B
:100F500086F81C1113607F4B19700AE096F81C315B
:100F60003BB1794B86F81C011A68784B1A60794BB3
:100F70001870724B1B687344D6F820110A88498890
:100F8000934203DB8B42A8BF0B461A46E280724BAA
:100F90001B7843B16A4BB3F90620B8F826319A4260
:100FA000DCBF0023A3806D4B05931A6892F818A14B
:100FB000BAF1000F32D05F4B1B8899072ED0684BD7
:100FC000DFED687A93ED080AB4EEE70AF1EE10FA65
:100FD00020D913F0ABFCD5ED497A20EE270A13F0A7
:100FE0005FFCB0F5617FA8BF4FF4617007EE900A17
:100FF000B8EEE70ADFED5C7A80EE270A09F0C3FF5E
:1010000007EE90AAF8EEE77A27EE800A13F048FC84
:1010100080B200E00020E3881844E080D9F8003076
:101020009A0640F1D580434B1B8803F03003002B18
:1010300000F0CE80404B1B78DB0740F1C9804B4B62
:10104000DFED4B7AB3F90430DFF834910A2293FBD9
:10105000F2F308EE103AB8EEC88A28EE278AB0EE0E
:10106000480A09F090FFF0EE408AB0EE480A09F015
:10107000EBFF404B404A1B6893F803A0B0EE409A48
:10108000B2EE048ABAF1000F7ED0DFF8F8B0B2F900
:101090000200BBF8025006922BB2C01A05F05CFBAE
:1010A000CAF100039842069A03DB5045A8BF504698
:1010B00000E018462844BBF80050079381B2B2F90B
:1010C0000000ABF802102AB2801A069105F044FB2A
:1010D000079B0699984203DB50450346A8BF534639
:1010E0001D44ADB2ABF800502DB207EE105A0BB252
:1010F00007EE903AB8EEC70AF8EEE77A28EEC07A23
:1011000020EE090AA7EE897AA7EEA80A87EE087AE8
:10111000BDEEC77A17EE103AA9F8003050E000BFD4
:10112000B83E0020CC390020480B0020290E0020BA
:10113000340A0020F40E0020680F00202828002028
:10114000B438002024280020480F0020900F0020F1
:10115000083F00202C28002002040020640F0020FB
:10116000F43B00208FC2753CEFB6B044420F002024
:1011700035FA8E3CA00D0020240E00202A0E0020FF
:10118000103F0020200E0020B2F9023007EE103A86
:10119000B2F9003000EE103AB8EEC00AB8EEC77AE5
:1011A00068EEC07A20EE090AE7EE097AA7EE280A6F
:1011B000C7EE887AFDEEE77A17EE903AA9F800308C
:1011C00080EE080AFDEEC07A17EE903AA9F80230D8
:1011D000059BB8F8FA201868D14B0093D14B1D68D5
:1011E000D14B196800F15803A847D04B1D78D04B5C
:1011F000032D18D9D6F82821B2F802E0BEF5FA7FFF
:1012000011D2B4F90400B3F904C00028B8BF4042B9
:10121000CEF100010A1A944504DB0EEB0002624590
:10122000A8BF62469A803F68DFF830E3C14917F0F3
:10123000006F05D1C04A106841F21D020240BAB1E8
:10124000BE4AD1ED004A92ED004ABD4A9EED005AD9
:10125000D2ED003AD6F82821B3F800E0B3F802C086
:1012600005920021B3F904A0B64A0B460846CDE02A
:10127000D1ED004AB149B44891ED004AB04902703D
:101280009EED005AE088D1ED003AD6F828911C88EE
:10129000B3F802E0B3F90460AC49AA4280F060817F
:1012A00099F90030DFF8B0C25B42734317F0805FFA
:1012B00007EE903A32D00FFA8EF306EE103AF8EEBF
:1012C000E76AF7EE007A37EEE37A03B2B8EEC66A61
:1012D00005EE903A23B227EE066A37EEE47A07EE7F
:1012E000903AF8EEE77A9FED9A3A67EE277A91ED19
:1012F000007AE5EE037AF8EEE55A67EE877A11EDAB
:10130000017AA4EE036AE5EE877A91ED017AE6EEC2
:10131000077A91ED027AE6EE877A23E023B206EEB1
:10132000903A03B206EE103A0FFA8EF307EE103A37
:10133000D1ED015AB8EEC77AB8EEC66A27EE257A23
:1013400051ED015AA6EE257AF8EEE66A91ED006AB3
:10135000A6EE867AF8EEE77AD1ED026AA7EEA67AD3
:10136000F0EE477AFDEEE77A103117EE903A2CF85E
:101370001230013291E7059E96F9006076420AFB31
:1013800006F617F0805F0DF1200907EE906A40D055
:101390000FFA8EF606EE106AF8EEE76AF7EE007ABC
:1013A00037EEE47AB8EEC66A0FFA8CF627EE066AD4
:1013B00037EEE37A07EE906AF8EEE77ADFED645AEB
:1013C00067EE277AA5EE256AE4EE257A92ED027A99
:1013D00067EE877A92ED017AE6EE077A92ED037A6C
:1013E000E6EE877A0FFA83FBFDEEE77A17EE906A56
:1013F00029F8106008AE36F810600FFA86F9D94562
:1014000024DD33460E46013010323146A842B2D3B5
:1014100022E00FFA8CF606EE906A0FFA8EF607EECF
:10142000106A92ED016AB8EEC77AF8EEE66A27EE26
:10143000067A92ED026AA6EE867AF8EEE77AD2EDA7
:10144000036AA7EEA67AF0EE477ACBE70FFA81FBA4
:10145000D945D8DB1E46D4E73E4A3B481268578838
:1014600016885B1AB91B89B20AB21BB293424FF0BD
:10147000000214DD4FF0010E80F800E0AA420BD20A
:101480000DF1200E3EF8120010FB01F090FBF3F07E
:101490002EF812000132F1E7B6B2BBB207E00270DB
:1014A000022193FBF1F3F218FB1A96B29BB2E0888B
:1014B0000021A94254D208AA32F9112007EE902A3D
:1014C00002B206EE902A1F4A02EB0112B8EEE77A4A
:1014D000F8EEE66AD2ED007A32B266EEA76A07EE5F
:1014E000902AF8EEE77AF4EEE76AF1EE10FA0BD400
:1014F0001AB207EE902AF8EEE77AF4EEE76AF1EE18
:1015000010FAD8BFF0EE667A77EE277A124CFDEE2D
:10151000E77A17EE902A24F811200131C9E700BFBD
:101520002A340020B8040020600F0020143B002063
:10153000B83A0020FC390020B0380020083A0020DA
:10154000043A0020600B0020143F0020640B0020B0
:1015500000007A44E43B00202A0F0020003A0020DB
:10156000AE4BAF4E1A7802F0040202F0FF030AB944
:10157000327854E0AB4BAC4DDB780693AB4B18683C
:1015800010F000601DD12A6841F21D031340B3B969
:10159000A74A377813880124BC4219B207D232F91E
:1015A00014309942B8BF19468BB20134F4E7A14A0E
:1015B00012685288914204DD9A1A92B202E0024601
:1015C00000E000222B6896F800E003F480510591BA
:1015D0009949B1F906409949D1F8EC71984941F21D
:1015E0001D0C0D68934903EA0C0C03F0100B904B93
:1015F000096803EB4E0E73450AD0002840F0F981CC
:10160000BCF1000F40F0D2811E88B61A1E80CDE1D9
:101610008A4C94F8F03163B10FF022FC09E0934258
:10162000F6D2884931F81300814921F813000133BB
:10163000F5E7854B1878002840F0FE817A4D2B683D
:101640001E0340F1F98194F8F131023B052B1FD8BC
:1016500098F8503533B1012B0AD105F0A9F9C0F142
:101660007F0005E0754BD3F8F40103689B68984749
:10167000D4F8F83194F8FC211344B3F5807FA8BF67
:101680004FF480738342D4BFC4F8F831C4F8F80132
:1016900094F8F131023B082B00F28081DFE813F06F
:1016A00009003F00610077009000A2004401620140
:1016B0006F01664B1A68D4F8043264339A4240F2E0
:1016C0006D8140200CF0CEFB002840F06781402760
:1016D0005F4BD4F80022594E985C1D4670B103F060
:1016E00069FFD6F8F831013BC6F8F831D6F8003278
:1016F000013F03F10103C6F80032E9D1D4F800221A
:101700004E4BAA5C002A40F04981C3F800224FF0FA
:10171000FF32C3F80422032283F8F1213EE125239E
:1017200000934C4B019303F10C0202924920A3F168
:101730000A025021023304F0FBFA002840F02E8107
:101740002B6813F080034FF0FF3205D0C4F800027D
:10175000C4F804220423E4E0C4F80032C4F80422EC
:101760002CE03D4A02230021009301910291482080
:1017700002F1080304F0DCFA002840F00F814FF07A
:10178000FF33C4F80432C4F800020523C9E007237C
:101790000093324B019303F10C0202924720A3F114
:1017A00008020021043304F0C3FA002840F0F68058
:1017B0004FF0FF33C4F80002C4F804320623B0E04F
:1017C000274A05230021009301910291532002F141
:1017D000080304F0ADFA002840F0E080C4F80002ED
:1017E00007239EE040200CF03DFB002840F0D6800F
:1017F000D4F800320C2B00F28B80DFE803F0070BEB
:10180000393D434E52565A5E6B75790015480CF0BF
:10181000ABFC77E0144815493CE000BFF03E0020E7
:10182000143B0020903E0020B0380020F80E00202D
:101830002A0F0020E43B0020B4380020340A0020A6
:10184000E03B002096260020003F0020602C002076
:10185000405D0108AA5D01085C5F0108745F010832
:10186000C05F010894750108AE750108C3750108D1
:1018700074487549754A43E0754898F84E1598F8CC
:101880004F253DE098F8283572480C2202FB03836F
:1018900093F82A150CF068FC34E06F48B8F8D010C3
:1018A000F8E76E48B8F8D210F4E76D4B6D48196947
:1018B000F0E76D4B6D481988ECE7D4F80832D8048E
:1018C00003D56B4898F80811E4E76A4B0B22C3F87C
:1018D000002217E0684898F80C1198F80D2198F844
:1018E0000B310CF041FC0DE06448B4F80C12D1E768
:1018F0002B68190506D56248B8F81011B8F90E2101
:101900000CF032FCD4F800320133C4F8003245E068
:101910000CF008FB002841D04FF48053A4F80E329D
:10192000092384F8F13139E0564B1B689A0116D52A
:10193000B4F810324F4D93B9D5F814320893524B86
:101940000E201B68099308A903F01EFF4FF4805373
:10195000A5F80E32092385F8F13103F06DFF03F08D
:10196000F5FE1BE094F81832002BF6D0454B1B68AF
:101970009B01F2D43F4B082283F8F121EFE7434B60
:101980001A68D4F80432C8339A4203D90CF0B0FA7A
:101990000123C6E70CF0C6FA0028F7D10CF092FA42
:1019A000002849D0012384F8F13145E0059E1EB39B
:1019B000B7F80E90EE88C6EB090A544502DD4E4496
:1019C000B44211DBFE89B3F90090B442CBBF6E88FC
:1019D0008E88B1F802A0B5F800A0B14529DBD14549
:1019E0004E46A8BF564624E04C45CCBF6E882E8894
:1019F0001FE0059E002EE5D1069EB1F80290B3F9D6
:101A000000A03EB18E88B24513DBCA455646A8BF3A
:101A10004E460EE00E88B24503DBCA455646A8BFC7
:101A20004E461E803E8AB44204DABBF1000F01D05C
:101A30008E881E800233DEE50FB0BDEC108BBDE852
:101A4000F08F00BFCB750108DF750108EB75010849
:101A5000F4750108057601080F7601081E76010865
:101A6000CC3900202D760108040400203D760108C1
:101A700047760108340A0020547601086D76010883
:101A800078760108F80E0020E8270020602C00205E
:101A90002DE9F04FA249A34C0A6802F59C432DEDB5
:101AA000028B20332360A04B87B01E780091C6B113
:101AB0009E4909688A4240F20581013E1E7001E19B
:101AC000D9F800309A48072D98BF595D994B88BFC7
:101AD00029461B689847032D0CD904EB45050136B0
:101AE000A880934BDFF870921A78F5B2AA42194693
:101AF000E6D820E0D9F8002005F10E0302EB8303BD
:101B0000D9881A890028E8D04FF47A73401A5843CC
:101B1000531A90FBF3F040F6C90300F57A7098422F
:101B200005DC40F2EE239842B8BF184601E040F6CB
:101B3000CA0080B2D1E7804B1B6842F2010803EA79
:101B400008087E4BB8FA88F84FEA58181B68B8F1B5
:101B5000000F06D194F8292084F82820784A50787C
:101B6000107094F828701FB1754A177887F0010734
:101B700094F82BB091F800A00F220326BBFBF6F6D9
:101B800006EB460684F82A20C6EB0B06D9F800209F
:101B9000DFF8CC91F6B20025554559DA4FEA450CED
:101BA0001FB1684931F8150000E03846D18ADFF8E6
:101BB000B4E1814202D8118B81421ED25EF8250029
:101BC0005849834203D2604931F80C0019E0E8B269
:101BD0000292019303910FF0FDFC032D019B029AE9
:101BE0000FDC03994FF0010C91F82AE00CFA05FC88
:101BF0002EEA0C0E81F82AE003E003F596714EF808
:101C00002510B8F1000F1CD194F8BC1029F816006B
:101C100031B9BBF1020F14D94249012081F8BC004F
:101C2000B9F80210B9F800000844B9F804100844E3
:101C3000464980B221F8150000B2032190FBF1F073
:101C400080B2414909F1060921F815000135A3E7E1
:101C500094F82A2039493E4BA2F10F0EDEF1000222
:101C600042EB0E0284F8D6206AB13A4A1268570154
:101C700009D40A68D9689A60521AC82A1DD9012263
:101C800083F8212019E02E4A0120507010700A6854
:101C90009968DA605B68521A9A4282BF2C4B002224
:101CA00083F821200025554507DAE8B20FF092FCB1
:101CB000254B23F815000135F5E794F82B30013357
:101CC00084F82B301C4B1A6812F4805F984605D0BC
:101CD000204B1B68DE0701D40FF074FB009B1968D2
:101CE0001D4B1F68BB7A002B3ED0013B16483A7B48
:101CF00030F813301AB1C3F53B6308339BB21BB203
:101D0000A3F57A73B3F57A7FA8BF4FF47A7323EA09
:101D1000E37307EE903A9FED117AF8EEE77A5CE014
:101D2000E8270020500C00208C3E0020883E002038
:101D3000743800201C070020B0380020602C0020E0
:101D400000040020540C0020B43800200E0D0020A8
:101D5000903E0020F80E0020843E002000007A44CF
:101D60007C0C0020C40C0020D8F80020150440D5BD
:101D7000D4F8D800934E081A00283ADB924A01F5AD
:101D80009C402030C6F8D8005079904A32F8105064
:101D9000A8B2FD7A90FBF5F596F8DC00013000F072
:101DA0000F0286F8DC20324482F8DD501A4688485B
:101DB000185C01330244102B92B2F8D112B292FB9C
:101DC000F3F31BB2642BA8BF642323EAE37307EE8B
:101DD000903A9FED807AF8EEE77AC7EE877A7E4AEE
:101DE0009FED7E7A67EE877AFCEEE77A17EE903AFF
:101DF0001380D8F800307A4D13F4807F00F0098109
:101E0000784BDFF8E491994205D999F8022012B98C
:101E1000012289F8022099F80220002A00F0F980B6
:101E2000714A2F7892F82160704A701E46421168FC
:101E30004641002EC1F38063C7F3800700939246AA
:101E400014BF4FF0000B4FF0030B99F82020052A28
:101E500000F2D980DFE802F0034D527584A1002F13
:101E60003AD0D4F8F000B4F8F41006F0B8F901282C
:101E700009D15F495F4A09681268C988642000FB7C
:101E80000122C9F81020009B6BB1594A12681279DF
:101E90004AB10EF095FD032289F820204FF47A72A2
:101EA000C9F81C20D1E7002E40F0AD80514AD9F886
:101EB000101010684C4A88420AD901920EF080FD39
:101EC000019A032182F8201040F6B831D161BCE7B5
:101ED000012182F82010B8E7009B4FF4806013B115
:101EE00009F0CAF801E009F0B7F80022C9F810209B
:101EF00089E0002E46D10EF063FDA6E726B105224B
:101F000089F82020012000E0304667B1D4F8F020A5
:101F1000D189394A118051809180354909684988B1
:101F2000D1804FF0020B334A1168D9F81420914246
:101F300001D8002F64D147F23052C9F81C20032287
:101F400021E02A7842F002022A700FF03BFA294A77
:101F5000D9F81C1012680A44C9F81820042212E0AB
:101F6000244A9EB11168D9F8182091424BD9234ACE
:101F700092781AB9DAF80020D10744D42A7822F0EE
:101F800002022A70052289F820205EE71268D9F83B
:101F90001C100A44C9F8182035E01549154A09688B
:101FA0001268C988642000FB0122C9F810204FF490
:101FB0008060002289F8202089F8032009F04CF87D
:101FC00043E700BF500C002064130020741300206E
:101FD0002D0D00200000C842540F002000C07F4497
:101FE000F03E0020404B4C00903E0020F80E0020B8
:101FF0000C3A0020602C0020B4380020000400209F
:1020000000287FF422AFBBF1000F02D0584606F043
:1020100087F9A14E06F58B70B6F8DE1006F0DFF8F2
:10202000814600282ED19D4B9D4F1B6813F0006AFE
:1020300008D0FB7833B90DF0D7FB9A4B012818BFB5
:10204000002018702B785A0709D5D8F80030DB0625
:1020500005D4BAF1000F02D0FB78002B2FD0924AA2
:102060000023136053609360904A00211160516017
:1020700091608F4A126802F57A72C4F8F820012242
:10208000FA701AE0D8F80030DF0618D42B78580719
:1020900015D5824B1B68190111D5814FFB7863B1AF
:1020A000834B1A68D4F8F8309A4208D90DF09CFB9B
:1020B00028B97C4BF870187001E07A4A13702B78BD
:1020C0005A0736D5D8F80030DB0632D5794B1B7865
:1020D000DF062ED4724B9B7893B196F87031B9F12C
:1020E000000F15D17BB1724B1A68D4F8FC309B1AE3
:1020F000002B08DA0FF066F96F4B83F8009118E0B7
:10210000B9F1000F0DD1102006F00AF901230EE0FD
:102110003BB1674A12684FF47A7101FB0323C4F89C
:10212000FC3094F8003123B106F0E2F8002384F883
:102130000031002296F86EB196F86F11B6F826E1DC
:10214000B6F828C113465D48009030F912709B081C
:102150007745C4BF63F07F03DBB201326745B8BF88
:1021600043F04003042AEED194F8012152489A42E8
:1021700005D190F80221F92A04D8013200E00022AA
:1021800080F80221464884F8013183784A4A434F57
:1021900082462BBB3868C0070AD582F80331B9F1F3
:1021A000000F1DD12B78DB071AD50EF051FF17E079
:1021B0002B78580714D592F828308BB1404BDB7838
:1021C00073B992F803310133DBB2032B82F8033188
:1021D00006D911B10FF0F6F802E0B9F1000FF9D00D
:1021E00094F80231344ADFF8E890142B40F0A980CB
:1021F0009AF802301BF1000B18BF4FF0010B6BB3C4
:1022000092F801315F2B11D12B7803F0040303F016
:10221000FF0113B10FF0D6F808E00B2002910192F4
:1022200006F07EF8019A029982F80211BBF1000FC4
:1022300014D094F801317D2B10D12B7803F00403D6
:1022400003F0FF0213B10FF0BDF807E00B2001927D
:1022500006F066F8184B019A83F802212B7803F0F8
:10226000040303F0FF01002B6BD194F80131124AF3
:10227000572B2FD1134B4FF47A721A80D8F80030B5
:102280001A0601D504F026FB0F4B1B685B0758D5D7
:102290000E4B0A221A8054E014330020F80E00205E
:1022A00000040020153F0020A03A0020A83900209B
:1022B000602C0020680F0020500C0020B438002053
:1022C000903E0020EE3E0020F00E0020023F002055
:1022D000640F0020D8F80000400717D55A2B15D1FD
:1022E00092F804312BB1012382F8041182F80531F0
:1022F00027E092F8063183F0010382F806310BB132
:102300000C2000E00D2006F00BF81AE05D2B00F029
:10231000DE845B2B00F002855E2B02D1032000F0EF
:10232000FEBC562B01D109F071F99AF80230002B4E
:1023300000F00A8594F801316F2B40F0FF840EF015
:1023400087FED8F80030580736D594F80631B84AD9
:1023500093B12B7859070FD5009BB3F90610B6F847
:102360002631994208DD3B6813F0010302BF322198
:10237000A2F80A1182F806313B68DA030DD594F809
:102380000C21AB4B2AB993F8042112B93222A3F8DD
:102390000A21012384F80C310EE094F80431A44A98
:1023A00053B12B7803F0040303F0FF0123B9012399
:1023B00082F8041182F80531D9F800A000233B60AF
:1023C0000AF17B090AF1CB0B99F8002099F801304A
:1023D00019F8010C9A420BD2494605F0C9FE38B1F2
:1023E00019F8022C012303FA02F23B6813433B6005
:1023F00009F10409D945E7D18E4B1B785BB18E4BAF
:10240000DFF84CB21A68DFF84CA212F0020F9946BE
:1024100040F038832FE30AF1CA070AF589793A7840
:102420007B7817F8010C9A4225D2394605F0A0FEB8
:1024300008B3BB7897F804C0804A97F803A07C489B
:102440000C21013B01FB0C4103EB43031344D1F886
:1024500014219A420FD0C1F81431002390F8402182
:10246000C1F81831012303FA0CF322EA030381F8BF
:1024700010A180F8403106374F45D0D1704B1F680E
:10248000704B1B68029394F8283003936E4B0193B2
:1024900000230093019B1A68002A00F0E18292F861
:1024A00000A0BAF1000F00F0DB825B680299CB1A42
:1024B000002B0CDB01F5FA7301994B6000990123A5
:1024C0008B4094F8401121EA030384F84031039BC8
:1024D000002B00F0C582019B517813F8043C0433B3
:1024E000DBB2002940F07B82584931F91310B6F86D
:1024F000243103F1C800814202DD92F802B015E0F8
:10250000C83B994203DA9178C1F1000B0EE0009AC2
:102510000123934094F8402122EA030384F84031D8
:10252000029B019A03F5FA73536099E294F84031E3
:10253000009A1341DB0700F19382BBF1000FCCBF7F
:102540000220012005F026FF0AF1FF33DFF8E090BA
:10255000132B00F27D82DFE813F014002500370012
:102560004B0064008500E8004B01B201E00110025D
:102570007B024B005A008500E8004B01BA001D01A8
:10258000820197F80090D944B9F1FA0FA8BF4FF033
:10259000FA0929EAE979384687F8009005F0D2FD72
:1025A00001200FE097F80190D944B9F1640FA8BF5A
:1025B0004FF0640929EAE979384687F8019005F077
:1025C000C1FD02204946D5E197F803A0DA44BAF1EB
:1025D000640FA8BF4FF0640A2AEAEA7A87F803A0DA
:1025E0003846D9F8441105F063FD03205146C1E196
:1025F000797959446429A8BF642121EAE17179718C
:102600000D2005F01DFEBAF10D0F00F02182397981
:1026100059446429A8BF642121EAE17139710E206F
:10262000A8E1B979594481F30801B9710520A1E104
:10263000500C0020003F0020F80E0020E85F010849
:10264000600F0020602C0020640D0020B4380020B2
:10265000F00E0020F40E002000007A440000C84272
:1026600000000000D9F848311A78022A20D107EE7C
:1026700090BAB8EEE70A5FED077A93ED097A80EE3B
:10268000270A30EE070AB5EEC00AF1EE10FA07D4B9
:10269000B4EE670AF1EE10FAC8BFB0EE670A01E0C7
:1026A0001FED110A83ED090A0F2005F0B3FD0AE0C2
:1026B00099785944C829A8BFC82121EAE1719970C5
:1026C0000F2005F0BDFDBAF10F0F00F0C181D9F860
:1026D00048311A78022A1ED107EE90BAB8EEE78A7E
:1026E0005FED227A93ED080A88EE278A38EE000A19
:1026F000B5EEC00AF1EE10FA07D4B4EE670AF1EEB7
:1027000010FAC8BFB0EE670A01E01FED2B0A83ED97
:10271000080A122056E159785944C829A8BFC8218F
:1027200021EAE1715970122024E1D9F848311A7870
:10273000022A20D107EE90BAB8EEE70A5FED397AA7
:1027400093ED0C7A80EE270A30EE070AB5EEC00A48
:10275000F1EE10FA07D4B4EE670AF1EE10FAC8BF32
:10276000B0EE670A01E01FED420A83ED0C0A10206B
:1027700005F050FD0AE0197B5944C829A8BFC821BB
:1027800021EAE1711973102005F05AFDBAF1100F1A
:1027900000F05E81D9F848311A78022A1ED107EE7E
:1027A00090BAB8EEE78A5FED537A93ED0B0A88EEA4
:1027B000278A38EE000AB5EEC00AF1EE10FA07D407
:1027C000B4EE670AF1EE10FAC8BFB0EE670A01E096
:1027D0001FED5D0A83ED0B0A1320F3E0D97A59440B
:1027E000C829A8BFC82121EAE171D9721320C1E02C
:1027F000D9F848311A78022A22D107EE90BA1FED93
:102800006A0AF8EEE77A87EE800AD3ED0F7A30EEA7
:10281000270AB5EEC00AF1EE10FA09D45FED717A1D
:10282000B4EE670AF1EE10FAC8BFB0EE670A01E035
:102830001FED750A83ED0F0A112005F0EBFC0AE08D
:10284000997D5944C829A8BFC82121EAE171997529
:10285000112005F0F5FCBAF1110F00F0F980D9F85C
:1028600048311A78022A20D107EE90BA1FED860A65
:10287000B8EEE78A88EE008A93ED0E0A38EE000A79
:10288000B5EEC00AF1EE10FA09D45FED8C7AB4EE21
:10289000670AF1EE10FAC8BFB0EE670A01E01FED5B
:1028A000900A83ED0E0A14208CE0597D5944C82902
:1028B000A8BFC82121EAE171597514205AE0D9F85E
:1028C00048311A78022A1ED107EE90BAB8EEE78A8C
:1028D0005FED9E7A93ED0A0A88EE278A38EE000AA9
:1028E000B5EEC00AF1EE10FA07D4B4EE670AF1EEC5
:1028F00010FAC8BFB0EE670A01E01FEDA70A83ED2A
:102900000A0A09205EE0D9785944C829A8BFC8211D
:1029100021EAE171D97009202CE0D9F848311A7800
:10292000022A1ED107EE90BAB8EEE78A5FEDB57ABB
:1029300093ED0D0A88EE278A38EE000AB5EEC00A3C
:10294000F1EE10FA07D4B4EE670AF1EE10FAC8BF40
:10295000B0EE670A01E01FEDBE0A83ED0D0A0A2002
:1029600030E0597B5944C829A8BFC82121EAE17148
:1029700059730A2005F064FC6AE0D9F848311A78E6
:10298000022A22D107EE90BA1FEDCD0AB8EEE78AEF
:1029900088EE008A93ED100A38EE000AB5EEC00A00
:1029A000F1EE10FA09D45FEDD37AB4EE670AF1EED6
:1029B00010FAC8BFB0EE670A01E01FEDD70A83ED39
:1029C000100A0B2005F026FC42E0D97D5944C829A5
:1029D000A8BFC82121EAE171D9750B20CAE70129F6
:1029E00036D19078BB4A32F91390B9F5617F05DB97
:1029F00040F633039945A8BF994601E04FF4617949
:102A0000BAF10C0F24D1B44A4FF4966393FBF0F063
:102A10001378A9F5617999FBF0F95FFA89F94B45CB
:102A200016D0B9F1040F34BF4B4602231370AB4AE2
:102A30000AFB036303F22A53136008F003FC5046B9
:102A4000494605F0FDFB09F10100C0B205F0A2FC0A
:102A5000009A0123934094F84021134384F84031B5
:102A6000009B01330093019B0C330193009B042BCB
:102A70007FF410ADC3E4D8F80030DF050FD5984BD4
:102A8000DB7863B1DBF80030980708D5BAF800307E
:102A900013F0010708D1012008F0EEFA04E001204C
:102AA00008F0DAFA012300E00023D9F800205107EA
:102AB0000BD553B1012008F0CFFABAF800309A07CD
:102AC00006D4022008F0D8FA02E0022008F0C4FA86
:102AD000BAF80070834B17F0030F4FF0100214BFC9
:102AE0005A831A83DBF800309B0609D4D9F80030EA
:102AF000180540F190804FF4807008F0BDFA8EE028
:102B0000794B1B78990751D5784B1B78042B4DD9FD
:102B1000D9F8003013F4007307F010070DD0002F20
:102B200038D1102008F0A8FA202008F095FA704853
:102B3000011D03F023FE022328E0BFB23FB11020A5
:102B4000009308F089FA009B84F84C310127D9F8EA
:102B500000305A0512D5D4F8503166495A89B1F976
:102B60000030002BB8BF5B42934207DAB1F9023064
:102B7000002BB8BF5B429342C0F22E81BAF80030FE
:102B80009B0608D5202008F067FA002384F84C3112
:102B9000012700E0002794F85431A3B90E2005F076
:102BA000BFFB554B012283F854210CE017F0300F86
:102BB0009CD0102008F050FA202008F04DFA002395
:102BC00084F84C3101E0002F90D04C4A002002F1F3
:102BD000280E02F150074A4B002123F81010494BF0
:102BE000516023F810100433CEF8041023F81010AD
:102BF000002313609360CEF80030CEF808303B60BD
:102C00007960BB6014320EF1140E143700287FF483
:102C10006DAF0120DFE74FF4807008F01DFA737983
:102C2000082B01D00E2B02D1402008F015FAD8F85D
:102C30000030580519D596F8A0311BB92B7813F040
:102C4000040F03E0D9F8003013F4002F09D02E4B05
:102C500000221A703C200CF093FD30B10BF0E8FB21
:102C6000F8E709F04FFE0CF0A8FC012384F8D831F6
:102C700094F8D931002B00F0C580DBF800305907FB
:102C800040F1C080D9F800301A0707D4082007B0F7
:102C9000BDEC028BBDE8F04F08F0DEB9BAF8004099
:102CA00004F00804A4B2002C40F0AC80082008F026
:102CB000E3F9164B1A68164B1A60064BDA880E4B6E
:102CC000A3F8DA21134B1C60134B1C609AE001201F
:102CD00025E000BFB438002094260020600F0020BB
:102CE000903E002000040240680F0020690F002081
:102CF000800F00207C3A0020500C0020A80D0020FE
:102D0000103F0020200E002079380020480F0020BE
:102D1000900F0020242800202828002002205FFA9D
:102D200080FA0AF1FF3386F8283508F0F5F908F043
:102D3000ADFA504605F02EFBFFF703BBBBF1000FC9
:102D400002D07E2B3FF4FBAA94F80131972B06D1D9
:102D50002F4B4FF4C872A3F80821FFF7F2BAA72B44
:102D600006D12C4A137843F004031370FFF7E9BA35
:102D70000022BB2B059201D1022303E0B72B04D123
:102D80004FF6FE73ADF816300AE0BE2B01D10223D8
:102D900004E0BD2B7FF4D5AA4FF6FE73ADF81430D6
:102DA000D9F80030BDF81410B3F858200A44A3F83D
:102DB0005820BDF81610B3F85A200A44A3F85A2038
:102DC00008F0AAF908F062FA012005F0E3FA0023FE
:102DD00084F80231FFF7B5BABAF800309B063FF528
:102DE000DAAE202008F048F90B480C4B011D1A6898
:102DF0005B684360026003F0C1FC054B012783F868
:102E00004C71C8E607B0BDEC028BBDE8F08F00BF87
:102E1000500C0020680F0020880F00206C0F00204D
:102E20008848894A0368F0B59C8AA4B2E1B211F0DF
:102E3000010F32D01988854C21F400610904090C76
:102E40001980198889B241F48061198000211170BC
:102E50007F490978A9B1517819B97E490978FF29C4
:102E60000FD1012151707C490978022901BF1988CD
:102E700089B241F400611980217841F00101198281
:102E800001E1217801F0FE011982724B1B78FF2BC2
:102E900000F0F980FF231370F5E08E073CD5BFF3F7
:102EA0005F8F6D490C78E4B2012C14D1684D2D78F8
:102EB0008DB155787DB1198821F480610904090C20
:102EC0001980BFF35F8F198B1988947089B241F410
:102ED000007119801BE01C8BBFF35F8F0C78022CF4
:102EE0000BD15B4C247844B1547834B1198821F467
:102EF00080610904090C1980BFE00978032906D113
:102F00005349097819B15178002940F0B680998861
:102F100089B241F48061B5E04D075BD50121917024
:102F20004B49097800293AD05178002937D04A49CD
:102F30004A4D09781C88022911781ED924F480642E
:102F40002404240C1C801E8A2F68CCB249B2F6B22D
:102F50007E5419882D6889B241F400711980016886
:102F6000A31C137001340B8A64B2DBB22B558B881F
:102F70009BB243F480638B8027E0A4B244F40074D6
:102F80001C802E681D8ACCB249B2EDB27554611C0A
:102F90001B8A49B2DBB203347354147015E05178C4
:102FA00011B92F49097841B1198889B241F40071EA
:102FB000198013780133137007E0198889B241F43E
:102FC00080711980204B0121597001680B88DC0544
:102FD000FCD458E001F0400101F0FF061E4DF1B1B4
:102FE00014781E491F8AD1F800E0E6B264B2FFB23D
:102FF0000EF80470711CC9B22F78117049B2CC1C44
:10300000A74201BF9C8824F480642404240C08BFD8
:103010009C802B788B4236D10236167033E0210625
:1030200031D511784CB2671C1ED00E4E3668345D17
:103030001C820131C9B22C78117049B28C4222D164
:103040001BE000BF782C00202C0E0020652C0020F7
:10305000682C0020662C0020742C0020702C00208E
:10306000672C00206C2C00201249167009781982F8
:103070001149097809B9297829B9998821F4806119
:103080000904090C99800D4B92F900201B780C491A
:1030900001339A420DD100234B708B7833B1026813
:1030A000938823F440731B041B0C9380054B002270
:1030B0001A70F0BD662C0020682C0020742C0020B3
:1030C0002C0E0020752C00206C4B6D4A2DE9F04F22
:1030D0005E8954684FEA062AB4EB0A0A9C884FEAD4
:1030E00004481C894FF000054FF0000B65EB0B0BFB
:1030F000A4FB0A6704FB0B77F40944EA476418EB66
:1031000004065C884FF000094FEAE7154FEAC4381F
:10311000DC8849EB050787B0CDE90467A4FB0A67A3
:1031200004FB0B77340A44EA076418EB04064FEA01
:1031300027259C894FF0000949EB0507CDE9006779
:10314000AAFB046704FB0B77F40D44EA472414F54B
:10315000FA664FEAE75545F10007B6F5FA6F77F1E1
:103160000003CDE90267964667DAA4FB046704FB17
:1031700005F34FF0050C07EB4307DDE90489A6FBD7
:103180000C230CFB07335F104FEA3206B8EB06083E
:103190004FEA920669EB070946EA83769F10DDE95C
:1031A0000023921B63EB0703DDE90267CDE90023EF
:1031B000344A4FF0FF33964277EB0303CDE904899D
:1031C00028DA40F6AC52A4184FF000035D4104FB2E
:1031D00005F3A4FB044505EB43056FF006026642C8
:1031E00002FB0566A4FB0223334418EB020649EBFD
:1031F0000307CDE904670B26A4FB062306FB053372
:10320000DDE900455B104FEA3202A41A65EB0305C5
:10321000CDE900450AFB0BF3DDE90245AAFB0AAB49
:103220000BEB430B4FEADA7242EA4B02A41A4FEA65
:10323000EB7365EB0305CDE90245DEF80840009B22
:10324000019DA4FB032304FB05334FEA52584FEAC8
:10325000635948EAC328DDE90423B8EB020269EBAD
:1032600003039946D30B43EA494300B1036009B114
:10327000029B0B6007B0BDE8F08F00BFCC090020B7
:103280002C0E002024FAFFFF054B1A7B02F0FF01F1
:1032900022B10122027000221A7370470170704738
:1032A0002C0E0020194B73B55D7B0446EDB9184B0D
:1032B00006215E6818786A46B04718B39DF800206A
:1032C0009DF8013043EA022323809DF802209DF8F7
:1032D000033043EA022363809DF804209DF8053003
:1032E00043EA0223A38001250CE00222196991FB25
:1032F000F2F1018059699B6991FBF2F193FBF2F3C2
:1033000041808380284602B070BD00BF2C0E002093
:10331000B409002013B5044672B6104B06215B6851
:103320006A463B20984762B6A8B19DF800209DF8F8
:10333000013043EA022323809DF802209DF80330E8
:1033400043EA022363809DF804209DF8053043EA98
:103350000223A380012002B010BD00BFB4090020E9
:10336000054B08B9054A03E001280CBF044A054A89
:103370001A6005F06BBB00BF782C002000540040A1
:1033800000580040005C004013B524490B689A8A3D
:1033900092B20192019A12F4706F18BF204A0C4643
:1033A0001CBF01211170019A12F4E06F2AD01A8B10
:1033B0009A8822F480621204120C9A80019A910574
:1033C00020D41A8892051DD41A88D0050FD51A88E2
:1033D000D105FCD41A8892B242F400721A801A887D
:1033E0009205FCD40F4B1878FFF7BAFF0AE01A8851
:1033F00092B242F400721A809A8822F44072120447
:10340000120C9A802268938A23F470631B041B0CAD
:103410009382054B00221A7002B010BD782C002058
:10342000762C002060150020752C002007B502AA1C
:10343000012302F8013D482177200BF095FF03B0EE
:103440005DF804FB07B502AA012302F8013D5821EB
:1034500077200BF089FF03B05DF804FB07B502AAE3
:10346000034602F8011D682019460BF07DFF03B0EA
:103470005DF804FB2DE9F8430D4C0E4E10258146F6
:103480006583012090460F4604F00AFF49F0800151
:10349000304605F0BFFA414600223B46304605F073
:1034A0008BFA2583012004F0FBFE0120BDE8F883A0
:1034B00000080240003001402DE9F0410A4C0B4E5B
:1034C000102590460F46658340F08001304605F098
:1034D000A1FA3046414600223B4605F06DFA2583AD
:1034E0000120BDE8F08100BF00080240003001402B
:1034F0002DE9F0410B4C0C4E1025804665830120D0
:103500000F4604F0CDFE4146304605F083FA3946B9
:10351000304605F07FFA2583012004F0C1FE01202A
:10352000BDE8F081000802400030014073B50D464F
:103530000646FFF7DDFF642004F0B2FE1524304696
:1035400001210DF10702FFF795FF9DF80730AB420F
:103550000CD029463046FFF7CBFF013C642004F035
:103560009FFE14F0FF04EAD1204600E0012002B0E3
:1035700070BD2DE9F0433C4D2B7F85B0002B6FD102
:103580003A4B1B68002B6BD01A681AB13849086B8C
:1035900002430A639A889868ADF800200026022248
:1035A00069468DF803208DF8026005F09DF8304BD8
:1035B00030485A6C304C42F004025A645A6C42F45F
:1035C00080425A64032720234FF0010802A9029386
:1035D0008DF80C608DF80E608DF80F808DF80D70F1
:1035E00004F006F8254BDA6822F0F002DA60DA68B7
:1035F00042F02002DA602368214A23F0200323608E
:10360000636823F020036360236843F02003236092
:10361000A36823F02003A360E36823F02003E360A2
:10362000136843F0200313604FF0170901A88DF8C9
:1036300004908DF805708DF806708DF8078003F002
:10364000B2FF104B5A681AB1304604F0BBFE03E0DB
:103650000D4A5A6083F800902023636101232B7781
:1036600005B0BDE8F08300BF2C0E0020C809002083
:103670000038024000080240003C01400038014090
:10368000083C01400C1400209937000808B5FFF7EA
:1036900070FF024B4FF480521A8008BD04040020D2
:1036A000384AD38813B5384C0133D380FFF761FF14
:1036B000637F002B39D1354A138823F040031B0464
:1036C0001B0C1380138823F038031B041B0C43F0DE
:1036D0003003138013889BB243F040031380802192
:1036E0006B20FFF705FF322004F0E5FD01216B2080
:1036F000FFF71CFF18211B20FFF718FF07211A20D6
:10370000FFF714FF224B19201978FFF70FFF102144
:103710001C20FFF70BFF12213720FFF707FF38208F
:103720000121FFF703FF012363771A4C174A002397
:103730002380138823F040031B041B0C1380138881
:1037400023F038031B041B0C43F008031380138879
:103750009BB243F0400313806846FFF7A3FD9DF939
:103760000230013303D19DF90030013302D02388A8
:103770009BB223B100230620238004F023FE02B075
:1037800010BD00BFD60F00202C0E002000300140DD
:10379000DC090020981400207E4B5A6992062DE91E
:1037A000F34740F1F38020225A617B4C7B4E04F0BA
:1037B0005BFDD4F8BC30C4F8BC00C31A962B054698
:1037C000338008D9236A1F2B0EDC04EB830201210E
:1037D00051620B4407E0236A1F2B05DC04EB8302D4
:1037E0000021516201332362226A6B4B202A6BD184
:1037F000D96A9A6A890041EA42015A6A0A43196BF6
:1038000042EAC102596B42EA0112996B42EA411243
:10381000D96B42EA8112196C42EAC112596C42EA30
:103820000122996C42EA4122D96C42EA8122196D47
:1038300042EAC122596D42EA0132996D42EA4132AF
:10384000D96D42EA8132196E42EAC132D96EB28034
:103850009A6E890041EA42015A6E0A43196F42EAA0
:10386000C102596F42EA0112996F42EA4112D96FBF
:1038700042EA8112D3F8801042EAC112D3F88410D0
:1038800042EA0122D3F8881042EA4122D3F88C1090
:1038900042EA8122D3F8901042EAC122D3F8941070
:1038A00042EA0132D3F8981042EA4132D3F89C1030
:1038B00042EA8132D3F8A01042EAC132F280728823
:1038C0000132728000221A62D4F8A430324F0133E0
:1038D000C4F8A430324B0621D3F804C018786A46E5
:1038E000E047002840D0D7F8A8C07B6938699DF828
:1038F000052007EB4C0EBEF9B010BEF9ACA0BEF926
:10390000B480C1EB0309BB699DF80210CAEB000A41
:10391000C8EB03089DF800009DF8013043EA002041
:103920009DF80330AEF8AC0043EA01219DF8043065
:10393000AEF8B01042EA0323AEF8B43008FA83F3CD
:10394000BB610CF10103012BC8BF00230AFA80F010
:1039500009FA81F1C4BFC7F8A83001233861796141
:10396000D4BFC7F8A8307B73D4F8A4300A4F012B1A
:103970000CDD04F079FCD7F8B830C7F8B850C01A9D
:103980000023C7F8A430012370803B7302B0BDE868
:10399000F08700BF003C01402C0E0020D60F002015
:1039A000B4090020054A08B5138801339BB213807F
:1039B000034B1878FFF7D4FC002008BDEE0E002062
:1039C0006015002010B54000204CC0B22070204887
:1039D00001702049002008701F4901240C701F4904
:1039E0000B601F490B601F4B1F491A701F4B204A69
:1039F0001B680C701070988810F4007F0846114600
:103A000015D11A88D2050DD447F230521C88A4056E
:103A100002D5013AFAD112E08AB11A8892B242F480
:103A200080721A809A8892B242F440729A8047F269
:103A30003053027812B1013BFBD100E013B9BDE86D
:103A40001040AFE7087880F0010010BD652C002021
:103A5000662C0020672C0020682C0020702C002091
:103A60006C2C0020742C0020752C0020782C002059
:103A7000762C002007B5002101AB03227720FFF749
:103A8000A1FF9DF805309DF804001B0243EA0043A6
:103A90009DF80600184303B05DF804FB08B5FFF776
:103AA000E9FF014B986008BD2C0E002008B5FFF718
:103AB000E1FF014B586008BD2C0E002030B50546D3
:103AC0000C461346294622466820BDE8304079E777
:103AD000FFF7A6B958E4FFF7A3B955E42DE9F04F75
:103AE0002DED028B4B28A1B0044600F0DB8500F2DF
:103AF000D180322800F0048667D8222800F05F8445
:103B000023D8032800F09D8114D8012800F08D816E
:103B1000022840F0638604200AF0F4FC52200AF0E8
:103B2000C4FC43200AF0C1FC46200AF0BEFC4C2035
:103B300000F0ECBD042800F08F81052840F04E868F
:103B40001A200AF0DFFC002496E1282800F0918575
:103B500015D8242800F07485262840F03F86D34CE1
:103B600006200AF0CFFCB4F8E8000AF0CEFCB4F866
:103B7000EA000AF0CAFCB4F8EC0000F0D8BD2A282C
:103B800000F08A852C2840F02986C84C0C200AF0C9
:103B9000B9FC94F81E010AF088FCB4F828010AF078
:103BA000B4FCB4F824010AF0B0FCB4F826010AF021
:103BB000ACFC94F81F010AF078FCB4F82C010AF070
:103BC000A4FCB4F82E0100F0B2BD3D2800F0C8827C
:103BD00024D8382800F03A8512D8342800F011840F
:103BE000362840F0FB85B24BB04C93F8F200C0EBA6
:103BF000C000C0B20AF086FC04F1200500F0A4BDAC
:103C00003A2800F07D823B2840F0E88501200AF048
:103C100079FCA74B9B6F187800F078BD452800F021
:103C2000CA8527D8402800F07485422840F0D68500
:103C30009E4C10200AF066FC60790AF036FCA06801
:103C40000AF06CFC94F81E010AF02FFCB4F8E800AE
:103C50000AF05BFCB4F8EA000AF057FCB4F8EC0098
:103C60000AF053FCB4F80E010AF04FFCB4F810014E
:103C700000F05DBD472800F07C85C0F069854928CB
:103C800040F0AC8502200AF03DFC894BB3F870008F
:103C900000F04DBD6F2800F06E824CD8692800F00E
:103CA000008224D8652800F00D8115D84D2800F039
:103CB0000885642840F0928507200AF023FCE7205D
:103CC0000AF0F3FB794B58790AF0EFFB00200AF079
:103CD000ECFB042000F07EBD662800F0B18168286E
:103CE00040F07C8510200AF00DFC0024D1E16C2806
:103CF00000F0EA8117D86A2800F016846B2840F09B
:103D00006D856B4C05200AF0FDFBB4F88E000AF0BF
:103D1000FCFBB4F890000AF0F8FB94F8920000F075
:103D2000010000F0F3BC6D2800F0E0816E2800F087
:103D3000EB8100F053BD762800F017844ED873282D
:103D400000F0DD833FD8702800F05282722840F0E6
:103D50004585564C16200AF0D5FBB4F824010AF02C
:103D6000D4FBB4F8D0000AF0D0FBB4F8D2000AF0CB
:103D7000CCFBB4F8D4000AF0C8FBB4F868010AF030
:103D8000C4FB94F877010AF090FB00200AF08DFB49
:103D900094F878010AF089FB94F813010AF085FB86
:103DA00094F820010AF081FB00200AF07EFB404BD2
:103DB0009B6F0A20B3F9563093FBF0F080B20AF003
:103DC000A4FB00F047BC742800F04083752840F045
:103DD00005852F200AF096FB364CE8E2A02800F07B
:103DE00021840AD8772800F06A837B2840F0F68483
:103DF0003C200AF087FB002483E2F02800F00584D1
:103E0000FE2800F0F583A42840F0E884284D95F8BA
:103E1000A80080000130C0B20AF074FB95F8A80039
:103E20000AF043FB00242E46C9E303200AF06AFB94
:103E300000200AF03AFB20460AF037FB0D2000F084
:103E400065BC0AF05FFB02200AF02FFB01200AF09C
:103E50002CFB052000F05ABC06200AF053FB422040
:103E60000AF023FB4A200AF020FB46200AF01DFB43
:103E700034200AF01AFB0AE10F4B185D01340AF0F6
:103E800014FB0B2CF8D100240C4B185D01340AF004
:103E90000CFB082CF8D10024094B185D01340AF002
:103EA00004FB072CF8D100F097BC00BF14330020AE
:103EB000EC0E002023600108DF750108EB75010896
:103EC000C3750108C14C0B200AF01CFB20880AF0C6
:103ED0001CFB608880B20AF018FB6368C3F3C00063
:103EE000C3F38002800040EA4200C3F34002104363
:103EF000C3F3401240EAC20003F0100318430AF073
:103F000004FBE3682289247C02F0080103F4475A89
:103F10004AEA010A03F480414AEA010A03F4004133
:103F20004AEA010A03F480314AEA010A03F4003143
:103F30004AEA010A03F480214AEA010A03F4002153
:103F400003F4801B4AEA010A4AEA0B0A03F0007BE9
:103F50004AEA0B0A03F0006B4AEA0B0B9C4903F098
:103F6000805A4BEA0A0A03F0005B4AEA0B0B097815
:103F700003F0804A4BEA0A0A03F0004312F0010FF3
:103F80004AEA0303C1F3800114BF4FF002094FF066
:103F90000009194312F0020F14BF4FF004084FF04C
:103FA000000841EA090112F0040F14BF4FF0100C91
:103FB0004FF0000C41EA080112F0400F14BF4FF01F
:103FC000200E4FF0000E41EA0C0112F0100F14BF4A
:103FD0004FF40077002741EA0E0112F0200F14BFC2
:103FE0004FF480660026394312F4807F14BF4FF4EB
:103FF00000650025314312F4007F14BF4FF4001018
:104000000020294312F4806F41EA000114BF4FF0F1
:1040100080620022002011430346A3420AD26D4A67
:104020009D5C012202FA05F50D421CBF9A40104327
:104030000133F2E70AF072FA674B93F8280565E35B
:1040400012200AF05FFA654B1B88B3F5806F8CBFB6
:104050000826012600255D4C04F1320333F91500D2
:1040600090FBF6F0013580B20AF04FFA032DF2D141
:10407000208F0AF04AFA608F0AF047FAA08F0AF000
:1040800044FA00200AF041FA00200AF03EFA00202B
:104090004DE3534B185D01340AF007FA102CF8D1A8
:1040A0009AE3504D2878400000F0FE000AF02AFA0A
:1040B00000242B789C4280F08F834B4B33F8140004
:1040C0000AF023FA0134F4E7404C06200AF01AFA09
:1040D000B4F856000AF019FAB4F858000AF015FAC4
:1040E000B4F95A300A2093FBF0F037E0374C062041
:1040F0000AF008FAE06D0AF011FAB4F8600016E36D
:1041000004200AF0FFF964E307200AF0FBF9374BBB
:104110002E4C1888FF28A8BFFF20C0B20AF0C5F9AE
:10412000606E4FF6FF75A842A8BF284620EAE070EF
:1041300080B20AF0EAF9B4F868000AF0E6F9264B12
:10414000E06E93F813313BB10A235843A842A8BF4D
:10415000284620EAE07001E000F30F0080B2E6E2BA
:104160001D4C02200AF0CEF994F870010AF09DF976
:1041700094F86F01CAE2154C0B200AF0C3F9636F83
:1041800018780AF092F9636F58780AF08EF90026D1
:1041900025466B6F0D4C3344013618790AF085F9CA
:1041A000032EF6D1636FD8790AF07FF9636F9878A0
:1041B0000AF07BF9636FD8780AF077F9636F588952
:1041C0000AF0A3F9636F187AA0E200BFEC0E00209A
:1041D000F03E0020FD0E00201433002004040020D7
:1041E0002A0F002074380020B43800200814002062
:1041F000C84C1E200AF086F9A36F1B78022B4FF0E3
:1042000000056BD1A36F03EB850393ED080AB2EEB3
:10421000048A20EE080A10F043FB80F30800C0B2C5
:104220000AF043F9A36FDFEDBC7A03EB850393ED4E
:104230000B0A20EE270A10F033FB80F30800C0B20F
:104240000AF033F9A36FDFEDB57A03EB850393ED45
:104250000E0A20EE270A10F023FB80F30800C0B2FC
:1042600001350AF022F9032DCCD1072DA36F23D1FC
:1042700093ED110A20EE080A10F012FB80F30800FB
:10428000C0B20AF012F9A36F93ED120A20EE080AE9
:1042900010F006FB80F30800C0B20AF006F9A36F25
:1042A00093F84C3000EE103AB8EE400A10F0F8FAED
:1042B00080F30800C0B20BE02B4458780AF0F5F800
:1042C000A36F2B44D87A0AF0F0F8A36F2B44587DE3
:1042D00001350AF0EAF80A2DC7D17DE2A36F2B441D
:1042E00058780AF0E2F8A36F2B44D87A0AF0DDF888
:1042F000A36F2B440135587D0AF0D7F80A2DEDD174
:104300006AE2844D9FED858AAB6F03EB840393EDE6
:10431000080A20EE080A10F0C3FA80B20AF0F5F895
:10432000AB6F03EB840393ED0B0A20EE080A10F049
:10433000B7FA80B20AF0E9F8AB6F03EB840393EDB0
:104340000E0A20EE080A10F0ABFA013480B20AF02F
:10435000DCF8032CD5D1072CAB6F16D193ED110AE5
:1043600020EE080A10F09CFA80B20AF0CEF8AB6F8B
:1043700093ED120A20EE080A10F092FA80B20AF0C9
:10438000C4F8AB6F93F84C000BE0234458780AF064
:10439000BCF8AB6F2344D87A0AF0B7F8AB6F23446C
:1043A000587D01340AF0B1F80A2CD4D114E214F883
:1043B000010F002800F010820AF077F8F7E750208C
:1043C0000AF0A0F80025534B9C6F554B04EB850475
:1043D0000C2194F8792001FB0233013593F8380061
:1043E0000AF063F894F87A000AF05FF894F87B001A
:1043F0000AF05BF894F87C000AF057F8142DE2D12B
:10440000EAE148200AF07EF80025424B9C6F062323
:1044100003FB0544013594F8CE000AF046F894F801
:10442000C9000AF042F894F8CA000AF03EF894F87D
:10443000CB000AF03AF894F8CC000AF036F894F879
:10444000CD000AF032F80C2DDFD1C5E14FF00008A5
:10445000012600272F4B1A7C974227DA11330024BC
:10446000FA5C2F4D0C2305F130016343595C9142F6
:1044700007D12B44586B10F0F6F882462EB9B1469E
:1044800005E00134222CECD10EE080440CE0D14553
:104490000ADA0C2303FB04535B6B13F809000AF0E0
:1044A00004F809F10109F2E70137D3E7002E00F023
:1044B00093815FFA88F00AF025F80026C9E7154DC8
:1044C000287C0AF01FF800242B7C9C4280F0848119
:1044D000144BE65C002112480C2200F1300702FB6D
:1044E00001F3DA5DB24205D1034493F8380009F0D4
:1044F000DCFF02E001312229EDD10134E4E708209C
:104500000AF000F80124E0B2013409F0CEFF092CD2
:10451000F9D161E1EC0E00200000C84200007A44AD
:1045200024600108FD0E0020BB4C102009F0EAFFBA
:1045300094F87C0000F0020009F0B7FF94F87D00C9
:1045400009F0B3FFD4F8800009F0E8FFD4F8840044
:1045500009F0E4FFB4F8880009F0D7FFB4F88A0046
:1045600009F0D3FFB4F88C00E1E009F081FF0746C1
:10457000122009F0C7FFA84C27B9D4F89460D4F8EA
:10458000985007E0102F13BF0025D4F89C60D4F892
:10459000A0502E46384609F088FF304609F0BEFF8D
:1045A000284609F0BBFFD4F8A40009F0B7FF0020AB
:1045B00009F0ABFF002009F0A8FF0020A6E096F864
:1045C000A8309C4280F00881944D285D09F06DFF71
:1045D00005F11003185D09F068FF05F1200330357F
:1045E000185D09F062FF285D09F05FFF0134E6E71E
:1045F000082009F087FF0024894B33F814000134A8
:1046000009F083FF042CF7D1E6E0834C042009F085
:1046100079FFA36FB3F85A0009F077FFA36FB3F8DF
:10462000580084E00C2009F06DFF7E4B186809F0FB
:1046300075FF7D4B186809F071FF7C4B1868C9E065
:10464000042009F05FFF7A4B9868C3E0042009F06A
:1046500059FF774C94F8080109F027FF94F80C01F2
:1046600009F023FF94F80B0109F01FFF94F80D01E6
:104670004CE06F4C072009F045FFB4F80E0109F03B
:1046800044FFB4F8100109F040FF94F8120109F05A
:104690000CFFB4F814014AE0012009F033FF644B29
:1046A000587933E0624C042009F02CFF94F866013D
:1046B00009F0FBFE94F8670109F0F7FEB4F8680111
:1046C00035E05C4C5C4D207800EB4000C0B209F056
:1046D00019FF002623789E4205F102057CD215F8C9
:1046E000020C09F0E2FE15F8010C00EB800000EB73
:1046F000800000F2EE2080B209F007FF0136E9E702
:10470000012009F0FFFE4A4B93F8200109F0CDFE8D
:1047100062E0082009F0F6FE0024454B23440134F2
:1047200093F8160109F0C1FE082CF6D154E009F007
:10473000ECFE51E0414AD25C904251D00C33302B18
:10474000F8D10834AC4247D094F87E010023F1E759
:104750003B4C0D2009F0D6FE02F03AF909F0A5FE17
:10476000A08809F0DBFE206909F0D8FE02F010F9FC
:1047700030E009F091FE0546842009F0C3FE28468A
:1047800009F0CCFE2E4B1C6905F18003A3428CBFBF
:10479000641B802402F0FEF928462246694602F096
:1047A00063FA00240546AC4216DA1DF8040009F04D
:1047B0007CFE0134F7E7132009F0A4FE0024214B0E
:1047C000185D013409F071FE0B2CF8D1002009F0BE
:1047D000A5FE002009F0A2FE012018E0002016E04E
:1047E00009F063FEB4F8800109F08FFE94F88201AD
:1047F00009F05BFE94F8830109F057FE94F88501F7
:1048000009F053FE94F8840109F04FFE99E721B0B6
:10481000BDEC028BBDE8F08FEC0E0020950F002060
:10482000D60F0020107AFF1F147AFF1F187AFF1F7F
:1048300014330020743800204434002080380020D5
:1048400004040020DF7501082DE9FF4708F05AF83D
:10485000774B1F78002F40F0D685764D2B685B058F
:1048600040F1D185744B754CB3F8DE802378744EDB
:10487000002B00F0198232686368D31A7C2B40F257
:104880001382237A62600133237207F12400C0B2DD
:1048900008F028F86B4B33F9173007EE903A6A4B63
:1048A0001B88B8EEE77A07EE903AF8EEE77A013720
:1048B000C7EE277A9FED657A67EE877AFDEEE77A95
:1048C000CDED017ABDF9040007F0FAFF032FDCD12A
:1048D000302008F007F85E4BDFF86091B3F9000074
:1048E00007F0EEFF07F0F6FF237A9F0732D1D9F8E1
:1048F000042041F288339A4219D9102007F0F2FFC0
:104900006427D9F80C0090FBF7F000B207F0D8FF4D
:10491000212007F0E7FFD9F80C0090FBF7F307FB25
:1049200013000028B8BF404200B207F0C9FF1420AE
:1049300007F0D8FF474BB3F904000A2390FBF3F0CC
:1049400007F0BEFF1C2007F0CDFF002007F0B8FFE6
:1049500007F0C0FF237A580740F08281022007F059
:10496000C1FF364B18696423323090FBF3F000B27C
:1049700007F0A6FF384B0320B3F9067007F0B2FF2B
:10498000364B1B7859074FF0050997FBF9F7BFB273
:104990000BD53348414603F022FC20B92B6813F0B5
:1049A000100F18BF002738B205E02E4B1B689889FE
:1049B000B0FBF9F000B207F083FF2B689A0740F1D3
:1049C000AC80DFF8A8A0B4F81480274F9AF8003024
:1049D0003A884FEA08184FF064091FFA88F809FB73
:1049E00002325B00B2FBF3F348EA03281FFA88F8AF
:1049F000C3F3032348EA0308062007F073FF0FFA06
:104A000088F007F05DFFA38A9AF8001001339BB28B
:104A100093FBF1F201FB1233A382A3699B7B012B71
:104A200026D1392007F05EFFB7F900003CE000BF57
:104A3000003F0020B038002014330020E80F002091
:104A4000602C00201E0F00200404002000007A4487
:104A50004C0F0020420F00207C3A0020F03E002046
:104A60002A34002060130020081400208C07002046
:104A70003F886E233A205F434FF0150807F032FF5E
:104A800097FBF8F71FFA87F8B8FBF9F738B207F089
:104A900017FF09FB17873B2007F024FFB8B2471D1B
:104AA0000A2097FBF0F000B207F00AFF282007F079
:104AB00019FFAB4B0A201B6893FBF0F000B207F024
:104AC000FFFE042007F00EFFA64BA7491B680868ED
:104AD0009A894FF6FF739842A8BF1846C2B10028C2
:104AE000ACBF131A134607EE903A9FEDA07AF8EE8A
:104AF000E77A67EE877A07EE102AB8EEC77AC7EE34
:104B0000877AFDEEE77A17EE900A6428A8BF642042
:104B100020EAE07000B207F0D3FE954B1B689B06BD
:104B200040F19380934B1A7812F0020F98461FD0F1
:104B3000DFF87892112007F0D5FEB9F800008E4B0F
:104B40004FF4F367784390FBF3F000B207F0B8FE40
:104B5000192007F0C7FEB9F800004743642097FB0F
:104B6000F0F797FBF0F300FB137000B207F0A8FE1C
:104B7000824B1F8898F8003013F0020F08BF0027FF
:104B8000012007F0AFFE38B207F09AFE092007F0C7
:104B9000A9FE002007F094FE794B1F78794B1A8804
:104BA000B2F5967F09D9237A03F00F03072B04D8B7
:104BB00042F20F77974228BF1746052007F092FE72
:104BC000A3695B7B0BB938B21CE0A7F1200307EEA9
:104BD000903A9FED6D7AF8EEE77AF6EE006AC7EE4E
:104BE000877ABEEE007AF5EEC07AF1EE10FA58BF81
:104BF000B0EE667A77EE877AFDEEE77ACDED017A50
:104C0000BDF9040007F05CFE98F800309F0702D45D
:104C1000237F012B03D1012323775C481CE05C4BED
:104C2000DFED5C6A9B6993ED017AD3ED027A27EEA2
:104C3000267A67EEA67ABDEEC77AFDEEE77A8DEDAD
:104C4000027ACDED037A02A806E0534A92E8030007
:104C500002AB83E80300184601F070F907F03AFE52
:104C6000237A282B20D14A4B306800221A724FF049
:104C70003C094FF47A73B0FBF3F8172007F032FECB
:104C8000B8FBF9F7B7FBF9F009FB1070000200B2AE
:104C900007F016FE182007F025FE09FB178000B26A
:104CA00007F00EFE07F016FE637FDFF8E480002BAE
:104CB00000F0728103F0D8FAD8F82030374AC31ACE
:104CC0009342074640F2EE80002388F8263088F8A9
:104CD0002830334B1B88DAB21B0A88F8422088F848
:104CE000433088F8382088F83930D8F850203368B5
:104CF0009A1AD8F85430D97B4FF47A734B439A42BE
:104D00000ED3284B1B68C8F85030274B1B78013B4B
:104D1000012B9FBF102388F82630022388F8283003
:104D20000F4B1B491A68104B0A2092FBF0F284F8D3
:104D30004020121284F841200E4A1B6893FBF0F3C6
:104D400084F844301B1284F8453012780C4B9607D7
:104D50001B7884F872302BD42D2381F87330A0E0B7
:104D6000580F002060130020500F00200000C842A0
:104D7000F00E0020680F0020A0860100740F0020B4
:104D8000690F0020280700206666E63F6C0F0020B0
:104D9000E80F00208096184BF86101083F0D0300D2
:104DA00008140020602C0020BE260020760F002072
:104DB000042B8CBF3323322381F87330C54BDFF8CB
:104DC0004C93D3F800A05E68C34AC44B9AFBF3F03F
:104DD0004FF0060809FB00A196FBF3F309FB0369FA
:104DE00003EB830308FB01F103EB830391FBF2FC6C
:104DF0004FF0640E02FB1C119B0091FBFEF184F846
:104E00006410091208FB09F884F8651098FBF2F1A8
:104E100043FA81F39BB284F867301B0A84F8683048
:104E2000AF4B02FB118292FBFEF284F86920121252
:104E300084F86A201A882423534393FBFEFEA94B6F
:104E400084F85FE01B8884F86B301B0A84F86C30B0
:104E5000A54B00EB80001B880A22B3FBF2F303F59D
:104E6000FA739BB200EB8000800084F86D301B0A5F
:104E700040FA8CF084F86E309C4B80B24FEADA7ABC
:104E800084F86200F60F000ACEF3072E1B8884F820
:104E900061A084F8630084F8666084F860E084F8B8
:104EA0007430276294F88490914EB9F1000F0FD1BD
:104EB000D6F88C0003F0D2FA012809D90228DFF8CD
:104EC000508200F0628201F02BF8012388F8003054
:104ED000D4F89060864B002E5ED093F884203AB1CF
:104EE000D3F8982040F6B731BA1A8A4216D853E060
:104EF000012283F88420D3F89C20D3F88C00127808
:104F0000022A04D80430022100F0F4FF02E002215A
:104F100003F098FA002384F8A0303BE093F8942043
:104F2000AAB9C3F8902083F88420D3F89C20D3F842
:104F30008C001278022A04D80430012100F0DAFF34
:104F400002E0012103F07EFA00F0EAFF22E0013ADC
:104F5000D2B283F8942093F8A01093F8A10042B93C
:104F600001304A1C83F8A10083F8A020D3F88C00FC
:104F70000EE03246013012F801EB83F8A1000EEB8F
:104F80000106D3F88C0083F8A060C3F89020714626
:104F900003F067FAC4F8987094F8A230544EEBB15D
:104FA000D6F8A430D3B1D6F8A830BBB1514F1A68A7
:104FB0003B60514B1A60514AD6F8AC301344187A12
:104FC000FEF78CFD3B68987909F06FFAD6F8AC30A3
:104FD0000133092B88BF0023C6F8AC30484E94F843
:104FE000B0203768424B002A00F00D82D3F8B4207D
:104FF000002A00F0088293F8B830013B012B00F240
:105000000282D4F8B400DFF8E88003F027FAE0B1B8
:10501000D8F8B40003F01FFA98F8B930D6F800A019
:105020007E2B81460ED102231B2888F8B83009D187
:10503000D8F8B40003F012FA20B90123C8F8BCA0D4
:1050400088F8C03084F8B990DBE7D8F8BC20336822
:105050009B1A41F6583293421FD9032388F8B8307F
:10506000D1E1284A32F8130010B903464FF4036027
:105070000133B0F5C06FDBB200F0A2801ED9B0F5ED
:10508000006F00F0A58051D9B0F5036F5FD184F8AF
:10509000C1301D4B1B68990660D494F8C01094F879
:1050A000C130002900F06E813268D21B012AD8D9A4
:1050B00084F8C130002384F8C030A4E1B0F5007F4B
:1050C00062D027D8B0F5807F69D0B0F5887F00F036
:1050D000B380E6E76C0F002040420F0080969800F6
:1050E000760F00207A0F0020740F00207C0F002024
:1050F000E80F0020B0260020B4260020F861010847
:10510000602C0020AA780108F00E0020806967FF5B
:1051100018040020B0F5806F00F0B080B0F5826F09
:1051200000F0EF80B0F5047FBBD124E0B0F5E26F72
:1051300000F09580B0F5E46F00F09780B0F5E06F77
:10514000AFD184F8C130B14BB3F9001092E0B0F5A3
:10515000046F7BD0B0F5026FA3D1FCE0AC4B1B78A1
:105160009A079AD5AB4B198824234B4312336421F9
:1051700093FBF1F1FFE084F8C1302B689B078CD5DD
:10518000A54B0A211B88F5E084F8C1302B6819056E
:1051900083D5A24B19680A2391FBF3F1EBE084F865
:1051A000C1309F4BDFF88C821B685A077FF575AFC3
:1051B000D8F80C1000F06AFE002388F8C0306CE7C5
:1051C00084F8C1302B681B057FF567AF954B3BE03A
:1051D000934A84F8C130126891067FF55EAF8C4A1D
:1051E000127892077FF559AF13F0010F8E4B11D053
:1051F0005B6883EAE371002BA1EBE37101EB5101E2
:105200004FF01902B1FBF2F1ACBF41F0004141F0A7
:1052100040410EE01B6883EAE371A1EBE371002BD0
:1052200001EB51014FF01902B1FBF2F1B8BF41F0AF
:1052300080414FF400607DE084F8C130784B1B68FA
:105240005B077FF52AAF794B196894E084F8C13089
:10525000774BB3F9041001EB810149006AE084F84F
:10526000C1306A4BB3F9021004E084F8C130674BD7
:10527000B3F904102C2391FBF3F15BE084F8C13007
:1052800094F8C2306B4A0133DBB2032B88BF012391
:1052900082F8C23094F8C21042F210735943664B40
:1052A0001B78D80748BF01319A0748BF0231580719
:1052B000624B1B8848BF0431DA0748BF0A319807A0
:1052C00048BF14311A0648BF2831D80548BF2831D5
:1052D0005A0748BF6431180748BFC8319A0548BF0C
:1052E00001F5C871980648BF01F57A71DA0648BF22
:1052F00001F5FA61580648BF01F57A614FF4806004
:1053000039E084F8C130464B1B6813F0200817D0F1
:105310003F4B1A7812F0020F14BF4FF47A7100213C
:1053200012F0010F464A14BF4FF4FA6300230B44F6
:105330001178194400F0AAFD002384F8C030ACE6CF
:105340002B6819067FF5A9AE414600F09FFD394B49
:1053500083F8C080A1E684F8C130314B1B689A06FF
:105360007FF59BAE2A4B1B789B077FF596AE354B9E
:105370001B886421594300F089FD2E4B002283F8DD
:10538000C0208AE684F8C1303DE098F8003023B1AF
:10539000C6F8887088F800909AE5D6F88830FB1A2D
:1053A000B3F57A6FFFF494AD0123D6F88C0088F83A
:1053B000003003F050F88046D6F88C0003F04BF82C
:1053C00018F07F0F7FF484AD8A2802D08E280DD08C
:1053D0007EE5134B1B6898067FF57AAD96F884300E
:1053E000002B7FF475AD06F1580306E096F8843083
:1053F000002B7FF46DAD06F12403C6F890302D2309
:1054000086F8943064E504B0BDE8F0871E0F0020F4
:10541000680F0020760F002008140020580F00208D
:10542000F00E0020500F00206C0F00204C0F0020C9
:10543000420F0020E80F0020F03E0020F40E002074
:10544000690F0020740F00202B4B2C4A1B68126838
:1054500010B51A602A4A1168596051689268DA607A
:10546000284A996011681961516892689A61264AC0
:1054700059611168D961516892685A62234A196268
:1054800011881985518859859188D288DA85204AF2
:105490009985118819865188598692889A861D4A5D
:1054A0001188D986518892885A871B4A1987118892
:1054B00099875188D9871946928821F8402F174A31
:1054C00010780022824206DA154C34F8124021F896
:1054D000024F0132F6E7134A1288A3F86A20124AF3
:1054E0001288A3F86C20114A12681A67104A1288B1
:1054F000A3F8742010BD00BF303C0020E827002036
:10550000C03A0020CC3A0020D83A00207C3A002053
:10551000240F00201E0F0020420F0020143B00200B
:105520002A0F00207C13002028390020F40F0020CF
:10553000540F0020A0F17D03012B70B504460D46E9
:105540000A4E05D830687D2102F08BFF84F02004DC
:105550003068214602F085FF35B12B881C4404EBEE
:10556000142404F0FF042C8070BD00BF9C100020A8
:105570002DE9F8430E4B93E8800305460E460024C0
:10558000B44213DA7B1933F9140008EB050333F93D
:10559000142009EB050333F914301344022293FB62
:1055A000F2F3C01A08F071FD0134E9E7BDE8F883B1
:1055B000303C002010B5104B93F85035012B0146BC
:1055C00012D10E4A0E4C1078431CDBB213701B062E
:1055D00044BF00231370215401F0EAF93F2809D990
:1055E000BDE8104001F0F2BA064BBDE81040186863
:1055F00002F037BF10BD00BF14330020102600207A
:1056000012260020280C002070B54720FFF7D2FF9B
:10561000174B1B681B0307D5164B174A5B681068AE
:105620001B68C01A08F021FD144E154C154D30783A
:1056300008F01BFD23682868C01A08F026FD63687F
:105640006868C01A08F021FD0F4B188808F00DFD9E
:105650000E4B188808F009FD0D4B188808F005FD61
:10566000337823742B68A3606B68E36070BD00BF60
:105670003C0C0020303C0020E8270020690F00206F
:105680001C3C00206C0F0020740F0020760F0020BF
:10569000780F00207FB5264C264E274D2749284AF3
:1056A000284B20B128480088B0F5805F31D230887F
:1056B000ADF8040028781E4D91F8201012788DF86E
:1056C00006008DF807108DF808201B788DF809303A
:1056D00001A8294606220EF067FF30B30198BDF8F5
:1056E00008302860AB805320FFF764FF208808F063
:1056F000BCFCA07808F0B9FCE3780193237902930D
:1057000001A86379039308F01FFC0F4B00221A8055
:105710000BE03088208091F82010287812781B78D0
:10572000A070E17022716371DDE704B070BD00BF4D
:10573000AB100020F40E0020680F0020903E0020E7
:10574000780C0020260D0020420C00200A4A138805
:1057500001331380094A136801331360084A138820
:1057600001339BB2202B01BF00231380054A13880D
:1057700008BF013313807047420C0020480C002002
:10578000440C0020A43D002038B5294B1B78083B71
:10579000012B05460C464AD84520FFF70BFF28464B
:1057A000FFF708FF0E2D33D003D83DB10D2D07D0E4
:1057B00038BD142D20D0FF2D32D038BD20682BE00D
:1057C000637820789BB180F08000FFF7F3FEA56836
:1057D000E8B2FFF7EFFEC5F30720FFF7EBFEC5F3D6
:1057E0000740FFF7E7FE280EFFF7E4FE04E0FFF7AF
:1057F000E1FE606808F049FC2078FFF7DBFE606896
:1058000008F043FC2489E0B2FFF7D4FE200A0BE045
:10581000206808F02AFC6068BDE8384008F025BC24
:10582000044808F036FC0020BDE83840C2E638BD28
:10583000250C0020CA7801082DE9F04FBA4BBB4F68
:105840001A888BB00193002A40F0A080B7F84E056B
:10585000B74E42F20103C41A60426041FFF71AFFDB
:10586000FFF7F2FD34684920FFF7A4FEB14B25464F
:10587000186808F0FAFB55F8040B08F0F6FB284608
:1058800009F08EFE04F1100009F08AFE04F11C09F3
:105890004FF01008A84D01232A6803FA08F31342B9
:1058A00003D0D9F8000008F0F0FB08F10108B8F1C6
:1058B000130F09F10409EDD104F1280009F060FE8D
:1058C000B7F8D030B4F92E00C01A08F0CEFB2B6820
:1058D000D80408D5994BB4F86A001B88181AC0F38D
:1058E0000D0008F0C2FB2B68990403D5B4F86C00D6
:1058F00008F0BBFB2B681A0502D5206F08F0C5FB2A
:105900002B681B0403D5B4F8740008F0AEFB04F157
:10591000300009F035FEA04604F1360009F030FEF3
:1059200004F13C0009F02CFEB7F8D03038F9420FF2
:10593000C01A08F09AFB0127814B1B789F4208DAB6
:1059400038F9020FB4F94230C01A08F09EFB013753
:10595000F2E72B68980505D5B4F96400A0F2DC5095
:1059600008F093FB326877487260B260121AD11067
:10597000754A4A43531C032293FBF2F202EB4202A4
:105980009A1A782303FB02033360BAE16F4B704A23
:105990001B6811688B4206D00AA9002041F8203DFF
:1059A0001360FFF7F1FE019B97F84E151B8897F8DF
:1059B0004F050B44013BB3FBF0F200FB12338B426B
:1059C00080F06A815A4F0120FFF764FEFFF73CFD2B
:1059D00050203E687D68FFF7EDFDBA683B681068AF
:1059E0001B687A6803441068A3EB400008F04DFB85
:1059F0006A6873689B1A0293AA68B3689B1A039338
:105A0000EA68F36802A89B1A049309F0C9FD2A69A1
:105A100033699B1A02936A6973699B1A0393B3698A
:105A2000AA6902A89B1A049308F08EFA06F11C0BCF
:105A300005F11C081024404901220B68A2401A42BB
:105A40008A4606D0DBF80000D8F80030C01A08F00B
:105A50001CFB0134132C0BF1040B08F10408EAD1F0
:105A600006F1260005F12601002331F9024F30F935
:105A7000022F121B02AC44F823200133042BF4D173
:105A800003214FF000094FEA89035FFA83F902AB63
:105A900053F821206AB102F108000F2802D849F01A
:105AA000010906E08032FF2A94BF49F0020949F05B
:105AB000030911F1FF31E6D24846FFF77BFD0024D0
:105AC0000DF1080BA04609F00302022A16D0032AA2
:105AD0001DD0012A4FD1B8F1000F05D1DBF80040ED
