:020000040800F2
:10000000000400205513000889840208850E0108A9
:10001000D9130008D9130008D91300080000000004
:1000200000000000000000000000000095840208AD
:10003000A184020800000000AD84020831760108A6
:10004000D9130008D9130008D9130008D9130008E0
:10005000D9130008D9130008D9130008D9130008D0
:10006000D9130008D9130008D9130008D9130008C0
:10007000D9130008D913000811520008D913000839
:10008000D9130008D9130008D9130008D9130008A0
:10009000D9130008D9130008D9130008F575010811
:1000A000B55B0008D9130008D9130008D91300085C
:1000B000415B0008555B0008D91300088D26000835
:1000C00081260008A526000899260008D9130008F3
:1000D000D9130008A1500008D9130008C552000820
:1000E000E9750108D9130008B9840208D91300087A
:1000F0009D5B0008D9130008855B0008D913000830
:10010000D9130008D91300086D5B0008D913000843
:10011000D9130008D9130008D9130008D91300080F
:10012000D9130008D9130008D9130008D9130008FF
:10013000D9130008D9130008D9130008D9130008EF
:10014000D9130008D9130008D9130008ED84020858
:10015000D91300082D540008ED4F0008E1540008A1
:10016000D9130008D9130008D9130008D9130008BF
:10017000D9130008D9130008D9130008D9130008AF
:10018000D9130008D913000881F0004102E000BF34
:1001900083F0004330B54FEA41044FEA430594EA47
:1001A000050F08BF90EA020F1FBF54EA000C55EA82
:1001B000020C7FEA645C7FEA655C00F0E2804FEA53
:1001C0005454D4EB5555B8BF6D420CDD2C4480EA35
:1001D000020281EA030382EA000083EA010180EA65
:1001E000020281EA0303362D88BF30BD11F0004FB3
:1001F0004FEA01314FF4801C4CEA113102D04042E9
:1002000061EB410113F0004F4FEA03334CEA133323
:1002100002D0524263EB430394EA050F00F0A7803B
:10022000A4F10104D5F1200E0DDB02FA0EFC22FA36
:1002300005F2801841F1000103FA0EF2801843FA2A
:1002400005F359410EE0A5F120050EF1200E012A1B
:1002500003FA0EFC28BF4CF0020C43FA05F3C01859
:1002600051EBE37101F0004507D54FF0000EDCF1D2
:10027000000C7EEB00006EEB0101B1F5801F1BD37B
:10028000B1F5001F0CD349085FEA30004FEA3C0C7F
:1002900004F101044FEA445212F5800F80F09A8075
:1002A000BCF1004F08BF5FEA500C50F1000041EB79
:1002B000045141EA050130BD5FEA4C0C404141EB7D
:1002C000010111F4801FA4F10104E9D191F0000FA4
:1002D00004BF01460020B1FA81F308BF2033A3F127
:1002E0000B03B3F120020CDA0C3208DD02F1140C1E
:1002F000C2F10C0201FA0CF021FA02F10CE002F159
:100300001402D8BFC2F1200C01FA02F120FA0CFC51
:10031000DCBF41EA0C019040E41AA2BF01EB04519A
:10032000294330BD6FEA04041F3C1CDA0C340EDC98
:1003300004F11404C4F1200220FA04F001FA02F3DB
:1003400040EA030021FA04F345EA030130BDC4F199
:100350000C04C4F1200220FA02F001FA04F340EA8E
:100360000300294630BD21FA04F0294630BD94F03F
:10037000000F83F4801306BF81F480110134013D26
:100380004EE77FEA645C18BF7FEA655C29D094EA97
:10039000050F08BF90EA020F05D054EA000C04BF15
:1003A0001946104630BD91EA030F1EBF0021002000
:1003B00030BD5FEA545C05D14000494128BF41F09F
:1003C000004130BD14F580043CBF01F5801130BD03
:1003D00001F0004545F0FE4141F470014FF000008E
:1003E00030BD7FEA645C1ABF194610467FEA655C3F
:1003F0001CBF0B46024650EA013406BF52EA0335E1
:1004000091EA030F41F4002130BD00BF90F0000FCE
:1004100004BF0021704730B54FF4806404F132040A
:100420004FF000054FF0000150E700BF90F0000FC3
:1004300004BF0021704730B54FF4806404F13204EA
:1004400010F0004548BF40424FF000013EE700BFBA
:1004500042004FEAE2014FEA31014FEA02701FBF4A
:1004600012F07F4393F07F4F81F06051704792F01C
:10047000000F14BF93F07F4F704730B54FF4607496
:1004800001F0004521F0004120E700BF50EA0102E1
:1004900008BF704730B54FF000050AE050EA01028E
:1004A00008BF704730B511F0004502D5404261EBFE
:1004B00041014FF4806404F132045FEA915C3FF43F
:1004C000DCAE4FF003025FEADC0C18BF03325FEAD8
:1004D000DC0C18BF033202EBDC02C2F1200300FA8D
:1004E00003FC20FA02F001FA03FE40EA0E0021FAB2
:1004F00002F11444C1E600BF70B54FF0FF0C4CF49C
:10050000E06C1CEA11541DBF1CEA135594EA0C0F51
:1005100095EA0C0F00F0DEF82C4481EA030621EA8C
:100520004C5123EA4C5350EA013518BF52EA0335C7
:1005300041F4801143F4801338D0A0FB02CE4FF079
:100540000005E1FB02E506F00042E0FB03E54FF0A9
:100550000006E1FB03569CF0000F18BF4EF0010EA1
:10056000A4F1FF04B6F5007F64F5407404D25FEA9D
:100570004E0E6D4146EB060642EAC62141EA555150
:100580004FEAC52040EA5E504FEACE2EB4F1FD0C92
:1005900088BFBCF5E06F1ED8BEF1004F08BF5FEA10
:1005A000500E50F1000041EB045170BD06F00046C2
:1005B00046EA010140EA020081EA0301B4EB5C046F
:1005C000C2BFD4EB0C0541EA045170BD41F4801167
:1005D0004FF0000E013C00F3AB8014F1360FDEBF8C
:1005E000002001F0004170BDC4F10004203C35DA68
:1005F0000C341BDC04F11404C4F1200500FA05F3EB
:1006000020FA04F001FA05F240EA020001F000428B
:1006100021F0004110EBD37021FA04F642EB060101
:100620005EEA430E08BF20EAD37070BDC4F10C042B
:10063000C4F1200500FA04F320FA05F001FA04F2EF
:1006400040EA020001F0004110EBD37041F10001DB
:100650005EEA430E08BF20EAD37070BDC4F12005E6
:1006600000FA05F24EEA020E20FA04F301FA05F24E
:1006700043EA020321FA04F001F0004121FA04F2F6
:1006800020EA020000EBD3705EEA430E08BF20EAC6
:10069000D37070BD94F0000F0FD101F00046400000
:1006A00041EB010111F4801F08BF013CF7D041EA82
:1006B000060195F0000F18BF704703F00046520086
:1006C00043EB030313F4801F08BF013DF7D043EA57
:1006D0000603704794EA0C0F0CEA135518BF95EA0D
:1006E0000C0F0CD050EA410618BF52EA4306D1D194
:1006F00081EA030101F000414FF0000070BD50EAB3
:10070000410606BF1046194652EA430619D094EA3C
:100710000C0F02D150EA013613D195EA0C0F05D126
:1007200052EA03361CBF104619460AD181EA03017A
:1007300001F0004141F0FE4141F470014FF0000032
:1007400070BD41F0FE4141F4780170BD70B54FF0CD
:10075000FF0C4CF4E06C1CEA11541DBF1CEA13554D
:1007600094EA0C0F95EA0C0F00F0A7F8A4EB05042F
:1007700081EA030E52EA03354FEA013100F0888026
:100780004FEA03334FF0805545EA131343EA1263EF
:100790004FEA022245EA111545EA10654FEA0026A4
:1007A0000EF000419D4208BF964244F1FD0404F55D
:1007B000407402D25B084FEA3202B61A65EB0305B9
:1007C0005B084FEA32024FF480104FF4002CB6EB76
:1007D000020E75EB030E22BFB61A754640EA0C00F6
:1007E0005B084FEA3202B6EB020E75EB030E22BF36
:1007F000B61A754640EA5C005B084FEA3202B6EB77
:10080000020E75EB030E22BFB61A754640EA9C0035
:100810005B084FEA3202B6EB020E75EB030E22BF05
:10082000B61A754640EADC0055EA060E18D04FEAC3
:10083000051545EA16754FEA06164FEAC30343EA63
:1008400052734FEAC2025FEA1C1CC0D111F4801F30
:100850000BD141EA00014FF000004FF0004CB6E729
:1008600011F4801F04BF01430020B4F1FD0C88BFC8
:10087000BCF5E06F3FF6AFAEB5EB030C04BFB6EBD3
:10088000020C5FEA500C50F1000041EB045170BDC6
:100890000EF0004E4EEA113114EB5C04C2BFD4EBF3
:1008A0000C0541EA045170BD41F480114FF0000E77
:1008B000013C90E645EA060E8DE60CEA135594EAF3
:1008C0000C0F08BF95EA0C0F3FF43BAF94EA0C0FF6
:1008D0000AD150EA01347FF434AF95EA0C0F7FF46B
:1008E00025AF104619462CE795EA0C0F06D152EABF
:1008F00003353FF4FDAE1046194622E750EA4106A3
:1009000018BF52EA43067FF4C5AE50EA41047FF4B3
:100910000DAF52EA43057FF4EBAE12E74FF0FF3C18
:1009200006E000BF4FF0010C02E000BF4FF0010CE9
:100930004DF804CD4FEA410C7FEA6C5C4FEA430C62
:1009400018BF7FEA6C5C1BD001B050EA410C0CBFB1
:1009500052EA430C91EA030F02BF90EA020F002013
:10096000704710F1000F91EA030F58BF994208BF7A
:1009700090422CBFD8176FEAE37040F00100704737
:100980004FEA410C7FEA6C5C02D150EA013C07D18E
:100990004FEA430C7FEA6C5CD6D152EA033CD3D0D9
:1009A0005DF8040B704700BF8446104662468C46D3
:1009B0001946634600E000BF01B5FFF7B7FF002806
:1009C00048BF10F1000F01BD4DF808EDFFF7F4FF2F
:1009D0000CBF012000205DF808FB00BF4DF808EDBA
:1009E000FFF7EAFF34BF012000205DF808FB00BFDD
:1009F0004DF808EDFFF7E0FF94BF012000205DF8FF
:100A000008FB00BF4DF808EDFFF7CEFF94BF0120B3
:100A100000205DF808FB00BF4DF808EDFFF7C4FFAC
:100A200034BF012000205DF808FB00BF4FEA4102FF
:100A3000B2F1E04324BFB3F5001CDCF1FE5C0DD93C
:100A400001F0004C4FEAC0024CEA5070B2F1004F86
:100A500040EB830008BF20F00100704711F0804F89
:100A600021D113F13872BCBF01F00040704741F44E
:100A700080114FEA5252C2F11802C2F1200C10FA52
:100A80000CF320FA02F018BF40F001004FEAC12336
:100A90004FEAD32303FA0CFC40EA0C0023FA02F3DA
:100AA0004FEA4303CCE77FEA625307D150EA0133B0
:100AB0001EBF4FF0FE4040F44000704701F0004080
:100AC00040F0FE4040F40000704700BF80F000405E
:100AD00002E000BF81F0004142001FBF5FEA410316
:100AE00092EA030F7FEA226C7FEA236C6AD04FEA16
:100AF0001262D2EB1363C1BFD2184140484041405B
:100B0000B8BF5B42192B88BF704710F0004F40F40C
:100B1000000020F07F4018BF404211F0004F41F428
:100B2000000121F07F4118BF494292EA030F3FD0F4
:100B3000A2F1010241FA03FC10EB0C00C3F1200307
:100B400001FA03F100F0004302D5494260EB400096
:100B5000B0F5000F13D3B0F1807F06D340084FEA01
:100B6000310102F10102FE2A51D2B1F1004F40EBF6
:100B7000C25008BF20F0010040EA0300704749005E
:100B800040EB000010F4000FA2F10102EDD1B0FA29
:100B900080FCACF1080CB2EB0C0200FA0CF0AABF1E
:100BA00000EBC25052421843BCBFD04018437047BC
:100BB00092F0000F81F4000106BF80F400000132C2
:100BC000013BB5E74FEA41037FEA226C18BF7FEA99
:100BD000236C21D092EA030F04D092F0000F08BFDB
:100BE0000846704790EA010F1CBF0020704712F0C2
:100BF0007F4F04D1400028BF40F00040704712F101
:100C000000723CBF00F50000704700F0004343F065
:100C1000FE4040F4000070477FEA226216BF08469B
:100C20007FEA23630146420206BF5FEA412390EA5E
:100C3000010F40F4800070474FF0000304E000BF54
:100C400010F0004348BF40425FEA000C08BF704705
:100C500043F0964301464FF000001CE050EA0102C9
:100C600008BF70474FF000030AE000BF50EA0102DE
:100C700008BF704711F0004302D5404261EB4101CB
:100C80005FEA010C02BF84460146002043F0B643F0
:100C900008BFA3F18053A3F50003BCFA8CF2083A15
:100CA000A3EBC25310DB01FA02FC634400FA02FC1E
:100CB000C2F12002BCF1004F20FA02F243EB020025
:100CC00008BF20F00100704702F1200201FA02FC87
:100CD000C2F1200250EA4C0021FA02F243EB02007A
:100CE00008BF20EADC70704773B96AB9002908BFF1
:100CF0000028BCBF00204FF00041C4BF6FF000418E
:100D00004FF0FF3000F076B882B0EC462DE900508D
:100D100000F040F8DDF804E002B00CBC704700BF02
:100D200007EE900AF5EEC07AF1EE10FA08B503D49A
:100D3000BDE8084000F00AB8F1EE677A17EE900AB5
:100D400000F004F8404261EB410108BD70B5FFF7C7
:100D50007FFB00220D4B04460D46FFF7CDFB00F054
:100D60004BF80646FFF752FB0022094BFFF7C4FB86
:100D700002460B4620462946FFF70AFA00F03CF8E7
:100D8000002242EA00042046314670BD0000F03DDA
:100D90000000F0412DE97043069E14461D46804632
:100DA000894600F049F804FB01F300FB0533A4FB7E
:100DB00000451D44B8EB040469EB0505C6E9004590
:100DC000BDE870832DE97043069E1446804689462F
:100DD0001D4600F07DF900FB05F504FB0153A0FB67
:100DE00004451D44B8EB040469EB0505C6E900455C
:100DF000BDE87083704700BF4A0011D212F500129F
:100E000011D20DD56FF47873B3EB62520ED44FEA62
:100E1000C12343F0004343EA505323FA02F07047E2
:100E20004FF00000704750EA013002D14FF0FF3020
:100E300070474FF00000704700292DE9F00FC0F215
:100E40009F800024002BC0F29680154606460F4670
:100E5000002B3ED18A4257D9B2FA82F34BB1C3F18B
:100E6000200201FA03F720FA02F29D40174300FA2C
:100E700003F6290CB7FBF1F2330C01FB127CA8B28C
:100E800043EA0C4700FB02F3BB4209D97F1902F188
:100E9000FF3C80F00181BB4240F2FE80023A2F44C9
:100EA000FF1AB7FBF1F3B6B201FB137146EA014139
:100EB00000FB03F0884208D9491903F1FF3780F09D
:100EC000ED80884240F2EA80023B43EA024200237E
:100ED00003E08B420AD900231A461046194614B182
:100EE000404261EB4101BDE8F00F7047B3FA83F86F
:100EF000B8F1000F40F084808B4202D3824200F2AE
:100F0000DE8000230122E8E712B90123B3FBF2F5EA
:100F1000B5FA85F2002A39D17F1B280C1FFA85FC0F
:100F20000123B7FBF0F1320C00FB117742EA0747CF
:100F30000CFB01F2BA4207D97F1901F1FF3802D246
:100F4000BA4200F2C1804146BF1AB7FBF0F2B6B216
:100F500000FB127046EA00400CFB02FC844507D9F6
:100F6000401902F1FF3702D2844500F2AB803A46C5
:100F700042EA0142B1E7E443524263EB430364E7D0
:100F8000404261EB41014FF0FF345BE79540C2F115
:100F9000200327FA03F1280C26FA03F39740B1FB4C
:100FA000F0F81F433B0C00FB18111FFA85FC43EAC5
:100FB00001410CFB08F38B4206FA02F608D94919E5
:100FC00008F1FF3279D28B4277D9A8F1020829447F
:100FD000C91AB1FBF0F3BFB200FB131147EA014796
:100FE0000CFB03F2BA4207D97F1903F1FF3160D23B
:100FF000BA425ED9023B2F44BF1A43EA084390E746
:10100000C8F1200203FA08FC25FA02F343EA0C0CAB
:101010004FEA1C4921FA02F301FA08F720FA02F21A
:10102000B3FBF9F1174309FB11333A0C1FFA8CFBA0
:1010300042EA03430BFB01FA9A4505FA08F008D986
:1010400013EB0C0301F1FF3235D29A4533D9023943
:101050006344CAEB0303B3FBF9F209FB1233BFB2DB
:1010600047EA03470BFB02F9B94508D917EB0C0710
:1010700002F1FF331BD2B94519D9023A674442EA5B
:101080000145A5FB0001C9EB07078F424FF00003A4
:101090000AD305D02A4620E7624601E73B4614E71B
:1010A00006FA08F68642F5D26A1E002315E71A46AC
:1010B000E5E70B46A0E71146CBE7904688E74346B5
:1010C00042460AE7023A53E702392F443CE700BFA1
:1010D0002DE9F00F144605460E46002B43D18A42F7
:1010E00053D9B2FA82F757B1C7F1200620FA06F6B3
:1010F00001FA07F302FA07F41E4300FA07F5210C80
:10110000B6FBF1F22B0C01FB1267A0B243EA0746D3
:1011100000FB02F3B34209D9361902F1FF3780F020
:10112000F680B34240F2F380023A2644F61AB6FB48
:10113000F1F3ADB201FB136145EA014100FB03F09D
:10114000884208D9091903F1FF3680F0E28088420D
:1011500040F2DF80023B43EA024200231046194678
:10116000BDE8F00F70478B424AD8B3FA83F6002EE1
:101170004DD18B4202D3824200F2D680002301225D
:1011800010461946BDE8F00F704712B90124B4FBB0
:10119000F2F4B4FA84F2002A7CD1091B260CA7B21F
:1011A0000123B1FBF6F02A0C06FB101142EA0141C3
:1011B00007FB00F28A4207D9091900F1FF3C02D26D
:1011C0008A4200F2C3806046891AB1FBF6F2ADB2E2
:1011D00006FB121145EA014507FB02F7AF4208D9A9
:1011E0002C1902F1FF3180F09680A74240F29380E3
:1011F000023A42EA004210461946BDE8F00F704735
:1012000000231A4610461946BDE8F00F7047C6F194
:10121000200522FA05F4B3401C434FEA144821FA92
:1012200005F301FA06F720FA05F5B3FBF8FC2F43A6
:1012300008FB1C333D0C1FFA84FA45EA03430AFB02
:101240000CF9994502FA06FB04D91B190CF1FF327F
:101250006DD39446C9EB0303B3FBF8F508FB1533D4
:10126000BFB247EA03470AFB05F8B84504D93F195E
:1012700005F1FF3361D31D4645EA0C4CACFB0B2353
:10128000C8EB07079F424FF0000549D345D062469F
:101290002B4663E79440C2F1200321FA03FC260C9D
:1012A00020FA03F301FA02F5BCFBF6F843EA050164
:1012B0000B0C06FB18CCA7B243EA0C4C07FB08F357
:1012C000634500FA02F509D91CEB040C08F1FF3262
:1012D0003AD2634538D9A8F10208A444C3EB0C0CF8
:1012E000BCFBF6F389B206FB13CC41EA0C4107FBC9
:1012F00003F28A4207D9091903F1FF3022D28A4248
:1013000020D9023B2144891A43EA084349E73A4677
:101310000CE733461FE70A466BE7B0409042B6D26F
:101320000CF1FF32002319E73346324616E79945A0
:101330008FD9ACF1020C23448CE7B8459BD9023D10
:10134000274499E70346DEE79046C7E70238214481
:101350003AE700BF17481849026800608A4200F067
:101360002380002100F004B8144B5B584350043133
:101370001348144B42189A42FFF4F6AF124A00F099
:1013800003B8002342F8043B104B9A42FFF4F9AF34
:101390000F48016841F4700101600CF045F80FF04E
:1013A00003FD7047FFF7FEBF0A48D0F800D0406841
:1013B00000470000FCFF0120EFBEADDEBCE80208E4
:1013C00000040020280800202808002020460020D3
:1013D00088ED00E00000FF1FFFF7FEBF80B584B07E
:1013E00000AF786030480021022228F09FFE2F488D
:1013F0000021142228F09AFE2D4B7A681A602320CF
:1014000016F09EF90023FB730023BB73FB7B002BBC
:1014100020D0264B274A5A60244B274A9A60234BF8
:10142000244ADA60214B244A1A61204B43221A7065
:1014300007F10C03002001211A4600F061F9034670
:10144000FB733B7B03F07E03DBB23B73FB7B002B28
:1014500011D005E000F032F803467B73124B1EE01A
:101460003B7B682B07D1104B01221A700F4B1D22BA
:101470001A700D4B13E0BB7B03F07E03BB73BB7B89
:10148000682B05D1084B02221A7000F041F805E0E4
:10149000BB7B702B02D1044B04221A70024B1846FE
:1014A0001037BD4680BD00BFE4270020E82700209C
:1014B00070080020011700083117000880B500AF40
:1014C00000F030FC0346002B13D00B4B05221A70A2
:1014D0000A4B43221A70094B094A5A60074B094AC2
:1014E000DA60064B084A1A61044B084A9A600123E5
:1014F00000E00023184680BDE4270020E8270020F4
:10150000251C0008751C0008BD1B00086D1B000889
:1015100080B584B000AF294B5B6807F10802062054
:10152000062198470346FB737B7B03F001039B0076
:10153000DAB2FB7A03F001035B00DBB21343DAB2E9
:101540007B7ADBB203F00103DBB21343DBB2BB7384
:10155000BB7B002B11D0BB7B012B03D1184B00228E
:101560005A7027E0BB7B022B03D1154B01225A7026
:1015700020E0032016F0F6F81CE0104B5B68FA1D23
:101580000C20012198470346FB73FB7903F00F03FE
:10159000BB73BB7B002B03D1032016F0E3F809E0FB
:1015A000BB7B042B03D1064B00225A7002E0044B94
:1015B00001225A701037BD4680BD00BFE8270020C9
:1015C000E427002080B500AF202022F08BFF0346E7
:1015D000002B13D0202022F09FFF094B1B685A1CC0
:1015E000074B1A6000F0F2F8054B1B68072B05DD6E
:1015F000034B00221A60034B01221A7080BD00BF0A
:10160000280800202C08002080B586B000AF0420F8
:10161000012121F057FA4FF48040012121F052FAC4
:1016200000233B750023BB7520233B610123FB7521
:1016300003237B7507F110031548194621F0AAFA18
:101640000220052122F07CF82023BB600123BB731C
:1016500000233B7308237B7307F10803184622F02D
:10166000D3FE17233B7103237B710323BB7101233B
:10167000FB713B1D184622F0B3F81720054915F001
:1016800065FF202022F048FF1837BD4680BD00BF0F
:1016900000080240C515000880B582B000AF164BA7
:1016A0001B78002B24D1154B1B68002B20D0134B2B
:1016B0001B681B68002B06D0104B1B681B68184664
:1016C000012121F087F90D4B1B689B88BB80022309
:1016D000FB710023BB71094B1B689A683B1D1046C8
:1016E000194601F0CBFFFFF78FFF034B01221A7061
:1016F0000837BD4680BD00BF740800207008002078
:1017000080B584B000AF0B463A600246FA71BB71F7
:10171000FA79BB79682011461A463B6801F08EF8C9
:101720000346FB73FB7B18461037BD4680BD00BFE8
:1017300080B584B000AF02460B46FA71BB71FA79EE
:10174000BB79682011461A4601F062F80346FB7324
:10175000FB7B18461037BD4680BD00BF80B584B006
:1017600000AF786072B6184B5B6807F108023B2047
:10177000062198470346FB7362B6FB7B83F00103A7
:10178000DBB2002B01D000231AE03B7A1B029AB295
:101790007B7A13439AB27B681A807B680233BA7AE9
:1017A000120291B2FA7A0A4392B21A807B68043329
:1017B0003A7B120291B27A7B0A4392B21A800123D9
:1017C00018461037BD4680BDE827002080B582B09E
:1017D00000AF444B5B68434A11783A4608460621FD
:1017E00098470346FB71FB7983F00103DBB2002BC2
:1017F00001D0002372E03C4B1A683C4B19683C4B0B
:1018000033F811301BB2D21A374B1A60394B1A68B1
:10181000364B1968384B33F811301BB2D21A354B9E
:101820001A60364B1A68314B1968354B33F8113052
:101830001BB2D21A314B1A602C4B1A683B781B0230
:1018400099B27B780B4399B2294B23F81210274B9E
:101850001A68BB781B0299B2FB780B4399B2264BEE
:1018600023F81210214B1A683B791B0299B27B793D
:101870000B4399B2224B23F812101C4B1A681C4BD5
:1018800033F812301AB2184B1B681A44164B1A6000
:10189000164B1A68184B33F812301AB2154B1B68E6
:1018A0001A44144B1A60114B1A68154B33F8123056
:1018B0001AB2124B1B681A44104B1A600B4B1B6870
:1018C0005A1C0A4B1A60094B1B68072B05DD074B96
:1018D00000221A600B4B01221A70012318460837A8
:1018E000BD4680BDE82700206408002030080020A5
:1018F0003408002068080020440800206C080020FC
:10190000540800202D08002080B584B000AF786016
:101910002B4B1B7883F00103DBB2002B2DD0294B1E
:101920005B68284A117807F10802084606219847A3
:101930000346FB73FB7B83F00103DBB2002B01D07A
:10194000002338E03B7A1B029AB27B7A13439AB2A7
:101950007B681A807B680233BA7A120291B2FA7AF3
:101960000A4392B21A807B6804333A7B120291B226
:101970007A7B0A4392B21A801CE0134B1B68002B3F
:1019800000DA0733DB109AB27B681A807B689A1CF6
:101990000E4B1B68002B00DA0733DB109BB2138061
:1019A0007B681A1D0A4B1B68002B00DA0733DB101B
:1019B0009BB21380012318461037BD4680BD00BF7F
:1019C0002D080020E8270020640800206808002077
:1019D0006C08002080B483B000AF7860094B1B789E
:1019E000DBB2002B06D07B6801221A70054B002267
:1019F0001A7002E07B6800221A700C37BD465DF851
:101A0000047B70472C08002080B500AF044B9B6816
:101A10006B2080219847642015F092FE80BD00BFA6
:101A2000E827002080B483B000AF7860094B1B78B2
:101A3000042B01D0002306E07B68074A1A607B680C
:101A4000064A5A60012318460C37BD465DF8047BF0
:101A5000704700BFE4270020B11A00085D17000896
:101A600080B483B000AF78600C4B1B78042B01D09E
:101A700000230CE07B680A4A1A607B68094A5A60B6
:101A80007B68094ADA607B68084A1A6101231846B4
:101A90000C37BD465DF8047B704700BFE42700208B
:101AA000C91A000809190008D519000890C1793D24
:101AB00080B500AFFFF7F0FD024B4FF480521A8063
:101AC00080BD00BFA406002090B583B000AF0346E0
:101AD000FB71FFF7E1FDFFF7DFFD234B9B686B20F8
:101AE00080219847322015F02BFE1F4B1B696B207D
:101AF00001219847012015F00FFE1B4B1B691B208D
:101B00001A219847012015F007FE174B1B691A2070
:101B100007219847012015F0FFFD134B1C6915F0B4
:101B2000C1FE034619201946A047012015F0F4FD17
:101B30000D4B1B691C2010219847012015F0ECFD6E
:101B4000094B1B69372012219847012015F0E4FD4D
:101B5000054B9B68382001219847012015F0DCFDDA
:101B60000C37BD4690BD00BFE827002080B582B08D
:101B700000AF02460B46FA71BB710E48102121F0EE
:101B8000BFF8012015F0C8FDFB790B48194601F09C
:101B90005DFCBB790848194601F058FC0548102146
:101BA00021F0A0F8012015F0B7FD012318460837F1
:101BB000BD4680BD000802400030014080B584B0C1
:101BC00000AF02460B46FA71BB711423FB73FA791E
:101BD000BB7910461946FFF7C9FF642015F09CFD3C
:101BE000FA7907F10E03104601211A4600F042F877
:101BF000BB7BBA799A4201D101230EE0FA79BB7915
:101C000010461946FFF7B2FF642015F085FDFB7BF7
:101C10005A1EFA73002BE3D1012318461037BD4634
:101C200080BD00BF80B582B000AF0B463A6002466F
:101C3000FA71BB710D48102121F062F8FB7963F055
:101C40007F03DBB20A48194601F000FCBB79084863
:101C50003968002201F03CFC0448102121F042F8D0
:101C6000012318460837BD4680BD00BF000802406A
:101C70000030014080B582B000AF0B463A600246AA
:101C8000FA71BB711048102121F03AF8012015F0CB
:101C900043FDFB7963F07F03DBB20C48194601F08A
:101CA000D5FBBB7909483968002201F011FC0120FD
:101CB00015F032FD0448102121F014F801231846D4
:101CC0000837BD4680BD00BF00080240003001401B
:101CD00080B582B000AF104B1B78002B19D10420C7
:101CE000012120F0EFFE0123BB711023BB800323F1
:101CF000FB713B1D0948194601F0C0FC0748102143
:101D000020F0F0FF0648802101F044FC024B012244
:101D10001A700837BD4680BD7508002000080240D3
:101D20000030014080B582B000AFFFF7D1FFFB1D4E
:101D3000752001211A46FFF775FFFB79702B02D041
:101D4000FB79712B01D1012300E0002318460837ED
:101D5000BD4680BD80B483B000AF7860094B1B786E
:101D6000052B01D0002306E07B68074A1A607B68D8
:101D7000064A5A60012318460C37BD465DF8047BBD
:101D8000704700BFE4270020B11A00085D17000863
:101D900080B483B000AF78600C4B1B78052B01D06A
:101DA00000230CE07B680A4A1A607B68094A5A6083
:101DB0007B68094ADA607B68084A1A610123184681
:101DC0000C37BD465DF8047B704700BFE427002058
:101DD000C91A000809190008D519000890C1793DF1
:101DE00080B584B000AF78600023FB720A2015F044
:101DF000A7FC07F10A037720A021012200F01EFDB5
:101E00000346FB72FB7A83F00103DBB2002B01D0A7
:101E1000002336E000F046F80023FB600EE0FB688C
:101E2000DBB25BB2184600F049F803461946174B7F
:101E3000FA6823F81210FB680133FB60FB68072B7C
:101E4000EDDD124800F05CF80346002B01D00023C2
:101E500017E07B6842F210721A807B6842F21072BF
:101E60005A807B680A4A5A607B680A4A9A607B6893
:101E7000094ADA607B68094A1A617B68084A5A6134
:101E8000012318461037BD4680BD00BF80080020E2
:101E9000212000083D200008512000086D20000886
:101EA0008120000880B500AF77201E21012200F0BC
:101EB000AFFC4FF42F6015F02FFC80BD80B584B0CF
:101EC00000AF0346FB7100233B7300237B7397F93C
:101ED00007305033DBB25B00DAB207F10C03772036
:101EE0001146022200F0AAFC3B7B1B029AB27B7BCC
:101EF00013439BB29BB218461037BD4680BD00BF4E
:101F000080B487B000AF78600023FB607B680E333D
:101F10001B88DBB203F00F03BB727B680E337A6859
:101F20000E32128822F0FF0292B21A800123FB7255
:101F300000237B613CE07B695B105B007A681344A3
:101F40001B88002B01D00023FB727B6903F0010387
:101F5000002B0AD07B695B105B007A6813441B88F6
:101F6000DBB2FA685340FB600AE07B695B105B0000
:101F70007A6813441B881B0A9BB2FA685340FB60C3
:101F800008233B610EE0FB6803F40043002B03D001
:101F9000FB6883F4C053FB60FB685B00FB603B693C
:101FA000013B3B613B69002BEDDC7B6901337B61CD
:101FB0007B690F2BBFDD7B680E337A680E32118888
:101FC000BA7A92B20A4392B21A80FB7A83F0010382
:101FD000DBB2002B08D0BA7AFB681B0B03F00F03AF
:101FE0009A4201D1002300E0FF235BB218461C3760
:101FF000BD465DF8047B704780B582B000AF3B1DE5
:1020000077200021032200F019FC3B791A047B7928
:102010001B021A43BB79134318460837BD4680BDDF
:1020200080B500AF044B1B785033DBB277201946E4
:10203000012200F0EDFB80BD0004002080B500AF60
:10204000FFF7DAFF0246014B1A6080BD78080020D6
:1020500080B500AF044B1B784033DBB277201946C4
:10206000012200F0D5FB80BD0004002080B500AF48
:10207000FFF7C2FF0246014B1A6080BD7C080020BA
:102080002DE9B00FA3B000AF78653965A84B1B6888
:1020900018464FF00001A74B5B899AB24FF000033E
:1020A0001D0245EA1265140202460B46121B63EB41
:1020B0000503C7E91A239F4B9B889AB24FF0000390
:1020C0004FEA034B4BEA124B4FEA024A994B1B89EA
:1020D0009AB24FF00003B96E03FB01F0F96E02FBF8
:1020E00001F10844B96EA1FB0223C1180B464FEA67
:1020F000D21848EA43684FEAE3191AEB08024BEB9F
:102100000903C7E91E238B4B5B889AB24FF000038B
:10211000D803F864F96C41EA5241F964D403BC6411
:10212000844BDB889AB24FF00003B96E03FB01F0D9
:10213000F96E02FB01F10844B96EA1FB0223C1183C
:102140000B46150A3D64D7F840C04CEA036CC7F84B
:1021500040C018127864D7E91223D7E91045121944
:1021600043EB0503C7E91C23724B9B899AB24FF0DE
:102170000003B96E03FB01F0F96E02FB01F10844A4
:10218000B96EA1FB0223C1180B46D50DBD63D7F86C
:1021900038C04CEA432CC7F838C0D815F863D7E9E3
:1021A0000E2312F5FA6243F10003C7E92023D7E9B1
:1021B000200140F2CF724FF00003824273EB010422
:1021C000C0F2DE80D7E92023B2F5FA6243F1FF3393
:1021D000C7E918237A6E3B6E03FB02F17A6E3B6E01
:1021E00003FB02F3CC183A6E3B6EA2FB03016318AB
:1021F000194602460B469D007D61D7F814C04CEA93
:10220000927CC7F814C094003C61D7E904231218EB
:1022100043EB0103C7E91823D7E9182359104FEA04
:102220003200D7E91E23121A63EB0103C7E91E230C
:10223000D7E9182395083D63D7F830C04CEA837C72
:10224000C7F830C098107863D7E91C23D7E90C454C
:10225000121B63EB0503C7E91C23D7E92001364AAB
:102260004FF0FF33904271EB030567DAD7E92001A5
:1022700040F2DC524FF00003121843EB0103C7E9B0
:1022800018237B6E3A6E02FB03F27B6E396E01FB04
:1022900003F3D1183A6E3B6EA2FB032319440B469D
:1022A000C7E91823C7E91823D7E918014FF000023E
:1022B0004FF00003121A63EB01034FEAC30CC7F897
:1022C0000CC0FC6844EA5274FC60D500BD60D7E9DC
:1022D0000223121843EB0103D7E91E01121843EB46
:1022E0000103C7E91E23D7E9180102460B469218DD
:1022F00043EB03034FEA830CC7F804C07C6844EA4D
:1023000092747C6095003D60D7E90045121943EB5B
:102310000503121843EB01035B104FEA3202D7E9C1
:102320001C01821A61EB0303C7E91C2306E000BF0E
:10233000780800208008002024FAFFFFFB6EBA6EA8
:1023400002FB03F2FB6EB96E01FB03F3D118BA6E08
:10235000BB6EA2FB032319440B46D50FBD62D7F811
:1023600028C04CEA430CC7F828C0D817F862D7E950
:102370002023D7E90A45121B63EB0503C7E9202395
:102380001F4B1B681A464FF00003396F03FB01F027
:10239000796F02FB01F10144386FA0FB022319445D
:1023A0000B46550D3D62D7F820C04CEAC32CC7F848
:1023B00020C058157862D7E91E23D7E90845A21A2C
:1023C00065EB0303D50BBD61D7F818C04CEA434C4D
:1023D000C7F818C0D813F861BB69FB657B6D002B8B
:1023E00002D0FA6D7B6D1A603B6D002B03D0D7F8DD
:1023F00080203B6D1A608C37BD46BDE8B00F70473A
:102400007C08002080B483B000AF0346FB71FB79E9
:10241000074A9B0013445B781A46064B33F8123088
:102420009BB218460C37BD465DF8047B704700BF71
:1024300004280020FC27002080B59EB000AF786003
:10244000002387F8763071480021102227F06EFEB5
:1024500007F11803184620F02BFC03233B770023D9
:10246000FB777B681B78002B17D00823BB6107F133
:1024700018036748194620F08DFB644B0D221A7033
:1024800097F876305A1C87F87620604A53705F4B75
:1024900001229A705D4B0722DA704FF4800001210F
:1024A00020F098FA0420012120F094FA4FF4807073
:1024B000012120F007FB574821F0FEFC07F1200323
:1024C000184621F021FE544B7B6200233B62534BA4
:1024D000BB620023FB6297F876303B6300237B638B
:1024E00097F87630012B02D94FF4806300E0002387
:1024F000BB634FF40063FB634FF400533B644FF442
:1025000080737B644FF40033BB6407F120034148C0
:10251000194621F0A3FD3F48012121F02BFE07F1D0
:102520000803184620F0E2FD0023BB604FF440335F
:10253000FB6000233B6100237B6107F10803184621
:1025400020F0ACFD07F15C03184620F089FD012363
:1025500087F861300023FB650023BB6600237B66A0
:102560000023FB6697F8763087F8703097F876305E
:10257000012B94BF00230123DBB287F8603007F101
:102580005C032748194620F017FD012387F87530B2
:10259000002387F8773023E097F877301B4A9B00B9
:1025A00013449B7883F00103DBB2002B00D012E0D0
:1025B00097F87720154B13F8221097F87520531CC5
:1025C00087F8753097F8773010489B000344DB7824
:1025D000134820F0BDFD97F87730013387F8773046
:1025E00097F87730032BD7D90D48012120F0A0FEB2
:1025F0000B48012120F080FE0948012120F08CFDCC
:10260000074820F069FE7837BD4680BD04280020C9
:1026100000080240706402404C200140FC2700206A
:102620000020014080B483B000AF78600B467B800F
:102630007B687A881A830C37BD465DF8047B704747
:1026400080B483B000AF78600B467B807B687A886B
:102650005A830C37BD465DF8047B704780B483B065
:1026600000AF78600B467B807B681B699AB27B88E1
:1026700013409BB218460C37BD465DF8047B70478B
:1026800080B500AF00F074F980BD00BF80B500AF29
:1026900000F0E8F980BD00BF80B500AF00F068F938
:1026A00080BD00BF80B500AF00F0DCF980BD00BF89
:1026B00080B500AF074B1B889BB201339AB2054B24
:1026C0001A80054B1B78184600F034FC002318468E
:1026D00080BD00BF960800209408002080B584B01B
:1026E00000AF3B600346FB710B46BB7113467B7129
:1026F00047F23053FB60FB795B00DAB23A4B1A7059
:102700003A4BBA791A703A4B01221A70394B0022AF
:102710001A70394B3A681A60384B3A681A60384B6D
:102720007A791A70374B01221A70374B00221A70CF
:10273000364B1B689B889BB203F40073002B2BD194
:10274000324B1B681B889BB203F48073002B1BD198
:1027500000BF2E4B1B681B889BB203F40073002B39
:1027600005D0FB68013BFB60FB68002BF1D1FB68E7
:10277000002B03D1FFF79CFF034631E0234B1B687E
:102780001846012121F0F6FA204B1B6818464FF439
:102790004071012221F06CFB47F23053FB6000BF17
:1027A000184B1B78DBB2002B05D0FB68013BFB60AC
:1027B000FB68002BF4D1FB68002B03D1FFF778FFF7
:1027C00003460DE0104B1B78DBB2002B0CBF00233F
:1027D0000123DBB283F00103DBB203F00103DBB2C0
:1027E00018461037BD4680BD9A0800209B0800207F
:1027F0009D0800209E080020A0080020A4080020BA
:102800009C080020990800209808002090080020CB
:1028100080B582B000AF13460246FA710A46BA711B
:102820007B71F979BA797B1D084611460122FFF7C1
:1028300055FF034618460837BD4680BD80B584B0B5
:1028400000AF3B600346FB710B46BB7113467B71C7
:1028500047F23053FB60FB795B00DAB23A4B1A70F7
:102860003A4BBA791A703A4B00221A70394B01224E
:102870001A70394B3A681A60384B3A681A60384B0C
:102880007A791A70374B01221A70374B00221A706E
:10289000364B1B689B889BB203F40073002B2BD133
:1028A000324B1B681B889BB203F48073002B1BD137
:1028B00000BF2E4B1B681B889BB203F40073002BD8
:1028C00005D0FB68013BFB60FB68002BF1D1FB6886
:1028D000002B03D1FFF7ECFE034631E0234B1B68CE
:1028E0001846012121F046FA204B1B6818464FF488
:1028F0004071012221F0BCFA47F23053FB6000BF67
:10290000184B1B78DBB2002B05D0FB68013BFB604A
:10291000FB68002BF4D1FB68002B03D1FFF7C8FE46
:1029200003460DE0104B1B78DBB2002B0CBF0023DD
:102930000123DBB283F00103DBB203F00103DBB25E
:1029400018461037BD4680BD9A0800209B0800201D
:102950009D0800209E080020A4080020A008002058
:102960009C0800209908002098080020900800206A
:1029700080B582B000AF374B1B689B8A9BB27B60EF
:102980007B6803F47063002B02D0334B01221A7072
:102990007B6803F4E063002B4BD02E4B1B681B8B32
:1029A0002C4B1B6818464FF48061002221F060FA1E
:1029B0007B6803F40073002B3BD1264B1B681B88FC
:1029C0009BB203F40073002B33D1224B1B681B888E
:1029D0009BB203F48073002B1DD000BF1D4B1B68FE
:1029E0001B889BB203F48073002BF7D1194B1B6833
:1029F0001846012121F0DEF900BF164B1B681B8829
:102A00009BB203F40073002BF7D1144B1B781846CC
:102A100000F090FA0DE00F4B1B681846012121F0E1
:102A2000C9F90C4B1B6818464FF44071002221F085
:102A30001FFA084B1B68074A1268928A92B222F466
:102A4000706292B29A82064B00221A700837BD4615
:102A500080BD00BF90080020980800209408002046
:102A60009908002090B583B000AF984B1B689B8AF3
:102A70009BB2FB71FB7903F00103002B51D0934B08
:102A80001B68924A1268128892B222F4006292B2D3
:102A90001A808E4B1B681846012121F0C9F98C4B16
:102AA00000221A708B4B1B78DBB2002B25D08A4B8F
:102AB0001B78002B04D1894B1B78DBB2FF2B1CD178
:102AC000854B01221A70864B1B78DBB2022B09D191
:102AD0007E4B1B687D4A1268128892B242F40062F3
:102AE00092B21A80794B1A687E4B1B78DBB2104683
:102AF0001946012221F07EF9E8E1744B1A68794BFE
:102B00001B78DBB210461946002221F073F9734B93
:102B10001B78DBB2FF2B00F0D9816D4BFF221A70BE
:102B2000D4E1FB7903F00203002B6FD0BFF35F8F7A
:102B30006B4B1B78DBB2012B25D1664B1B78DBB2CC
:102B4000002B20D0644B1B78002B1CD05F4B1B68E4
:102B50001846002121F06CF9BFF35F8F5B4B1B68B7
:102B60001B8B5A4B1B681846012121F023F95E4B41
:102B700001221A70554B1B6818464FF480610122E0
:102B800021F076F941E0514B1B681B8BBFF35F8F3F
:102B9000534B1B78DBB2022B17D14E4B1B78DBB2A9
:102BA000002B12D04C4B1B78002B0ED0474B1B68D0
:102BB0001846002121F03CF9444B1B6818464FF49D
:102BC0008061002221F054F91FE0454B1B78DBB2F5
:102BD000032B11D13F4B1B78DBB2002B0CD03E4BAB
:102BE0001B78002B08D0394B1B6818464FF48061C6
:102BF000002221F03DF908E0344B1B6818464FF4E1
:102C00008061012221F034F960E15FE1FB7903F09A
:102C10000403002B00F0D480334B01221A702D4B9B
:102C20001B78DBB2002B00F095802B4B1B78002B20
:102C300000F090802A4B1B78DBB2022B3BD9234B50
:102C40001B681846002121F0F3F8284B1A68204B26
:102C50001B78DBB219460131C8B21D4908705BB25E
:102C600013441A4A1268128A92B2D2B21A70174BDF
:102C70001B681846012121F09DF81B4B01221A7098
:102C80001A4B1A68124B1B78DBB219460131C8B2D5
:102C90000F4908705BB213440C4A1268128A92B250
:102CA000D2B21A70094B1B6818464FF4806101229A
:102CB00021F0DEF87AE00C4B1B78002B18D0034B88
:102CC0001B681846012121F075F817E090080020D4
:102CD000A80800209E080020A90800209B080020CA
:102CE0009C0800209A080020AA080020A4080020C0
:102CF000854B1B681846012121F03CF8834B1A686C
:102D0000834B1B78DBB219460131C8B28049087089
:102D10005BB213447C4A1268128A92B2D2B21A7021
:102D20007A4B1A687A4B1B78DBB219460131C8B26C
:102D3000774908705BB21344734A1268128A92B2E0
:102D4000D2B21A70724B1B78DBB20133DAB2704B1D
:102D50001A702BE06F4B1B78002B04D16E4B1B7845
:102D6000DBB2002B18D06D4B1B78002B06D0664BC6
:102D70001B681846012121F01DF805E0624B1B6815
:102D80001846012120F0F6FF614B1B78DBB20133BE
:102D9000DAB25F4B1A7009E05B4B1B6818460121E1
:102DA00020F0E8FF5B4B01221A70FFE700BF564B93
:102DB0001B681B889BB203F48073002BF7D185E05E
:102DC000FB7903F04003002B34D0504B1A68504B72
:102DD0001B78DBB219460131C8B24D4908705BB2AD
:102DE0001344494A1268128A92B2D2B21A704C4BFA
:102DF0001B78DBB21A46464B1B785BB203339A4210
:102E000007D1414B1B6818464FF48061002221F026
:102E10002FF8434B1B78DBB21A463D4B1B785BB255
:102E20009A4253D13A4B1B78DBB20133DAB2384BBA
:102E30001A704BE0FB795BB2002B47DA344B1B78FE
:102E40005BB2B3F1FF3F22D02F4B1A68354B1968A4
:102E50002F4B1B78DBB218460130C4B22C480470EB
:102E60005BB20B441B78DBB213822D4B1B78DBB2B9
:102E70001A46274B1B785BB29A4227D1224B1B681C
:102E800018464FF48061002220F0F2FF1EE0204B34
:102E90001B78DBB20133DAB21D4B1A701A4B1B6878
:102EA000214A1278D2B21A82204B1B78DBB2002B57
:102EB00004D11B4B1B78DBB2002B07D1124B1B68D4
:102EC00018464FF48061002220F0D2FF104B1B788F
:102ED0005AB2134B1B78DBB201339A4211D10D4B1E
:102EE00000221A700D4B1B78002B07D0064B1B6875
:102EF00018464FF44071002220F0BAFF0C4B00221C
:102F00001A700C37BD4690BD90080020A408002020
:102F1000A8080020A90800209D080020AA08002079
:102F20009C080020A00800209B0800209E0800208C
:102F30009908002080B588B000AF0346FB71FB798B
:102F4000022B01D90223FB71FA79444913469B00F5
:102F500013449B000B441A68414B1A60414BFA79A9
:102F60001A70022001211FF035FD4FF400100121DD
:102F70001FF08AFDFA79394913469B0013449B00E0
:102F80000B4410331B68184601211FF023FD00F08D
:102F90006FF83548082104221FF0C0FE324809218D
:102FA00004221FF0BBFE2E4B1B68184620F0A8FD24
:102FB00007F10C03184620F09FFE294B1B681846AA
:102FC0004FF44071002220F053FF00233B824BF668
:102FD000FF737B820023BB824FF48063FB824FF43C
:102FE00080433B83214BFB601D4B1B68184601212E
:102FF00020F0A0FE1A4B1A6807F10C031046194680
:1030000020F0B8FDFA79154913469B0013449B0044
:103010000B4408335B793B7700237B770023BB7736
:103020000123FB7707F11C03184620F0D9FBFA793E
:103030000A4913469B0013449B000B4408331B7939
:103040003B7700237B770023BB7707F11C031846EF
:1030500020F0C6FB2037BD4680BD00BFC0C50208BA
:10306000900800209408002000040240801A060006
:1030700080B584B000AF464B1B781A4645491346CD
:103080009B0013449B000B445B68BB60404B1B7868
:103090001A46404913469B0013449B000B440833D7
:1030A0001B88FB803A4B1B781A463A4913469B0013
:1030B00013449B000B4408335B88BB80FA88BB88B1
:1030C00013439BB2B8681946FFF7ACFAFA88BB887D
:1030D00013439BB23B800223FB701123BB703B4622
:1030E000B868194600F0CAFA0023FB601EE002E04F
:1030F0000A2014F011FBFB88B8681946FFF7AEFAF6
:103100000346002BF4D0FB88B8681946FFF798FAFD
:103110000A2014F001FBFB88B8681946FFF782FA11
:103120000A2014F0F9FAFB680133FB60FB68072BF7
:10313000DDDDBB88B8681946FFF782FA0A2014F073
:10314000EBFAFB88B8681946FFF77AFA0A2014F000
:10315000E3FAFB88B8681946FFF764FA0A2014F00E
:10316000DBFABB88B8681946FFF75CFAFA88BB88B7
:1031700013439BB23B800323FB701223BB703B467F
:10318000B868194600F07AFA1037BD4680BD00BF16
:1031900094080020C0C5020880B586B000AF4FF487
:1031A000805001211FF08EFC4FF4805001211FF050
:1031B000C5FC0223BB70A0233B800323FB703B466E
:1031C0002648194600F05AFA40233B800223BB7080
:1031D0003B462248194600F051FA042001211FF015
:1031E000F9FB10233B800123BB700323FB703B469C
:1031F0001B48194600F042FA1848052105221FF025
:103200008DFD1648062105221FF088FD1348072171
:1032100005221FF083FD13481FF0C6FD4FF4827393
:10322000FB800023BB8000233B814FF40073FB81B4
:1032300000237B820723BB8202237B810123BB8186
:1032400010233B823B1D074819461FF019FE054815
:1032500001211FF059FE1837BD4680BD0000024015
:10326000000802400030014080B586B000AF4FF446
:10327000004001211FF008FC4FF4004001211FF025
:103280003FFC0223BB704FF480633B800323FB7041
:103290003B463B48194600F0F1F90223BB704FF45E
:1032A00080533B800323FB703B463548194600F0B2
:1032B000E5F94FF400633B800223BB700323FB70EE
:1032C0003B462F48194600F0D9F9012001211FF093
:1032D00081FB022001211FF07DFB08233B8001239D
:1032E000BB703B462748194600F0C8F9254808211D
:1032F0001FF0F8FC4FF400433B800123BB703B46BA
:103300002148194600F0BAF91F484FF400411FF058
:10331000E9FC1B480A2106221FF000FD18480B217A
:1033200006221FF0FBFC16480C2106221FF0F6FCBB
:1033300016481FF039FD0023BB804FF48273FB80D9
:1033400000233B8102237B810123BB814FF4007367
:10335000FB8110233B8200237B820723BB823B1D22
:103360000A4819461FF08CFD084801211FF0CCFDCA
:1033700003484FF400411FF0B5FC1837BD4680BD2F
:10338000000802400004024000000240003C0040EF
:1033900080B582B000AF78607A680A4B9A4203D158
:1033A000FFF7FAFE012308E07A68074B9A4203D13F
:1033B000FFF75AFF012300E0002318460837BD46F7
:1033C00080BD00BF00300140003C004080B483B0AD
:1033D00000AF78607A68174B9A4207D1164B1B886A
:1033E0009BB201339AB2144B1A801AE07A68134BDD
:1033F0009A4207D1124B1B889BB201339AB2104BF1
:103400001A800EE07A680F4B9A420AD10E4B1B8845
:103410009BB201339AB20C4B1A800B4B1B889BB2A8
:1034200001E04FF0FF3318460C37BD465DF8047BD2
:10343000704700BF00300140AC0800200038004059
:10344000AE080020003C0040B008002080B584B0E9
:1034500000AF78600B46FB704FF47A73FB810AE093
:10346000FB895A1EFA81002B05D17868FFF7AEFF61
:103470000346DBB227E0786802211FF081FD034696
:10348000002BEDD0FB789BB2786819461FF06AFDDF
:103490004FF47A73FB810AE0FB895A1EFA81002BF4
:1034A00005D17868FFF792FF0346DBB20BE078683E
:1034B00001211FF065FD0346002BEDD078681FF059
:1034C00043FD0346DBB218461037BD4680BD00BF42
:1034D00080B586B000AFF860B9607A603B604FF4A9
:1034E0007A73FB82FB689B894AE07B68002B04D0DF
:1034F0007B685A1C7A601B7800E0FF237B750EE026
:10350000FB8A5A1EFA82002B09D1F868FFF75EFF8A
:103510000346002B0CBF00230123DBB236E0F86822
:1035200002211FF02DFD0346002BE9D07B7D9BB2CD
:10353000F86819461FF016FD0EE0FB8A5A1EFA8243
:10354000002B09D1F868FFF741FF0346002B0CBFA1
:1035500000230123DBB219E0F86801211FF010FD00
:103560000346002BE9D0F8681FF0EEFC03467B759C
:10357000BB68002B04D0BB685A1CBA607A7D1A70F5
:103580003B685A1E3A60002BAFD10123184618370A
:10359000BD4680BD80B584B000AF78600B467B80AF
:1035A000786800211FF0B0FC7B681B88FB817B885A
:1035B000102B2CD0102B06DC042B16D0082B1DD082
:1035C000022B0DD050E0402B33D0402B02DC202BBF
:1035D00026D049E0802B35D0B3F5807F3BD043E047
:1035E000FB8923F03803FB813EE0FB8923F038039D
:1035F000FB81FB8943F00803FB8135E0FB8923F065
:103600003803FB81FB8943F01003FB812CE0FB892D
:1036100023F03803FB81FB8943F01803FB8123E08F
:10362000FB8923F03803FB81FB8943F02003FB81F6
:103630001AE0FB8923F03803FB81FB8943F0280360
:10364000FB8111E0FB8923F03803FB81FB8943F008
:103650003003FB8108E0FB8923F03803FB81FB8901
:1036600043F03803FB8100BF7B68FA891A807868D1
:1036700001211FF049FC1037BD4680BD80B588B0E0
:1036800000AF786039600023FB6141E0FB690122F3
:1036900002FA03F37B613B681B881A467B6913407F
:1036A000002B32D07B69FB603B689B7803F00303FF
:1036B000DBB23B740123FB763B68DB78022B06D040
:1036C000032B07D0012B08D10123FB7605E0002353
:1036D000FB7602E00223FB7600BFFB7E7B743B6837
:1036E0009B781B09DBB203F00303DBB2BB743B68BE
:1036F0009B789B08DBB203F00303DBB2FB7407F19A
:103700000C03786819461FF045FAFB690133FB6129
:10371000FB690F2BBAD92037BD4680BD80B582B07A
:1037200000AF0A4A3B4692E8030083E80300022008
:1037300001211FF04FF93A683B4604331046194601
:10374000FFF79CFF0837BD4680BD00BF44A50208B7
:1037500080B483B000AF78600B467B807B687A884A
:103760001A830C37BD465DF8047B7047B0B588B04E
:1037700000AF204B3C461D460FCD0FC495E803001B
:1037800084E803000323FB76022001211FF022F9C5
:10379000022001211FF01EF9022001211FF01AF959
:1037A00015484021FFF7D4FF13481021FFF7D0FF41
:1037B00011482021FFF7CCFF0023FB6112E0FB69D9
:1037C000DB0007F12002134453F8202C3946FB6933
:1037D000DB000B44043310461946FFF74FFFFB692B
:1037E0000133FB61FA7EFB699A42E8D82037BD4677
:1037F000B0BD00BF4CA502080004024080B588B0EF
:1038000000AF78600023FB610023BB618648002184
:10381000642226F08BFC7B681B7D002B01D00223E9
:10382000FB617B685B78002B03D17B689B78002B66
:1038300002D0FB690133FB617C4BFA6953F82230FB
:103840003B610023FB6123E1FB695B003A691344A0
:103850001B88FB73FB695B003A6913441B881B0AD6
:103860009BB2FB75FB7B1A01714B1344BB607B68F9
:10387000DB79002B09D0BB685A686E4B9A4204D1A1
:10388000BB681B89082B00D1FFE0FB7D022B07D111
:103890007B681B7883F00103DBB2002B00D0F4E0DF
:1038A000FB7D012B07D17B685B7883F00103DBB2E2
:1038B000002B00D0E9E07B685B7B002B7B689B7B67
:1038C000002B0ED07B681B7D83F00103DBB2002B45
:1038D00007D0FB7B032B04D9FB7B072B01D80423E8
:1038E000FB75FB7D012B17D17B685B7A002B0BD11D
:1038F0007B681B7A002B07D17B68DB8A184600F0B7
:10390000EDFA0346002B03D0B8684B4900F06AFE7D
:10391000B86800F07BFEB8E0FB7D022B09D1BB69E3
:10392000DBB2B868194600F007FEBB690133BB6122
:10393000ABE0FB7D032B40F081807B681B7A002B82
:103940001BD07B689B7A002B09D0374B59787B685A
:10395000DA8A7B681B8BB86800F022FB05E0324BEB
:103960005B78B868194600F043FB2F4B9B782E4AD2
:10397000DB00134419225A713AE07B685B7A002B12
:103980000DD0294B5B78B868194600F051FB264BE7
:103990009B78254ADB00134429225A7128E07B6872
:1039A000DB8A184600F09AFA0346002B10D01E4B13
:1039B00059787B68DA8A7B681B8BB86800F0A0FABC
:1039C000194B9B78184ADB0013440D225A710FE003
:1039D000154B59787B68DA8A7B681B8BB86800F0D6
:1039E000B7FA114B9B78104ADB00134409225A7135
:1039F0000D4B9B780C4A52780B49DB000B441A7133
:103A0000094B9B78084ADB001344BA689A60064B5E
:103A10005B780133DAB2044B5A70034B9B78013365
:103A2000DAB2014B9A7030E0B40800203CC60208BC
:103A300070C602080008024000040140FB7D042B10
:103A400023D11C4B9B781B4A12781A49DB000B448C
:103A50001A71184B19787B681A8A7B685B8AB86878
:103A600000F006FB134B9B78124ADB0013440A223A
:103A70005A71104B1B780133DAB20E4B1A700D4B92
:103A80009B780133DAB20B4B9A70FB690133FB610F
:103A9000FB69062B09DCFB695B003A6913441A8851
:103AA0004FF6FF739A427FF4CFAE024B1846203791
:103AB000BD4680BDB408002080B588B000AF7860F6
:103AC00013460A46FA703B8007F10C03184620F0B3
:103AD000C3FF7023BB810123FB8100233B823B8812
:103AE0007B6102233B834FF48073BB83FB780C2BF9
:103AF00048D801A252F823F02D3B0008853B00086E
:103B0000853B0008853B0008433B0008853B0008D7
:103B1000853B0008853B0008593B0008853B0008B1
:103B2000853B0008853B00086F3B000807F10C034C
:103B30007868194620F0A2FD7868082120F0AEFFD1
:103B400020E007F10C037868194620F011FE786830
:103B5000082120F0BFFF15E007F10C037868194633
:103B600020F08EFE7868082120F0D2FF0AE007F1ED
:103B70000C037868194620F009FF7868082120F0C6
:103B8000E3FF00BF2037BD4680BD00BF80B586B0D3
:103B900000AFF860B9601346FB71BB689BB2BB8293
:103BA000FB79BB750223FB7507F11403F86819460E
:103BB000FFF764FD1837BD4680BD00BF80B586B0F5
:103BC00000AFF860F9723A81FB803F4B1B785A1CBA
:103BD000D1B23D4A11701A013C4B13447B61FB6822
:103BE00019683A89FB7A084611461A4601F0C2FD67
:103BF000FB685A68FB681B89104619460222FFF7CA
:103C0000C5FFFB681968FB689A7AFB88084611466D
:103C10001A46FFF751FFFB681B7B002B05D0FB68A2
:103C20001B681846012121F08DF8FB681B681846B7
:103C3000012120F003FDFB689B7A0C2B38D801A2F0
:103C400052F823F0793C0008B13C0008B13C000870
:103C5000B13C0008873C0008B13C0008B13C0008BA
:103C6000B13C0008953C0008B13C0008B13C00089C
:103C7000B13C0008A33C0008FB681B6803F1340258
:103C80007B691A6014E0FB681B6803F138027B69EA
:103C90001A600DE0FB681B6803F13C027B691A6047
:103CA00006E0FB681B6803F140027B691A6000BFF5
:103CB0007B693A891A81FB681A687B695A607B695B
:103CC00018461837BD4680BD280A00201809002074
:103CD00080B483B000AF02460B46FA71BB80FA791C
:103CE000134B53F822301A68BB88A3F57A73F8791E
:103CF0000F4951F82010098901FB03F30D4981FB9D
:103D000003018911DB17CB1A07EE903AB8EEE77A78
:103D1000F7EE087A67EE277AFCEEE77A17EE903A2C
:103D20009BB213600C37BD465DF8047B704700BF43
:103D3000D8090020D34D621080B483B000AF024692
:103D40000B46FA71BB80FA79054B53F822301B6899
:103D5000BA881A600C37BD465DF8047B704700BF17
:103D6000D809002080B483B000AF02460B46FA7138
:103D7000BB80FA790B4B53F822301B68BA8807EEE8
:103D8000902AB8EE677AF7EE087A67EE277AFCEEAB
:103D9000E77A17EE902A92B21A600C37BD465DF8AA
:103DA000047B7047D809002080B483B000AF02467E
:103DB0000B46FA71BB80FA790D4B53F822301B6821
:103DC000BA88A2F57A7207EE902AB8EEE77ADFEDAC
:103DD000097AC7EE277AFCEEE77A17EE902A92B2BC
:103DE0003C321A600C37BD465DF8047B704700BF5B
:103DF000D8090020CA54854080B582B000AF024681
:103E00000B46FA71BB80FA790A4B53F82230002B2B
:103E10000CD0FB790B2B09D8FA79064B53F82230DA
:103E2000DB68F979BA880846114698470837BD46D5
:103E300080BD00BFD809002080B485B000AF034624
:103E4000FB710023FB7309E0FA7B094B53F8223026
:103E50001B6800221A60FB7B0133FB73FA7BFB7942
:103E60009A42F1D31437BD465DF8047B704700BF1A
:103E7000D809002080B584B000AF0346FB71002351
:103E8000BB600023FB731FE0FA7B134B53F8223017
:103E90005A68BB689A420DD0FA7B0F4B53F8223018
:103EA0005B68BB60FA7B0C4B53F822305B681846AA
:103EB00001F0E6FEFA7B084B53F822301B68002223
:103EC0001A60FB7B0133FB73FA7BFB799A42DBD3ED
:103ED0001037BD4680BD00BFD809002080B483B034
:103EE00000AF0346FB80FB88B3F5FA7F94BF002345
:103EF0000123DBB218460C37BD465DF8047B7047E2
:103F000090B587B000AFF860F9723A81FB800D4B35
:103F10007B61FC7A3B897A69B2FBF3F39AB2FB8846
:103F2000F8680C21FFF74AFE0246074B43F82420AD
:103F3000FA7A054B53F82230044ADA601C37BD4642
:103F400090BD00BF001BB700D8090020D13C00087D
:103F500090B587B000AFF860F9723A81FB800D4BE5
:103F60007B61FC7A3B897A69B2FBF3F39AB2FB88F6
:103F7000F8680121FFF722FE0246074B43F8242090
:103F8000FA7A054B53F82230044ADA601C37BD46F2
:103F900090BD00BF40420F00D8090020393D000805
:103FA00090B587B000AFF860F9723A81FB800D4B95
:103FB0007B61FC7A3B897A69B2FBF3F39AB2FB88A6
:103FC000F8680C21FFF7FAFD0246074B43F824205E
:103FD000FA7A054B53F82230044ADA601C37BD46A2
:103FE00090BD00BF001BB700D8090020393D000874
:103FF00090B583B000AF78600B46FB70FC787868B2
:104000000C214FF6FF720023FFF7D8FD0246064B46
:1040100043F82420FA78044B53F82230034ADA603C
:104020000C37BD4690BD00BFD8090020653D000893
:1040300090B583B000AF78600B46FB70FC78786871
:104040000C214FF6FF720023FFF7B8FD0246064B26
:1040500043F82420FA78044B53F82230034ADA60FC
:104060000C37BD4690BD00BFD8090020A93D00080F
:1040700090B585B000AFF860F9723A81FB80FC7AA8
:104080003B89084A92FBF3F39AB2FB88F868012156
:10409000FFF794FD0246044B43F824201437BD4635
:1040A00090BD00BF40420F00080A002080B483B0DA
:1040B00000AF02460B46FA71BB80FA79094B53F800
:1040C0002230002B09D0FB79072B06D8FA79054B53
:1040D00053F822301B68BA881A600C37BD465DF869
:1040E000047B7047080A002080B400AF064B1A78A2
:1040F000064B1B789A420CBF00230123DBB2184603
:10410000BD465DF8047B7047240B0020250B002082
:1041100080B400AF034B1A78034B1A70BD465DF8AC
:10412000047B7047240B0020250B002080B483B053
:1041300000AF0346FB71044BFA791A700C37BD4689
:104140005DF8047B704700BF290A002080B400AFEF
:10415000114B00221A70104B00225A600E4B0022A5
:104160009A600D4B0022DA600B4B00221A640A4B56
:10417000FF2283F84420084BFF2283F84520064B9A
:10418000002283F84620044B002283F84720BD46D6
:104190005DF8047B704700BF1428002080B483B012
:1041A00000AF78600B467B80054B1A6C7B8813440C
:1041B0005A1C034B1A640C37BD465DF8047B7047EC
:1041C0001428002080B485B000AF78600B467B8057
:1041D0006D4B9A686C4B5A607A886B4B9A606A4B4D
:1041E0009A68694B1B6C1A44674B9A60674B1B7843
:1041F000012B07D9644B9A68644B1B78B2FBF3F22E
:10420000614B9A60604B9A685F4B5B68D21A5E4B59
:10421000DA605D4B9A685C4B5A605B4BDA6840F63B
:104220008C239A4273D9584B1B781A46564B93F8F5
:1042300045305BB29A421CD1534B1B78032B18D9E3
:10424000514B1B780C2B14D84F4B93F84630182B3E
:1042500008D84D4B93F846300133DAB24A4B83F815
:1042600046200AE0484B1B78DAB2474B83F84420DB
:1042700003E0454B002283F84620434B1B781A4647
:10428000414B93F844305BB29A4232D13E4B93F8A3
:104290004730002B2DD00023FB600CE03A4BFA682E
:1042A000043253F8223099B2394BFA6823F81210CD
:1042B000FB680133FB60344B93F844305AB2FB681F
:1042C0009A42EBDC304B93F844305BB2FB6007E082
:1042D0002F4BFA68002123F81210FB680133FB60B2
:1042E000FB680B2BF4DD2B4B1B780133DAB2294B27
:1042F0001A70254B012283F84720234B1B78DAB232
:10430000214B83F84520204B00221A7037E01E4BCA
:1043100093F84730002B32D01B4BDA6840F2EE2383
:104320009A4219D9184BDA6840F6C9039A4213D851
:10433000154B1B780B2B0FD8134B1B781A46124BBF
:10434000D968114B043243F822100F4B1B7801330C
:10435000DAB20D4B1A7012E00B4B002283F84720A3
:104360000023FB6008E0084BFA680432002143F8A0
:104370002210FB680133FB60FB680B2BF3DD143765
:10438000BD465DF8047B704714280020010400201E
:104390000C0B0020240B002080B483B000AF00235E
:1043A0007B600AE00A4B7A6833F81230002B01D0A8
:1043B000012306E07B6801337B607B680B2BF1DD1A
:1043C000002318460C37BD465DF8047B704700BFDC
:1043D0000C0B002080B485B000AF78600B467B806A
:1043E0007B68FB60FB68143BBB60BB689B7A013356
:1043F000DAB2BB689A72BB689B7A0A2B09D9BB6890
:104400005B781A46054B002123F81210BB68002286
:104410009A721437BD465DF8047B70470C0B002080
:1044200080B586B000AF78600B467B807B687B618F
:104430007B69103B3B613B69DB68FB603B699B78B8
:10444000002B0FD13B697A889A803B6901229A70D0
:10445000FB681A68FB689B7A10461946022200F036
:1044600041F821E03B697A88DA803B69DA883B6968
:104470009B88D31A9AB23B691A813B695B781A46CA
:104480003B6919890A4B23F812103B6900229A7084
:10449000FB681A68FB689B7A10461946002200F0F8
:1044A00021F83B6900229A721837BD4680BD00BFD3
:1044B0000C0B002080B586B000AFF860B9601346E1
:1044C000FB71BB689BB2BB82FB79BB750223FB759A
:1044D00007F11403F8681946FFF7D0F81837BD46FE
:1044E00080BD00BF80B586B000AF786013460A4635
:1044F000FA703B8007F10C03184620F097FBFB781D
:104500009BB2BB813B88FB8101233B8200237B82E2
:10451000084B1B78012B02D10323BB8201E000234F
:10452000BB8207F10C037868194620F02BFB183783
:10453000BD4680BD290A002080B584B000AF7860F8
:104540000B46FB70FA781346DB009B1A9B00224A4D
:104550001344FB60FB6800229A70FB6800229A7289
:10456000FB68FA785A70FB6801221A70FB687A6857
:10457000DA607B6859687B681B891A467B685B7BBD
:10458000084611461A46FFF795FF7B681A687B6854
:104590009B7A104619460022FFF7A4FF7868002195
:1045A000012201F041F9FB68103318460B4901F074
:1045B00069F9FB6814331846094901F071F9FB6881
:1045C00003F11002FB681433786811461A4601F0B3
:1045D000C5F91037BD4680BD2C0A002021440008D3
:1045E000D543000880B483B000AF786039607B6841
:1045F0001A683B689A4202D1034B0C221A700C379E
:10460000BD465DF8047B70470104002080B584B08E
:1046100000AF7860FFF79AFD1D4BFB60FB6800223E
:104620001A70FB687A68DA607B6859687B681B8956
:104630001A467B685B7B084611461A46FFF73AFF2D
:104640007B681A687B689B7A104619460022FFF740
:1046500049FF78680021012201F0E6F8FB68103379
:1046600018460C4901F00EF9FB68143318460A4944
:1046700001F016F9FB6803F11002FB681433786847
:1046800011461A4601F06AF91037BD4680BD00BFD9
:104690002C0A0020C54100089D41000880B483B069
:1046A00000AF0346FB71FA79044B33F81230184619
:1046B0000C37BD465DF8047B704700BF0C0B002033
:1046C00080B483B000AF0346FB71FA79044B33F832
:1046D000123018460C37BD465DF8047B704700BFAA
:1046E0000C0B002080B483B000AF78600B467B8059
:1046F0007B687A881A830C37BD465DF8047B704767
:1047000080B584B000AF78607B689B7903F00103CB
:10471000002B0CBF00230123FB73FB7B002B09D074
:104720007B689A6D054B9A4204D105484FF40041CD
:10473000FFF7D8FF1037BD4680BD00BF0014014011
:104740000004024080B586B000AF78607B689B6D46
:10475000184600211EF0C2FE7B689B68BB600023E8
:10476000BB817B689B7903F00203002B02D04FF4DE
:10477000005300E00023FB817B689B7903F0040376
:10478000002B02D04FF4806300E000233B82002323
:10479000BB8200237B827B685B7903F00103002BE3
:1047A00004D07B8A43F004039BB27B827B685B79F5
:1047B00003F00203002B04D07B8A43F008039BB272
:1047C0007B827B689A6D07F10803104619461EF03C
:1047D000CBFD7868FFF794FF7B689B7903F00803B3
:1047E000002B06D07B689B6D184601211EF0A8FEA9
:1047F00005E07B689B6D184600211EF0A1FE7B68DA
:104800009B6D184601211EF069FE1837BD4680BD1C
:1048100080B594B000AFF860B9607A60FB70002397
:10482000FB64FA688B4B9A4209D1FA7897F85830B2
:10483000786811461A4600F033FBF8641DE0FA6808
:10484000854B9A4209D1FA7897F858307868114622
:104850001A4600F033FCF8640FE0FA687F4B9A4286
:1048600009D1FA7897F85830786811461A4600F05E
:1048700037FDF86401E0FB6CE7E0FB6C012283F894
:104880004C20FB6C00221A62FB6C1A6AFB6CDA612A
:10489000FB6C00229A62FB6C9A6AFB6C5A62FB6C9E
:1048A000BA68DA62FB6CFA785A71FB6C7A689A60C3
:1048B000FB6C97F858209A71F86CFFF743FFFB7870
:1048C00003F00103002B60D0FB6C1B6B002B4DD061
:1048D00007F1100318461FF017FCFB6C5B6D7B6142
:1048E0004FF48033BB6300237B620023FB624FF4F1
:1048F0008063BB6200233B630023FB6300233B64B4
:1049000000237B640023BB64FB6CDB683B62FB6CB5
:104910009B6B3B610023FB614FF480737B63FB6CFB
:104920005B69BB61FB6C1B6B18461FF0C5FAFB6C27
:104930001A6B07F11003104619461FF08FFBFB6C32
:104940001B6B184601211FF015FCFB6C9B6D184674
:10495000402101221EF014FEFB6C1B6B18461FF059
:1049600033FC03461A46FB6C9A640EE0FB6C9B6DAD
:10497000184640F225511EF0C7FEFB6C9B6D184691
:1049800040F2255101221EF01FFEFB7803F00203C6
:10499000002B53D0FB6C5B6B002B47D007F110034F
:1049A00018461FF0B1FBFB6C1B6D7B614FF480332D
:1049B000BB6300237B620023FB624FF48063BB6216
:1049C00000233B630023FB6300233B6400237B64E1
:1049D0000023BB64FB6C1B693B62FB6CDB6B3B61C4
:1049E0004023FB6100237B63FB6C5B6B18461FF06D
:1049F00063FAFB6C5A6B07F11003104619461FF05F
:104A00002DFBFB6C5B6B1846962101221FF03CFCD2
:104A1000FB6C5B6B184600211FF0C8FBFB6C9B6DA9
:104A20001846802101221EF0ABFD07E0FB6C9B6D58
:104A3000184640F2277101221EF0C6FDFB6C9B6DEB
:104A4000184601211EF04AFDFB6C18465037BD4642
:104A500080BD00BF0010014000480040001401402C
:104A600080B584B000AF786039607B68FB60FB681C
:104A70003A689A60F868FFF765FE1037BD4680BD5A
:104A800080B584B000AF78600B46FB707B68FB603C
:104A9000FB68FA785A71F868FFF754FE1037BD4684
:104AA00080BD00BF80B582B000AF78607B685B6B73
:104AB000184600211FF05EFB7B685A6B7B68996982
:104AC0007B689B6A0B441046194600221FF08AFB44
:104AD0007B685A6A7B689B6A9A420CD97B685B6BDD
:104AE0007A68516A7A68926A8A1A5A607B685A6A46
:104AF0007B689A620AE07B685B6B7A6811697A6806
:104B0000926A8A1A5A607B6800229A627B68002245
:104B100083F84C207B685B6B184601211FF02AFB51
:104B20000837BD4680BD00BF80B485B000AF786057
:104B30007B68FB60FB681B6B002B1DD0FB681B6B4D
:104B40005B68BB60FB689A6CBB689A4207D8BB681D
:104B5000DAB2FB689B6CDBB2D31ADBB228E0FB68ED
:104B6000DB68DAB2BB68DBB21344DAB2FB689B6C79
:104B7000DBB2D31ADBB21BE0FB68DA69FB681B6AA5
:104B80009A4208D3FB68DB69DAB2FB681B6ADBB2C6
:104B9000D31ADBB20CE0FB68DB68DAB2FB68DB69D6
:104BA000DBB21344DAB2FB681B6ADBB2D31ADBB2A6
:104BB00018461437BD465DF8047B704780B485B055
:104BC00000AF78607B68BB60BB685A6ABB689B6A51
:104BD0009A4206D3BB685A6ABB689B6AD31AFB60C9
:104BE00008E0BB681A69BB685B6A1A44BB689B6AC9
:104BF000D31AFB60BB685B6B002B0DD0BB685B6B93
:104C00005B68FA681344FB60BB681B695A1EFB684B
:104C10009A4201D8002308E0BB681B69DAB2FB683E
:104C2000DBB2D31ADBB2013BDBB218461437BD4608
:104C30005DF8047B704700BF80B485B000AF78603A
:104C40007B68FB60FB685B6B002B03D0FB6893F811
:104C50004C3008E0FB689A6AFB685B6A9A4214BFB2
:104C600000230123DBB218461437BD465DF8047BF0
:104C7000704700BF80B485B000AF78607B68BB60D0
:104C8000BB681B6B002B17D0BB685A69BB68D9681F
:104C9000BB689B6CCB1A13441B78FB73BB689B6C83
:104CA0005A1EBB689A64BB689B6C002B1BD1BB6807
:104CB000DA68BB689A6416E0BB685A69BB681B6A0D
:104CC00013441B78FB73BB681B6A5A1CBB68DB6808
:104CD0009A4203D3BB6800221A6204E0BB681B6AD5
:104CE0005A1CBB681A62FB7B18461437BD465DF838
:104CF000047B704780B584B000AF78600B46FB70D2
:104D00007B68FB60FB689A69FB685B6A1344FA780E
:104D10001A70FB685B6A5A1CFB681B699A4203D3D2
:104D2000FB6800225A6204E0FB685B6A5A1CFB685D
:104D30005A62FB685B6B002B0AD0FB685B6B1B68DD
:104D400003F00103002B0BD1F868FFF7ABFE07E07F
:104D5000FB689B6D184640F2277101221EF034FC5F
:104D60001037BD4680BD00BF80B582B000AF78600F
:104D70007B681B6B002B2DD17B689B6D184640F226
:104D800025511EF069FC0346012B23D17B68DB6AA9
:104D9000002B08D07B68DB6A7A68926D928892B2A9
:104DA0001046984716E07B685A697B68DB691344B4
:104DB0007A68926D928892B2D2B21A707B68DB697F
:104DC00001337A68D268B3FBF2F102FB01F29A1A5E
:104DD0007B68DA617B685B6B002B31D17B689B6DF4
:104DE000184640F227711EF037FC0346012B27D1ED
:104DF0007B689A6A7B685B6A9A4219D07B689A6D75
:104E00007B6899697B689B6A0B441B78DBB2104610
:104E100019461EF083FB7B689B6A01337A6812692E
:104E2000B3FBF2F102FB01F29A1A7B689A6207E087
:104E30007B689B6D184640F2277100221EF0C4FB70
:104E40007B689B6D184608211EF006FC0346012B6B
:104E500006D17B689B6D18464FF458711EF054FCC8
:104E60000837BD4680BD00BF80B582B000AF786016
:104E70007B685B6B184600211FF07CF97B685A6ADF
:104E80007B689B6A9A4203D07868FFF70BFE03E0C9
:104E90007B68012283F84C200837BD4680BD00BFE7
:104EA00080B586B000AF786013460A46FA70BB70D2
:104EB000464B7B617B69464A1A607B697A689A60D7
:104EC0007B69444A5A617B69434A9A617B694FF422
:104ED0008072DA607B694FF480721A617B693F4AA5
:104EE0009A657B699B6D04331A467B691A657B69F9
:104EF0009B6D04331A467B695A657B694FF00062EB
:104F0000DA637B69364A5A63102001211DF0DAFD0D
:104F1000344801211DF05EFD0323FB744FF4007340
:104F20003B82BB7803F00803002B08D01223BB742C
:104F300007F110032C481946FEF7A0FB1CE0FB7894
:104F400003F00203002B07D00223BB7407F1100308
:104F500025481946FEF792FBFB7803F00103002B6E
:104F60000AD04FF480633B820223BB7407F1100325
:104F70001D481946FEF782FB1B48092107221DF038
:104F8000CDFE19480A2107221DF0C8FE46233B73B7
:104F900001237B730023BB730123FB7307F10C0315
:104FA00018461EF01DFC25233B7301237B73002351
:104FB000BB730123FB7307F10C0318461EF010FCB2
:104FC0007B6918461837BD4680BD00BF280B0020FE
:104FD0004CC602083C0C00203C0D00200010014093
:104FE000B8640240010040000000024080B582B079
:104FF00000AF254B7B607B685B6B184623491FF035
:105000007DF90346002B1DD07B685B6B18461F495A
:105010001FF0CCF97B685B6B18461D491FF0C6F981
:105020007B685B6B18461B491FF0F2F80346012BA7
:1050300005D17B685B6B184616491FF0B7F9786895
:10504000FFF712FF7B685B6B184613491FF0E0F80F
:105050000346012B05D17B685B6B18460E491FF098
:10506000A5F97B685B6B18460C491FF0D1F8034625
:10507000012B05D17B685B6B184608491FF096F938
:105080000837BD4680BD00BF280B002000800028E7
:1050900000400024000040A0002000220010002159
:1050A00080B582B000AF044B7B607868FFF75CFE90
:1050B0000837BD4680BD00BF280B002080B586B0F4
:1050C00000AF786013460A46FA70BB70494B7B61AB
:1050D0007B69494A1A607B697A689A607B69474AAA
:1050E0005A617B69464A9A617B694FF48072DA6043
:1050F0007B694FF480721A617B69424A9A657B69C9
:105100009B6D04331A467B691A657B699B6D04337A
:105110001A467B695A657B694FF00062DA637B69E6
:10512000394A5A634FF4001001211DF053FC4FF42B
:10513000802001211DF0A8FC022001211DF04AFC65
:105140000223FB744FF480633B82BB7803F00803B7
:10515000002B08D01223BB7407F110032B4819460B
:10516000FEF78CFA1CE0FB7803F00203002B07D05B
:105170000223BB7407F1100324481946FEF77EFA98
:10518000FB7803F00103002B0AD04FF400633B824D
:105190000223BB7407F110031C481946FEF76EFA90
:1051A0001A480B2107221DF0B9FD18480A210722D1
:1051B0001DF0B4FD0E233B7301237B730023BB73EF
:1051C0000123FB7307F10C0318461EF009FB27238C
:1051D0003B7301237B730023BB730123FB7307F134
:1051E0000C0318461EF0FCFA7B6918461837BD46BA
:1051F00080BD00BF840B00204CC602083C0E00207E
:105200003C0F00200048004058600240000402406B
:1052100080B582B000AF254B7B607B685B6B184626
:1052200023491FF06BF80346002B1DD07B685B6B96
:1052300018461F491FF0BAF87B685B6B18461D497A
:105240001FF0B4F87B685B6B18461B491EF0E0FF4B
:105250000346012B05D17B685B6B184616491FF08E
:10526000A5F87868FFF700FE7B685B6B184613496A
:105270001EF0CEFF0346012B05D17B685B6B184601
:105280000E491FF093F87B685B6B18460C491EF0C3
:10529000BFFF0346012B05D17B685B6B18460849AD
:1052A0001FF084F80837BD4680BD00BF840B002086
:1052B0000080001800400014000040900020001200
:1052C0000010001180B582B000AF044B7B6078689D
:1052D000FFF74AFD0837BD4680BD00BF840B0020A4
:1052E00080B586B000AF786013460A46FA70BB708E
:1052F000474B7B617B69474A1A607B697A689A6091
:105300007B69454A5A617B69444A9A617B694FF4DB
:105310008072DA607B694FF480721A617B69404A5F
:105320009A657B699B6D04331A467B691A657B69B4
:105330009B6D04331A467B695A657B694FF0206286
:10534000DA637B69374A5A634FF4800001211DF00C
:1053500041FB202001211DF0B5FB042001211DF09F
:1053600039FB0223FB7440233B82BB7803F0080324
:10537000002B08D01223BB7407F110032A481946EA
:10538000FEF77CF91BE0FB7803F00203002B07D04B
:105390000223BB7407F1100323481946FEF76EF988
:1053A000FB7803F00103002B09D080233B8202230A
:1053B000BB7407F110031C481946FEF75FF91A4841
:1053C000062108221DF0AAFC1748072108221DF01B
:1053D000A5FC45233B7301237B730023BB7301238F
:1053E000FB7307F10C0318461EF0FAF947233B73D1
:1053F00001237B730023BB730123FB7307F10C03B1
:1054000018461EF0EDF97B6918461837BD4680BD79
:10541000E00B00204CC602083C1000203C1100208C
:1054200000140140A06402400008024080B582B030
:1054300000AF254B7B607B685B6B184623491EF0F1
:105440005DFF0346002B1DD07B685B6B18461F4930
:105450001EF0ACFF7B685B6B18461D491EF0A6FF73
:105460007B685B6B18461B491EF0D2FE0346012B7E
:1054700005D17B685B6B184616491EF097FF78686C
:10548000FFF7F2FC7B685B6B184613491EF0C0FE09
:105490000346012B05D17B685B6B18460E491EF055
:1054A00085FF7B685B6B18460C491EF0B1FE034616
:1054B000012B05D17B685B6B184608491EF076FF0F
:1054C0000837BD4680BD00BFE00B002000802020D3
:1054D00000401020000001A000200820001004203F
:1054E00080B582B000AF044B7B607868FFF73CFC6E
:1054F0000837BD4680BD00BFE00B002080B584B0FA
:1055000000AF78607B689B88BB817B681B7BBB732B
:105510000223FB737B681B68184601211DF05AFAB1
:105520007B689A6807F10C0310461946FEF7A6F847
:105530001037BD4680BD00BF80B400AFBFF34F8FB2
:10554000054A054BDB6803F4E061044B0B43D36071
:10555000BFF34F8FFEE700BF00ED00E00400FA0547
:1055600080B500AFFCF750FA72B6FFF7E5FF80BDDB
:1055700080B500AFFCF748FA034B044A1A6072B6D4
:10558000FFF7DAFF80BD00BFFCFF0120EFBEADDEFC
:1055900080B582B000AF2D4801211DF01BFA00201C
:1055A00001211DF035FA002001211DF04FFA284895
:1055B00001211DF069FA274801211DF083FA3B46BD
:1055C00018461DF075FB0123FB714FF6FF733B601E
:1055D0003B6823F4C0533B603B6823F4C0433B600B
:1055E0003B461D4819461DF0D5FA4FF6FF733B6048
:1055F0003B461A4819461DF0CDFA4FF6FF733B6043
:105600003B46174819461DF0C5FA3B461548194652
:105610001DF0C0FA3B46144819461DF0BBFA3B4644
:10562000124819461DF0B6FA3B46114819461DF0BE
:10563000B1FA3B460F4819461DF0ACFA3B460E48FE
:1056400019461DF0A7FA0837BD4680BDFF916700D7
:10565000FFC9FE36335F070000000240000402402D
:1056600000080240000C02400010024000140240FA
:1056700000180240001C02400020024080B485B0A7
:1056800000AF78607B681B78FB60FB6883F3118850
:105690001437BD465DF8047B704700BF80B485B009
:1056A00000AF0346FB71FB79FB60FB6883F3128854
:1056B000012318461437BD465DF8047B704700BFD0
:1056C00080B483B000AF78607B689B0A124A934233
:1056D00014D0114A934206D8B3F5801F0AD00F4A5E
:1056E000934209D010E00E4A934209D00D4A9342EA
:1056F00008D009E0002308E0012306E0022304E0CB
:10570000032302E0042300E0FE2318460C37BD46C5
:105710005DF8047B704700BF03001000010010001B
:10572000410010005000100080B483B000AF034669
:10573000FB80FB889B089BB2DBB218460C37BD464A
:105740005DF8047B704700BF80B584B000AF0346AE
:10575000FB71FB793B7301237B730023BB73012334
:10576000FB7307F10C0318461EF03AF81037BD46DC
:1057700080BD00BF80B586B000AF786013460A4692
:105780007A807B7007F10C0318461EF03DFF7B8882
:10579000013B9BB23B617A681C4B9A420FD07A68FE
:1057A0001B4B9A420BD07A681A4B9A4207D07A6800
:1057B000194B9A4203D07A68184B9A420CD1184B75
:1057C0001A687B78174901FB03F3B2FBF3F39BB232
:1057D000013B9BB2BB810CE0114B1B685A087B78E4
:1057E000104901FB03F3B2FBF3F39BB2013B9BB205
:1057F000BB810023BB820023FB8107F10C03786887
:1058000019461EF097FE1837BD4680BD00000140C6
:1058100000040140004001400044014000480140B4
:105820002004002040420F0080B582B000AF7860B5
:1058300013460A467A807B707B6819687A887B7881
:10584000084611461A46FFF795FF7B681B68184605
:1058500001211EF0F3FE7B68DB7A1846FFF774FF28
:105860007B68DB7A1B2B02D02E2B04D007E019209B
:10587000FFF76AFF03E02C20FFF766FF00BF083741
:10588000BD4680BD80B483B000AF786039607B686E
:105890003A681A600C37BD465DF8047B704700BF5C
:1058A00080B483B000AF786039607B683A681A6072
:1058B0007B6800225A600C37BD465DF8047B704758
:1058C00080B588B000AF786039607B682033FB61B9
:1058D000EFF312833B613B69DBB2FB735020FFF7B0
:1058E000DDFE0346FB7622E000237B6117E07B6848
:1058F0007A69043253F82230002B0DD07B687A6924
:10590000043253F82220FB691A607B687A690432FA
:1059100053F822300433FB617B6901337B617B697F
:10592000032BE4DDFB6900221A600023FB76FB7E7B
:10593000002BD9D107F10F031846FFF79FFE7B68B4
:105940001B6A002B0CBF00230123DBB23868012146
:105950001A461FF01DFA2037BD4680BD80B586B0BF
:1059600000AFF860B9607A60FB681B681846FFF703
:10597000A7FE0346FB75FB7D042B00D94EE0FB68B8
:105980009B7A1846FFF7D0FE0346BB75BB68002B19
:105990000ED1FB681A68FB689B7A9B08DBB2022178
:1059A00001FA03F39BB21046194600221FF0F0F9EA
:1059B000FA7DB87D1B4913469B0013445B000344EA
:1059C000BA6841F82320FA7DB87D164913469B003A
:1059D00013445B00034404337A6841F82320BB6816
:1059E000002B0ED0FB681A68FB689B7A9B08DBB221
:1059F000022101FA03F39BB21046194601221FF05F
:105A0000C7F9FA7D13469B001344DB00054A1A448C
:105A1000FB681B6810461946FFF752FF1837BD4652
:105A200080BD00BF6C28002080B588B000AF7860D2
:105A300039607B681B8A9AB27B689B899BB2134052
:105A40009BB2BB6175E0BB69B3FA83F33B613B6911
:105A50004FF0004222FA03F3DB43FB60FB689AB28B
:105A60007B681A82BA69FB681340BB613B691B3BC8
:105A7000042B5ED801A252F823F000BF1B5B000884
:105A8000035B0008EB5A0008D35A0008915A00083B
:105A90003B685B6A002B08D03B685B6A9BB2013BAA
:105AA000FB833B6800225A6202E07B68DB6AFB836F
:105AB0003B681B6A7B6108E07B691B68FA8B78692D
:105AC000114698477B695B687B617B69002BF3D14A
:105AD0002FE03B681B681B683A6811687A68526B54
