:020000040800F2
:100000000004002049750108F5CA0008815E010856
:10001000C1750108C1750108C17501080000000023
:10002000000000000000000000000000F1CA00080D
:10003000EDCA000800000000E9CA00087D91000830
:10004000C1750108C1750108C1750108C1750108B4
:10005000C1750108C175010811F400080DF400080C
:1000600009F4000805F4000801F40008C17501084E
:10007000C1750108D5E50008D1110108C175010855
:10008000C17501087D120108C1750108C17501081B
:10009000C1750108C1750108C1750108FDF30008AB
:1000A000990E0108C50E0108C1750108D50E010899
:1000B000B90E0108C1750108A90E0108BD75000837
:1000C000C1750008B5750008B9750008C17501084B
:1000D000C17501081D13010871120108C51101083D
:1000E000F9F30008C1750108F9CA0008C1750108D3
:1000F000C1750108C1750108C1750108C175010804
:10010000C1750108C1750108C1750108C1750108F3
:10011000C1750108C1750108C1750108C1750108E3
:10012000C1750108C1750108C1750108C1750108D3
:10013000C1750108C1750108C1750108C1750108C3
:10014000C1750108C1750108C1750108CDC5000858
:10015000C175010839110108291301082D11010881
:10016000AD750008B1750008C1750108C1750108B9
:10017000C1750108C1750108C1750108C175010883
:10018000C1750108C17501082DE9F04F2DED0E8BE9
:100190009DB008F0D5FF42F20F73984204D81DB00D
:1001A000BDEC0E8BBDE8F08F624B1B78092B00F283
:1001B000BE80614A342101FB0323D3F828805F4DC0
:1001C0005F4F604E15AC09E008F0BAFF3B6832683B
:1001D000C3EB080318446432904206D2EB68204611
:1001E00098479DF85430002BEED008F0A9FF564BED
:1001F000DFF874B1D3ED007ADBF800109FED537A8D
:10020000534A544ECBF80000F8EE677A401A67EE76
:10021000877A51496B680880C2ED007A304698476A
:1002200000284BD14D4B1B689B0713D44C4B00222D
:100230001A805A809A804B4A9BF87C1113784A4E58
:10024000994200F09F80013313701DB0BDEC0E8BFE
:10025000BDE8F08F454B1B78002BE7D008F070FF0E
:10026000DBF8CC30DBF8D080414ADFF8F490DFF8DF
:100270000CA1CBF8CC00C31A09EE903A434609F121
:10028000060C904651461A461078002800F0F48477
:100290009BF84031002B41F0A780904699460AEB2D
:1002A00009019FED340A09F124090BF093F9B9F122
:1002B0006C0F00F0428798F80000F0E730463146B6
:1002C0009BF8042013F094FB9BF80570E7B19BF8B2
:1002D0000630002B01F093830BF10809B04600278C
:1002E000B8F9003000EE103A4846B8EEC00A0BF0FC
:1002F00049F919F055FC0137032F09F1240928F8B1
:10030000020BCBF87470EBD1DFF874A0BAF80000E0
:10031000002841F0A2800F4917488F1D0B8830F844
:10032000022B9B1A21F8023BB942F7D17AE74FF032
:10033000000844E70C110020040F0020283800209A
:10034000E84F00203C210020B0370020BD37863523
:10035000A037002004210020F4200020F8200020F5
:10036000F04F00200104002008170020205000203A
:10037000FC20002000007A44CC170020DC1700206D
:10038000305000200123137008F0DAFEB14BB24F59
:100390001B68D6F880110A93B7F906A05B89AF4AAB
:1003A000C6F880019A45A0EB01005080C0F2E081C0
:1003B000BAF5FA6F81F2A1820A9AD179C3EB0A02E7
:1003C00002FB01F2A3F5FA6392FBF3F364330893A3
:1003D000A349A44B0D9193F95E21A34B9FEDA34A32
:1003E0001B68DFEDA34A08469E49B1F89691A149E2
:1003F00096B209680F96524203F0807304910E92F0
:10040000069384464FF0000E40F2E636B7EE005AEF
:10041000914B33F91E20C9EB020303F2F310B042F3
:1004200000F2D286002BB8BF5B42BEF1020F40F053
:100430008986049890F81A0118B19842B4BF1B1A23
:1004400000230698002802F02D800A98007A07EE13
:10045000903A06EE100AB8EEE77AB8EE466AC7EEB2
:10046000047A7F4886EE246A67EEA75A75EE466ADC
:1004700067EEA55A67EEA67AE6EE257A27EE277A8A
:10048000DDED0E7AF8EEE77A67EE277AFDEEE77A91
:1004900017EE903A838078494FF064034A458B7099
:1004A000C0F283866F4BB3F898319A45C1F205814B
:1004B000BAF5FA6FD4BFC3EB0A01C3F5FA614FF482
:1004C0007A7202FB01F16D4E6D48C3F5FA63B1FB20
:1004D000F3F186FB0132CB17C3EB6212531C6FF0B2
:1004E000630E30F9133030F812000EFB021201B225
:1004F0005B1A03FB02F386FB0326624ADB171288B2
:10050000C3EB6613564E03445706F38001F1B281E4
:10051000544B93F89C31002B41F04481514B93F89C
:100520009D3123B1574A1288500641F1D984564B68
:100530000F931B78590701F12D81544A10921268CC
:10054000D20703D40F9A43F001031370504A127874
:10055000170703D40F9A03F0FE0313704D4A128855
:100560001AB14D4A1268960704D44C4A1288002AE0
:1005700001F002824A4A0F9823F00103022103701E
:10058000117008F0DDFD474B1B68C01A002801DB25
:1005900013F066FBAB680BB143489847434B1B789D
:1005A000B3B12D4B2F49B3F906202E4BB3F8983138
:1005B0009A420DDC4B79012B01F03085192B01F0AB
:1005C0002D850E2B04D0082B02D0254A00239380C2
:1005D000284B284A1B6893F8206126B129490988CD
:1005E000880741F003832C4A1268910609D5254AF1
:1005F000128802F0300222B1254A1278D20701F1A6
:1006000038852B4A1278002A41F0B880114A294EC9
:100610001168144A2848B2F86C21366800901846D0
:100620006033B047254A264B1778DB781193032FA8
:1006300006D9DBF8D4315B88B3F5FA7FC1F0F082DC
:10064000109B1B6813F0006F074B196800F0938034
:1006500038E000BF40210020C84D0020D8210020F4
:100660008C3700205C450020843E00200000FA43C7
:100670000000C8420C210020943700201F85EB5158
:1006800048230020204E00204B500020244E002004
:1006900066210020D41F0020F820002030500020C8
:1006A000B43E0020B83E002050220020FC0E002066
:1006B0000504002010110020E44600203C380020F2
:1006C000903E0020002F01F0EB85DBF8D431B84AD2
:1006D00093F90030B2F90400B2F90260B2F90020D7
:1006E0005B4203FB00F305EE106A05EE902A07EE6D
:1006F000903AB04A4FF0000C01F4805902EB071A0F
:10070000BE46B8EEE76AB8EEC55AF8EEE55A664658
:1007100020464F460AE0C145C8BF9C4641F3968635
:100720001032524500F1020000F05285D2ED017AFC
:10073000D2ED026A92ED037A65EEA77AE6EE857A4B
:10074000E7EE067AFDEEE77ACDED047ABDF81030DB
:1007500019B21FB101EBD173C3F34F0331B20FFADA
:1007600083F8414503800FFA8CF9D4DA1E46D7E7A7
:10077000642308932CE611F01D03A3D18E4A137055
:10078000002F3DD08A4ADBF8D431B2F9020093F948
:100790000010B2F90430B2F9002004EE902A874A22
:1007A0004942B2F9062003FB01F305EE102A04EEDC
:1007B000100A07EE903A7F4A8149F8EEE75AB8EE00
:1007C000C44AF8EEE44AB8EEC55A02EB0717D2ED78
:1007D000027A92ED006AD2ED016A92ED037A64EE3C
:1007E000277A1032E6EE057ABA42E6EEA47AE5EE12
:1007F000877AFDEEE77A17EE903A21F8023BE6D1D0
:100800000F9B93F800C00CF0040C5FFA8CFCBCF159
:10081000000F40F0C9866B4B187848B16A4B684AA4
:1008200003EB400033F8021B22F8021B8342F9D18C
:100830009BF8A4320893013B0693DBB2182B634864
:1008400007D80121624A01FA03F31A40002A41F055
:10085000FC81604F604BD7F800A004935F4B1B688E
:10086000980600F15986049B1B885B4E0496002174
:10087000B64601E0BEF800300AEB01001AB2B0F94A
:100880000030B0F902009A4201F10E0103DB03B21D
:100890009342A8BF134670292EF8023BEAD1DBF839
:1008A000D48198F9083013B3DFF840A14FF0000964
:1008B0005046B8F90620B6F900100EF0ABFD3B68C3
:1008C00080B24B443080B3F90020B3F9023000B25B
:1008D000904209F10E090AF1880A03DB1AB282423A
:1008E000A8BF0246B9F1700F26F8022BE0D1069B93
:1008F000182B00F2B380DFE803F088B1B10DB1B17D
:10090000B150B1B1B1B1B144B1B1B1B1B10D7BB17F
:10091000B1448800049E0020318910F045FF7189A0
:10092000012010F041FF02262C4B1B689A0600F1B3
:100930008680DF0200F1C4869BF81037002B40F060
:10094000F886274B1B78002B7FF429AC234A1268CA
:1009500016037FF524AC234E3278D11E052941F2CF
:10096000CC84023A092A3FF61AACDFE812F04C01B7
:10097000C0009F00870032011E010401EA007900D7
:100980005901194F0020461CF6B237F8021F10F02B
:100990000BFF062E3046F6D149E0049E0020F18878
:1009A00010F002FF3189012010F0FEFE0226BBE7A5
:1009B000D8370020E0180020485000208C37002055
:1009C000102100203C3800204C2700200817002070
:1009D00099209801A0270020E4200020843E0020D8
:1009E00038500020461E0020E6200020D8190020A4
:1009F000964F0326F01EC0B2013637F8021F10F0E2
:100A0000D3FE072EF6D104268EE798F80430002B8B
:100A100041F010830F9B1B7803F0040303F0FF00E9
:100A2000002B41F00783014610F0BEFE0126884BE3
:100A30001B689A0603D4089A052A7FF47AAF049FAC
:100A40003046398810F0B0FE701C7988C0B210F0C2
:100A5000ABFE7F4B0236F6B21B686AE70026E6E77C
:100A60009BF8383723B1109B1B68990141F15085E1
:100A70000CF042FA0CF03AFDFFF791BB754A0220E8
:100A800000218DE8030002F10803029148200CF0D8
:100A900059FD00287FF483AB4FF0FF320623CBF8DB
:100AA0002007CBF824273370FFF779BB6A4B0193FB
:100AB00003F10C02242102920091A3F10A024920C1
:100AC000023350210CF03EFD00287FF468AB604BF0
:100AD0001B6813F0800301F01F854FF0FF320523E0
:100AE000CBF82007CBF824273370FFF758BB5B4ABD
:100AF000DBF8243712685A4C64339342BFF44FAB8F
:100B0000402013F0C9FF00287FF449ABD4F8203708
:100B1000544F40240EE014F00DF9DBF81827DBF8F1
:100B20002037013A0133013CCBF81827CBF82037A6
:100B300001F00685FB5C4B4D1846002BEBD101F014
:100B400003BD109B1B68980194D5BBF83037444D0A
:100B5000002B8FD1444AD5F83437126816922146BB
:100B60000E2015930CF064F94FF480520A23A5F877
:100B70002E2733707CE7402013F08EFF00287FF48F
:100B80000EABDBF820370C2B01F28585DFE813F084
:100B90007F0D7A0D740D6B0D5E0D2D0D260D1A0D4A
:100BA000140D0B0D000DFA0CE70C304A0520002146
:100BB0008DE8030002F10803029153200CF0C2FCFF
:100BC00000287FF4ECAA0823CBF820073370FFF746
:100BD000E6BA274B019303F10C020724029200941A
:100BE000A3F108024720043300210CF0ABFC0028DD
:100BF0007FF4D5AA4FF0FF33CBF820073470CBF841
:100C00002437FFF7CCBA154A1268CBF82427002303
:100C10000322CBF81837CBF820373270FFF7BFBA72
:100C20000E4ADBF824371268C833934204D313F01A
:100C300051FF00283FF4B3AA0E4B93F80248002C52
:100C400001F0578401233370FFF7A9BAE820002090
:100C5000843E002060C50108BAC30108E0340020CA
:100C60000817002050C30108E84F0020C4C5010840
:100C700078C501085C450020B9F80030A8F80030BC
:100C800009F10209E14501F1240108F102087FF4AC
:100C9000FBAA9046E64BE7481B680188428880889B
:100CA00004901F0740F1F884002900F0F584002A21
:100CB00000F0F284002800F0EF849FEDDF8ADFF877
:100CC000BC93DFF8B4A300230120B6F902709BEDBA
:100CD000517ADFEDDA6A08EE907AB6F90070B6F96B
:100CE00004600AEE107AF8EEE88AB8EECAAA67EE57
:100CF000288A0AEE906A2AEE07AA28EEA80AF8EED9
:100D0000EA7AAAEE0A0ACE4E67EE27AAB6F9006082
:100D1000AAEEAA0A0BEE106AF1EEC0CAC84EB6F9E6
:100D200002600CEE106AC64EB6F90460B8EE699A1D
:100D30000BEE906AF4EE6CCAF1EE10FA29EE269AE8
:100D4000B8EECBBAB8EECCCAF8EEEBBA41F09C8361
:100D5000002B00F0CE85DFEDBB7AB4EEE78AF1EE32
:100D600010FA08DD9FEDB87A38EE478AB4EEE78ACC
:100D7000F1EE10FAF8DCDFEDB57AB4EEE78AF1EEC9
:100D800010FA08D59FEDB07A38EE078AB4EEE78AFC
:100D9000F1EE10FAF8D4B6EE000A28EE000A0A9234
:100DA000089106900AF034FFDFEDA3DA069808995F
:100DB0000A9A70EE2DDAE8B109B207EE901A12B273
:100DC00007EE102AB8EEE7DAB8EEC78A6DEE0D7AB4
:100DD000BDF910309FED9E7A0EEE103AE8EE087ADB
:100DE000B8EECEEAEEEE0E7AF4EEC77AF1EE10FA35
:100DF00001F3C1819FED908A964EB0EE48DA6CEE19
:100E00000C7A9FED937AEBEE0B7AEBEEAB7AF4EE85
:100E1000C77AF1EE10FA00F3A986D8ED017A9FEDBA
:100E2000866AF4EEC67AF1EE10FA40F3D1869FEDB1
:100E30008A7AF4EEC7CAF1EE10FA00F1C6859BED8E
:100E4000527A9BED535ADBED546A844B0F931A7818
:100E5000D8ED027A520740F1AA85F7EE005A67EE04
:100E6000A55AB6EE006AEDEEA56A7D497D4B91ED7F
:100E7000004AD3ED003A7C487C4A90ED003AD2ED2E
:100E8000004AA8EE255AADEE257A29EE066A7AEEDA
:100E9000A66A78EE858A66EE866A3AEE077A68EE8A
:100EA000867A27EE067A26EE845A64EE675AA7EE13
:100EB000235AE3EE475AA7EEE45A23EE666AE6EEBB
:100EC000E45AA7EEA36A33EE055A67EE837A73EE0F
:100ED000A55A25EE050AA7EE246AE6EEA37AA5EE4A
:100EE000A50A74EE066AE7EE447AB0EE407AA6EE02
:100EF000A67A74EEA77A80ED005AA7EEA77AC3ED22
:100F0000005AB1EEC70AC1ED006AB4EE400AF1EE34
:100F100010FAC2ED007A41F0A382F7EE007AC7EE34
:100F2000807A93ED006AD2ED005A91ED007AD0ED0F
:100F3000006A9FED4F8A27EE866A67EEA66A27EE63
:100F4000877A67EEA57A83ED006AC2ED007AC0ED7C
:100F5000006A81ED007A0EF0A1FCD6ED080A96ED4C
:100F6000070A18F0FFFE20EE080A18F019FE96EDA9
:100F7000060AAAF80000B1EE400A18F095FEDFED6F
:100F80003D7A37EEC00A20EE080A18F009FED6EDC9
:100F9000000A96ED030AAAF8020018F0E3FEDBED62
:100FA000557AE0EE487AB0EE670A18F0F9FD82B2A1
:100FB000130400F10786304B9A80214B96ED086AA6
:100FC000DBED567AB3F9023096ED048A96ED033ADA
:100FD00096ED010AD6ED073A99F8002096ED054AFC
:100FE000D6ED004A96ED065AD6ED025AB4EEE76AFF
:100FF00007EE903A124BB3F90030F8EEE77A06EEBE
:10100000903A0F4BF8EEE66A27EE888AB3F904307F
:10101000A6EE838A07EE103A27EE800AB8EEC77A6A
:1010200067EEA37AF1EE10FAC8BF42F0080227E09B
:10103000F8200020E421002000000000BD378635A4
:10104000FC200020DB0F4940DB0FC940DB0F49C00B
:101050000AD7233C9C390020C2B8B23E4B50002036
:1010600094390020A00400209039002098390020F5
:101070004C3D0F44DB0FC93F282100206621002092
:10108000D8BF22F00802A7EE048A89F8002098F859
:101090000120A6EEA40A012AE6EE857AB1EE488A7E
:1010A000A7EE250AE6EE077A00F03A85C34B1B88C7
:1010B00007EE103AB8EEC77A77EEC77A9BED597A09
:1010C000DBED588A39EE077A77EEE87A89EE079AEF
:1010D000E9EE278ACBED588A18F062FDDBF86861EB
:1010E00031780AF071FDDBF86C31B0EE480A184433
:1010F000CBF86C0118F054FD31780AF065FDDBF88F
:101100007031B0EE680A1844CBF8700118F048FD51
:101110007178AB4E0AF058FDDBF874113268DBF8D9
:101120007831084419EE901A01331144CBF8740158
:101130003160CBF87831FFF77EB8A24A012382F8FC
:101140004031A7E5049890F8190118B19842B4BF4E
:101150001B1A00230698002800F05C810A9840784A
:1011600007EE903A06EE100AB8EEE77AB8EE466A55
:10117000C7EE047A86EE246A67EEA75A75EE466AD1
:1011800067EEA55A67EEA67AE6EE257A27EE277A6D
:10119000FDEEC77A17EE903AACF800308A499DF818
:1011A000203001F80E304A4504DABCF800305B42CA
:1011B000ACF800300EF1010EBEF1030F0CF1020C81
:1011C0007FF426A9FFF76EB94FF4FA73FFF72DB934
:1011D000CCEB0602B94692B277467C4BB3F806C018
:1011E000B9F1000F00F04482794B1B689E88D988C2
:1011F0000FFA8CF0C1EB060E704500F3CB83754EF1
:10120000198833680120B3F800808BF89802ABF896
:101210009A12ABF89C82ABF89EC28BB21FFA88F888
:10122000C8EB030080B212B20FFA80F9914580F248
:101230002582694B012119705FB1214604EB470EED
:101240000B8813FB00F393FBF2F321F8023B71458B
:10125000F6D109EBD97908EB69091FFA89F213462F
:10126000002F3FF4CDAA0F99DFF864E108785B49BD
:101270003668D1F80080DEF800100E910FFA8CFC71
:1012800007EE90CA12B25149DFF858E1B1F90610E1
:101290000891B8EEE75A07EE902A1BB2DBF8A012CD
:1012A0000A9100F00400B8EEE76A07EE903A5FFAA0
:1012B00080FC9BF898120D91CDF830C04849DDF8BC
:1012C00044C00697F8EEE75A08F01000002208F430
:1012D00080580EEB0213D3ED006A34F9123065EE3C
:1012E000267A07EE103AF4EEC67AF1EE10FAB8EE6E
:1012F000C77A43D4F4EE657AF1EE10FAC8BFF0EE87
:10130000657A77EE277AFDEEE77ACDED047ABDF8BF
:10131000103021F8023B40B10A9FB7F81090089FA7
:101320004F45BCBFB38821F8023CBCF1000F17D079
:10133000B6F80490B6F802A01BB24B4503DB534548
:10134000A8BF5346994621F8029C08B10C9B4BBBA1
:10135000069B01329A42BCD1DDF830C0FFF757BA84
:10136000B8F1000F16D00D9F5FB1B6F800900E9F38
:101370001BB24B45B7F800A0E1DAE4E7F0EE467A9D
:10138000BFE70E9FB6F802A0B7F802901BB24B451C
:10139000D5DAD8E7B6F80090B6F802A01BB24B45F4
:1013A000CDDAD0E7B8F1000FD2D10A9B089F1B8A93
:1013B0009F42BCBFB38821F8023CC9E70604002065
:1013C0002C5000200817002094370020C84D002022
:1013D000103900201439002048500020843E00209D
:1013E00010210020E0180020B9F90030089200EE2A
:1013F000103A0846B8EEC00ACDF818C004910AF0B9
:10140000C1F818F0CDFB0499A8F80000DDF818C069
:10141000089A35E4C948CA4F80FB0308D817C0EBC7
:10142000681808F1010037F818703946C44F37F9C9
:1014300010000C906FF0630000FB08330C980FB2A3
:10144000C01B00FB03F3BD4880FB0380DB17C3EB2D
:1014500060130B44ACF80030A0E6DBF87830DFF81E
:1014600014831B789FEDB78A049300274FEA8709FE
:10147000B0F57A7F09EB070300F0388136F91710D1
:10148000D8F8102006EE901AAF4916EE90CA51F81F
:10149000271001320BEB83030BEB090E6144012A89
:1014A000C3F88C20CEF8B810F8EEE66A00F0308170
:1014B00093ED1F7A93ED216A07EE902A76EEC75AD4
:1014C000F8EEE77AC5EEA77A77EE277AB0EE467A9D
:1014D00076EEE76AC3ED207AA5EEA67AC3ED1F7A11
:1014E00083ED227A83ED217A7A000BEB020100234F
:1014F0000128A1F8C43026F8173000F00582013722
:10150000032F08F11408B1D1012800F0A785013894
:10151000AAF80000FEF7FFBE9AF80930FF2B00F092
:1015200005818A4A12789A4240F20081884A32F84C
:1015300013309AF817200499FF2A0B8000F0F380EB
:1015400082490978914240F2EE80814931F8128057
:10155000109A04991268A1F8028011067D487FF55F
:1015600084A9DBF8C8221278012A00F051867A4952
:101570009AF906C04A889AF914E0704E09881CFB53
:1015800002F21EFB01F186FB02CED217C2EB2E1235
:1015900086FB01E6C9171344C1EB26119BB24144F7
:1015A00003804180FFF761B9109B1A6813013FF572
:1015B0003FA96A4BD3F800E01EF01D097FF438A95B
:1015C0001EF480530493664B93F800801DD1654848
:1015D000B8F1010F03880DD908F10046013E00EB78
:1015E000460630F9021F1BB28B42B8BF0B46B04211
:1015F0009BB2F6D15C490968498818B28842C6BFD7
:101600005B1A1FFA83F94FF00009B8F1000F3FF49D
:101610000FA95648544907684D48524B0968B0F91C
:1016200006C0DBF8A0A2119E02F0205206920EF036
:101630001002089203EB480E049A002A40F0C38679
:101640001A88C9EB020292B21A80002E00F027829B
:101650008888B1F8028012B2824203DB4245A8BFFB
:1016600042461046188002337345E5D1FFF7E0B8D3
:101670003D4E3368B3F800805988CEE502EBD27254
:1016800050103B4908EB00021B1A4FF0000E92B2BB
:101690009BB281F800E0E3E5DFF8DC9099F800E028
:1016A0000EF01000002840F0C881002318469FED7E
:1016B000258ADFF8A4A0FFF708BB0021FEF703BFCF
:1016C000234B3046198903F1080810F06DF80136F4
:1016D000F6B208F11A0738F8021F304610F064F825
:1016E0000136B845F6B2F6D1FFF726B936F917201C
:1016F0000BEB83030021C8F8101007EE902A01219C
:10170000C3F88C100BEB0903F8EEE76AC3F8B820B6
:1017100009EB07030BEB8303C3ED206AC3ED1F6ADC
:1017200083ED218AE0E6BAF8128011E7BAF80430B6
:10173000FFE60DF0D7FFFFF704B900BF1F85EB519F
:101740006023002000000000C0170020804D002012
:10175000C84D0020E420002028210020843E0020E5
:101760003C380020102100201439002010390020BE
:10177000485000208417002066210020D348D44A16
:10178000002100260660466086601160516091600D
:10179000FEF73CBF0020012110F012F8CD4B109352
:1017A000FEF7F8BE9BF89631CB4EBBF89481002B28
:1017B00000F04884C94BC84E1B8800EE103A06F56D
:1017C000CC70B8EE400A09F0DDFEBCEEC00AC44B96
:1017D0008DED040ABDF810001B78B8FBF0F000F1A5
:1017E000010E1FFA8EFEABF8BCE1002B00F0118257
:1017F000DFF82893B6F8BEA106F5E0780FFA8EFE62
:1018000006F5E4764FF0000C39F8022B3188B8F871
:10181000003026F8022B0CF1010C521A13FB0AF3CC
:10182000BCF1040F93FBFEF3134428F8023BEBD109
:10183000AB4A80B20023ABF8BE01137003B2002B99
:1018400040F31284A749BBF9BCC10D9AA1F1080667
:1018500001F1080E31F8028B36F8023B714513FB9B
:1018600000F393FBFCF3C3EB080322F8023BF1D136
:10187000FEF754BE9C4B9D49B3F90430BBF892214E
:101880009FED9B7A81FB0301DB17C3EBA1039B1A3E
:101890001BB208EE103AF8EEC87A27EE878AB0EE4F
:1018A000480A0AF0A1F9F0EE408AB0EE480A0AF0C0
:1018B000AFF9B6F9023007EE103AB6F90030B8EEDB
:1018C000C77A06EE903A67EE407AF8EEE66A20EEC6
:1018D000260AE8EEA67AA8EE870AFDEEE77A17EE6A
:1018E000902AFDEEC07A328017EE903A7380FEF7B0
:1018F0000FBEDFED80DAFFF75EBA0A9BDB79C3F13A
:1019000064030893FEF764BD734909EB070301EB19
:101910008303D3F88C10012940F3EB84013907EEDF
:10192000901A93ED227AF8EEE77AC7EE277AB1EEB5
:10193000E70AB4EE400AF1EE10FA40F0D285049BBB
:101940004BB107EE903AF8EEE77AF4EEC07AF1EE9A
:1019500010FA00F17F85D9446749D9F8B830BAF850
:10196000000003F5FA7381FB03E15A44DB17C3EB74
:10197000A113A2F8C430C2E560490988B1F57A7FA5
:101980003EF6F8AD13F0010F5D4B08BF02221A704E
:10199000FEF7F7BD31445B4EB3F8028033688842EE
:1019A000C0F24483002059888BF898022FE4564AED
:1019B000116844F61F629142B7EE006AF2EE045AD3
:1019C00088BFF0EE465AFFF74ABA67EE8D5A9BED94
:1019D000527A9BED535ADBED546A27EE886A67EE24
:1019E000AD7AA9EE257AA9EE065AE9EE276A8BEDC3
:1019F000527A8BED535ACBED546AFFF726BA434B1C
:101A00001B68002B3EF480AC4FF0010843460BF1FD
:101A10000809B8461F46494640469FED360A09F078
:101A2000D9FDCBF874700137042F09F124092A4B32
:101A3000F1D101229A71FEF767BC13F020033FF445
:101A400035AE0EF0020000F0FF0300283FF42EAE8A
:101A50002F4B1B78042B7FF628AE2E4B1B88B3F53B
:101A6000967FC0F0E6842C4BDFF87CA01B889FEDAE
:101A7000208A07EE103AB8EEC77AF2EE046A87EED3
:101A8000267ABAF90430002007EE903AF8EEE77AA9
:101A9000012377EEC77A27EE888AFFF716B9088800
:101AA000B1F8028012B2824203DB4245A8BF42462F
:101AB00010461880BAF810209445BFF6D4AD089AA5
:101AC000002A3FF4D0AD8A881A80CCE5B4370020D4
:101AD0001C380020244E002008170020F42000208D
:101AE00098200020D0180020282100206766666614
:101AF00035FA8E3C00000000D34D6210324E0020BB
:101B0000B43E002014390020E03400203C210020A5
:101B10006721002072210020742100208C370020D2
:101B20000F9B1B7813F0040FDBF85C3112D1002BF4
:101B30001A46B8BF03F13F02A3EBA21307EE103A17
:101B4000B8EEC77A37EE277ABDEEC77A17EE103AAD
:101B50008BED577A002BB8BF3F339B1107EE103A3D
:101B6000B8EEC77A77EEC77AFFF7A8BAB1EEE70A00
:101B7000B4EE400AF1EE10FA40F08084F7EE007AFD
:101B8000C7EE807A96ED076A96ED085AD6ED065AAA
:101B90002BEE27BA6BEEA7BA2CEE27CA25EE4B7AAE
:101BA00066EE6B6A65EECC7AECEE056AABEEA57A72
:101BB000EBEE067A3DEE26DA38EE078A7DEEA7DAFE
:101BC000FFF72BB9B54B00F561609880FFF7F5B9C9
:101BD000F0EE466AB0EE465AB0EE467A8BED526AA7
:101BE0008BED536A8BED546AFFF72FB9AC49DFEDEB
:101BF000AD7A91ED080AB4EEE70AF1EE10FA00F2C0
:101C000054830020A84AA849D2880244CA80FEF71B
:101C1000EABCB6F8BE01013880B2A6F8BE010DE6F6
:101C2000A14AA248B2F90410B0F904600029B8BF73
:101C300049425A42521A964204DB0B44B342A8BFAF
:101C400033461A468280FEF7FBBC994B1B88DF05A2
:101C500040F16B83944AD0F8A03251881088928862
:101C6000ADF85400ADF85610ADF85820D989914B15
:101C7000B3F80680894A9048B2F90230B2F90020E0
:101C80008E4E4FF47A7703F5E16307FB03F3C1EB64
:101C90000808ADF8628080FB0398984402F5E16281
:101CA000DB1707FB02F2B6F800C0824EC3EBE82355
:101CB00080FB0290A3F5FA731044B6F800E0ADF88B
:101CC0006C30D2177B4B7788B3F80880B688C2EBAC
:101CD000E022C1EB0E0E9889ADF85CE0A2F5FA7235
:101CE0007F1AB3F80EE0ADF86E205A89ADF85E7039
:101CF000471A7348ADF86870C1EB0803521A761A98
:101D0000ACF2DC5CC1EB0E01ADF86430ADF86620DE
:101D1000ADF85AC0ADF86060ADF86A100346002215
:101D200023F8022F67498B42FAD1674B674F1B7824
:101D30000C93002B00F08583109BD7F800A01B6844
:101D40000E93A1F10E02624B04920022CDF834A052
:101D5000DFF884C1129098469246139714E001224E
:101D6000153302FA03F30E9A134011D1A8F800308C
:101D70000AF1010A0C9A5FFA8AF39A420CF1070CF5
:101D800008F1020840F21A819CF80030002BE6D1DD
:101D90001CF8012C1CF8060C0A920D9A1CF9023C46
:101DA0001CF803EC1CF8057CC0EBC00102EB410100
:101DB000B1F90220B1F90060921B92B2454E02FBCC
:101DC00003F386FB0396DB17C3EB661356089B1BD6
:101DD0009BB208960693BEF1000F37D11CAB03EB04
:101DE000470636F81C6CA8F8006001231CF904ECC7
:101DF000D1F80A1003FA07F9364F1EFB06F687FBE7
:101E00000637F617BDF9183019EA010FC6EB671649
:101E100014BF4FF0FF3101219E420FDB9DF92830A6
:101E200003FB02F22B4B83FB0273D217C2EB63124C
:101E3000089BD31A1BB2B342A8BF3346049E36F8A0
:101E4000102003FB012326F8103091E71CAB03EBB5
:101E50004709B8F8006039F91C9C33B24B4511931F
:101E60000FDBC2DD119ECEEB060ECE45334603DB03
:101E70007645A8BF734699461FFA89F6A8F8006010
:101E8000B3E79E4473451E4603DCF1454E46A8BFAA
:101E90007646B6B2A8F80060A7E700BF2821002068
:101EA0009C3900208FC2753C8C370020D837002029
:101EB000204E0020C84D0020C5B3A2911021002063
:101EC000E2200020F220002018390020A027002066
:101ED000B01900201F85EB512239002035FA8E3CC5
:101EE00007EE903A1FED037ADC4EDD4FF8EEE77A0D
:101EF00067EE877A17EE900A14F078FC41EC100B2D
:101F000041EC180B17F068FDD54BB3F900008DEDCF
:101F1000040B14F059FCB0EE480AF0EE680ACDE963
:101F2000060117F0ADFDCE4BB3F904008DED080BA3
:101F300014F04AFCDDE9062380468946DDE9040108
:101F400014F0A8FC42464B46CDE90A01DDE9080140
:101F500014F0A0FC02460B46DDE90A0114F0E8FA91
:101F600014F0AAFEB0F5FA7F8646A8BF4FF4FA7EB9
:101F7000B645B8BFB646A7F800E042464B46DDE995
:101F8000040114F087FCDDE9082380468946DDE979
:101F9000060114F07FFC02460B464046494614F009
:101FA000C7FA14F089FEB0F5FA7FA8BF4FF4FA70B3
:101FB000B042B8BF3046B880FEF7B9BA1298DDF823
:101FC00034A0139FA74BDFF8C8C21E785146BE4607
:101FD00009E0A54F37F8122013440380A34B984221
:101FE00001F10E0112D030F8023F91F9062012FBE8
:101FF00003F28CFB0273D217C2EB631303804A7A9D
:10200000FF2A01D0B242E4D38A88E5E79BF8A432E4
:102010000893013B77460693FEF720BC944B93F858
:10202000EE31002B3EF4D1AAFEF7D2BA5988C4464D
:10203000FFF7EDB8049B002059890FF0B5FB01268E
:10204000FEF7F5BC012006F5CC719FED940A09F06E
:10205000C1FA012386F89631FFF7ACBB06F08EFF7C
:10206000BAF80000FFF753BA0023ABF8BE31FEF711
:1020700055BA804A8049B2F90420049381FB0231A9
:10208000D217C2EBA10213B208EE103A9FED7B7A91
:10209000F8EEC87A27EE878AB0EE480A09F0B8FD54
:1020A000F0EE408AB0EE480A09F09EFD744A049BA7
:1020B0001268D678002E00F04D81DFF8D8E1714922
:1020C000BEF802C0B1F902000FFA8CF2821A44F293
:1020D0005060824240F36981A2F50C42A03A7042FE
:1020E000904200F3A481B242A8BF3246BEF80080FD
:1020F000B1F9007062440FFA88F11FFA82FC791A74
:1021000044F250629142AEF802C040F35581A1F50D
:102110000C41A039884203DCB142A8BF31460846D1
:1021200000EB080189B20AB207EE902A0FFA8CF28E
:10213000F8EEE77A06EE902A27EEE87AF8EEE66AFD
:1021400060EE277AA0EE267A4F48AEF80010E8EE4F
:10215000A67AB2EE046A87EE067AC7EE867ABDEEFC
:10216000C77AFDEEE77A17EE101A17EE902A018073
:102170004280FEF746BAB1EEE70AB4EE400AF1EE4D
:1021800010FA40F0D881F7EE007AC7EE806A3F4E31
:1021900096ED047AD6ED034AD6ED017A96ED005A13
:1021A000D6ED055A96ED026A28EE268A2DEE26DA3D
:1021B00028EE077A68EE277AADEE247A2EEE26EA2C
:1021C000EDEE057AB0EE478AAEEE258AEEEE067A9F
:1021D00028EE080AA7EEA70AF1EEC07AF4EE677AB5
:1021E000F1EE10FA40F0A28167EEC87A9FED2B8ADB
:1021F00096ED086AD6ED066A96ED077AB0EE48DAF3
:10220000E7EE86DAA7EEA6DAA7EE878AFEF7F7BD35
:10221000184A9AF90660B2F800E0B2F902C09AF9D9
:1022200014101B4A764211FB0EF10CFB06F682FBE2
:1022300001EC82FB06E2C917C1EB2C111211F61753
:102240001FFA81FCB11A6144961B0B4466449BB291
:10225000464403804680FEF708BB00BF0CFEFFFF2C
:102260008C370020804D0020C84D0020F220002037
:102270005C450020282100206766666635FA8E3CA2
:102280001020002094200020445000209C39002081
:102290001F85EB5190200020EFB6B04400000000F5
:1022A00001F480593A46FEF798BF049217F0FCFCFF
:1022B000DBED747A20EE270A17F072FCB0F5617F2F
:1022C000A8BF4FF4617007EE900A1FED0D0AF8EEFB
:1022D000E77A87EE800A09F09BFC07EE906AF8EE39
:1022E000E77A27EE800A17F05BFC049A80B2136845
:1022F00088E45FED167AFFF71ABBBF4991F8021820
:10230000002900F08D801846DBF818379BF81C1761
:102310000B44B3F5807FA8BF4FF480738342A8BFFE
:102320000346CBF81837FEF71CBBB44AB44B12680F
:102330001E885988ADF854609B88ADF85610D604B5
:10234000ADF8583023D4D0F8A032AE4AD989B2F8CB
:1023500006808FE4AC4AAD48B2F90010B2F9022011
:1023600007EE901A06EE902AF8EEE77AF8EEE66AA3
:1023700027EEE87A60EE277AA0EE267AE8EEA67AD3
:10238000F2EE046A87EE267AC7EEA67AE7E69D4962
:10239000D0F8A022B1F80680D1890FFA88F28A42DB
:1023A000BCBF5B42ADF8583064E499488242BCBF80
:1023B00002F50C42A03292E6954A9142BCBF01F56B
:1023C0000C41A031A6E6069A12B11A88FFF73DB972
:1023D000BAF80E20F888C0EB0208C44509DD1044A5
:1023E000844506DA9445CCBF7A883A881A80FFF78C
:1023F0003AB99445B3F900000BDD7A88B1F8028050
:102400009042FFF661AB40450246A8BF4246FFF747
:102410005BBB8A88B7F800809042F4DAFFF754BBC0
:10242000DBF8140703689B68984732786CE702462C
:102430005CE600239FED778ADFF80CA21846FEF7D2
:1024400044BC754B0493D7F800A0BBE533461E4649
:10245000FEF766B94FF47A73AAF80030FDF75BBF58
:10246000B0EE470A0A9208930691049017F07CFC9C
:102470000A9A089B06990498FEF74FBDB0EE670ACA
:1024800017F072FCFFF77ABB0C920A910893069042
:1024900017F06AFC0C9A0A99089B0698F0EE40CA5D
:1024A000FEF756BC642093FBF0F00BEB40080746A8
:1024B0004046B8F98481B0F986016FF0630101FBF1
:1024C0000733C8EB000000FB03F393FBF1F3BDF807
:1024D0003C105248C8EB030313FB01F38380FDF764
:1024E000DABFB0EE670A069217F03EFC069AFFF7D5
:1024F00026BADBF8140710F013FA9BF83937CBF83B
:102500001447022B7EF49EAB11F0CAFDFEF79ABB76
:1025100009233370FEF7AEBA4FF0FF310722CBF834
:102520002037CBF824173270FDF739BE17F01CFCAA
:10253000F0EE407A58E6B0EE670A17F015FC22E696
:10254000EB5C002B7DF42BAE00214FF0FF32042317
:10255000CBF82017CBF824273370FDF720BE274B8C
:102560001B681C0507D5244B2D48B3F88211B3F91D
:10257000802112F09FFBDBF820370133CBF82037A6
:10258000FDF70DBE2748BBF82C1712F093FBF2E7BE
:10259000194B254893F87E1193F87F2193F87D31EC
:1025A00012F088FBE7E7DBF82827204BD5040ED490
:1025B0000B22C3F82027DEE71D4B1E48198812F0B6
:1025C00079FBD8E729691C4812F074FBD3E70A4B62
:1025D0001A4893F87A1112F06DFBCCE7064B1848B5
:1025E000B3F8421112F066FBC5E7034B1548B3F888
:1025F000401112F05FFBBEE75C450020843E0020E6
:10260000D8370020C84D00209420002044500020DE
:10261000B0B9FFFF00000000E42000208C3700204C
:102620008CE7010880E7010864E70108081700202B
:102630000604002048E7010838E7010854E70108CC
:1026400028E7010818E7010828210020184B18493D
:1026500093F8D43717480E2202FB031393F8D617CA
:1026600012F028FB87E7124B134893F8001893F8F1
:10267000012812F01FFB7EE710481149114A12F0A1
:1026800019FB78E71048114912F014FB73E7104862
:1026900012F010FB6FE712F01DFA00283DF47FAD39
:1026A0004FF480520A23ABF82E273370FDF777BD25
:1026B0005C4500200CE70108F8E60108CCE60108BB
:1026C000E0E60108ECE60108ACE60108C4E6010812
:1026D00090E601082DE9F04F2DED028B9C4B1B7805
:1026E0008DB09BB99FED9B8A9B4E984696F84A30D9
:1026F000012B00F02281994B4C369E4208F10108D3
:10270000F4D10DB0BDEC028BBDE8F08F944E306873
:102710000028F6D0934DDFF8849206F053FD002890
:10272000EFD0306806F04AFD092801461ED03F2848
:102730001CD02B688B4A002B74D1042800F0D38165
:102740000C2800F0CB807F290ED0A1F12002D2B25C
:102750005E2A09D80BB9202906D0834A3068D154A3
:1027600001332B6006F032FD3068D6E74FF0000AE7
:102770002C687E4FD0462CB17B483968224616F033
:1027800067FF18B9BA46B8F1000F49D010374F4566
:10279000F1D3B8F1000F00F09980D8F80000DAF812
:1027A0000010035D0A5D9A422044214440F0738189
:1027B0006D4F04F1FF3EBE4422460BB92D2A3DD990
:1027C0000EF8013F01322A6010F8013F11F801CFE5
:1027D0009C45F2D00AB1C24512D0654812F01CFDEA
:1027E000C24509D358F8100B12F016FD30680921C4
:1027F00006F0ECFCD045F5D95E4812F00DFD002442
:102800002B68A342B0D95C4F2744306817F8011FEA
:1028100006F0DCFC2B6801349C42F6D330687CE780
:10282000B846B3E70C2859D00A290DD00D290BD092
:102830007F2900F013812F2B96D886E7511C20208A
:10284000B85429607B54C6E7474F4C4812F0E4FC6B
:102850003846232116F0DDFE002800F04281C11B1E
:10286000296089B14B1E404AF85C202840F04B8219
:102870001A4443B112F8011D202903F1FF3035D16C
:102880000346002BF6D12B60314A3D4B11780022D4
:102890003A6043F80C2C43F8082C43F8042C43F816
:1028A000042B43F8042B43F8042B43F8042B43F880
:1028B000042B43F8042B43F8042B1A6000293FF43F
:1028C00020AF2C4812F0A8FC306826E714B1BAF10A
:1028D000000F95D0264812F09FFC83E7294812F09C
:1028E0009BFC244812F098FC306816E72B60264ABF
:1028F0001E4C1268009711460022FA548A46276837
:10290000DFF864B0384616F09AFE39468046024633
:10291000584616F09DFE30B91BF8082052445278F4
:10292000570700F0C58010344C45E8D3009F174886
:1029300012F072FC00232B60A6E7154D154F30688E
:102940003E602860AA46144CDFF8549030E000BF87
:102950003850002000007A44BC4400205445002038
:102960002C4E0020982700206827002048C9010825
:10297000CCE80108D4E80108672700209C0502087C
:1029800078270020DCE801087C110020E8E8010835
:10299000284E00207C2100204B50002008CB01084D
:1029A0005845002024284ED023785B073CD5286862
:1029B00006F008FC002800F08580286806F0FEFB81
:1029C0003A6892F848308346002BEBD0012B3ED07A
:1029D000022B4DD0032B52D0042B5ED0052B73D08D
:1029E000062BE4D192F8490003F04EF8002800F0DD
:1029F0009780454C12F0B6FA3B68002283F84820D5
:102A0000E378002B3FF477AE4C2303FB08F33F4AF7
:102A1000D0580FF079FF0CF0DDFE322006F084FB79
:102A200009F022F90EF062FBBBF1230FDAF8003057
:102A300000F05781D9F800301B785B4557D03A68D1
:102A400092F84830CCE7012382F84830AFE74D28B0
:102A500014BF0023022382F84830C1E7013B2C4910
:102A60002C4813600022CA5412F0D6FB306854E69A
:102A70003C2814BF0023032382F84830B0E74028E5
:102A80004FF0000311D80421507190711371D3716C
:102A900082F848108BE722469CE6937982F8490039
:102AA00080EA030B82F806B0052382F848307EE7FF
:102AB0004C45009FBFF43BAF08F101005844E36868
:102AC000984737E7104C9BE713795179994200F208
:102AD0001C819379834200F02281002382F84830E0
:102AE00065E72968BDE60A4807F098FC09E68021F9
:102AF0006B200EF0D1F8962006F016FB064B074A25
:102B00001A6072B60EF0E2FA441E0020BC440020A7
:102B10006827002004E90108FCFF0120EFBEADDEBC
:102B20003B6893F84920233AD72A01F26483DFE80F
:102B300012F02A02620B570B620B2C0B620BFB0A82
:102B4000620BF10A620B8D0A620B680A620B250A9E
:102B5000620B1A0A620BDF09620B7D09620B5309D3
:102B6000620B620B2A09620B1809620B620B0B09DC
:102B7000620BA5078707620B620B620B620B620B8D
:102B80003505620B4A07620B1A08620B620BFD07E0
:102B9000620B620B620B620B620B620B620B620BCD
:102BA000620B620B620B620B620B620B620B620BBD
:102BB000620B620B620B620B620B620B620B620BAD
:102BC000620B620B620B620B620B620B620B620B9D
:102BD000620B620B620B620B620B620B620B620B8D
:102BE000620B620B620B620B620B620B620B620B7D
:102BF000620B620B620B620B620B620B620B620B6D
:102C0000620B620B620B620B620B620B620B620B5C
:102C1000620B620B620B620B620B620B620B620B4C
:102C2000620B620B620B620B620B620B620B620B3C
:102C3000620B620B620B620B620B620B620B620B2C
:102C4000620B620B620B620B620B620B620B620B1C
:102C5000620B620B620B620B620B620B620B620B0C
:102C6000620B620B620B620B620B620B620B620BFC
:102C7000620B620B620B620B620B620B530809075B
:102C8000DF06620B5A064E06410669055C051C0507
:102C90000705F8049404620B2804620BBC03860346
:102CA0006D03FF02E902620B620B620B620B620BA7
:102CB000620B620B620B620B620B620B620B620BAC
:102CC000620B620B620B620B620B0A02620B620BFD
:102CD000CA010901620B620B620B620B620B620B91
:102CE000FA00BA49BA4A0B601360BA4BBA480122DB
:102CF0001A7012F091FAB94812F08EFA237843F064
:102D00000203237096E60B46F1E59179D0188BEA21
:102D1000010101339171137180F808B047E6062371
:102D200082F848305EE6AE4B1B785C0701F16382A7
:102D300008F0CCFFAB4C09F097F80020014612F0E8
:102D400021F957E6DA79A74C9918013291F808A0D1
:102D5000DA71BAF1FF0F00F04F8123799A4580F0C4
:102D60002F810020014612F00DF912F0FBF83B68AC
:102D700018680FF0C9FD286812F0A2F806F0E8F80C
:102D800072B6994A9849984880234FF0400B03AD9A
:102D900053834FF00109A1F81AB004222946ADF877
:102DA0000C308DF80E208DF80F904FEACA0A0EF005
:102DB00035FD29468C488DF80E908DF80F90ADF8B2
:102DC0000CB00EF02BFD04EB0A0399899A6801FA06
:102DD00009F3106809FA01F109FA03F989B249EA1D
:102DE0000000106011838049A1F818B07E4909697C
:102DF0000806FBD44FF0010B04EB0A011068B1F890
:102E00000CC0D1F808E00BFA03F10BFA0CF3014304
:102E10009BB21160AEF81A30734B4022002001467D
:102E20005A830EF0CDFC012001460EF0C9FC42F29F
:102E30000F7302E0002B40F04A816B4A11690906CA
:102E4000F8D504EB0A094FF0040EB9F80C10D9F8C4
:102E5000080001920BFA01F189B20183B9F80E1052
:102E6000ADF80C10294600938DF80EE08DF80FB0E8
:102E70000EF0D4FC012000210EF0A2FC009B019A70
:102E8000002B00F02C81584B1B691A0615D5D9F878
:102E90000820B9F80C3010690BFA03F318404FF012
:102EA000400300F01681504A0020138301460EF0C3
:102EB00087FC4D4B1B691A06E9D404EB0A0293897F
:102EC00092685B0098E7D8791A18411C127AC9B247
:102ED0000F2AD97173D8454D424C1944C2EBC20236
:102EE0002A44097A0230D87182F8D010D97958185A
:102EF0000131007AD97182F8D100D979581801319D
:102F0000007AD97182F8D200D97958180131007A43
:102F1000D97182F8D300D97958180131007AD97162
:102F200082F8D400D97958180131007AD97182F821
:102F3000D500D97958180131D971037A82F8D63081
:102F40000CF086FCF9E6DA792949264C0D68511C0B
:102F500053FA81F103EB020E087A9EF80810023250
:102F600001EB0021DA71A5F86210DA79501C99188A
:102F700053FA80F0097A007A023201EB0021DA710B
:102F8000A5F86010D9E6D8791918421C0D7AD2B28A
:102F9000132DDA7113D81649164C09681A440230F9
:102FA00092F808E0D8710022204690F808C0F44555
:102FB00001F027810132222A00F10C00F5D1094CE1
:102FC0000120002111F0DEFFB7E600BF784D0020A0
:102FD0002C4E00203850002008E90108D4E80108F0
:102FE0004B500020441E0020000402405C4500209D
:102FF0000C21002058C601080025602204F10800B9
:103000002946257116F0CFFA8DF80B509DF80B303C
:1030100094F86A209A4252D9DFF8C89325469DF861
:103020000B3004EBC30393F86D30DB073BD59DF801
:103030000B3005EBC30393F86C3039F91330002BD8
:1030400031DD9DF80B309DF80B2095F804A005EBC1
:10305000C20205EBC303126F1B6F128958684FEA57
:10306000CA016B181FFA82FE9860DA814FF0010CDA
:1030700000230CFA03F212EA0E0241D10133102BA5
:10308000F7D11346214404228B810AF1010A01235E
:1030900003A9ADF80CE08DF80E208DF80F300EF07E
:1030A000BDFB84F804A09DF80B3094F86A2001332E
:1030B000DBB28DF80B309DF80B309A42AFD8002070
:1030C000012111F05FFF207911F03AFF92E4013BFA
:1030D000B3E6B84A012153830EF072FBD3E64021D8
:1030E0001183184619460EF06BFB62B60A2006F0F3
:1030F0001BF810F0D5FF3B68F32283F849201CE64B
:103100009BB2BFE7DA79AC4DAC4C9918501C097AE8
:1031100085F8551153FA80F0911C007A85F8560114
:1031200053FA81F10332097ADA7185F8571104E60E
:10313000A34BA44C1B68A44DDFF8ACC2DFF8ACE293
:103140002A205870122002220D21987522201A7010
:10315000597536220521987119209A70D9750F2258
:103160000E21D87178205A71197435222121987254
:103170001E209A76597453222D2183F85000322054
:10318000DA761975012228215873187137209A7739
:10319000D9726422197359721872002198743C20F4
:1031A000DA701A7799731976D973597683F84E00C5
:1031B00083F84F001C62854C83F84C2083F8542020
:1031C00083F8552083F8562083F85710804A8149A8
:1031D00081481D63DC634FF4E175102499625A63E2
:1031E0007E4983F85A400A22C3F82CC0C3F824E071
:1031F000A3F85850986318645964996483F851206F
:1032000083F8522083F853206C4C96E5DA796C49A8
:103210006A4C096898180132007ADA7181F819014C
:10322000DA7998180132007ADA7181F81A01DA79BC
:1032300098180132007ADA7181F81B017DE5DA799C
:103240005D4D5E4C511C53FA81F103EB020E087A7E
:103250009EF8081001EB0020A5F84801911CD01C35
:1032600053FA81F153FA80F0097A007A01EB0020D9
:10327000A5F84A01111D501D53FA81F153FA80F04F
:10328000097A007A01EB0020A5F84C01911DD01DB0
:1032900053FA81F153FA80F0097A007A083201EB8F
:1032A0000021DA71A5F84E1147E5454A106800F192
:1032B000200400F12C05DA79511C53FA81F103EB5B
:1032C000020C91F808E09CF8081001EB0E2189B27D
:1032D00007EE901AF8EE677A0232C7EE887ADA7152
:1032E000E4EC017ADA7902F1010E991853FA8EFEB4
:1032F000097A9EF808E001EB0E2189B207EE901AD8
:10330000F8EE677A0232C7EE887ADA71AC42C4ED21
:10331000027ADA7902F1010E03EB020153FA8EFE12
:10332000097A9EF808E001EB0E2189B207EE901AA7
:10333000F8EE677A02F10202C7EE887ADA71C4ED1C
:10334000057AB8D100F10E040425082DDA794FD0A2
:1033500099180232097ADA7104F80A1CDA79991894
:103360000232097ADA712170DA7999180A2D097A0C
:1033700002F10202DA71A17200F01081013501340C
:10338000E3E7DA79164D02F11004E4B2511C53FA66
:1033900081F103EB020E087A9EF808100232D2B2D5
:1033A00001EB0021A24225F8021FEFD1DA71034C94
:1033B000C3E400BF000402405C450020441E00201E
:1033C0000C2100204E62A0403333B33FCDCCCC3C27
:1033D000CDCCDC3F52B806410AD7A33C00004040A8
:1033E0004A2700201021002021B0823F3BDFC3404C
:1033F000511C03EB020C53FA81F1023291F808E000
:103400009CF80810DA7101EB0E2189B207EE901AD0
:10341000F8EE677AC7EE887AC0ED117ADA79511C36
:1034200053FA81F103EB020C91F808E09CF80810C4
:1034300001EB0E2189B207EE901AF8EE677A02329C
:10344000C7EE887ADA71C0ED127ADA799918023209
:10345000097ADA7180F84C1090E75A790F2A7FF4D4
:10346000AEADDA799818511C007AC9B20728D97123
:103470003FF6A5ADC64DC74CD5F800C002F1020E0F
:10348000194453FA8EFE0D7A9EF808E0C0EBC00096
:103490000CEB400005EB0E250332DA71A0F8215148
:1034A000DA7902F1010E9D1853FA8EFE2D7A9EF8FC
:1034B00008E0023205EB0E25DA71A0F82351DA7923
:1034C00002F1010E9D1853FA8EFE2D7A9EF808E047
:1034D000023205EB0E25DA71A0F82551DA799D1834
:1034E00001322D7ADA7180F82751DA799D1801328C
:1034F0002D7ADA7180F82851DA7999180132097A2F
:10350000DA7180F82911DA7999180132097ADA71B9
:1035100080F82A1100F5947511F0F2FCC5F803004B
:103520000BE4DA799B4C511C53FA81F19D18087A0F
:10353000297A023201EB0021DA712180FFF7FDBB0D
:10354000954A127802F0040202F0FF0432BBDA79E5
:10355000924998180132007ADA71022881F8D4076A
:1035600088BF81F8D447FFF7E3BBDA79511C1A44CE
:10357000D97192F808A011F0C3FC814611F0C0FC8B
:10358000044611F0BDFC3A68D37905330546D37182
:10359000BAF1000F16D0BAF1100F02D07D4CFFF730
:1035A000CCBB7F4BC3F800905C6008B17D4B1860CA
:1035B0007B487D4B774C0222011D1A700AF0F8FD02
:1035C000FFF7BBBB794B1020C3F800905C6008F09C
:1035D0002DFB774A137843F001031370002DDDD0E3
:1035E000704B6C4C1D60FFF7A8BB6B4B1B785A07E8
:1035F000D4D410F03FFF674C08F068FB08F034FCAF
:10360000FFF79BBBDA79654D511C9C1853FA81F189
:10361000087A217A01EB002080B26FF4AF640419BC
:10362000911CC62CC9B2D97198BFA5F89601D01CBF
:10363000194453FA80F0097A007A554C01EB0020C6
:10364000A5F84001111D501D53FA80F053FA81F185
:1036500090F808E0097A206801EB0E24A5F84241B1
:10366000911DD41D53FA81F153FA84F4097A247A16
:1036700001EB0424A5F8444102F1080102F1090418
:1036800053FA81F153FA84F4097A247A01EB042481
:1036900002F10A0153FA81F1A5F8DE4102F10C04AE
:1036A000097A85F8F51153FA84F402F10D01247AB0
:1036B00085F8F64153FA81F10E32097ADA7185F80C
:1036C0008511DA7999180132097ADA7185F892113F
:1036D000D9794A1C8C1C53FA82F253FA84F4127A78
:1036E000247A02EB042202EB820252000331D971E8
:1036F000A0F85E20DA79294998180132007ADA7147
:1037000085F87A01DA7998180132007ADA7185F849
:103710007E01DA7998180132007ADA7185F87D0134
:10372000DA7998180132007ADA7185F87F015A79CE
:10373000172A7FF633AFDA79164C98180132007ADF
:10374000DA7181F86101DA79501C53FA80F003EBE9
:10375000020E057A9EF8080000EB0525901C53FA2E
:1037600080F0A1F85051007A0332DA7181F85F01DC
:10377000DA7998180132007ADA7181F86A01DA7917
:1037800098180132007ADA7181F86901FFF7D5BA29
:103790000C210020441E00204B5000205C450020DE
:1037A00088210020902100200D2000208021002071
:1037B00066210020A54B1B785D073FF5EFAEA44ABC
:1037C000A44C137843F004031370FFF7B6BA9F4B71
:1037D0001B785B073FF5E2AE9F4B9E4C4FF4C872DF
:1037E0001A80FFF7AABA5A79092A7FF6E8ABDA7984
:1037F0009A4998180968007A0132DA710870DA7902
:1038000098180132007ADA714870DA799818013222
:10381000007ADA716428A8BF64200871DA799818F0
:103820000132007ADA716428A8BF64204871DA791D
:1038300098180132007ADA71FF28A8BFFF2088713A
:10384000DA7998180132007ADA716428024628BFC2
:103850006422CA71DA7998180132007ADA718870B4
:10386000DA7998180132007ADA71C870DA79501C66
:1038700053FA80F09D18047A287A023200EB042073
:10388000DA7148815A790A2A7FF688AEDA7998186F
:103890000132007ADA7108725A790B2A7FF67EAE0D
:1038A000DA796F486F4D9C180132247ADA710C7303
:1038B000DA790168674C98180132007ADA7185F874
:1038C0000D04DA7998180132007ADA7185F80E045D
:1038D000DA7998180132007ADA7181F84E00DA79D3
:1038E00098180132007ADA7181F84F00FFF725BA93
:1038F0005B4A12681178022900F0A78102F10A05DB
:103900002C4602F11400D97903EB010E01319EF827
:1039100008E0D97102F801EFD97903EB010E01310A
:103920009EF808E0D97104F801EFD97903EB010E94
:10393000AA429EF808E001F10101D97100F801EFF7
:10394000E1D12BE6D979424C58184A1C007AD2B200
:10395000DA7100286FD0207840F0020020701A44FD
:1039600002314148127AD971027011F0C9FA3F4D03
:10397000384C286011F0C4FA3A686860D37903F1D2
:10398000010E991CD81C52FA8EFE52FA81F152FA9D
:1039900080F0D5189EF808C0097A007ADFF8D8E0E0
:1039A0002D7A043301EB0020D3719EF80010304BC8
:1039B000304A05EB0C251D8041F0020310808EF883
:1039C0000030FFF7BAB9DA79264D224C9918013246
:1039D000097ADA7185F8DC11DA7999180132097AF5
:1039E000DA7185F8DD11DA79501C991853FA80F0F4
:1039F000097A007A01EB0020911C53FA81F1A5F8B5
:103A0000DE01097A0332DA7185F8E011DA79501CA7
:103A1000991853FA80F0097A007A01EB0020911C82
:103A200053FA81F1A5F8E201097A0332DA7185F8D7
:103A3000E411FFF782B9207820F0020020708EE7B1
:103A4000044C0123E370FFF778B900BF4B5000200E
:103A500066210020441E0020D41F002040210020A9
:103A60000C2100205C4500206721002068210020F7
:103A700070210020722100207A210020DA79CB4DBC
:103A8000CB4C99180132097ADA7100236971AB6065
:103A900011F036FAAA683B681043A860DA799918E1
:103AA0000132097ADA7185F89011DA79501C991887
:103AB00053FA80F0097A007A01EB0020A5F858014A
:103AC000911CD01C53FA81F153FA80F0097A007AE4
:103AD00001EB0020A5F85A01111D501D53FA81F188
:103AE00053FA80F0097A007A01EB0020A5F85C0116
:103AF000911DD01D53FA81F153FA80F0097A007AB2
:103B000001EB0020A5F8800102F1080102F1090093
:103B100053FA81F153FA80F0097A007A0A3201EB04
:103B20000021DA71A5F88211FFF707B9A04CA2783D
:103B3000012A3FF602A9DA799C4D99180132097AD7
:103B4000DA7185F80218DA7999180132097ADA718E
:103B500085F80018DA7999180132097ADA7185F84E
:103B60000118FFF7EAB8D8791A18411C127AC9B2BD
:103B7000112AD9713FF623AA8C4D1944D03205EB96
:103B80004204097A0230D871E170D879411C53FAA5
:103B900081F103EB000E0C7A9EF8081001EB042172
:103BA00089B240F2ED240230A142D87140F2A280E5
:103BB00040F6CA038B42A8BF0B467E49A3F2EE2310
:103BC00081FB0301DB17C3EBE103DBB205EB420230
:103BD000774C1371FFF7B1B85A795208122A3FF6A1
:103BE000EEA91046002A00F0878093F807C003ADC5
:103BF00010B26146A94605EB400A4C1C53FA84F406
:103C000003EB010B94F808E09BF8084004EB0E244A
:103C100029F8024B0231D145C9B2EED10CEB420C6E
:103C200083F807C0002A67D0634B05EB400135F8E5
:103C3000024B23F8024F8D42F9D1122A5CD15F4B1F
:103C40005B4C01221A70FFF778B8DFED5D6A02F174
:103C5000200102F12C04B2EE047AD8791D1801304B
:103C60002D7AD87107EE905AF8EE677AC7EE877A08
:103C7000E1EC017AD8791D1801302D7AD87107EE60
:103C8000905AF8EE677AA142C7EEA67AC1ED027AA1
:103C9000D87903EB000500F101002D7AD87107EE09
:103CA000905AF8EE677AC7EE887AC1ED057AD4D1DA
:103CB00002F10E010420B2EE047ADC791D19082805
:103CC00004F101042D7A21D0DC7101F80A5CDC7961
:103CD0001D1901342D7ADC710D70DC791D190A284B
:103CE0002D7A04F10104DC718D723FF457AC013080
:103CF0000131E2E7002369E7324A002102EB400389
:103D0000243223F8021B9342FBD198E707EE905A26
:103D1000F8EE677ADC71C7EE877AC2ED117ADC794A
:103D20001D1901342D7ADC7107EE905AF8EE677A8E
:103D3000C7EE877AC2ED127ADC791D1901342D7A2B
:103D4000DC7182F84C50D2E71F4A02F10800D979A1
:103D50005C180131247AD97102F8014F8242F6D100
:103D60001CE4DA79114D124C99180132097ADA7192
:103D700085F8E811DA7999180132097ADA7185F84B
:103D8000E711FEF7DABFDA79104899180132097A9B
:103D9000DA71036800293FD0022944DC19703DD153
:103DA0000B4B0C4A1A60024CFEF7C7BF5C45002063
:103DB000441E00201F85EB519A3C00205D3B0020F3
:103DC0000000C8429C3C0020E34600200C2100205B
:103DD00010110020A1ED0008DA79C74DC74C9918E1
:103DE0000132097ADA7185F87A11DA799918013293
:103DF000097ADA7185F87E11DA7999180132097A2F
:103E0000DA7185F87D11DA7999180132097ADA7157
:103E100085F87F11FEF791BF01221A70B84BB94A9D
:103E20001A60FFF7BBBB02221A70B9E75979B64A8C
:103E3000A1FB02454A1B05EB52029208C2EBC202EB
:103E40008A1A12F0FF0F7FF4BAA8AF4AA2FB010250
:103E5000891A02EB5102C2F38702002A3FF49EAB9B
:103E6000AA49D1F800E0D97958180131047AD971FA
:103E700065B27046002105E00131052900F1080016
:103E80003FF49DA890F902C0AC45F5D10EEBC101FD
:103E9000881C3FF494A88C70D879441C53FA84F49D
:103EA00003EB000C257A9CF80840023004EB052453
:103EB000D8718C80D8791C180130247AD8718C7113
:103EC000D8791C180130247AD871CC71D8791C1893
:103ED0000130247AD8714C72D8791C18013A247AAE
:103EE000013012F0FF02D8710C72BCD1FFF756BB43
:103EF000D8791918421C097AD2B20B29DA713FF627
:103F00005EA81A44824C157A22680230032DD871BB
:103F10003FF655A801EB410102EB410101F1D0024E
:103F200081F8D650D979754C58180131007AD97179
:103F30005070D97958180131007AD9719070D979B7
:103F400058180131007AD971D070D97958180131D7
:103F5000007AD9711071D97958180131007AD97164
:103F60005071FEF7EABEDA79634D644C991801325C
:103F7000097ADA7185F89211FEF7DFBED9795818FF
:103F80004A1C007AD2B21F28DA713FF618A85C7971
:103F9000082C7FF414A81A44574D127A574C8C30D1
:103FA00005EB800502F03F020331D971EA80DA792E
:103FB0009818911C027AD971E988920102F4FE5294
:103FC0000A43EA80DA7999180132097ADA710A012A
:103FD0002A71DA7999180132DA71097A2A7901F0AD
:103FE0000F010A432A71DA7999180132DA710B7AD2
:103FF0006B710BF0BBFE0BF00DFF0BF0E9FEFEF753
:104000009CBE3D4A02F14005D979481C53FA80F024
:1040100003EB010E047A9EF80800023100EB042045
:10402000D971A2F8B402D97958180131007AD9713E
:1040300082F8B602D97958180131007AD971043260
:1040400082F8B302AA42DFD1FFF7A8BADA792A4987
:1040500098180132007ADA7181F89001DA79501CEF
:104060009C1853FA80F0247A057A901C04EB0525FD
:10407000D41C53FA84F453FA80F0A1F89A51007AD0
:10408000257A141D00EB0525501D53FA80F053FAD4
:1040900084F4A1F89651057A247A901D04EB052446
:1040A00053FA80F0A1F89841007A0732DA7181F86A
:1040B00091015A79082A7FF671AADA790F4C501CBF
:1040C00053FA80F003EB020E057A9EF8080000EB2D
:1040D0000525A1F89E51901CD51C53FA80F053FA87
:1040E00085F5007A2D7A043200EB0520DA71A1F80B
:1040F000A001FEF722BE00BF5C450020441E002048
:1041000010110020B1E800082549922458450020EC
:104110000C210020DA794D4D4D4C99180132097A65
:104120006971DA71FEF709BEDA79484D484C511CC5
:1041300053FA81F103EB020E087A9EF8081001EBA6
:104140000020A5F88001911CD01C53FA81F153FA8C
:1041500080F0097A007A01EB0021101D53FA80F0FB
:10416000A5F88211007A85F88401511D901D53FA3B
:1041700081F153FA80F0097A007A073201EB0021CD
:10418000DA71A5F88611FEF7D8BDDA792F4D304CDB
:10419000511C53FA81F103EB020E087A9EF80810C5
:1041A00001EB0020A5F85801911CD01C53FA81F1B5
:1041B00053FA80F0097A007A01EB0020A5F85A0141
:1041C000111D501D53FA81F153FA80F0097A007ADB
:1041D000063201EB0021DA71A5F85C11FEF7ADBDE6
:1041E0001A4D1B4C0023AB6010F08AFEAB681843DD
:1041F000A860FEF7A2BD0120002110F0C3FEFEF76B
:10420000F8BB02EB420201EB850514F8222085F889
:104210008120DA790E4C98180132007ADA7185F82B
:104220008200DA7998180132007ADA7185F8830011
:10423000DA799818013290F808E0DA7101F181001A
:1042400085F884E00FF0D4FFFEF777BD5C450020D1
:10425000441E00202DE9F04FDFF898929348D9F8DA
:104260000020934E2DED048B02F59C430178203302
:104270008DB03360002900F088838E4BDFF87882A0
:104280001B688D4C9A428D4B009388BF01F1FF3B18
:104290008B4B88BF80F800B00493009B874D186853
:1042A000C70403D52368D90740F1E485D8F8001086
:1042B000D9F800508B7A002B40F00683020447D5D2
:1042C000D6F894207A4FAA1A002A41DB97F898E092
:1042D0007C4A91F80B8092F805C07B4A0EF10101EF
:1042E00001F00F0132F81C2087F8981007EB010C41
:1042F00005F59C4E0EF1200E92B2C7F894E092FBA9
:10430000F8F207F19B018CF89C20AB3711F8012FD4
:104310001344B9429BB2F9D11BB2002BB8BF0F3383
:104320001B11642BA8BF642323EAE37307EE903AC2
:10433000664ADFED676AB8EEE77ADFED667AC7EEC8
:10434000277A67EEA67AFCEEE77A17EE903A1380AA
:10435000C7050AD5604BDFF8A4A19D429AF8023048
:1043600000F2E481002B40F0E5815C4B5C4D019351
:10437000DFF88CB10BF5C470BBF84E1104F098FD5A
:104380008146002840F0BE82D4F8008018F0006A10
:1043900004D0544FBB78002B00F0C585019B1A78E0
:1043A00002F0040202F0FF03002A40F035814D4F75
:1043B0004D4A4E4912684FF0010E002002F57A7204
:1043C000C6F8B420087087F803E087F802E0002BF5
:1043D00040F0AC8295F800E09BF8E681384A9BF803
:1043E000E7C1BBF898A1BBF89A7118F1000818BF93
:1043F0004FF0010802F10800002332F9021B9B086C
:104400005145C4BF63F07F03DBB2B942B8BF43F08C
:1044100040038242F1D196F8BD2025499A4200F02E
:10442000FE84002281F8BE2086F8BD30204ABEF10D
:10443000000F40F0CA802368DF0740F1158182F841
:10444000BFE0B9F1000F00F04B8596F8BE30184A76
:10445000142B18D12B7873B192F8BD305F2B00F07C
:104460007586B8F1000F06D096F8BD30DFF84090A1
:104470007D2B00F0A686019B1B7803F00403DBB2C2
:10448000002B00F0FB80009B194D1B6803F0040318
:10449000002B40F02D81D5F800A000230AF18307FE
:1044A0000AF1D308236001252FE000BF8C3E0020D5
:1044B000101F0020883E0020244E0020843E002053
:1044C000C84D0020D43D0020E43D002034210020D0
:1044D00000C07F440000C842404B4C004B500020BD
:1044E000FC0E002002040020E0340020495000208F
:1044F0000C210020E84F0020803E0020903E00204C
:104500005C4500200437474514D03A787B7817F88B
:10451000010C9A42F6D2394604F08CFC0028F1D006
:1045200017F8022C236805FA02F2043713434745B3
:104530002360EAD1B44B1F78002F00F0B1832368C9
:10454000980751D4009B1B68D80549D4AF4DB04F94
:10455000012007F06BFB23685B074ED5012007F0B5
:1045600065FB3988880740F10B8511F003014FF096
:10457000010018BF01460DF023F92B689A0600F1DF
:104580002D8323681F054FF480703BD507F05EFB39
:104590009BF80530082B3BD00E2B39D0009B1B68B5
:1045A0005D050AD59BF82432002B49D023681903F6
:1045B0004AD40BF05DFA0FF073FD012386F88831C1
:1045C0000DB0BDEC048BBDE8F08F92F8BE20142A2C
:1045D0003FF444AF009B8F4D1B6803F0040357E783
:1045E0008D4BDB78002BB1D0884D2B689907AED569
:1045F000874F3B88DA0740F1A084022007F016FBC2
:104600003988B2E707F012FB9BF80530082BC3D1BD
:10461000402007F00BFBC1E7009A1268D1063FF576
:10462000C6AEBAF1000F04D07C4FBA78002A7FF4EE
:10463000BFAE08F02058B8F1205F7FF4B8AEC9E6ED
:10464000019B1B785807B4D5754B00223C201A708B
:104650000FF062FE0028B0D010F032FC3C200FF0CA
:104660005BFE0028F8D1A8E7019B1B78590700F1F1
:10467000698492F8BE30142B7FF405AF96F8BD70B4
:10468000684A572F00F04387009BDFF8AC911B6806
:1046900013F0040302D05A2F00F0C3855D2F00F001
:1046A00050875B2F00F092875E2F00F0A885562F71
:1046B00001F087802B7843B16F2F01F09280B8F121
:1046C000000F02D07E2F01F08C80972F01F06E80BA
:1046D000A72F40F039875449009B0A781B684D4D3D
:1046E00042F0040203F004030A70002B3FF4D3AE3F
:1046F00096F8C2304B49002B00F07F83019B1B785A
:104700005B0740F17A83049BB3F90620BBF898312C
:104710009A4240F37283236813F0010040F06E83E5
:10472000322281F8C200A1F8C62067E313B9012341
:104730008AF802303D4B9AF821701878216801936D
:10474000A7F10107C0F38003B7FA87F77F09002FAD
:1047500002939AF82020364DDFF8E090DFF8B88019
:104760000394C1F3806314BF4FF0000B4FF0030BB1
:104770000593052A00F20A84DFE802F069628133BA
:104780001903D9F800202B4BD2881B68642101FB48
:1047900002334FF4806000228AF820208AF8032038
:1047A000CAF8103007F042FA9AF82020E1E7002F0B
:1047B00000F095861F4BDAF818201B689A4280F0AB
:1047C000E5832B7823B9039B1B68D80700F1DE83B0
:1047D00001990B78052223F002030B708AF8202040
:1047E000C7E7019A137843F00203137011F010FB2E
:1047F000104BDAF81C201B6813440422CAF8183046
:104800008AF82020B5E700BF38500020F8200020AB
:10481000204E00200C210020903E002002040020A9
:10482000884D0020101F0020662100204B500020E2
:10483000FC0E0020E0340020843E002024500020A4
:10484000002F00F0028305228AF8202091E7029BC6
:10485000002B40F01B84059B039C4FF48060002BD1
:1048600040F0028307F0E2F90023CAF81030BBF1F0
:10487000000F3FF47DAD584604F080FB78E5002F33
:1048800000F0E18205238AF820300123029A002AF1
:1048900000F0CF82D6F8AC20049CD28922806280BE
:1048A000A280624AD9F800001268DAF81410408831
:1048B000E0809142C0F02F83002B01F03F8098F8F8
:1048C00020204FF0020B54E7013B0A7B049931F89A
:1048D00013301AB1C3F53B6308339BB21BB2A3F587
:1048E0007A73B3F57A7FA8BF4FF47A7323EAE37340
:1048F00007EE903ADFED4E6A4E4AB8EEE77ADFED0A
:104900004E7A1CE5009B1B6813F0100F019B00F012
:10491000D3821B7803F00403DBB2484A484F0021DE
:1049200011700022FA70002B3FF454AD009B1B68FD
:10493000DB067FF54FAD434B1B7803F0100303F00C
:10494000FF07002B7FF446AD95F800E0DFF8048107
:10495000BEF1000F00F01F869BF8E831B9F1000F9F
:1049600040F0068743B1314AD6F8B8301268364F66
:104970009B1A002BC0F29787102004F0FFFA012346
:1049800086F8BC3095F800E026E5DFF8CC802F4FA4
:104990008B46C24614E0195D2D483B689847032CAE
:1049A00041D8DAF8003004F1100203EB820133F849
:1049B00022504A8818BB06EB44040BF1010BA0807F
:1049C00096F828505FFA8BF46DB9D8F80030204A79
:1049D0009B7E1578DA1CAA42B8BF1D1D1A4BB8BFC2
:1049E000EDB283F82850AC4238D2072CD8F800300A
:1049F000D1D93B6816482146984780B2DBE74FF48F
:104A00007A73401B03FB00F0521B40F6C90390FB76
:104A1000F2F000F57A70984200F3298240F2EE231A
:104A20009842B8BF184680B2C5E700BFE034002006
:104A300000C07F443421002000007A444950002007
:104A40000204002066210020101F0020000F00201B
:104A5000804D0020FC0E0020803E0020954B0093EE
:104A60001A68954B1B68039342F201031340B3FA93
:104A700083F35B09002B40F01882904F904996F821
:104A80002920787838700A70002A00F013828B4F42
:104A90003A7882F0010C96F82B108A488A4A8B4F9C
:104AA000D8F800B0CDF804C00C46A0FB04E04008E4
:104AB00000EB4000201AC0B2069003981178844A97
:104AC000059400F596700F2486F82A408A460492D1
:104AD000002407900293CDF82480114665BB9BF813
:104AE0001A50E81C5045C0F290825046844286F825
:104AF00028A0554623DA019B002B00F04982754B14
:104B0000BBF816E033F8140086454FEA440800F27B
:104B10004582BBF818E08645C0F040826E4B079A8C
:104B200043F82420029B002B00F0448221F8080067
:104B300001340637002DD2D028468442DBDB96F8BC
:104B40002A30DDF82480654CA3F10F03B3FA83F318
:104B50005B0986F890301BB123685B0140F1C98482
:104B60005F49554B8A6818684B68544FC860821A71
:104B70009A4284BF002381F82130534BDFF874A19F
:104B800001940120787038701F78D8F800305446AE
:104B90004FF0000B9A46ADB99AF81A50EB1CBB4285
:104BA000C0F251823B469B4586F828703D465FFA2D
:104BB0008BF00CDA0EF0FAFF0BF1010B24F8020F68
:104BC000002DE9D02B469B455FFA8BF0F2DB019C70
:104BD000059B013386F82B30FFF75FBB414B1B78F9
:104BE0009B0721D5404B1B78042B1DD923683B4DD7
:104BF00013F4007840F0B78239883C4F01F010027E
:104C000092B2002A40F06C859146580500F1378534
:104C10008A0600F1C48596F80421002A00F0AD82CE
:104C2000B9F1000F10D1ADE43B8803F03003002B45
:104C30003FF4A7AC102006F0F9FF202006F0F6FFA5
:104C4000002386F8FD302368294ADFF8AC80002075
:104C50004FF0000902F1280702F1500502F1780C2B
:104C600002F17C0E0146C2F800905160C2F8089033
:104C7000C7F800907960C7F80890C5F8009069609F
:104C8000C5F8089028F810102CF810102EF8101005
:104C900014321437143500287FF474AC0120E2E795
:104CA0000AF1D205DFF85480DFF854900AF58D7AC6
:104CB0002BE000BF843E0020E034002002040020EE
:104CC00050280020ABAAAAAA804D00203C1F00203B
:104CD000C84D0020141F00209C200020244E0020DE
:104CE000903E00206621002067210020204E0020F9
:104CF00018200020C64D002044500020ECC50108BB
:104D0000101F0020063555452DD02A786B7815F8F0
:104D1000010C9A42F6D2294604F08CF80028F1D012
:104D20002879AB7895F803C000EB400206EB8202CD
:104D3000013BD2F8D01003EB430343448B42E1D054
:104D400099F8FC1082F8CCC04FF0010C0CFA00F07E
:104D5000063521EA00015545C2F8D030C2F8D470BA
:104D600089F8FC10D1D1BC4ABC4BBD49D2F80080B7
:104D7000096893F800A0BB4D9FEDBB9ADFEDBB8A9D
:104D800002910027C1462B6883B393F80080B8F1E5
:104D9000000F2BD06A68C2EB0902002A0ADB96F8E2
:104DA000FC100122BA4021EA020209F5FA7186F8E4
:104DB000FC206960BAF1000F18D015F8042C59785E
:104DC0000432D2B2002940F094800498BBF89611C6
:104DD00030F9122001F1C800824240F3768196F842
:104DE000FC209B783A41D10740F100820137042F23
:104DF00005F10C05C7D1FFF7A2BB2368DF033ED541
:104E000096F8C8209A4B2AB993F8C02012B93222DA
:104E1000A3F8C620012386F8C830FFF73CBB91F801
:104E2000BE20F92A3FF600AB013281F8BE20FFF721
:104E3000FBBA894B1B6847F230530322CAF81C3077
:104E40008AF8202095E43B4620E5D9F800301B7A0B
:104E5000012B63D111F048FB032240F6B8338AF8E6
:104E60002020CAF81C3084E406F0F0FEFCE440F692
:104E7000CA00A0E510F0CCFF2868FFF717BA96F833
:104E8000C0307B4A002B3FF406AB019B1B7803F03C
:104E9000040303F0FF01002B7FF4FDAA012382F835
:104EA000C01082F8C130FFF7F6BA6C4A1278002AB7
:104EB0007FF4EDAD9446EEE51A7802F0040202F0BC
:104EC000FF03002A3FF429AD226812017FF525ADCA
:104ED000684FBA78002A40F00E8467490A7020E5CE
:104EE000019B1B78D8077FF5B0AA10F0B9FDFFF73A
:104EF000ACBA012900F0788396F8FC200123BB406E
:104F000001371343042F86F8FC3005F10C057FF4BC
:104F10003AAFFFF714BB4FF0020B8CE711F0E4FA45
:104F20009AF8202025E40FF031FA534B01280CBFEA
:104F3000187083F80090FFF731BA012006F086FE62
:104F4000FFF75BBB454B1B78002B3FF49CAA4B4BF8
:104F5000DB78002B7FF497AA92F8BF300133DBB2E5
:104F6000032B82F8BF307FF670AABCF1000F03D18B
:104F7000B9F1000F7FF469AA10F04AFFFFF765BA94
:104F8000022006F063FE3988FFF7EFBA039C6EE457
:104F9000BBF8160000283ED04FEA44083848039B6F
:104FA00050F8240098423AD9029B31F80800002BAF
:104FB0007FF4BCAD069B96F874C008EB040E9E44CB
:104FC00006EB4E0EAEF82C00BCF1000F08D1059B8D
:104FD000022B7FF6ABAD264B4FF0010283F8742015
:104FE000B7F800C0B7F802E0B888264BE64486441C
:104FF0001FFA8EFE0FFA8EFC83FB0C30224BA0EBC7
:10500000EC7023F808E080B290E50435EDB286F844
:105010002850284691E501984FEA44087EE5E0B221
:1050200008910EF0C3FD032C089912DC104B93F885
:105030002AE0012303FA04FC0D4B2EEA0C0E80B289
:1050400083F82AE06EE50435EDB286F828502B4649
:10505000B9E580B266E500BFE034002050280020AA
:1050600040210020E01F002000007A440000C842D8
:10507000101F00200204002049500020903E002014
:105080009C20002056555555881F0020D6F8AC00AE
:10509000B6F8B01003F00CFF012800F09A82059BCF
:1050A00023B1D9F800301B79002B7FD1002F7FF47A
:1050B0006DAFCE4BDAF810201B689A42C0F03682F2
:1050C000012288F82020FFF754BBC8398A4261DAF0
:1050D00096F8FC209B783A41D2073FF587AE5B42B9
:1050E00008EE103A012003F08BFF08F1FF33132B79
:1050F0003FF602AF01A252F823F000BF4F53000861
:1051000023530008F3520008AF520008D55300089B
:105110007B5300082F5400087D520008B554000846
:10512000615400088B540008F94E0008AF52000883
:10513000D35200087B5300082F5400087D5200080A
:105140002B5400080154000853520008019B1B789F
:1051500003F0040303F0FF07002B00F0308210F08F
:1051600057FEFFF77EB93A88D50640F1D78296F808
:105170000421002A7FF406AA91460E2003F0FEFEC9
:10518000012386F804312368B9F1000F7FF45CAD88
:10519000FFF7F8B996F8FC300122BA4023EA02037F
:1051A00009F5FA7286F8FC306A601FE611F09CF986
:1051B00003224FF47A738AF82020CAF81C30FFF7D4
:1051C000D8BA019B8A4F1B7803F0040303F0FF0A4F
:1051D000002B00F0468210F01BFE3B7803F0040326
:1051E000DBB2002B7FF44FA9FFF748BA08EE103A64
:1051F000002B3FF477AF022003F002FF75E7022394
:1052000003258BF8D43706F061FD06F02DFE284605
:1052100003F0F6FE009B774D1B6803F00403FFF7D5
:1052200037B992F8C010002940F0F58292F8C230E8
:1052300083F0010382F8C230002B40F0E2820D209F
:1052400003F09CFED9F800306A4D03F00403FFF729
:105250001FB9694B1B681A78022A00F00983597D2F
:1052600018EE102A0A44C82A1146A8BFC82121EA0C
:10527000E1715975142003F053FE3DE65E4B1A6848
:105280001178022900F07A83917D039318EE103A89
:105290001944C829A8BFC82121EAE17191751120DC
:1052A00003F03EFE039BB8F1110FD3D124E6029A1E
:1052B00018EE103A517919446429A8BF642121EAF3
:1052C000E17151710D2003F02BFEB8F10D0F3FF489
:1052D00013AE029A18EE103A11790B44642B19465A
:1052E000A8BF642121EAE17111710E2003F018FEBC
:1052F00002E60298414B90F8038018EE101A4144E0
:1053000064298846A8BF4FF0640828EAE87880F846
:105310000380196803F014FD4146032003F000FEEA
:10532000EAE5029818EE103A90F801804344642BA5
:105330009846A8BF4FF0640828EAE87880F8018012
:1053400003F05AFD4146022003F0EAFDD4E502983D
:1053500018EE103A90F800804344FA2B9846A8BF04
:105360004FF0FA0828EAE87880F8008003F044FD5E
:105370004146012003F0D4FDBEE51F4B1A681178A9
:10538000022900F0B9829178039318EE103A19447B
:10539000C829A8BFC82121EAE17191700F2003F04C
:1053A000BFFD039BB8F10F0F3FF4A6AD1B681A7841
:1053B000022A00F08682597818EE102A0A44C82A78
:1053C0001146A8BFC82121EAE1715970122003F0EB
:1053D000A7FD91E5029A18EE103A91790B4483F3F8
:1053E00008019171052003F09BFD85E5E034002064
:1053F0004B5000200C2100206C4D0020684D0020F7
:10540000CD4B1B681A78022A00F01782D97A18EE61
:10541000102A0A44C82A1146A8BFC82121EAE1710E
:10542000D972132003F07CFD66E5C34BBEE7C24B87
:105430001A681178022900F0BD82117B039318EEDF
:10544000103A1944C829A8BFC82121EAE171117393
:10545000102003F065FD039BB8F1100FD1D14BE58F
:10546000B54B1B681A78022A00F0C082597B18EEEF
:10547000102A0A44C82A1146A8BFC82121EAE171AE
:1054800059730A2003F04CFD36E5AB4B1B681A78C4
:10549000022A00F0C682D97D18EE102A0A44C82AD2
:1054A0001146A8BFC82121EAE171D9750B2003F08C
:1054B00037FD21E5A04B1B681A78022A00F04382D1
:1054C000D97818EE102A0A44C82A1146A8BFC82164
:1054D00021EAE171D970092003F022FD0CE5974B18
:1054E000DAF81C201B68039C1344CAF81830FFF735
:1054F000BEB9934A914BD1681B6893605B1AC82B65
:105500007FF666AB012382F82130FFF761BB009B79
:105510008C4A1B688C4D4FF47A7111801A0600F189
:10552000368103F00403894DFEF7B2BF10F0DCFFB3
:10553000032240F6B83388F82020C8F81C30FFF763
:1055400018B9002301255CE60023BB2F0B9300F064
:105550004181B72F00F04181BE2F00F05081BD2F57
:105560007EF491AF4FF6FE71784D2A68B2F8607004
:10557000B2F8620039440344A2F86230A2F8601025
:1055800006F020FE009B1B68002203F0040386F84F
:10559000BE20FEF77DBFB9F1000F3FF4EDA996F8EC
:1055A000BCE0DFF8B4A1BEF1000F3EF415AF03F08C
:1055B000CFFC98F800E08AF8BC70FEF70DBF0B2016
:1055C00003F0DCFC86F8BE70FEF74BBF012302251A
:1055D00017E6D9F80020594BD2881B68642101FBDB
:1055E0000233CAF810305AE50499987831F912203C
:1055F000B2F5617FC0F2FE8040F633039342A8BF4C
:105600001346A3F56173B8F10C0F7FF475AC504AE3
:105610004FF4966191FBF0F8117893FBF8F35FFA81
:1056200083F841453FF468ACB8F1030F8ABF022309
:1056300043461946C3EBC30346480BEB430398BFED
:10564000414603F2D6730360117006F0E3FB0C20B1
:10565000414603F065FC08F10100C0B203F0D0FC44
:105660004AE40B2003F08AFC3B7889F8BEA003F0E3
:105670000403DBB2002B7EF406AFFEF7FFBFDFF8BA
:10568000ECE0D6F80021BEF900005789324D80EADF
:10569000E072A2EBE072BA42BFF6BAAABEF90220EB
:1056A000002AB8BF524297427FF7B2AA8A063FF556
:1056B000B2AA202006F0CAFA284B294A0ACB104683
:1056C0001160111D536008F073FD012385F8FD3052
:1056D00096F80431002B00F08F802368FFF7B4BAEE
:1056E000102006F0A3FA4FF0010986F8FD802B6820
:1056F0003988FFF78ABA1149D6F8B42009688A4276
:10570000BFF40FA902930EF041FE029B00287FF424
:1057100008A9144AB8701070FFF703B9102006F0FA
:1057200095FA202006F082FA0F48011D08F040FD8E
:10573000022386F8FD30CBE76C4D0020E0340020DA
:10574000903E002030500020843E00200C2100209C
:10575000304E002040210020101F00206821002032
:105760008821002049500020802100208C37002013
:10577000002B59D196F8BC30BF4F002B3EF42CAE15
:1057800003F0E6FB002387F8BC30FEF723BE08F0E9
:10579000C5FD2B68B94D03F00403FEF779BE202048
:1057A00006F044FA002386F8FD3091E7009BB34DE4
:1057B0001B684FF4C87203F00403A6F8C420FEF778
:1057C00067BE06F0FFFC2B78002B7FF4BDAE0B9379
:1057D000FEF759BE19460223C6E619464FF6FE7378
:1057E000C2E610F03DF9009BA44D1B6803F00403D2
:1057F000FEF74EBE002306E74FF00109BDE402218B
:10580000B2E60C2003F0BAFBD9F800309B4D03F050
:105810000403FEF73DBE0020012182F8C00082F89B
:10582000C110964DFEF734BE954A12684FF47A7156
:1058300001FB0323C6F8B8309CE7B8EEC80AD3EDE5
:105840000B7A80EE280A30EE270AB5EEC00AF1EE98
:1058500010FA30D4B4EE680AF1EE10FAC8BFB0EE18
:10586000680A83ED0B0A132003F042FBFFF744BBE9
:10587000B8EEC80AD3ED0E7A80EE090A30EE270A98
:10588000B5EEC00AF1EE10FA18D4B4EE680AF1EEE3
:1058900010FAC8BFB0EE680A83ED0E0A142003F0B8
:1058A00027FBFFF729BB10F0B3FA87F8BC9098F8F4
:1058B00000E0FEF791BD9FED730AD2E79FED710AFC
:1058C000EAE7B8EEC80AD3ED087A80EE280A30EE8F
:1058D000270AB5EEC00AF1EE10FA29D4B4EE680A30
:1058E000F1EE10FAC8BFB0EE680A83ED080A122084
:1058F00003F0FEFAFFF700BBB8EEC80AD2ED097A52
:1059000080EE280A30EE270AB5EEC00AF1EE10FA52
:1059100011D4B4EE680AF1EE10FAC8BFB0EE680A0E
:1059200082ED090A0F20039303F0E2FA039B39E5A5
:105930009FED540AD9E79FED530AF1E7039C4FF01E
:10594000020BFEF798BFB8EEC80AD3ED0A7A80EED4
:10595000280A30EE270AB5EEC00AF1EE10FA7BD421
:10596000B4EE680AF1EE10FAC8BFB0EE680A83ED33
:105970000A0A092003F0BCFAFFF7BEBAB8EEC80A5B
:10598000D2ED0F7A80EE090A30EE270AB5EEC00A92
:10599000F1EE10FA63D4B4EE680AF1EE10FAC8BF63
:1059A000B0EE680A82ED0F0A1120039303F0A0FA0B
:1059B000039B78E4B8EEC80AD2ED0C7A80EE280A90
:1059C00030EE270AB5EEC00AF1EE10FA4DD4B4EE6F
:1059D000680AF1EE10FAC8BFB0EE680A82ED0C0A50
:1059E0001020039303F084FA039B35E5B8EEC80A50
:1059F000D3ED0D7A80EE280A30EE270AB5EEC00A04
:105A0000F1EE10FA2ED4B4EE680AF1EE10FAC8BF27
:105A1000B0EE680A83ED0D0A0A2003F069FAFFF779
:105A20006BBAB8EEC80AD3ED107A80EE090A30EEF0
:105A3000270AB5EEC00AF1EE10FA19D4B4EE680ADE
:105A4000F1EE10FAC8BFB0EE680A83ED100A0B2021
:105A500003F04EFAFFF750BA9FED0A0A87E79FED71
:105A6000090A9FE79FED070AD4E79FED060AB5E70D
:105A70009FED040AE9E700BF101F00200C21002061
:105A8000E0340020000000002DE9F04F2DED048BE4
:105A9000013885B0FD2801F2C780DFE810F06C07FF
:105AA0005A074A073A071A07C508C508C508C508AE
:105AB000C508C508C508C508C508C508C508C5087E
:105AC000C508C508C508C508C508C508C508C5086E
:105AD000C508C508C508C508C508C508C508C5085E
