:020000040800F2
:10000000C00700208901000803C20008E14601087A
:1000100001020008010200080102000800000000BF
:1000200000000000000000000000000001C2000805
:10003000FFC1000800000000FDC1000813D7000840
:100040000102000801020008010200080102000884
:100050000102000801020008010200080102000874
:100060000102000801020008010200080102000864
:100070000102000861200108CD40010801020008CA
:1000800001020008514101080102000801020008B4
:100090000102000801020008010200080102000834
:1000A000D19300080194000801020008119400088F
:1000B000F193000801020008E19300082D5C00089C
:1000C000315C0008255C0008295C0008010200087A
:1000D00001020008214301081943010811430108E6
:1000E00021D700080102000805C20008010200082B
:1000F00001020008010200080102000801020008D4
:1001000001020008010200080102000801020008C3
:1001100001020008010200080102000801020008B3
:1001200001020008010200080102000801020008A3
:100130000102000801020008010200080102000893
:100140000102000801020008010200082DBD00089C
:100150000102000849400108E941010833960008FE
:100160000102000801020008010200080102000863
:100170000102000801020008010200080102000853
:1001800001020008010200081448154902680060D5
:100190008A421DD0002103E0124B5B5843500431CA
:1001A0001148124B42189A42F6D3114A02E000233A
:1001B00042F8043B0F4B9A42F9D30F48016841F4CF
:1001C0007001016011F088F800F01CF87047FEE73C
:1001D0000A48D0F800D0406800470000FCFF01202A
:1001E000EFBEADDEB4A8010800000020C00300206F
:1001F000C00700205C4B002088ED00E00000FF1FDE
:10020000FEE700002DE98048C64CC74B2360A3B031
:100210000023636010F011FD18B910F031FD0CF0EF
:10022000E7FBDFF88093C14EC14FDFF87CB30CF0E1
:1002300099FC99F8003043F0010389F8003010F080
:10024000F1FFBC4BF3607B6FA360BB4BB3607B6B78
:10025000BA4823F080037B637B6F43F080737B6736
:100260003A6BB74B13433B637B6B7B63BB6BBB63EB
:100270003A6CB44B13433B647A6CB34B134322ADDB
:100280007B6401238DF8533048F2FF7345F83C3D01
:100290004FF0000A29464FF6FF788DF850A08DF8F0
:1002A00051A08DF852A00BF001FAA848CDF84C806F
:1002B00029460BF0FBF9A648CDF84C8029460BF0F7
:1002C000F5F9DFF8E8C2CDF80CC0604629460BF01E
:1002D000EDF9A048DFF8D88229460BF0E7F99E48EF
:1002E00029460BF0E3F99D4829460BF0DFF99C48BD
:1002F00029460BF0DBF929469A480BF0D7F9284636
:100300000BF00CFA984B9948A8221A60514610221B
:1003100015F0B3FB964B974A5A60F02286F82320DB
:100320000722954EC3F808A01A60B368CBF80030D6
:1003300098E80F0085E80F003B6BDDF80CC01398C0
:1003400043F008033B633B6B43F008033B634FF40C
:100350008043ACF818304FF40043ACF8183014A9BF
:1003600011F080FF16A9159811F07CFF64200DF0A4
:10037000C6F9A0228148514615F07FFB3B6C804AAC
:1003800043F013033B647B6C43F001137B6402F185
:10039000C000CDF81090937BD17B03F00707BF001E
:1003A00001FA07FE5168DB0801EB83034FF00F0CE5
:1003B000196A0CFA07F721EA07011962196A103263
:1003C0004EEA010182421962E5D10023DFF854911F
:1003D00009F10C020021995401330C2BF6D1FF23B3
:1003E00089F8183089F8193089F81A3089F81B30E3
:1003F000644BDFF8C0A1644F644A1F60052313708B
:1004000050463C22039315F038FB1422039B8AF8D4
:1004100000208AF8303001225D4B8AF81820022132
:100420008AF8241096F805A083F800A0A7F5F173C8
:10043000C9F81C30574BA7F591771F60564BDBF876
:10044000007003EBCA03B8065B78C9F8203048BFD8
:10045000C9F820200023514A40F2DC5122F8131041
:100460000133082BF7D10BA80021202215F005FB42
:10047000BAF10E0F03D00AF0EF03082B02D10123CB
:100480008DF8403001200CF0F5FF18B140880030A5
:1004900018BF012000F001008DF8310005200CF09C
:1004A000E9FF18B14088003018BF0120C7F34003AE
:1004B0008DF83330C7F380138DF83830C7F34033ED
:1004C0008DF82C30C7F3C03300F001008DF82F30C9
:1004D00017F400638DF8320004D096F88231591E6B
:1004E0004B424B418DF83030C7F300438DF8393023
:1004F000236A2B48003318BF01238DF83A30C7F325
:1005000000538DF83B30B6F84631ADF83E30B6F8C2
:100510005231ADF83C30C7F380438DF83430C7F327
:10052000805349E0C0070020B7C3000800ED00E099
:10053000003802400005FA050000000800000240F3
:10054000FF916700FFC9FE36335F070000040240D9
:10055000000802400010024000140240001802404F
:10056000001C0240002002408C2E0020902E002013
:1005700010E000E03F900200E43A0020A444002094
:1005800060680108FC420020D63C0020CE17002005
:10059000C00E0020C0450020448001080E17002036
:1005A0006C160020B04A00203C430020000C0240A2
:1005B000B4670108004300208DF83530C7F340537D
:1005C0008DF8363096F85431003318BF01238DF87A
:1005D0003730B6F85031ADF84230FA04B6F844314D
:1005E000ADF8443042BFBF4BB3F84C31ADF84430A6
:1005F00007F0010A96F8D43184F82430C7F3C00913
:10060000002164228DF82DA08DF82E9015F035FA7A
:100610009DF84030002B0CBF00230223BAF1000FDD
:1006200002D1B9F1000F00D0013308EB83084FF07D
:10063000000AD8F810309A1E163303920593039AD5
:1006400032F8023F03924FF6FF72934200F0DD81D1
:10065000DAB2190A9DF8393033B11301A248C058F3
:10066000A24B984200F0CC819DF8333053B19E4BA1
:100670009F4F03EB02135868B84203D11B89012B2B
:1006800000F0BE819DF82F3053B1974B994F03EB8B
:1006900002135868B84203D11B89022B00F0B081C5
:1006A0009DF8303053B1904B934F03EB02135868D1
:1006B000B84203D11B89202B00F0A281022902D16C
:1006C0009DF82C3003E0012904D19DF82D30002B3A
:1006D00000F0968184489DF83B304FEA021800EB09
:1006E000080733B19DF840301BB9043A032A40F2A1
:1006F0005F810129CBB256D19DF836303BB99DF8C8
:10070000343023B9BDF84230B3F5FA7F07D950F839
:1007100008207A4B9A4202BF794B0C221A70FF23B1
:1007200084F86C3084F86D306F4BE76703EB080298
:100730004FF00009517B50688DF84E1002F1080B04
:100740001289ADF84C2013A9022284F87090069308
:100750008DF84F2084F82890C4F82C90C4F830907D
:10076000C4F83490C4F8689084F86E9084F86F9060
:1007700011F078FD069B9BF8021053F808004A46DA
:1007800009F096FA38460FF05DFB5E4B5E49C4F8FF
:1007900080305E4BC4F88430C4F8889038460A1D17
:1007A00008F0CEFE2CE1022B46D15FFA8AF21C2122
:1007B00001FB02FC04EB0C094B4A89F871A00121F2
:1007C00089F8701002EB08014FF0000B91F80DE072
:1007D000486889F872B001F108020989ADF84C1037
:1007E00089F87AB013A9C9F87C70CDF81CC08DF8CF
:1007F0004EE006928DF84F3011F034FD3A4B069AD8
:1008000053F8080091785A4609F052FA38460FF02A
:1008100019FBDDF81CC03C493D4AC9F88020614401
:100820003C4AC9F88420C9F888B038460A1D08F047
:1008300087FE0AF1010AE3E0032B40F0B7809DF840
:100840003430DFF8E880B3B39DF8373093B1BDF8AA
:100850004220314BB3FBF2F23846BDF8443098F8F1
:1008600001900C2192B211F028FD2C4B43F8290085
:100870002B4B19E09DF8353098F8019053B1264B79
:10088000BDF84220B3FBF2F238460C2192B2BDF81B
:10089000443003E038460C214FF6FF7211F00DFD95
:1008A0001E4B43F829001F4BC36098F8023008EB39
:1008B000C30819236CE09DF83620CAB338460C21D2
:1008C0004FF6FF7298F8019011F0F7FC134B43F8C4
:1008D0002900154BC36098F8023008EBC3082923A0
:1008E00056E000BFE43A002060680108000C0040B8
:1008F00000080240000402400000024000000140E5
:1009000000000020291E010840080020211F0108C6
:10091000ED1F0108011E0108001BB70070440020F4
:100920009D1F01086D1F0108311F01086C16002072
:10093000BDF8422098F80190B2F5FA7F14D9834BA4
:10094000B3FBF2F23846BDF844300C2192B211F0FC
:10095000B4FC7F4B43F829007E4BC36098F802300B
:1009600008EBC3080D2313E07B4BB3FBF2F23846D0
:10097000BDF84430012192B211F09FFC744B43F852
:100980002900764BC36098F8023008EBC3080923AE
:1009900088F80530724B9A78597803EBC20001321F
:1009A00001710131876059709A7029E0042B27D1B9
:1009B000DFF8AC81BDF83C2098F8023098F8009040
:1009C00008EBC303012183F804903846624B93FB84
:1009D000F2F2BDF83E3092B211F06FFC98F802309E
:1009E00008EBC3020A21517198F8002004EB890931
:1009F00001320133C9F8500188F8002088F802302C
:100A0000039B059A93427FF41AAE554A554B1278D0
:100A100084F87021544A92F800E0AEF117020027E2
:100A2000022A1F709C461AD8E3693B44D3ED007A32
:100A3000F5EE407AF1EE10FA02D1236A63BB26E0AC
:100A40004A4A07EB02080FCB88E80F009CF80030F9
:100A500010370133C02F8CF80030E5D1EDE7444B5F
:100A600013F83E908CF8009003EBCE03D3F804A06B
:100A7000BAF1000FE1D04F45DFDA3C4A3B0103EB0E
:100A8000020853440FCB013788E80F00F3E7394FD2
:100A90003B68DB0426D41FE0374B384A13F83E008E
:100AA000107003EBCE035F68002FF0D00023834269
:100AB000EDDAC3EBC3017A18DFF8CC90D2F800A0CE
:100AC00041F809A001EB09089188A8F8041092796F
:100AD00088F806200133EAE70EF0EF03082B284BD5
:100AE00020D122E09CF80020012AF5D9254B03EB08
:100AF0000212103210339342EED053ED047AB6EE68
:100B0000007A67EE877A43ED047A53ED057A67EE53
:100B1000877A43ED057A53ED037A67EE877A43EDE2
:100B2000037AE7E7BEF10E0F09D11A7842F01002FE
:100B30001A70BEF1180F29D10FF0DAFF26E01A78EB
:100B400022F010021A70BEF1190FF4E7001BB70073
:100B500070440020AD1F010840420F009D1F010896
:100B60006C160020A0440020C00E0020FC0D0020C8
:100B7000448001083C430020287401084C450020B3
:100B800058170020040E00204D4500200FF094FF60
:100B90003B68DFF810B3DFF808A313F4101F02BF9F
:100BA000B54B01221A70049B049A1B7843F004038E
:100BB000137011238DF84E30DBF830304FF0010800
:100BC000022743EA0803504629468DF84F70ADF8D6
:100BD0004C80CBF8303011F045FBA84BA84A1A6086
:100BE00000200CF0B5FDA74B93E80300DBF8303094
:100BF00085E8030043F00803CBF83030139814A9BC
:100C000011F030FBDBF8443043F48053CBF8443030
:100C1000DBF8243043F4805350464FF00309CBF8FF
:100C200024302946A0238DF84E70ADF84C308DF855
:100C30004F9011F017FB504640232946ADF84C3039
:100C40008DF84E7011F00EFB504610222946ADF87B
:100C50004C2005928DF84F908DF84E8011F002FBDC
:100C6000DAF8203023F47003CAF82030DAF82030A4
:100C700043F4A003CAF82030DAF8203023F0706380
:100C8000CAF82030DAF8203043F0A063CAF82030E8
:100C9000DAF8203023F07043CAF82030DAF8203038
:100CA00043F0A043CAF82030DBF8243043F48053EB
:100CB000CBF82430DBF8243023F48053CBF82430F5
:100CC000714B198801F4415141F4457141EA090120
:100CD0001980998B21F4006109044FF00702090C77
:100CE00099831A82198889B241F040011980DBF892
:100CF000403043F48043CBF84030DBF820300AF535
:100D0000806A43F48043CBF8203050464FF40053C0
:100D10002946ADF84C308DF84E708DF84F9011F09B
:100D2000A1FA4FF400415046ADF84C1029468DF819
:100D30004E708DF84F9011F095FA4FF48041504667
:100D4000ADF84C108DF84E702946504F8DF84F90ED
:100D500011F088FA4FF480613846ADF84C102946FE
:100D60008DF84F908DF84E8011F07CFADAF824104F
:100D70004748484D059A21F47001CAF82410DAF862
:100D8000241041F4A001CAF82410DAF8241021F04C
:100D90007061CAF82410DAF8241041F0A061CAF892
:100DA0002410DAF8241021F07041CAF82410DAF87F
:100DB000241041F0A041CAF82410796A21F470612E
:100DC0007962796A41F4A0617962DBF8201041F41C
:100DD0008041CBF82010DBF8201021F48041CBF8C3
:100DE000201001882F6801F4415141F4457141EA16
:100DF00009010180818B21F400610904090C4FF085
:100E0000070381830382018889B241F04001018098
:100E100007F400434FF48051AAF8181003931E4BB7
:100E200004931846002114F028FE049B8DF82890A6
:100E30004FF0000B4FF6FF7217F0020107F4006A43
:100E400009928DF829B08DF82AB08DF82BB02F4675
:100E5000994629D022A9114841F8648D0AF026FC50
:100E60004FF0070389F8008089F801B089F8028003
:100E700089F8033019E000BF28130020B02E0020AD
:100E800005CF0008D467010800300140001002407F
:100E9000003800403C430020E024002000080240CD
:100EA00000000240003802408846039BABB122A9F3
:100EB000022341F8643DAF480AF0F8FB0C230122FD
:100EC00089F8043089F8062008F10103072289F81F
:100ED000058089F807205FFA83F8BAF1000F15D072
:100EE00022A9202341F8643DA3480AF0DFFB022336
:100EF000012289F80C3089F80E2008F1010307223D
:100F000089F80D8089F80F205FFA83F89B4B9C4885
:100F10001A6BDFF86CA242F480021A631A6B42F07B
:100F200004021A635A6C42F480725A640AF002FB9B
:100F300013A80AF0C3FA934B14930025924B159310
:100F4000B8F1010F8CBF4FF480632B4619934FF417
:100F500000631A934FF400531B934FF480731C9358
:100F600050464FF4003313A9CDF85C801D931395C0
:100F7000169518950AF0B3FADAF80030834A43F070
:100F80000103CAF800305168814B0B4043F44033F1
:100F9000804953604B68B8F1010F23F0407394BF50
:100FA0000022012223F4807343EA02234B608A6803
:100FB000794B134043F002038B60CB6A08F1FF3892
:100FC00023F470035FFA88F843EA0853CB6228469B
:100FD000012309EB00029578002D5AD019F800E0A2
:100FE000D2785D1CBEF1090FEDB211D9AEF10A0C39
:100FF000D1F80CA00CEB4C0C4FF0070808FA0CF8D9
:101000002AEA080802FA0CF248EA0202CA600EE074
:10101000D1F810800EEB4E0A4FF0070C0CFA0AFCC8
:1010200028EA0C0C02FA0AF24CEA02020A61062BC8
:101030000ED8013B4A6B03EB83034FF01F0C0CFAF5
:1010400003FC22EA0C020EFA03F313434B631FE086
:101050000C2B0ED8073B0A6B03EB83034FF01F0CDE
:101060000CFA03FC22EA0C020EFA03F313430B639F
:101070000EE0A3F10D02D1F82C8002EB82021F23B7
:10108000934028EA030C0EFA02F34CEA0303CB6206
:101090002B46043010289CD18B68404D43F40073DC
:1010A0008B608B6843F480738B608B6843F0010323
:1010B0008B608B6843F080438B60B5F85831002B10
:1010C00040F06187B5F95A21002A40F05C87B5F9F4
:1010D0005C21002A40F05787DFF8D8803048D8F8E4
:1010E000003096F85F91B3F862A096F86161002134
:1010F0000C2214F0C2FC002114222A4814F0BDFC7A
:101100002948002184F8711114224170033014F031
:10111000B4FC264BC4F8883123200CF0F0FA244AA2
:10112000138823F040031B041B0C1380138823F047
:1011300038031B041B0C43F03003138013889BB24D
:1011400043F0400313806B20802104F0FFFA152444
:1011500096200CF0D4FA7520012113AA04F0E2FACB
:101160009DF84C30712B27D0013C14F0FF04EFD1D7
:1011700035E000BF00040240000002400038024099
:10118000706402404C200140F02400200023014004
:10119000E030FCFF00200140FDF7FFC0E43A0020F2
:1011A000F8460020DC47002031090020DC670108F8
:1011B0000038004020170020564B062283F871218A
:1011C000432283F87421544AC3F87821534AC3F860
:1011D0008021534AC3F88421524AC3F87C21524BE0
:1011E0004C4C00221A7094F87121062A9B4618D1A3
:1011F0004E4B4F4A1A604F4A5A604F4ADA604F4A84
:101200001A614F4804228BF80020082202704D4AD0
:10121000116841F0010EC2F800E09C46CE469146AE
:1012200003E001200CF004FBA0E072460B2A28BF6B
:1012300000224FF0010E0EFA02FE40F202430EEAC7
:101240000303ABB940F2FD330EEA030383B13E4A18
:101250003E4B13603E4B53603E4A4FF0040E82F803
:1012600000E041F0030109224270C9F8001006E0D5
:10127000012A4FF0000ED8D8364A82F800E0D9F89B
:101280000020900706D5304ACDF80CC01268904770
:10129000DDF80CC0304ADCF80030FA211160002281
:1012A00084F88C2102213046039284F88D119847EE
:1012B0002A4B039A1A7095F855210AB18BF8002031
:1012C00095F856210AB123490A7095F8572102B1C1
:1012D0001A70D9F80030224913F0080F44D00FFAE1
:1012E0008AFA64229AFBF2F302FB13A212B207EE0F
:1012F000902AB8EEE77A07EE903ADFED1A6AF8EE38
:10130000E77AE7EE267AB2EE047A67EE877AC1EDE5
:10131000007A2BE0C007002025570008E956000896
:101320007D5700084D570008160D0020DC470020AF
:1013300015590008CD520008B152000890C1793DFE
:1013400048030020D4160020F84600200159000868
:101350003D530008114B002050170020CC0C0020FA
:101360009C0D00208988883C00230B60CE4E33788A
:1013700043F002033370CD4B4FF400425A834FF4D5
:1013800080421A834FF00A0ADFF82093D9F814300C
:1013900083F40043C9F81430D9F8143083F480433F
:1013A000C9F8143019200CF0AAF901200CF0D0F97A
:1013B00019200CF0A4F90AF1FF3A00200CF0C8F94A
:1013C0001AF0FF0AE0D14FF48043A9F818304FF427
:1013D0000043A9F81830B64B9FEDB68A1B681B7BFB
:1013E00000EE103AB8EEC00A4FF01C0920EE080AD1
:1013F0000BF096FAB04B9FEDB17A83ED000AB04B3B
:10140000D3ED047AAF4B67EE887AC3ED007AAE4B2A
:101410001B8807EE903AF8EEE77AC7EE277A9FED41
:10142000AB7AC7EE877AC4ED647A0FF0A3FBA84BC2
:10143000FF211846212214F020FB80F800A003466B
:10144000A448A549D0F800E003901EF0020F4FF029
:10145000010218BF5A70184618BF03230A701EBF36
:101460000B70022383700B781EF0040F4FF01B0CDF
:1014700000F803C003F101021CBFDFF85CC20233B5
:10148000D2B20A701FBF8CF80030914B4FF0030CA2
:1014900003F802C00B78DFF838C21B22C2545A1C72
:1014A000D2B21EF00A0F00F8029003F10202D2B28B
:1014B0004FF01D0900F8029003F10302D2B24FF081
:1014C0001E0900F8029003F10502D2B20A7003F17E
:1014D0000401C9B24FF01F0900F8019010D0042197
:1014E0000CF802109A1DD2B205210CF8021003F17B
:1014F0000801794A0733DBB2117006220CF8032089
:101500003A68754B12F0200F1FBF197801F1010ED8
:1015100083F800E04FF0070E18BF00F801E0110655
:101520000ED519784FF0090E00F801E001F1020E16
:101530000131C9B283F800E04FF00A0E00F801E073
:1015400095F805C0BCF1080F02D0BCF10E0F08D110
:10155000197801F1010E83F800E04FF00B0E00F84E
:1015600001E0197812F4803F4FF00C0900F8019067
:1015700001F1010E1CBFDFF8609102315FFA8EFEAF
:1015800083F800E01FBF89F8001051494FF00E09A1
:1015900001F80E90510741BF197801F1010E83F84F
:1015A00000E04FF0100E48BF00F801E0DFF828E13E
:1015B0009EF8001001F101095FFA89F94FF0120A53
:1015C00012F4806F8EF8009000F801A00CD095F80E
:1015D0001CA2BAF1000F07D002318EF800103C496E
:1015E0004FF0130A01F809A0910541BF9EF80010C1
:1015F00001F101098EF800904FF0150948BF00F87D
:101600000190BCF1180F15D19EF800104FF016098B
:1016100000F8019001F101095FFA89F94FF0170A0A
:1016200000F809A001F103090231C9B28EF8009057
:1016300000F801C0110341BF9EF8001001F1010C38
:101640008EF800C04FF0190C48BF00F801C0D20559
:1016500041BF9EF80020511C8EF800101A2148BF8F
:1016600081541A78511C1970142383540021982234
:101670001A4814F002FA0EF0DEFC194B19491A4808
:1016800019601A4BB5F84E21016019491A800023E0
:10169000184AD8F800E00B70B5F8941113809370D5
:1016A0001FFA81FC28E000BFB04A0020000C024075
:1016B000700D002035FA8E3CA00D00200AE81C4178
:1016C000DC4700208C0D00200C00002000401C4650
:1016D000E1160020D4160020E01600204C3A00202D
:1016E000481400206A3C0020144B00204C140020B9
:1016F00082130020204B00200EF18502DFF80893B2
:10170000A548D9F800A0DFF804B320F813C00AF503
:10171000967A4BF823A00133122BEFD13F68FB04DC
:1017200058BFB5F89CC1A0F806C00EF1D50E1378CD
:10173000F3B992F802C0D3789C4519D2BCF1000FDE
:1017400008D00CF1FF3C0CEB8C0C0CEB8C0C0CF56A
:10175000617306E0013303EB830303EB830303F5BB
:10176000617392F801C00CF1040C9BB220F81C309C
:1017700004327245DBD13B0740F1BB8095F88E31D6
:10178000062B00F2B080DFE803F004070E35506F3F
:101790006F0045F2F05201E042F6F8227F4B1A80CA
:1017A0000EF0E7FC9EE07D4B42F6F8221A8009011C
:1017B0000A2391FBF3F10023A1F5B061784A42F8C6
:1017C00023100133122BF9D1764A77491160774AF9
:1017D000402013700BF088FE002800F08480012365
:1017E0004FF0070A90F90000714A8DE80804402183
:1017F000704B72E0694B42F6F8221A80694B6E4AD0
:101800001A606A4B102240201A700BF06DFE0028FF
:1018100069D001234FF0000C90F90000674A8DE871
:10182000081040214FF4E13357E05C4B42F6F822B8
:101830001A805C4B624A1A605C4B082240201A7086
:101840000BF052FE00284ED001234FF0000E90F90D
:1018500000005C4A8DE8084040214FF4E1330BF072
:101860005BFBC4F894013AE04C4ADFF8A4E1564F20
:10187000564D574842F6F82111804C490C22062B50
:101880000A700ED000232B708EF800303B701B23A3
:101890000370504B1A70504B05221A704FF4E1350B
:1018A0000BE0002129708EF80010397021210170A1
:1018B00048494A4D0A70484A13703A4B484A1A60E0
:1018C00040200BF011FE70B101230027454A90F92A
:1018D000000040218DE888002B460BF01DFB0030F6
:1018E00018BF012028B908200BF042F82D4B3E4AC2
:1018F0001A603E4D2D4A2B6813F4804F1FBF1221F2
:10190000117028493A4818BF086042F20101194095
:1019100003F0010003F4005781B1204944F6206E22
:10192000A1F800E027B1082111701E49314F0F6066
:1019300020B10C2111701B492F480860117804391F
:101940005170190640F19F804FF0000B2B4FDFF8CC
:10195000C4A02B48C4F898A15946152287F801B0B5
:10196000C7F804B0C7F808B014F087F8254A049205
:10197000AAF105035846136007F09AFAD9F8003027
:10198000FB6002200BF0B0FD049A9646002843D17C
:1019900080200AF0EDFF6EE040430020DE0D0020C5
:1019A000942300203001002079AF0008F442002089
:1019B000EDB10008A086010065AF000841B1000844
:1019C0004DAF0008F5B0000821240020202400209D
:1019D00022240020212300202324002090D0030073
:1019E00075AE0008CDAF0008594B01083C430020FC
:1019F000ADAF00084D4B0108BDAF0008B44A002050
:101A00005C090020D44A002044340020CC1300207C
:101A100022230020D63C00207B7890F805C0C849DE
:101A20000C2202FB03125278624504D00133DBB270
:101A3000042BF4D900237B70DEF800307A781B7811
:101A400090F90000002B4FF00C0303FB021314BFAE
:101A50004FF0030E4FF0010E00225B78CDF800E04E
:101A6000019202210BF058FAB64B186000288FD073
:101A7000012007F01DFAD8F80000B34B00F5CB7237
:101A80001A6007F02DFBB14AB14B1360B14ADFF881
:101A90001C93803313602B680027DA0389F80070E9
:101AA00040F1C8804FF00108DFF804A3DFF804B369
:101AB0000DF004FD89F8008040F22A3939464A4683
:101AC000504613F0DAFFA44B1A6B42EA08021A637D
:101AD0001A6C42F008021A641A6B42F400121A637C
:101AE000022358468DF8283009A903238DF82930A0
:101AF000CDF824808DF82B808DF82A7009F0D6FD62
:101B0000DBF8203023F00F03CBF82030DBF8203057
:101B100043F00203CBF82030904B1A8822F00102E8
:101B20001204120C1A801A8822F45C721204120C2D
:101B30001A806822DA621F85A3F814801A8C22F0BA
:101B400001021204120C1A841A8C9888198B22F044
:101B5000020221F0730109041204090C120C41F075
:101B6000600180B242EA0802988019835F631A8498
:101B70001A8B22F008021204120C42F008021A8397
:101B80001A880BF5C04B92B20BF1400B42EA0802E7
:101B90001A80DBF8003023F00103CBF80030584600
:101BA00009F0C8FC13A809F089FC4FF040631393B7
:101BB0006B4B1493402316934FF4806319934FF4A7
:101BC00080531A934FF480431B934FF4403313A96F
:101BD0001D93584604231E93CDF854A0CDF85C9075
:101BE00018971C971F972097219709F078FCDBF82E
:101BF000003043F01003CBF800305A4B4FF4001282
:101C00009A6008A80D238DF820308DF821808DF87A
:101C100022708DF8238009F024FD3946524B1A6852
:101C2000524B43F8212001312029F7D110F03CFA22
:101C300010F03AFA2B685B0555D54D4BD4F8DC848F
:101C4000C3F8008004200BF04FFC0421C4F8E0042A
:101C50000BF024FC474B84F8E4040820C3F8008010
:101C60000BF042FC444B454F186008210BF016FC6A
:101C7000002184F8E5042C22384613F0FEFE8E2362
:101C80007B704FF07C0AE0234FF07D09FB7087F8F2
:101C900000A087F82B903A4F2C220021384613F0F1
:101CA000ECFE8A237B701020A023FB7087F800A035
:101CB00087F82B90C4F8E8840BF016FC1021C4F8C8
:101CC000EC040BF0EBFB84F8F0042020C4F8F4845F
:101CD0000BF00AFC2021C4F8F8040BF0DFFB84F8B9
:101CE000FC040DF07BFA2868264B10F4002218BF84
:101CF00001221A70244B5A79052A194602BF234B38
:101D00004FF4C8721A80224B4FF47A721A80214A1B
:101D1000137843F0080313701F4A137823F002036B
:101D2000137040F602030340002B4AD01B4B1C4AA1
:101D30001A601C4B03221A701B4B01221A703BE0E5
:101D400030A50108A0220020A8140020DC220020D9
:101D5000103D0020D822002000380240000C004036
:101D6000340C004000600240F4670108B62E0020E9
:101D7000E8170020241800206C180020F417002019
:101D80002818002029130020E43A002060140020C5
:101D90003215002058170020D6170020DC24002020
:101DA0005C3C0020F64600204C030020B42E0020AE
:101DB0007109002000000240AA4A00231380AA4AA9
:101DC0001380AA4BAA488A6800682A60012119700A
:101DD0003378033863F07F030A283370A54B38BF8C
:101DE0000A205864039883F84010006883F8A8100C
:101DF000C0F3400083F8740040F602001040003049
:101E000083F8DC1083F84411C2F3C01118BF01201D
:101E100083F87811C2F38021C2F3004283F81001E5
:101E200083F8AC1183F8E02103930BF041FCDFF859
:101E300048B2904CCBF8000004F5027523464FF0F1
:101E4000FF3AD9461A7D062A0CD119699A690A44C3
:101E5000811A002904DA121A924528BF924601E03D
:101E60004FF0000A3433AB42ECD1DFF82082002778
:101E7000D8F8003504930A2639463D46237B5FFA9D
:101E800087FC002B42D062680AB3637D53B1D9F856
:101E90000030E26920699B1AB3FBF0F301339BB277
:101EA00023841EE0D9F80000A369CDF818C0C01A39
:101EB000059190470599DDF818C030B16E4B1B684D
:101EC000E36101232384237D0EE0208410E0A269D6
:101ED000D9F8003020699B1AB3FBF0F39AB2228440
:101EE00032B1227D13FB02F3013301356375ADB2CC
:101EF000049A637D924505D8228C012A02D8227D5E
:101F0000062A03D18B4284BF1946664601370A2F41
:101F100004F13404B2D1D8F80435584A0133C8F872
:101F20000435D8F808350A2E1D44C8F8085528D0BD
:101F3000039BDBF800101670342404FB0634A369FD
:101F4000A161CB1A0021A36261750BF0B1FBA368FC
:101F5000054603B198470BF0ABFB039A342303FB10
:101F60000626401B736AC3EB431303445B09736289
:101F7000336B03443363F36A98422CBFF062F3621D
:101F800053E7167051E71BB208EE103AB6F95A3112
:101F9000DFED3B7A3B4A09EE103AB6F95C31B8EE18
:101FA000C88A08EE903A28EE278AB8EEC99AF8EE69
:101FB000E88A0021B0EE480A29EE279A68EEA78A3F
:101FC00011700AF0ADFCF0EE40AAB0EE480A0AF03B
:101FD00046FCF0EE409AB0EE490A0AF0A1FCB0EEE1
:101FE000408AB0EE490A0AF03AFCB0EE409AB0EEF0
:101FF000680A0AF095FCB0EE40AAB0EE680A0AF052
:102000002EFC60EE2A6A69EE8A7AF0EE665AE7EEF6
:10201000895A1D4B2AEE2A6A29EE807AC3ED035AAB
:10202000F0EE465AE7EE495AE6EE897AA6EE497A8C
:102030002AEE08AA28EE400A69EEC89A28EE2A8AF3
:1020400083ED00AA83ED010A83ED029AC3ED045AE1
:10205000C3ED059A83ED067AC3ED077A83ED088A0E
:10206000FFF73AB82C4700202E4700202813002005
:10207000501700203C010020D84A00200100002019
:1020800035FA8E3C22000020B8240020C007002032
:102090002DE9F04FA24C2378092B9CBFA14A342193
:1020A0002DED108B98BF01FB03238FB094BF9E6A68
:1020B00000269D4D07A8EB6898479DF81C3023B17A
:1020C0002378092B0DD9002310E00BF0F1FA974B80
:1020D0001B68F31A1844964B1B6864339842E8D384
:1020E000EEE7904A342101FB03239B6A914ADFED1E
:1020F00092AA924C924E9BB207EE903AB8EE670AC3
:10210000138060EE2A0A8F4B20460121C3ED000A9E
:102110000AF058F9FCEEC07A894817EE903A23810C
:102120006B68984748B9884B884F1A6812F0020FBD
:10213000984640F0CB8000F017BCD4F80CE0B51EF8
:102140000020834900F1100301EB000C0B446246B0
:102150000EF1FF37002132F8028F22F8028C17F9B6
:10216000019F9A4218FB0911F5D135F8023FACF8EE
:1021700010309EF908201230362813FB02134FF45A
:10218000807293FBF2F32B80DBD16D48714F94F892
:1021900046206A4D014609F005FB3B8805F1940A8B
:1021A000002B6BD0AB6C1B7808EE103A05F14C0895
:1021B0004FF0000958353988B1F57A7F02BF002306
:1021C000C8F800302B61D8F8002036F919301A44CD
:1021D00007EE903A2B69C8F800200133012B4FEA33
:1021E000490BF8EEE77A2B6106D10023C5ED017AA1
:1021F000C5ED007AAB601BE0D5ED006A07EE103A42
:1022000037EEE66AB8EEC77A86EE077A36EE877A58
:10221000D5ED026A85ED017A77EEC77A85ED007A11
:10222000E6EE276AF0EE667AC5ED036AC5ED026A4E
:102230000023012926F80B302AF80B302AD12B690C
:10224000012BC3BF03F1FF3300EE103AD5ED037A43
:102250009FED410AC4BFB8EEC00A87EE800A13F0B2
:10226000C1FE18EE103A5BB1F8EEC87AB4EEE70A98
:10227000F1EE10FA04DD4FF47A733B8000231AE08C
:10228000D8F800304FF47A7203F5FA7393FBF2F347
:102290002AF80B3009F10109B9F1030F08F104081C
:1022A00005F1140587D13888012801D10BF06EFAA9
:1022B0003B88013BE1E736F813203AF81310521A35
:1022C00026F813200133032BF5D12CE7234B1B7881
:1022D000002B00F049830BF0EBF9D4F89C30C4F8E4
:1022E0009C00C31A0FEE903A0025D4F8A0A0DFF8A6
:1022F00074909AF80010B9B337F91530184800EE09
:10230000103AF8EE6F0AB8EEC00A00EBC50060EEB6
:10231000AA0A0AF057F8FDEEC07A17EE903A25E0C7
:10232000010000203C010020DC470020D84A0020AA
:1023300050170020D0160020BD378635D00C002065
:10234000081700201C440020D4160020E04A00207A
:10235000E00C00203215002000000000104B00208F
:10236000740D00200217002037F8153029F81530B9
:102370000135032DB9D1D8F80030BD4A13F0080F4C
:1023800008D0B2F9001029B1B2F9021011B1B2F9B6
:10239000041091BBB749097801F0100000F0FF0567
:1023A00080B313F020052DD001F0020303F0FF05E8
:1023B00043B3B14B1B78042B23D9B04B1B88B3F527
:1023C000967F1ED3AE4BB3F9043007EE903AAD4B77
:1023D0001B88B8EEE77A07EE903AF8EEE77AB2EEAD
:1023E000048A87EE888A01254FF0000B77EE487A41
:1023F0009FEDA58A27EE888A07E000254FF0010BA4
:1024000001E00025AB469FEDA18AB6F90030B2F895
:102410000080978808EE903AB6F90230F8EE6F7AAD
:1024200009EE903A67EEAAAAF8EEE99AD4ED2F7A6F
:10243000B6F90430568869EEA79AF8EEE88A09EEF4
:10244000103A68EEA78A29EEA90AB9F90030B8EE69
:10245000C99AA8EEA80A0CEE103AB9F9023029EE92
:10246000279A0CEE903AB9F90430A9EE090A0DEE5C
:10247000103A13F0B7FDB8EECCCAF8EEECCAB8EEDD
:10248000CDDAB0EE40EA15B3DFED817AB4EEE78A3B
:10249000F1EE10FA04DDDFED7F7A38EE678AF3E7BC
:1024A000DFED7D7AB4EEE78AF1EE10FA04D5DFEDC8
:1024B000797A38EE278AF3E7B6EE000A28EE000AAA
:1024C0000AF0CDF99FED71BA30EE0BBA01E09FED45
:1024D0006FBA9FED6EAADFED71DA714DF7EE00BABB
:1024E000BBF1000F53D00FFA88F807EE908A33B291
:1024F000B8EEE7FA08EE103A2FEE0F0AB8EEC88AE7
:102500003FB207EE907AA8EE080AF8EEE7EAAEEEE0
:10251000AE0AB4EEED0AF1EE10FA38DD13F062FD0A
:102520008BEE800AD5ED017A95ED007A28EE008ACF
:102530002FEE00FA68EE277A6EEE80EAE7EE0F7A69
:1025400095ED040A95ED027A28EE008AE7EE2E7AE0
:1025500095ED037AA7EE0F8A95ED057AA7EE2E8A00
:1025600028EE080AA7EEA70A13F03CFDD5ED067A7F
:1025700020EE480AB0EE4A8AA7EE808AD5ED077AA7
:10258000A7EE80AAD5ED087AA7EE80BA01E0B0EEFA
:102590004A8A2CEEAC0AACEE0C0AADEE0D0AB4EE93
:1025A000ED0AF1EE10FA21DD13F01CFD8BEE800A2E
:1025B000D5ED076A95ED087A2DEE00DA6CEE80CA4B
:1025C00066EECD7A2CEE00CAECEE877A27EE4C7AD6
:1025D00038EE278AD5ED067AADEE277A67EEEC7AEB
:1025E0003AEE07AAECEE267A3BEE27BADAED017A4C
:1025F000F5EEC07AF1EE10FA4FF000031FDD9FED0B
:10260000297AB4EEC7EAF1EE10FA1ED567EE886AB1
:1026100094ED307AA6EEAA7A67EE8A6A84ED307A73
:1026200094ED317AA6EEAA7A67EE8B7A84ED317A50
:1026300094ED327AA7EEAA7A84ED327A05E0C4F8F6
:10264000C030C4F8C430C4F8C830174EDAED027A8E
:10265000337859072CD4154B1A6844F61F639A42F5
:10266000F7EE006AB2EE047A88BFB0EE667A21E037
:10267000D017002058170020591700206617002097
:102680003C1700206817002035FA8E3C000000003F
:10269000DB0F4940DB0FC940DB0F49C00AD7233CA1
:1026A000D0450020C2B8B23ED617002044340020E6
:1026B000B7EE007A27EE877AD4ED307ADFF85083D0
:1026C000C74AD8ED005ADFF84CB392ED005AC54F17
:1026D0000492E7EE087A97ED006A9FEDC38A78EEE0
:1026E000A78AD4ED317AE7EE0A7A79EEA79AD4ED8B
:1026F000327AE7EE0B7AB1EE467A39EE279AF6EEA9
:10270000007A6AEEA77A69EEA79A29EE279A69EE0F
:10271000E56A25EE890A68EEA78ADBED007AA5EE68
:10272000280AE7EEE86AA7EE290AE7EE096A29EE29
:10273000677A37EE800AA5EE297A67EEA97A75EEF8
:10274000266AA6EE287AE5EE097A8BED000A20EEDD
:10275000000A35EE877AA6EEA60AE5EEE87AA7EE3D
:10276000070A76EE277AC2ED006AA7EEA70A88ED7F
:10277000007AC7ED007A13F035FC8BEE800A049ADC
:10278000D2ED007AD7ED00BA67EE807AC2ED007A1A
:10279000DBED007A67EE807ACBED007AD8ED007A37
:1027A00067EE807A2BEE800AC8ED007A87ED000A8A
:1027B0000EF0E0F9D5ED080A95ED070A8B4F13F0FE
:1027C0000FFC20EE080A13F067FB95ED060A38802F
:1027D000B1EE400A13F0A6FBDFED857A37EEC00AB2
:1027E00020EE080A13F058FBD5ED000A95ED030A18
:1027F000788013F0F5FBD4ED337AE0EE487AB0EE52
:10280000670A13F049FB83B21A0458BFBB80D5EDA9
:10281000085A784BD4ED347A1A7895ED010A95ED83
:10282000065AF4EEE75A44BF00F56160B880F1EE55
:1028300010FACCBF42F0080222F008021A70B9F96F
:102840000030D5ED007A06EE103AB9F9023007EE05
:10285000103AB8EEC77AB8EEC66AB9F9043027EE76
:10286000000A06EE903AA7EE860A9AF80130F8EED2
:10287000E66AD5ED027AA7EEA60A012BD5ED077A16
:1028800067EE277AE5EE067AE5EEA67AD5ED045AEC
:1028900027EE257AD5ED035AA5EE867A95ED056AE1
:1028A000A6EE267AF1EE478A18D133785D070FD469
:1028B000D4F8D430402293FBF2F29B1A07EE103A80
:1028C000B8EEC77A37EE277ABDEEC77A84ED357A4F
:1028D000D4F8D430402293FBF2F301E0464B1B883E
:1028E00094ED368A07EE103AB8EEC77A77EEC77ADB
:1028F00094ED377A3AEE877A77EEC87ACAEE87AAED
:10290000AAEEA78A84ED368A13F0C6FAD4F8E0500E
:10291000297809F095FFD4F8E430B0EE680A18443D
:10292000C4F8E40013F0B8FA297809F089FFD4F864
:10293000E830B0EE480A1844C4F8E80013F0ACFAE6
:10294000697809F07DFFD4F8EC302C4A18441FEE6A
:10295000901A1368C4F8EC001944D4F8F0301160F0
:102960000133C4F8F03003E000233B807B80BB8060
:10297000234BB3F90610234BD3F800E0BEF80A202E
:1029800091420FDBB1F5FA6F9EF80750BDBF8B1A6D
:102990006B43A2F5FA65C5F16405BCBF93FBF5F581
:1029A000643500E06425184B184AB3F894C193F9D4
:1029B0005E31126804929BB2164605930022104BBA
:1029C00033F91280CCEB080303F2F31440F2E63043
:1029D00084424FEA42091FD8002BB8BF5B421DE07A
:1029E00034010020CC4500204C3D0F443C17002012
:1029F000DB0FC93F581700200C00002054130020A3
:102A00004043002054170020E43A00202017002003
:102A1000C8450020C44500204FF4FA73022A049CE4
:102A20004FF064002AD094F81D411CB1A342CCBFE2
:102A30001B1B0023B64C93FBF0F76FF0630B34F8CD
:102A400017A00BFB073B013734F917400FFA8AF741
:102A5000E41BB04F04FB0BF494FBF0F4544427F850
:102A600009400EEB020424796343AB4C93FBF4F36F
:102A700064339BB26B4393FBF0F02CE094F81E415F
:102A80001CB1A342CCBF1B1B0023A44C93FBF0F052
:102A90006FF0630A0AFB003B04EB400704EB4000C5
:102AA000B7F9F470B0F9F600C01B00FB0BFBBDF8E2
:102AB00014009BFBFAFBC7EB0B0717FB00F79548CD
:102AC00087809EF80600002BB8BF5B4243439248C4
:102AD00093FBF0F064307478914B6427444394FB8B
:102AE000F7F49C5403F1030AF47A444394FBF7F49B
:102AF0000AF802400633747D022A00FB04F0854C7C
:102B000090FBF7F09854874B0DD1E0459F700DDB9B
:102B1000854EB6F89621914214DBB1F5FA6FA8BF45
:102B20004FF4FA610FE0E0459D5404DA34F80930BF
:102B30005B4224F809300132032A06F101067FF4D2
:102B40003EAFE5E71146DFF818E2724D891A4FF4FF
:102B50007A736FF063005943C2F5FA626423B1FBE4
:102B6000F2F191FBF3F23EF8127000FB0211013218
:102B700038B23EF91220121A514391FBF3F33B4451
:102B8000E3806A4B1B8858063AD5694BDFED697ABA
:102B9000B3F904300A2293FBF2F3604AB2F80C2135
:102BA0009B1A1BB208EE103AB8EEC88A28EE278AA4
:102BB000B0EE480A09F0B4FEF0EE408AB0EE480AE2
:102BC00009F04DFEB5F9023006EE903AB5F9003045
:102BD000F8EEE66A07EE903A20EE667AF8EEE77ACB
:102BE000A7EEA87A67EE807ABDEEC77AE6EEA87AFD
:102BF00017EE103AFDEEE77A2B8017EE903A6B80D5
:102C000096F89A31002B51D0444B1A89B3F80E0133
:102C1000B0FBF2F0484A451C1278ADB2A3F810514F
:102C200012B3B3F8129100233C4F34F813C007F5E8
:102C30008E7E07F58A783EF8132038F813102EF8A8
:102C400013C0C2EB0C0A11FB09F12AB291FBF2F29C
:102C5000524428F813200133042BE5D1364BA7F852
:102C6000120100221A7004E0B3F81221013AA3F80D
:102C700012212A4AB2F8120103B2002B4FF00003CE
:102C800012DDB2F910512D4931F81320083112FB31
:102C900000F231F8131092FBF5F28A1A24F813208F
:102CA0000133042BEFD101E0A2F81231244BDFF8FD
:102CB000B4901A78234F12F0040F04D0224B4FF433
:102CC00080425A835FE03968C9075CBF42F0010265
:102CD0001A701E4A127812075EBF1A7822F001029B
:102CE0001A701B4A11881B4A19B1D9F800108D07B8
:102CF00006D41949098819B918480088642833D9B5
:102D0000022111701A7822F001021A7032E000BF1D
:102D10007E2E0020084400200CFEFFFFD00C002077
:102D2000D20D002010440020E43A0020D8160020E4
:102D30003C17002035FA8E3C30150020E40D0020B1
:102D4000D6170020DC160020000C02405817002087
:102D500060140020444B002032150020F44600206F
:102D6000662E0020D41600201B78D80756BF0223F9
:102D7000117013700AF09CFCAA4B1B68C01A002843
:102D800001DB11F037FFA84B9B680BB1A7489847B0
:102D9000A74B1B78ABB1A74BB3F90620B6F8963119
:102DA0009A420EDCA44B5B79012B01D0192B02D186
:102DB00096F8E6212AB90E2B03D0082B1CBF00235E
:102DC000A3809E4B04931A6892F824519DB39C4BA8
:102DD0001B889A072FD09B4BDFED9B7A93ED080A57
:102DE000B4EEE70AF1EE10FA21D913F09BF8974BF5
:102DF000D3ED497A20EE270A13F04EF8B0F5617F43
:102E0000A8BF4FF4617007EE900AB8EEE70ADFED55
:102E1000907A80EE270A09F022FD07EE905AF8EE2C
:102E2000E77A27EE800A13F037F880B200E000203E
:102E3000E3881844E080D9F800309B0640F1A08078
:102E40007F4B1B8803F03003002B00F09980814BEF
:102E50001B78DD0740F194807F4BDFED807AB3F97A
:102E60000430DFF82C920A2293FBF2F308EE103ABA
:102E7000B8EEC88A28EE278AB0EE480A09F0EFFCBF
:102E8000F0EE408AB0EE480A09F04AFD744B754AEC
:102E90001B6893F80380B0EE409AB2EE048AB8F152
:102EA000000F49D0DFF8ECB1B2F90200BBF80250D4
:102EB00005922BB2C01A06F0B7F8C8F10003984289
:102EC000059A03DB4045A8BF404600E01846284469
:102ED000BBF8005005931FFA80FAB2F90000ABF876
:102EE00002A02AB2801A06F09FF8059B984203DBE5
:102EF00040450346A8BF43461D44ADB2ABF8005061
:102F00002DB207EE105A0FFA8AF307EE903AB8EE98
:102F1000C70AF8EEE77A28EEC07A20EE090AA7EE93
:102F2000897AA7EEA80A87EE087ABDEEC77A17EE6F
:102F3000103AA9F800301BE0B2F9023007EE103A5F
:102F4000B2F9003000EE103AB8EEC00AB8EEC77A17
:102F500068EEC07A20EE090AE7EE097AA7EE280AA1
:102F6000C7EE887AFDEEE77A17EE903AA9F80030BE
:102F700080EE080AFDEEC07A17EE903AA9F802300A
:102F8000049BB6F86A211868374B0093374B1D68CD
:102F9000374B196800F16403A847364B2B491D785D
:102FA000354B032D18D9D1F82821B2F802E0BEF52F
:102FB000FA7F11D2B4F90460B3F904C0002EB8BF8F
:102FC0007642CEF10000821B944504DB0EEB060234
:102FD0006245A8BF62469A803F68DFF8BCE0274E92
:102FE00017F0006F06D1264A106841F21D02024018
:102FF000002A53D0234AD1F828A192ED004A224A50
:103000009EED005AD2ED003AB3F800E0B3F802C0EA
:10301000B3F90480D6ED004A1C4A00210B4608464D
:103020000CE100BF484B0020DC470020E2170020E5
:103030000400002040430020E43A00202017002034
:10304000D8160020D04500208FC2753CD00C00203F
:10305000EFB6B044581700203C17002035FA8E3CDC
:10306000A81400202C1500206A3C00200800002035
:1030700054170020A0440020444400200C480020A5
:103080003C4300201848002014480020FC0D00207C
:10309000F445002028150020104800209EED005A1D
:1030A000DFF83CE3C3489EED004ADFF838E30270E6
:1030B000D6ED004ADEED003AD1F82891E0881E886E
:1030C000B3F802E0B3F904C0BB49AA4280F03F81E3
:1030D00099F90030DFF8F0825B420CFB03F317F044
:1030E000805F07EE903A32D00FFA8EF306EE103A78
:1030F000F8EEE76AF7EE007A37EEE37A03B2B8EE5D
:10310000C66A05EE903A33B227EE066A37EEE47AE5
:1031100007EE903AF8EEE77A9FEDA83A67EE277A45
:1031200091ED007AE5EE037AF8EEE55A67EE877ADC
:1031300011ED017AA4EE036AE5EE877A91ED017A4A
:10314000E6EE077A91ED027AE6EE877A23E033B273
:1031500006EE903A03B206EE103A0FFA8EF307EE3F
:10316000103AD1ED015AB8EEC77AB8EEC66A27EE2A
:10317000257A51ED015AA6EE257AF8EEE66A91ED30
:10318000006AA6EE867AF8EEE77AD1ED026AA7EE3B
:10319000A67AF0EE477AFDEEE77A103117EE903A14
:1031A00028F81230013290E79AF90060764208FB65
:1031B00006F617F0805F0DF11C0907EE906A40D00B
:1031C0000FFA8EF606EE106AF8EEE76AF7EE007A6E
:1031D00037EEE47AB8EEC66A0FFA8CF627EE066A86
:1031E00037EEE37A07EE906AF8EEE77ADFED735A8E
:1031F00067EE277AA5EE256AE4EE257A92ED027A4B
:1032000067EE877A92ED017AE6EE077A92ED037A1D
:10321000E6EE877A0FFA83FBFDEEE77A17EE906A07
:1032200029F8106007AE36F810600FFA86F9D94514
:1032300024DD33460E46013010323146A842B3D366
:1032400022E00FFA8CF606EE906A0FFA8EF607EE81
:10325000106A92ED016AB8EEC77AF8EEE66A27EED8
:10326000067A92ED026AA6EE867AF8EEE77AD2ED59
:10327000036AA7EEA67AF0EE477ACBE70FFA81FB56
:10328000D945D8DB1E46D4E74D4A4A4812685788CC
:1032900016885B1AB91B89B20AB21BB293424FF06F
:1032A000000214DD4FF0010E80F800E0AA420BD2BC
:1032B0000DF11C0E3EF8120010FB01F090FBF3F034
:1032C0002EF812000132F1E7B6B2BBB207E002708D
:1032D000022193FBF1F3F218FB1A96B29BB2E78836
:1032E0000021A94233D207AA364832F9112007EE4D
:1032F000902A3AB206EE902A00EB0110B8EEE77A77
:10330000F8EEE66AD0ED007A32B266EEA76A07EE12
:10331000902AF8EEE77AF4EEE76AF1EE10FA0BD4B1
:103320001AB207EE902AF8EEE77AF4EEE76AF1EEC9
:1033300010FAD8BFF0EE667A77EE277A2248FDEED3
:10334000E77A17EE902A20F811200131C9E71F4BC8
:103350001F4F1A7802F0040202F0FF030AB93A780C
:1033600073E01C4B1C4DDB7804931C4B186810F069
:10337000006039D12A6841F21D031340BBB9124ADB
:1033800097F800E01388012171451EB207D232F987
:103390001130B342B8BF33469BB20131F4E7084A5B
:1033A0001268528896421FDD9A1A92B21DE00246B8
:1033B0001BE000BFF8450020000E002000007A440A
:1033C00048450020FC0D002024170020D6170020BF
:1033D000A0440020204B00203C430020DC160020AD
:1033E000184800201448002000229B492B68B1F99E
:1033F00006509A4997F800B0D1F8ECE1984941F2AB
:103400001D0C03EA0C0C03F480580E68954903F078
:1034100010030593944B096803EB4B0B5B450BD0F2
:10342000002840F04484BCF1000F40F056841F880F
:10343000BF1A1F8000F051BC884D95F8F031013B58
:10344000DBB2182B00F2448109E09342F4D28749A1
:1034500031F81300844921F813000133F5E7012204
:103460009A40834B1340002B00F03281814B7A4904
:103470001B8813F4807F07D02388ADF81C30638845
:10348000ADF81E30A38815E07B4B1A88ADF81C20E0
:103490005A88ADF81E20794A9B881268ADF8203012
:1034A000D00409D5D5F8EC21B1F90600D2899042B3
:1034B00002DA5B42ADF82030714CB4F902304FF4BF
:1034C0007A7203F5E16353434FF4616093FBF0F3C9
:1034D000A3F5FA73ADF83430B4F9003003F5E163C5
:1034E0005A43614B92FBF0F21B88A3F2DC53ADF818
:1034F00022305A4BA2F5FA72D3F8EC31ADF83620EF
:10350000DB890A88D21AADF824204A88D21AADF88D
:1035100026208A88D21AADF82820CA88D21AADF897
:103520002A200A89D21AADF82C204A89D21AADF87D
:103530002E208A89D21AADF83020CA89D31AADF864
:10354000323000234F4A002122F813100133082B98
:10355000F8D14D4A4D4B126804924D4A1B781268BF
:103560004C4905924C4E072202FB031B594500F0C3
:1035700095800B7833B103F1150201239340049A2F
:10358000134065D011F806CC059B11F805AC11F875
:10359000034C11F8018CCCEBCC0E03EB4E0E6420E7
:1035A000BEF90020BEF902309B1A9BB211F9022C21
:1035B0004FEA53095A434FEA4A0792FBF0F20EA82A
:1035C000C9EB020292B2074414B937F81C0C0CE0A4
:1035D000B6F9000037F91C7CB84208DA044484428A
:1035E00003DBA7423846A8BF2046308008E007DD4D
:1035F000041BBC4203DB8442A8BF04462746378035
:10360000DEF80A4011F9047C012000FA0AF0204299
:10361000308812B217FB00F014BF4FF0FF340124C2
:10362000642790FBF7F090420ADB4FFA88F25A4386
:1036300092FBF7F2C9EB020212B28242A8BF024625
:10364000104B33F81C9002FB049423F81C4000E05C
:1036500033800236073189E740430020D00C002038
:10366000444500204845002024170020CE46002075
:1036700099209801D8160020444400203C430020A3
:103680003C1700200E170020DC1600204C450020BF
:10369000E022002053450020C20E0020964B974F99
:1036A000D3F8008000260E2202FB068237F8023F84
:1036B00092F90640F0B214FB03F3642493FBF4F494
:1036C0003C800DF03DFA01362044082E3880EAD1C6
:1036D0008B4B8C4E1A68884F12F0200F984632D0D0
:1036E00000200DF02DFA3080044601200DF028FA5C
:1036F000854B70801B68190625D5844B844AD3F806
:1037000014321B78012B22D13968138891F914E007
:10371000B2F902201EFB03F34FF0320C93FBFCF3D3
:103720001FFA83FE91F906305B4253436FF031017B
:1037300093FBF1F10EEB0102A11893FBFCF3734430
:10374000318018447080D7F800E0002318E0D7F8E3
:1037500000E053889EF9061011FB03F1322391FB20
:10376000F3F12144318011889EF9142012FB01F2FB
:1037700092FBF3F21044E5E70133082B325311D0EA
:103780000E2101FB03E136F91300B1F90020B1F974
:10379000021090424FEA4304EEDB0AB28242A8BF15
:1037A0000246E9E7594CD4F828A19AF90830A3B9A0
:1037B00094F8F09109F1FF33182B72D8DFE803F089
:1037C0003571714F71717148717171717159717188
:1037D0007171714F657171593500DFF820B14FF08B
:1037E00000094C4B3BF9021FBAF90620882000FB68
:1037F00009300CF0CDFF3A680E2380B203FB09229A
:10380000ABF80000B2F90030B2F9022000B29842E1
:1038100003DB13B28342A8BF034609F10109B9F1E2
:10382000080FABF80030DCD1C2E79AF8043013B1CE
:103830000020718908E0384B1B7803F0040303F083
:10384000FF00002BF4D101460EF0FEFB012729E01A
:103850000020F1880EF0F8FB0120318905E00020FE
:1038600031890EF0F1FB718901200EF0EDFB02278A
:1038700018E00227B81E36F81710C0B201370EF054
:10388000E3FB082FF6D106270CE00327F81E36F8D5
:103890001710C0B201370EF0D7FB072FF6D104275F
:1038A00000E00027D8F800309A0602D4B9F1050FDD
:1038B0000AD1384631880EF0C7FB781CC0B2718837
:1038C0000EF0C2FB0237FFB2D8F80030DB0205D49D
:1038D00094F8583623B30DF073F821E0DFF83C90EC
:1038E0000026B819C0B239F8021F0EF0ADFB0D2E3C
:1038F000EED00136F5E700BFE02200200C170020D3
:103900003C4300200E170020DC160020D00C0020C5
:103910003C170020E80E0020D61700204643002068
:10392000A44B1878002840F00B82D8F800301E0312
:1039300040F1068295F85936023B052B19D89E4B6B
:1039400093F800382BB99D4BD3F85C0603689B684D
:103950009847D5F8603695F864261344B3F5807F10
:10396000A8BF4FF480738342D4BFC5F86036C5F852
:10397000600694F85936023B082B00F2E181DFE83B
:1039800013F009003F0065007B009300A5004F0184
:103990006D017A018A4B1A68D4F86C3664339A4206
:1039A00040F2CE8140200DF0BFFC002840F0C881DD
:1039B0004027844BD4F86826804E985C1D4670B131
:1039C0000AF030FBD6F86036013BC6F86036D6F810
:1039D0006836013F03F10103C6F86836E9D1D4F82F
:1039E0006826764BAA5C002A40F0AA81C3F86826B4
:1039F0004FF0FF32C3F86C26032283F859269FE16B
:103A000024230093704B019303F10C02029249208E
:103A1000A3F10A02502102330AF090FE002840F080
:103A20008F81D8F8003013F080034FF0FF3205D0BB
:103A3000C5F86806C5F86C26042304E0C5F86836A6
:103A4000C5F86C26062385F8593679E15F4A0223CA
:103A50000021009301910291482002F108030AF02D
:103A60006DFE002840F06C814FF0FF33C5F86C36D6
:103A7000C5F868060523E6E707230093544B019336
:103A800003F10C0202924720A3F108020021043343
:103A90000AF054FE002840F053814FF0FF33C5F880
:103AA0006806C5F86C36CDE74A4A05230021009325
:103AB00001910291532002F108030AF03FFE002811
:103AC00040F03E81C4F868060723DEE040200DF098
:103AD0002BFC002840F03481D4F868360C2B00F21F
:103AE000DC80DFE803F0070B0E1219252A2F33378D
:103AF0004550540038480DF013FD54E0374838491C
:103B000013E038483849394A4BE02B4B384893F892
:103B1000FE1793F8FF2744E0274B364893F8D82741
:103B20000C2101FB023393F8DA170DF0F9FC3AE0AF
:103B3000214B3148B3F84011F7E71F4B2F48B3F83A
:103B40004211F2E72E4B2F481969EEE72E4B2F4812
:103B50001988EAE7D4F87036D80404D5164B2C48F7
:103B600093F87811E1E7154B0B22C3F868261AE0A9
:103B7000114B284893F87C1193F87D2193F87B3101
:103B80000DF0CEFC0FE02448B4F87416CDE7D8F859
:103B90000030190507D5084B2048B3F88011B3F958
:103BA0007E210DF0BDFCD4F868360133C4F86836C8
:103BB000C6E000BFE4220020E43A0020D00C002040
:103BC00044340020206901088A690108306B01082B
:103BD000486B0108946B0108BC6B0108D66B0108A7
:103BE000EB6B0108F36B0108076C0108136C01080B
:103BF0001C6C01082D6C0108376C0108466C01082B
:103C0000DC470020556C01080C000020656C0108A1
:103C10006F6C01087C6C0108956C0108A06C0108B0
:103C20004A4B1B689A0116D5B4F87836484D93B9BB
:103C3000D5F87C360793474B0E201B68089307A9DD
:103C40000AF0B8FA4FF48053A5F87636092385F8C0
:103C500059360AF007FB0AF08FFA71E094F88036C3
:103C6000002BF6D0394B1B689B01F2D4384B08224D
:103C700083F85926EFE7384B1A68D4F86C36C83306
:103C80009A4205D90DF06EFB012384F8593657E0AE
:103C90000DF082FB0028F5D152E00DF07DFB0028ED
:103CA0004ED04FF48053A4F876360923EDE7B8F1EF
:103CB000000F15D0BEF80E70B3F90090BD42CBBF17
:103CC00077888F88B1F802A0B6F800A0B94524DB48
:103CD000D1454F46A8BF57461FE0B8F1000F20D18D
:103CE000049FB1F80290B3F900A03FB18F88BA45A4
:103CF00013DBCA455746A8BF4F460EE00F88BA45AA
:103D000003DBCA455746A8BF4F461F80BEF8107058
:103D1000BD4203DA059F0FB18F881F800233FFF782
:103D20007DBBBEF80E90F788C7EB090A5545C1DD8B
:103D30004F44BD42BEDA4D45CCBF77883788ECE7AB
:103D40000FB0BDEC108BBDE8F08F00BFDC1600207B
:103D5000D00C0020D84A0020443400202DE9F04F38
:103D6000A249A34C0A6802F59C432DED028B203337
:103D70002360A04B87B01E780091C6B19E490968A8
:103D80008A4240F20481013E1E7000E1D9F8003001
:103D90009A48072D98BF595D994B88BF29461B68E3
:103DA0009847032D0CD904EB45050136A880934BA9
:103DB000DFF874921A78F5B2AA421846E6D820E0E5
:103DC000D9F8002005F10E0302EB8303D9881A8984
:103DD0000028E8D04FF47A73401A5843531A90FBE6
:103DE000F3F040F6C90300F57A70984205DC40F222
:103DF000EE239842B8BF184601E040F6CA0080B2F0
:103E0000D1E7804B804A1B6842F2010803EA0808A8
:103E10007E4BB8FA88F84FEA58181B68B8F1000FC3
:103E200005D194F82810117079494D780D701778E4
:103E30001FB1774A177887F0010794F82AB090F8F5
:103E400000A00F220326BBFBF6F606EB460684F81D
:103E50002920C6EB0B06D9F80020DFF8D491F6B282
:103E60000025554559DA4FEA450C1FB1694931F82B
:103E7000150000E03846D18ADFF8B8E1814202D867
:103E8000118B81421ED25EF825005949834203D22C
:103E9000614931F80C0019E0E8B2029201930391F4
:103EA00010F05CFE032D019B029A0FDC03994FF08A
:103EB000010C91F829E00CFA05FC2EEA0C0E81F8B1
:103EC00029E003E003F596714EF82510B8F1000FD4
:103ED0001CD194F8BC1029F8160031B9BBF1020FBF
:103EE00014D94349012081F8BC00B9F80210B9F88F
:103EF00000000844B9F804100844484980B221F889
:103F0000150000B2032190FBF1F080B2424909F1A3
:103F1000060921F815000135A3E794F829203B494B
:103F20003F4BA2F10F0EDEF1000242EB0E0284F8CD
:103F3000D6206AB13B4A1268570109D40A68D96889
:103F40009A60521AC82A1DD9012283F8212019E04B
:103F50002F4A0120507010700A689968DA605B6817
:103F6000521A9A4282BF2E4B002283F8212000254C
:103F7000554507DAE8B210F0F1FD274B23F815009C
:103F80000135F5E794F82A30013384F82A301D4BC7
:103F90001A6812F4805F984605D0224B1B68DE0732
:103FA00001D410F067FB009B19681F4B1F68BB7A98
:103FB000002B41D0013B18483A7B30F813301AB13E
:103FC000C3F53B6308339BB21BB2A3F57A73B3F519
:103FD0007A7FA8BF4FF47A7323EAE37307EE903A2F
:103FE0009FED127AF8EEE77A5FE000BFD84A002032
:103FF000581300201C4B0020184B0020F4420020D6
:10400000300100203C430020482F00204434002091
:10401000020000205C130020404300201614002002
:10402000204B0020DC160020144B002000007A44B6
:1040300084130020CC130020D8F80020150440D5AC
:10404000D4F8D800934E081A00283ADB924A01F5BA
:104050009C402030C6F8D8005079904A32F8105071
:10406000A8B2FD7A90FBF5F596F8DC00013000F07F
:104070000F0286F8DC20324482F8DD501A46884868
:10408000185C01330244102B92B2F8D112B292FBA9
:10409000F3F31BB2642BA8BF642323EAE37307EE98
:1040A000903A9FED807AF8EEE77AC7EE877A7E4AFB
:1040B0009FED7E7A67EE877AFCEEE77A17EE903A0C
:1040C0001380D8F800307A4D13F4807F00F0098116
:1040D000784BDFF8E491994205D999F8022012B99A
:1040E000012289F8022099F80220002A00F0F980C4
:1040F000714A2F7892F82160704A701E464211680A
:104100004641002EC1F38063C7F3800700939246B7
:1041100014BF4FF0000B4FF0030B99F82020052A35
:1041200000F2D980DFE802F0034D527584A1002F20
:104130003AD0D4F8F000B4F8F41009F074FA012879
:1041400009D15F495F4A09681268C988642000FB89
:104150000122C9F81020009B6BB1594A12681279EC
:104160004AB10FF0C3FE032289F820204FF47A727F
:10417000C9F81C20D1E7002E40F0AD80514AD9F893
:10418000101010684C4A88420AD901920FF0AEFE16
:10419000019A032182F8201040F6B831D161BCE7C2
:1041A000012182F82010B8E7009B4FF4806013B122
:1041B00008F0CEFB01E008F0BBFB0022C9F810209C
:1041C00089E0002E46D10FF091FEA6E726B1052228
:1041D00089F82020012000E0304667B1D4F8F020B3
:1041E000D189394A118051809180354909684988BF
:1041F000D1804FF0020B334A1168D9F81420914254
:1042000001D8002F64D147F23052C9F81C20032294
:1042100021E02A7842F002022A7010F02BFA294A93
:10422000D9F81C1012680A44C9F81820042212E0B8
:10423000244A9EB11168D9F8182091424BD9234ADB
:1042400092781AB9DAF80020D10744D42A7822F0FB
:1042500002022A70052289F820205EE71268D9F848
:104260001C100A44C9F8182035E01549154A096898
:104270001268C988642000FB0122C9F810204FF49D
:104280008060002289F8202089F8032008F050FB84
:1042900043E700BF58130020E0240020F024002052
:1042A000351400200000C8424817002000C07F4499
:1042B000D6170020404B4C00204B0020DC1600207D
:1042C0001C4800204434002040430020020000200D
:1042D00000287FF422AFBBF1000F02D0584609F04E
:1042E00055FAA54E06F5C370B6F84E1109F09BF9C4
:1042F000814600282ED1A14BA14F1B6813F0006A04
:1043000008D0FB7833B90BF0ADFF9E4B012818BFE6
:10431000002018702B785A0709D5D8F80030DB0632
:1043200005D4BAF1000F02D0FB78002B2FD0964AAB
:104330000023136053609360944A00211160516020
:104340009160934A126802F57A72C4F8F82001224B
:10435000FA701AE0D8F80030DF0618D42B78580726
:1043600015D5864B1B68190111D5854FFB7863B1B4
:10437000874B1A68D4F8F8309A4208D90BF072FFCC
:1043800028B9804BF870187001E07E4A13702B78C2
:104390005A0736D5D8F80030DB0632D57D4B1B786E
:1043A000DF062ED4764B9B7893B196F8E031B9F1C5
:1043B000000F15D17BB1764B1A68D4F8FC309B1AEC
:1043C000002B08DA10F056F9734B83F8009118E0CF
:1043D000B9F1000F0DD1102009F0D8F901230EE03A
:1043E0003BB16B4A12684FF47A7101FB0323C4F8A6
:1043F000FC3094F8003123B109F0B0F9002384F8BF
:104400000031002296F8DEB196F8DF11B6F896E199
:10441000B6F898C113466148009030F912709B08B5
:104420007745C4BF63F07F03DBB201326745B8BF95
:1044300043F04003042AEED194F8012156489A42F1
:1044400005D190F80221F92A04D8013200E00022B7
:1044500080F802214A4884F8013183784E4A474F58
:1044600082462BBB3868C0070AD582F80331B9F100
:10447000000F1DD12B78DB071AD50FF055FF17E081
:104480002B78580714D5464B1B788BB1454BDB78FE
:1044900073B992F803310133DBB2032B82F8033195
:1044A00006D911B110F0E6F802E0B9F1000FF9D029
:1044B00094F80231384ADFF8F490142B40F0A080D1
:1044C0009AF802301BF1000B18BF4FF0010B6BB3D1
:1044D00092F801315F2B11D12B7803F0040303F024
:1044E000FF0113B110F0C6F808E00B200291019211
:1044F00009F04CF9019A029982F80211BBF1000F00
:1045000014D094F801317D2B10D12B7803F00403E3
:1045100003F0FF0213B110F0ADF807E00B20019299
:1045200009F034F91C4B019A83F802212B7803F02F
:10453000040303F0FF01002B62D194F80131164A05
:10454000572B0AD1184B4FF47A721A80D8F80030E2
:104550001B0655D504F026FE52E0D8F800004007AF
:1045600033D55A2B31D192F804310BB3012382F8A1
:10457000041182F8053143E0E43A0020DC16002003
:1045800002000020F94500202C440020B8470020FC
:1045900044340020581700205813002040430020C6
:1045A000482F0020204B002032150020201700202B
:1045B00092F8063183F0010382F806310BB10C202A
:1045C00000E00D2009F0E2F81AE05D2B00F0B48461
:1045D0005B2B00F0B3845E2B02D1032000F0AFBC54
:1045E000562B01D108F07AFC9AF80230002B00F02B
:1045F000BB8494F801316F2B40F0B0840FF094FE2F
:10460000D8F800305A0736D594F80631B84A93B135
:104610002B785B070FD5009BB3F90610B6F89631DF
:10462000994208DD3B6813F0010302BF3221A2F872
:104630000A1182F806313B68D8030DD594F80C2195
:10464000AB4B2AB993F8042112B93222A3F80A21FC
:10465000012384F80C310EE094F80431A44A53B1DC
:104660002B7803F0040303F0FF0123B9012382F840
:10467000041182F80531D9F800A000233B600AF14B
:1046800087090AF1D70B99F8002099F8013019F839
:10469000010C9A420BD2494608F08EFF38B119F846
:1046A000022C012303FA02F23B6813433B6009F139
:1046B0000409D945E7D18F4B1B785BB18E4BDFF8EE
:1046C00054B21A68DFF850A212F0020F994640F077
:1046D0003B8332E30AF1D6070AF58F793A787B7883
:1046E00017F8010C9A4225D2394608F065FF08B345
:1046F000BB7897F804C0814A97F803A07C480C2146
:10470000013B01FB0C4103EB43031344D1F814219B
:104710009A420FD0C1F81431002390F84021C1F81B
:104720001831012303FA0CF322EA030381F810A1E4
:1047300080F8403106374F45D0D1714B1F68714B1F
:104740001B680293704B1B780393704B01930023FB
:104750000093019B1A68002A00F0E48292F800A0FE
:10476000BAF1000F00F0DE825B680299CB1A002BD1
:104770000CDB01F5FA7301994B60009901238B4022
:1047800094F8401121EA030384F84031039B002B85
:1047900000F0C882019B517813F8043C0433DBB26B
:1047A000002940F07E825A4931F91310B6F894314D
:1047B00003F1C800814202DD92F802B015E0C83B67
:1047C000994203DA9178C1F1000B0EE0009A0123BF
:1047D000934094F8402122EA030384F84031029B7D
:1047E000019A03F5FA7353609CE294F84031009A01
:1047F0001341D90700F19682BBF1000FCCBF022014
:10480000012008F0FDFF0AF1FF33DFF8E490132BDD
:1048100000F28082DFE813F01400250037004B001F
:1048200064008800EB004E01B501E30113027E0233
:104830004B005A008800EB004E01BD0020018501AD
:1048400097F80090D944B9F1FA0FA8BF4FF0FA09D0
:1048500029EAE979384687F8009008F097FE0120A8
:104860000FE097F80190D944B9F1640FA8BF4FF059
:10487000640929EAE979384687F8019008F086FE4C
:1048800002204946D8E197F803A0DA44BAF1640F50
:10489000A8BF4FF0640A2AEAEA7A87F803A03846EC
:1048A000D9F8441108F028FE03205146C4E1797973
:1048B00059446429A8BF642121EAE17179710D206E
:1048C00008F0E2FEBAF10D0F00F024823979594464
:1048D0006429A8BF642121EAE17139710E20ABE19E
:1048E000B979594481F30801B9710520A4E100BFE9
:1048F00058130020E4220020DC160020A56D0108DA
:104900005417002044340020482F00206C1400204D
:1049100040430020D4160020D816002000007A441E
:104920000000C84200000000D9F848311A78022A75
:1049300020D107EE90BAB8EEE70A5FED077A93ED63
:10494000097A80EE270A30EE070AB5EEC00AF1EECA
:1049500010FA07D4B4EE670AF1EE10FAC8BFB0EE51
:10496000670A01E01FED110A83ED090A0F2008F024
:1049700075FE0AE099785944C829A8BFC82121EAE0
:10498000E17199700F2008F07FFEBAF10F0F00F06F
:10499000C181D9F848311A78022A1ED107EE90BA9F
:1049A000B8EEE78A5FED227A93ED080A88EE278A4F
:1049B00038EE000AB5EEC00AF1EE10FA07D4B4EEF4
:1049C000670AF1EE10FAC8BFB0EE670A01E01FED0A
:1049D0002B0A83ED080A122056E159785944C82958
:1049E000A8BFC82121EAE1715970122024E1D9F849
:1049F00048311A78022A20D107EE90BAB8EEE70AB9
:104A00005FED397A93ED0C7A80EE270A30EE070AD3
:104A1000B5EEC00AF1EE10FA07D4B4EE670AF1EE73
:104A200010FAC8BFB0EE670A01E01FED420A83ED3D
:104A30000C0A102008F012FE0AE0197B5944C8291C
:104A4000A8BFC82121EAE1711973102008F01CFEEB
:104A5000BAF1100F00F05E81D9F848311A78022AB5
:104A60001ED107EE90BAB8EEE78A5FED537A93ED68
:104A70000B0A88EE278A38EE000AB5EEC00AF1EE7E
:104A800010FA07D4B4EE670AF1EE10FAC8BFB0EE20
:104A9000670A01E01FED5D0A83ED0B0A1320F3E0C6
:104AA000D97A5944C829A8BFC82121EAE171D9722D
:104AB0001320C1E0D9F848311A78022A22D107EE32
:104AC00090BA1FED6A0AF8EEE77A87EE800AD3ED16
:104AD0000F7A30EE270AB5EEC00AF1EE10FA09D4CB
:104AE0005FED717AB4EE670AF1EE10FAC8BFB0EE6E
:104AF000670A01E01FED750A83ED0F0A112008F027
:104B0000ADFD0AE0997D5944C829A8BFC82121EA12
:104B1000E1719975112008F0B7FDBAF1110F00F09D
:104B2000F980D9F848311A78022A20D107EE90BAD4
:104B30001FED860AB8EEE78A88EE008A93ED0E0A2A
:104B400038EE000AB5EEC00AF1EE10FA09D45FEDB6
:104B50008C7AB4EE670AF1EE10FAC8BFB0EE670ABD
:104B600001E01FED900A83ED0E0A14208CE0597DC0
:104B70005944C829A8BFC82121EAE17159751420F8
:104B80005AE0D9F848311A78022A1ED107EE90BAB5
:104B9000B8EEE78A5FED9E7A93ED0A0A88EE278ADF
:104BA00038EE000AB5EEC00AF1EE10FA07D4B4EE02
:104BB000670AF1EE10FAC8BFB0EE670A01E01FED18
:104BC000A70A83ED0A0A09205EE0D9785944C8296A
:104BD000A8BFC82121EAE171D97009202CE0D9F8D9
:104BE00048311A78022A1ED107EE90BAB8EEE78A49
:104BF0005FEDB57A93ED0D0A88EE278A38EE000A4C
:104C0000B5EEC00AF1EE10FA07D4B4EE670AF1EE81
:104C100010FAC8BFB0EE670A01E01FEDBE0A83EDCF
:104C20000D0A0A2030E0597B5944C829A8BFC82181
:104C300021EAE17159730A2008F026FD6AE0D9F8EB
:104C400048311A78022A22D107EE90BA1FEDCD0A18
:104C5000B8EEE78A88EE008A93ED100A38EE000A73
:104C6000B5EEC00AF1EE10FA09D45FEDD37AB4EED6
:104C7000670AF1EE10FAC8BFB0EE670A01E01FED57
:104C8000D70A83ED100A0B2008F0E8FC42E0D97D3A
:104C90005944C829A8BFC82121EAE171D9750B2060
:104CA000CAE7012936D19078C04A32F91390B9F594
:104CB000617F05DB40F633039945A8BF994601E0C3
:104CC0004FF46179BAF10C0F24D1B94A4FF49663CD
:104CD00093FBF0F01378A9F5617999FBF0F95FFA8D
:104CE00089F94B4516D0B9F1040F34BF4B46022366
:104CF0001370B04A0AFB036303F2DA73136007F020
:104D00000DFF5046494608F0BFFC09F10100C0B252
:104D100008F076FD009A0123934094F84021134354
:104D200084F84031009B01330093019B0C330193C5
:104D3000009B042B7FF40DADC0E4D8F80030DA05F9
:104D40000FD59D4BDB7863B1DBF800309B0708D5AE
:104D5000BAF8003013F0010708D1012007F0F8FD80
:104D600004E0012007F0E4FD012300E00023D9F86E
:104D7000002057070BD553B1012007F0D9FDBAF831
:104D80000030980706D4022007F0E2FD02E002207E
:104D900007F0CEFDBAF80070884B17F0030F4FF400
:104DA000004214BF5A831A83DBF80030990609D4F5
:104DB000D9F800301A0540F18D804FF4807007F06B
:104DC000C7FD8BE07E4B1B789B074ED57D4B1B7838
:104DD000042B4AD9D9F8003013F4007B07F01007F0
:104DE0000CD0B7BB102007F0B3FD202007F0A0FDCA
:104DF0007548011D04F02AF9022326E0BFB22FB145
:104E0000102007F095FD012784F84CB1D9F8003047
:104E1000580512D5D4F850316C495A89B1F900308F
:104E2000002BB8BF5B42934207DAB1F90230002B86
:104E3000B8BF5B429342C0F2FC80BAF800309906DA
:104E400008D5202007F074FD002384F84C31012799
:104E500000E0002794F85431A3B90E2008F096FC26
:104E60005B4B012283F854210CE017F0300F9FD0E8
:104E7000102007F05DFD202007F05AFD002384F884
:104E80004C3101E0002F93D0524B002003F1280E4B
:104E900003F15007504A002122F810104F4A596080
:104EA00022F810100432CEF8041022F8101000225C
:104EB0001A609A60CEF80020CEF808203A60796037
:104EC000BA6014330EF1140E143700287FF470AF5B
:104ED0000120DFE74FF4807007F02AFD7379082B7B
:104EE00001D00E2B02D1402007F022FDD8F800306F
:104EF0005A0519D596F81C321BB92B7813F0040FFC
:104F000003E0D9F8003013F4002F09D0344B00220D
:104F10001A703C200BF072F930B10DF031FCF8E75B
:104F20000AF05CF90BF087F8012384F8D83107B058
:104F3000BDEC028BBDE8F08F012000E002205FFA9B
:104F400080FA0AF1FF3386F8D83707F051FD07F0F1
:104F500009FE504608F054FCFFF752BBBBF1000FAE
:104F600002D07E2B3FF44AAB94F80131972B06D147
:104F7000174B4FF4C872A3F80821FFF741BBA72BCA
:104F800006D10F4A137843F004031370FFF738BBC0
:104F90000022BB2B059201D1022303E0B72B21D1C4
:104FA0004FF6FE73ADF8163027E000BF40430020F7
:104FB000CC46002054170020204B0020000C02405B
:104FC00058170020591700207017002008440020AF
:104FD00058130020B0140020F445002028150020AC
:104FE000F9420020BE2B01D1022304E0BD2B7FF447
:104FF00007AB4FF6FE73ADF81430D9F80030BDF8AA
:105000001410B3F864200A44A3F86420BDF8161005
:10501000B3F866200A44A3F8662007F0E9FC07F01D
:10502000A1FD012008F0ECFB002384F80231FFF71A
:10503000E7BABAF800309B063FF50CAF202007F026
:1050400087FC0748074B011D1A685B6843600260D4
:1050500003F0FCFF044B012783F84C71FAE600BF14
:10506000781700205C170020581300208F4A13681F
:10507000988A80B2C1B270B5CE072ED5198821F4B6
:1050800000610904090C1980198889B241F4806112
:10509000198000211171517999B1917911B9D179A2
:1050A000FF290ED101219171117A022901BF1988BE
:1050B00089B241F400611980517A41F001011982ED
:1050C000DFE0517A01F0FE011982D379FF2B00F065
:1050D000D880764BFF211971D3E08D073AD5BFF305
:1050E0005F8F107AC0B2012813D1517989B19179BB
:1050F00079B1198821F480610904090C1980BFF382
:105100005F8F198B1988907289B241F400711980F0
:105110001BE0198BBFF35F8F107A644902280AD114
:10512000487940B1897931B1198821F48061090445
:10513000090C19809FE0107A5C49032805D1487951
:1051400018B18979002940F09680998889B241F494
:10515000806195E04C0754D5012191725179002965
:1051600036D09179002933D0117A18880229117923
:105170001CD920F480600004000C18801C8AD568BB
:10518000C8B249B2E4B26C54198889B241F40071D2
:105190001980811C11710130198A40B2C9B2295499
:1051A000998889B241F48061998026E080B240F408
:1051B000007018801C8AD568C8B249B2E4B26C5439
:1051C000411C1C8A49B2E4B203306C54107114E0E3
:1051D0009179364809B9017C41B1198889B241F405
:1051E0000071198011790131117106E0198889B2B5
:1051F00041F480711980012181711988C905FCD49D
:105200003FE001F0400101F0FF04E1B110791E8A96
:10521000D568C4B240B2F6B22E54611CC9B2157A38
:10522000117149B2C81C854201BF988820F4806082
:105230000004000C08BF9880137A8B4221D11B4BCD
:1052400002341C711DE006061BD5117948B2451CBD
:105250000AD05469205C18820131C9B2107A1171E8
:1052600049B288420DD106E0D17919825179147181
:1052700009B9117A29B9998821F480610904090CC6
:105280009980117A92F90400084B013188420CD1BF
:1052900000219971997A31B119688B8823F4407390
:1052A0001B041B0C8B800023137670BD341500206B
:1052B000054B5A7E02F0FF0122B10122027000224A
:1052C0005A7670470170704734150020194B73B53A
:1052D0009D7E0446EDB9184B06215E6818786A4633
:1052E000B04718B39DF800209DF8013043EA02232F
:1052F00023809DF802209DF8033043EA0223638057
:105300009DF804209DF8053043EA0223A38001257F
:105310000CE00222D96991FBF2F10180196A5B6A03
:1053200091FBF2F193FBF2F341808380284602B0B7
:1053300070BD00BF341500203409002013B50446A9
:1053400072B6104B06215B686A463B20984762B6EE
:10535000A8B19DF800209DF8013043EA0223238084
:105360009DF802209DF8033043EA022363809DF8F4
:1053700004209DF8053043EA0223A380012002B0F7
:1053800010BD00BF340900202DE9F0438A4E336878
:105390009A8A89B092B20192019A12F4706F1CBF7E
:1053A000012286F82820019A12F4E06F00F089812A
:1053B0001A8B9A8822F480621204120C9A80019A45
:1053C000950500F17E811A88940500F17A811A888A
:1053D000D00540F16B811A88D105FCD41A8892B2AD
:1053E00042F400721A801A889205FCD496F829209B
:1053F000714B0AB9714A03E0012A0CBF704A714A25
:105400001A6034686D484FF6FF730222012184420E
:1054100002938DF80C208DF80D208DF80E108DF86C
:105420000F10654B3DD1684D684F002283F829204D
:1054300028464FF400724FF480710AF0BFFC3B6BBA
:1054400043F002033B633B6C0DF1200843F400136F
:105450003B644FF4807348F8183D2846414606F0F7
:1054600025F94FF4007328464146029306F01EF9D1
:105470006B6A23F00F036B626B6A43F004036B6289
:105480006B6A23F0F0036B626B6A43F040036B625C
:105490003B6A43F400133B623B6A23F400133B6214
:1054A00098E0474884423FD1474D484F83F8291040
:1054B0004FF4006228464FF480610AF07FFC3B6B9A
:1054C00043F002033B633B6C0DF1200843F480037F
:1054D0003B644FF4806348F8183D2846414606F087
:1054E000E5F84FF4006341462846029306F0DEF8E3
:1054F0006B6A23F470636B626B6A43F480636B6264
:105500006B6A23F470436B626B6A43F480436B6293
:105510003B6A43F480033B623B6A23F480033B62B3
:105520004FF02208212758E026498C4252D1284FBB
:10553000264D83F82920384610224FF480710AF056
:105540003DFC2B6BDFF8808043F002032B632B6C58
:105550000DF1200943F400032B644FF4807349F8E4
:10556000183D3846494606F0A1F810234046494602
:10557000029306F09BF87B6A23F00F037B627B6A41
:1055800043F004037B62D8F8203023F47023C8F87A
:105590002030D8F8203043F48023C8F820302B6A1C
:1055A00043F400032B622B6A23F400032B62482789
:1055B0004FF0490811E000BF3415002000540040AE
:1055C00000580040005C00400004024000380240E7
:1055D000000002401F274FF02008A38823F44073E7
:1055E0001B041B0CA38023889BB243F00103238080
:1055F000A58825F03F052D0404A82D0C06F08EF893
:105600000699364BB1FBF3F31D43ADB2A58022885A
:1056100022F001021204120C2280314AB1FBF2F195
:1056200000298AB208BF012242F400414FF4967269
:1056300053434FF47A7293FBF2F301339BB223840A
:10564000A18323889BB243F001032380238823F4A2
:10565000816323F002031B041B0C43F4806323804B
:105660004FF4804323810025012404A88DF8108085
:105670008DF811508DF812508DF8134005F0F1FFA0
:105680009DF813308DF810708DF811508DF8125070
:105690001BB104A805F0E5FF13E07B09203307F0F8
:1056A0001F07104ABC4042F823400AE01A8892B211
:1056B00042F400721A809A8822F440721204120C8A
:1056C0009A803268938A23F470631B041B0C9382C4
:1056D0000023337609B0BDE8F08300BF40420F00DD
:1056E000804F120000E100E02DE9F0410C4C4FF436
:1056F000806580466583012017460E4607F0F4FF5B
:1057000048F080000AF032FB314638460AF0FCFAD5
:105710002583012007F0E8FF0120BDE8F08100BFEC
:1057200000100240F8B5084C4FF4806517460E464D
:10573000658340F080000AF019FB384631460AF0D4
:10574000E3FA25830120F8BD00100240F8B50A4CA9
:105750004FF480650746658301200E4607F0C4FFBD
:1057600038460AF003FB30460AF000FB258301208F
:1057700007F0BAFF0120F8BD0010024073B50D46D6
:105780000646FFF7E3FF642007F0AEFF152430461E
:1057900001210DF10702FFF7A7FF9DF80730AB428B
:1057A0000CD029463046FFF7D1FF013C642007F0BA
:1057B0009BFF14F0FF04EAD1204600E0012002B074
:1057C00070BDF0B5454D95F82A3085B0002B40F0FE
:1057D0008280434B1B68002B7DD01A681AB1414967
:1057E000086B02430A639A889868ADF80020002687
:1057F000022269468DF803208DF802600CF032FD1C
:10580000384B39485A6C42F008025A645A6C42F4D8
:1058100080425A6403274FF4806302A90124029353
:105820008DF80C608DF80E608DF80F408DF80D70BE
:1058300005F03CFF2D4B1A6922F470621A611A6957
:1058400042F440721A61D3F8002422F48062C3F853
:105850000024D3F8042422F48062C3F80424D3F88B
:10586000002442F48062C3F80024D3F8082422F410
:105870008062C3F80824D3F80C2422F48062C3F8B1
:105880000C241B4A136843F48063136001A8282387
:105890008DF804308DF805708DF806708DF807408E
:1058A00005F0DFFE134B59681A4629B1DB6823B1B6
:1058B000304607F0BDFF07E00C4602EBC4030E497B
:1058C0005960282302F834300C4B4FF480625A613F
:1058D000012385F82A3005B0F0BD00BF3415002043
:1058E0004809002000380240000C02400038014006
:1058F000083C0140902E0020115A0008003C014055
:1059000008B5FFF75EFF024B4FF480521A8008BDC6
:105910000C000020394AD38813B5394C0133D380A9
:10592000FFF74FFF94F82B30002B3AD1354A1388FC
:1059300023F040031B041B0C1380138823F038034F
:105940001B041B0C43F03003138013889BB243F0FD
:105950004003138080216B20FFF7F8FE322007F010
:10596000CEFE01216B20FFF709FF18211B20FFF756
:1059700005FF07211A20FFF701FF234B1920197893
:10598000FFF7FCFE10211C20FFF7F8FE1221372044
:10599000FFF7F4FE38200121FFF7F0FE012384F821
:1059A0002B301A4C174A00232380138823F040031E
:1059B0001B041B0C1380138823F038031B041B0CDF
:1059C00043F00803138013889BB243F04003138015
:1059D0006846FFF77BFC9DF90230013303D19DF946
:1059E0000030013302D023889BB223B1002306206C
:1059F000238007F01DFF02B010BD00BFC6170020B6
:105A000034150020003800404C0900204A340020A2
:105A1000804B5A6952052DE9F34740F1F7804FF466
:105A200080625A617C4C7D4E07F042FED4F8C8304B
:105A3000C4F8C800C31A962B0546338008D9E36A18
:105A40001F2B0EDC04EB8302012111630B4407E0E2
:105A5000E36A1F2B05DC04EB830200211163013391
:105A6000E362E26A6C4B202A6ED1996B5A6B890013
:105A700041EA42011A6B0A43D96B42EAC102196C2E
:105A800042EA0112596C42EA4112996C42EA8112CF
:105A9000D96C42EAC112196D42EA0122596D42EAFB
:105AA0004122996D42EA8122D96D42EAC122196EE2
:105AB00042EA0132596E42EA4132996E42EA81323B
:105AC000D96E42EAC132996FB2805A6F890041EAB9
:105AD00042011A6F0A43D96F42EAC102D3F880101B
