:020000040800F2
:10000000000400205513000835650208E5100108BA
:10001000D9130008D9130008D91300080000000004
:100020000000000000000000000000004165020820
:100030004D6502080000000059650208B568010816
:10004000D9130008D9130008D9130008D9130008E0
:10005000D9130008D9130008D9130008D9130008D0
:10006000D9130008D9130008D9130008D9130008C0
:10007000D9130008D9130008C1540008D913000887
:10008000D9130008D9130008D9130008D9130008A0
:10009000D9130008D9130008D9130008796801089A
:1000A000655E0008D9130008D9130008D9130008A9
:1000B000F15D0008055E0008D9130008F12700086B
:1000C000E527000809280008FD270008D9130008C3
:1000D000D913000851530008D913000875550008BA
:1000E0006D680108D913000865650208D913000876
:1000F0004D5E0008D9130008355E0008D9130008CA
:10010000D9130008D91300081D5E0008D913000890
:10011000D9130008D9130008D9130008D91300080F
:10012000D9130008D9130008D9130008D9130008FF
:10013000D9130008D9130008D9130008D9130008EF
:10014000D9130008D9130008D913000899650208CB
:10015000D9130008DD5600089D5200089157000889
:10016000D9130008D9130008D9130008D9130008BF
:10017000D9130008D9130008D9130008D9130008AF
:10018000D9130008D913000881F0004102E000BF34
:1001900083F0004330B54FEA41044FEA430594EA47
:1001A000050F08BF90EA020F1FBF54EA000C55EA82
:1001B000020C7FEA645C7FEA655C00F0E2804FEA53
:1001C0005454D4EB5555B8BF6D420CDD2C4480EA35
:1001D000020281EA030382EA000083EA010180EA65
:1001E000020281EA0303362D88BF30BD11F0004FB3
:1001F0004FEA01314FF4801C4CEA113102D04042E9
:1002000061EB410113F0004F4FEA03334CEA133323
:1002100002D0524263EB430394EA050F00F0A7803B
:10022000A4F10104D5F1200E0DDB02FA0EFC22FA36
:1002300005F2801841F1000103FA0EF2801843FA2A
:1002400005F359410EE0A5F120050EF1200E012A1B
:1002500003FA0EFC28BF4CF0020C43FA05F3C01859
:1002600051EBE37101F0004507D54FF0000EDCF1D2
:10027000000C7EEB00006EEB0101B1F5801F1BD37B
:10028000B1F5001F0CD349085FEA30004FEA3C0C7F
:1002900004F101044FEA445212F5800F80F09A8075
:1002A000BCF1004F08BF5FEA500C50F1000041EB79
:1002B000045141EA050130BD5FEA4C0C404141EB7D
:1002C000010111F4801FA4F10104E9D191F0000FA4
:1002D00004BF01460020B1FA81F308BF2033A3F127
:1002E0000B03B3F120020CDA0C3208DD02F1140C1E
:1002F000C2F10C0201FA0CF021FA02F10CE002F159
:100300001402D8BFC2F1200C01FA02F120FA0CFC51
:10031000DCBF41EA0C019040E41AA2BF01EB04519A
:10032000294330BD6FEA04041F3C1CDA0C340EDC98
:1003300004F11404C4F1200220FA04F001FA02F3DB
:1003400040EA030021FA04F345EA030130BDC4F199
:100350000C04C4F1200220FA02F001FA04F340EA8E
:100360000300294630BD21FA04F0294630BD94F03F
:10037000000F83F4801306BF81F480110134013D26
:100380004EE77FEA645C18BF7FEA655C29D094EA97
:10039000050F08BF90EA020F05D054EA000C04BF15
:1003A0001946104630BD91EA030F1EBF0021002000
:1003B00030BD5FEA545C05D14000494128BF41F09F
:1003C000004130BD14F580043CBF01F5801130BD03
:1003D00001F0004545F0FE4141F470014FF000008E
:1003E00030BD7FEA645C1ABF194610467FEA655C3F
:1003F0001CBF0B46024650EA013406BF52EA0335E1
:1004000091EA030F41F4002130BD00BF90F0000FCE
:1004100004BF0021704730B54FF4806404F132040A
:100420004FF000054FF0000150E700BF90F0000FC3
:1004300004BF0021704730B54FF4806404F13204EA
:1004400010F0004548BF40424FF000013EE700BFBA
:1004500042004FEAE2014FEA31014FEA02701FBF4A
:1004600012F07F4393F07F4F81F06051704792F01C
:10047000000F14BF93F07F4F704730B54FF4607496
:1004800001F0004521F0004120E700BF50EA0102E1
:1004900008BF704730B54FF000050AE050EA01028E
:1004A00008BF704730B511F0004502D5404261EBFE
:1004B00041014FF4806404F132045FEA915C3FF43F
:1004C000DCAE4FF003025FEADC0C18BF03325FEAD8
:1004D000DC0C18BF033202EBDC02C2F1200300FA8D
:1004E00003FC20FA02F001FA03FE40EA0E0021FAB2
:1004F00002F11444C1E600BF70B54FF0FF0C4CF49C
:10050000E06C1CEA11541DBF1CEA135594EA0C0F51
:1005100095EA0C0F00F0DEF82C4481EA030621EA8C
:100520004C5123EA4C5350EA013518BF52EA0335C7
:1005300041F4801143F4801338D0A0FB02CE4FF079
:100540000005E1FB02E506F00042E0FB03E54FF0A9
:100550000006E1FB03569CF0000F18BF4EF0010EA1
:10056000A4F1FF04B6F5007F64F5407404D25FEA9D
:100570004E0E6D4146EB060642EAC62141EA555150
:100580004FEAC52040EA5E504FEACE2EB4F1FD0C92
:1005900088BFBCF5E06F1ED8BEF1004F08BF5FEA10
:1005A000500E50F1000041EB045170BD06F00046C2
:1005B00046EA010140EA020081EA0301B4EB5C046F
:1005C000C2BFD4EB0C0541EA045170BD41F4801167
:1005D0004FF0000E013C00F3AB8014F1360FDEBF8C
:1005E000002001F0004170BDC4F10004203C35DA68
:1005F0000C341BDC04F11404C4F1200500FA05F3EB
:1006000020FA04F001FA05F240EA020001F000428B
:1006100021F0004110EBD37021FA04F642EB060101
:100620005EEA430E08BF20EAD37070BDC4F10C042B
:10063000C4F1200500FA04F320FA05F001FA04F2EF
:1006400040EA020001F0004110EBD37041F10001DB
:100650005EEA430E08BF20EAD37070BDC4F12005E6
:1006600000FA05F24EEA020E20FA04F301FA05F24E
:1006700043EA020321FA04F001F0004121FA04F2F6
:1006800020EA020000EBD3705EEA430E08BF20EAC6
:10069000D37070BD94F0000F0FD101F00046400000
:1006A00041EB010111F4801F08BF013CF7D041EA82
:1006B000060195F0000F18BF704703F00046520086
:1006C00043EB030313F4801F08BF013DF7D043EA57
:1006D0000603704794EA0C0F0CEA135518BF95EA0D
:1006E0000C0F0CD050EA410618BF52EA4306D1D194
:1006F00081EA030101F000414FF0000070BD50EAB3
:10070000410606BF1046194652EA430619D094EA3C
:100710000C0F02D150EA013613D195EA0C0F05D126
:1007200052EA03361CBF104619460AD181EA03017A
:1007300001F0004141F0FE4141F470014FF0000032
:1007400070BD41F0FE4141F4780170BD70B54FF0CD
:10075000FF0C4CF4E06C1CEA11541DBF1CEA13554D
:1007600094EA0C0F95EA0C0F00F0A7F8A4EB05042F
:1007700081EA030E52EA03354FEA013100F0888026
:100780004FEA03334FF0805545EA131343EA1263EF
:100790004FEA022245EA111545EA10654FEA0026A4
:1007A0000EF000419D4208BF964244F1FD0404F55D
:1007B000407402D25B084FEA3202B61A65EB0305B9
:1007C0005B084FEA32024FF480104FF4002CB6EB76
:1007D000020E75EB030E22BFB61A754640EA0C00F6
:1007E0005B084FEA3202B6EB020E75EB030E22BF36
:1007F000B61A754640EA5C005B084FEA3202B6EB77
:10080000020E75EB030E22BFB61A754640EA9C0035
:100810005B084FEA3202B6EB020E75EB030E22BF05
:10082000B61A754640EADC0055EA060E18D04FEAC3
:10083000051545EA16754FEA06164FEAC30343EA63
:1008400052734FEAC2025FEA1C1CC0D111F4801F30
:100850000BD141EA00014FF000004FF0004CB6E729
:1008600011F4801F04BF01430020B4F1FD0C88BFC8
:10087000BCF5E06F3FF6AFAEB5EB030C04BFB6EBD3
:10088000020C5FEA500C50F1000041EB045170BDC6
:100890000EF0004E4EEA113114EB5C04C2BFD4EBF3
:1008A0000C0541EA045170BD41F480114FF0000E77
:1008B000013C90E645EA060E8DE60CEA135594EAF3
:1008C0000C0F08BF95EA0C0F3FF43BAF94EA0C0FF6
:1008D0000AD150EA01347FF434AF95EA0C0F7FF46B
:1008E00025AF104619462CE795EA0C0F06D152EABF
:1008F00003353FF4FDAE1046194622E750EA4106A3
:1009000018BF52EA43067FF4C5AE50EA41047FF4B3
:100910000DAF52EA43057FF4EBAE12E74FF0FF3C18
:1009200006E000BF4FF0010C02E000BF4FF0010CE9
:100930004DF804CD4FEA410C7FEA6C5C4FEA430C62
:1009400018BF7FEA6C5C1BD001B050EA410C0CBFB1
:1009500052EA430C91EA030F02BF90EA020F002013
:10096000704710F1000F91EA030F58BF994208BF7A
:1009700090422CBFD8176FEAE37040F00100704737
:100980004FEA410C7FEA6C5C02D150EA013C07D18E
:100990004FEA430C7FEA6C5CD6D152EA033CD3D0D9
:1009A0005DF8040B704700BF8446104662468C46D3
:1009B0001946634600E000BF01B5FFF7B7FF002806
:1009C00048BF10F1000F01BD4DF808EDFFF7F4FF2F
:1009D0000CBF012000205DF808FB00BF4DF808EDBA
:1009E000FFF7EAFF34BF012000205DF808FB00BFDD
:1009F0004DF808EDFFF7E0FF94BF012000205DF8FF
:100A000008FB00BF4DF808EDFFF7CEFF94BF0120B3
:100A100000205DF808FB00BF4DF808EDFFF7C4FFAC
:100A200034BF012000205DF808FB00BF4FEA4102FF
:100A3000B2F1E04324BFB3F5001CDCF1FE5C0DD93C
:100A400001F0004C4FEAC0024CEA5070B2F1004F86
:100A500040EB830008BF20F00100704711F0804F89
:100A600021D113F13872BCBF01F00040704741F44E
:100A700080114FEA5252C2F11802C2F1200C10FA52
:100A80000CF320FA02F018BF40F001004FEAC12336
:100A90004FEAD32303FA0CFC40EA0C0023FA02F3DA
:100AA0004FEA4303CCE77FEA625307D150EA0133B0
:100AB0001EBF4FF0FE4040F44000704701F0004080
:100AC00040F0FE4040F40000704700BF80F000405E
:100AD00002E000BF81F0004142001FBF5FEA410316
:100AE00092EA030F7FEA226C7FEA236C6AD04FEA16
:100AF0001262D2EB1363C1BFD2184140484041405B
:100B0000B8BF5B42192B88BF704710F0004F40F40C
:100B1000000020F07F4018BF404211F0004F41F428
:100B2000000121F07F4118BF494292EA030F3FD0F4
:100B3000A2F1010241FA03FC10EB0C00C3F1200307
:100B400001FA03F100F0004302D5494260EB400096
:100B5000B0F5000F13D3B0F1807F06D340084FEA01
:100B6000310102F10102FE2A51D2B1F1004F40EBF6
:100B7000C25008BF20F0010040EA0300704749005E
:100B800040EB000010F4000FA2F10102EDD1B0FA29
:100B900080FCACF1080CB2EB0C0200FA0CF0AABF1E
:100BA00000EBC25052421843BCBFD04018437047BC
:100BB00092F0000F81F4000106BF80F400000132C2
:100BC000013BB5E74FEA41037FEA226C18BF7FEA99
:100BD000236C21D092EA030F04D092F0000F08BFDB
:100BE0000846704790EA010F1CBF0020704712F0C2
:100BF0007F4F04D1400028BF40F00040704712F101
:100C000000723CBF00F50000704700F0004343F065
:100C1000FE4040F4000070477FEA226216BF08469B
:100C20007FEA23630146420206BF5FEA412390EA5E
:100C3000010F40F4800070474FF0000304E000BF54
:100C400010F0004348BF40425FEA000C08BF704705
:100C500043F0964301464FF000001CE050EA0102C9
:100C600008BF70474FF000030AE000BF50EA0102DE
:100C700008BF704711F0004302D5404261EB4101CB
:100C80005FEA010C02BF84460146002043F0B643F0
:100C900008BFA3F18053A3F50003BCFA8CF2083A15
:100CA000A3EBC25310DB01FA02FC634400FA02FC1E
:100CB000C2F12002BCF1004F20FA02F243EB020025
:100CC00008BF20F00100704702F1200201FA02FC87
:100CD000C2F1200250EA4C0021FA02F243EB02007A
:100CE00008BF20EADC70704773B96AB9002908BFF1
:100CF0000028BCBF00204FF00041C4BF6FF000418E
:100D00004FF0FF3000F076B882B0EC462DE900508D
:100D100000F040F8DDF804E002B00CBC704700BF02
:100D200007EE900AF5EEC07AF1EE10FA08B503D49A
:100D3000BDE8084000F00AB8F1EE677A17EE900AB5
:100D400000F004F8404261EB410108BD70B5FFF7C7
:100D50007FFB00220D4B04460D46FFF7CDFB00F054
:100D60004BF80646FFF752FB0022094BFFF7C4FB86
:100D700002460B4620462946FFF70AFA00F03CF8E7
:100D8000002242EA00042046314670BD0000F03DDA
:100D90000000F0412DE97043069E14461D46804632
:100DA000894600F049F804FB01F300FB0533A4FB7E
:100DB00000451D44B8EB040469EB0505C6E9004590
:100DC000BDE870832DE97043069E1446804689462F
:100DD0001D4600F07DF900FB05F504FB0153A0FB67
:100DE00004451D44B8EB040469EB0505C6E900455C
:100DF000BDE87083704700BF4A0011D212F500129F
:100E000011D20DD56FF47873B3EB62520ED44FEA62
:100E1000C12343F0004343EA505323FA02F07047E2
:100E20004FF00000704750EA013002D14FF0FF3020
:100E300070474FF00000704700292DE9F00FC0F215
:100E40009F800024002BC0F29680154606460F4670
:100E5000002B3ED18A4257D9B2FA82F34BB1C3F18B
:100E6000200201FA03F720FA02F29D40174300FA2C
:100E700003F6290CB7FBF1F2330C01FB127CA8B28C
:100E800043EA0C4700FB02F3BB4209D97F1902F188
:100E9000FF3C80F00181BB4240F2FE80023A2F44C9
:100EA000FF1AB7FBF1F3B6B201FB137146EA014139
:100EB00000FB03F0884208D9491903F1FF3780F09D
:100EC000ED80884240F2EA80023B43EA024200237E
:100ED00003E08B420AD900231A461046194614B182
:100EE000404261EB4101BDE8F00F7047B3FA83F86F
:100EF000B8F1000F40F084808B4202D3824200F2AE
:100F0000DE8000230122E8E712B90123B3FBF2F5EA
:100F1000B5FA85F2002A39D17F1B280C1FFA85FC0F
:100F20000123B7FBF0F1320C00FB117742EA0747CF
:100F30000CFB01F2BA4207D97F1901F1FF3802D246
:100F4000BA4200F2C1804146BF1AB7FBF0F2B6B216
:100F500000FB127046EA00400CFB02FC844507D9F6
:100F6000401902F1FF3702D2844500F2AB803A46C5
:100F700042EA0142B1E7E443524263EB430364E7D0
:100F8000404261EB41014FF0FF345BE79540C2F115
:100F9000200327FA03F1280C26FA03F39740B1FB4C
:100FA000F0F81F433B0C00FB18111FFA85FC43EAC5
:100FB00001410CFB08F38B4206FA02F608D94919E5
:100FC00008F1FF3279D28B4277D9A8F1020829447F
:100FD000C91AB1FBF0F3BFB200FB131147EA014796
:100FE0000CFB03F2BA4207D97F1903F1FF3160D23B
:100FF000BA425ED9023B2F44BF1A43EA084390E746
:10100000C8F1200203FA08FC25FA02F343EA0C0CAB
:101010004FEA1C4921FA02F301FA08F720FA02F21A
:10102000B3FBF9F1174309FB11333A0C1FFA8CFBA0
:1010300042EA03430BFB01FA9A4505FA08F008D986
:1010400013EB0C0301F1FF3235D29A4533D9023943
:101050006344CAEB0303B3FBF9F209FB1233BFB2DB
:1010600047EA03470BFB02F9B94508D917EB0C0710
:1010700002F1FF331BD2B94519D9023A674442EA5B
:101080000145A5FB0001C9EB07078F424FF00003A4
:101090000AD305D02A4620E7624601E73B4614E71B
:1010A00006FA08F68642F5D26A1E002315E71A46AC
:1010B000E5E70B46A0E71146CBE7904688E74346B5
:1010C00042460AE7023A53E702392F443CE700BFA1
:1010D0002DE9F00F144605460E46002B43D18A42F7
:1010E00053D9B2FA82F757B1C7F1200620FA06F6B3
:1010F00001FA07F302FA07F41E4300FA07F5210C80
:10110000B6FBF1F22B0C01FB1267A0B243EA0746D3
:1011100000FB02F3B34209D9361902F1FF3780F020
:10112000F680B34240F2F380023A2644F61AB6FB48
:10113000F1F3ADB201FB136145EA014100FB03F09D
:10114000884208D9091903F1FF3680F0E28088420D
:1011500040F2DF80023B43EA024200231046194678
:10116000BDE8F00F70478B424AD8B3FA83F6002EE1
:101170004DD18B4202D3824200F2D680002301225D
:1011800010461946BDE8F00F704712B90124B4FBB0
:10119000F2F4B4FA84F2002A7CD1091B260CA7B21F
:1011A0000123B1FBF6F02A0C06FB101142EA0141C3
:1011B00007FB00F28A4207D9091900F1FF3C02D26D
:1011C0008A4200F2C3806046891AB1FBF6F2ADB2E2
:1011D00006FB121145EA014507FB02F7AF4208D9A9
:1011E0002C1902F1FF3180F09680A74240F29380E3
:1011F000023A42EA004210461946BDE8F00F704735
:1012000000231A4610461946BDE8F00F7047C6F194
:10121000200522FA05F4B3401C434FEA144821FA92
:1012200005F301FA06F720FA05F5B3FBF8FC2F43A6
:1012300008FB1C333D0C1FFA84FA45EA03430AFB02
:101240000CF9994502FA06FB04D91B190CF1FF327F
:101250006DD39446C9EB0303B3FBF8F508FB1533D4
:10126000BFB247EA03470AFB05F8B84504D93F195E
:1012700005F1FF3361D31D4645EA0C4CACFB0B2353
:10128000C8EB07079F424FF0000549D345D062469F
:101290002B4663E79440C2F1200321FA03FC260C9D
:1012A00020FA03F301FA02F5BCFBF6F843EA050164
:1012B0000B0C06FB18CCA7B243EA0C4C07FB08F357
:1012C000634500FA02F509D91CEB040C08F1FF3262
:1012D0003AD2634538D9A8F10208A444C3EB0C0CF8
:1012E000BCFBF6F389B206FB13CC41EA0C4107FBC9
:1012F00003F28A4207D9091903F1FF3022D28A4248
:1013000020D9023B2144891A43EA084349E73A4677
:101310000CE733461FE70A466BE7B0409042B6D26F
:101320000CF1FF32002319E73346324616E79945A0
:101330008FD9ACF1020C23448CE7B8459BD9023D10
:10134000274499E70346DEE79046C7E70238214481
:101350003AE700BF17481849026800608A4200F067
:101360002380002100F004B8144B5B584350043133
:101370001348144B42189A42FFF4F6AF124A00F099
:1013800003B8002342F8043B104B9A42FFF4F9AF34
:101390000F48016841F4700101600CF097F90FF0FB
:1013A00033FE7047FFF7FEBF0A48D0F800D0406810
:1013B00000470000FCFF0120EFBEADDEF4BC0208D8
:1013C000000400202808002028080020D43F002026
:1013D00088ED00E00000FF1FFFF7FEBF80B584B07E
:1013E00000AF786033480021022226F0F7FE324831
:1013F0000021142226F0F2FE304B7A681A60232076
:1014000015F0E0FA07F10D03752001211A4600F0EE
:1014100097FA0346FB73FB7B002B20D0264B284A10
:101420005A60254B274A9A60234B254ADA60224BA3
:10143000244A1A61204B43221A7007F10C03002042
:1014400001211A4600F07CFA0346FB733B7B03F054
:101450007E03DBB23B73FB7B002B11D005E000F079
:1014600033F80346BB73134B1FE03B7B682B07D15C
:10147000104B01221A70104B1D221A700D4B14E0F4
:101480007B7B03F07E03DBB27B737B7B682B05D118
:10149000084B02221A7000F041F805E07B7B702BAC
:1014A00002D1044B04221A70024B18461037BD4675
:1014B00080BD00BF7023002074230020D0080020CE
:1014C000411900087119000880B500AF00F0F6FC62
:1014D0000346002B13D00B4B06221A700A4B4322F3
:1014E0001A70094B094A5A60074B094ADA60064BE1
:1014F000084A1A61044B084A9A60012300E000235D
:10150000184680BD7023002074230020A51C00080D
:10151000F51C0008E11D0008551C000880B584B0CA
:1015200000AF294B5B6807F10802062006219847A7
:101530000346FB737B7B03F001039B00DAB2FB7A6B
:1015400003F001035B00DBB21343DAB27B7ADBB258
:1015500003F00103DBB21343DBB2BB73BB7B002B95
:1015600011D0BB7B012B03D1184B00225A7027E00E
:10157000BB7B022B03D1154B01225A7020E00320C4
:1015800015F032FA1CE0104B5B68FA1D0C200121AB
:1015900098470346FB73FB7903F00F03BB73BB7BD8
:1015A000002B03D1032015F01FFA09E0BB7B042BAD
:1015B00003D1064B00225A7002E0044B01225A70FC
:1015C0001037BD4680BD00BF74230020702300206B
:1015D00080B584B000AF202020F0DAFF0346002B56
:1015E00000F02181202020F0EDFF15F071F9F86066
:1015F0008E4B1B68FA68D31ABB60BB689AB28C4BDF
:101600001A808A4BFA681A60BB68962B0FD9894BEF
:101610001B681F2B1ADC874B1A68874B012143F884
:101620002210844B1B685A1C824B1A600EE0814BBF
:101630001B681F2B0ADC7F4B1A687F4B002143F885
:1016400022107C4B1B685A1C7A4B1A60794B1B6822
:10165000202B40F0C880784B1B689AB2764B5B68B1
:101660005B009BB213439AB2734B9B689B009BB287
:1016700013439AB2704BDB68DB009BB213439AB200
:101680006D4B1B691B019BB213439AB26A4B5B699A
:101690005B019BB213439AB2674B9B699B019BB260
:1016A00013439AB2644BDB69DB019BB213439AB2DA
:1016B000614B1B6A1B029BB213439AB25E4B5B6A7F
:1016C0005B029BB213439AB25B4B9B6A9B029BB239
:1016D00013439AB2584BDB6ADB029BB213439AB2B4
:1016E000554B1B6B1B039BB213439AB2524B5B6B64
:1016F0005B039BB213439AB24F4B9B6B9B039BB212
:1017000013439AB24C4BDB6BDB039BB213439AB28D
:10171000474B9A80484B1B6C9AB2474B5B6C5B0003
:101720009BB213439AB2444B9B6C9B009BB21343F6
:101730009AB2414BDB6CDB009BB213439AB23E4B37
:101740001B6D1B019BB213439AB23B4B5B6D5B015C
:101750009BB213439AB2384B9B6D9B019BB21343D0
:101760009AB2354BDB6DDB019BB213439AB2324B1D
:101770001B6E1B029BB213439AB22F4B5B6E5B0234
:101780009BB213439AB22C4B9B6E9B029BB21343AA
:101790009AB2294BDB6EDB029BB213439AB2264B03
:1017A0001B6F1B039BB213439AB2234B5B6F5B030C
:1017B0009BB213439AB2204B9B6F9B039BB2134384
:1017C0009AB21D4BDB6FDB039BB213439AB2184BEB
:1017D000DA80174B5B889BB201339AB2144B5A8064
:1017E000144B00221A60154B1B685A1C134B1A60CD
:1017F00000F00CF9114B1B68012B14DD15F068F893
:1018000078600F4B1B687A68D31A3B603B689AB2CA
:10181000074B5A800A4BFA681A60084B00221A607C
:10182000084B01221A701037BD4680BDD408002035
:1018300084250020CC0800204C0800202808002027
:10184000D80800202C08002080B586B000AF042006
:1018500001211FF073F94FF4804001211FF06EF950
:1018600000233B750023BB7520233B610123FB75DF
:1018700003237B7507F11003154819461FF0C6F9BD
:10188000022005211FF0B2FF2023BB600123BB73A0
:1018900000233B7308237B7307F10803184620F0ED
:1018A00009FE17233B7103237B710323BB710123C3
:1018B000FB713B1D18461FF0E9FF1720054914F086
:1018C00087FF202020F07EFE1837BD4680BD00BF78
:1018D00000080240D115000880B582B000AF164B59
:1018E0001B78002B24D1154B1B68002B20D0134BE9
:1018F0001B681B68002B06D0104B1B681B68184622
:1019000001211FF0A3F80D4B1B689B88BB800223AD
:10191000FB710023BB71094B1B689A683B1D104685
:10192000194602F03DF8FFF78FFF034B01221A70B2
:101930000837BD4680BD00BFDC080020D00800206D
:1019400080B584B000AF0B463A600246FA71BB71B5
:10195000FA79BB79682011461A463B6801F020F8F5
:101960000346FB73FB7B18461037BD4680BD00BFA6
:1019700080B584B000AF02460B46FA71BB71FA79AC
:10198000BB79682011461A4600F0F4FF0346FB734A
:10199000FB7B18461037BD4680BD00BF80B584B0C4
:1019A00000AF786072B6184B5B6807F108023B2005
:1019B000062198470346FB7362B6FB7B83F0010365
:1019C000DBB2002B01D000231AE03B7A1B029AB253
:1019D0007B7A13439AB27B681A807B680233BA7AA7
:1019E000120291B2FA7A0A4392B21A807B680433E7
:1019F0003A7B120291B27A7B0A4392B21A80012397
:101A000018461037BD4680BD7423002080B582B0D3
:101A100000AF444B5B68434A11783A4608460621BA
:101A200098470346FB71FB7983F00103DBB2002B7F
:101A300001D0002372E03C4B1A683C4B19683C4BC8
:101A400033F811301BB2D21A374B1A60394B1A686F
:101A5000364B1968384B33F811301BB2D21A354B5C
:101A60001A60364B1A68314B1968354B33F8113010
:101A70001BB2D21A314B1A602C4B1A683B781B02EE
:101A800099B27B780B4399B2294B23F81210274B5C
:101A90001A68BB781B0299B2FB780B4399B2264BAC
:101AA00023F81210214B1A683B791B0299B27B79FB
:101AB0000B4399B2224B23F812101C4B1A681C4B93
:101AC00033F812301AB2184B1B681A44164B1A60BE
:101AD000164B1A68184B33F812301AB2154B1B68A4
:101AE0001A44144B1A60114B1A68154B33F8123014
:101AF0001AB2124B1B681A44104B1A600B4B1B682E
:101B00005A1C0A4B1A60094B1B68012B05DD074B59
:101B100000221A600B4B01221A7001231846083765
:101B2000BD4680BD742300204008002030080020FE
:101B3000340800204408002038080020480800200D
:101B40003C0800202D08002080B584B000AF7860EC
:101B5000294B1B7883F00103DBB2002B2DD0274BE0
:101B60005B68264A117807F1080208460621984763
:101B70000346FB73FB7B83F00103DBB2002B01D038
:101B8000002335E03B7A1B029AB27B7A13439AB268
:101B90007B681A807B680233BA7A120291B2FA7AB1
:101BA0000A4392B21A807B6804333A7B120291B2E4
:101BB0007A7B0A4392B21A8019E0114B1B68DA0F44
:101BC00013445B109AB27B681A807B689A1C0D4B99
:101BD0001B68D90F0B445B109BB213807B681A1DE6
:101BE000094B1B68D90F0B445B109BB21380012378
:101BF00018461037BD4680BD2D08002074230020F4
:101C000040080020440800204808002080B483B029
:101C100000AF7860094B1B78DBB2002B06D07B68E5
:101C200001221A70054B00221A7002E07B68002224
:101C30001A700C37BD465DF8047B70472C080020F5
:101C400080B500AF6B20802100F004F8962014F0DE
:101C5000B9FE80BD80B582B000AF02460B46FA7176
:101C6000BB710E4810211FF0A1F8012014F096FE60
:101C7000FB790B48194601F01FFDBB79084819464E
:101C800001F01AFD054810211FF082F8012014F020
:101C900085FE012318460837BD4680BD0008024076
:101CA0000030014080B582B000AF0B463A6002467A
:101CB000FA71BB710D4810211FF078F8FB7963F0C1
:101CC0007F03DBB20A48194601F0F6FCBB790848ED
:101CD0003968002201F032FD044810211FF058F845
:101CE000012318460837BD4680BD00BF00080240EA
:101CF0000030014080B582B000AF0B463A6002462A
:101D0000FA71BB71104810211FF050F8012014F037
:101D100045FEFB7963F07F03DBB20C48194601F006
:101D2000CBFCBB7909483968002201F007FD064861
:101D300010211FF02DF8012014F030FE0123184669
:101D40000837BD4680BD00BF00080240003001409A
:101D500080B584B000AF0346FB71194BDB889BB2A2
:101D600001339AB2164BDA80FFF7B6FD00F06CF83B
:101D7000144801F0E9FD1348042101F041FD07F189
:101D800008031846FFF7E0FE7B89DBB25BB2B3F1D4
:101D9000FF3F05D13B89DBB25BB2B3F1FF3F05D01A
:101DA000084801F0A1FD0346002B05D0054801F0CD
:101DB000CBFD062014F018FE1037BD4680BD00BFD5
:101DC000842500200030014080B500AFFFF784FD7E
:101DD000024B4FF480521A8080BD00BFA406002041
:101DE00080B584B000AF02460B46FA71BB71142374
:101DF000FB73FA79BB7910461946FFF72BFF642075
:101E000014F0CCFDFA7907F10E03104601211A46B1
:101E1000FFF770FFBB7BBA799A4201D101230EE034
:101E2000FA79BB7910461946FFF714FF642014F0C5
:101E3000B5FDFB7B5A1EFA73002BE3D10023184635
:101E40001037BD4680BD00BF80B500AF194B1B7871
:101E5000002B00D02CE01848802101F0D1FC6B2031
:101E60008021FFF7F7FE322014F0ACFD6B2001213A
:101E7000FFF7B6FF1B201821FFF7B2FF1A2007213A
:101E8000FFF7AEFF14F050FE034619201946FFF786
:101E9000A7FF1C201021FFF7A3FF37201221FFF717
:101EA0009FFF38200121FFF79BFF024B01221A7090
:101EB00080BD00BFDD0800200030014080B582B049
:101EC00000AF1423FB711248802101F099FC6B20B4
:101ED0008021FFF7BFFE962014F074FDBB1D752016
:101EE00001211A46FFF7DEFEBB79712B00D109E014
:101EF000FB79002B01D1002305E0FB795A1EFA7112
:101F0000002BE8D1012318460837BD4680BD00BF2D
:101F10000030014080B483B000AF7860094B1B787B
:101F2000062B01D0002306E07B68074A1A607B6815
:101F3000064A5A60012318460C37BD465DF8047BFB
:101F4000704700BF70230020C91D00089D190008BC
:101F500080B483B000AF78600C4B1B78062B01D0A7
:101F600000230CE07B680A4A1A607B68094A5A60C1
:101F70007B68094ADA607B68084A1A6101231846BF
:101F80000C37BD465DF8047B704700BF702300200E
:101F9000511D0008491B00080D1C000890C1793D27
:101FA00080B584B000AF78600023FB720A2014F083
:101FB00009FD07F10A037720A021012200F0F0FCBF
:101FC0000346FB72FB7A83F00103DBB2002B01D0E6
:101FD000002336E000F046F80023FB600EE0FB68CB
:101FE000DBB25BB2184600F049F803461946174BBE
:101FF000FA6823F81210FB680133FB60FB68072BBB
:10200000EDDD124800F05CF80346002B01D0002300
:1020100017E07B6842F210721A807B6842F21072FD
:102020005A807B680A4A5A607B680A4A9A607B68D1
:10203000094ADA607B68094A1A617B68084A5A6172
:10204000012318461037BD4680BD00BFE8080020B8
:10205000E1210008FD210008112200082D220008BE
:102060004122000880B500AF77201E21012200F038
:1020700081FC4FF42F6014F091FC80BD80B584B0DA
:1020800000AF0346FB7100233B7300237B7397F97A
:1020900007305033DBB25B00DAB207F10C03772074
:1020A0001146022200F07CFC3B7B1B029AB27B7B38
:1020B00013439BB29BB218461037BD4680BD00BF8C
:1020C00080B487B000AF78600023FB607B680E337C
:1020D0001B88DBB203F00F03BB727B680E337A6898
:1020E0000E32128822F0FF0292B21A800123FB7294
:1020F00000237B613CE07B695B105B007A681344E2
:102100001B88002B01D00023FB727B6903F00103C5
:10211000002B0AD07B695B105B007A6813441B8834
:10212000DBB2FA685340FB600AE07B695B105B003E
:102130007A6813441B881B0A9BB2FA685340FB6001
:1021400008233B610EE0FB6803F40043002B03D03F
:10215000FB6883F4C053FB60FB685B00FB603B697A
:10216000013B3B613B69002BEDDC7B6901337B610B
:102170007B690F2BBFDD7B680E337A680E321188C6
:10218000BA7A92B20A4392B21A80FB7A83F00103C0
:10219000DBB2002B08D0BA7AFB681B0B03F00F03ED
:1021A0009A4201D1002300E0FF235BB218461C379E
:1021B000BD465DF8047B704780B582B000AF3B1D23
:1021C00077200021032200F0EBFB3B791A047B7996
:1021D0001B021A43BB79134318460837BD4680BD1E
:1021E00080B500AF044B1B785033DBB27720194623
:1021F000012200F0BFFB80BD0004002080B500AFCD
:10220000FFF7DAFF0246014B1A6080BDE0080020AC
:1022100080B500AF044B1B784033DBB27720194602
:10222000012200F0A7FB80BD0004002080B500AFB4
:10223000FFF7C2FF0246014B1A6080BDE408002090
:102240002DE9B00FA3B000AF78653965A84B1B68C6
:1022500018464FF00001A74B5B899AB24FF000037C
:102260001D0245EA1265140202460B46121B63EB7F
:102270000503C7E91A239F4B9B889AB24FF00003CE
:102280004FEA034B4BEA124B4FEA024A994B1B8928
:102290009AB24FF00003B96E03FB01F0F96E02FB36
:1022A00001F10844B96EA1FB0223C1180B464FEAA5
:1022B000D21848EA43684FEAE3191AEB08024BEBDD
:1022C0000903C7E91E238B4B5B889AB24FF00003CA
:1022D000D803F864F96C41EA5241F964D403BC6450
:1022E000844BDB889AB24FF00003B96E03FB01F018
:1022F000F96E02FB01F10844B96EA1FB0223C1187B
:102300000B46150A3D64D7F840C04CEA036CC7F889
:1023100040C018127864D7E91223D7E91045121982
:1023200043EB0503C7E91C23724B9B899AB24FF01C
:102330000003B96E03FB01F0F96E02FB01F10844E2
:10234000B96EA1FB0223C1180B46D50DBD63D7F8AA
:1023500038C04CEA432CC7F838C0D815F863D7E921
:102360000E2312F5FA6243F10003C7E92023D7E9EF
:10237000200140F2CF724FF00003824273EB010460
:10238000C0F2DE80D7E92023B2F5FA6243F1FF33D1
:10239000C7E918237A6E3B6E03FB02F17A6E3B6E3F
:1023A00003FB02F3CC183A6E3B6EA2FB03016318E9
:1023B000194602460B469D007D61D7F814C04CEAD1
:1023C000927CC7F814C094003C61D7E9042312182A
:1023D00043EB0103C7E91823D7E9182359104FEA43
:1023E0003200D7E91E23121A63EB0103C7E91E234B
:1023F000D7E9182395083D63D7F830C04CEA837CB1
:10240000C7F830C098107863D7E91C23D7E90C458A
:10241000121B63EB0503C7E91C23D7E92001364AE9
:102420004FF0FF33904271EB030567DAD7E92001E3
:1024300040F2DC524FF00003121843EB0103C7E9EE
:1024400018237B6E3A6E02FB03F27B6E396E01FB42
:1024500003F3D1183A6E3B6EA2FB032319440B46DB
:10246000C7E91823C7E91823D7E918014FF000027C
:102470004FF00003121A63EB01034FEAC30CC7F8D5
:102480000CC0FC6844EA5274FC60D500BD60D7E91A
:102490000223121843EB0103D7E91E01121843EB84
:1024A0000103C7E91E23D7E9180102460B4692181B
:1024B00043EB03034FEA830CC7F804C07C6844EA8B
:1024C00092747C6095003D60D7E90045121943EB9A
:1024D0000503121843EB01035B104FEA3202D7E900
:1024E0001C01821A61EB0303C7E91C2306E000BF4D
:1024F000E0080020E808002024FAFFFFFB6EBA6E17
:1025000002FB03F2FB6EB96E01FB03F3D118BA6E46
:10251000BB6EA2FB032319440B46D50FBD62D7F84F
:1025200028C04CEA430CC7F828C0D817F862D7E98E
:102530002023D7E90A45121B63EB0503C7E92023D3
:102540001F4B1B681A464FF00003396F03FB01F065
:10255000796F02FB01F10144386FA0FB022319449B
:102560000B46550D3D62D7F820C04CEAC32CC7F886
:1025700020C058157862D7E91E23D7E90845A21A6A
:1025800065EB0303D50BBD61D7F818C04CEA434C8B
:10259000C7F818C0D813F861BB69FB657B6D002BC9
:1025A00002D0FA6D7B6D1A603B6D002B03D0D7F81B
:1025B00080203B6D1A608C37BD46BDE8B00F704778
:1025C000E408002080B483B000AF0346FB71FB79C0
:1025D000074A9B0013445B781A46064B33F81230C7
:1025E0009BB218460C37BD465DF8047B704700BFB0
:1025F000902300208823002080B59EB000AF786033
:10260000002387F8763071480021102225F0E6FD7E
:1026100007F1180318461EF087FB03233B770023BE
:10262000FB777B681B78002B17D00823BB6107F171
:102630001803674819461EF0E9FA644B0D221A7018
:1026400097F876305A1C87F87620604A53705F4BB3
:1026500001229A705D4B0722DA704FF4800001214D
:102660001EF0F4F9042001211EF0F0F94FF48070FF
:1026700001211EF063FA57481FF074FC07F1200394
:1026800018461FF097FD544B7B6200233B62534B6F
:10269000BB620023FB6297F876303B6300237B63C9
:1026A00097F87630012B02D94FF4806300E00023C5
:1026B000BB634FF40063FB634FF400533B644FF480
:1026C00080737B644FF40033BB6407F120034148FF
:1026D00019461FF019FD3F4801211FF0A1FD07F128
:1026E000080318461EF058FD0023BB604FF440332A
:1026F000FB6000233B6100237B6107F10803184660
:102700001EF022FD07F15C0318461EF0FFFC0123BA
:1027100087F861300023FB650023BB6600237B66DE
:102720000023FB6697F8763087F8703097F876309C
:10273000012B94BF00230123DBB287F8603007F13F
:102740005C03274819461EF08DFC012387F875307D
:10275000002387F8773023E097F877301B4A9B00F7
:1027600013449B7883F00103DBB2002B00D012E00E
:1027700097F87720154B13F8221097F87520531C03
:1027800087F8753097F8773010489B000344DB7862
:1027900013481EF033FD97F87730013387F8773010
:1027A00097F87730032BD7D90D4801211EF016FE7C
:1027B0000B4801211EF0F6FD094801211EF002FD23
:1027C00007481EF0DFFD7837BD4680BD902300200E
:1027D00000080240706402404C2001408823002021
:1027E0000020014080B500AF00F074F980BD00BF4B
:1027F00080B500AF00F0E8F980BD00BF80B500AF44
:1028000000F068F980BD00BF80B500AF00F0DCF9D2
:1028100080BD00BF80B500AF074B1B889BB2013362
:102820009AB2054B1A80054B1B78184600F034FC11
:102830000023184680BD00BFFE080020FC080020D1
:1028400080B584B000AF3B600346FB710B46BB71A3
:1028500013467B7147F23053FB60FB795B00DAB2C1
:102860003A4B1A703A4BBA791A703A4B01221A70E5
:10287000394B00221A70394B3A681A60384B3A6863
:102880001A60384B7A791A70374B01221A70374B1D
:1028900000221A70364B1B689B889BB203F40073AE
:1028A000002B2BD1324B1B681B889BB203F4807327
:1028B000002B1BD100BF2E4B1B681B889BB203F45F
:1028C0000073002B05D0FB68013BFB60FB68002B0D
:1028D000F1D1FB68002B03D1FFF79CFF034631E0E9
:1028E000234B1B68184601211FF09AFA204B1B68E6
:1028F00018464FF4407101221FF010FB47F230538D
:10290000FB6000BF184B1B78DBB2002B05D0FB68C7
:10291000013BFB60FB68002BF4D1FB68002B03D16B
:10292000FFF778FF03460DE0104B1B78DBB2002B5E
:102930000CBF00230123DBB283F00103DBB203F001
:102940000103DBB218461037BD4680BD02090020E6
:1029500003090020050900200609002008090020BD
:102960000C090020040900200109002000090020B2
:10297000F808002080B582B000AF13460246FA7115
:102980000A46BA717B71F979BA797B1D08461146FE
:102990000122FFF755FF034618460837BD4680BDA4
:1029A00080B584B000AF3B600346FB710B46BB7142
:1029B00013467B7147F23053FB60FB795B00DAB260
:1029C0003A4B1A703A4BBA791A703A4B00221A7085
:1029D000394B01221A70394B3A681A60384B3A6801
:1029E0001A60384B7A791A70374B01221A70374BBC
:1029F00000221A70364B1B689B889BB203F400734D
:102A0000002B2BD1324B1B681B889BB203F48073C5
:102A1000002B1BD100BF2E4B1B681B889BB203F4FD
:102A20000073002B05D0FB68013BFB60FB68002BAB
:102A3000F1D1FB68002B03D1FFF7ECFE034631E038
:102A4000234B1B68184601211FF0EAF9204B1B6835
:102A500018464FF4407101221FF060FA47F23053DC
:102A6000FB6000BF184B1B78DBB2002B05D0FB6866
:102A7000013BFB60FB68002BF4D1FB68002B03D10A
:102A8000FFF7C8FE03460DE0104B1B78DBB2002BAE
:102A90000CBF00230123DBB283F00103DBB203F0A0
:102AA0000103DBB218461037BD4680BD0209002085
:102AB0000309002005090020060900200C09002058
:102AC0000809002004090020010900200009002055
:102AD000F808002080B582B000AF374B1B689B8A96
:102AE0009BB27B607B6803F47063002B02D0334B96
:102AF00001221A707B6803F4E063002B4BD02E4B4D
:102B00001B681B8B2C4B1B6818464FF480610022FE
:102B10001FF004FA7B6803F40073002B3BD1264BB3
:102B20001B681B889BB203F40073002B33D1224B2C
:102B30001B681B889BB203F48073002B1DD000BF61
:102B40001D4B1B681B889BB203F48073002BF7D1CD
:102B5000194B1B68184601211FF082F900BF164B64
:102B60001B681B889BB203F40073002BF7D1144B36
:102B70001B78184600F090FA0DE00F4B1B681846C2
:102B800001211FF06DF90C4B1B6818464FF4407182
:102B900000221FF0C3F9084B1B68074A1268928A8B
:102BA00092B222F4706292B29A82064B00221A709C
:102BB0000837BD4680BD00BFF8080020000900208E
:102BC000FC0800200109002090B583B000AF984BAD
:102BD0001B689B8A9BB2FB71FB7903F00103002BFE
:102BE00051D0934B1B68924A1268128892B222F419
:102BF000006292B21A808E4B1B68184601211FF0AA
:102C00006DF98C4B00221A708B4B1B78DBB2002BBA
:102C100025D08A4B1B78002B04D1894B1B78DBB263
:102C2000FF2B1CD1854B01221A70864B1B78DBB21F
:102C3000022B09D17E4B1B687D4A1268128892B222
:102C400042F4006292B21A80794B1A687E4B1B786C
:102C5000DBB21046194601221FF022F9E8E1744B5D
:102C60001A68794B1B78DBB21046194600221FF018
:102C700017F9734B1B78DBB2FF2B00F0D9816D4B3A
:102C8000FF221A70D4E1FB7903F00203002B6FD00E
:102C9000BFF35F8F6B4B1B78DBB2012B25D1664BEB
:102CA0001B78DBB2002B20D0644B1B78002B1CD090
:102CB0005F4B1B68184600211FF010F9BFF35F8FB0
:102CC0005B4B1B681B8B5A4B1B68184601211FF07E
:102CD000C7F85E4B01221A70554B1B6818464FF41B
:102CE000806101221FF01AF941E0514B1B681B8BD8
:102CF000BFF35F8F534B1B78DBB2022B17D14E4BC8
:102D00001B78DBB2002B12D04C4B1B78002B0ED063
:102D1000474B1B68184600211FF0E0F8444B1B6826
:102D200018464FF4806100221FF0F8F81FE0454B71
:102D30001B78DBB2032B11D13F4B1B78DBB2002B8E
:102D40000CD03E4B1B78002B08D0394B1B68184623
:102D50004FF4806100221FF0E1F808E0344B1B685B
:102D600018464FF4806101221FF0D8F860E15FE15E
:102D7000FB7903F00403002B00F0D480334B0122D5
:102D80001A702D4B1B78DBB2002B00F095802B4B7B
:102D90001B78002B00F090802A4B1B78DBB2022BB3
:102DA0003BD9234B1B68184600211FF097F8284B8E
:102DB0001A68204B1B78DBB219460131C8B21D4995
:102DC00008705BB213441A4A1268128A92B2D2B2E5
:102DD0001A70174B1B68184601211FF041F81B4B56
:102DE00001221A701A4B1A68124B1B78DBB2194673
:102DF0000131C8B20F4908705BB213440C4A126823
:102E0000128A92B2D2B21A70094B1B6818464FF45C
:102E1000806101221FF082F87AE00C4B1B78002BB6
:102E200018D0034B1B68184601211FF019F817E052
:102E3000F8080020100900200609002011090020D0
:102E400003090020040900200209002012090020C3
:102E50000C090020854B1B68184601211EF0E0FF7D
:102E6000834B1A68834B1B78DBB219460131C8B219
:102E7000804908705BB213447C4A1268128A92B28D
:102E8000D2B21A707A4B1A687A4B1B78DBB21946A9
:102E90000131C8B2774908705BB21344734A1268B3
:102EA000128A92B2D2B21A70724B1B78DBB2013323
:102EB000DAB2704B1A702BE06F4B1B78002B04D1E9
:102EC0006E4B1B78DBB2002B18D06D4B1B78002BA0
:102ED00006D0664B1B68184601211EF0C1FF05E0B5
:102EE000624B1B68184601211EF09AFF614B1B784C
:102EF000DBB20133DAB25F4B1A7009E05B4B1B683F
:102F0000184601211EF08CFF5B4B01221A70FFE76F
:102F100000BF564B1B681B889BB203F48073002BC9
:102F2000F7D185E0FB7903F04003002B34D0504B00
:102F30001A68504B1B78DBB219460131C8B24D49B3
:102F400008705BB21344494A1268128A92B2D2B234
:102F50001A704C4B1B78DBB21A46464B1B785BB29F
:102F600003339A4207D1414B1B6818464FF48061E6
:102F700000221EF0D3FF434B1B78DBB21A463D4BB9
:102F80001B785BB29A4253D13A4B1B78DBB20133C8
:102F9000DAB2384B1A704BE0FB795BB2002B47DAA0
:102FA000344B1B785BB2B3F1FF3F22D02F4B1A6832
:102FB000354B19682F4B1B78DBB218460130C4B271
:102FC0002C4804705BB20B441B78DBB213822D4B90
:102FD0001B78DBB21A46274B1B785BB29A4227D18B
:102FE000224B1B6818464FF4806100221EF096FFAA
:102FF0001EE0204B1B78DBB20133DAB21D4B1A7096
:103000001A4B1B68214A1278D2B21A82204B1B78C5
:10301000DBB2002B04D11B4B1B78DBB2002B07D19A
:10302000124B1B6818464FF4806100221EF076FF99
:10303000104B1B785AB2134B1B78DBB201339A4208
:1030400011D10D4B00221A700D4B1B78002B07D0AD
:10305000064B1B6818464FF4407100221EF05EFFBD
:103060000C4B00221A700C37BD4690BDF8080020AA
:103070000C0900201009002011090020050900207A
:10308000120900200409002008090020030900207B
:10309000060900200109002080B582B000AF034678
:1030A000FB71FB79002B03D1094B0A4A1A6009E036
:1030B000FB79012B03D1064B074A1A6002E0044B4F
:1030C000064A1A6000F00CF80837BD4680BD00BF04
:1030D000F80800200054004000580040005C004008
:1030E00080B588B000AF07F1140318461DF01CFE30
:1030F00002233B7602237B760123BB760123FB76FA
:10310000784B1A68784B9A4233D1784B00221A7068
:1031100077484FF48071764A4FF4007300F0FEF860
:10312000022001211DF092FC4FF4001001211DF03E
:10313000E7FC4FF480737B6107F114036C48194678
:103140001DF064FD4FF400737B6107F114036848C0
:1031500019461DF05BFD6648082104221DF034FE6F
:103160006348092104221DF02FFE1F23FB77202333
:10317000BB775C4B1A685F4B9A4233D15B4B0122A1
:103180001A705B484FF48061594A4FF4006300F0B5
:10319000C5F8022001211DF059FC4FF480000121E7
:1031A0001DF0AEFC4FF480637B6107F114035048BF
:1031B00019461DF02BFD4FF400637B6107F11403EA
:1031C0004B4819461DF022FD49480A2104221DF0F2
:1031D000FBFD47480B2104221DF0F6FD2123FB7760
:1031E0002223BB773F4B1A68434B9A4231D13F4B66
:1031F00002221A7041484FF480713D4A102300F0BA
:103200008DF8022001211DF021FC4FF40000012166
:103210001DF076FC4FF480737B6107F1140337488F
:1032200019461DF0F3FC10237B6107F114033048AD
:1032300019461DF0EBFC3148082104221DF0C4FDA5
:103240002B48042104221DF0BFFD4823FB774923AE
:10325000BB77244B1B6818461EF0A8FC3B4618465B
:103260001EF0A0FD1F4B1B6818464FF44071002252
:103270001EF054FE0023BB804BF6FF73FB8000233F
:103280003B814FF480637B814FF48043BB811C4BB7
:103290003B60144B1B68184601211EF0A1FD114B29
:1032A0001A683B46104619461EF0BAFCBB7F3B74B9
:1032B00000237B740023BB740123FB7407F110030C
:1032C00018461EF0E3FAFB7F3B7400237B74002357
:1032D000BB7407F1100318461EF0D8FA2037BD461C
:1032E00080BD00BFF808002000540040FC0800200A
:1032F0000004024000580040005C00400000024012
:10330000801A060080B400AF034B1B889BB218469E
:10331000BD465DF8047B7047FE08002080B588B08C
:1033200000AFF8607A600A467A813B8107F11403A6
:1033300018461DF0F9FC01233B7600237B76012320
:10334000BB760123FB767B89F86819461DF020FDCA
:103350003B89786819461DF01BFD7B897B6107F16D
:103360001403F86819461DF051FC3B897B6107F195
:103370001403786819461DF049FC0023FB611EE028
:1033800002E00A2013F00AFB7B89F86819461DF059
:10339000E5FC0346002BF4D07B89F86819461DF044
:1033A00005FD0A2013F0FAFA7B89F86819461DF02A
:1033B000EFFC0A2013F0F2FAFB690133FB61FB69B1
:1033C000072BDDDD3B89786819461DF0EFFC0A20EC
:1033D00013F0E4FA7B89F86819461DF0E7FC0A202F
:1033E00013F0DCFA7B89F86819461DF0D1FC0A203D
:1033F00013F0D4FA3B89786819461DF0C9FC2037D0
:10340000BD4680BD80B586B000AF4FF4805001212D
:103410001DF094FB4FF4805001211DF0CBFB0223E3
:10342000BB70A0233B800323FB703B462648194614
:1034300000F0B6FA40233B800223BB703B46224893
:10344000194600F0ADFA042001211DF0FFFA102307
:103450003B800123BB700323FB703B461B4819468E
:1034600000F09EFA1848052105221DF0ADFC164813
:10347000062105221DF0A8FC1348072105221DF096
:10348000A3FC13481DF0E6FC4FF48273FB8000237D
:10349000BB8000233B814FF40073FB8100237B82C0
:1034A0000723BB8202237B810123BB8110233B8244
:1034B0003B1D074819461DF039FD054801211DF047
:1034C00079FD1837BD4680BD00000240000802406B
:1034D0000030014080B586B000AF4FF400400121BC
:1034E0001DF00EFB4FF4004001211DF045FB0223AF
:1034F000BB704FF480633B800323FB703B463B482B
:10350000194600F04DFA0223BB704FF480533B8004
:103510000323FB703B463548194600F041FA4FF44F
:1035200000633B800223BB700323FB703B462F48A4
:10353000194600F035FA012001211DF087FA02201A
:1035400001211DF083FA08233B800123BB703B4619
:103550002748194600F024FA254808211DF018FCD8
:103560004FF400433B800123BB703B462148194682
:1035700000F016FA1F484FF400411DF009FC1B48EB
:103580000A2106221DF020FC18480B2106221DF0FE
:103590001BFC16480C2106221DF016FC16481DF0D7
:1035A00059FC0023BB804FF48273FB8000233B81D6
:1035B00002237B810123BB814FF40073FB81102325
:1035C0003B8200237B820723BB823B1D0A481946AE
:1035D0001DF0ACFC084801211DF0ECFC03484FF441
:1035E00000411DF0D5FB1837BD4680BD00080240E4
:1035F0000004024000000240003C004080B582B060
:1036000000AF78607A680A4B9A4203D1FFF7FAFE5E
:10361000012308E07A68074B9A4203D1FFF75AFF6B
:10362000012300E0002318460837BD4680BD00BFD7
:1036300000300140003C004080B483B000AF7860AF
:103640007A68174B9A4207D1164B1B889BB20133FD
:103650009AB2144B1A801AE07A68134B9A4207D137
:10366000124B1B889BB201339AB2104B1A800EE0AA
:103670007A680F4B9A420AD10E4B1B889BB20133DA
:103680009AB20C4B1A800B4B1B889BB201E04FF097
:10369000FF3318460C37BD465DF8047B704700BF0A
:1036A00000300140140900200038004016090020B5
:1036B000003C00401809002080B584B000AF78605D
:1036C0000B46FB704FF47A73FB810AE0FB895A1EAC
:1036D000FA81002B05D17868FFF7AEFF0346DBB215
:1036E00027E0786802211DF0A1FC0346002BEDD0F5
:1036F000FB789BB2786819461DF08AFC4FF47A7308
:10370000FB810AE0FB895A1EFA81002B05D17868FB
:10371000FFF792FF0346DBB20BE0786801211DF052
:1037200085FC0346002BEDD078681DF063FC034652
:10373000DBB218461037BD4680BD00BF80B586B0ED
:1037400000AFF860B9607A603B604FF47A73FB8237
:10375000FB689B894AE07B68002B04D07B685A1C7D
:103760007A601B7800E0FF237B750EE0FB8A5A1E0F
:10377000FA82002B09D1F868FFF75EFF0346002BA1
:103780000CBF00230123DBB236E0F86802211DF0F4
:103790004DFC0346002BE9D07B7D9BB2F8681946AF
:1037A0001DF036FC0EE0FB8A5A1EFA82002B09D16E
:1037B000F868FFF741FF0346002B0CBF00230123ED
:1037C000DBB219E0F86801211DF030FC0346002B44
:1037D000E9D0F8681DF00EFC03467B75BB68002B32
:1037E00004D0BB685A1CBA607A7D1A703B685A1EB6
:1037F0003A60002BAFD1012318461837BD4680BD73
:1038000080B584B000AF78600B467B80786800217B
:103810001DF0D0FB7B681B88FB817B88102B2CD094
:10382000102B06DC042B16D0082B1DD0022B0DD03C
:1038300050E0402B33D0402B02DC202B26D049E037
:10384000802B35D0B3F5807F3BD043E0FB8923F05C
:103850003803FB813EE0FB8923F03803FB81FB89C1
:1038600043F00803FB8135E0FB8923F03803FB813B
:10387000FB8943F01003FB812CE0FB8923F0380324
:10388000FB81FB8943F01803FB8123E0FB8923F0D4
:103890003803FB81FB8943F02003FB811AE0FB899D
:1038A00023F03803FB81FB8943F02803FB8111E0FF
:1038B000FB8923F03803FB81FB8943F03003FB8154
:1038C00008E0FB8923F03803FB81FB8943F03803D0
:1038D000FB8100BF7B68FA891A80786801211DF09E
:1038E00069FB1037BD4680BD80B483B000AF7860FF
:1038F0007A680F4B9A4203D10E4B1B889BB210E0A3
:103900007A680D4B9A4203D10C4B1B889BB208E09E
:103910007A680B4B9A4203D10A4B1B889BB200E09A
:10392000002318460C37BD465DF8047B704700BF86
:103930000030014014090020003800401609002022
:10394000003C00401809002080B483B000AF7860CC
:103950007A680D4B9A4203D10C4B00221A800EE07C
:103960007A680B4B9A4203D10A4B00221A8006E078
:103970007A68094B9A4202D1084B00221A800C3710
:10398000BD465DF8047B70470030014014090020FB
:103990000038004016090020003C004018090020B3
:1039A00080B588B000AF786039600023FB6141E0EA
:1039B000FB69012202FA03F37B613B681B881A460C
:1039C0007B691340002B32D07B69FB603B689B789E
:1039D00003F00303DBB23B740123FB763B68DB7827
:1039E000022B06D0032B07D0012B08D10123FB7635
:1039F00005E00023FB7602E00223FB7600BFFB7E9E
:103A00007B743B689B781B09DBB203F00303DBB2DA
:103A1000BB743B689B789B08DBB203F00303DBB20B
:103A2000FB7407F10C03786819461DF0EFF8FB6989
:103A30000133FB61FB690F2BBAD92037BD4680BD2E
:103A400080B582B000AF0A4A3B4692E8030083E8A3
:103A50000300022001211CF0F9FF3A683B460433C1
:103A600010461946FFF79CFF0837BD4680BD00BFD2
:103A70008484020880B483B000AF78600B467B80FA
:103A80007B687A881A830C37BD465DF8047B7047E3
:103A9000B0B588B000AF204B3C461D460FCD0FC4DB
:103AA00095E8030084E803000323FB76022001214C
:103AB0001CF0CCFF022001211CF0C8FF02200121D4
:103AC0001CF0C4FF15484021FFF7D4FF1348102114
:103AD000FFF7D0FF11482021FFF7CCFF0023FB6147
:103AE00012E0FB69DB0007F12002134453F8202C9D
:103AF0003946FB69DB000B44043310461946FFF7D7
:103B00004FFFFB690133FB61FA7EFB699A42E8D8FB
:103B10002037BD46B0BD00BF8C84020800040240BF
:103B200080B588B000AF78600023FB610023BB61E3
:103B300089480021642224F051FB7B68DB7B002B49
:103B400001D00223FB617B685B78002B03D17B688B
:103B50009B78002B02D0FB690133FB617F4BFA6934
:103B600053F822307B610023FB61E3E0FB695B00DB
:103B70007A6913441B88FB74FB695B007A69134400
:103B80001B881B0A9BB2BB74FB7C1A01744B134449
:103B9000FB607B68DB79002B09D0FB685A68714BAE
:103BA0009A4204D1FB681B89082B00D1BFE0BB7C83
:103BB000022B07D17B681B7883F00103DBB2002B5B
:103BC00000D0B4E0BB7C012B07D17B685B7883F02D
:103BD0000103DBB2002B00D0A9E0BB7C012B03D199
:103BE000F86800F06BFEA2E0BB7C022B09D1BB6938
:103BF000DBB2F868194600F00BFEBB690133BB610C
:103C000095E0BB7C032B40F092807B681B7A002BF5
:103C100029D07B681B7B002B09D04F4B59787B68E0
:103C20001A8A7B685B8AF86800F012FB13E07B68F5
:103C30005B7A002B09D0484B59787B681A8A7B68DD
:103C40005B8AF86800F02CFB05E0434B5B78F86872
:103C5000194600F04DFB404B9B783F4ADB00134474
:103C600019225A7148E07B689B7A002B1BD07B6835
:103C7000DB7A002B09D0384B59787B681A8A7B682D
:103C80005B8AF86800F054FB05E0334B5B78F8681A
:103C9000194600F075FB304B9B782F4ADB0013442C
:103CA00029225A7128E07B681B8A184600F06EFAB8
:103CB0000346002B10D0284B59787B681A8A7B6802
:103CC0005B8AF86800F074FA234B9B78224ADB0089
:103CD00013440D225A710FE01F4B59787B681A8AE2
:103CE0007B685B8AF86800F08BFA1B4B9B781A4A5A
:103CF000DB00134409225A71174B9B78164A5278FD
:103D00001549DB000B441A71134B9B78124ADB00F8
:103D10001344FA689A60104B5B780133DAB20E4BA9
:103D20005A700D4B9B780133DAB20B4B9A70FB69DA
:103D30000133FB61FB69062B09DCFB695B007A69D7
:103D400013441A884FF6FF739A427FF40FAF024B69
:103D500018462037BD4680BD1C09002038A2020845
:103D60006CA202080008024080B588B000AF7860FD
:103D700013460A46FA703B8007F10C0318461EF002
:103D8000C1FE7023BB810123FB8100233B823B8862
:103D90007B6102233B834FF48073BB83FB780C2B46
:103DA00048D801A252F823F0DD3D0008353E000856
:103DB000353E0008353E0008F33D0008353E00085A
:103DC000353E0008353E0008093E0008353E000833
:103DD000353E0008353E00081F3E000807F10C0381
:103DE000786819461EF0A0FC786808211EF0ACFE29
:103DF00020E007F10C03786819461EF00FFD786883
:103E000008211EF0BDFE15E007F10C037868194685
:103E10001EF08CFD786808211EF0D0FE0AE007F144
:103E20000C03786819461EF007FE786808211EF01A
:103E3000E1FE00BF2037BD4680BD00BF80B586B023
:103E400000AFF860B9601346FB71BB689BB2BB82E0
:103E5000FB79BB750223FB7507F11403F86819465B
:103E6000FFF79EFD1837BD4680BD00BF80B586B008
:103E700000AFF860F9723A81FB803F4B1B785A1C07
:103E8000D1B23D4A11701A013C4B13447B61FB686F
:103E900019683A89FB7A084611461A4601F0C2FDB4
:103EA000FB685A68FB681B89104619460222FFF717
:103EB000C5FFFB681968FB689A7AFB8808461146BB
:103EC0001A46FFF751FFFB681B7B002B05D0FB68F0
:103ED0001B68184601211EF08BFFFB681B68184603
:103EE00001211EF001FCFB689B7A0C2B38D801A243
:103EF00052F823F0293F0008613F0008613F0008A5
:103F0000613F0008373F0008613F0008613F00083B
:103F1000613F0008453F0008613F0008613F00081D
:103F2000613F0008533F0008FB681B6803F134023F
:103F30007B691A6014E0FB681B6803F138027B6937
:103F40001A600DE0FB681B6803F13C027B691A6094
:103F500006E0FB681B6803F140027B691A6000BF42
:103F60007B693A891A81FB681A687B695A607B69A8
:103F700018461837BD4680BD700A00208009002011
:103F800080B483B000AF02460B46FA71BB80FA7969
:103F9000134B53F822301A68BB88A3F57A73F8796B
:103FA0000F4951F82010098901FB03F30D4981FBEA
:103FB00003018911DB17CB1A07EE903AB8EEE77AC6
:103FC000F7EE087A67EE277AFCEEE77A17EE903A7A
:103FD0009BB213600C37BD465DF8047B704700BF91
:103FE000400A0020D34D621080B483B000AF024677
:103FF0000B46FA71BB80FA79054B53F822301B68E7
:10400000BA881A600C37BD465DF8047B704700BF64
:10401000400A002080B483B000AF02460B46FA711C
:10402000BB80FA790B4B53F822301B68BA8807EE35
:10403000902AB8EE677AF7EE087A67EE277AFCEEF8
:10404000E77A17EE902A92B21A600C37BD465DF8F7
:10405000047B7047400A002080B483B000AF024662
:104060000B46FA71BB80FA790D4B53F822301B686E
:10407000BA88A2F57A7207EE902AB8EEE77ADFEDF9
:10408000097AC7EE277AFCEEE77A17EE902A92B209
:104090003C321A600C37BD465DF8047B704700BFA8
:1040A000400A0020CA54854080B582B000AF024665
:1040B0000B46FA71BB80FA790A4B53F82230002B79
:1040C0000CD0FB790B2B09D8FA79064B53F8223028
:1040D000DB68F979BA880846114698470837BD4623
:1040E00080BD00BF400A002080B485B000AF034609
:1040F000FB710023FB7309E0FA7B094B53F8223074
:104100001B6800221A60FB7B0133FB73FA7BFB798F
:104110009A42F1D31437BD465DF8047B704700BF67
:10412000400A002080B584B000AF0346FB71002335
:10413000BB600023FB731FE0FA7B134B53F8223064
:104140005A68BB689A420DD0FA7B0F4B53F8223065
:104150005B68BB60FA7B0C4B53F822305B681846F7
:1041600001F0E6FEFA7B084B53F822301B68002270
:104170001A60FB7B0133FB73FA7BFB799A42DBD33A
:104180001037BD4680BD00BF400A002080B483B018
:1041900000AF0346FB80FB88B3F5FA7F94BF002392
:1041A0000123DBB218460C37BD465DF8047B70472F
:1041B00090B587B000AFF860F9723A81FB800D4B83
:1041C0007B61FC7A3B897A69B2FBF3F39AB2FB8894
:1041D000F8680C21FFF74AFE0246074B43F82420FB
:1041E000FA7A054B53F82230044ADA601C37BD4690
:1041F00090BD00BF001BB700400A0020813F0008AF
:1042000090B587B000AFF860F9723A81FB800D4B32
:104210007B61FC7A3B897A69B2FBF3F39AB2FB8843
:10422000F8680121FFF722FE0246074B43F82420DD
:10423000FA7A054B53F82230044ADA601C37BD463F
:1042400090BD00BF40420F00400A0020E93F000837
:1042500090B587B000AFF860F9723A81FB800D4BE2
:104260007B61FC7A3B897A69B2FBF3F39AB2FB88F3
:10427000F8680C21FFF7FAFD0246074B43F82420AB
:10428000FA7A054B53F82230044ADA601C37BD46EF
:1042900090BD00BF001BB700400A0020E93F0008A6
:1042A00090B587B000AFF860F9723A81FB800D4B92
:1042B0007B61FC7A3B897A69B2FBF3F39AB2FB88A3
:1042C000F8680C21FFF7D2FD0246074B43F8242083
:1042D000FA7A054B53F82230044ADA601C37BD469F
:1042E00090BD00BF001BB700400A00201540000829
:1042F00090B583B000AF78600B46FB70FC787868AF
:104300000C214FF6FF720023FFF7B0FD0246064B6B
:1043100043F82420FA78044B53F82230034ADA6039
:104320000C37BD4690BD00BF400A00201540000874
:1043300090B587B000AFF860F9723A81FB800D4B01
:104340007B61FC7A3B897A69B2FBF3F39AB2FB8812
:10435000F8680C21FFF78AFD0246074B43F824203A
:10436000FA7A054B53F82230044ADA601C37BD460E
:1043700090BD00BF001BB700400A00205940000854
:1043800090B583B000AF78600B46FB70FC7878681E
:104390000C214FF6FF720023FFF768FD0246064B23
:1043A00043F82420FA78044B53F82230034ADA60A9
:1043B0000C37BD4690BD00BF400A002059400008A0
:1043C00080B400AF064B1A78064B1B789A420CBF9C
:1043D00000230123DBB21846BD465DF8047B70471D
:1043E0006C0B00206D0B002080B400AF034B1A78DB
:1043F000034B1A70BD465DF8047B70476C0B0020C0
:104400006D0B002080B483B000AF0346FB71044BFA
:10441000FA791A700C37BD465DF8047B704700BF0F
:10442000710A002080B400AF114B00221A70104BAB
:1044300000225A600E4B00229A600D4B0022DA6077
:104440000B4B00221A640A4BFF2283F84420084BCE
:10445000FF2283F84520064B002283F84620044BB8
:10446000002283F84720BD465DF8047B704700BFFB
:10447000A023002080B483B000AF78600B467B801F
:10448000054B1A6C7B8813445A1C034B1A640C3777
:10449000BD465DF8047B7047A023002080B485B042
:1044A00000AF78600B467B806D4B9A686C4B5A600E
:1044B0007A886B4B9A606A4B9A68694B1B6C1A44FA
:1044C000674B9A60674B1B78012B07D9644B9A683E
:1044D000644B1B78B2FBF3F2614B9A60604B9A68B5
:1044E0005F4B5B68D21A5E4BDA605D4B9A685C4B3F
:1044F0005A605B4BDA6840F68C239A4273D9584B6A
:104500001B781A46564B93F845305BB29A421CD141
:10451000534B1B78032B18D9514B1B780C2B14D8F9
:104520004F4B93F84630182B08D84D4B93F8463034
:104530000133DAB24A4B83F846200AE0484B1B7835
:10454000DAB2474B83F8442003E0454B002283F85E
:104550004620434B1B781A46414B93F844305BB2DC
:104560009A4232D13E4B93F84730002B2DD0002396
:10457000FB600CE03A4BFA68043253F8223099B2EF
:10458000394BFA6823F81210FB680133FB60344B97
:1045900093F844305AB2FB689A42EBDC304B93F804
:1045A00044305BB2FB6007E02F4BFA68002123F830
:1045B0001210FB680133FB60FB680B2BF4DD2B4B07
:1045C0001B780133DAB2294B1A70254B012283F88C
:1045D0004720234B1B78DAB2214B83F84520204B30
:1045E00000221A7037E01E4B93F84730002B32D070
:1045F0001B4BDA6840F2EE239A4219D9184BDA685D
:1046000040F6C9039A4213D8154B1B780B2B0FD8D1
:10461000134B1B781A46124BD968114B043243F8DE
:1046200022100F4B1B780133DAB20D4B1A7012E0D7
:104630000B4B002283F847200023FB6008E0084B67
:10464000FA680432002143F82210FB680133FB6052
:10465000FB680B2BF3DD1437BD465DF8047B704718
:10466000A023002001040020540B00206C0B00202C
:1046700080B483B000AF00237B600AE00A4B7A6805
:1046800033F81230002B01D0012306E07B680133A0
:104690007B607B680B2BF1DD002318460C37BD4691
:1046A0005DF8047B704700BF540B002080B485B0D8
:1046B00000AF78600B467B807B68FB60FB68143B37
:1046C000BB60BB689B7A0133DAB2BB689A72BB6885
:1046D0009B7A0A2B09D9BB685B781A46054B0021E7
:1046E00023F81210BB6800229A721437BD465DF899
:1046F000047B7047540B002080B586B000AF786013
:104700000B467B807B687B617B69103B3B613B692F
:10471000DB68FB603B699B78002B0FD13B697A8893
:104720009A803B6901229A70FB681A68FB689B7A41
:1047300010461946022200F041F821E03B697A88D0
:10474000DA803B69DA883B699B88D31A9AB23B6965
:104750001A813B695B781A463B6919890A4B23F831
:1047600012103B6900229A70FB681A68FB689B7AFA
:1047700010461946002200F021F83B6900229A7287
:104780001837BD4680BD00BF540B002080B586B0F1
:1047900000AFF860B9601346FB71BB689BB2BB8287
:1047A000FB79BB750223FB7507F11403F868194602
:1047B000FFF7F6F81837BD4680BD00BF80B586B05C
:1047C00000AF786013460A46FA703B8007F10C038D
:1047D00018461EF081FAFB789BB2BB813B88FB81B7
:1047E00001233B8200237B82084B1B78012B02D1E3
:1047F0000323BB8201E00023BB8207F10C0378682E
:1048000019461EF015FA1837BD4680BD710A002002
:1048100080B584B000AF78600B46FB70FA78134621
:10482000DB009B1A9B00224A1344FB60FB680022BA
:104830009A70FB6800229A72FB68FA785A70FB68DB
:1048400001221A70FB687A68DA607B6859687B68B5
:104850001B891A467B685B7B084611461A46FFF7A0
:1048600095FF7B681A687B689B7A10461946002280
:10487000FFF7A4FF78680021012201F02DF9FB6801
:10488000103318460B4901F055F9FB6814331846EC
:10489000094901F05DF9FB6803F11002FB6814336C
:1048A000786811461A4601F0B1F91037BD4680BD4F
:1048B000740A0020F9460008AD46000880B584B0AF
:1048C00000AF7860FFF7AEFD1D4BFB60FB68002278
:1048D0001A70FB687A68DA607B6859687B681B89A4
:1048E0001A467B685B7B084611461A46FFF74EFF67
:1048F0007B681A687B689B7A104619460022FFF78E
:104900005DFF78680021012201F0E6F8FB681033B2
:1049100018460C4901F00EF9FB68143318460A4991
:1049200001F016F9FB6803F11002FB681433786894
:1049300011461A4601F06AF91037BD4680BD00BF26
:10494000740A00209D4400087544000880B483B0B8
:1049500000AF0346FB71FA79044B33F81230184666
:104960000C37BD465DF8047B704700BF540B002038
:1049700080B483B000AF0346FB71FA79044B33F87F
:10498000123018460C37BD465DF8047B704700BFF7
:10499000540B002080B483B000AF78600B467B805E
:1049A0007B687A881A830C37BD465DF8047B7047B4
:1049B00080B584B000AF78607B689B7903F0010319
:1049C000002B0CBF00230123FB73FB7B002B09D0C2
:1049D0007B689A6D054B9A4204D105484FF400411B
:1049E000FFF7D8FF1037BD4680BD00BF001401405F
:1049F0000004024080B586B000AF78607B689B6D94
:104A0000184600211CF0C0FD7B689B68BB6000233A
:104A1000BB817B689B7903F00203002B02D04FF42B
:104A2000005300E00023FB817B689B7903F00403C3
:104A3000002B02D04FF4806300E000233B82002370
:104A4000BB8200237B827B685B7903F00103002B30
:104A500004D07B8A43F004039BB27B827B685B7942
:104A600003F00203002B04D07B8A43F008039BB2BF
:104A70007B827B689A6D07F10803104619461CF08B
:104A8000C9FC7868FFF794FF7B689B7903F0080303
:104A9000002B06D07B689B6D184601211CF0A6FDFB
:104AA00005E07B689B6D184600211CF09FFD7B682C
:104AB0009B6D184601211CF067FD1837BD4680BD6F
:104AC00080B594B000AFF860B9607A60FB700023E5
:104AD000FB64FA688B4B9A4209D1FA7897F8583000
:104AE000786811461A4600F033FBF8641DE0FA6856
:104AF000854B9A4209D1FA7897F858307868114670
:104B00001A4600F033FCF8640FE0FA687F4B9A42D3
:104B100009D1FA7897F85830786811461A4600F0AB
:104B200037FDF86401E0FB6CE7E0FB6C012283F8E1
:104B30004C20FB6C00221A62FB6C1A6AFB6CDA6177
:104B4000FB6C00229A62FB6C9A6AFB6C5A62FB6CEB
:104B5000BA68DA62FB6CFA785A71FB6C7A689A6010
:104B6000FB6C97F858209A71F86CFFF743FFFB78BD
:104B700003F00103002B60D0FB6C1B6B002B4DD0AE
:104B800007F1100318461DF015FBFB6C5B6D7B6194
:104B90004FF48033BB6300237B620023FB624FF43E
:104BA0008063BB6200233B630023FB6300233B6401
:104BB00000237B640023BB64FB6CDB683B62FB6C03
:104BC0009B6B3B610023FB614FF480737B63FB6C49
:104BD0005B69BB61FB6C1B6B18461DF0C3F9FB6C7A
:104BE0001A6B07F11003104619461DF08DFAFB6C85
:104BF0001B6B184601211DF013FBFB6C9B6D1846C7
:104C0000402101221CF012FDFB6C1B6B18461DF0AD
:104C100031FB03461A46FB6C9A640EE0FB6C9B6DFD
:104C2000184640F225511CF0C5FDFB6C9B6D1846E3
:104C300040F2255101221CF01DFDFB7803F0020318
:104C4000002B53D0FB6C5B6B002B47D007F110039C
:104C500018461DF0AFFAFB6C1B6D7B614FF480337F
:104C6000BB6300237B620023FB624FF48063BB6263
:104C700000233B630023FB6300233B6400237B642E
:104C80000023BB64FB6C1B693B62FB6CDB6B3B6111
:104C90004023FB6100237B63FB6C5B6B18461DF0BC
:104CA00061F9FB6C5A6B07F11003104619461DF0B1
:104CB0002BFAFB6C5B6B1846962101221DF03AFB28
:104CC000FB6C5B6B184600211DF0C6FAFB6C9B6DFC
:104CD0001846802101221CF0A9FC07E0FB6C9B6DAB
:104CE000184640F2277101221CF0C4FCFB6C9B6D3E
:104CF000184601211CF048FCFB6C18465037BD4695
:104D000080BD00BF00100140004800400014014079
:104D100080B584B000AF786039607B68FB60FB6869
:104D20003A689A60F868FFF765FE1037BD4680BDA7
:104D300080B584B000AF78600B46FB707B68FB6089
:104D4000FB68FA785A71F868FFF754FE1037BD46D1
:104D500080BD00BF80B582B000AF78607B685B6BC0
:104D6000184600211DF05CFA7B685A6B7B689969D4
:104D70007B689B6A0B441046194600221DF088FA96
:104D80007B685A6A7B689B6A9A420CD97B685B6B2A
:104D90007A68516A7A68926A8A1A5A607B685A6A93
:104DA0007B689A620AE07B685B6B7A6811697A6853
:104DB000926A8A1A5A607B6800229A627B68002293
:104DC00083F84C207B685B6B184601211DF028FAA4
:104DD0000837BD4680BD00BF80B485B000AF7860A5
:104DE0007B68FB60FB681B6B002B1DD0FB681B6B9B
:104DF0005B68BB60FB689A6CBB689A4207D8BB686B
:104E0000DAB2FB689B6CDBB2D31ADBB228E0FB683A
:104E1000DB68DAB2BB68DBB21344DAB2FB689B6CC6
:104E2000DBB2D31ADBB21BE0FB68DA69FB681B6AF2
:104E30009A4208D3FB68DB69DAB2FB681B6ADBB213
:104E4000D31ADBB20CE0FB68DB68DAB2FB68DB6923
:104E5000DBB21344DAB2FB681B6ADBB2D31ADBB2F3
:104E600018461437BD465DF8047B704780B485B0A2
:104E700000AF78607B68BB60BB685A6ABB689B6A9E
:104E80009A4206D3BB685A6ABB689B6AD31AFB6016
:104E900008E0BB681A69BB685B6A1A44BB689B6A16
:104EA000D31AFB60BB685B6B002B0DD0BB685B6BE0
:104EB0005B68FA681344FB60BB681B695A1EFB6899
:104EC0009A4201D8002308E0BB681B69DAB2FB688C
:104ED000DBB2D31ADBB2013BDBB218461437BD4656
:104EE0005DF8047B704700BF80B485B000AF786088
:104EF0007B68FB60FB685B6B002B03D0FB6893F85F
:104F00004C3008E0FB689A6AFB685B6A9A4214BFFF
:104F100000230123DBB218461437BD465DF8047B3D
:104F2000704700BF80B485B000AF78607B68BB601D
:104F3000BB681B6B002B17D0BB685A69BB68D9686C
:104F4000BB689B6CCB1A13441B78FB73BB689B6CD0
:104F50005A1EBB689A64BB689B6C002B1BD1BB6854
:104F6000DA68BB689A6416E0BB685A69BB681B6A5A
:104F700013441B78FB73BB681B6A5A1CBB68DB6855
:104F80009A4203D3BB6800221A6204E0BB681B6A22
:104F90005A1CBB681A62FB7B18461437BD465DF885
:104FA000047B704780B584B000AF78600B46FB701F
:104FB0007B68FB60FB689A69FB685B6A1344FA785C
:104FC0001A70FB685B6A5A1CFB681B699A4203D320
:104FD000FB6800225A6204E0FB685B6A5A1CFB68AB
:104FE0005A62FB685B6B002B0AD0FB685B6B1B682B
:104FF00003F00103002B0BD1F868FFF7ABFE07E0CD
:10500000FB689B6D184640F2277101221CF032FBB1
:105010001037BD4680BD00BF80B582B000AF78605C
:105020007B681B6B002B2DD17B689B6D184640F273
:1050300025511CF067FB0346012B23D17B68DB6AFB
:10504000002B08D07B68DB6A7A68926D928892B2F6
:105050001046984716E07B685A697B68DB69134401
:105060007A68926D928892B2D2B21A707B68DB69CC
:1050700001337A68D268B3FBF2F102FB01F29A1AAB
:105080007B68DA617B685B6B002B31D17B689B6D41
:10509000184640F227711CF035FB0346012B27D13F
:1050A0007B689A6A7B685B6A9A4219D07B689A6DC2
:1050B0007B6899697B689B6A0B441B78DBB210465E
:1050C00019461CF081FA7B689B6A01337A68126981
:1050D000B3FBF2F102FB01F29A1A7B689A6207E0D5
:1050E0007B689B6D184640F2277100221CF0C2FAC3
:1050F0007B689B6D184608211CF004FB0346012BBE
:1051000006D17B689B6D18464FF458711CF052FB1A
:105110000837BD4680BD00BF80B582B000AF786063
:105120007B685B6B184600211DF07AF87B685A6A31
:105130007B689B6A9A4203D07868FFF70BFE03E016
:105140007B68012283F84C200837BD4680BD00BF34
:1051500080B586B000AF786013460A46FA70BB701F
:10516000464B7B617B69464A1A607B697A689A6024
:105170007B69444A5A617B69434A9A617B694FF46F
:105180008072DA607B694FF480721A617B693F4AF2
:105190009A657B699B6D04331A467B691A657B6946
:1051A0009B6D04331A467B695A657B694FF0006238
:1051B000DA637B69364A5A63102001211BF0BEFC7A
:1051C000344801211BF042FC0323FB744FF40073AD
:1051D0003B82BB7803F00803002B08D01223BB747A
:1051E00007F110032C481946FEF7DAFB1CE0FB78A8
:1051F00003F00203002B07D00223BB7407F1100356
:1052000025481946FEF7CCFBFB7803F00103002B81
:105210000AD04FF480633B820223BB7407F1100372
:105220001D481946FEF7BCFB1B48092107221BF04D
:10523000CBFD19480A2107221BF0C6FD46233B730C
:1052400001237B730023BB730123FB7307F10C0362
:1052500018461CF01BFB25233B7301237B730023A3
:10526000BB730123FB7307F10C0318461CF00EFB04
:105270007B6918461837BD4680BD00BF700B002003
:1052800048A20208840C0020840D00200010014078
:10529000B8640240010040000000024080B582B0C6
:1052A00000AF254B7B607B685B6B184623491DF084
:1052B0007BF80346002B1DD07B685B6B18461F49AB
:1052C0001DF0CAF87B685B6B18461D491DF0C4F8D9
:1052D0007B685B6B18461B491CF0F0FF0346012BF3
:1052E00005D17B685B6B184616491DF0B5F87868E8
:1052F000FFF712FF7B685B6B184613491CF0DEFF5B
:105300000346012B05D17B685B6B18460E491DF0E7
:10531000A3F87B685B6B18460C491CF0CFFF034673
:10532000012B05D17B685B6B184608491DF094F88A
:105330000837BD4680BD00BF700B002000800028EC
:1053400000400024000040A00020002200100021A6
:1053500080B582B000AF044B7B607868FFF75CFEDD
:105360000837BD4680BD00BF700B002080B586B0F9
:1053700000AF786013460A46FA70BB70494B7B61F8
:105380007B69494A1A607B697A689A607B69474AF7
:105390005A617B69464A9A617B694FF48072DA6090
:1053A0007B694FF480721A617B69424A9A657B6916
:1053B0009B6D04331A467B691A657B699B6D0433C8
:1053C0001A467B695A657B694FF00062DA637B6934
:1053D000394A5A634FF4001001211BF037FB4FF498
:1053E000802001211BF08CFB022001211BF02EFBF1
:1053F0000223FB744FF480633B82BB7803F0080305
:10540000002B08D01223BB7407F110032B48194658
:10541000FEF7C6FA1CE0FB7803F00203002B07D06E
:105420000223BB7407F1100324481946FEF7B8FAAB
:10543000FB7803F00103002B0AD04FF400633B829A
:105440000223BB7407F110031C481946FEF7A8FAA3
:105450001A480B2107221BF0B7FC18480A21072223
:105460001BF0B2FC0E233B7301237B730023BB7341
:105470000123FB7307F10C0318461CF007FA2723DE
:105480003B7301237B730023BB730123FB7307F181
:105490000C0318461CF0FAF97B6918461837BD460C
:1054A00080BD00BFCC0B002048A20208840E002063
:1054B000840F002000480040586002400004024071
:1054C00080B582B000AF254B7B607B685B6B184674
:1054D00023491CF069FF0346002B1DD07B685B6BE2
:1054E00018461F491CF0B8FF7B685B6B18461D49C6
:1054F0001CF0B2FF7B685B6B18461B491CF0DEFE9C
:105500000346012B05D17B685B6B184616491CF0DE
:10551000A3FF7868FFF700FE7B685B6B18461349B2
:105520001CF0CCFE0346012B05D17B685B6B184653
:105530000E491CF091FF7B685B6B18460C491CF010
:10554000BDFE0346012B05D17B685B6B18460849FD
:105550001CF082FF0837BD4680BD00BFCC0B002089
:10556000008000180040001400004090002000124D
:105570000010001180B582B000AF044B7B607868EA
:10558000FFF74AFD0837BD4680BD00BFCC0B0020A9
:1055900080B586B000AF786013460A46FA70BB70DB
:1055A000474B7B617B69474A1A607B697A689A60DE
:1055B0007B69454A5A617B69444A9A617B694FF429
:1055C0008072DA607B694FF480721A617B69404AAD
:1055D0009A657B699B6D04331A467B691A657B6902
:1055E0009B6D04331A467B695A657B694FF02062D4
:1055F000DA637B69374A5A634FF4800001211BF05C
:1056000025FA202001211BF099FA042001211BF02A
:105610001DFA0223FB7440233B82BB7803F008038E
:10562000002B08D01223BB7407F110032A48194637
:10563000FEF7B6F91BE0FB7803F00203002B07D05E
:105640000223BB7407F1100323481946FEF7A8F99B
:10565000FB7803F00103002B09D080233B82022357
:10566000BB7407F110031C481946FEF799F91A4854
:10567000062108221BF0A8FB1748072108221BF06F
:10568000A3FB45233B7301237B730023BB730123DF
:10569000FB7307F10C0318461CF0F8F847233B7323
:1056A00001237B730023BB730123FB7307F10C03FE
:1056B00018461CF0EBF87B6918461837BD4680BDCC
:1056C000280C002048A20208841000208411002029
:1056D00000140140A06402400008024080B582B07E
:1056E00000AF254B7B607B685B6B184623491CF041
:1056F0005BFE0346002B1DD07B685B6B18461F4981
:105700001CF0AAFE7B685B6B18461D491CF0A4FECA
:105710007B685B6B18461B491CF0D0FD0346012BD0
:1057200005D17B685B6B184616491CF095FE7868BE
:10573000FFF7F2FC7B685B6B184613491CF0BEFD5B
:105740000346012B05D17B685B6B18460E491CF0A4
:1057500083FE7B685B6B18460C491CF0AFFD03466B
:10576000012B05D17B685B6B184608491CF074FE61
:105770000837BD4680BD00BF280C002000802020D7
:1057800000401020000001A000200820001004208C
:1057900080B582B000AF044B7B607868FFF73CFCBB
:1057A0000837BD4680BD00BF280C002080B584B0FE
:1057B00000AF78607B689B88BB817B681B7BBB7379
:1057C0000223FB737B681B68184601211BF03EF91E
:1057D0007B689A6807F10C0310461946FEF7E0F85B
:1057E0001037BD4680BD00BF80B400AFBFF34F8F00
:1057F000054A054BDB6803F4E061044B0B43D360BF
:10580000BFF34F8FFEE700BF00ED00E00400FA0594
:1058100080B500AFFCF714FA72B6FFF7E5FF80BD64
:1058200080B500AFFCF70CFA034B044A1A6072B65D
:10583000FFF7DAFF80BD00BFFCFF0120EFBEADDE49
:1058400080B582B000AF2D4801211BF0FFF8002089
:1058500001211BF019F9002001211BF033F9284820
:1058600001211BF04DF9274801211BF067F93B4648
:1058700018461BF059FA0123FB714FF6FF733B608A
:105880003B6823F4C0533B603B6823F4C0433B6058
:105890003B461D4819461BF0B9F94FF6FF733B60B4
:1058A0003B461A4819461BF0B1F94FF6FF733B60AF
:1058B0003B46174819461BF0A9F93B4615481946BF
:1058C0001BF0A4F93B46144819461BF09FF93B46D0
:1058D000124819461BF09AF93B46114819461BF02D
:1058E00095F93B460F4819461BF090F93B460E4888
:1058F00019461BF08BF90837BD4680BDFF91670044
:10590000FFC9FE36335F070000000240000402407A
:1059100000080240000C0240001002400014024047
:1059200000180240001C02400020024080B485B0F4
:1059300000AF78607B681B78FB60FB6883F311889D
:105940001437BD465DF8047B704700BF80B485B056
:1059500000AF0346FB71FB79FB60FB6883F31288A1
:10596000012318461437BD465DF8047B704700BF1D
:1059700080B483B000AF78607B689B0A124A934280
:1059800014D0114A934206D8B3F5801F0AD00F4AAB
:10599000934209D010E00E4A934209D00D4A934237
:1059A00008D009E0002308E0012306E0022304E018
:1059B000032302E0042300E0FE2318460C37BD4613
:1059C0005DF8047B704700BF030010000100100069
:1059D000410010005000100080B483B000AF0346B7
:1059E000FB80FB889B089BB2DBB218460C37BD4698
:1059F0005DF8047B704700BF80B584B000AF0346FC
:105A0000FB71FB793B7301237B730023BB73012381
:105A1000FB7307F10C0318461BF038FF1037BD4627
:105A200080BD00BF80B586B000AF786013460A46DF
:105A30007A807B7007F10C0318461CF03BFE7B88D4
:105A4000013B9BB23B617A681C4B9A420FD07A684B
:105A50001B4B9A420BD07A681A4B9A4207D07A684D
:105A6000194B9A4203D07A68184B9A420CD1184BC2
:105A70001A687B78174901FB03F3B2FBF3F39BB27F
:105A8000013B9BB2BB810CE0114B1B685A087B7831
:105A9000104901FB03F3B2FBF3F39BB2013B9BB252
:105AA000BB810023BB820023FB8107F10C037868D4
:105AB00019461CF095FD1837BD4680BD0000014019
:105AC0000004014000400140004401400048014002
:105AD0002004002040420F0080B582B000AF786003
