:020000040800F2
:1000000000040020E1380108732801089128010844
:1000100065390108653901086539010800000000EB
:10002000000000000000000000000000712801082E
:100030006F280108000000006D28010875280108DC
:100040006539010865390108653901086539010814
:100050006539010865390108653901086539010804
:1000600065390108653901086539010865390108F4
:10007000653901086539010821270108653901083A
:1000800065390108653901086539010865390108D4
:1000900065390108653901086539010885280108B5
:1000A0002526010865390108653901086539010807
:1000B00075260108652601086539010869280108C7
:1000C00061280108652801085D28010865390108D3
:1000D00065390108B92701086539010815270108A4
:1000E0008B28010865390108C9280108653901080C
:1000F00035260108653901084526010865390108DA
:100100006539010865390108552601086539010876
:100110006539010865390108653901086539010843
:100120006539010865390108653901086539010833
:100130006539010865390108653901086539010823
:100140006539010865390108653901083921010857
:100150006539010891260108C5270108852601088F
:1001600065390108653901086539010865390108F3
:1001700065390108653901086539010865390108E3
:1001800065390108653901082DE9F04F9D4A2DEDCB
:10019000108B13780A2B93B0164605D89A4A34214F
:1001A00001FB03239C6A00E00024984D0BA8EB6838
:1001B00098479DF82C3023B133780A2B0DD90023B2
:1001C00010E00BF0F6FB924B924A1B681268E31AA0
:1001D000184464329042E8D3EEE78B4A342101FBA5
:1001E00003239B6A9BB205EE903ADFED8B9A8B4C12
:1001F0008B4A8C4E1380B8EE650A204660EE290AC1
:100200000121E0EC010A04F0E7FABCEEC00A8548DF
:1002100010EE103AA3816B68984740B9824B1A6878
:1002200012F0020F984640F0C28000F006BC276929
:1002300004F11402B11E06F1040C00231546184601
:10024000B5F802E025F802EB17F903800133082B1B
:100250001EFB0800F4D14B88138297F9085013FB5A
:1002600005034FF4807593FBF5F321F8023F6145D8
:1002700002F11202E1D16D4B6A481A78DFF8C4A18D
:1002800001460BF0D1F96A4B1A889946002A00F012
:100290008480E36C1B784FF0000808EE103AAAF156
:1002A00048054746B9F80020DFF89CB1B2F57A7FDF
:1002B00003D100234BF808302B61F15F5BF8083065
:1002C0000B444BF808302B6907EE101A0133012B51
:1002D000F8EEC77A2B6106D10023C5ED017AC5ED92
:1002E000007AAB6019E095ED006A05EE903A77EE82
:1002F000C66AB8EEE57A86EE877A36EE077A37EE8A
:10030000C76AD5ED027A85ED017AE6EE867A85ED4B
:10031000007AC5ED037AC5ED027A0023012AF35372
:100320002AF8073027D12B69012B09DD013B00EEAC
:10033000103AD5ED037AB8EEC00A87EE800A01E0E4
:100340009FED3C0A15F0FCFC18EE100A48B1F8EEDF
:10035000C87AB4EEE70AF1EE10FA02DD4FF47A73D0
:1003600019E05BF808304FF47A7203F5FA7393FBE7
:10037000F2F32AF807300237062F08F1040805F1D6
:1003800014058FD1B9F80000012801D10CF054F9FF
:10039000B9F80030013BA9F800300023F15A3AF8CF
:1003A00003208A1AF2520233062BF7D136E794F86B
:1003B0009E301A4D002B00F040830BF0FAFAD5F86E
:1003C000A030C5F8A000C31A0EEE103A00251A4B53
:1003D0001A481A681A4F11789946B9B3425FF8EE75
:1003E0004E0A00EE102A0830B8EEC00A00EB850075
:1003F00060EEA90A04F0F0F9BDEEC00A10EE103A62
:1004000025E000BF2807002018040020D01300209A
:10041000D416002018140020BD3786351017002090
:10042000F81E0020001F00200414002000140020EB
:10043000E24500200000000024140020B417002032
:10044000821F0020A81700209C170020435B7B53CD
:100450000235062DBBD1D8F80020BF4B12F0080F93
:100460000CD0B3F9001039B1B3F9021021B1B3F9CE
:100470000410003118BF0121C80732D4B7490978E8
:1004800001F0100000F0FF0580B312F020052DD020
:1004900001F0020202F0FF0542B3B14A1278042AC9
:1004A00023D9B04A1288B2F5967F1ED3AE4AB2F96C
:1004B000042007EE902AAD4A128808EE102AB8EE02
:1004C000C88AB2EE047A88EE078A01254FF0000848
:1004D000F8EEE77A37EEC88ADFEDA57A28EE278AAC
:1004E00007E000254FF0010801E00025A8469FED38
:1004F000A18AB6F90210B6F900009F4AB6F9046065
:10050000B3F800A0B3F804B0F8EE4E7A0BEE901AF0
:100510000CEE100A67EEA99AF8EEEBBAD2ED007A6B
:10052000B7F90400B7F900206BEEA7BAB8EECCCA51
:100530000BEE106A2CEE27CA2BEEAB0AB8EECBBA44
:10054000ACEE0C0AB7F902602BEE27BA0DEE902A3A
:10055000ABEE0B0A0DEE106A0CEE900A5E8815F0F9
:10056000EFFBF8EEEDDAB8EECDDAF8EEECCAF0EE2D
:1005700040EA15B3DFED817AB4EEE78AF1EE10FAC6
:1005800004DDDFED7F7A38EE678AF3E7DFED7D7A11
:10059000B4EEE78AF1EE10FA04D5DFED797A38EEA1
:1005A000278AF3E7B6EE000A28EE000A04F010FBF3
:1005B000DFED708A70EE288A01E0DFED6E8A9FED34
:1005C0006D8A9FED71FAF7EE00AAB8F1000F54D0D2
:1005D0000FFA8AFA05EE90AA36B2F8EEE5FA09EEBD
:1005E000106A2FEEAF0AB8EEC99A0FFA8BFB07EE2E
:1005F00010BAA9EE090AB8EEC7AAAAEE0A0AB4EE22
:10060000CF0AF1EE10FA38DD15F09AFB8AEE800A77
:10061000D4ED327A94ED317A29EE009A6FEE80FAB9
:1006200069EE277A2AEE00AAE7EE2F7A94ED337A64
:10063000E7EE0A7A94ED357A29EE079A94ED347A4A
:10064000A7EE2F9A94ED367AA7EE0A9AB0EE48AA52
:1006500029EE090AA7EEA70A15F072FBD4ED377A46
:1006600020EE490AA7EE80AAD4ED387AA7EE808A58
:10067000D4ED397AE7EE808A01E0B0EE48AA2DEE9B
:100680000D0AADEEAD0AACEEAC0AB4EECF0AF1EE57
:1006900010FA21DD15F054FB8AEE800AD4ED386A99
:1006A000D4ED397A6CEE80CA2DEE00DA26EEEC7AC3
:1006B0006DEE80DAADEE277A67EEED7A3AEE07AAB4
:1006C00094ED377A27EE4DDAECEE877AADEEA6DAC6
:1006D00038EE278A78EE8D8AD9F80020D2ED017A9B
:1006E000F5EEC07AF1EE10FA4FF000031FDD9FED3A
:1006F000277AF4EEC7EAF1EE10FA1ED567EE8A6AA1
:1007000094ED3A7AA6EEA97A67EE886A84ED3A7A91
:1007100094ED3B7AA6EEA97A67EEA87A84ED3B7A4F
:1007200094ED3C7AA7EEA97A84ED3C7A05E0C4F812
:10073000E830C4F8EC30C4F8F030154ED2ED027A4F
:100740003378590728D4134B1A6844F61F639A422A
:100750008CBF0023012320E0721F00207D130020A6
:10076000B41F0020B01F0020901F0020261F002073
:1007700035FA8E3C000000002C140020DB0F4940AD
:10078000DB0FC940DB0F49C00AD7233CC2B8B23ED9
:10079000E1450020D84500200023002BF7EE006A39
:1007A000B2EE047A08BFB0EE667A27EE877AD4ED0F
:1007B0003A7A94ED3D6A94ED3F0ADC4DE7EE0A7A11
:1007C000F1EE405A3CEE27CAD4ED3B7AD5ED006AF3
:1007D000E7EE087A7BEEA7BAD4ED3C7AE7EE287A0A
:1007E00094ED3E7A3BEE27BAF6EE007A69EEA77AF0
:1007F0006BEEA7BA2BEE27BA2CEE27CA6BEEC77AA0
:10080000E6EE4C7AE5EE8B7A36EEA78A67EE0B7A47
:10081000E6EE8C7AE5EEAB7A76EE278A6BEE467AD8
:10082000E6EEAB7A66EE2BBAE0EE0C7AE6EE8BBA29
:1008300037EE279AE7EE4CBA70EE2BBA28EEA80AEC
:10084000A8EE080AA9EE090AABEEAB0A15F078FA91
:100850008AEE800A28EE008A68EE808A29EE009AE5
:100860006BEE80BA85ED008AC4ED3D8A84ED3E9A38
:10087000C4ED3FBA03F048FF94ED398AD4ED38AAAD
:10088000DFEDAB8AAB4DF0EE480AB0EE6A0A15F028
:10089000B1F820EE280A15F005F894ED37AA288063
:1008A000B1EE4A0A15F048F8DFEDA37A37EEC00A38
:1008B00020EE280A14F0F6FF94ED349A94ED31BA44
:1008C0006880F0EE4B0AB0EE490A15F093F89B4BA6
:1008D000D3ED007AE0EE687AB0EE670A14F0E2FF3A
:1008E00083B21A04B7F9021094ED327A52BFAB808A
:1008F00000F56160A88006EE901AB7F90000904BF1
:10090000B7F90470D3ED007A94ED355A8D4BF8EEBB
:10091000E66A05EE900A26EE870AF8EEE55A06EE3C
:10092000107AABEE250A1A78B8EEC66AB4EEE78AFA
:10093000D4ED337AA7EE860A6AEEA67A66EE856A69
:10094000F1EE10FAE9EE256ACCBF42F0080222F07F
:100950000802EAEE257A1A70D9F80020D4ED365A4A
:100960005278794BE5EE866A012AE8EE067AF1EED6
:10097000668A1CD1327855070FD4D3F80021402164
:1009800092FBF1F1511A06EE901AF8EEE66A76EE55
:10099000A76AFDEEE66AC3ED406AD4F80031402252
:1009A00093FBF2F305EE903AF8EEE56A05E0674B4B
:1009B0001B8806EE903AF8EEE66A77EEE67AD4ED1A
:1009C000426A94ED418AD4F80C6179EEA66A77EE1A
:1009D000C87AC9EEA69AA9EEA78A84ED418A14F0D6
:1009E00061FFD4F81851297804F034F8B0EE680AA1
:1009F0003044C4F80C01D4F8106114F053FF297886
:100A000004F028F8B0EE480A3044C4F81001D4F8D5
:100A1000146114F047FF697804F01CF84C4B304423
:100A20001A68C4F814011EEE100A02441A60D4F8C1
:100A30001C310133C4F81C3106E00023A4F8A430B3
:100A4000A4F8A630A4F8A830424BB3F90600424BF4
:100A50001F687B89984211DBB0F5FA6F97F807C0E1
:100A600009DAC21A02FB0CFCA3F5FA639CFBF3FC47
:100A70000CF1640C04E0CCF1640C01E04FF0640C68
:100A8000364B374AB3F8941193F95E31D2F800E04F
:100A900007919BB20021089375460A462D4B079C8F
:100AA000CB5E06931B1B03F2F31640F2E634A6421C
:100AB00003D8002BB8BF5B4201E04FF4FA73022A5F
:100AC000214CDFF8A4904FF064064FD09EF81181BE
:100AD000B8F1000F04D04345CCBFC8EB030300239B
:100AE00093FBF6F804EB480A04EB4804BAF820A19B
:100AF0006FF0630B0BFB083BB4F922810FFA8AF409
:100B0000C4EB080404FB0BF494FBF6F4544429F8FA
:100B10000140BC1824796343124C93FBF4F3643313
:100B20009BB20CFB03F393FBF6F64EE05406002059
:100B30004C3D0F44901F0020DB0FC93F20140020C4
:100B4000281400207D13002010170020020400202C
:100B5000F445002022150020582B00201808002002
:100B6000C01300200CFEFFFF9C1F00209EF8128186
:100B7000B8F1000F04D04345CCBFC8EB03030023FA
:100B800093FBF6F66FF0630A04EB46080AFB063B9C
:100B900004EB4606B8F92E81B6F93041089EC8EB41
:100BA000040404FB0BFB9BFBFAFBC8EB0B0808FBE4
:100BB00006F8A9F80480BC7983EAE376A6EBE3762D
:100BC0006643B84C96FBF4F664360EEB0208B64B5F
:100BD00098F8019003F59E744FF0640806FB09F93C
:100BE00099FBF8F902F8049095F80B9003F23F1482
:100BF00006FB09F999FBF8F902F8049095F81590AD
:100C000003F5A17406FB09F6022A96FBF8F61655C1
:100C10001C4616BF03F2451383F8478102F803C050
:100C2000DDF81890079BA14E994502DA735A5B4292
:100C300073520231062902F1010205F101057FF428
:100C40002DAF9B4DB5F89631984205DBB0F5FA6FA4
:100C5000A8BF4FF4FA6000E01846C01A4FF47A7249
:100C60005043C3F5FA63B0FBF3F34FF0640E93FB0C
:100C7000FEF204EB42016FF0630000FB023304EB71
:100C80004202B1F84811B2F94A01884F0AB2821AF9
:100C9000534393FBFEFE874B1B8871445806F1803B
:100CA0003AD5854BDFED857AB3F904200A2392FB10
:100CB000F3F37D4AB2F860219B1A1BB208EE903A1A
:100CC000F8EEE88A68EEA78AB0EE680A03F0E0FF63
:100CD000B0EE408AB0EE680A03F07AFFB7F90290EE
:100CE000B7F9000006EE909A07EE900AF8EEE66A71
:100CF000F8EEE77A20EE667AA7EE887A67EE807AD9
:100D0000BDEEC77AE6EE887A17EE103AFDEEE77A86
:100D10003B8017EE903A7B8095F89A31002B4FD0AC
:100D2000674A614B1188A289B1FBF2F101F1010C14
:100D300094F864211FFA8CFCA4F862C10AB3B3F8DA
:100D400066A10023584AF75A02F5B47E02F5B8703E
:100D500033F80E8033F800901F5218FB0AF80FFA90
:100D60008CFBC9EB070998FBFBF8C84423F80E80FD
:100D70000233082BE6D1002382F86431A2F8661111
:100D800004E0B3F86621013AA3F86621B4F86611CD
:100D9000454A0BB2002B4FF000030FDDB2F9627130
:100DA000484A985A083210FB01F09A5A90FBF7F023
:100DB000121AF2520233082BF2D101E0A2F8663186
:100DC000414B424F1A78DFF8248112F0040F03D010
:100DD0003F4B40225A833FE0D8F80010C9075CBF60
:100DE00042F001021A703B4A1278100703D41A78B5
:100DF00022F001021A703A68510702D53649098873
:100E000089B93649098809B1920705D4344A11884D
:100E1000003118BF012100E0012121B9B4F87801A7
:100E2000214A642807D9022284F87A211A7822F00C
:100E300001021A7007E01B78DB0756BF022382F815
:100E40007A1182F87A310AF0B4FDD4F87C31C01AF4
:100E5000002801DB0AF01AFF224B9B680BB12248E5
:100E600098473968104B012211F0140F84F8822141
:100E700000F0A5800F49098801F40271002900F0F3
:100E80009E801449097801F0100101F0FF0E79B33A
:100E9000728895F9EC11D3F8843101FB0323738038
:100EA0008DE000BF0CFEFFFF101700209C1F0020EC
:100EB0001808002014200020901F002035FA8E3CD6
:100EC0009015002078180020E1450020041400202F
:100ED000000402407D130020E4450020C6160020D7
:100EE000E2450020D013002090180020FC1E0020B6
:100EF000D3F88811DFF844C3C878897880B3B3F990
:100F00008C01BCF906C0C0EB0C09B9F1000FB8BFE9
:100F1000C9F1000989450CDD8445C8BF4942C3F8C1
:100F200090E183F89421F388C8BF89B21944F18015
:100F300045E093F894212AB1BC4A83F894E1116802
:100F4000BB4A1160D4F88431D4F89821184413882E
:100F50005288984232DB9042B4BF034613462DE0DC
:100F6000B3F98CE1BCF906C0CEEB0C0C8CEAEC7941
:100F7000A9EBEC79894509DD0220AE4983F89C2173
:100F80009CFBF0F0086083F894210AE093F8942128
:100F90003AB1A64A83F89C011168A54A83F89401E6
:100FA0001160D4F89811D4F884210B8849887244D0
:100FB0009A4203DB8A42B4BF13460B46F3809E4B32
:100FC0001B78ABB19D4BB3F90620B5F896319A4228
:100FD0000EDC9B4B5B79012B01D0192B02D195F8CC
:100FE000E6212AB90E2B03D0082B1CBF0023B380A7
:100FF000944B1A6892F81891B9F1000F33D0924BC4
:101000001B8898072FD094ED390ADFED907AB6F857
:1010100006A0B4EEE70AF1EE10FA21D914F08CFC28
:101020008B4BD3ED687A20EE270A14F03BFCB0F529
:10103000617FA8BF4FF4617005EE900ADFED857AFD
:10104000B8EEE50A80EE270A03F0C2FD07EE109A1B
:10105000F8EEC77A27EE800A14F024FC80B200E094
:1010600000205044F0803B68990640F18F80764B19
:101070001B8803F03003002B00F08880764B1B7830
:10108000DA0740F18380754BDFED757AB3F9042000
:10109000DFF8EC910A2392FBF3F308EE103AB8EE76
:1010A000C88A28EE278AB0EE480A03F091FDF0EED8
:1010B000408AB0EE480A03F0EBFD6A4B1B6893F8D8
:1010C00003A0B0EE409AB2EE048ABAF1000F39D014
:1010D000B4F8A621B4F9AA011FFA82FB12B2801A51
:1010E00004F004F9CAF10007B84203DB5045A8BF79
:1010F000504600E03846B4F8A4210BEB0003B4F9E5
:10110000A80191B212B21FFA83FB801AA4F8A6B10B
:10111000059104F0EBF8B842059903DB5045B4BFE4
:10112000074657460F44BFB2A4F8A4710FFA8BF3D9
:101130003FB207EE903A05EE907AB8EEE77AF8EE15
:10114000E56A0BE0B4F9AA01B4F9A81107EE100A98
:1011500006EE901AB8EEC77AF8EEE66A68EEE67A1E
:10116000E7EE097A26EE899AC7EE887AA7EE289AE2
:10117000FDEEE77A89EE089A17EE903ABDEEC99A2D
:10118000A9F8003019EE103AA9F802302D4A364B72
:101190001068B5F86A210093344B1D68344B196808
:1011A00000F15803A847334B1D78032D17D9D4F805
:1011B000AC315A88B2F5FA7F11D2254BB6F904004A
:1011C000B3F9B4110028B8BF404253421B1A9942E8
:1011D00003DB13188B42A8BF0B46A4F8B431D8F830
:1011E00000703B0106D4244B1B6841F21D021A40DB
:1011F000002A47D00DF12A06D4F8AC31079306EB4C
:1012000045060022069694ED6E6AD4ED6F5AB4F846
:10121000B0C194ED705AD4ED714AB4F8B281B4F90A
:10122000B491164B0DF12A011646F8E0201F00205C
:10123000802B0020F8450020AC060020221500205D
:1012400018080020C0130020142000208FC2753C15
:1012500010170020EFB6B0447D130020901F00202F
:1012600035FA8E3C301600209E090020A80600208A
:10127000582B002048120020380F00205412002064
:10128000EE450020C44BF1881A7094ED6E6AD4EDDF
:101290006F5AB4F8B00194ED705AD4ED714AB4F8B5
:1012A000B261D4F8ACA1B4F9B4C1BC4BAA4280F08D
:1012B00040819AF90090DFF8F482C9F100090CFB33
:1012C00009F917F0805F07EE109A34D00FFA86F90B
:1012D000B8EEC74A07EE109A0FFA81F903EE909A1A
:1012E0000FFA80F903EE109AF7EE007A77EEE46ACF
:1012F000B8EEC77A77EEE52AB8EEC33A26EE877ADB
:1013000062EE837ADFEDA66AE6EE267AA5EE267A0D
:1013100053ED016AF8EEE33A67EEA67A53ED026AFE
:10132000E3EEA67AD3ED006AE7EE267A93ED017A32
:10133000E4EE077A23E00FFA80F904EE109A0FFA30
:1013400081F903EE909A0FFA86F907EE909AF8EE7B
:10135000C76AF8EEE77A93ED007AF8EEE33A67EEC3
:10136000877A13ED027AE3EE877AB8EEC44A13ED7A
:10137000017AE4EE077A93ED017AE6EE877A10338C
:10138000FDEEE77A17EE909A28F8129001328DE779
:10139000079890F900A0CAF1000009FB00F017F0CF
:1013A000805F07EE100A3ED00FFA8CF0B8EEC74A05
:1013B00007EE100A0FFA88F003EE900AF7EE007AB3
:1013C00077EEE56AB8EEC77A37EEE43AF8EEE33A3C
:1013D00026EE877A63EE237ADFED716AE5EE267AF0
:1013E000A6EE267AD3ED006A67EEA67A53ED016A7F
:1013F000E7EE267A93ED017AE4EE077A0FFA86FBA0
:10140000FDEEE77A17EE900A488031F8020F0FFAE6
:1014100080FADA4522DD0646104610330246069869
:101420008142B5D120E00FFA88F004EE100A0FFADD
:101430008CF007EE900AF8EEC76AF8EEE77A13ED43
:10144000017AB8EEC44A67EE877A93ED007AE4EE4B
:10145000077A93ED017AE6EE877ACFE70FFA82FBFF
:10146000DA45DADB3046D6E7D4F8C831598818882F
:101470000F1AB21ABFB23BB212B29A42464B10DDFB
:1014800001261E700DF12A03069EB34207D05E8826
:1014900016FB07F696FBF2F623F8026FF4E780B22C
:1014A00007E000261E70022692FBF6F2104480B27E
:1014B000891A3C4B89B2DA880023AB4239D20BAE91
:1014C0000FFA82F936F9136006EE906A364E07EE8F
:1014D000909A06EB031696ED007AF8EEE77A06B2DC
:1014E00067EE877A07EE106AB8EEC77A5F00F4EE0F
:1014F000C77AF1EE10FAF8EEE66A0DD40FFA81F928
:1015000007EE109AB8EEC77AF4EE477AF1EE10FAC9
:10151000C8BFF0EE477A01E0F0EE477A76EEA77AA0
:10152000224EFDEEE77A013317EE90CA27F806C087
:10153000C3E71F4B1F4E1A7802F0040202F0FF03AC
:101540000AB9327874E01C4B1C49DB7807931C4BBA
:101550001B6813F0006935D10A6841F21D0313407E
:10156000BBB912483778028801230546BB4210B246
:1015700007D235F913208242B8BF024692B2013336
:10158000F4E7D4F8C8315D88A8421BDD551BADB225
:1015900019E04D4617E000BFFC4500205412002022
:1015A00000007A449C1F00204C120020061F0020DF
:1015B000E145002048120020F8140020380F0020D8
:1015C000FC1E002000250B68A74A41F21D0C03F405
:1015D000805003EA0C0C03F0100308933378B2F93F
:1015E0000610D4F8CC2106905B000492D4F8D00108
:1015F000D4F8C82109930023099FBB4210D0DFF81B
:101600007482B9F1000F40F06584BCF1000F40F026
:101610003C8438F80360761B28F8036000F035BC82
:10162000924B1B78013BDBB2182B00F2578109E08B
:101630009342F5D28E4931F813008E4921F81300F8
:101640000133F5E701229A408B4B1340002B00F049
:1016500045818A4B8A481B8813F4807F824B08D0CF
:10166000884A1188ADF82C105188ADF82E10928858
:1016700017E08549B0F8B0210968ADF82C20B0F822
:10168000B221ADF82E20CD04B0F8B421ADF8302051
:1016900009D5D0F8CC11B3F90650C9898D4202DAC8
:1016A0005242ADF83020794DB5F90260B5F90050DD
:1016B0004FF47A7106F5E16605F5E1654E434FF4A6
:1016C0006162694396FBF2F691FBF2F2A2F5FA72BF
:1016D000ADF84620674A19881288A2F2DC52ADF8AC
:1016E0003220A6F5FA76D4F8CC21ADF84460D28940
:1016F000891AADF834105988891AADF836109988CE
:10170000891AADF83810D988891AADF83A101989B4
:10171000891AADF83C105989891AADF83E1099899B
:10172000DB89891A9A1AADF84010ADF842200023DF
:10173000574A002199520233102BF9D1554BD0F85A
:10174000D4011B680693544B07901B785B000893E9
:101750000B46089EB34200F0A58050480A189479C1
:1017600034B10125153405FA04F4069D2C4075D0DA
:10177000405C079E92F904B092F8019092F803C081
:1017800092F805A0C0EBC00706EB47074FEA490EE9
:10179000B7F90040B7F90260361BB6B2642406FB05
:1017A0000BFB9BFBF4FB4FEA5608C8EB0B0B1FFA35
:1017B0008BFB3B4C12ADBCF1000F03D1754435F8E7
:1017C0001C5C0CE0AE44E55E3EF91CEC754508DAA5
:1017D000AC44AC4503DBE645B4BF75466546E5520F
:1017E0000AE009DDCCEB050CF44503DBAC45B4BFE6
:1017F000E646AE4624F803E04FF0010ED7F80A7033
:1018000092F90220224C0EFA09F919EA070F0CBFCF
:1018100077464FF0FF37DFF888E034F8105033F8A0
:101820000EE012FB0EF24FF0640E92FBFEF20FFA86
:101830008BFB5A45BFB20CDB4FFA8AFB06FB0BFB56
:101840009BFBFEFBC8EB0B0B0FFA8BFB9345A8BF72
:1018500093460BFB075B24F810B001E0104A9C5242
:101860000233073175E700BF221500204810002021
:101870005C2B0020061F00209920980114200020D6
:10188000101700209C1F0020380F0020901F002000
:1018900058100020FC1E00200C1300200D13002007
:1018A000E81800209A4B0024D3F8D48125460E2254
:1018B00002FB0582974E92F90670A35B17FB03F7B4
:1018C000642397FBF3F7A753E8B202F003FF013557
:1018D0003844082DA05304F10204E8D18E4F8C4EF9
:1018E0003B688C4C13F0200F31D0002002F0F2FE48
:1018F00020800546012002F0EDFE884B60801B68C9
:10190000190624D5D6F8F8311B78012B844B22D147
:10191000D6F8D4C11A889CF914109CF906C0B3F902
:10192000023011FB02F2CCF1000C322103FB0CF36C
:1019300092FBF1F26FF0310C92B293FBFCFC9444F9
:10194000654493FBF1F125800A4410446080D6F889
:10195000D491002317E0D6F8D4115A8891F906C023
:101960001B8891F914101CFB02FC32229CFBF2FC38
:10197000654411FB03F3258093FBF2F2E5E7E252A5
:101980000233102B0ED0C3EBC3004844E15EB0F924
:101990000020B0F902009142F1DB02B29142B8BFDF
:1019A0000A46ECE7D6F8AC8198F90830A3B95D4A4D
:1019B0001378013B9146182B67D8DFE803F02C66BB
:1019C00066466666663F6666666666506666666614
:1019D00066465B6666502C000025534BB8F906201E
:1019E000615F442000FB053003F05AF9C5EBC502E6
:1019F00080B260534A4400B2B2F90030B2F902201A
:101A0000984203DB13B29842B8BF034663530235D2
:101A1000102DE2D1CBE798F8043013B10020618992
:101A200008E0424B1B7803F0040303F0FF00002B97
:101A3000F4D1014603F026FD012527E00020E188CE
:101A400003F020FD0120218905E00020218903F019
:101A500019FD6189012003F015FD022516E000251E
:101A600004EB4503E8B29988013503F00BFD062D20
:101A7000F6D10BE0002504EB4503E8B2D988013527
:101A800003F000FD042DF6D100E000253B689A0626
:101A900003D499F80030052B0AD12846218803F099
:101AA000F1FC681CC0B2618803F0ECFC0235EDB2B9
:101AB0003B68DB0205D41E4B1B787BB10AF07AFE33
:101AC0000CE000241B4B03EB44032819C0B2198916
:101AD00003F0D8FC0D2CEED00134F3E7164B187848
:101AE000002840F026823B681C0340F12282134C00
:101AF0002378023B052B38D8114B93F814370BB3DE
:101B0000012B24D103F030FCC0F17F001FE000BFA7
:101B10001017002058100020380F0020FC1E002055
:101B2000901F00204810002010190020E1450020DF
:101B30007E13002022150020FE450020C416002040
:101B400018080020D6F8400603689B6898479F4A0B
:101B500096F8441613680B44B3F5807FA8BF4FF482
:101B600080738342D4BF136010602378023B082B3C
:101B700000F28481DFE813F00900370055006A00A5
:101B8000820094000C0168017301914B914E1A6818
:101B9000736864339A4240F2718140200EF0FCFA7F
:101BA000002840F06B8140258B4B3268894F985C50
:101BB000984658B10EF032FB844A11680139116021
:101BC0003A68013D02F101023A60EDD13268814B81
:101BD00018F80220002A40F051811A604FF0FF32BD
:101BE0005A600323D2E0252300937C4B019303F139
:101BF0000C0202924920A3F10A025021023309F09B
:101C000068F8002840F03A813B6813F080014FF0FB
:101C1000FF32704B03D083E805000423B6E019605F
:101C200029E06F4A0223002100930191029148208C
:101C300002F1080309F04DF8002840F01F81654BC0
:101C40004FF0FF3218605A6005239FE0072300938E
:101C5000644B019303F10C0202924720A3F10802A6
:101C60000021043309F035F8002840F00781594B72
:101C70004FF0FF3218605A60062387E05A4A052366
:101C80000021009301910291532002F1080309F011
:101C900020F8002840F0F2804E4B1860072375E0D2
:101CA00040200EF079FA002840F0E880494D2B687A
:101CB0000C2B62D8DFE803F0070B0E1219252A2F30
:101CC0003337434E520049480EF000FC51E048487B
:101CD000484913E048484949494A48E0494B4A487D
:101CE00093F8121793F8132741E0464B474893F8AF
:101CF000EC260C2101FB023393F8EE160EF0E6FB06
:101D000037E0404B4248B3F84011F7E73D4B4148BC
:101D1000B3F84211F2E7404B40481969EEE7404BF7
:101D200040481988EAE7D6F84836D80404D5354B38
:101D30003D4893F87811E1E70B232B6019E0314B14
:101D40003A4893F87C1193F87D2193F87B310EF09B
:101D5000BDFB0EE03648B6F84C16CFE73B681905D8
:101D600007D5284B3348B3F88011B3F97E210EF024
:101D7000ADFB2B6801332B6080E00EF03DFA0028AC
:101D80007CD02D4B4FF480521A800923237075E0CC
:101D90002A4B1B689A0115D5B6F84E3693B9284BD5
:101DA000D3F850360B93274B0E201B680C930BA9CE
:101DB00009F042F8204B4FF480521A800923237017
:101DC00004F0F8FD03F052F958E000BF08170020B6
:101DD000D8450020001700201881010882810108E1
:101DE000348301084C830108988301087597010822
:101DF0008F970108A4970108AC970108C0970108C4
:101E0000CC97010818080020D5970108E69701082B
:101E1000F0970108FF970108D01300200E980108E1
:101E2000020400201E98010828980108359801082E
:101E30004E98010859980108FC160020FC1E00204D
:101E400010170020D416002096F85436002BB7D077
:101E50003A4B1B689B01B3D408232370B2E7384B7D
:101E60001A68384B5B68C8339A4203D90FF084FB79
:101E700001238BE70EF0C0F90028F7D10DF03CFEEE
:101E8000002856D00123237053E0069E2EB3049FF2
:101E9000B0F80680FE89C8EB060A514502DDB04461
:101EA00041450EDB049FFE89B142274E36F903A05F
:101EB00002DDB0F8028017E0B2F80480B0F800B09C
:101EC00014E0B142C8BFB0F802801F4ED8BFB0F8CE
:101ED000008011E0069F002FE4D1079F1A4E38F9C9
:101EE00003A067B1B2F80480B2F802B0C24503DBC8
:101EF000DA45B4BFD046D84626F8038016E0B2F8DB
:101F00000080B2F802B0C24503DBDA45B4BFD04668
:101F1000D846049F26F8038006EB030A3E8AB142A6
:101F200004DA089E16B19688AAF800600233FFF71B
:101F300063BB13B0BDEC108BBDE8F08FFC1E00201E
:101F4000D845002000170020061F00202DE9F04F83
:101F5000A248A34B01681E7901F59C42203287B04C
:101F60001A60C6B11A469B68994240F20B81013E45
:101F7000167107E12B689B48072C98BF195D9A4B97
:101F800088BF21461B689847032C0CD9944B03EB60
:101F900044040136A081934B944D1A78F4B2A242C6
:101FA0001A46E7D81EE02B6804F10E0203EB82020A
:101FB000D38812890028E9D0C01A4FF47A71D31A55
:101FC000484390FBF3F0084440F6C903984205DC0F
:101FD00040F2EE239842B8BF184601E040F6CA002E
:101FE00080B2D3E7824B1B6842F2010903EA090978
:101FF000D9F101097F4B38BF4FF00009D3F800A099
:10200000B9F1000F07D1764991F8313081F83030BD
:10201000794B59781970724B93F830601EB1764B3A
:102020001E7886F001066E4992F80080D5F800B05F
:102030000F2381F83230714B1F780322B7FBF2F285
:1020400002EB4202BA1AD2B201F1340303EB4202AC
:1020500000244FEA480C0292254664455AD016B136
:10206000674BE05A00E03046BBF81630834206D892
:10207000BBF81810814234BF0021012100E000218B
:10208000604BE9B953F825309A4502D25E4BE05ACD
:102090001AE0EBB218468DE808100AF027FB009B07
:1020A000DDF804C0032B0FD84D4B4FF0010E93F811
:1020B00032100EFA05FE21EA0E0183F8321003E019
:1020C0000AF5967143F81410B9F1000F1DD1029A68
:1020D000434B04EB4401505293F87C2022B9022F69
:1020E00013D9012083F87C00484B581831F803E0DD
:1020F00041887144B0F804E04A33714489B2E15236
:1021000008B2032390FBF3F080B23F4B0135E0525D
:102110000234A2E7324B374A93F83210B1F10F0084
:102120004142414183F89610394B69B139490968F8
:10213000490109D41268D9689A60521AC82A1DD96F
:10214000012283F8212019E02B491268DA6001206E
:102150004870087099685B68521A9A4203D92C4BF0
:10216000002283F821200024444507DAE0B20AF077
:10217000BDFA254B23F814000134F5E71F4B1A78FC
:1021800001321A701A4E3368DF0405D5214B1B68E3
:10219000DD0701D40FF008FA104B1968134B1868CB
:1021A000837A002B3AD0184A013B32F81330027B75
:1021B0001AB1C3F53B6308339BB21BB2A3F57A7324
:1021C000B3F57A7FA8BF4FF47A7323EAE37307EE7F
:1021D000903AB8EEE77ADFED107A57E0D416002097
:1021E000681D0020DC150020040400201C150020C0
:1021F000380F0020D8450020580600202015002068
:10220000741D002048150020221500209C1D002070
:10221000F8140020FC1E002000007A4432681404E8
:1022200040D58F4AD2F898400C1B002C3ADB01F5C0
:102230009C442034C2F898408A4CC07A65798A4C14
:1022400034F81540A4B294FBF0F492F89C000130ED
:1022500000F00F0082F89C00024482F89D401A466C
:102260008248185C01330244102B92B2F8D112B2AA
:1022700092FBF3F31BB2642BA8BF642323EAE3733E
:1022800007EE903AB8EEE77ADFED797AC7EE277A73
:10229000784B9FED797A67EE877AFCEEE77A17EE56
:1022A000902A1A803368754C13F4807F00F0008107
:1022B000734B744F994203D9BB780BB90123BB70A0
:1022C000BB78002B00F0F4806E4B94F8008093F8FC
:1022D00021506D4B681E45421A684541002DC2F3DE
:1022E00080690CBF03220022C8F380089A4602923C
:1022F00097F82030052B00F2D680DFE803F0034E7C
:102300005378859EB8F1000F3AD0604B1868604B47
:1023100019880AF015FA012809D15E4B1A68504B4A
:10232000D3F8B030DB88642101FB03233B61B9F1B2
:10233000000F0DD04A4BD3F8B0301B7943B10DF0EC
:102340009BFD032387F820304FF47A73FB61CFE7BE
:10235000002D40F0A8804F4B3A691968DFF824B18E
:10236000914209D90DF088FD03228BF8202040F618
:10237000B832CBF81C20BBE701228BF82020B7E74E
:102380004FF48060B9F1000F02D00DF065FD01E05F
:102390000DF090FD00233B6185E0002D45D10DF04F
:1023A0006BFDA5E725B1052387F82030012100E06A
:1023B0002946B8F1000F0DD0344B1B68DA89364B33
:1023C0001A805A809A80264AD2F8B0205288DA8041
:1023D000022202922F4B1A687B699A4202D8B8F106
:1023E000000F5DD147F23053FB6103231EE02378D9
:1023F00043F0020323700FF0D7F8264B1A68FB69ED
:102400001344BB61042311E0224B1A688DB1BB69F0
:102410009A4248D9214B1B781BB9DAF80030D9070A
:1024200041D4237823F002032370052387F820305A
:102430005EE7FB691344BB6135E0164B08491A6837
:10244000D1F8B030DB88642101FB03233B614FF4FA
:102450008060002387F82030FB700DF02BFD47E7EC
:10246000681D00208413002094130020051E002006
:102470000000C842241F002000C07F44E145002026
:10248000404B4C00F8140020FC1E0020F0140020EB
:10249000F4140020D845002022150020AC060020AE
:1024A00000297FF425AF029A12B110460AF0C4F851
:1024B000944D05F5C370B5F84E110AF041F9AB46DD
:1024C0008046002830D1904B904D1B6813F0006778
:1024D00008D0AB7833B90AF0E5F88D4B012818BF66
:1024E0000020187023785A0706D53268D30603D423
:1024F00017B1AB78002B34D086490022C1F8C02038
:10250000C1F8C420C1F8C820834A126802F57A7263
:102510000023C1F8CC200122C1F8B430C1F8B83092
:10252000C1F8BC30AA701AE03368D80619D42378F1
:10253000590716D5744B1B681A0112D5734DAB7829
:102540006BB1754B1A68734BD3F8CC309A4208D9EB
:102550000AF0A8F828B96E4BA870187001E06C4A10
:10256000137023785B0740D53368DF063DD56B4B8E
:102570001B78DD0639D46A4B664D1F788FB19BF806
:10258000E031B8F1000F16D173B1634B1A68D5F87A
:10259000D0309B1A002B07DA0FF006F885F8D480AC
:1025A00023E0B8F1000F19D110200AF045F80123FB
:1025B00085F8D43019E03BB1574A12684FF47A716C
:1025C00001FB0323C5F8D03095F8D4306BB10AF085
:1025D00017F8504B002283F8D42006E095F8D43049
:1025E0001BB10AF00DF885F8D47000229BF8DEA12B
:1025F0009BF8DF11BBF89671BBF898E11346494D83
:10260000505F9B08B842C4BF63F07F03DBB2023265
:102610007045B8BF43F04003082AF0D13D4D95F80E
:10262000D5209A4205D195F8D620F92A04D801324E
:1026300000E0002285F8D620394885F8D5300378A7
:10264000344A314F81462BBB3868C0070AD582F81F
:10265000D730B8F1000F1DD12378DB071AD50FF062
:1026600017F817E02378580714D592F830308BB15B
:102670002D4BDB7873B992F8D7300133DBB2032BE3
:1026800082F8D73006D911B10EF08EFF02E0B8F112
:10269000000FF9D095F8D6201E4BDFF89080142A51
:1026A00040F0A88099F800201AF1000A18BF4FF0F6
:1026B000010A002A44D093F8D5205F2A11D122784C
:1026C00002F0040202F0FF0112B10EF06DFF08E00B
:1026D0000B200191009309F0AFFF009B019983F853
:1026E000D610BAF1000F2BD095F8D5307D2B27D11D
:1026F000237803F0040303F0FF02CBB10EF054FF84
:102700001EE000BF18080020FC1E00205806002014
:10271000FD450020681D0020D84500207D130020C5
:10272000AC06002022150020F8140020C013002061
:102730000B20019209F080FFB44B019A83F8D62058
:10274000237803F0040303F0FF00002B52D195F827
:10275000D530AE4A572B0FD1AD4B4FF47A721A8059
:1027600033681B0601D502F0EDFBAA4B1B68580726
:1027700040D50A22A84B34E03168490717D55A2BB7
:1027800015D192F8D8302BB1012382F8D80082F805
:10279000D9302FE092F8DA3083F0010382F8DA3092
:1027A0000BB10C2000E00D2009F046FF22E05D2B6C
:1027B00000F02A855B2B00F029855E2B02D10320D7
:1027C00000F025BD562B01D10DF0AAFE99F800307E
:1027D0004BB995F8D530972B40F031858F4B4FF49E
:1027E000C8721A8006E095F8D5306F2B40F01E8530
:1027F0000EF04EFF3368580736D595F8DA30834A25
:1028000093B1237859070FD5854BB3F90610BBF860
:102810009631994208DD3B6813F0010304D132215F
:10282000A2F8DC1082F8DA303B6813F4803F774B73
:102830000CD095F8DE202AB993F8D82012B93222AC
:10284000A3F8DC20012385F8DE300DE095F8D820D0
:1028500052B1227802F0040202F0FF0122B90122F3
:1028600083F8D81083F8D920D8F800A000230AF103
:10287000790C3B600AF17B0998460CF1020303EBEB
:10288000080113F808204B7819F8010C9A420ED26F
:102890004946CDF804C00CF02CFCDDF804C030B182
:1028A00019F8023C01229A403B6813433B6008F14F
:1028B0000408B8F1500F09F10409DED1594B1B7817
:1028C0004BB1594FDFF84C913B68584D13F0020F54
:1028D00040F03D8335E30AF1C90202920AF1CA07CA
:1028E0009846029A17F8010C531C03EB080113F8E1
:1028F00008204B789A4229D239460CF0FAFB28B3CB
:1029000097F802E04A4B387997F803A00EF1FF3EA2
:102910000EEB4E0E9E443D4B4FF00C0C03F1E009C4
:102920000CFB00FC09EB0C014A6872450ED000223A
:1029300009F80CA08A60012202FA00F093F8102135
:10294000C1F804E022EA000083F8100108F106084B
:10295000B8F1480F07F10607C3D1364B95F8305050
:102960001F68354BDFF8D4A01B68029303954FF026
:102970000008DAF80030002B00F0DA821D78002D14
:1029800000F0D682DAF8042002998A1A002A0DDBB8
:1029900001F5FA72CAF804201C4A012192F81001CC
:1029A00001FA08F120EA010182F81011039A002AC5
:1029B00000F0BE821AF8041C5878144A0431C9B2D7
:1029C000002840F07382164830F91110BBF89401CA
:1029D00000F1C80E714502DD93F8029030E0C8386E
:1029E000814203DA9B78C3F1000929E007490123FA
:1029F00091F8102103FA08F322EA0303029A81F8FE
:102A0000103102F5FA73CAF8043091E2681D002013
:102A1000E245002004140020E4450020C6160020F2
:102A200022150020FE450020FC1E0020142000205E
:102A3000C0830108582B0020D84500204C1E0020E0
:102A400092F8103143FA08F3DA0700F17182B9F114
:102A5000000FCCBF022001200DF0E1F96B1E132BFB
:102A600000F25D82DFE813F0140021002E003E002A
:102A700056005D00BF0021018701C001F0015B022B
:102A80003E004C005D00BF0021019100F3005701A2
:102A90003D784D44FA2DA8BFFA2525EAE57538465C
:102AA0003D7008F03DFF01201AE07D784D44642D13
:102AB000A8BF642525EAE57538467D7008F030FF2B
:102AC00002200DE0FD78C34B4D44642DA8BF642562
:102AD00025EAE575FD703846196808F0DBFE03202D
:102AE0002946AEE1797949446429A8BF642121EAE5
:102AF000E17179710D2008F0F9F90D2D00F00F82C8
:102B0000397949446429A8BF642121EAE171397106
:102B10000E2096E1B979494481F30801B971052085
:102B20008FE1AD4B1B681A78022A20D107EE909AEC
:102B3000B8EEE70ADFEDA97A93ED097A80EE270A6D
:102B400030EE070AB5EEC00AF1EE10FA07D4B4EE83
:102B5000670AF1EE10FAC8BFB0EE670A01E09FED18
:102B6000A00A83ED090A0F2008F0D4F90AE0997849
:102B70004944C829A8BFC82121EAE17199700F20F2
:102B800008F0B4F90F2D00F0CA81934B1B681A7836
:102B9000022A1ED107EE909AB8EEE70ADFED8F7A8F
:102BA00093ED087A80EE270A30EE070AB5EEC00AE8
:102BB000F1EE10FA07D4B4EE670AF1EE10FAC8BFCE
:102BC000B0EE670A01E09FED860A83ED080A122045
:102BD0005FE159784944C829A8BFC82121EAE171B9
:102BE000597012202DE17C4B1B681A78022A20D1E3
:102BF00007EE909AB8EEE70ADFED787A93ED0C7A5B
:102C000080EE270A30EE070AB5EEC00AF1EE10FAA0
:102C100007D4B4EE670AF1EE10FAC8BFB0EE670A47
:102C200001E09FED6F0A83ED0C0A102008F072F9A5
:102C30000AE0197B4944C829A8BFC82121EAE171EB
:102C40001973102008F052F9102D00F06881624BC2
:102C50001B681A78022A1ED107EE909AB8EEE70A8E
:102C6000DFED5E7A93ED0B7A80EE270A30EE070AED
:102C7000B5EEC00AF1EE10FA07D4B4EE670AF1EE31
:102C800010FAC8BFB0EE670A01E09FED550A83ED68
:102C90000B0A1320FDE0D97A4944C829A8BFC821EE
:102CA00021EAE171D9721320CBE04B4B1B681A78F3
:102CB000022A22D107EE909AB8EEE70ADFED497AB0
:102CC00080EE270AD3ED0F7A30EE270AB5EEC00A60
:102CD000F1EE10FA09D4DFED417AB4EE670AF1EEB5
:102CE00010FAC8BFB0EE670A01E09FED3D0A83ED20
:102CF0000F0A112008F00EF90AE0997D4944C8290D
:102D0000A8BFC82121EAE1719975112008F0EEF8F9
:102D1000112D00F00481304B1B681A78022A20D153
:102D200007EE909AB8EEE70ADFED2E7A80EE270ADA
:102D3000D3ED0E7A30EE270AB5EEC00AF1EE10FAA6
:102D400009D4DFED267AB4EE670AF1EE10FAC8BFB7
:102D5000B0EE670A01E09FED220A83ED0E0A14200F
:102D600097E0597D4944C829A8BFC82121EAE171EB
:102D70005975142065E0184B1B681A78022A1ED179
:102D800007EE909AB8EEE70ADFED147A93ED0A7A2F
:102D900080EE270A30EE070AB5EEC00AF1EE10FA0F
:102DA00007D4B4EE670AF1EE10FAC8BFB0EE670AB6
:102DB00001E09FED0B0A83ED0A0A092069E0D9784A
:102DC0004944C829A8BFC82121EAE171D970092066
:102DD00037E000BF502B0020542B00200000C842D9
:102DE0000000000000007A44B54B1B681A78022AE4
:102DF0001ED107EE909AB8EEE70ADFEDB27A93EDB6
:102E00000D7A80EE270A30EE070AB5EEC00AF1EE21
:102E100010FA07D4B4EE670AF1EE10FAC8BFB0EEAC
:102E2000670A01E09FEDA80A83ED0D0A0A2030E051
:102E3000597B4944C829A8BFC82121EAE1715973C7
:102E40000A2008F053F86AE09D4B1B681A78022AA2
:102E500022D107EE909AB8EEE70ADFED9C7A80EE79
:102E6000270AD3ED107A30EE270AB5EEC00AF1EE4C
:102E700010FA09D4DFED937AB4EE670AF1EE10FA96
:102E8000C8BFB0EE670A01E09FED8F0A83ED100A1C
:102E90000B2008F03FF842E0D97D4944C829A8BF7B
:102EA000C82121EAE171D9750B20CAE7012836D182
:102EB0009878874B33F91110B1F5617F05DB40F647
:102EC00033039942B8BF0B4601E04FF461730C2DF8
:102ED00025D14FF4966191FBF0F1A3F5617393FB5B
:102EE000F1F392F811115FFA83F9494517D0B9F15E
:102EF000030F94BF4946022182F81111754A05FB60
:102F000001B101F2EE61116008F020FD284649464A
:102F100007F0ECFF09F10100C0B20CF080FF6E4B2E
:102F2000012293F8101102FA08F20A4383F81021E3
:102F300008F10108B8F1040F0AF10C0A7FF419AD89
:102F4000BFE43368DB050ED5644BDB785BB1D9F8A1
:102F50000030980707D52B8813F0010808D101200D
:102F60000CF07AFF04E001200CF0A4FF012300E044
:102F700000233A6851070AD54BB101200CF09AFFA3
:102F80002B889A0706D402200CF066FF02E002208C
:102F90000CF090FFB5F80080514B18F0030F4FF084
:102FA000100214BF5A831A83D9F800309B0608D444
:102FB0003B68180540F1D6804FF480700CF04CFF50
:102FC000D4E0484B1B7899076CD5474B1B78042BF2
:102FD00068D93B6813F4007A08F010020DD0002A7B
:102FE00052D110200CF038FF20200CF063FF3F4836
:102FF000011D04F081FC022241E093B243B1102094
:103000000CF058FF3A4B4FF0010883F800A000E0A5
:1030100098463B685A052BD5364B1B685A89364B68
:10302000B3F900100029B8BF4942914209DAB3F957
:103030000230002BB8BF5B429342ACBF0023012398
:1030400000E00023A3B12B889B061FD420200CF0A6
:1030500003FF2A482A4B011D1A685B68436002601F
:1030600004F04AFC224B4FF0010883F800800DE089
:103070002B8898060AD520200CF01CFF00221C4B40
:103080004FF001081A7001E04FF00008DFF848A087
:103090009AF81231B3BB0E2009F0CEFA01238AF858
:1030A00012312FE018F0300F82D010200CF002FF08
:1030B00020200CF0FFFE0E4B00221A7026E000BF0D
:1030C000542B00200000C8420000000000007A4499
:1030D00022150020582B0020681D0020F814002025
:1030E000000402407D130020B41F0020782B002034
:1030F0008C2B0020301600209C1F0020842B0020E9
:10310000B81F0020B8F1000F3FF452AF0022134661
:103110006B48DFF8E0E1002119526A4819526A4809
:103120000EEB020C19520020CCF80000CCF8041071
:10313000CCF808000EF1280C0EF1500E9444964481
:103140000233042BCCF80000CCF80410CCF80800B3
:10315000CEF80000CEF80410CEF8080002F11402F8
:10316000D6D125E74FF480700CF0A4FE9BF8053013
:10317000082B01D00E2B02D140200CF09BFE3368AF
:10318000590519D59BF814321BB9237813F0040F95
:1031900002E03B6813F4002F0AD04C4B002283F866
:1031A0008C213C2006F022FD30B108F00DFBF8E741
:1031B0000EF028FC0EF0A2F9454B01221A70454B87
:1031C0001B78002B78D0D9F800305A0774D53B68AB
:1031D0001B0703D408200CF06DFE6DE02C8804F072
:1031E0000804A4B2002C67D108200CF035FE3A4B3D
:1031F0001A683A4B1A603A4BDA883A4B1A803A4BC3
:103200001C603A4B1C6057E0012000E002205FFA8E
:1032100080F909F1FF338BF8EC3604F0D1FE06F0AB
:10322000F7FD48460CF0FBFDFFF7E4BABAF1000FDA
:103230003FF4CFAA7E2B7FF4CCAAFFF7D9BAA72BF5
:1032400006D12B4B1A7842F004021A70FFF7D2BA5B
:103250000022BB2B059201D1022303E0B72B04D13E
:103260004FF6FE73ADF816300AE0BE2B01D10223F3
:1032700004E0BD2B7FF4BEAA4FF6FE73ADF8143008
:10328000D8F80030BDF81410B3F858200A44A3F859
:103290005820BDF81610B3F85A200A44A3F85A2053
:1032A00004F08EFE06F0B4FD01200CF0B8FD002302
:1032B00085F8D630FFF79EBA07B0BDE8F08F00BFA3
:1032C000EE450020B4180020B8180020681D00202A
:1032D0007418002092180020201F0020802B00204E
:1032E000221500209C180020A0180020941800200F
:1032F0007D1300207C1E00202DE9F04F2DED028B68
:103300004D28ABB0044600F0698600F2B280342844
:1033100000F0DA8451D8222800F0B68423D803289C
:1033200000F0208214D8012800F01082022840F01A
:103330001387042008F08CFD522008F05AFD43202A
:1033400008F057FD462008F054FD4C2000F06BBEFD
:10335000042800F01282052840F0FE861A2008F0AA
:1033600077FD002419E2282800F0F78515D82428D5
:1033700000F0DE85262840F0EF86D04C062008F0CD
:1033800067FDB4F8580108F066FDB4F85A0108F07A
:1033900062FDB4F85C0100F077BE2C2800F0F085E7
:1033A000322800F03A862A2840F0D686012008F01C
:1033B0004FFDC24B587900F036BE402800F03686EB
:1033C00021D83A2800F0E9820BD8362800F084860C
:1033D000382840F0C186042008F03AFDB74C00F0D0
:1033E000ADBD3B2800F049843D2840F0B586B34C84
:1033F000022008F02DFD94F8E00108F0FAFC94F8A2
:10340000DF0100F010BE462800F07E860BD842286F
:1034100000F01A86452840F09F86132008F018FD1A
:10342000002400F08ABE492800F0E1824B2800F019
:10343000C685472840F0908608F0ACF90446842001
:1034400008F006FD204608F00FFD9D4BDD6804F1F5
:103450008003AB428CBFC4EB050580250CF084FED5
:1034600020462A460AA90CF093FC0024054600F0E9
:103470005CBE702800F0168300F20281692800F01B
:10348000698200F2D480662800F0C48100F2C48012
:10349000642800F09B81652840F05E86894C0B20F3
:1034A00008F0D6FC208808F0D6FC608880B208F0CE
:1034B000D2FC854B1B68C3F3C000C3F380028000BD
:1034C00040EA4200C3F340021043C3F3401240EA13
:1034D000C20003F01003184308F0BDFC7B4B1A88B0
:1034E00012F0010F0CBF0020022012F0020F0CBFDF
:1034F0000021042112F0040F0CBF002310230293BB
:103500006368009002F0080A03F0C00B12F0400F4D
:1035100003F480794BEA0A0A0CBF0026202603F444
:10352000805812F0100F4AEA090A0CBF00204FF42D
:10353000007003F4005C12F0200F4AEA080A0191BF
:1035400003F4804E0CBF00214FF480614AEA0C0A5C
:1035500012F4807F039604900CBF00264FF400669F
:1035600003F4003003F400474AEA0E0A0696079077
:1035700003F480364AEA070A05914AEA060A03F488
:103580008021079E089103F400204AEA060A089E5B
:1035900009904AEA060A099E4D4803F480154AEA52
:1035A000060A03F000744AEA050503F000662C439E
:1035B000344303F08056344303F0005603F0804553
:1035C00034430078019E2C4303F00043C0F3800095
:1035D000234303430098034302983343039E03436A
:1035E00004983343059E0343069812F4007F43EA90
:1035F000060343EA00030CBF00214FF400111943F6
:1036000012F4806F334B0CBF00224FF08062002019
:103610001D780A430346E9E0672800F02381682803
:1036200040F09A85102008F013FC00248AE16C28F1
:1036300000F0A38116D86A2800F002846B2840F0BD
:103640008B85052008F004FC234B188808F003FC48
:10365000224B188808F0FFFB214B187800F001007E
:1036600000F0E1BC6E2800F09C8100F2F1810620A0
:1036700008F0EEFB134B986A08F0F6FB194BBAE121
:10368000782800F0FC8031D8742800F03D830AD8F7
:10369000722800F09583732840F05E85082008F0BA
:1036A000D7FB0124C5E3762800F0E98300F26D839F
:1036B0002F2008F0CDFB0C4CD7E200BF18080020EB
:1036C00008040020F81E002004140020142000200C
:1036D000E145002055140020CC1F0020CE1F002003
:1036E000742B0020881F0020FB830108A42800F011
:1036F000EC8314D87B2800F05E82A02840F02C8553
:103700000C2008F0A5FBBD4B186808F0ADFBBC4BC6
:10371000186808F0A9FBBB4B186800F019BDF12828
:1037200000F0E980FE2800F0F783F02840F01485CF
:10373000B54C042008F08CFB2368B3F85A0008F05D
:103740008AFB2368B3F8580000F09EBC032008F001
:103750007FFB002008F04DFB204608F04AFB0D20BF
:1037600000F061BC08F074FB022008F042FB01206D
:1037700008F03FFB052000F056BC062008F068FB6F
:10378000422008F036FB4A2008F033FB462008F0C0
:1037900030FB342008F02DFB61E09C4B185D0134B8
:1037A00008F027FB0B2CF8D10024994B185D01344D
:1037B00008F01FFB082CF8D10024964B185D01344B
:1037C00008F017FB072CF8D100F0C4BC072008F064
:1037D0003FFBE72008F00DFB8F4B587908F009FB01
:1037E000002008F006FB042000F0B2BCAB420AD275
:1037F0008A49595C012404FA01F111421CBF9C4022
:1038000020430133F2E708F02FFB834B93F8EC06DB
:1038100000F009BC122008F01BFB814B1B88B3F59C
:10382000806F94BF0125082500247E4BE05E90FB4D
:10383000F5F080B2023408F00EFB062CF5D17A4C7C
:10384000208908F008FB608908F005FBA08908F0D2
:1038500002FB002008F0FFFA002008F0FCFA00202C
:1038600000F012BC102008F0F3FA00246F4B185D32
:10387000013408F0BEFA102CF8D100F06BBC7020B7
:1038800008F0E6FA0026604D0E242B6874432344AA
:103890000136B3F8190108F0DEFA2B682344B3F8B7
:1038A0001B0108F0D8FA2B682344B3F81D0108F077
:1038B000D2FA2B68234493F81F0108F09AFA2B6878
:1038C000234493F8200108F094FA2B68234493F8DA
:1038D000210108F08EFA2B68234493F8220108F0A6
:1038E00088FA2B681C44D4F8230108F0BDFA082E8E
:1038F000C9D100F02FBC7020474C08F0A9FA04F1A0
:10390000700594F8D00008F074FA94F8D10008F02B
:1039100070FA94F8D20008F06CFA94F8D30008F02A
:1039200068FA94F8D40008F064FA94F8D50008F026
:1039300060FA073494F8CF0008F05BFAAC42E0D1AB
:1039400000F008BC3A4B185D013408F052FA102C14
:10395000F8D1FFE3374D2878400000F0FE0008F072
:1039600077FA00242B789C4280F0F483324B33F8B2
:10397000140008F070FA0134F4E7304C062008F027
:1039800067FA208808F067FA608808F064FAB4F9EA
:1039900004000A2390FBF3F027E0042008F058FA13
:1039A000D5E3072008F054FA254B1888FF28A8BF54
:1039B000FF20C0B208F01DFA224B186880F31000F7
:1039C00080B208F048FA184B988D08F044FA124B70
:1039D00093F883211C4B2AB11B680A20584380F3BB
:1039E000100002E0186800F30F0080B24CE30220E0
:1039F00008F02EFA154B188846E300BF107AFF1F17
:103A0000147AFF1F187AFF1FC0130020C097010807
:103A1000CC970108A497010818080020341400204E
:103A200002040020821F0020F81E002058100020F1
:103A3000061F0020DC15002022150020901F00200A
:103A4000A41F0020AC1F0020A81F00201814002075
:103A5000BD4C0B2008F0FCF92368187808F0C9F970
:103A60002368587808F0C5F9002526463368B64C17
:103A70002B440135187908F0BCF9032DF6D12368E1
:103A8000D87908F0B6F92368987808F0B2F9236875
:103A9000D87808F0AEF92368588908F0DCF9236873
:103AA000187AC0E2A94D1E2008F0D2F92B681B78C5
:103AB000022B4FF000046BD12B6803EB840393EDD2
:103AC000080AB2EE048A20EE080A11F0EBFE80F339
:103AD0000800C0B208F08DF92B68DFED9D7A03EB8A
:103AE000840393ED0B0A20EE270A11F0DBFE80F32E
:103AF0000800C0B208F07DF92B68DFED967A03EB81
:103B0000840393ED0E0A20EE270A11F0CBFE80F31A
:103B10000800C0B2013408F06CF9032CCCD1072C9A
:103B20002B6823D193ED110A20EE080A11F0BAFE9A
:103B300080F30800C0B208F05CF92B6893ED120A1C
:103B400020EE080A11F0AEFE80F30800C0B208F0C3
:103B500050F92B6893F84C3000EE103AB8EE400A5A
:103B600011F0A0FE80F30800C0B20BE023445878A7
:103B700008F03FF92B682344D87A08F03AF92B680B
:103B80002344587D013408F034F90A2CC7D1E1E20E
:103B90002B682344587808F02CF92B682344D87AF2
:103BA00008F027F92B6823440134587D08F021F9E7
:103BB0000A2CEDD1CEE23C2008F04AF90024634DF6
:103BC0009FED648A2B6803EB840393ED080A20EED3
:103BD000080A11F067FE80B208F03DF92B6803EB8C
:103BE000840393ED0B0A20EE080A11F05BFE80B20D
:103BF00008F031F92B6803EB840393ED0E0A20EEF5
:103C0000080A11F04FFE013480B208F024F9032CA9
:103C1000D5D1072C2B6816D193ED110A20EE080A96
:103C200011F040FE80B208F016F92B6893ED120AED
:103C300020EE080A11F036FE80B208F00CF92B686D
:103C400093F84C000BE02344587808F004F92B68F3
:103C50002344D87A08F0FFF82B682344587D0134B8
:103C600008F0F9F80A2CD4D174E214F8010F0028F6
:103C700000F0708208F0BDF8F7E7012008F0E8F8DE
:103C8000324B1B681878CEE1502008F0E1F8002490
:103C90002E4B1B6804F11E0203EB82035D1C2E4AAF
:103CA0005B780C2101FB03230134187A08F0A1F89A
:103CB000687808F09EF8A87808F09BF8E87808F093
:103CC00098F8142CE4D145E2482008F0C1F800250A
:103CD0001E4B06261B686E43C8361E440135B0795C
:103CE00008F087F8707808F084F8B07808F081F868
:103CF000F07808F07EF8307908F07BF8707908F0F9
:103D000078F80C2DE4D125E2002701240025134B7F
:103D10001B789D4231DA124BE95C00230E4A03EB1B
:103D200002089A5C8A4204D00C33B3F5CC7FF5D1FB
:103D300021E0D8F8040011F0E5FB81460CB92646D5
:103D400010E0074417E000BF582B0020C0130020EC
:103D50000000C84200007A440C8601085514002077
:103D6000341400204E4506DAD8F80430985D08F087
:103D700040F80136F6E70135C9E7002C00F0EA818A
:103D8000F8B208F065F80024C0E7C14D287808F0C3
:103D90005FF800242B789C4280F0DC81BD4BE05C16
:103DA0000023BD4A99189A5C824204D00C33B3F5C3
:103DB000CC7FF6D102E0087A08F01BF80134E9E77D
:103DC000B64C162008F044F8B4F8940108F043F813
:103DD000B4F8400108F03FF8B4F8420108F03BF8AD
:103DE000B4F8440108F037F8B4F8D80108F033F813
:103DF00094F8ED0107F0FDFF002007F0FAFF94F8BA
:103E0000EE0107F0F6FF94F8830107F0F2FF94F853
:103E1000900107F0EEFF002007F0EBFFA04B1B68BE
:103E2000B3F956000A2390FBF3F080B208F013F8C0
:103E300084E0E0B2013407F0DCFF092CF9D189E11C
:103E4000102008F005F8974B974C187800F0020006
:103E500007F0CFFF954B187807F0CBFF206808F0EC
:103E600003F8606808F000F8914B188807F0F3FF3A
:103E7000904B188807F0EFFF8F4BD88D04E107F0C7
:103E800075FC0646122007F0E3FF0EB98B4B02E0EB
:103E9000102E03D18A4B1D685C6801E00024254682
:103EA000304607F0A6FF284607F0DEFF204607F061
:103EB000DBFF844B186807F0D7FF002007F0CBFF2B
:103EC000002007F0C8FF0020ADE07B4D95F83000E2
:103ED00080000130C0B207F0BBFF95F8300007F05A
:103EE00088FF00242E4696F830309C4280F03281C4
:103EF000754D285D07F07DFF05F11003185D07F093
:103F000078FF05F120033035185D07F072FF285D5A
:103F100007F06FFF0134E6E7082007F099FF00245F
:103F20006A4B185B023407F096FF082CF8D111E1B8
:103F3000042007F08DFF594B986809E194F8780147
:103F400007F057FF94F87C0107F053FF94F87B01CA
:103F500007F04FFF94F87D0165E0504C072007F013
:103F600077FFB4F87E0107F076FFB4F8800107F020
:103F700072FF94F8820107F03CFFB4F8840183E0FB
:103F8000464C0C2007F064FF94F88E0107F031FFD7
:103F9000B4F8980107F05FFFB4F8940107F05BFFF5
:103FA000B4F8960107F057FF94F88F0107F021FF4E
:103FB000B4F89C0107F04FFFB4F89E0164E0374C61
:103FC000042007F045FF94F8D60107F012FF94F89B
:103FD000D70107F00EFFB4F8D80155E03C4E3D4C38
:103FE000307800EB4000C0B207F032FF0025337894
:103FF0009D4204F1020480F0AD8014F8020C07F039
:10400000F8FE14F8010C00EB800000EB800000F2D9
:10401000EE2007F020FF0135E9E7012007F018FF47
:104020001E4B93F8900107F0E4FE93E0082007F0A0
:104030000FFF0024194B2344013493F8860107F045
:10404000D8FE082CF6D185E0144C102007F000FFB4
:10405000607907F0CEFEA06807F006FF94F88E01A5
:1040600007F0C7FEB4F8580107F0F5FEB4F85A019E
:1040700007F0F1FEB4F85C0107F0EDFEB4F87E0144
:1040800007F0E9FEB4F8800107F0E5FE62E000BF4A
:1040900055140020341400200C8601081808002054
:1040A000C01300207D130020B81F0020B41F002083
:1040B000B21F0020B01F0020F81E0020782B002027
:1040C000842B0020802B0020291F00206A1F002045
:1040D000DC150020B80900202E4B2F4C1878C0EBBF
:1040E000C000C0B207F0B4FE04F1200594F8F4015A
:1040F00000232A4AD25C904230D00C33302BF8D1C6
:104100000834AC42F2D125E0254C0D2007F0A0FE8A
:104110000BF007FE07F06DFE208807F0A5FEE068B3
:1041200007F0A2FE01F010F912E0AC4212DA0AA97F
:10413000085D07F05EFE0134F7E71A4B185D0134A5
:1041400007F057FE0B2CF8D1002007F08DFE002061
:1041500007F08AFE012018E0002016E007F049FE73
:10416000B4F8F60107F077FE94F8F80107F041FE85
:1041700094F8F90107F03DFE94F8FB0107F039FED1
:1041800094F8FA0107F035FEBAE72BB0BDEC028BCC
:10419000BDE8F08F1410002018080020181000202F
:1041A00008040020C0970108016BC268034610B5DF
:1041B000406941B1996C541A0139005D18BF0A4633
:1041C000C0B29A6410BD196A405C0131914228BFA7
:1041D0000021C0B2196210BD036B13B15A68836C21
:1041E00001E0C269036A9A423BBFC0688018C3EB12
:1041F0000200C3EB0000C0B27047436B13B190F8EC
:104200004C007047826A436AD31A5842584170473B
:10421000436A816A02698B4238BF9B185B1A416B03
:1042200021B149680B44511E8B4203D2013AD31A83
:10423000D8B2704700207047334A136C9068194415
:10424000081A40F68C23984210B513469160D0604E
:1042500051603CD9127893F945108A420BD1111F55
:10426000082908D893F84610182901D8013103E02D
:1042700083F8442002E0002183F8461093F94410AB
:104280008A421CD1204991F84710C1B100219142C6
:104290001E4806DA03EB8104246920F8114001313D
:1042A000F5E7511E00EB41011630814203D0002496
:1042B00021F8024FF9E7164908780130087083F8B1
:1042C0004520002201211A7083F8471010BD92F892
:1042D0004710B9B1A0F2EF2440F2DA518C4208D86D
:1042E00011780B2905D80B1D0131117042F82300FC
:1042F00010BD002283F84720991804320020302A8C
:104300000861F9D110BD00BFD0100020CA210020E3
:10431000C821002010F80A3C0133DBB20A2B00F858
:104320000A3C07D910F8131C034A002322F8113065
:1043300000F80A3C704700BFCA210020024B1A6CEB
:104340000132114419647047D0100020A1F57A7130
:1043500007EE101AF8EEC77A9FED077A074BC7EE03
:10436000877A53F820301B68FCEEE77A17EE902A24
:1043700092B23C321A607047CA548540F81100204E
:1043800007EE901AB8EE677AF7EE087A67EE277AAA
:10439000054BFCEEE77A53F8203017EE902A1B68A5
:1043A00092B21A60704700BFF8110020024B53F818
:1043B00020301B6819607047F81100200D4B53F82E
:1043C00020301A681B89A1F57A7159434FF47A732A
:1043D00091FBF3F307EE903AF8EEE77AB7EE087A3E
:1043E00067EE877AFCEEE77A17EE903A9BB213609D
:1043F000704700BFF81100208C46664B66491B6869
:104400002DE9F04F4C899846220200234FF0000915
:10441000B8EB020869EB03098A8816040A89A2FB33
:10442000084502FB0955E20942EA4562B4184A8888
:104430004FF000074FEAC2364FEAE513CA8847EB50
:10444000030589B0CDE90645A2FB084502FB0955E5
:10445000220A42EA056216EB020A8A8901904FEAB3
:104460002523A8FB024502FB09554FEAD4524FF021
:10447000000742EA452247EB030B12F5FA664FEAC2
:10448000E55343F10007CDE90467B6F5FA6F77F11C
:10449000000760DAA2FB026702FB03F107EB4107AA
:1044A0000521A6FB014501FB0755DDE906676910FB
:1044B0004FEA3400361A67EB0107DDE90401CDE964
:1044C0000667A608354C46EA8576AF104FF0FF35F3
:1044D000BAEB060A6BEB070BA042A94128DA40F6BB
:1044E000AC5412194FF0000543EB050302FB03F136
:1044F000DDE90667A2FB022303EB41036FF006042C
:10450000514204FB0311A2FB044536190D444FF040
:104510000B0147EB0507A2FB014501FB0355CDE964
:1045200006676D104FEA3404BAEB040A6BEB050B17
:1045300008FB09F3DDE90401A8FB088909EB43093D
:104540004FEAD87242EA49024FEAE973801A61EBF6
:104550000301CDE90401124B019E1A68A2FB0A4532
:1045600002FB0B55620D42EAC5226B15DDE90645DB
:10457000121B63EB0503D40B44EA434406B13460D9
:10458000BCF1000F02D0049FCCF8007009B0BDE868
:10459000F08F00BFE03C00200814002024FAFFFF49
:1045A000E43C0020054B1A7802F0FF0122B1012201
:1045B000027000221A70704701707047E4340020C6
:1045C000194B1B7837B50446DBB9184B06215D68DB
:1045D00018786A46A84728B39DF800209DF8013056
:1045E00043EA022323809DF802209DF8033043EA2A
:1045F000022363809DF804209DF8053043EA0223DE
:104600000EE00B4B1A68022392FBF3F20280094A78
:10461000126892FBF3F24280074A126892FBF3F3AE
:10462000A380012003B030BDDC340020E81300205B
:10463000C4340020CC340020D434002013B5044608
:1046400072B6104B06215B686A463B20984762B6FB
:10465000A8B19DF800209DF8013043EA0223238091
:104660009DF802209DF8033043EA022363809DF801
:1046700004209DF8053043EA0223A380012002B004
:1046800010BD00BFE813002038B500240E4D0F48C0
:104690002C702146702210F0F5FE21460C4B1B6851
:1046A0000B4493F902206AB108481C680C500A18A0
:1046B000988890809B7993712B780731013370290A
:1046C0002B70EBD138BD00BF0C1300200D13002060
:1046D00050100020094B1B680E2202FB0030437A69
:1046E000FF2B07D0064A12789A4203D9054A32F8BE
:1046F000130000E0808800B2704700BFE41800207B
:10470000DC150020221500202E4BD3ED007A2E4B15
:1047100093ED007A2D4B67EE474AF7EE002AB0EE94
:10472000006AB0EE625AD3ED006A294BA4EE865AB5
:1047300026EEE63AD3ED005A264B27EE872AA3EE63
:10474000065AF0EE421AA5EEA62A83ED005AB1EE03
:10475000655A67EEA63A27EE264AE5EE261A72EE6D
:10476000026A71EEA11AC3ED036A67EEE76AC3ED50
:10477000011AE6EE862AF0EE631AF0EE626AE3EEC4
:10478000062AB0EE443AE5EE871AA5EE273AE5EEA2
:10479000073AA5EEA74AE4EE866A71EEA11A33EE57
:1047A000033A33EEA37A74EE047AC3ED021AC3ED32
:1047B000042A83ED053A83ED067AC3ED077AC3ED4B
:1047C000086A704704180020081800200C18002000
:1047D00054060020D417002090ED017AB5EE407AFF
:1047E000F1EE10FA0DD107EE101AF8EEC77A9FED30
:1047F0000D7A67EE877AB7EE007AC7EE277AC0EDBA
:10480000017A90ED017AD0ED007A30EE877A30EEC1
:10481000670AC0EE870AE0EE807AB0EE670AC0ED64
:10482000007A7047DB0FC94010B50278202A034692
:1048300000F10100F9D0092AF7D02D2A03D103464F
:10484000BFEE000A04E02B2A08BF0346B7EE000AB9
:104850009FED377A1A46134612F8011BA1F130007A
:10486000C4B2092C0AD805EE900AF8EEE57AF2EE09
:10487000046AE7EE267AB0EE677AECE72E2915D1C6
:10488000F2EE047AF0EE676A134612F8011B303933
:10489000C8B209280AD805EE901AB8EEE56A86EE85
:1048A000276A67EEA67A37EE067AEDE71A7802F005
:1048B000DF02452A34D15A782D2A02D1023301224F
:1048C00004E02B2A14BF013302330022013B0021F4
:1048D00013F8010F3038C4B2092C03D80A2404FBA2
:1048E0000101F5E7B1F59A7F34BF0B464FF49A7397
:1048F0001946F7EE007A072905D9DFED0E6A083967
:1049000067EEA67AF7E703F007032BB1F2EE046A2D
:1049100067EEA67A013BF8E722B1C7EE277A03E0FB
:10492000F7EE007A67EE277A20EE270A10BD00BF67
:104930000000000020BCBE4CF0B50124B0FBF4F533
:104940008D4201D34C43F9E70026DCB1B0FBF4F50E
:1049500004FB1500B4FBF1F41EB9002D01DC002CA2
:10496000F3D1092D03F101075FFA85FC04DD002A6C
:104970000CBF5725372500E0302565441D700136F2
:104980003B46E2E71C70F0BDF0B50124B0FBF4F546
:104990008D4201D34C43F9E70026DCB1B0FBF4F5BE
:1049A00004FB1500B4FBF1F41EB9002D01DC002C52
:1049B000F3D1092D03F101075FFA85FC04DD002A1C
:1049C0000CBF5725372500E0302565441D700136A2
:1049D0003B46E2E71C70F0BD70B50646B6FBF2F44C
:1049E0000846154614B12046FFF7F6FF05FB146490
:1049F000024B1B5D00F8013B70BD00BF6B990108C5
:104A00002DE9F843089E002B0746884614460CBF44
:104A10004FF020094FF03009334613F8012B0AB943
:104A2000254603E0002CFBDD013CF6E7002D04DD0C
:104A300038464946C047013DF8E724EAE474254674
:104A4000331B595D19B13846C0470135F8E7284690
:104A5000BDE8F88380EAE073A3EBE0738B4206DBEA
:104A6000002801DD401A704702D00844704700203A
:104A7000704710B5121A07EE902A5B1A2DED028BC3
:104A8000F8EEE78A07EE903A434B059CB8EEE78ACA
:104A9000D3ED007A28EE278A28EE080AA8EEA80AA5
:104AA00011F04EF9DFED3D7A049B20EE270AF1EE7E
:104AB000688AF0EEC86AB0EEE86AFCEEC07AF4EEFE
:104AC000C66AF1EE10FAC3ED007AD4BFF0EE467A72
:104AD000F0EE667AF5EE407AF1EE10FA0BD0F4EED5
:104AE000C66AF1EE10FA54BFB0EE467AB0EE667ABE
:104AF00087EE277A01E09FED2A7ADFED2A7ADFED53
:104B00002A5A9FED2A5AE7EE275ADFED297AE5EE79
:104B1000877ADFED285AE7EE875ADFED277AE5EE50
:104B2000877ADFED265AA7EE255AF7EE005AE5EE12
:104B3000075AF1EE677AC7EEA57AB4EEE66AF1EEAF
:104B400010FAC8BF9FED1E7ADFED1E6AB5EEC08A6F
:104B5000C8BF77EE677AF1EE10FA48BF9FED1A7A78
:104B6000F5EEC08A48BF77EE677AF1EE10FA9FED56
:104B7000177A48BFF1EE677AA7EEA67ABDEC028BF2
:104B8000BDEEC77A17EE103A002BBCBF03F50C43FD
:104B9000A033236010BD00BFF40600202C7D8E3FA3
:104BA0000000000039094E3DE3B59EBE69A2163EE5
:104BB00088FA16BE45FE7FBFA7DFA8B499FB243F45
:104BC000DB0FC93FA00CB345DB0F494000A00C46EA
:104BD000FDEEC07A17EE903A2033402B43D8DFED3C
:104BE000237AB4EEE70AF1EE10FA04DDDFED207A65
:104BF00030EE670AF3E7DFED1F7AB4EEE70AF1EE75
:104C000010FA04D5DFED1A7A30EE270AF3E7DFED6C
:104C10001A7AB4EEE70AF1EE10FA04DD30EE670A14
:104C200037EEC00A0AE09FED157AB4EEC70AF1EE3E
:104C300010FA44BF30EE270A37EE400A60EE007AE1
:104C4000DFED0F6A9FED0F7AA7EEA67ADFED0E6A11
:104C5000E7EE876A9FED0D7AA7EEA67A20EE276A27
:104C6000A6EE070A70479FED060A7047DB0F494022
:104C7000DB0FC940DB0F49C0DB0FC93FDB0FC9BFEA
:104C80000000000092E741B99730083C15A82ABE01
:104C9000DFED027A30EE270A9AE700BFDB0FC93F4B
:104CA0002DE9F04FB0F90230934218BF00232DEDEB
:104CB000048B18BF037090F8008083B082460E46C4
:104CC0001746B8F1000F40F0978007EE902AF8EEF3
:104CD000E78ADFED887A68EEA78ADFED877A68EEEB
:104CE000A78AB6EE008A68EE888A5546B0EE680A52
:104CF000FFF76EFFB0EE409AB0EE680AFFF7C8FF0C
:104D000089EE000A40F2DC53CAF854301023AAF8A6
:104D100052301823AAF8503054469FED786A20EE9E
:104D2000066AF7EE007AF0EE466AE0EE006A90EE70
:104D3000006A76EEA76ACAED047AC7EEA66A76EE36
:104D4000277A26EE807A27EE007A77EE075A8AEDE8
:104D5000017ACAED025A70EE005A8AED037AB8EE73
:104D6000007AA5EE807A26EE877A66EEA76A8AED4B
:104D7000057ACAED066A95ED047ADFED617A27EED1
:104D8000277AF0EE678AB5EEC07AF1EE10FA4CBFE2
:104D900037EE487A37EE087A08F1010817EE100A64
:104DA0000DF0E2FDC4E90E01D5ED017A67EEA87AB7
:104DB0000435F5EEC07AF1EE10FA4CBF77EEC87A02
:104DC00077EE887A083417EE900A0DF0CDFDB8F131
:104DD000030FC4E90601CED1A6F2DC531B04CAF8C6
:104DE0007030CAF87C30CAF87430CAF880300123B9
:104DF000AAF802708AF80030DAF854C0BAF952B052
:104E0000DAF82450DAF82010DAF87000DAF87C408A
:104E1000DAF88020CAF88040CCEB060606FA0BF6DA
:104E20004FEAE679754301FB0955CAF87060A1FBAA
:104E30000667DAF84410DAF87430CAF874002F44C0
:104E4000DAF84050CAF884204FEAE479614305FB60
:104E50000911A5FB04450D44DAF82C10CAF8783086
:104E6000341B67EB0505DAF82860CDF804C04FEA7B
:104E7000E079414306FB0917A6FB00010019DAF8A7
:104E80004C40DAF84860394402FB04F44FEAE27718
:104E900006FB0744A6FB02672744DAF83440DAF839
:104EA000302041EB05015C43DD17801B61EB0701FE
:104EB00002FB0544A2FB03232344801841EB0301BA
:104EC000BAF950200DF026FD0BF1FF33012202FA52
:104ED00003F3CAF87C00C01841EBE3715A460DF0A9
:104EE00019FDDDF804C0604403B0BDEC048BBDE8DF
:104EF000F08F00BF6F12833ADB0F4940F404B53FD7
:104F00000000804B07EE100AF8EEC77A9FED0A0A00
:104F10009FED0A7AF5EEC07AF1EE10FAD8BFF1EE05
:104F2000677A87EE800A08B520EE070AFFF7B0FE21
:104F3000034B83ED000A08BD8096184B35FA8E3C72
:104F4000F406002010B50E4C23789B0717D50D4BA7
:104F50001B78042B13D90C4A0C4B106852685A600A
:104F60001860FFF7CFFF0A4BB3F904200A2392FB26
:104F7000F3F2084B1A80237843F00103237010BD2D
:104F80007D130020B41F0020B81F0020782B0020C4
:104F9000901F0020F4390020024B9A6822EA00009A
:104FA0009860704718080020024B9A681043986078
:104FB000704700BF1808002082B0002301930093BF
:104FC000264B1A6842F480321A60244B1A6802F4A5
:104FD00000320092019A01320192009A1AB9019AA4
:104FE000B2F5A04FF1D11B6813F4003318BF0123B1
:104FF0000093009B012B2FD1184B1A6C42F080526A
:105000001A64174A116841F4404111609A689A6025
:105010009A6842F400429A609A6842F4A0529A60F8
:10502000104A5A601A6842F080721A6019680B4A76
:105030008901FBD50C4B40F205711960936823F090
:1050400003039360936843F002039360034B9B68F0
:1050500003F00C03082BF9D102B07047003802406E
:10506000007000400A694007003C02400A4B1A8861
:1050700001321A80094B1A6801321A60084B1A88EB
:10508000013292B2202A04D100221A80054B1A88DC
:1050900001321A80704700BFFC160020601D0020FE
:1050A0005E1D00207E3E00202D4B2E4A1B6812689C
:1050B00010B51A602C4A1168596051689268DA601C
:1050C0002A4A996011681961516892689A61284A60
:1050D00059611168D961516892685A62254A19620A
:1050E00011881985518859859188D288DA85224A94
:1050F0009985118819865188598692889A861F4AFF
:105100001188D986518892885A871D4A1987118833
:10511000998751889288A3F840201A4AD987117834
:1051200000228A4208DA184C03EB420034F812409D
:10513000A0F842400132F4E7144A1288A3F86A202A
:10514000134A1288A3F86C20124A12681A67124A8E
:105150001288A3F87420114A5289A3F8642010BD64
:10516000083D0020D4160020C0200020CC200020C4
:10517000D82000209C1F0020001F0020821F00203C
:10518000901F002048120020061F00207C3E0020B7
:10519000803B00208C1F0020241F0020581000207E
:1051A000114A30B50028B8BF4042104C90FBF2F3D2
:1051B0003C2504FB030068430D4D2D682D7B90FBBF
:1051C000F2F225B903EB830303EB830301E0C3EBA6
:1051D000031302EB83030B8004FB02024FF47A7388
:1051E00092FBF3F24A8030BD80969800806967FF99
:1051F00038160020022803D0431E584258417047F9
:10520000064B1B681B7823B1054B1868C0F3C040E0
:105210007047044B1878C0F38000704734160020A4
:10522000FC1E0020E14500204179DFED2A7AC27B97
:10523000294B07EE101AB8EE477AF2EE046A87EEB1
:10524000277A83ED007A07EE102AB8EE477A234AD0
:10525000DA6087EE277A83ED017A8179204B07EEB9
:10526000101AB8EE477A017CDA6087EE267A83ED71
:10527000007A07EE101AB8EE477A817E87EE277A19
:1052800006EE101A83ED017AB8EE466A9FED157AA4
:1052900086EE076A83ED026AC179134B06EE101A97
:1052A000B8EE466A417CC07EDA60C6EE266AC3ED7F
:1052B000006A06EE901AF8EE666AC6EEA77AC3EDAB
:1052C000017A07EE900AF8EE677A87EE877A83ED27
:1052D000027A70470000C842B03900200000FA444A
:1052E000C039002000007A44E439002044F25063C1
:1052F000984203DDA0F50C40A0387047034B98425C
:10530000BCBF00F50C40A030704700BFB0B9FFFF34
:1053100010B50A4B0A4A1B7842609C18094A04607F
:1053200012789A4204D3D31A0B6000234B6010BD4D
:10533000C3F180030B604A6010BD00BF903B0020AA
:10534000923B0020913B00201FB5684602A9FFF761
:10535000DFFF044B1868029B1844039B184405B0F8
:105360005DF804FBC0160020054A064B10781B7838
:1053700083422EBFC0EB0300C0F18000C01870470D
:10538000903B0020913B0020024A00231370024A08
:1053900013707047913B0020903B00202DE9F041B5
:1053A000038A8789BFB204460D461F40002F34D0C0
:1053B000B7FA87F34FF00042DA40D24391B21B3B79
:1053C00021821740042BF1D8DFE803F0211E1B18BF
:1053D00003006B6A33B103F1FF3800231FFA88F82A
:1053E0006B6202E0E36A1FFA83F82E6A002EDDD0BA
:1053F00033683046414698477668F7E72868616B1E
:1054000007E06868A16B04E0A868E16B01E0E86868
:10541000216C036889B29847C8E7BDE8F0810F4B5B
:10542000800A984211D006D8B0F5801F0BD0023BFD
:10543000984210D00DE00A4B984208D00F339842A2
:1054400007D10420704700207047022070470320D6
:105450007047FE2070470120704700BF0300100016
:1054600041001000BFF34F8F044A054BD16801F48F
:10547000E0610B43D360BFF34F8FFEE700ED00E028
:105480000400FA05044B53F820301BB107289CBFD9
:105490001B681960704700BF281200200D4B98420E
:1054A00001D10D4B03E00D4B984205D10C4B1A88EE
:1054B000013292B21A800AE00A4B984207D10A4B95
:1054C0001A88013292B21A80188880B270474FF061
:1054D000FF30704700300140922B00200038004020
:1054E000962D0020003C0040942D00202DE9F74F20
:1054F0000CF088FA744B1F78002F40F04085734EF3
:1055000033685C0540F13B85714B724CB3F84E91AA
:105510002378DFF8DC81002B00F0FF81D8F8003021
:1055200062689A1A7C2A40F2F8816360237A013318
:10553000237207F12400674DC0B206F00FFD05F19C
:105540000A0333F9173007EE103A634B1B8807EE56
:10555000903AB8EEC77AF8EEE77A0137C7EE277AC5
:105560009FED5E7A67EE877AFDEEE77A17EE900A96
:1055700000B206F01FFD032FDBD1302006F0EEFC59
:10558000B5F9100006F016FD06F0F6FC2B7A980728
:105590002FD16B6841F28832934218D9102006F05F
:1055A000DDFC6869642790FBF7F000B206F002FDAD
:1055B000212006F0D3FC6B6993FBF7F007FB103753
:1055C00087EAE770A0EBE77000B206F0F3FC142066
:1055D00006F0C4FCB4F91C000A2390FBF3F006F0BB
:1055E000E9FC1C2006F0BAFC002006F0E3FC06F003
:1055F000C3FC237A374D590740F06B81022006F037
:10560000ADFC2B6A6422323393FBF2F000B206F059
:10561000D1FC0320B5F92A5006F0A0FC304B1B78D2
:10562000052795FBF7F55A07ADB20BD52D4849462E
:1056300007F086F820B9336813F0100F18BF002563
:1056400028B205E0284B1B689B89B3FBF7F000B23A
:1056500006F0B0FC33689B0740F1A080DFF894901F
:10566000A38D99F80020B4F82EA01A4F642505FBED
:1056700003234FEA0A1A5200B3FBF2F31FFA8AFA25
:105680004AEA032A1FFA8AFAC3F303234AEA030AFF
:10569000062006F063FC0FFA8AF006F08BFCE28D20
:1056A00099F80030013292B292FBF3F103FB11231F
:1056B000E3850E4B1B689B7B012B1DD1392006F027
:1056C0004DFCB7F92C0032E0FE450020380F0020D9
:1056D00018080020781F00200204002000007A44EF
:1056E000E14500209E090020C81600203816002041
:1056F000D84500202D070020BB8D6E275F43152362
:1057000097FBF3F7BFB23A2006F028FCB7FBF5F998
:105710000FFA89F006F04EFC3B2006F01FFC05FB5B
:10572000197080B205300A2390FBF3F000B206F046
:1057300041FC282006F012FC236B9E4D0A2293FBAD
:10574000F2F000B206F036FC042006F007FC9A4B9B
:10575000686B1B684FF6FF729B899042A8BF10468A
:1057600020EAE070BBB1181A07EE900A9FED937A19
:10577000F8EEE77A06EE903A67EE877AB8EEE67AC8
:10578000C7EE877AFDEEE77A17EE900A6428A8BF85
:10579000642020EAE07000B206F00CFC884B1B6825
:1057A0009F0640F18C80874F3B789D071BD51120C9
:1057B00006F0D4FB208F844B4FF4F365684390FBD5
:1057C000F3F000B206F0F6FB192006F0C7FB238FBA
:1057D0005D43642395FBF3F595FBF3F203FB125055
:1057E00000B206F0E7FB3B78658F13F0020F08BFAD
:1057F0000025012006F0B2FB28B206F0DBFB0920F1
:1058000006F0ACFB002006F0D5FB704B94F83C5042
:105810001B88B3F5967F0AD9664A127A02F00F0206
:10582000072A04D842F20F75AB42B8BF1D460520C7
:1058300006F094FB664B1A68527B99460AB928B267
:105840001AE0203D07EE905A9FED627AF8EEE77A73
:10585000FEEE006AC7EE877AB6EE007AF5EEC07A01
:10586000F1EE10FA48BFB0EE667A77EE877AFDEE79
:10587000E77A17EE900A00B206F09CFB3B78980797
:1058800003D494F83D30012B04D1012384F83D303A
:1058900051481AE0D9F80030DFED507A93ED017AE3
:1058A00027EE277ABDEEC77A8DED007A93ED027A66
:1058B00067EE277AFDEEE77ACDED017A04E0484AFB
:1058C00092E803008DE80300684606F07EFB06F0D0
:1058D00053FB237A282B20D1364BD8F800500022D6
:1058E0001A724FF47A73B5FBF3F917203C2506F0D2
:1058F00035FBB9FBF5F7B7FBF5F005FB10700002BF
:1059000000B206F057FB182006F028FB05FB1790A5
:1059100000B206F04FFB06F02FFB94F84830254FFD
:10592000002B00F0468106F044F8FB6C2D4AC31AA8
:105930009342054640F2CE802B4B00229A701A719A
:10594000BA8DD1B2120A9977DA7719755A75D8F8E3
:1059500000103A6D8A1A25490968C97B4FF47A709C
:1059600041438A420BD3224A12683A65214A12788F
:10597000013A012A03D810229A7002221A71216B6F
:105980000A2291FBF2F1197709125977616B91FBA9
:10599000F2F20C4983F820200978121283F82120B2
:1059A000154B94F83C209A76890727D42D22DA7675
:1059B0008EE000BF781F0020C81600200000C842FB
:1059C000041400207D130020A08601002E07002073
:1059D000381600206666E63FB81F00208096184BF8
:1059E000388401083F0D03004D16002044160020A6
:1059F000D8450020CC16002079160020042A276CF8
:105A0000DFF83093DFF83083606C8CBF33223222B2
:105A1000DA7697FBF9F308FB037ABE4A4FF0060CDF
:105A200003EB83030CFB0AFA03EB83039AFBF2FB01
:105A30009B0002FB1BAA43FA8BFBB74BFF0F5F7265
:105A400090FBF9F708FB07080CFB08F898FBF2FC41
:105A5000642102FB1C8292FBF1F25A741212C00FF5
:105A60009A74228F9873242042439AFBF1FA92FB96
:105A7000F1F1B4F85420D971C1F307211972DA7425
:105A8000618F83F80CA0120A07EB87071A750A22A8
:105A900007EB8707B1FBF2F2BF0002F5FA7292B290
:105AA00047FA8CF71FFA8BFBBFB25A75120A83F8BC
:105AB0000AB04FEA2A2A4FEA1B2BDF739A753F0A76
:105AC000B4F8562083F80BB083F80DA01F741A7732
:105AD000924BDD64914C94F85880B8F1000F0CD1D2
