:020000040800F2
:1000000000040020E56B010801A40008295501083F
:100010005D6C01085D6C01085D6C0108000000006A
:10002000000000000000000000000000FDA3000828
:10003000F9A3000800000000F5A3000869AE00085D
:100040005D6C01085D6C01085D6C01085D6C010868
:100050005D6C01085D6C01085D6C01085D6C010858
:100060005D6C01085D6C01085D6C01085D6C010848
:100070005D6C0108A5800008854E01085D6C0108D3
:100080005D6C01080D4F01085D6C01085D6C010895
:100090005D6C01085D6C01085D6C01085D6C010818
:1000A00029970008599700085D6C010869970008B6
:1000B000499700085D6C010839970008057E000823
:1000C000097E0008FD7D0008017E00085D6C0108C6
:1000D0005D6C0108D5500108CD500108459A000813
:1000E00079AE00085D6C010805A400085D6C01088C
:1000F0005D6C01085D6C01085D6C01085D6C0108B8
:100100005D6C01085D6C01085D6C01085D6C0108A7
:100110005D6C01085D6C01085D6C01085D6C010897
:100120005D6C01085D6C01085D6C01085D6C010887
:100130005D6C01085D6C01085D6C01085D6C010877
:100140005D6C01085D6C01085D6C0108D99E0008BA
:100150005D6C0108A5990008954F01089999000860
:100160005D6C01085D6C01085D6C01085D6C010847
:100170005D6C01085D6C01085D6C01085D6C010837
:100180005D6C01085D6C01082DE9F04F2DED0E8BC3
:100190009BB00AF04BFE42F20F73984204D81BB09A
:1001A000BDEC0E8BBDE8F08FDFF8308198F80030A1
:1001B000092B00F257833C4A342101FB03239F6A39
:1001C0003A4C3B4E3B4D08E00AF030FE33682A685B
:1001D000FB1A18446432904206D2E36813A8984789
:1001E0009DF84C30002BEFD098F80030092B00F22E
:1001F00035832D4A342101FB03231B8D07EE903AF2
:10020000B8EE676A2C4A2D4DD2ED007ADFED2C5AFC
:10021000D5ED016A2B4A2C49B8EE677AF5EE406AB3
:1002200067EE257AF1EE10FA0B80C2ED007A05D167
:100230009FED267AF0EE476A85ED017A77EEA66AA1
:1002400095ED007A224E63681C4FC7EEA67A3046C1
:1002500076EE476AA7EEA67AF0EE477ABCEEC77A4A
:10026000C5ED007A17EE102AAA819847002840F0C1
:10027000BE82DFF86C80D8F800309F0732D4154B6F
:1002800000221A805A809A80134A95F8DC1013785D
:100290000A4E994200F0F482013313701BB0BDEC9A
:1002A0000E8BBDE8F08F00BFBC040020F8320020A8
:1002B000D4490020B0370020A8320020B00C002024
:1002C000BD37863518330020C015002083F9223E43
:1002D00000160020DC49002001040020CC0600208C
:1002E000C4150020E84B1B78002BC8D00AF09EFDF7
:1002F000AA6FDFEDE67AD5F87C90DFF8DCE3E44B1B
:10030000E44FDFEDE55AA867821A09EE902AB8EEAD
:10031000699A002229EE279AB7EE006A99F8001030
:10032000002941F07F8033F8121027F812100132B3
:10033000032A0EF10C0EF1D1D8F80030069313F019
:10034000080FD64B18885988B3F804C001F0A6806E
:10035000002801F0A380002901F0A080BCF1000F6B
:1003600001F09C80CE4B9FEDCF8ADFF870A3049301
:100370004FF0000B0122B6F9023095ED297A08EE14
:10038000903AB6F90030F8EEE88A0AEE103A67EED5
:10039000288AB6F90430B8EECAAA0AEE903A2AEED4
:1003A00007AA28EEA80AF8EEEA7AAAEE0A0AB7F92E
:1003B000003067EE27AA0BEE103AAAEEAA0AB7F9A8
:1003C00002300CEE103AF1EEC0CAB7F904300BEE71
:1003D000903AF4EE6CCAF1EE10FAB8EECBBAB8EE81
:1003E000CCCAF8EEEBBA41F0AB87BBF1000F01F0DD
:1003F000F981DFEDAD7AB4EEE78AF1EE10FA0ADDAD
:100400009FEDA57A634638EE478AB4EEE78AF1EEAF
:1004100010FAF8DC9C46DFEDA57AB4EEE78AF1EE3F
:1004200010FA0AD59FED9C7A634638EE078AB4EE3F
:10043000E78AF1EE10FAF8D49C46B6EE000A28EEF0
:10044000000ACDF82CC00A91089006920BF0D4FF58
:10045000DFED94DA069A08980A99DDF82CC070EE60
:100460002DDAEAB100B207EE900A09B207EE101ACF
:10047000B8EEE7DAB8EEC78A6DEE0D7A0FFA8CFCAB
:1004800007EE10CAE8EE087AB8EEC7EA9FED887A60
:10049000EEEE0E7AF4EEC77AF1EE10FA01F3638510
:1004A0009FED808A834EB0EE48DA6CEE0C7A9FEDB9
:1004B000807AEBEE0B7AEBEEAB7AF4EEC77AF1EEE4
:1004C00010FA01F39E82D9ED017A9FED766AF4EE7F
:1004D000C67AF1EE10FA41F3C0829FED777AF4EE1E
:1004E000C7CAF1EE10FA01F1F58195ED2A7A95ED82
:1004F0002B5AD5ED2C6A714B06931A78D9ED027AF6
:10050000500741F1B181F7EE005A67EEA55AB6EEF9
:10051000006AEDEEA56A6A496A4B91ED004AD3ED97
:10052000003A6948694A90ED003AD2ED004AA8EED7
:10053000255AADEE257A29EE066A7AEEA66A78EE9D
:10054000858A66EE866A3AEE077A68EE867A27EE44
:10055000067A26EE845A64EE675AA7EE235AE3EE33
:10056000475AA7EEE45A23EE666AE6EEE45AA7EE8F
:10057000A36A33EE055A67EE837A73EEA55A25EE29
:10058000050AA7EE246AE6EEA37AA5EEA50A74EEA4
:10059000066AE7EE447AB0EE407AA6EEA67A74EEEA
:1005A000A77A80ED005AA7EEA77AC3ED005AB1EE04
:1005B000C70AC1ED006AB4EE400AF1EE10FAC2EDCE
:1005C000007A41F0B086F7EE007AC7EE807ADFF865
:1005D0000CB191ED007AD2ED005A93ED006AD0EDA6
:1005E000006A9FED3B8A27EE866A67EEA66A27EED1
:1005F000877A67EEA57A81ED007A83ED006AC2ED15
:10060000007AC0ED006A11F093FAD6ED080A96ED73
:10061000070A18F0E3FF20EE080A18F0FDFE96ED39
:10062000060AAAF80000B1EE400A18F079FFDFEDE3
:10063000297A37EEC00A20EE080A18F0EDFED6ED52
:10064000000A96ED030AAAF8020018F0C7FFD5EDDC
:100650002D7AE0EE487AB0EE670A18F0DDFE96EDEE
:10066000086AD5ED2E7AB7F9023096ED048A96ED38
:10067000033A96ED010AD6ED073A96ED054AD6ED16
:10068000004A96ED065A2BE00C4A0020BD3786350D
:10069000DC490020F8150020DB0FC940CC160020F3
:1006A0004C16002000000000DB0F4940DB0F49C062
:1006B0000AD7233C94340020C2B8B23E1E4A002020
:1006C0008C340020A40400208834002090340020C2
:1006D0004C3D0F44DB0FC93F300D00203416002085
:1006E000D6ED025AB4EEE76A07EE903AB7F9003059
:1006F000F8EEE77A06EE903A27EE888AF8EEE66A98
:10070000B7F90430A6EE838A82B2110407EE103ADC
:1007100027EE800AB8EEC77A67EEA37A48BF00F5E5
:100720006160049954BFABF80420ABF80400A7EE55
:10073000048A0A7899F80130A6EEA40AE6EE857AD2
:10074000F1EE10FACCBF42F0080222F00802012BB1
:100750000A70B1EE488AA7EE250AE6EE077A01F0A4
:100760002A81414B1B8807EE103AB8EEC77A77EE24
:10077000C77A95ED317AD5ED308A39EE077A77EE82
:10078000E87A89EE079AE9EE278AC5ED308A18F0F3
:1007900043FED5F8C86031780BF00AFED5F8CC30AE
:1007A000B0EE480A1844C5F8CC0018F035FE317890
:1007B0000BF0FEFDD5F8D030B0EE680A1844C5F84D
:1007C000D00018F029FE7178284E0BF0F1FDD5F815
:1007D000D4103268D5F8D830084419EE901A013395
:1007E0001144C5F8D4003160C5F8D8304CE5304626
:1007F0003146BA7B11F002FE97F80FA0BAF1000F54
:1008000019D03B7C002B01F07F8007F11409B04622
:100810000027B8F9003059F8270000EE103AB8EE7A
:10082000C00A0BF0A3FA18F0F7FD0137032F28F8E0
:10083000020B2F62EDD1DFF844A0BAF800000028C7
:1008400040F01B850A490B488F1D0B8830F8022B9E
:100850009B1A21F8023BB942F7D10AE59FED066ADF
:100860000023CFE40027ABE406040020184A002050
:1008700000160020200D0020000000001C4A00206F
:10088000012313700AF0D2FAAF4BB0491B68D6F8B7
:10089000E0200A93B1F906A05B89C6F8E000801A4F
:1008A000AB4A9A455080C0F2A481BAF5FA6F80F243
:1008B0009D870A9AD179C3EB0A0202FB01F2A3F5E4
:1008C000FA6392FBF3F364330893A24BA14893F9C4
:1008D0005E21A14BB0F89691A0481B68A049006822
:1008E000049003F0807390B2DFF8B8B29FED9D4A98
:1008F000DFED9D4A0C9152420E900D9206938E466A
:100900000027B7EE005A914B33F91720C9EB0203C9
:1009100003F2F31140F2E630814200F20D84002B25
:10092000B8BF5B42022F40F0C983049991F81E11B1
:1009300019B19942B4BF5B1A00230699002901F04E
:1009400015850A99097A07EE903A06EE101AB8EE64
:10095000E77AB8EE466AC7EE047A814986EE246AE1
:1009600067EEA75A75EE466A67EEA55A67EEA67A55
:10097000E6EE257A27EE277ADDED0D7AF8EEE77AB6
:1009800067EE277AFDEEE77A17EE903A8B804FF00C
:1009900064034A458BF80230C0F2C2836D4BB3F852
:1009A00098319A45C0F28D85BAF5FA6FD4BFC3EB82
:1009B0000A0AC3F5FA6A4FF47A7202FB0AF26B4E26
:1009C0006B48C3F5FA61B2FBF1F186FB0132CB173C
:1009D000C3EB6212531C6FF0630730F9133030F829
:1009E000120007FB021201B25B1A03FB02F286FB44
:1009F0000236604B5A4F1B88D217C2EB6612024474
:100A0000FA805A0600F19986524B93F89C31002BDC
:100A100040F040864F4B93F89D0120B1554B1B8809
:100A20005B0641F12880544B06931B785F0740F129
:100A30007F84524A524B08924FF480425A83A368F3
:100A40000BB150489847504B1B78B3B13F4B4149CD
:100A5000B3F906203F4BB3F898319A420DDC4B793D
:100A6000012B01F00882192B01F005820E2B04D016
:100A7000082B02D03A4A00239380384B1F6897F81E
:100A8000246126B13B4A1288920741F0B281D8F81E
:100A90000030980609D5374B1B8803F0300323B18B
:100AA0003A4B1B78D90701F1AB82394B1B78002BED
:100AB00040F0E485244B37481968264B0668B3F8A4
:100AC0006C2103F5C4730093384607F16403B04703
:100AD000314B93F80090B9F1030F06D9D5F81031D6
:100AE0005B88B3F5FA7FC1F06F81089B1B681A0120
:100AF00040F18280B9F1000F01F02882D5F8103161
:100B0000264A93F90010B2F90430B2F90200B2F9A2
:100B10000020494203FB01F305EE902A05EE100A7E
:100B20001F4A07EE903A0FFA89FB4FF0000C0DF1C7
:100B30004C0EB8EEE76AB8EEC55AF8EEE55A02EB8D
:100B40000B1A6146774638E0481600209C270020A3
:100B5000C0160020C03E0020982700201816002054
:100B6000903200200000FA430000C8421F85EB517C
:100B70000C280020C81500201E4A0020CC1500209B
:100B8000000C0240E4160020B90400204C1600209E
:100B900005040020D006002034330020C432002099
:100BA000C40D0020983200204645B8BF9C4681F213
:100BB0000D841032524500F0C382D2ED017AD2ED9D
:100BC000026A92ED037A65EEA77A08B2E6EE857ABC
:100BD0000FFA8CF8E7EE067AFDEEE77ACDED047AAF
:100BE000BDF8103027F8023B1EB28642DCDD194604
:100BF000DFE76423089368E6B34B1A6841F21D03EC
:100C00001340002B7FF476AFB04A1370B9F1000F98
:100C10003DD0AF49D5F81031B1F9020093F9002069
:100C2000B1F90430B1F9001004EE901AA94952420A
:100C3000B1F9061003FB02F304EE100A05EE101AD8
:100C400007EE903AA44AA549F8EEE75AB8EEC44A2E
:100C5000F8EEE44AB8EEC55A02EB0910D2ED027A7A
:100C600092ED006AD2ED016A92ED037A64EE277A82
:100C70001032E6EE057A8242E6EEA47AE5EE877A55
:100C8000FDEEE77A17EE903A21F8023BE6D1069B9B
:100C90001B785B0700F16C84B9F1000F09D0904B11
:100CA0008E4A03EB490933F8021B22F8021B4B451D
:100CB000F9D195F8D4310A935E1EF3B2182B894806
:100CC00007D80121884A01FA03F31A40002A40F0AC
:100CD0005787864F864BD7F800B004937A4B1B6832
:100CE000990600F15583049B1B88DFF80482CDF838
:100CF00010800021C64601E0BEF800300BEB010079
:100D00001AB2B0F90030B0F902009A4201F10E01B6
:100D100003DB03B29342A8BF134670292EF8023BAF
:100D2000EAD1D5F8109199F908301BB3DFF8D4B1A6
:100D30004FF0000A5846B9F90620B8F9001010F033
:100D4000A3FC3B6880B25344A8F80000B3F900202C
:100D5000B3F9023000B290420AF10E0A0BF1880B8F
:100D600003DB1AB28242A8BF0246BAF1700F28F81C
:100D7000022BDFD1182E00F29280DFE806F05B90A4
:100D8000900D909090509090909090449090909072
:100D9000900D839090445B00049E0020318907F001
:100DA00075F97189012007F071F90226464B1B681D
:100DB0009A0658D4D80200F1878395F84036494AFC
:100DC000002B40F0F9844B4B1B78002B7FF4E7A9F4
:100DD0003D4A126812037FF5E2A995F84826414E74
:100DE000023AD1B2052941F2DD81082A3FF6D7A99E
:100DF000DFE812F00501E3004B012F01CE00B40043
:100E000099008A0057003C4F0020461CF6B237F884
:100E1000021F07F03BF9062E3046F6D11CE0049E77
:100E20000020F18807F032F93189012007F02EF90E
:100E30000226BBE799F80430002B41F02480069B82
:100E40001B7803F0040303F0FF00002B41F01B802C
:100E5000014607F01BF901261B4B1B689F0602D4B5
:100E60000A9A052AA6D1049F3046398807F00EF960
:100E7000701C7988C0B207F009F9134B0236F6B23C
:100E80001B6897E71D4F0326F01EC0B2013637F8E6
:100E9000021F07F0FBF8072EF6D1042686E700268E
:100EA000DAE7174AD5F85C361268C833934204D3A0
:100EB00012F034FC00283FF472A912F015FC012353
:100EC00085F84836FFF76BB998270020384A00208C
:100ED000C432002090320020C40D00201C160020D7
:100EE00034310020B00C0020992098018831002076
:100EF00008160020314A00200A1600200C16002097
:100F0000341B0020B00E002095F87026BC4B22B197
:100F1000089A1268900141F1F6810CF0AFFE0DF0D5
:100F2000A1F9FFF73CB9089B1B689C01F7D5B5F800
:100F30006836B34C002BF2D1B24AD4F86C36126842
:100F4000149213A90E2013930CF034FE4FF4805228
:100F50000923A4F8662684F84836DEE7402012F01C
:100F6000A5FB00287FF41BA9D5F858360C2B01F2FD
:100F70006A82DFE813F0640A5F0A590A500A430ADA
:100F80003C0A2F0A900A8A0A810A760AA90A9C0A50
:100F90009D4A052000218DE8030002F1080302911B
:100FA00053200DF08BF900287FF4F9A80723C5F82A
:100FB000580685F84836FFF7F2B8944B019303F1D1
:100FC0000C02242102920091A3F10A02492002336B
:100FD00050210DF073F900287FF4E1A88C4B1B68B9
:100FE00013F0800301F094814FF0FF320423C5F821
:100FF0005806C5F85C2685F84836FFF7D0B8854A0C
:10100000D5F85C3612687E4C64339342BFF4C7A8AF
:10101000402012F04BFB00287FF4C1A8D4F85836CA
:101020007D4F40240EE012F0A9FCD5F85026D5F8EB
:101030005836013A0133013CC5F85026C5F85836F8
:1010400001F04882FB5C744E1846002BEBD101F096
:1010500045BA724B019303F10C02072102920091F1
:10106000A3F108024720043300210DF027F90028DE
:101070007FF495A84FF0FF320623C5F85806C5F84F
:101080005C2685F84836FFF78AB8654A02200021B9
:101090008DE8030002F10803029148200DF00EF9DB
:1010A00000287FF47CA84FF0FF320523C5F85806CE
:1010B000C5F85C2685F84836FFF771B8049991F8B1
:1010C0001D1119B19942B4BF5B1A0023069900297A
:1010D00000F0B2800A99497807EE903A06EE101AAD
:1010E000B8EEE77AB8EE466AC7EE047A86EE246A6E
:1010F00067EEA75A75EE466A67EEA55A67EEA67ABE
:10110000E6EE257A27EE277AFDEEC77A17EE903ABB
:10111000AEF800309DF820300BF807304A4504DA6D
:10112000BEF800305B42AEF800300137032F0EF1FD
:10113000020E7FF4E8AB31E44FF4FA73FFF7F2BB31
:10114000384B1B6858881E88821BCCEB010392B277
:101150001BB211B2994280F29381334901270DF1FC
:101160004C0C0CEB4B0B0F70BEF8001011FB02F196
:1011700091FBF3F12EF8021BDE45F5D1B6B280B239
:10118000B9F1000F3FF483AD284B294AB3F906307B
:10119000284F36B207EE906A00B205EE103AB8EE6C
:1011A000E76A07EE900AB8EEC55AF8EEE75A02EB86
:1011B000091013A912E0F4EE657AF1EE10FAC8BF37
:1011C000F0EE657A77EE277A1032FDEEE77A82420A
:1011D00017EE903A27F8023B3FF459ADD2ED006A82
:1011E00031F9023B65EE267A07EE103AF4EEC67A44
:1011F000F1EE10FAB8EEC77ADDD5F0EE467AE1E707
:10120000B00C0020D44900205CBE010852BC01088B
:1012100098270020341B0020E8BB010810BE0108FD
:10122000F8BD01080C340020384A0020903200201C
:10123000C40D00201C160020BE49BF4E81FB0310C8
:10124000D917C1EB6010411C36F810C036F91110E7
:101250000B916FF0630101FB00330B990FFA8CF6D1
:10126000891B01FB03F3B34981FB0301DB17C3EBCC
:1012700061136344AEF800304CE76B6ADFF8E88234
:101280001B789FEDAE8A049308F13C0B00274FEAD0
:101290008709B0F57A7F09EB070300F02A81D8F8B7
:1012A000102036F917C05BF82710013205EB8303D5
:1012B00005EB090E07EE90CA6144012A9A63CEF845
:1012C0006410F8EEE76A00F0248193ED0A7A93ED5A
:1012D0000C6A07EE902A76EEC75AF8EEE77AC5EE6A
:1012E000A77A77EE277AB0EE467A76EEE76AC3ED14
:1012F0000B7AA5EEA67AC3ED0A7A83ED0D7A83ED1B
:101300000C7A7A00A91800230128A1F8703026F879
:10131000173000F072820137032F08F11408B6D19C
:10132000012800F00D860138AAF80000FFF78ABAFC
:10133000834A08921268D60703D4069A43F0010341
:101340001370804A1278100703D4069A03F0FE0344
:1013500013707D4A12881AB1D8F80020910704D47E
:101360007A4A1288002A00F01983794A069823F0F5
:10137000010302210370117009F058FD754B1B68C1
:10138000C01A0028FFF65BAB11F082F9FFF757BBDC
:101390009BF80930FF2B00F0CA806F4A12789A42FE
:1013A00040F2C5806D4A32F813309BF8172004993B
:1013B000FF2A0B8000F0B88067490978914240F21B
:1013C000B380664931F81210089A04981268418077
:1013D0001206DFF898E17FF588ACD5F8FC21127889
:1013E000012A00F08D865E489BF9069042889BF9A1
:1013F0001480DFF840C1008819FB02F218FB00F0EE
:101400008CFB0298D217C2EB28128CFB008CC01701
:101410001344C0EB2C109BB20844AEF80030AEF879
:10142000020062E433F91200DEED017A06EE900A62
:10143000F5EE407AF1EE10FAF8EEE66A4FEA420075
:1014400009D107EE901AF8EEE77A67EEA57AC6EEB4
:10145000277ACEED017A77EE897A9EED007AC9EE91
:10146000277A76EEC76AA7EEA67AF0EE477ABDEE47
:10147000C77ACEED007A17EE101A3952FEF757BF31
:1014800003EBD37359104A4292B289B2354B0E44E2
:1014900010440021B6B280B2197071E6294A049254
:1014A00092F800A00AF0100E0EF0FF0BBEF1000F34
:1014B00040F040825A469FED218ADFF8A4A0FEF753
:1014C0005ABF0022FFF77BBA244B3046198903F13B
:1014D000080806F0DBFD0136F6B208F11A0738F805
:1014E000021F304606F0D2FD0136B845F6B2F6D1FD
:1014F00063E436F9172005EB83030021C8F81010C8
:1015000007EE902A0121996305EB0903F8EEE76ADB
:101510005A6609EB070305EB8303C3ED0B6AC3EDC2
:101520000A6A83ED0C8AECE6BBF812104CE7BBF8B4
:1015300004303AE71F85EB5124280020000000000A
:10154000CC1500204C160020E81300201C4A002077
:10155000E4370020E8370020502700209C27002097
:1015600034160020384A0020D80C0020081600202D
:10157000089AC44B1668DB780A9316F0006600F0F0
:10158000B38400230C93B9F1000F3FF492ABBE4A31
:10159000BE49BF4BBF48126890F800E0D1F80090F8
:1015A0001968BD4BD5F8D881B3F90670049641F29D
:1015B0001D00104002F4805C02F010020D92B74B47
:1015C0000B90002216E0B8F80E00B3F900A0874295
:1015D0004EDDB9F80200B1F802B0824503DBDA450E
:1015E0005046A8BF584618800132724503F10203E5
:1015F000BFF45FAB049860B1BCF1000FE3D10A986F
:10160000B3F900A008B38888B1F802B08245E6DAE1
:10161000E9E70B9818B918880C9E801B1880BCF15C
:10162000000FECD0B8F80E00B9F806A0CAEB000B1A
:10163000BB45CADA8244BA45C7DDB842B4BFB9F87F
:101640000200B9F800001880CEE70888B1F802B0AF
:10165000824503DBDA455046A8BF58461880B8F8E3
:101660001000B842C0DD0D980028BDD08888BAE7C8
:101670008888B9F800B08245B1DAB4E78849894B67
:10168000002200200860486088601A605A609A60F2
:10169000FFF710BADFF834A2B5F8F400AA899AF877
:1016A0000030B0FBF2F0471CBFB2A5F8F6707E4EDA
:1016B000002B00F04882DFF81892B6F8F8B006F177
:1016C000FC0C3FB206F582764FF0000E39F8022B83
:1016D0003188BCF8003026F8022B0EF1010E521AA8
:1016E00013FB0BF3BEF1040F93FBF7F313442CF839
:1016F000023BEBD180B20023A5F8F8008AF8003055
:1017000003B2002B40F317846849B5F9F6E0DDF821
:1017100030C0A1F1080601F1080731F8022B36F8B4
:10172000023BB94213FB00F393FBFEF3A2EB03036E
:101730002CF8023BF1D1FFF76DB95D4B5D49B3F970
:101740000430B5F8F2209FED5C7A81FB0301DB17D2
:10175000C3EBA1039B1A1BB208EE103AF8EEC87A4D
:1017600027EE878AB0EE480A0AF032FEF0EE408A91
:10177000B0EE480A0AF040FEB7F9023007EE103A20
:10178000B7F90030B8EEC77A06EE903A67EE407AC5
:10179000F8EEE66A20EE260AE8EEA67AA8EE870AB8
:1017A000FDEEE77A17EE902AFDEEC07A3A8017EE4A
:1017B000903A7B80FFF728B9334B1B6859030DD54E
:1017C000D2F8446609F032FB801BF928FAD909F0F7
:1017D0002DFB3A4AC5F844060023D38010F0BCF82C
:1017E000FFF7F1BADFED36DAFEF73BBE0A9BDB7995
:1017F000C3F164030893FFF768B82B4909EB0703AB
:1018000001EB8303996B012940F3E484013907EE6E
:10181000901A93ED0D7AF8EEE77AC7EE277AB1EEDB
:10182000E70AB4EE400AF1EE10FA40F0C785049BD7
:101830004BB107EE903AF8EEE77AF4EEC07AF1EEAB
:1018400010FA00F15A85A9441E49D9F86430BAF853
:10185000000003F5FA7381FB03E12A44DB17C3EBB5
:10186000A113A2F8703056E5174A116844F61F62BA
:101870009142B7EE006AF2EE045A88BFF0EE465A83
:10188000FEF743BEC0370020982700200834002010
:101890000C340020343300209C2700201C1600202C
:1018A0009C3200200C330020B00C0020B40D00202E
:1018B000341600206766666635FA8E3CC016002036
:1018C00000000000D34D6210341B0020AC14002037
:1018D0009032002067EE8D5A95ED2A7A95ED2B5ABD
:1018E000D5ED2C6A27EE886A67EEAD7AA5EE897A87
:1018F000A6EE095AE7EE896A85ED2A7A85ED2B5A1C
:10190000C5ED2C6AFEF7F7BD924A1268002A3EF434
:1019100092AF07F114091F4650460AF04FFA49F8F2
:1019200027000137032F2F628B4BF5D101221A7448
:10193000FEF781BF069B13F0200200F0AC820AF094
:10194000020202F0FF0B002A3FF4B4AD834A127882
:10195000042A40F2A082824A1288B2F5967FC0F033
:10196000C384804ADFF810A213889FED7F8A07EEB8
:10197000103AB8EEC77AF2EE046A87EE267ABAF920
:1019800004304FF0010B002207EE903AF8EEE77AB0
:1019900077EEC77A27EE888AFEF7EDBC734909888F
:1019A000B1F57A7F3FF6E1AC13F0010F704B08BF41
:1019B00002221A70E0E4069B1B7813F0040FD5F89E
:1019C000BC3012D1002B1A46B8BF03F13F02A3EB83
:1019D000A21307EE103AB8EEC77A37EE277ABDEEBB
:1019E000C77A17EE103A85ED2F7A002BB8BF3F3338
:1019F0009B1107EE103AB8EEC77A77EEC77AFEF77A
:101A0000B8BEB1EEE70AB4EE400AF1EE10FA40F0CB
:101A1000A784F7EE007AC7EE807A96ED076A96ED16
:101A2000085AD6ED065A2BEE27BA6BEEA7BA2CEE63
:101A300027CA25EE4B7A66EE6B6A65EECC7AECEE41
:101A4000056AABEEA57AEBEE067A3DEE26DA38EEC5
:101A5000078A7DEEA7DAFEF736BDF0EE466AB0EEF5
:101A6000465AB0EE467A85ED2A6A85ED2B6A85EDF9
:101A70002C6AFEF740BD14F003FA41EC100B41EC68
:101A8000180B17F0E5FB3B4BDFF8F090B3F90000C3
:101A900057EC106B14F004FAB0EE480AF0EE680A46
:101AA00082468B4617F028FC324BB3F904008DEDCB
:101AB000040B14F0F5F95246CDE906015B463046B9
:101AC0003946CDE9086714F051FADDE906230646E8
:101AD0000F46DDE9040114F049FA02460B46304690
:101AE000394614F091F814F053FCB0F5FA7F034630
:101AF000A8BF4FF4FA731E464E451E4FB8BF4E4660
:101B00003E80DDE90623DDE9080114F02FFADDE966
:101B1000042306460F465046594614F027FA0B4652
:101B200002463946304614F06FF814F031FCB0F537
:101B3000FA7FA8BF4FF4FA7048450E4BB8BF48462D
:101B40009880FEF770BFB6F8F800013880B2A6F8AA
:101B5000F800D5E5B0370020B00C00204D1600206D
:101B60005A1600205C16002035FA8E3CF246002002
:101B7000E437002090320020341600200CFEFFFFD6
:101B8000C74B1B88DF0540F12983C64AD0F8D831FE
:101B9000518810889288ADF84C00ADF84E10ADF821
:101BA0005020D989C04BB3F80680C04AC048B2F96A
:101BB0000230B2F90020BF4E4FF47A7703F5E163AB
:101BC00007FB03F3C1EB0808ADF85A8080FB0398CC
:101BD000984402F5E162DB1707FB02F2B6F800C099
:101BE000B14EC3EBE82380FB0290A3F5FA731044D7
:101BF000B6F800E0ADF86430D217AB4B7788B3F895
:101C00000880B688C2EBE022C1EB0E0E9889ADF8D1
:101C100054E0A2F5FA727F1AB3F80EE0ADF8662030
:101C20005A89ADF85670471AA348ADF86070C1EBF9
:101C30000803521A761AACF2DC5CC1EB0E01ADF867
:101C40005C30ADF85E20ADF852C0ADF85860ADF82C
:101C500062100346002223F8022F98498B42FAD1E2
:101C6000974B984F1B780C93002B00F03683089B02
:101C7000D7F800B01B680E93A1F10E02924B0492AC
:101C80000022CDF834B0DFF85CC210901E469346B7
:101C9000119713E00122153302FA03F30E9A134051
:101CA00010D133800BF1010B0C9A5FFA8BF39A423F
:101CB0000CF1070C06F1020640F2AE809CF80030F1
:101CC000002BE7D11CF8012C1CF8060C0B920D9A86
:101CD0001CF9023C1CF8038C1CF805ECC0EBC0019D
:101CE00002EB4101B1F90220B1F90070D21B92B2AE
:101CF000764F02FB03F387FB0397DB17C3EB6713F6
:101D00004FEA5209C9EB03039BB20A93B8F1000FE3
:101D100036D11AAB03EB4E0737F81C7C3780012312
:101D20001CF9048CD1F80A1003FA0EFA674B18FB61
:101D300007F783FB073EFF17BDF928301AEA010FAA
:101D4000C7EB6E1714BF4FF0FF3101219F420FDB2D
:101D50009DF92C3003FB02F25C4B83FB02E3D217AC
:101D6000C2EB6312C9EB02031BB2BB42A8BF3B46E6
:101D7000049F37F8102003FB012327F8103091E768
:101D80001AAB03EB4E0A37883AF91CAC3BB2534509
:101D90000F930EDBC3DD0F9FC8EB0708D0453B4612
:101DA00003DB4745A8BF43469A461FFA8AF73780A8
:101DB000B5E7984443451F4603DCC2455746A8BFD4
:101DC0004746BFB23780AAE7364A4148B2F9041005
:101DD000B0F904600029B8BF49425A42521A9642EB
:101DE00004DB0B44B342A8BF33461A468280FEF799
:101DF0007CBE384ADFED387A92ED080AB4EEE70A85
:101E0000F1EE10FA00F2A7810020264B254ADB886C
:101E10000344D380FEF73BBE1098DDF834B0119F29
:101E20002E4BDFF8A8C01E785946BE4609E01E4F6B
:101E300037F8122013440380204B984201F10E0121
:101E400012D030F8023F91F9062012FB03F28CFB0E
:101E50000273D217C2EB631303804A7AFF2A01D0C0
:101E6000B242E4D38A88E5E795F8D4310A937746FD
:101E70005E1EFEF733BF1A4B93F8E831002B3EF499
:101E8000F9ADFEF7FABD049B0020598906F0FEF873
:101E90000126FEF7E1BF4FF0000BFFF70BBB00BFC1
:101EA000C8150020903200209C2700203416002006
:101EB000C5B3A2911C16002006160020161600209D
:101EC00010340020883100208C0E00201F85EB513B
:101ED000C4320020943400208FC2753C502700206B
:101EE000C03E00201A340020D74B1B6841F21D026F
:101EF0001A40002A40F05381D449B9F1010F0B88F0
:101F00000DD909F10040013801EB400031F9022FF1
:101F10001BB29342B8BF134681429BB2F6D1CC4A62
:101F20001268528819B291427FF72BAB9B1A9BB271
:101F30000C93FFF728BB0023A5F8F830FEF76ABD25
:101F400008F0D0FFBAF80000FFF7EDB9C04B1B68EE
:101F500058881E88831B190440F15581BD4B01220E
:101F60001A70FFF70BB9B1EEE70AB4EE400AF1EED2
:101F700010FA40F01E82F7EE007AC7EE806AB64E85
:101F800096ED047AD6ED034AD6ED017A96ED005A25
:101F9000D6ED055A96ED026A28EE268A2DEE26DA4F
:101FA00028EE077A68EE277AADEE247A2EEE26EA3E
:101FB000EDEE057AB0EE478AAEEE258AEEEE067AB1
:101FC00028EE080AA7EEA70AF1EEC07AF4EE677AC7
:101FD000F1EE10FA40F0E88167EEC87A9FED9F8A33
:101FE00096ED086AD6ED066A96ED077AB0EE48DA05
:101FF000E7EE86DAA7EEA6DAA7EE878AFEF755BAED
:10200000974B984AB3F904309FED977A82FB0312FD
:10201000DB17C3EBA2031BB208EE103AF8EEC87A46
:1020200027EE878AB0EE480A0AF0E6F9F0EE408A19
:10203000B0EE480A0AF0CCF98C4B1B68DE78002E13
:1020400000F0E580DFF844E28948BEF802C0B0F94C
:1020500002200FFA8CF3D31A44F25062934240F3F9
:102060002581A3F50C43A03B7142994200F33A81CC
:10207000B342A8BF3346BEF80080B0F90000634405
:102080000FFA88F21FFA83FC821A44F250639A42D4
:10209000AEF802C040F31181A2F50C42A03A914281
:1020A00003DCB242A8BF3246114601EB080292B2ED
:1020B00013B207EE903A0FFA8CF3F8EEE77A06EED9
:1020C000903A27EEE87AF8EEE66A60EE277AA0EE1C
:1020D000267A6849AEF80020E8EEA67AB2EE046AE5
:1020E00087EE067AC7EE867ABDEEC77AFDEEE77A0E
:1020F00017EE102A17EE903A0A804B80FEF7D5BCF7
:10210000574A9BF906C0B2F80090B2F902809BF9D9
:102110001400594ACCF1000C10FB09F008FB0CFC30
:1021200082FB009882FB0C92C017C0EB28101211A2
:102130004FEAEC7C1FFA80F8C2EB0C004044CCEB79
:10214000020C0344C4449BB28C44AEF80030AEF899
:1021500002C0FEF7CABD049317F0E2F9D5ED437A49
:1021600020EE270A17F058F9B0F5617FA8BF4FF4A9
:10217000617007EE900A9FED410AF8EEE77A87EE6C
:10218000800A0AF039F907EE906AF8EEE77A27EE4E
:10219000800A17F041F9049B80B21F6835E60C965F
:1021A000FFF7F1B9364991F80418002900F08C8046
:1021B0001846D5F8503695F854160B44B3F5807F81
:1021C000A8BF4FF480738342A8BF0346C5F85036BA
:1021D000FEF70BBEDFED217AFFF721BB1A4A294B30
:1021E00012681E885988ADF84C609B88ADF84E1077
:1021F000D604ADF850304BD4D0F8D831224AD98922
:10220000B2F80680D1E44A464946FFF73FB9184B79
:102210001849B3F90020B3F9023007EE902A06EE10
:10222000903AF8EEE77AF8EEE66A27EEE87A60EEA2
:10223000277AA0EE267AE8EEA67AF2EE046A87EE16
:10224000267AC7EEA67A4FE7982700201C160020B2
:102250000C340020384A0020943400200000000094
:10226000341600206766666635FA8E3C241400201A
:10227000A8140020344A00201F85EB51EFB6B0446B
:10228000C03E0020C43200209C270020A41400205F
:102290009849D0F8D821B1F80680D1890FFA88F290
:1022A0008A42BCBF5B42ADF850307EE4924A934212
:1022B000BCBF03F50C43A033D6E68F4B9A42BCBF9C
:1022C00002F50C42A032EAE6D6F84C0603689B6899
:1022D000984796F84826023A6BE7884B0493D7F85C
:1022E00000B09DE50B46C6E64FF0000B9FED848ADB
:1022F000DFF864A25A46FEF73EB84FF47A73AAF8A4
:102300000030FEF79FBA082283F84826FEF707BE82
:102310004FF0FF310622C5F85836C5F85C1685F82F
:102320004826FDF73CBFB0EE470A0C920B910A908D
:10233000089317F055F90AA807C8089BFEF743B998
:10234000CDF82CC00A910890069217F049F9DDF8F3
:102350002CC00A990898069AF0EE40CAFEF745B8D4
:10236000B0EE670A17F03CF9FFF753BB642193FB0B
:10237000F1F005EB400C6146BCF9E4C0B1F9E610A0
:102380006FF06306CCEB010106FB003301FB03F3A6
:10239000BDF8381093FBF6F3CCEB030313FB01F30A
:1023A00058498B80FEF7F3BA17F01AF9F0EE407A2D
:1023B00012E6B0EE670A17F013F9DCE5B0EE670A33
:1023C000069217F00DF9069AFFF731BA0B46194637
:1023D000FEF7EFBB4C4B4D48B3F8421111F08EFAAB
:1023E000D5F858360133C5F85836FDF7D8BE464BF8
:1023F0004748B3F8401111F081FAF1E7424B4249E6
:1024000093F8DC3743480C2202FB031393F8DE17E2
:1024100011F074FAE4E73C4B3F4893F8021893F844
:10242000032811F06BFADBE73C483D493D4A11F0C7
:1024300065FAD5E73C483D4911F060FAD0E73C48E1
:1024400011F05CFACCE711F069F900283DF4A7AE71
:102450004FF480520923A5F8662685F84836FDF723
:102460009EBE294B334893F87E1193F87F2193F851
:102470007D3111F043FAB3E7D5F860262E4BD7042F
:102480000ED40B22C3F85826AAE72C4B2C481988E7
:1024900011F034FAA4E721692A4811F02FFA9FE7D6
:1024A000194B294893F87A1111F028FA98E7274B2D
:1024B0001B681E0594D5144B2548B3F88211B3F957
:1024C000802111F01BFA8BE72248B5F8641611F051
:1024D00015FA85E7F35C002B7DF461AE00214FF027
:1024E000FF320323C5F85816C5F85C2685F8483630
:1024F000FDF755BE9C270020B0B9FFFF081600204D
:102500000000000090320020C03E00208CDF010857
:102510007CDF010870DF01085CDF010830DF0108A3
:1025200044DF010850DF010810DF010828DF01083F
:10253000F4DE0108C8DF0108B00C0020060400200A
:10254000ACDF01089CDF0108B8DF010898270020F4
:10255000F0DF0108E4DF0108341600202DE9F04F18
:10256000904B91491A68914E2DED048B02F59C43D6
:102570000F7820338BB03360002F00F056848C4BE3
:102580008C4D1B688C4C9A428C4B01938C4B039363
:1025900088BF07F1FF378B4B88BF0F700493019BF7
:1025A000864F1968CB0403D52368D80740F16C85A2
:1025B0002F687C4B1D68BB7A002B40F0F5820A0423
:1025C00048D5D6F89400794A281A002842DB92F8B8
:1025D0009800DFF814E297F80B809EF805C0DFF84A
:1025E0000CE2013000F00F003EF81C7082F89800F9
:1025F00002EB000C05F59C4E0EF1200EBFB2C2F8A6
:1026000094E097FBF8F802F19B078CF89C80AB32C2
:1026100017F8010F034497429BB2F9D11BB2002B6C
:10262000B8BF0F331B11642BA8BF642323EAE373E5
:1026300007EE903A644ADFED656AB8EEE77ADFEDBF
:10264000647AC7EE277A67EEA67AFCEEE77A17EE91
:10265000903A1380C8050AD55E4BDFF894919D42ED
:1026600099F8022000F2D581002A40F0D6815A4B19
:10267000DFF880A10293DFF880B10BF5C470BBF8DE
:102680004E1108F049FB8046002840F08C832568F5
:1026900015F0006504D0039B9B78002B00F0428569
:1026A000029B1B7803F0040303F0FF07002B40F0AC
:1026B0002E814A4B4A4A1B6800211170039A01205F
:1026C00003F57A73C6F8B430D0709070002F40F0E4
:1026D0007E839AF800E09BF8E0713A4A9BF8E1C1EA
:1026E000BBF89891BBF89A51003718BF012702F147
:1026F0000800002332F9021B9B084945C4BF63F060
:102700007F03DBB2A942B8BF43F040038242F1D15C
:1027100096F8BD2025499A4200F09684002281F85F
:10272000BE2086F8BD30214ABEF1000F40F0C880BF
:102730002368DD0740F10D8182F8BFE0B8F1000F9A
:1027400000F0D28496F8BE30184A142B17D19AF8AC
:10275000003063B192F8BD305F2B00F0E98537B1EE
:1027600096F8BD30DFF844807D2B00F01B86029B7D
:102770001B7803F00403DBB2002B00F0F480019B14
:10278000184D1B6803F00403002B40F02481D5F89A
:1027900000A000230AF187070AF1D708236001256A
:1027A0002FE000BFD4490020BC37002024130020B4
:1027B000B8370020B4370020CC150020982700201F
:1027C000020400209C2700204016002000C07F4407
:1027D0000000C842404B4C001E4A0020341B002021
:1027E000394A002018160020043700201437002032
:1027F000C0370020B9040020C03E00200437474500
:1028000014D03A787B7817F8010C9A42F6D2394600
:1028100008F044FA0028F1D017F8022C236805FAD2
:1028200002F20437134347452360EAD1B24B1F78C5
:10283000002F00F035822368980750D4019B1B6855
:10284000DD0548D4AD4DAE4F012009F0E3FD23680E
:102850005A074DD5012009F0DDFD3A88930740F174
:102860008E84A84B90074FF4004114BF59831983FD
:102870002B689B0600F1B68123681F054FF480701A
:102880003BD509F0D7FD9BF80530082B3BD00E2B2C
:1028900039D0019B1B685D050AD59BF82032002BBF
:1028A00043D02368190344D40CF04CFE11F066FAAF
:1028B000012386F888310BB0BDEC048BBDE8F08FA6
:1028C00092F8BE20142A3FF447AF019B8E4D1B683F
:1028D00003F0040358E78D4BDB78002BB2D0874D13
:1028E0002B689807AFD5864F3B88D90740F12484E1
:1028F000022009F08FFD3A88B3E709F08BFD9BF8C1
:102900000530082BC3D1402009F084FDC1E7019BAD
:102910001B68DA063FF5CDAE002D3FF4CAAE039B2F
:102920009B78002B3FF4D5AEC3E6029B1B7858077B
:10293000BAD5774B00223C201A7007F06DFA0028B8
:10294000B6D011F03FFB3C2007F066FA0028F8D122
:10295000AEE7029B1B78590700F1F38392F8BE3073
:10296000142B7FF40CAF96F8BD206A49572A00F06B
:10297000C086019B684D1B6813F0040302D05A2ADD
:1029800000F040855D2A00F0CE865B2A00F01A87B1
:102990005E2A00F02585562A00F0F0879AF800306C
:1029A00033B16F2A01F0058017B17E2A01F0018052
:1029B000972A00F0E987A72A40F0B8865749019B7B
:1029C0000A781B68504D42F0040203F004030A70B9
:1029D000002B3FF4DCAE96F8C2304E49002B00F0DD
:1029E0002183029B1B785B0740F11C83049BB3F996
:1029F0000620BBF898319A4240F31483236813F001
:102A0000010040F01083322281F8C200A1F8C620F4
:102A100009E312B9012289F80220414B99F82150AB
:102A200002931B78206899F82010DFF800A13D4F31
:102A3000DFF8D8800694C3F38003A5F10105B5FA49
:102A400085F56D09002D0593C0F3806314BF4FF029
:102A5000000B4FF0030B0793052900F29683DFE884
:102A600001F067437F3218032F4B1A683B68D28806
:102A7000642101FB02334FF480600022C9F810305A
:102A800089F8202089F8032009F0C4FC99F8201067
:102A9000E2E7002D00F016863B68D9F818209A422C
:102AA00080F073839AF8003023B9069B1B68D9071E
:102AB00000F16B83029A1378052123F0020313704F
:102AC00089F82010C8E7029A137843F002031370C4
:102AD00012F0F0FC3B68D9F81C2004211344C9F81B
:102AE000183089F82010B7E7002D00F0DB830521AE
:102AF00089F82010B0E700BF314A0020C41500203B
:102B0000C8150020000C024018160020C037002015
:102B10005827002024130020982700204C1600205E
:102B20001E4A0020341B0020104A0020B904002057
:102B3000059B002B40F09783079B069C4FF4806019
:102B4000002B40F0968209F065FC0021C9F81010B6
:102B5000BBF1000F3FF48FAD584608F0C3F98AE58A
:102B6000002D00F08482052389F820300123059A86
:102B7000002A00F07382D6F8AC20049CBF49D289A9
:102B8000086822806280A2803968D9F814204088C1
:102B9000E0808A42C0F0C382002B00F0F08798F8F2
:102BA00020104FF0020B57E7013B04983A7B30F8B6
:102BB00013301AB1C3F53B6308339BB21BB2A3F5C4
:102BC0007A73B3F57A7FA8BF4FF47A7323EAE3737D
:102BD00007EE903ADFEDAA6AAA4AB8EEE77ADFED8F
:102BE000AA7A2EE5A94B1B789D071FD5A84B1B7809
:102BF000042B1BD92368A74D13F4007840F0A5835C
:102C000002F0100189B2002940F0A68689465905D4
:102C100000F17A86920600F1AA8696F80421002A2D
:102C200000F09C83B9F1000F0ED126E612F0300FB0
:102C30003FF422AE102009F0EDFB202009F0EAFB62
:102C4000002386F8FD302368934ADFF8788200205D
:102C50004FF0000902F1280702F1500502F1780C4B
:102C600002F17C0E0146C2F800905160C2F8089053
:102C7000C7F800907960C7F80890C5F800906960BF
:102C8000C5F8089028F810102CF810102EF8101025
:102C900014321437143500287FF4EFAD0120E2E739
:102CA0000AF1D605DFF82082DFF80C920AF58F7A58
:102CB00002E0063555452DD02A786B7815F8010CC1
:102CC0009A42F6D2294607F0E9FF0028F1D0287988
:102CD000AB7895F803C000EB400206EB8202013BA3
:102CE000D2F8D01003EB430343448B42E1D099F870
:102CF000FC1082F8CCC04FF0010C0CFA00F0063545
:102D000021EA00015545C2F8D030C2F8D47089F8E4
:102D1000FC10D1D1614A624B6249D2F80080096847
:102D200093F800A0604D9FED589ADFED608A039103
:102D30000027C1462B6883B393F80080B8F1000FD9
:102D40002BD06A68C2EB0902002A0ADB96F8FC1055
:102D50000122BA4021EA020209F5FA7186F8FC2044
:102D60006960BAF1000F18D015F8042C59780432B4
:102D7000D2B2002940F0C1810498BBF8961130F915
:102D8000122001F1C800824240F3928296F8FC20A2
:102D90009B783A41D10740F11A830137042F05F19E
:102DA0000C05C7D147E5019B1B6813F0100F029B70
:102DB00000F06F811F7807F00407FFB23C4B002240
:102DC0001A70039A0023D370002F3FF482AC019B4A
:102DD0001B68DF067FF57DAC2C4B1B7803F01003DE
:102DE00003F0FF05002B7FF474AC9AF800E0314F3C
:102DF000BEF1000F00F0C1849BF8E231B8F1000F82
:102E000040F05E8543B1254AD6F8B83012682A4DA5
:102E10009B1A002BC0F22B86102008F063F80123C8
:102E200086F8BC309AF800E055E4244DDFF89C9019
:102E3000AA4614E0195D2248D9F800309847032CBF
:102E40005AD8DAF8003004F10E0203EB8203D98875
:102E50001A8900283CD106EB44040137A0800FF00A
:102E6000ABFBFCB2844249D2072C2B68E2D9D9F8DB
:102E7000003013482146984780B2ECE7104A002002
:102E800000C07F444016002000007A444C16002009
:102E90004D160020CC1500202C140020341B0020DF
:102EA0002029002048160020F41300200000C8420A
:102EB000394A0020B904002024130020B437002030
:102EC00050270020344A002084BE010868040020F6
:102ED0004FF47A73401A03FB00F0521A40F6C9030C
:102EE00090FBF2F000F57A70984200F3C58040F252
:102EF000EE239842B8BF184680B2ACE7BF4B0193AF
:102F00001B68BF4A42F201041C40B4FA84F464090D
:102F1000D2F80090002C40F0B280BA4B03931946CF
:102F2000B94B4A7896F828700A701F701FB1039B3E
:102F30001F7887F0010796F82A30B44A059319469E
:102F4000B34B049210460A46A3FB02235B0803EB33
:102F50004303CB1ADBB20F210293834686F8291074
:102F60000FF02AFB4FF0000A8245DFF8CC8222DA0C
:102F7000002F00F03D81A7492A6831F81A00D18A54
:102F8000814200F20481128B8242C0F00081A24B88
:102F900009F5967243F82A20002C00F00281ABF864
:102FA00000000FF009FB0AF1010A82450BF1020B48
:102FB00008F10608DCDB96F82930984CA3F10F03E2
:102FC000B3FA83F35B0986F890301BB123685A018A
:102FD00040F18283924A8A4B90681B685168D360A3
:102FE0001B1A039F8B424FF0010088BF00237870AB
:102FF000387088BF82F821308A4F4FF0000905E011
:103000000FF0F2FA27F8020F09F101090FF0D4FAD4
:1030100081455FFA89F0F3DB059B013386F82A309E
:10302000FFF7BDBA2368DF0348D596F8C8207E4B6A
:103030002AB993F8C02012B93222A3F8C62001237E
:1030400086F8C830FFF7A3BB91F8BE20F92A3FF6F7
:1030500068AB013281F8BE20FFF763BB3B6847F2E3
:1030600030530321C9F81C3089F82010F4E42B46B2
:103070007DE509F0DFF968E540F6CA00EBE6624B52
:10308000604A03921F7851E712F014FA3968FFF78B
:103090008FBA1B7803F0040303F0FF07002B3FF403
:1030A0008DAE23681B017FF589AE039B554D9B7840
:1030B000002B40F0DD835D4A137082E696F8C03045
:1030C000594A002B3FF463AB029B1B7803F00403C7
:1030D00003F0FF01002B7FF45AAB012382F8C010EC
:1030E00082F8C130FFF753BB029B1B78D8077FF5EE
:1030F00029AB11F0F3FFFFF725BB012900F0658331
:1031000096F8FC200123BB4001371343042F86F8B7
:10311000FC3005F10C057FF40DAEFFF78CBB4FF0D2
:10312000020B9CE706F0B4FE404B01280CBF187060
:1031300083F80080FFF7B4BA012009F07BF9FFF7AC
:10314000D7BB314B1B78002B3FF419AB344BDB78EA
:10315000002B7FF414AB92F8BF300133DBB2032BAA
:1031600082F8BF307FF6EEAABCF1000F03D1B8F1B0
:10317000000F7FF4E7AA12F09DF9FFF7E3BA0220EF
:1031800009F058F93A88FFF76CBB069CE0E4224A44
:1031900052F82A204A4551D9BBF80000002C7FF490
:1031A000FEAE029B4FEA4A0101EB0A021A4406EB0B
:1031B000420296F8743090853BB9059B022B7FF64E
:1031C000EEAE194B012283F87420B8F800E0B8F88D
:1031D0000220B8F80400164B7244024492B25A52CC
:1031E000144B10B283FB0032A2EBE07080B2D6E643
:1031F0002A68D28A002ACAD13846C8E69827002011
:10320000341B002002040020202900209C270020DD
:10321000ABAAAAAA28130020B0140020CC150020C5
:10322000C03700209A27002024130020394A0020AC
:103230009C13002056555555501300205FFA8AF014
:103240000FF0D2F9BAF1030F0BDCC44B012293F853
:10325000291002FA0AF221EA020280B283F8292038
:103260009AE680B298E6D6F8AC00B6F8B01007F04F
:1032700053FD012800F09C82079B2BB1B84B1B68C3
:103280001B79002B40F08380002D7FF47EAF3B68DC
:10329000D9F810209A42C0F03B82012188F8201012
:1032A000FFF7DABB12F08CFC99F82010FFF7D4BBC3
:1032B000C8398A425FDA96F8FC209B783A41D207F7
:1032C0003FF56BAD5B4208EE103A012007F04EFE71
:1032D00008F1FF33132B3FF613AF01A252F823F08E
:1032E0002F35000803350008D33400088F34000858
:1032F000CF35000875350008153600085D34000824
:103300009B36000847360008713600080131000876
:103310008F340008B33400087535000815360008EE
:103320005D34000811360008E73500083334000822
:10333000029B1B7803F0040303F0FF05002B00F051
:10334000308212F0B7F8FFF70ABAD00640F1C8820F
:1033500096F8041100297FF490AA89460E2007F000
:10336000C1FD012386F804312368B9F1000F7FF411
:103370006BACFFF782BA96F8FC300122BA4023EA20
:10338000020309F5FA7286F8FC306A6005E512F06E
:1033900017FC03214FF47A7389F82010C9F81C3008
:1033A000FFF75ABB029B6F4D1B7803F0040303F039
:1033B000FF09002B00F0468212F07CF82B7803F016
:1033C0000403DBB2002B7FF4DAA9FFF7CCBA08EED6
:1033D000103A002B3FF479AF022007F0C7FD77E7E2
:1033E000022303258BF8DC3709F064F809F02EF985
:1033F000284607F0BBFD019B5B4D1B6803F00403EF
:10340000FFF7C2B991F8C020002A40F0E88291F895
:10341000C23083F0010381F8C230002B40F0D68225
:103420000D2007F05FFD2B684F4D03F00403FFF7FD
:10343000ABB94E4B1B681A78022A00F0E282597D24
:1034400018EE102A0A44C82A1146A8BFC82121EA4A
:10345000E1715975142007F097FC51E6434B1A6847
:103460001178022900F01183917D059318EE103A2E
:103470001944C829A8BFC82121EAE171917511201A
:1034800007F082FC059BB8F1110FD3D138E6039AFF
:1034900018EE103A517919446429A8BF642121EA31
:1034A000E17151710D2007F06FFCB8F10D0F3FF481
:1034B00027AE039A18EE103A11790B44642B194683
:1034C000A8BF642121EAE17111710E2007F05CFCB4
:1034D00016E60398264B90F8038018EE101A414424
:1034E00064298846A8BF4FF0640828EAE87880F885
:1034F0000380196807F058FB4146032007F044FC9D
:10350000FEE5039818EE103A90F801804344642BCE
:103510009846A8BF4FF0640828EAE87880F8018050
:1035200007F09EFB4146022007F02EFCE8E50398D9
:1035300018EE103A90F800804344FA2B9846A8BF42
:103540004FF0FA0828EAE87880F8008007F088FB56
:103550004146012007F018FCD2E500BF24130020EB
:10356000104A00201E4A002018160020D4460020D1
:10357000D0460020C74B1A681178022900F03A8320
:103580009178059318EE103A1944C829A8BFC821AC
:1035900021EAE17191700F2007F0F6FB059BB8F16D
:1035A0000F0F3FF4ADAD1B681A78022A00F00783B5
:1035B000597818EE102A0A44C82A1146A8BFC82113
:1035C00021EAE1715970122007F0DEFB98E5039AB9
:1035D00018EE103A91790B4483F30801917105209C
:1035E00007F0D2FB8CE5AB4B1B681A78022A00F07F
:1035F0002382D97A18EE102A0A44C82A1146A8BF95
:10360000C82121EAE171D972132007F0BDFB77E5EB
:10361000A04BC8E79F4B1A681178022900F072820C
:10362000117B059318EE103A1944C829A8BFC82188
:1036300021EAE1711173102007F0A6FB059BB8F198
:10364000100FD1D15CE5934B1B681A78022A00F069
:103650003882597B18EE102A0A44C82A1146A8BF9E
:10366000C82121EAE17159730A2007F08DFB47E573
:10367000884B1B681A78022A00F06082D97D18EE08
:10368000102A0A44C82A1146A8BFC82121EAE171BC
:10369000D9750B2007F078FB32E57E4B1B681A7852
:1036A000022A00F07182D97818EE102A0A44C82A3A
:1036B0001146A8BFC82121EAE171D970092007F09D
:1036C00063FB1DE57449D9F81C000968069C014498
:1036D000C9F81810FFF73CBA704A6F4BD1681B68E5
:1036E00093605B1AC82B7FF697AC012382F82130D8
:1036F00092E4019B6A4A1B686A4D4FF47A7111800B
:103700001A0600F1AD8003F00403674DFFF73CB8E3
:1037100012F056FA032140F6B83388F82010C8F8A2
:103720001C30FFF799B9002301255BE60023BB2A73
:10373000099300F03481B72A00F03481BE2A00F0EA
:103740004381BD2A7FF41BA84FF6FE71564D2A68AF
:10375000B2F86470B2F8660039440344A2F86630E7
:10376000A2F8641009F02AF9019B1B68002203F0FB
:10377000040386F8BE20FFF707B8B8F1000F3FF446
:103780004BAB96F8BCE0DFF83491BEF1000F3EF48D
:10379000A2AF07F08FFB97F800E089F8BC50FEF766
:1037A0009ABF0B2007F09EFB86F8BE50FEF7D7BFEE
:1037B0003E4B1A683B68D288642101FB0233C9F88A
:1037C000103059E5012302250CE60499987831F967
:1037D0001220B2F5617FC0F2F58040F633039342C8
:1037E000A8BF1346A3F56173B8F10C0F7FF488AC42
:1037F0002F4A4FF4966191FBF0F8117893FBF8F3A0
:103800005FFA83F841453FF47BACB8F1030F8ABF00
:1038100002234346194603EB430326480BEB83037D
:1038200098BF414603F2DE730360117008F0E4FEB6
:103830000C20414607F0A8FA08F10100C0B207F0D9
:1038400095FB5DE40B2007F04DFB2B7888F8BE90CC
:1038500003F00403DBB2002B7EF491AFFFF783B8D3
:1038600005F006FE2B68104D03F00403FEF78CBF35
:10387000094AD6F8B43012689342BFF4A2AA06F0FF
:1038800007FB00287FF49DAA0B4BA8701870FFF768
:1038900098BA00BFD4460020341B0020C037002057
:1038A0001C4A00209827002018160020104A0020EB
:1038B000F046002048160020394A0020241300203A
:1038C000002B40F0958096F8BC30DD4D002B3EF487
:1038D00002AF07F0EFFA002385F8BC30FEF7F9BE1F
:1038E000102008F0A7FD202008F094FDD548011D08
:1038F00005F008FD022386F8FD3096F80431002B10
:1039000054D02368FFF7A0B9CF4FD6F80001B7F91C
:1039100000104089CA4D0029B8BF49428142BFF614
:1039200079A9B7F902100029B8BF494288427FF748
:1039300071A992063FF571A9202008F07BFDC34BC9
:10394000C34A0ACB10461160111D536005F0DAFC22
:10395000012385F8FD30D0E7102008F05BFD4FF023
:10396000010986F8FD802B683A88FFF750B92020BE
:1039700008F050FD002386F8FD30BEE709F01EF880
:1039800096F8BD20FFF70AB8019BB24D1B684FF4B3
:10399000C87203F00403A6F8C420FEF7F5BE19466A
:1039A0000223D3E619464FF6FE73CFE64FF0010926
:1039B000D4E411F093FB019BA64D1B6803F00403B4
:1039C000FEF7E2BE00230FE70221BFE60C2007F05E
:1039D00089FA2B689F4D03F00403FEF7D5BE002043
:1039E000012281F8C00081F8C1209A4DFEF7CCBEBB
:1039F000994A12684FF47A7101FB0323C6F8B83074
:103A000061E7B8EEC80AD3ED0E7A80EE090A30EE0F
:103A1000270AB5EEC00AF1EE10FA30D4B4EE680A07
:103A2000F1EE10FAC8BFB0EE680A83ED0E0A14205A
:103A300007F092F9FFF764BBB8EEC80AD3ED0B7A32
:103A400080EE280A30EE270AB5EEC00AF1EE10FA31
:103A500018D4B4EE680AF1EE10FAC8BFB0EE680AE6
:103A600083ED0B0A132007F077F9FFF749BB11F03C
:103A700021FD85F8BC8097F800E0FEF72CBE9FED95
:103A8000770AD2E79FED750AEAE7B8EEC80AD2EDE9
:103A90000F7A80EE090A30EE270AB5EEC00AF1EE81
:103AA00010FA29D4B4EE680AF1EE10FAC8BFB0EEED
:103AB000680A82ED0F0A1120059307F04DF9059B66
:103AC000E1E4B8EEC80AD3ED0D7A80EE280A30EEB4
:103AD000270AB5EEC00AF1EE10FA10D4B4EE680A67
:103AE000F1EE10FAC8BFB0EE680A83ED0D0A0A20A5
:103AF00007F032F9FFF704BB9FED580AD9E79FEDB5
:103B0000570AF2E7B8EEC80AD2ED0C7A80EE280A1E
:103B100030EE270AB5EEC00AF1EE10FA29D4B4EE61
:103B2000680AF1EE10FAC8BFB0EE680A82ED0C0A1E
:103B30001020059307F010F9059B80E5B8EEC80A40
:103B4000D3ED107A80EE090A30EE270AB5EEC00AEE
:103B5000F1EE10FA10D4B4EE680AF1EE10FAC8BF14
:103B6000B0EE680A83ED100A0B2007F0F5F8FFF7B6
:103B7000C7BA9FED3A0AD9E79FED380AF2E7069CEB
:103B80004FF0020BFEF7E8BFB8EEC80AD3ED0A7A91
:103B900080EE280A30EE270AB5EEC00AF1EE10FAE0
:103BA00044D4B4EE680AF1EE10FAC8BFB0EE680A69
:103BB00083ED0A0A092007F0CFF8FFF7A1BAB8EEA3
:103BC000C80AD3ED087A80EE280A30EE270AB5EE4F
:103BD000C00AF1EE10FA2CD4B4EE680AF1EE10FA35
:103BE000C8BFB0EE680A83ED080A122007F0B4F8E7
:103BF000FFF786BAB8EEC80AD2ED097A80EE280A35
:103C000030EE270AB5EEC00AF1EE10FA14D4B4EE85
:103C1000680AF1EE10FAC8BFB0EE680A82ED090A30
:103C20000F20059307F098F8059BB8E49FED0B0A69
:103C3000BEE79FED0A0AD6E79FED080AEEE700BF50
:103C40002413002068160020903200205016002017
:103C50007016002018160020341B00200000000001
:103C60002DE9F04F9A4B1B788DB07BB9994D9B464F
:103C700095F84A30012B00F02081974B4C359D423E
:103C80000BF1010BF4D10DB0BDE8F08F934E30680D
:103C90000028F8D0924DDFF8809207F0F3F9002861
:103CA000F1D0306807F0EAF9092801461ED03F2814
:103CB0001CD02B688A4A002B74D1042800F0CE81D6
:103CC0000C2800F0CB807F290ED0A1F12002D2B2C7
:103CD0005E2A09D80BB9202906D0824A3068D1540F
:103CE00001332B6007F0D2F93068D6E74FF0000AB5
:103CF0002C687D4FD0462CB17A483968224615F0A1
:103D0000E3F818B9BA46B8F1000F49D010374F455B
:103D1000F1D3B8F1000F00F09980D8F80000DAF87C
:103D20000010035D0A5D9A422044214440F06E81F8
:103D30006C4F04F1FF3EBE4422460BB92D2A3DD9FB
:103D40000EF8013F01322A6010F8013F11F801CF4F
:103D50009C45F2D00AB1C24512D0644810F042FB33
:103D6000C24509D358F8100B10F03CFB306809210C
:103D700007F08CF9D045F5D95D4810F033FB0024ED
:103D80002B68A342B0D95B4F2744306817F8011F56
:103D900007F07CF92B6801349C42F6D330687CE74D
:103DA000B846B3E70C2859D00A290DD00D290BD0FD
:103DB0007F2900F00E812F2B96D886E7511C2020FA
:103DC000B85429607B54C6E7464F4B4810F00AFBB5
:103DD0003846232115F059F8002800F03D81C11B19
:103DE000296089B14B1E3F4AF85C202840F0478289
:103DF0001A4443B112F8011D202903F1FF3035D1D7
:103E00000346002BF6D12B60314A3C4B117800223F
:103E10003A6043F80C2C43F8082C43F8042C43F880
:103E2000042B43F8042B43F8042B43F8042B43F8EA
:103E3000042B43F8042B43F8042B1A6000293FF4A9
:103E400022AF2B4810F0CEFA306826E714B1BAF151
:103E5000000F95D0254810F0C5FA83E7284810F0E8
:103E6000C1FA234810F0BEFA306816E72B60254AE5
:103E70001D4C1268009711460022FA548A462768A2
:103E8000DFF860B0384615F016F83946804602462D
:103E9000584615F019F830B91BF8082052445278EA
:103EA000570700F0C08010344C45E8D3009F1648F7
:103EB00010F098FA00232B60A6E7144E144F2868E0
:103EC0003D603060B146134CDFF850802EE000BFFB
:103ED000314A0020203E0020B83E0020EC46002061
:103EE000803100205031002040C1010830E101083C
:103EF00038E101084F31002048FE01086031002000
:103F000040E101083C0700204CE10108E8460020A0
:103F1000641600201E4A002000C30108BC3E002099
:103F200024284BD023785B0739D5306807F0AAF8EE
:103F3000002800F08280306807F0A0F83A6892F814
:103F400048308246002BEBD0012B3BD0022B4AD0CD
:103F5000032B4FD0042B5BD0052B70D0062BE4D164
:103F600092F8490001F0AEFA002800F09580444C28
:103F700010F07AF83B68002283F84820A378002BE1
:103F80003FF47BAE4C2303FB0BF33E4AD0580CF0BE
:103F9000C5FE0DF063FD08F05BFA05F0F1FCBAF127
:103FA000230FD9F8003000F05881D8F800301B7882
:103FB000534557D03A6892F84830CFE7012382F84A
:103FC0004830B2E74D2814BF0023022382F848305E
:103FD000C4E7013B2C492D4813600022CA5410F05D
:103FE00001FA306859E63C2814BF0023032382F805
:103FF0004830B3E740284FF0000311D80421507136
:1040000090711371D37182F848108EE72246A1E6B1
:10401000937982F8490080EA030A82F806A0052312
:1040200082F8483081E74C45009FBFF440AF08F16B
:1040300001005844E36898473CE7114C9EE7137928
:104040005179994200F21D819379834200F02381D6
:10405000002382F8483068E72968C2E60A480AF077
:1040600079FD10E680216B2003F046FD962006F0D6
:10407000D1FE074B074A1A6072B605F071FC00BF0B
:10408000F8140020203E00205031002068E1010893
:10409000FCFF0120EFBEADDE3B6893F84920233AD8
:1040A000D72A01F2DB81DFE812F0BB09D909B00998
:1040B000D9098509D9095409D9094A09D909F5083D
:1040C000D909C108D9097508D9096A08D909FC07AD
:1040D000D9090F02D909F007D909D909DE07D90989
:1040E000CC07D909D909BF07D90967074407D909F6
:1040F000D909D909D909D9095E04D9098906D90983
:104100000507D909D909D909D909D909D909D90975
:10411000D909D909D909D909D909D909D909D9098F
:10412000D909D909D909D909D909D909D909D9097F
:10413000D909D909D909D909D909D909D909D9096F
:10414000D909D909D909D909D909D909D909D9095F
:10415000D909D909D909D909D909D909D909D9094F
:10416000D909D909D909D909D909D909D909D9093F
:10417000D909D909D909D909D909D909D909D9092F
:10418000D909D909D909D909D909D909D909D9091F
:10419000D909D909D909D909D909D909D909D9090F
:1041A000D909D909D909D909D909D909D909D909FF
:1041B000D909D909D909D909D909D909D909D909EF
:1041C000D909D909D909D909D909D909D909D909DF
:1041D000D909D909D909D909D909D909D909D909CF
:1041E000D909D909D909D909D909D909D909D909BF
:1041F000D909D909C606EB05AB05D9094F05430511
:1042000036059F0493044504310423047503D9093A
:104210005D03D909EA02D909D909D909D909D90906
:10422000D909D909D909D909D909D909D909D9097E
:10423000D909D909D909D909D909D909D909D9096E
:10424000D909CA02D909D909CF010901D909D9095E
:10425000D909D909D909D909FA00B649B64A0B6072
:104260001360B64BB64801221A7010F0BBF8B5487F
:1042700010F0B8F8237843F00203237095E60B465C
:10428000F5E59179D0188AEA010101339171137132
:1042900080F808A049E6062382F8483060E6AA4B79
:1042A0001B785C0701F1DA8008F004F9A74C08F0EC
:1042B000CDF9002001460FF0E7FE59E6DA79A34C6C
:1042C0009918013291F80880DA71B8F1FF0F00F007
:1042D0004981E378984580F02781002001460FF05E
:1042E000D3FE0FF0C1FE3B6818680CF017FD306874
:1042F0000FF068FE06F0DEFD72B6954A94499448C8
:1043000080234FF0400A03AE53834FF00109A1F818
:104310001AA004223146ADF80C308DF80E204FEA79
:10432000C8088DF80F9004F007F831468848ADF8BA
:104330000CA08DF80E908DF80F9003F0FDFF04EBAC
:1043400008031989586801FA09F2D0F800E009FA5F
:1043500002FC09FA01F39BB24CEA0E0EC0F800E031
:1043600003837B4BA3F818A0794B1B691B06FBD476
:10437000DFF8E091CDF800B0AB46254605EB080A22
:10438000D0F800E0BAF808C0DAF80430012404FAE2
:104390000CFC04FA02F242EA0E021FFA8CF40260EC
:1043A0005C836B4B4FF0400C4FF4804E4FF4004257
:1043B000A3F81AC042F20F74A9F818E0A9F81A205D
:1043C00002E0002C40F03981614B1B691A06F8D5D8
:1043D0004FF0010A05EB08020AFA01F189B20183E4
:1043E0005189ADF80C104FF0040E314601928DF852
:1043F0000FA08DF80EE003F09FFF4FF40041A9F8E5
:1044000018105449002C00F05E82514B019A1B6930
:10441000118950681B060AFA01FA4FF040044FF464
:1044200080420FD503691AEA030F494B14BF1C835E
:104430005C83474B14BFA9F81820A9F81A201B6900
:104440001B06EFD44A0099E7D8791A18411C127A52
:10445000C9B20F2AD97166D83F4E3C4C1944C2EB01
:10446000C2023244097A0230D87182F8D010D97968
:1044700058180131007AD97182F8D100D9795818C9
:104480000131007AD97182F8D200D97958180131F6
:10449000007AD97182F8D300D97958180131007A9D
:1044A000D97182F8D400D97958180131007AD971BC
:1044B00082F8D500D979481C1944D8710B7A82F852
:1044C000D6300DF00FFBF4E65979244AA1FB02899E
:1044D000C9EB010209EB52029208C2EBC2028A1A2E
:1044E00012F0FF0F1FD11D4AA2FB0102891A02EB35
:1044F0005102C2F38702002A00F035821849D1F830
:1045000000E0D97958180131047AD97166B2704641
:10451000002190F902C0B44500F0FE850131052963
:1045200000F10800F5D1094C012000210FF0ACFD8D
:10453000BFE600BFE0460020EC460020314A0020E4
:104540006CE1010838E101081E4A0020F81400203F
:1045500000040240000C0240C03E00202549922485
:10456000BC3E002000266022201D3146E67014F07B
:1045700056FC8DF80B609DF80B3094F866209A423B
:1045800053D9DFF8048426469DF80B3004EBC303AF
:1045900093F86930DA073CD59DF80B3006EBC3037E
:1045A00093F8683038F91330002B32DD9DF80B306A
:1045B0009DF80B2096F8039006EBC20206EBC303AE
:1045C000D26EDB6E128958684FEAC90173181FFA60
:1045D00082FE58605A814FF0010C00230CFA03F25E
:1045E00012EA0E0240F0BC800133102BF6D11346C4
:1045F000214404220B8109F10109012303A9ADF82B
:104600000CE08DF80E208DF80F3003F095FE84F845
:1046100003909DF80B3094F866200133DBB28DF8DF
:104620000B309DF80B309A42AED8002001210FF0DC
:104630002BFDE0780FF006FD9AE4013CC4E6DA7940
:10464000CA49CB4C0E68511C53FA81F103EB020EA0
:10465000087A9EF80810023201EB0021DA71A6F800
:104660006610DA79501C991853FA80F0097A007AAA
:10467000023201EB0021DA71A6F8641019E6BB4A98
:104680009FEDBC7A106800F1200400F12C06DA7965
:10469000511C53FA81F103EB020C91F808E09CF8ED
:1046A000081001EB0E2189B207EE901AF8EE677A36
:1046B0000232C7EE877ADA71E4EC017ADA7902F134
:1046C000010E991853FA8EFE097A9EF808E001EB64
:1046D0000E2189B207EE901AF8EE677A0232C7EE21
:1046E000877ADA71B442C4ED027ADA7902F1010E06
:1046F00003EB020153FA8EFE097A9EF808E001EB03
:104700000E2189B207EE901AF8EE677A02F10202E2
:10471000C7EE877ADA71C4ED057AB8D19FED957A44
:1047200000F10E040426082EDA7900F0978099181B
:104730000232097ADA7104F80A1CDA79991802321D
:10474000097ADA712170DA7999180A2E097A02F158
:104750000202DA71A17200F0068101360134E2E74B
:104760009BB245E7DA79844E02F11004E4B2511CA1
:1047700053FA81F103EB020E087A9EF80810023218
:10478000D2B201EB0021A24226F8021FEFD1DA716A
:10479000774C8EE55A790F2A7FF4C5AEDA799818EE
:1047A000511C007AC9B20728D9713FF6BCAE6F4ED2
:1047B0006F4CD6F800C002F1020E194453FA8EFE77
:1047C0000E7A9EF808E0C0EBC0000CEB400006EB50
:1047D0000E260332DA71A0F82561DA7902F1010EB2
:1047E0009E1853FA8EFE367A9EF808E0023206EBE7
:1047F0000E26DA71A0F82761DA7902F1010E9E180F
:1048000053FA8EFE367A9EF808E0023206EB0E2648
:10481000DA71A0F82961DA799E180132367ADA71F4
:1048200080F82B61DA799E180132367ADA7180F8D5
:104830002C61DA7999180132097ADA7180F82D1130
:10484000DA7999180132097ADA7180F82E1100F5B7
:1048500094760FF0D7FBC6F807002AE5511C03EB4E
:10486000020C53FA81F1023291F808E09CF808102A
:10487000DA7101EB0E2189B207EE901AF8EE677A31
:10488000C7EE877AC0ED117ADA79511C53FA81F1BB
:1048900003EB020C91F808E09CF8081001EB0E21E4
:1048A00089B207EE901AF8EE677A0232C7EE877A7D
:1048B000DA71C0ED127ADA7999180232097ADA716E
:1048C00080F84C1049E72D4A40204FF480432C4695
:1048D0005D46DDF800B010830B8362B60A2006F057
:1048E00099FA0FF04BFA3B68F32283F84920E0E491
:1048F000DA791F4C511C53FA81F19E18087A317AEB
:10490000023201EB0021DA712180D2E41C4A1278D4
:1049100002F0040202F0FF042ABBDA791949981860
:104920000132007ADA71022881F8DC0788BF81F849
:10493000DC47B9E4DA79511C1A44D97192F808902D
:104940000FF060FB80460FF05DFB04460FF05AFB52
:104950003A68D37905330646D371B9F1000F25D0F3
:10496000B9F1100F12D0024CA3E400BF18160020BA
:10497000F814002000007A44323100200004024084
:104980001E4A0020C03E00201C160020B14BC3F878
:1049900000805C6008B1B04B1860AE48AF4BB04CC3
:1049A0000222011D1A7004F0ADFC82E4AD4B102010
:1049B000C3F800805C6007F02DFDAB4A137843F02C
:1049C00001031370002ECED0A34BA54C1E6070E4E3
:1049D000A64B1B785A07C6D40EF048FBA04C07F034
:1049E00069FD07F033FE64E4DA79A14E511C9C188E
:1049F00053FA81F1087A217A01EB002080B26FF43A
:104A0000AF640419911CC9B2C62CD97198BFA6F81D
:104A10009601D01C194453FA80F0097A007A954C1B
:104A200001EB0020A6F84001111D501D53FA80F043
:104A300053FA81F190F808E0097A206801EB0E241E
:104A4000A6F84241911DD41D53FA81F153FA84F422
:104A5000097A247A01EB0424A6F8444102F1080102
:104A600002F1090453FA81F153FA84F4097A247AA1
:104A700001EB042402F10A0153FA81F1A6F8DA41AC
:104A800002F10C04097A86F8EF1153FA84F402F16A
:104A90000D01247A86F8F04153FA81F10E32097A39
:104AA000DA7186F88511DA7999180132097ADA71A2
:104AB00086F89211D9794A1C8C1C53FA82F253FA67
:104AC00084F4127A247A02EB042202EB820252006E
:104AD0000331D971A0F86220DA79614C991801325A
:104AE000097ADA7186F87A11DA7999180132097A35
:104AF000DA7186F87E11DA7999180132097ADA7159
:104B000086F87D11DA7999180132097ADA7186F816
:104B10007F11FFF7CEBB554B1B785E073FF523AFE8
:104B2000514A4F4C137843F004031370FFF7C1BB95
:104B30004E4B1B785B073FF516AF4F4B484C4FF47D
:104B4000C8721A80FFF7B5BB5A79092A7FF6EBAC19
:104B5000DA794A4998180968007A0132DA710870DE
:104B6000DA7998180132007ADA714870DA7998188F
:104B70000132007ADA716428A8BF64200871DA79FA
:104B800098180132007ADA716428A8BF642048714D
:104B9000DA7998180132007ADA71FF28A8BFFF206D
:104BA0008871DA7998180132007ADA71642802463D
:104BB00028BF6422CA71DA7998180132007ADA7152
:104BC0008870DA7998180132007ADA71C870DA7967
:104BD000501C53FA80F09E18047A307A023200EBAF
:104BE0000420DA7148815A790A2A7FF6BCAEDA7954
:104BF0001B4C98180132007ADA710872FFF759BB22
:104C00001C4A1268117802297CD002F10A06344647
:104C100002F11400D97903EB010E01319EF808E08E
:104C2000D97102F801EFD97903EB010E01319EF839
:104C300008E0D97104F801EFD97903EB010EB24213
:104C40009EF808E001F10101D97100F801EFE1D10E
:104C500089E600BF7016002078160020211400207D
:104C6000F8140020681600204C1600201E4A002070
:104C7000C03E002018160020E8130020481600202F
:104C8000D979AE4C58184A1C007AD2B2DA71002891
:104C900000F08F80207840F0020020701A4402312A
:104CA000A748127AD97102700FF0ACF9A54EA64C44
:104CB00030600FF0A7F93A687060D37903F1010E04
:104CC000991CD81C52FA8EFE52FA81F152FA80F0E9
:104CD000D6189EF808C0097A007ADFF898E2367A8A
:104CE000043301EB0020D3719EF80010974B984AD3
:104CF00006EB0C261E8041F0020310808EF8003077
:104D0000FFF7D7BA9FED936ADFED936A02F12001B6
:104D100002F12C04B2EE047AD8791E180130367AEA
:104D2000D87107EE906AF8EE677AC7EE877AE1EC01
:104D3000017AD8791E180130367AD87107EE906A58
:104D4000F8EE677AA142C7EE867AC1ED027AD87989
:104D500003EB000600F10100367AD87107EE906A85
:104D6000F8EE677AC7EEA67AC1ED057AD4D102F1E2
:104D70000E010420B2EE047ADC791E19082804F131
:104D80000104367A39D0DC7101F80A6CDC791E191D
:104D90000134367ADC710E70DC791E190A28367AF5
:104DA00004F10104DC718E723FF4DDAD013001319C
:104DB000E2E7207820F0020020706FE7DA79674E92
:104DC000614C99180132097ADA7186F8D811DA79CA
:104DD00099180132097ADA7186F8D911DA79501CFA
:104DE000991853FA80F0097A007A023201EB002117
:104DF000DA71A6F8DA11FFF75CBA07EE906AF8EEFE
:104E0000677ADC71C7EE877AC2ED117ADC791E19F8
:104E10000134367ADC7107EE906AF8EE677AC7EEF5
:104E2000877AC2ED127ADC791E190134367ADC7188
:104E300082F84C60BAE75A795208122A3FF673ABEF
:104E4000104642B393F807C003AE10B26146B046B5
:104E500006EB40094C1C53FA84F403EB010A94F866
:104E600008E09AF8084004EB0E2428F8024B0231BF
:104E7000C845C9B2EED10CEB420C83F807C052B161
:104E8000374B06EB400136F8024B23F8024F8E42B7
:104E9000F9D1122A08D0334A002102EB4003243210
:104EA00023F8021B9342FBD12F4B274C01221A708F
:104EB000FFF7FFB95A792D48A0FB022040081228BD
:104EC0003FF631AB00283FF44EAD244C40F2ED2EBE
:104ED00004EB400040F6CA0611E0B242A8BF3246D9
:104EE0002349A2F2EE2281FB02C1D217C2EBE102FA
:104EF000D2B284F8A321023484423FF434ADDA798B
:104F000099180132097ADA7184F8A211D9794A1C08
:104F100053FA82F203EB010892F808C098F80820CF
:104F200002EB0C2292B202317245D971D5D800221F
:104F3000DFE7054C0123A370FFF7BBB94C16002037
:104F40004D16002050160020F8140020581600209E
:104F50005A1600200000C84200007A44C03E0020DB
:104F6000CA350020CC350020F5370020ABAAAAAA0C
:104F70001F85EB5162160020DA79BF4EBF4C99189D
:104F80000132097ADA7100237171B3600FF03AF8D7
:104F9000B2683B681043B060DA7999180132097A37
:104FA000DA7186F89011DA79501C991853FA80F06A
:104FB000097A007A01EB0020A6F85801911CD01C58
:104FC00053FA81F153FA80F0097A007A01EB00205C
:104FD000A6F85A01111D501D53FA81F153FA80F0C1
:104FE000097A007A01EB0020A6F85C01911DD01D22
:104FF00053FA81F153FA80F0097A007A01EB00202C
:10500000A6F8800102F1080102F1090053FA81F1CA
:1050100053FA80F0097A007A0A3201EB0021DA7142
:10502000A6F88211FFF745B9954A02F10800D9792F
:105030005C180131247AD97102F8014F8242F6D10D
:1050400091E4DA798C4E8D4C99180132097ADA7133
:1050500086F8E211DA7999180132097ADA7186F85C
:10506000E111FFF726B9DA79864899180132097AF1
:10507000DA71036861B1022910DC19700AD1824B20
:10508000824A1A607D4CFFF714B9DA797A4E24E52A
:1050900001221A707C4B7E4A1A6064E402221A7064
:1050A000EDE7D8791918421C097AD2B20B29DA71C6
:1050B0003FF639AA1A44734C167A22680230032E3E
:1050C000D8713FF630AA01EB410102EB410101F139
:1050D000D00281F8DA60D979684C58180131007A29
:1050E000D9715071D97958180131007AD9719071FC
:1050F000D97958180131007AD971D071D9795818F5
:105100000131007AD9711072D97958180131007AB9
:10511000D9715072FFF7CDB80EEBC101881C3FF476
:1051200002AA8C70D879441C53FA84F403EB000C67
:10513000267A9CF80840023004EB0624D8718C8053
:10514000D8791C180130247AD8718C71D8791C1840
:105150000130247AD871CC71D8791C180130247AA6
:10516000D8714C72D8791C18013A247A013012F0A7
:10517000FF02D8710C727FF4C4A9FFF7F4BBDA798F
:105180003D4E3E4C99180132097ADA7186F8921137
:10519000FFF78FB8D97958184A1C007AD2B21F2865
:1051A000DA713FF6C0A95C79082C7FF4BCA91A44D7
:1051B000314E127A314C8C3006EB800E02F03F02F9
:1051C0000331D971AEF80220DA7903EB020C911C9D
:1051D0009CF80820D971BEF80210920102F4FE5228
:1051E0000A43AEF80220DA7999180132097ADA71A5
:1051F0000A0106F82020DA79511C1A44D971117A73
:1052000016F8202001F00F010A4306F82020DA7971
:1052100099180132DA710B7A8EF801300AF010FB1E
:105220000AF062FB0AF03EFBFFF743B8124A02F1B4
:105230004006D979481C53FA80F003EB010E047A3A
:105240009EF80800023100EB0420D971A2F8B002E8
:10525000D97958180131007AD97182F8B202D97916
:1052600058180131007AD971043282F8AF02B24283
:10527000DFD1FFF778BB00BFC03E0020F81400204C
:105280004740002018160020D006002059110108C0
:105290006D0D0108DA79874998180132007ADA71C0
:1052A00081F89001DA79501C9C1853FA80F0247A26
:1052B000067A901C04EB0626D41C53FA84F453FAA5
:1052C00080F0A1F89A61007A267A141D00EB062678
:1052D000501D53FA80F053FA84F4A1F89661067ACF
:1052E000247A901D04EB062453FA80F0A1F898412B
:1052F000007A0732DA7181F891015A79082A7FF62B
:1053000032ABDA796C4C501C53FA80F003EB020E8E
:10531000067A9EF8080000EB0626A1F89E61901C14
:10532000D61C53FA80F053FA86F6007A367A0432A5
:1053300000EB0620DA71A1F8A001FEF7BABFDA7916
:105340005C4E5D4C99180132097A7171DA71FEF781
:10535000B0BFDA79574E584C511C53FA81F103EB28
:10536000020E087A9EF8081001EB0020A6F88001D2
:10537000911CD01C53FA81F153FA80F0097A007A1B
:1053800001EB0021101D53FA80F0A6F88211007A7B
:1053900086F88401511D901D53FA81F153FA80F073
:1053A000097A007A073201EB0021DA71A6F886113A
:1053B000FEF77FBFDA793F4E3F4C511C53FA81F123
:1053C00003EB020E087A9EF8081001EB0020A6F805
:1053D0005801911CD01C53FA81F153FA80F0097ADC
:1053E000007A01EB0020A6F85A01111D501D53FA56
:1053F00081F153FA80F0097A007A063201EB00213C
:10540000DA71A6F85C11FEF754BF2A4E2A4C00232D
:10541000B3600EF0F7FDB3681843B060FEF749BF04
:10542000D8791918421C0E7AD2B2132EDA713FF6CF
:105430007AA82249224C09681A44023092F808E0FE
:10544000D8710022204690F808C0F4450CD00132F3
:10545000222A00F10C00F6D1FFF765B801200021E7
:105460000EF012FEFEF783BD02EB420201EB860650
:1054700014F8222086F88520DA790F4C981801322A
:10548000007ADA7186F88600DA7998180132007AA3
:10549000DA7186F88700DA799818013290F808E016
:1054A000DA7101F1850086F888E00EF01DFDFEF747
:1054B00000BF00BFC03E0020F814002018160020D6
:1054C000F0BE01082DE9F04F2DED048B013885B0B9
:1054D000FD2801F24380DFE810F0430621061106A3
:1054E0000006E0054108410841084108410841081B
:1054F0004108410841084108410841084108410864
:105500004108410841084108410841084108410853
:10551000410841084108410841084108BA054108CD
:10552000AF05410896054108790541086E05410817
:105530003D05410821054108F4044108E9044108FA
:10554000C5044108A8044108DB064108D106C50688
:105550004108B50641084108A606410873064108FE
:10556000410865065306410841082F0741081E07F8
:105570004108F50641084108410841084108410831
:1055800041084108410841084108410841084108D3
:1055900041084108410841084108410841084108C3
:1055A000E1067B0737073B08A3045E0334031703B8
:1055B000F802EA02AD02660246024108D503C903B9
:1055C0008603790379043B04FD01410841089B01EE
:1055D0004108410841084108410841084108410883
:1055E0004108410841084108410841084108410873
:1055F0004108410841084108410841084108410863
:105600004108410841084108410841084108410852
:105610004108410841084108890141084108410801
:105620005901410841084108410841084108410821
:105630004108410841084108410841084108410822
:105640004108410841084108410841084108410812
:105650004108410841084108410841084108410802
:1056600041084108410841084108410841084108F2
:1056700041084108410841084108410841084108E2
:1056800041084108410841084108410841084108D2
:1056900041084108410841084108410841084108C2
:1056A00041084108410841084108410841084108B2
:1056B00041084108410841083C01150141084108E1
:1056C0004108410841084108410841084108410892
:1056D00041084108FE0000200821CF4C0EF0D4FC08
:1056E00004F1080634F8025BE8B20EF0ABFC280ABD
:1056F0000EF0A8FCB442F5D1012005B0BDEC048B3E
:10570000BDE8F08F00207021C44C0EF0BDFC04F108
:10571000700594F8D0000EF095FC94F8D1000EF0CE
:1057200091FC94F8D2000EF08DFC94F8D3000EF0AA
:1057300089FC94F8D4000EF085FC94F8D5000EF0A6
:1057400081FC073494F8CF000EF07CFCAC42E0D131
:10575000D2E7B34C042100200EF096FCA36DB3F801
:105760006650E8B20EF06EFC280A0EF06BFCA36DDA
:10577000B3F86440E0B20EF065FC200A0EF062FC63
:10578000012005B0BDEC048BBDE8F08FA44E96F867
:10579000BC1089000131C9B200200EF075FC96F8EA
:1057A000BC000EF04FFC96F8BC30002BA4D006F1E4
:1057B000BF0906F1CF0806F1DF0706F1EF05002467
:1057C00019F8010F0EF03EFC18F8010F0EF03AFC2C
:1057D00017F8010F0EF036FC15F8010F0EF032FC31
:1057E00096F8BC300134A342EAD885E70C210020AA
:1057F0000EF04AFC8B4B18680EF06AFC8A4B186856
:105800000EF066FC894B18680EF062FC012074E70C
:1058100000203C210EF038FC814E9FED858A00244B
:10582000B36D03EB840393ED080A20EE080A13F02E
:10583000F3FD0546C0B20EF005FCC5F307200EF0DF
:1058400001FCB36D03EB840393ED0B0A20EE080A11
:1058500013F0E2FD0546C0B20EF0F4FBC5F30720DD
:105860000EF0F0FBB36D03EB840393ED0E0A20EE14
:10587000080A13F0D1FD0546C0B20EF0E3FB013477
:10588000C5F307200EF0DEFB032CC9D104259FEDE4
:10589000688A01E001340135072CB36D00F01D87E3
:1058A000234458780EF0CEFB00200EF0CBFBB36DF6
:1058B0002344D87A0EF0C6FB00200EF0C3FBB36D74
:1058C0002344587D0EF0BEFB00200EF0BBFB0A2DDA
:1058D000E0D111E7002070210EF0D6FB504E0025DC
:1058E000C5EBC504B36D640023440135B3F82571DD
:1058F000F8B20EF0A7FB380A0EF0A4FBB36D2344F8
:10590000B3F82771F8B20EF09DFB380A0EF09AFB3F
:10591000B36D2344B3F82971F8B20EF093FB380A43
:105920000EF090FBB36D234493F82B010EF08AFB2D
:10593000B36D234493F82C010EF084FBB36D234424
:1059400093F82D010EF07EFBB36D234493F82E01E6
:105950000EF078FBB36D1C44D4F82F010EF0B8FBA9
:10596000082DBDD1C8E62E4E00201E210EF08CFB66
:10597000B36D1A78022A00F038860024354600E01C
:10598000AB6D234458780EF05DFBB36D2344D87A99
:105990000EF058FBB36D23440134587D0EF052FBDA
:1059A0000A2CEDD1A8E61E4E0B2100200EF06CFB58
:1059B000D6F8883018780EF045FBD6F8883058783D
:1059C0000EF040FB0025D6F88830154C2B440135ED
:1059D00018790EF037FB032DF5D1D4F88830D8793B
:1059E0000EF030FBD4F8883098780EF02BFBD4F80A
:1059F0008830D8780EF026FBD4F888305D89E8B27C
:105A00000EF020FB280A0EF01DFBD4F88830187A1F
:105A10000EF018FB012070E6C0160020C03E0020EA
:105A2000C0150020107AFF1F147AFF1F187AFF1F7D
:105A300000007A44072100200EF026FBCF4BD04E09
:105A40001888FF28A8BFFF20C0B20EF0FBFAF56F40
:105A50004FF6FF74A542A8BF254625EAE575E8B2D2
:105A60000EF0F0FAC5F307200EF0ECFAB6F880500D
:105A7000E8B20EF0E7FA280A0EF0E4FAC14B93F808
:105A80008531002B00F0A985D6F8843003EB830321
:105A90005B009C42A8BF1C4624EAE474E0B20EF00E
:105AA000D1FAC4F307200EF0CDFA012025E600203C
:105AB00006210EF0E9FA00200EF00AFB00200EF09D
:105AC000C1FA00200EF0BEFA16E6AD4C0621002009
:105AD0000EF0DAFAB4F87450E8B20EF0B3FA280A0D
