:020000040800F2
:1000000000040020F9250108D3960008910F01088B
:100010007126010871260108712601080000000000
:10002000000000000000000000000000D196000861
:10003000CF96000800000000CD960008C783000896
:100040007126010871260108712601087126010830
:100050007126010871260108712601087126010820
:100060007126010871260108712601087126010810
:100070007126010871260108B5D80008712601080B
:1000800071260108712601087126010871260108F0
:10009000712601087126010871260108D583000820
:1000A000756D000871260108712601087126010886
:1000B000F9D50008EBD50008712601088F3B000830
:1000C000933B0008893B00088D3B0008712601081E
:1000D000712601084DD9000871260108ADD8000825
:1000E000DB83000871260108D596000871260108F7
:1000F000856D000871260108956D000871260108BC
:100100007126010871260108A56D000871260108F5
:10011000712601087126010871260108712601085F
:10012000712601087126010871260108712601084F
:10013000712601087126010871260108712601083F
:10014000712601087126010871260108FD91000839
:100150007126010829D8000855D900081FD80008C1
:10016000712601087126010871260108712601080F
:1001700071260108712601087126010871260108FF
:1001800071260108712601082DE9F04F9D4C237856
:100190000A2B9CBF9C4A34212DED108B98BF01FB8C
:1001A000032391B094BF9D6A0025984E984FF36841
:1001B0000AA898479DF8283023B123780A2B0CD938
:1001C00000230FE008F0CEF8924B1B68EB1A18449E
:1001D0003B6864339842E8D3EFE78B4A342101FB54
:1001E00003239B6A8C4CD7ED007AD4ED016A8B4ACD
:1001F000DFED8BAA8B48884DF5EE406A9BB2F1EE9D
:1002000010FA1380B8EE677A07EE903A04BF864B77
:10021000636027EE2A7A94ED016A844AD4ED006A7D
:1002200082ED007A37EE066AF8EE677A87EE067A94
:1002300077EEE67AE7EE276AFCEEE67AC4ED006A2E
:1002400017EE903AA3817368764E984740B9784F7D
:10025000784D3B6813F0020F40F0F48000F03BBC97
:1002600030463146AA7B07F0A5FA95F80F80B8F121
:10027000000F2CD02B7C93B93A6842B36B6165694F
:10028000654F022D08DC40460AF05FFD07EB850351
:10029000013598617D61F2E701233B7417E000238B
:1002A0006B6165695C4F022D11DC36F9153000EE8B
:1002B000103A07EB8503B8EEC00A98690AF01CFDF6
:1002C00014F00AFB26F8150001357D61E9E75A4F65
:1002D000DFF86C913B88002B6CD0636A1B7808EECA
:1002E000103AA9F14808A9F13C054FF0000A3988F5
:1002F000B1F57A7F02BF0023C8F800302B61D8F82F
:10030000002036F91A301A4407EE903A2B69C8F8E3
:1003100000200133012B4FEA4A0BF8EEE77A2B61FC
:1003200006D10023C5ED017AC5ED007AAB601BE074
:10033000D5ED006A07EE103A37EEE66AB8EEC77AF6
:1003400086EE077A36EE877AD5ED026A85ED017A78
:1003500077EEC77A85ED007AE6EE276AF0EE667AE8
:10036000C5ED036AC5ED026A0023012926F80B30AA
:1003700029F80B302AD12B69012BC3BF03F1FF33BE
:1003800000EE103AD5ED037A9FED2C0AC4BFB8EE0B
:10039000C00A87EE800A14F025FD18EE103A5BB112
:1003A000F8EEC87AB4EEE70AF1EE10FA04DD4FF485
:1003B0007A733B8000231AE0D8F800304FF47A7249
:1003C00003F5FA7393FBF2F329F80B300AF1010AF3
:1003D000BAF1030F08F1040805F1140587D1388834
:1003E000012801D108F01AF83B88013BE1E736F813
:1003F000132039F81310521A26F813200133032B57
:10040000F5D124E775070020C4040020EC28002063
:10041000B03D0020E02700201C0A0020B00E002084
:10042000BD378635E80E002083F9223E0C290020D6
:10043000B40E0020EC3D0020263E0020000000000D
:100440008C0A0020DB4B1B78002B00F0448307F064
:1004500089FFA36FD4F87CA0A067C31AD64A9AF884
:1004600000000FEE903A00234FEA430EDFF884932A
:1004700098B335F91310D2ED017A06EE901AB8EE62
:100480006F7AF5EE407AF1EE10FAF8EEE66A27EEB2
:100490002A7A0DD107EE900A9FEDC86AF8EEE77A46
:1004A00027EE866AF7EE007AC7EE867AC2ED017A09
:1004B00092ED016AD2ED007A37EE066A76EEE76ACF
:1004C00087EE067AE7EE267AC2ED007AFDEEE77A4D
:1004D00017EE901A29F80E1003E035F8131029F8DA
:1004E00013100133032B02F10C02BDD13B68B44A57
:1004F00013F0080F08D0B2F9001029B1B2F90210B8
:1005000011B1B2F9041091BBAE49097801F01000A5
:1005100000F0FF0580B313F020052DD001F0020399
:1005200003F0FF0543B3A84B1B78042B23D9A74B3B
:100530001B88B3F5967F1ED3A54BB3F9043007EEA5
:10054000903AA44B1B88B8EEE77A07EE903AF8EEA3
:10055000E77AB2EE048A87EE888A01254FF0000B15
:1005600077EE487A9FED9C8A27EE888A07E000257F
:100570004FF0010B01E00025AB469FED988AB6F9DC
:100580000030B2F80080978808EE903AB6F9023051
:10059000F8EE6F7A09EE903A67EEAAAAF8EEE99AB9
:1005A000D4ED297AB6F90430568869EEA79AF8EEA8
:1005B000E88A09EE103A68EEA78A29EEA90AB9F985
:1005C0000030B8EEC99AA8EEA80A0CEE103AB9F9B4
:1005D000023029EE279A0CEE903AB9F90430A9EED0
:1005E000090A0DEE103A14F0FDFBB8EECCCAF8EE95
:1005F000ECCAB8EECDDAB0EE40EA15B3DFED787AAA
:10060000B4EEE78AF1EE10FA04DDDFED6C7A38EE35
:10061000678AF3E7DFED737AB4EEE78AF1EE10FA5A
:1006200004D5DFED667A38EE278AF3E7B6EE000AE6
:1006300028EE000A0AF089FD9FED68BA30EE0BBA89
:1006400001E09FED66BA9FED65AADFED67DA674DC1
:10065000F7EE00BABBF1000F53D00FFA88F807EE9F
:10066000908A33B2B8EEE7FA08EE103A2FEE0F0A8E
:10067000B8EEC88A3FB207EE907AA8EE080AF8EE04
:10068000E7EAAEEEAE0AB4EEED0AF1EE10FA38DDAE
:1006900014F0A8FB8BEE800AD5ED017A95ED007A77
:1006A00028EE008A2FEE00FA68EE277A6EEE80EAD6
:1006B000E7EE0F7A95ED040A95ED027A28EE008AAE
:1006C000E7EE2E7A95ED037AA7EE0F8A95ED057A7F
:1006D000A7EE2E8A28EE080AA7EEA70A14F082FBDE
:1006E000D5ED067A20EE480AB0EE4A8AA7EE808A57
:1006F000D5ED077AA7EE80AAD5ED087AA7EE80BAE5
:1007000001E0B0EE4A8A2CEEAC0AACEE0C0AADEE7B
:100710000D0AB4EEED0AF1EE10FA21DD14F062FBE1
:100720008BEE800AD5ED076A95ED087A2DEE00DA9A
:100730006CEE80CA66EECD7A2CEE00CAECEE877ABB
:1007400027EE4C7A38EE278AD5ED067AADEE277A79
:1007500067EEEC7A3AEE07AAECEE267A3BEE27BA81
:10076000DAED017AF5EEC07AF1EE10FA4FF00003FF
:1007700042DD9FED1F7AB4EEC7EAF1EE10FA41D5E3
:1007800067EE886A94ED2A7AA6EEAA7A67EE8A6AFC
:1007900084ED2A7A94ED2B7AA6EEAA7A67EE8B7A0C
:1007A00084ED2B7A94ED2C7AA7EEAA7A84ED2C7A3C
:1007B00028E000BF1C3E00209C0A0020DB0FC9403F
:1007C000A00F0020280F0020290F0020360F002046
:1007D000060F0020380F002035FA8E3C0000000084
:1007E000DB0F4940DB0F49C00AD7233C2C2A0020ED
:1007F000C2B8B23EE20E0020C4F8A830C4F8AC3053
:10080000C4F8B030D04EDAED027A337859070CD400
:10081000CE4B1A6844F61F639A42F7EE006AB2EEB6
:10082000047A88BFB0EE667A01E0B7EE007A27EE70
:10083000877AD4ED2A7ADFF85083C54AD8ED005A7A
:10084000DFF848B392ED005AC24F0492E7EE087AFF
:1008500097ED006A9FEDC08A78EEA78AD4ED2B7AD7
:10086000E7EE0A7A79EEA79AD4ED2C7AE7EE0B7AC6
:10087000B1EE467A39EE279AF6EE007A6AEEA77A5A
:1008800069EEA79A29EE279A69EEE56A25EE890AAC
:1008900068EEA78ADBED007AA5EE280AE7EEE86AA3
:1008A000A7EE290AE7EE096A29EE677A37EE800A91
:1008B000A5EE297A67EEA97A75EE266AA6EE287A61
:1008C000E5EE097A8BED000A20EE000A35EE877A14
:1008D000A6EEA60AE5EEE87AA7EE070A76EE277AF4
:1008E000C2ED006AA7EEA70A88ED007AC7ED007A8C
:1008F00014F078FA8BEE800A049AD2ED007AD7EDE4
:1009000000BA67EE807AC2ED007ADBED007A67EE1E
:10091000807ACBED007AD8ED007A67EE807A2BEE04
:10092000800AC8ED007A87ED000A0FF0B5FDD5ED1D
:10093000080A95ED070A894F14F0B0F820EE080A6E
:1009400013F0CAFF95ED060A3880B1EE400A14F0A4
:1009500047F8DFED837A37EEC00A20EE080A13F07D
:10096000BBFFD5ED000A95ED030A788014F096F8E8
:10097000D4ED2D7AE0EE487AB0EE670A13F0ACFFC2
:1009800083B21A0458BFBB80D5ED085A754BD4ED1D
:100990002E7A1A7895ED010A95ED065AF4EEE75A8B
:1009A00044BF00F56160B880F1EE10FACCBF42F0B0
:1009B000080222F008021A70B9F90030D5ED007A69
:1009C00006EE103AB9F9023007EE103AB8EEC77ADF
:1009D000B8EEC66AB9F9043027EE000A06EE903A7E
:1009E000A7EE860A9AF80130F8EEE66AD5ED027AAB
:1009F000A7EEA60A012BD5ED077A67EE277AE5EE7A
:100A0000067AE5EEA67AD5ED045A27EE257AD5EDDD
:100A1000035AA5EE867A95ED056AA6EE267AF1EEE2
:100A2000478A18D1337859070FD4D4F8BC30402204
:100A300093FBF2F29B1A07EE103AB8EEC77A37EE44
:100A4000277ABDEEC77A84ED2F7AD4F8BC304022E5
:100A500093FBF2F301E0444B1B8894ED308A434D45
:100A600007EE103AB8EEC77A77EEC77A94ED317A8E
:100A70003AEE877A77EEC87ACAEE87AAAAEEA78AF4
:100A800084ED308A13F028FFD4F8C86031780AF07A
:100A90004DFB2B68B0EE680A1844286013F01CFF69
:100AA00031780AF043FB6B68B0EE480A184468607E
:100AB00013F012FF71780AF039FBAB682C4A184426
:100AC0001FEE901A1368A86019441160294A136830
:100AD0000133136003E000232B806B80AB80264B37
:100AE000B3F90620254B1B6859898A420EDBB2F503
:100AF000FA6FD879BDBF531A4343A1F5FA60C0F12C
:100B00006400BCBF93FBF0F0643000E064201C4B39
:100B10001C49B3F824E193F9EE30096806919BB2C1
:100B200009930021144B33F91180CEEB080303F233
:100B3000F31640F2E635AE424FEA410C28D8002BBE
:100B4000B8BF5B4226E000BF283E0020582E0020A0
:100B500008070020282A00204C3D0F44060F0020E3
:100B6000DB0FC93F280F002008040020FC270020CD
:100B70003C3E0020F8270020AC3A0020200F002047
:100B80000C350020240F0020242A0020202A0020D9
:100B90004FF4FA73022904934FF06406069BC74D85
:100BA00026D093F811712FB1049BBB42CCBFDB1B45
:100BB00000230493049BDFF838B393FBF6F76FF040
:100BC000630A3BF817900AFB073301370FFA89FADB
:100BD0003BF91770CAEB070A0AFB03F393FBF6F61F
:100BE000B74B4E44F04525F80C6058542ADB2FE0F3
:100BF00093F812712FB1049BBB42CCBFDB1B0023C7
:100C00000493B04F049B93FBF6F907EB490A07EBFB
:100C10004907BAF9CCA0B7F9CE706FF0630B0BFBA4
:100C20000933CAEB07077B4393FBFBFBBDF824307A
:100C3000CAEB0B0A1AFB03FAA14BA5F804A0F04576
:100C40009E7009DA9D4E3CF806305B422CF8063067
:100C5000013103297FF466AF9B4EB6F826118A4214
:100C600005DBB2F5FA6FA8BF4FF4FA6200E00A465E
:100C7000DFF880C2914F521A4FF47A736FF0630E0F
:100C80005A43C1F5FA616423B2FBF1F292FBF3F12E
:100C90003CF811000EFB012201310FFA80FE3CF9F5
:100CA0001110CEEB01014A4392FBF3F30344EB80B6
:100CB000864B1B885A0639D5854BDFED867AB3F90A
:100CC00004300A2293FBF2F3B4F8DA209B1A1BB229
:100CD00008EE103AB8EEC88A28EE278AB0EE480A25
:100CE0000AF094FAF0EE408AB0EE480A0AF02DFAC3
:100CF000B7F9023006EE903AB7F90030F8EEE66A3E
:100D000007EE903A20EE667AF8EEE77AA7EEA87A38
:100D100067EE807ABDEEC77AE6EEA87A17EE103A53
:100D2000FDEEE77A3B8017EE903A7B8096F82A3109
:100D3000002B52D0634B9A89B3F8DC00B0FBF2F081
:100D4000654A441C1278A4B2A3F8DE4012B3B3F88B
:100D5000E09000215B4F35F811C007F1EA0E07F172
:100D6000E2083EF8113038F811202EF811C0C3EB1C
:100D70000C0A12FB09F223B292FBF3F3534428F856
:100D8000113001310429E5D1534BA7F8E0000022CE
:100D90001A7004E0B3F8E020013AA3F8E020494AD1
:100DA000B2F8E00003B2002B4FF0000313DDB2F9FC
:100DB000DE404A4931F81320083112FB00F231F8C5
:100DC000131092FBF4F28A1A3C4921F813200133E4
:100DD000042BEED101E0A2F8E03096F82B010028B8
:100DE00061D03A4B1B885B065DD410F053FD41EC9B
:100DF000100B41EC180B314C394D13F089FCB4F950
:100E000000005BEC10AB10F055FDB0EE480AF0EEC0
:100E1000680A06460F4613F0CFFCB4F904008DEDC6
:100E2000040B10F047FD3246804689463B4650464B
:100E3000594610F0A5FD42464B46CDE90601DDE9D5
:100E4000040110F09DFD02460B46DDE9060110F09D
:100E5000E5FB10F0A7FFB0F5FA7FA8BF4FF4FA70DA
:100E6000A842B8BF284642464B46208059465046C5
:100E700010F086FD3246804689463B46DDE9040196
:100E800010F07EFD02460B464046494610F0C6FB78
:100E900010F088FFB0F5FA7FA8BF4FF4FA70A842AF
:100EA000B8BF2846A0800F4C0F4D237813F0040FD5
:100EB00022D00E4B40225A8359E000BF84280020E4
:100EC0008C2800201C0A00200C350020B80E0020C1
:100ED000060F002035FA8E3CEC0D0020FE0A0020A3
:100EE0000CFEFFFF283E0020B40E0020000402404C
:100EF000421400202A140020A74A1268D7075CBFBA
:100F000043F001032370A54BA54A1B781E075EBF63
:100F1000237823F0010323702B6813F0040F02D011
:100F2000A049098871B9A049098809B1980709D46D
:100F30009E4B1B88003318BF01231BB99C490988AD
:100F4000642906D902231370237823F00103237048
:100F500004E02178C90758BF0223137007F002FA92
:100F6000944B1B68C01A002801DB10F07FF9924BEC
:100F70009B680BB191489847914B924EDFF8908255
:100F8000012018702B6813F0140F73D08E4B1B8840
:100F900003F40273002B6DD0804B8C491B7803F057
:100FA000100303F0FF0E4BB1894B98F97621B3F98A
:100FB00000004B8800FB02334B805BE0D6F8F42046
:100FC000844BD778DFF84CC2927827B3BCF9007015
:100FD000B3F906C0C7EB0C0989EAE973A3EBE9731F
:100FE00093420BDD7C4B86F8F800BC45C3F800E06B
:100FF000C8BF5242CB8892B21A443AE096F8F83011
:101000002BB1764B86F8F8E01A68754B1A60704B76
:101010001B683B4423E0BCF900E0B3F90630CEEB9B
:10102000030383EAE37CACEBE37C944509DD022215
:1010300093FBF2F36B4A86F8F80013606A4B187062
:101040000AE096F8F8303BB1644B86F8F8701A68FD
:10105000634B1A60644B1F705D4B1B687344D6F87A
:10106000FC0002884088934203DB8342A8BF03460A
:101070001A46CA805D4B1B784BB1564BB3F906201C
:10108000B8F826319A42DEBF504B00229A80584F62
:1010900004973B6893F81891B9F1000F33D04A4B8D
:1010A0001B889F072FD0534BDFED537A93ED080A2F
:1010B000B4EEE70AF1EE10FA20D913F091FCD6ED68
:1010C000407A20EE270A13F007FCB0F5617FA8BF35
:1010D0004FF4617007EE900AB8EEE70ADFED477A49
:1010E00080EE270A0AF031F807EE909AF8EEE77AD8
:1010F00027EE800A13F0F0FB80B200E00020334AB4
:10110000D3881844D0802B68980640F1E3802E4B9A
:101110001B8803F03003002B00F0DC801F4B1B7892
:10112000D90740F1D780364BDFED367AB3F904307A
:10113000DFF8E4900A2293FBF2F308EE103AB8EEDF
:10114000C88A28EE278AB0EE480A09F0FEFFF0EEC2
:10115000408AB0EE480A0AF059F82B4B2B4A1B681C
:10116000DF78B0EE409AB2EE048A002F00F08E8055
:10117000DFF8A8B0B2F90200BBF8025006922BB219
:10118000C01A05F045FB7B429842069A48DBB842FC
:10119000A8BF384645E000BFBC0E0020280F002045
:1011A000E43D00203A3E00201C0D0020263E002099
:1011B00088260020E83D0020EC2800200E0B0020AF
:1011C000ED0D00201C0A0020B80E0020842800200D
:1011D00020280020AC3A00201C2800200C0F002002
:1011E000500F0020403E0020242800200204002050
:1011F000240F00202C2A00208FC2753CEFB6B0448B
:10120000060F002035FA8E3C640D0020E80D00200A
:101210000C350020EE0D0020443E0020E40D00209F
:1012200018462844BBF8005006931FFA80FAB2F91A
:101230000000ABF802A02AB2801A05F0E9FA069B7A
:10124000984203DBB8420346A8BF3B461D44ADB2FB
:10125000ABF800502DB207EE105A0FFA8AF307EEE2
:10126000903AB8EEC70AF8EEE77A28EEC07A20EE98
:10127000090AA7EE897AA7EEA80A87EE087ABDEEDA
:10128000C77A17EE103AA9F800301BE0B2F9023025
:1012900007EE103AB2F9003000EE103AB8EEC00A8C
:1012A000B8EEC77A68EEC07A20EE090AE7EE097A4E
:1012B000A7EE280AC7EE887AFDEEE77A17EE903A95
:1012C000A9F8003080EE080AFDEEC07A17EE903AD9
:1012D000A9F80230C54B1B784BB1C54B00221A60F0
:1012E0005A609A60C34B00221A605A609A60049B4D
:1012F000B8F8FA201868C04B0093C04B1D68C04B6B
:10130000196800F15803A847BE4B1D78BE4B032D4A
:1013100019D9D6F804215788B7F5FA7F13D2BB4AFA
:10132000B3F904E0B2F9040080EAE07CACEBE07CC5
:101330007942CCEB0102964504DB07EB0C027245C7
:10134000A8BF72469A80B24A17683A0105D4B14ADA
:10135000116841F21D020A4062B10021B3F800E0B9
:10136000B3F802C0B3F90480D6F804A1AA4A0B4628
:101370000846B2E0A949D6F804910A70A349B3F827
:1013800000E0C888B3F802C0B3F90460A449AA42D7
:1013900080F0238199F90030DFF890825B4273433B
:1013A00017F0805F07EE903A29D00FFA8CF306EE23
:1013B000903A03B206EE103A0FFA8EF3B8EEE77ADF
:1013C00007EE903ADFED975AF8EEE66AF8EEE77A24
:1013D00076EEA56A77EEA57AD1ED005AB8EEC66A28
:1013E00067EEA57A51ED015AE6EE257A91ED016A94
:1013F000E6EE867AD1ED026AE7EE267A24E00FFA6D
:101400008EF306EE903A03B206EE103A0FFA8CF322
:1014100007EE103AD1ED015AB8EEC77AB8EEC66AB7
:1014200027EE257A51ED015AA6EE257AF8EEE66A06
:1014300091ED006AA6EE867AF8EEE77AD1ED026ABF
:10144000A7EEA67AF0EE477AFDEEE77A103117EEB6
:10145000903A28F81230013299E79AF90060764202
:1014600008FB06F607EE906A17F0805F0DF1280979
:10147000F8EEE77A34D00FFA8EF606EE906A0FFA9D
:101480008CF607EE106A9FED676AF8EEE66AB8EE32
:10149000C77A76EE866A37EE067A92ED026A27EE12
:1014A000067A92ED016AA6EE867A0FFA83FBD2EDF8
:1014B000036AA7EEA67AFDEEC77A17EE906A29F8BE
:1014C00010600AAE36F810600FFA86F9D9451ADDB9
:1014D00033460E46013010323146A842BDD318E0E3
:1014E0000FFA8CF606EE906A0FFA8EF607EE106A87
:1014F00092ED016AB8EEC77AF8EEE66A27EE067A50
:1015000092ED026ACFE70FFA81FBD945E2DB1E4676
:10151000DEE7454A41481268578816885B1AB91BAE
:1015200089B20AB21BB293424FF0000214DD4FF0B1
:10153000010E80F800E0AA420BD20DF1280E3EF811
:10154000120010FB01F090FBF3F02EF812000132B4
:10155000F1E7B6B2BBB207E00270022193FBF1F3F0
:10156000F218FB1A96B29BB2284AD0880021A942F1
:1015700033D20AAA32F9112007EE902A02B206EEFF
:10158000902A254A02EB0112B8EEE77AF8EEE66AF5
:10159000D2ED007A32B266EEA76A07EE902AF8EE34
:1015A000E77AF4EEE76AF1EE10FA0BD41AB207EE1E
:1015B000902AF8EEE77AF4EEE76AF1EE10FAD8BF77
:1015C000F0EE667A77EE277A184FFDEEE77A17EE9F
:1015D000902A27F811200131C9E72278094E02F03C
:1015E000040202F0FF031ABB327875E00404002005
:1015F00090280020E028002022360020BC04002093
:10160000200F00204C290020B4280020842800202E
:10161000BC0E0020A83A0020240B0020483E0020E9
:10162000280B0020000000001C2A0020EE0E0020E5
:10163000AE4BAF4DDB780493AE4B186810F00060F2
:101640001DD12A6841F21D031340B3B9AA4A377865
:1016500013880124BC4219B207D232F914309942DE
:10166000B8BF19468BB20134F4E7A44A1268528815
:10167000914204DD9A1A92B202E0024600E0002292
:101680009F492B68B1F906409E4996F800C0D1F8F1
:10169000C8719D4941F21D0E0D68984903EA0E0E6E
:1016A00003F4805803F0100B934B096803EB4C0CC8
:1016B00063450AD0002840F00782BEF1000F40F0D9
:1016C000DF811E88B61A1E80DAE18E4C94F8CC3188
:1016D00063B10EF049FE09E09342F6D28B4931F82E
:1016E0001300854921F813000133F5E7884B18787A
:1016F000002840F00C827E4D2B681E0340F10782CB
:1017000094F8CD31023B052B20D8824B93F850350D
:1017100033B1012B0AD105F0A7F9C0F17F0005E034
:10172000784BD3F8D00103689B689847D4F8D4313C
:1017300094F8D8211344B3F5807FA8BF4FF4807389
:101740008342D4BFC4F8D431C4F8D40194F8CD3165
:10175000023B082B00F28C81DFE813F009003F0008
:10176000610077009000A20050016E017B016A4B7E
:101770001A68D4F8E03164339A4240F2798140200B
:101780000CF04AFC002840F073814027634BD4F8EA
:10179000DC215C4E985C1D4670B103F067FFD6F803
:1017A000D431013BC6F8D431D6F8DC31013F03F126
:1017B0000103C6F8DC31E9D1D4F8DC21514BAA5C35
:1017C000002A40F05581C3F8DC214FF0FF32C3F806
:1017D000E021032283F8CD214AE125230093504BD9
:1017E000019303F10C0202924920A3F10A02502155
:1017F000023304F0F9FA002840F03A812B6813F024
:1018000080034FF0FF3205D0C4F8DC01C4F8E021BA
:101810000423F0E0C4F8DC31C4F8E0212CE0414AB4
:1018200002230021009301910291482002F1080354
:1018300004F0DAFA002840F01B814FF0FF33C4F8BF
:10184000E031C4F8DC010523D5E007230093364BD3
:10185000019303F10C0202924720A3F10802002138
:10186000043304F0C1FA002840F002814FF0FF3346
:10187000C4F8DC01C4F8E0310623BCE02B4A0523A0
:101880000021009301910291532002F1080304F01A
:10189000ABFA002840F0EC80C4F8DC010723AAE092
:1018A00040200CF0B9FB002840F0E280D4F8DC3195
:1018B0000C2B00F29780DFE803F0070B0E1249555E
:1018C0005A5F63677580840019480CF027FD83E038
:1018D0001848194943E0194819491A4A7AE00D4B4A
:1018E000194893F84E1593F84F2573E0C03D00203A
:1018F000A83A0020BC0E0020EE0E00201C2A00207A
:10190000AC3A00201C0A0020182A00206226002081
:10191000383E00200C350020582E0020587B01084E
:10192000C27B0108747D01088C7D0108D87D010807
:10193000AC930108C6930108DB930108E393010807
:10194000F7930108039401080C940108724B734843
:1019500093F828250C2101FB023393F82A150CF08B
:10196000DDFC39E06C4B6E48B3F8D010F7E76A4BFA
:101970006C48B3F8D210F2E76B4B6C481969EEE78C
:101980006B4B6C481988EAE7D4F8E431D80404D5E5
:10199000614B694893F80811E1E7684B0B22C3F8E3
:1019A000DC2119E05C4B664893F80C1193F80D218B
:1019B00093F80B310CF0B2FC0EE06248B4F8E81179
:1019C000CDE72B68190507D5534B5F48B3F81011C5
:1019D000B3F90E210CF0A2FCD4F8DC310133C4F8C9
:1019E000DC3145E00CF078FB002841D04FF4805307
:1019F000A4F8EA31092384F8CD3139E0534B1B6850
:101A00009A0116D5B4F8EC314C4D93B9D5F8F031B4
:101A10000A934F4B0E201B680B930AA903F010FF8B
:101A20004FF48053A5F8EA31092385F8CD3103F04E
:101A30005FFF03F0E7FE1BE094F8F431002BF6D0D3
:101A4000424B1B689B01F2D43C4B082283F8CD210A
:101A5000EFE7404B1A68D4F8E031C8339A4203D913
:101A60000CF020FB0123C6E70CF036FB0028F7D171
:101A70000CF002FB00284AD0012384F8CD3146E067
:101A8000B8F1000F23D0B7F80E90EE88C6EB090A24
:101A9000544502DD4E44B44211DBFE89B3F9009097
:101AA000B442CBBF6E888E88B1F802A0B5F800A012
:101AB000B14529DBD1454E46A8BF564624E04C45EA
:101AC000CCBF6E882E881FE0B8F1000FE5D1049ED0
:101AD000B1F80290B3F900A03EB18E88B24513DB95
:101AE000CA455646A8BF4E460EE00E88B24503DBF7
:101AF000CA455646A8BF4E461E803E8AB44204DA06
:101B0000BBF1000F01D08E881E800233D0E511B0EA
:101B1000BDEC108BBDE8F08F0C3500201D94010842
:101B20002794010836940108EC2800204594010808
:101B300008040020559401085F9401081C0A002045
:101B40006C9401088594010890940108BC0E002053
:101B5000E0270020582E00202DE9F04FA34FA44C81
:101B60003A6802F59C432DED028B20332360A14B94
:101B70001E7887B0D6B1A04909688A4240F209812F
:101B8000013E1E7005E1DFF88C829C48D8F80030D9
:101B9000072D98BF595D9A4B88BF29461B68984707
:101BA000032D09D904EB45050136A8800FF0F0FAA2
:101BB000F5B28542E7D320E0D8F8002005F10E0306
:101BC00002EB8303D9881A890028EBD04FF47A738B
:101BD000401A5843531A90FBF3F040F6C90300F53E
:101BE0007A70984205DC40F2EE239842B8BF18465E
:101BF00001E040F6CA0080B2D4E7824B824E1B68F7
:101C0000D6F8008042F2010A03EA0A0ABAFA8AFA0E
:101C10004FEA5A1ABAF1000F06D194F8293084F825
:101C200028307A4B5A781A7094F828302BB1774BB9
:101C300093F8009089F0010900E099460F23DFF83E
:101C4000ECB184F82A3000250FF0A2FA854267DA59
:101C50006B00B9F1000F03D06D4A32F8150000E0B7
:101C600048466C4ADFF8C8C11168CA8A82424FEA06
:101C7000850E694A02D8098B81421CD25CF80E009D
:101C80005B49804501D2D05A19E0E8B202928DE852
:101C90000A000FF095FA032D019B029A0FDC0099C0
:101CA0004FF0010E91F82AC00EFA05FE2CEA0E0E36
:101CB00081F82AE003E008F596714CF80E10BAF1AD
:101CC000000F28D194F8BC100322B1FBF2F202EB12
:101CD00042028A1A03EB050E5EFA82F204EB42021C
:101CE000908594F8BD202AB9022913D9404A0121D0
:101CF00082F8BD10BBF800203BF8020C1044BBF882
:101D000002201044454A80B2D05200B2032290FB18
:101D1000F2F080B2404AD05201350BF1060B93E746
:101D200094F82A203E4BA2F10F014A424A4184F81E
:101D3000D6206AB13B4A1268520109D43268D96888
:101D40009A60521AC82A1FD9012283F821201BE069
:101D50002E4A01215170117032689968DA605B680F
:101D6000521A9A4282BF2E4B002283F8212000256E
:101D70000FF00EFA854207DAE8B20FF021FA264B8F
:101D800023F815000135F3E794F8BC30013384F8EB
:101D9000BC301C4B1A6812F4805F984605D0214B6A
:101DA0001B68DE0701D40FF0BDF81A4B39681868BC
:101DB000837A002B3ED0013B174D027B35F8133060
:101DC0001AB1C3F53B6308339BB21BB2A3F57A7318
:101DD000B3F57A7FA8BF4FF47A7323EAE37307EE73
:101DE000903A9FED117AF8EEE77A5CE0E027002068
:101DF000140C0020BC3D0020B83D00206C3A0020AF
:101E00000C070020A83A0020582E002000040020D3
:101E1000180C0020B43D0020AC3A0020D20C002069
:101E2000C03D0020BC0E002000007A44420C00207F
:101E3000880C0020D8F80020150440D5D4F8D8200C
:101E4000934E8A1A002A3ADB01F59C422032C6F8EA
:101E5000D820904AC07A55798F4A32F8152096F8E2
:101E6000DC50013592B292FBF0F205F00F0086F8DB
:101E7000DC00304480F8DD201A468848185C0133C5
:101E80000244102B92B2F8D112B292FBF3F31BB2C0
:101E9000642BA8BF642323EAE37307EE903A9FED17
:101EA000807AF8EEE77AC7EE877A7E4A9FED7E7AEF
:101EB00067EE877AFCEEE77A17EE903A1380D8F84F
:101EC00000307A4D13F4807F00F00981784BDFF801
:101ED000E491994205D999F8022012B9012289F8B2
:101EE000022099F80220002A00F0F980714A2F7828
:101EF00092F82160721E564256416F4A1168002EB8
:101F0000C1F38063C7F380070093924614BF4FF07C
:101F1000000B4FF0030B99F82020052A00F2D9801E
:101F2000DFE802F0034D527584A1002F3AD0D4F8B7
:101F3000F000B4F8F41006F0D0F9012809D15F4997
:101F40005F4A09681268C988642000FB0122C9F849
:101F50001020009B6BB1594A126812794AB10FF0F8
:101F60002BFB032289F820204FF47A72C9F81C2039
:101F7000D1E7002E40F0AD80514AD9F8101010681A
:101F80004C4A88420AD901920FF016FB019A0321AC
:101F900082F8201040F6B831D161BCE7012182F807
:101FA0002010B8E7009B4FF4806013B109F046F9A8
:101FB00001E009F033F90022C9F8102089E0002E71
:101FC00046D10FF0F9FAA6E726B1052289F82020BC
:101FD000012000E0304667B1D4F8F020D189394AB9
:101FE000118051809180354909684988D1804FF02E
:101FF000020B334A1168D9F81420914201D8002FFE
:1020000064D147F23052C9F81C20032221E02A781B
:1020100042F002022A700EF085FF294AD9F81C10FE
:1020200012680A44C9F81820042212E0244A9EB11A
:102030001168D9F8182091424BD9234A92781AB9DD
:10204000DAF80020D30744D42A7822F002022A705A
:10205000052289F820205EE71268D9F81C100A448E
:10206000C9F8182035E01549154A09681268C98869
:10207000642000FB0122C9F810204FF48060002288
:1020800089F8202089F8032009F0C8F843E700BF49
:10209000140C00202813002038130020F10C00201D
:1020A0000000C842180F002000C07F44283E0020D6
:1020B000404B4C00C03D0020BC0E0020203E0020C4
:1020C000582E0020AC3A00200004002000287FF4A5
:1020D00022AFBBF1000F02D0584606F09FF9A64E82
:1020E000A64FB6F8DE1006F58B7006F0F6F88246BD
:1020F00030BBA34B1B6813F0006908D0FB7833B9E1
:102100000EF00AFD9F4B012818BF002018702B7895
:10211000580708D5D8F80030D90604D4B9F1000F13
:1021200001D0FB785BB3984B1B6803F57A730122EF
:10213000C4F8F830934B3A71FA7000221A701EE01E
:10214000D8F80030DA0615D42B785B0712D58C4B03
:102150001B6818010ED5FB7863B18B4B1A68D4F855
:10216000F8309A4209D90EF0D7FC30B9854BF87097
:10217000187002E0834B00221A7000233B712B7809
:10218000590735D5D8F80030DA0631D57F4B1B78A2
:10219000DB062DD4BB7893B196F87031BAF1000FFD
:1021A00015D17BB1784B1A68D4F8FC309B1A002B00
:1021B00008DA0EF0B7FE764B83F800A118E0BAF10A
:1021C000000F0DD1102006F029F901230EE03BB1DC
:1021D0006D4A12684FF47A7101FB0323C4F8FC3096
:1021E00094F8003123B106F001F9002384F800319E
:1021F000002296F86EB196F86F11B6F826E1B6F89F
:1022000028C11346DFF89C91CDF8009039F91200EF
:102210009B087045C4BF63F07F03DBB201326045A9
:10222000B8BF43F04003042AECD194F80121584888
:102230009A4205D190F80221F92A04D8013200E02F
:10224000002280F8022184F80131BB78504ADFF87F
:10225000309133BBD9F80000C0070AD582F80331AA
:10226000BAF1000F1DD12B78DB071AD50EF0A0FCB8
:1022700017E02B78580714D592F828308BB1454BCE
:10228000DB7873B992F803310133DBB2032B82F8A8
:10229000033106D911B10EF045FE02E0BAF1000F8C
:1022A000F9D094F802313A4ADFF8FCA0142B40F040
:1022B000A480BB781BF1000B18BF4FF0010B6BB370
:1022C00092F801315F2B11D12B7803F0040303F056
:1022D000FF0113B10EF026FE08E00B2002910192DF
:1022E00006F09CF8019A029982F80211BBF1000FE6
:1022F00014D094F801317D2B10D12B7803F0040316
:1023000003F0FF0213B10EF00DFE07E00B20019267
:1023100006F084F81E4B019A83F802212B7803F013
:10232000040303F0FF01002B67D194F80131184A30
:10233000572B11D1184B4FF47A721A80D8F800300D
:102340001B0601D504F022FB144B1B685F0754D514
:10235000134B0A221A8050E0D8F80000400732D50B
:102360005A2B30D192F8043103B3012382F80411BF
:1023700082F8053141E000BF0C3500200004002048
:10238000BC0E0020493E0020582E0020280F0020BF
:10239000140C0020C03D0020263E0020B40E00207A
:1023A0003A3E0020AC3A0020240F002092F806317B
:1023B00083F0010382F806310BB10C2000E00D2000
:1023C00006F02CF819E05D2B00F0DF845B2B00F0A9
:1023D00003855E2B02D1032000F0FFBC562B01D1F8
:1023E00009F0F0F9BB78002B00F00A8594F8013170
:1023F0006F2B40F0FF840EF0DBFBD8F8003058075D
:1024000038D594F80631B94A9BB12B78590710D5C5
:10241000009BB3F90610B6F82631994209DDD9F8C8
:10242000003013F0010302BF3221A2F80A1182F832
:102430000631D9F80030DA030DD594F80C21AB4BF6
:102440002AB993F8042112B93222A3F80A210123F0
:1024500084F80C310EE094F80431A44A53B12B787F
:1024600003F0040303F0FF0123B9012382F80411F0
:1024700082F80531DAF800A00023C9F800300AF12B
:102480007B070AF1CB0B3A787B7817F8010C9A425C
:102490000DD2394605F0D6FE48B117F8022C0123BB
:1024A00003FA02F2D9F800301343C9F800300437B8
:1024B0005F45E8D18E4B1B785BB18E4BDFF84CB299
:1024C0001A68DFF84CA212F0020F994640F03883E8
:1024D0002FE30AF1CA070AF589793A787B7817F869
:1024E000010C9A4225D2394605F0ACFE08B3BB7800
:1024F00097F804C0804A97F803A07C480C21013B60
:1025000001FB0C4103EB43031344D1F814219A421D
:102510000FD0C1F81431002390F84021C1F81831D0
:10252000012303FA0CF322EA030381F810A180F8D7
:10253000403106374F45D0D1704B1F68704B1B6838
:10254000029394F8283003936E4B01930023009379
:10255000019B1A68002A00F0E18292F800A0BAF10B
:10256000000F00F0DB825B680299CB1A002B0CDBBA
:1025700001F5FA7301994B60009901238B4094F89F
:10258000401121EA030384F84031039B002B00F043
:10259000C582019B517813F8043C0433DBB2002957
:1025A00040F07B82584931F91310B6F8243103F119
:1025B000C800814202DD92F802B015E0C83B9942A2
:1025C00003DA9178C1F1000B0EE0009A01239340E9
:1025D00094F8402122EA030384F84031029B019AD7
:1025E00003F5FA73536099E294F84031009A13416D
:1025F000DB0700F19382BBF1000FCCBF022001206A
:1026000005F046FF0AF1FF33DFF8E090132B00F2EC
:102610007D82DFE813F01400250037004B006400D2
:102620008500E8004B01B201E00110027B024B0083
:102630005A008500E8004B01BA001D01820197F89D
:102640000090D944B9F1FA0FA8BF4FF0FA0929EA6E
:10265000E979384687F8009005F0DEFD01200FE0AB
:1026600097F80190D944B9F1640FA8BF4FF06409FD
:1026700029EAE979384687F8019005F0CDFD022076
:102680004946D5E197F803A0DA44BAF1640FA8BF30
:102690004FF0640A2AEAEA7A87F803A03846D9F8A4
:1026A000441105F06FFD03205146C1E17979594489
:1026B0006429A8BF642121EAE17179710D2005F038
:1026C0003DFEBAF10D0F00F0218239795944642999
:1026D000A8BF642121EAE17139710E20A8E1B9791E
:1026E000594481F30801B9710520A1E1140C0020BF
:1026F000383E0020BC0E0020007E0108200F002084
:10270000582E0020280D0020AC3A0020B40E0020E6
:10271000B80E002000007A440000C842000000000B
:10272000D9F848311A78022A20D107EE90BAB8EECB
:10273000E70A5FED077A93ED097A80EE270A30EE1B
:10274000070AB5EEC00AF1EE10FA07D4B4EE670A34
:10275000F1EE10FAC8BFB0EE670A01E01FED110AF2
:1027600083ED090A0F2005F0D3FD0AE0997859445A
:10277000C829A8BFC82121EAE17199700F2005F08E
:10278000DDFDBAF10F0F00F0C181D9F848311A7898
:10279000022A1ED107EE90BAB8EEE78A5FED227AE0
:1027A00093ED080A88EE278A38EE000AB5EEC00AD3
:1027B000F1EE10FA07D4B4EE670AF1EE10FAC8BFD2
:1027C000B0EE670A01E01FED2B0A83ED080A122024
:1027D00056E159785944C829A8BFC82121EAE171B6
:1027E0005970122024E1D9F848311A78022A20D1F0
:1027F00007EE90BAB8EEE70A5FED397A93ED0C7AFE
:1028000080EE270A30EE070AB5EEC00AF1EE10FAA4
:1028100007D4B4EE670AF1EE10FAC8BFB0EE670A4B
:1028200001E01FED420A83ED0C0A102005F070FD57
:102830000AE0197B5944C829A8BFC82121EAE171DF
:102840001973102005F07AFDBAF1100F00F05E81C7
:10285000D9F848311A78022A1ED107EE90BAB8EE9C
:10286000E78A5FED537A93ED0B0A88EE278A38EEFC
:10287000000AB5EEC00AF1EE10FA07D4B4EE670A0A
:10288000F1EE10FAC8BFB0EE670A01E01FED5D0A75
:1028900083ED0B0A1320F3E0D97A5944C829A8BF65
:1028A000C82121EAE171D9721320C1E0D9F8483179
:1028B0001A78022A22D107EE90BA1FED6A0AF8EEC2
:1028C000E77A87EE800AD3ED0F7A30EE270AB5EE6D
:1028D000C00AF1EE10FA09D45FED717AB4EE670A1E
:1028E000F1EE10FAC8BFB0EE670A01E01FED750AFD
:1028F00083ED0F0A112005F00BFD0AE0997D594484
:10290000C829A8BFC82121EAE1719975112005F0F5
:1029100015FDBAF1110F00F0F980D9F848311A7895
:10292000022A20D107EE90BA1FED860AB8EEE78A98
:1029300088EE008A93ED0E0A38EE000AB5EEC00A62
:10294000F1EE10FA09D45FED8C7AB4EE670AF1EE7D
:1029500010FAC8BFB0EE670A01E01FED900A83EDE0
:102960000E0A14208CE0597D5944C829A8BFC821FB
:1029700021EAE171597514205AE0D9F848311A78E2
:10298000022A1ED107EE90BAB8EEE78A5FED9E7A72
:1029900093ED0A0A88EE278A38EE000AB5EEC00ADF
:1029A000F1EE10FA07D4B4EE670AF1EE10FAC8BFE0
:1029B000B0EE670A01E01FEDA70A83ED0A0A0920BD
:1029C0005EE0D9785944C829A8BFC82121EAE1713D
:1029D000D97009202CE0D9F848311A78022A1ED182
:1029E00007EE90BAB8EEE78A5FEDB57A93ED0D0A7F
:1029F00088EE278A38EE000AB5EEC00AF1EE10FA2A
:102A000007D4B4EE670AF1EE10FAC8BFB0EE670A59
:102A100001E01FEDBE0A83ED0D0A0A2030E0597B6C
:102A20005944C829A8BFC82121EAE17159730A2075
:102A300005F084FC6AE0D9F848311A78022A22D1DC
:102A400007EE90BA1FEDCD0AB8EEE78A88EE008A4D
:102A500093ED100A38EE000AB5EEC00AF1EE10FA56
:102A600009D45FEDD37AB4EE670AF1EE10FAC8BF6D
:102A7000B0EE670A01E01FEDD70A83ED100A0B20C4
:102A800005F046FC42E0D97D5944C829A8BFC821B9
:102A900021EAE171D9750B20CAE7012936D1907876
:102AA000BB4A32F91390B9F5617F05DB40F6330379
:102AB0009945A8BF994601E04FF46179BAF10C0F2E
:102AC00024D1B44A4FF4966393FBF0F01378A9F540
:102AD000617999FBF0F95FFA89F94B4516D0B9F1A4
:102AE000040F34BF4B4602231370AB4A0AFB036347
:102AF00003F22A53136008F087FC5046494605F05C
:102B00001DFC09F10100C0B205F0C2FC009A0123CE
:102B1000934094F84021134384F84031009B0133E3
:102B20000093019B0C330193009B042B7FF410ADA9
:102B3000C3E4D8F80030DF050FD5984BDB7863B1DC
:102B4000DBF80030980708D5BAF8003013F0010719
:102B500008D1012008F072FB04E0012008F05EFBC0
:102B6000012300E00023D9F8002051070BD553B111
:102B7000012008F053FBBAF800309A0706D402206F
:102B800008F05CFB02E0022008F048FBBAF8007095
:102B9000834B17F0030F4FF0100214BF5A831A83B0
:102BA000DBF800309B0609D4D9F80030180540F155
:102BB00090804FF4807008F041FB8EE0794B1B78D9
:102BC000990751D5784B1B78042B4DD9D9F8003093
:102BD00013F4007307F010070DD0002F38D1102028
:102BE00008F02CFB202008F019FB7048011D03F0B1
:102BF00021FE022328E0BFB23FB11020009308F06D
:102C00000DFB009B84F84C310127D9F800305A05A0
:102C100012D5D4F8503166495A89B1F90030002BE9
:102C2000B8BF5B42934207DAB1F90230002BB8BF5C
:102C30005B429342C0F22C81BAF800309B0608D563
:102C4000202008F0EBFA002384F84C31012700E043
:102C5000002794F85431A3B90E2005F0DFFB554B43
:102C6000012283F854210CE017F0300F9CD0102083
:102C700008F0D4FA202008F0D1FA002384F84C316F
:102C800001E0002F90D04C4A002002F1280E02F102
:102C900050074A4B002123F81010494B516023F88C
:102CA00010100433CEF8041023F810100023136022
:102CB0009360CEF80030CEF808303B607960BB609E
:102CC00014320EF1140E143700287FF46DAF01207A
:102CD000DFE74FF4807008F0A1FA7379082B01D078
:102CE0000E2B02D1402008F099FAD8F80030580590
:102CF00019D596F8A0311BB92B7813F0040F03E017
:102D0000D9F8003013F4002F09D02E4B00221A708E
:102D10003C200DF0CDFE30B10BF064FCF8E709F07B
:102D2000CFFE0DF0E2FD012384F8D83194F8D931BB
:102D3000002B00F0C380DBF80030590740F1BE8063
:102D4000D9F800301A0707D4082007B0BDEC028B71
:102D5000BDE8F04F08F062BABAF8004004F0080489
:102D6000A4B2002C40F0AA80082008F067FA164BA5
:102D70001A68164B1A60064BDA880E4BA3F8DA2154
:102D8000134B1C60134B1C6098E0012025E000BF32
:102D9000AC3A002060260020200F0020C03D00201B
:102DA00000040240280F0020290F0020400F0020BF
:102DB00084280020140C00206C0D0020443E0020CC
:102DC000E40D0020713A00200C0F0020500F00206D
:102DD0001C280020202800200220C7B27B1E86F875
:102DE000283508F07BFA08F033FB384605F050FB35
:102DF000FFF703BBBBF1000F02D07E2B3FF4FBAA11
:102E000094F80131972B06D12F4B4FF4C872A3F8D9
:102E10000821FFF7F2BAA72B06D12C4A137843F00A
:102E200004031370FFF7E9BA0022BB2B059201D10E
:102E3000022303E0B72B04D14FF6FE73ADF8163032
:102E40000AE0BE2B01D1022304E0BD2B7FF4D5AAFA
:102E50004FF6FE73ADF81430DAF80030BDF81410F8
:102E6000B3F858200A44A3F85820BDF81610B3F858
:102E70005A200A44A3F85A2008F030FA08F0E8FA79
:102E8000012005F005FB002384F80231FFF7B5BAF5
:102E9000BAF800309B063FF5DCAE202008F0CEF9F2
:102EA0000B480C4B011D1A685B684360026003F01D
:102EB000C1FC054B012783F84C71CAE607B0BDEC95
:102EC000028BBDE8F08F00BF140C0020280F0020FB
:102ED000480F00202C0F00208848894A0368F0B56D
:102EE0009C8AA4B2E1B211F0010F32D01988854C4E
:102EF00021F400610904090C1980198889B241F490
:102F000080611980002111707F490978A9B1517839
:102F100019B97E490978FF290FD1012151707C49E7
:102F20000978022901BF198889B241F4006119802A
:102F3000217841F00101198201E1217801F0FE01BF
:102F40001982724B1B78FF2B00F0F980FF2313705E
:102F5000F5E08E073CD5BFF35F8F6D490C78E4B286
:102F6000012C14D1684D2D788DB155787DB119881B
:102F700021F480610904090C1980BFF35F8F198B5C
:102F80001988947089B241F4007119801BE01C8B80
:102F9000BFF35F8F0C78022C0BD15B4C247844B1CB
:102FA000547834B1198821F480610904090C19801E
:102FB000BFE00978032906D15349097819B151783E
:102FC000002940F0B680998889B241F48061B5E06B
:102FD0004D075BD5012191704B49097800293AD002
:102FE0005178002937D04A494A4D09781C8802296E
:102FF00011781ED924F480642404240C1C801E8AB9
:103000002F68CCB249B2F6B27E5419882D6889B2C5
:1030100041F4007119800168A31C137001340B8AFC
:1030200064B2DBB22B558B889BB243F480638B80F8
:1030300027E0A4B244F400741C802E681D8ACCB230
:1030400049B2EDB27554611C1B8A49B2DBB203343C
:103050007354147015E0517811B92F49097841B1B2
:10306000198889B241F40071198013780133137003
:1030700007E0198889B241F480711980204B012141
:10308000597001680B88DC05FCD458E001F0400160
:1030900001F0FF061E4DF1B114781E491F8AD1F8C8
:1030A00000E0E6B264B2FFB20EF80470711CC9B25F
:1030B0002F78117049B2CC1CA74201BF9C8824F420
:1030C00080642404240C08BF9C802B788B4236D16A
:1030D0000236167033E0210631D511784CB2671CE8
:1030E0001ED00E4E3668345D1C820131C9B22C7878
:1030F000117049B28C4222D11BE000BF702E00201B
:10310000F00D00205D2E0020602E00205E2E00209D
:103110006C2E0020682E00205F2E0020642E0020E0
:1031200012491670097819821149097809B9297864
:1031300029B9998821F480610904090C99800D4B03
:1031400092F900201B780C4901339A420DD10023DB
:103150004B708B7833B10268938823F440731B045F
:103160001B0C9380054B00221A70F0BD5E2E0020D0
:10317000602E00206C2E0020F00D00206D2E00200F
:103180006C4B6D4A2DE9F04F5E8954684FEA062A70
:10319000B4EB0A0A9C884FEA04481C894FF00005EA
:1031A0004FF0000B65EB0B0BA4FB0A6704FB0B77DE
:1031B000F40944EA476418EB04065C884FF0000900
:1031C0004FEAE7154FEAC438DC8849EB050787B0BA
:1031D000CDE90467A4FB0A6704FB0B77340A44EAD1
:1031E000076418EB04064FEA27259C894FF0000975
:1031F00049EB0507CDE90067AAFB046704FB0B77E1
:10320000F40D44EA472414F5FA664FEAE75545F110
:103210000007B6F5FA6F77F10003CDE9026796462D
:1032200067DAA4FB046704FB05F34FF0050C07EB1A
:103230004307DDE90489A6FB0C230CFB07335F1071
:103240004FEA3206B8EB06084FEA920669EB070927
:1032500046EA83769F10DDE90023921B63EB0703A8
:10326000DDE90267CDE90023344A4FF0FF3396428F
:1032700077EB0303CDE9048928DA40F6AC52A418B1
:103280004FF000035D4104FB05F3A4FB044505EB8F
:1032900043056FF00602664202FB0566A4FB0223AB
:1032A000334418EB020649EB0307CDE904670B260C
:1032B000A4FB062306FB0533DDE900455B104FEA5E
:1032C0003202A41A65EB0305CDE900450AFB0BF3B6
:1032D000DDE90245AAFB0AAB0BEB430B4FEADA72BE
:1032E00042EA4B02A41A4FEAEB7365EB0305CDE902
:1032F0000245DEF80840009B019DA4FB032304FB6C
:1033000005334FEA52584FEA635948EAC328DDE9CA
:103310000423B8EB020269EB03039946D30B43EA9B
:10332000494300B1036009B1029B0B6007B0BDE8DF
:10333000F08F00BFB4090020F00D002024FAFFFF39
:10334000054B1A7B02F0FF0122B10122027000221C
:103350001A73704701707047F00D0020194B73B558
:103360005D7B0446EDB9184B06215E6818786A4605
:10337000B04718B39DF800209DF8013043EA0223BE
:1033800023809DF802209DF8033043EA02236380E6
:103390009DF804209DF8053043EA0223A38001250F
:1033A0000CE00222196991FBF2F1018059699B69D5
:1033B00091FBF2F193FBF2F341808380284602B047
:1033C00070BD00BFF00D00209C09002013B504461D
:1033D00072B6104B06215B686A463B20984762B67E
:1033E000A8B19DF800209DF8013043EA0223238014
:1033F0009DF802209DF8033043EA022363809DF884
:1034000004209DF8053043EA0223A380012002B086
:1034100010BD00BF9C090020054B08B9054A03E018
:1034200001280CBF044A054A1A6005F08DBB00BF95
:10343000702E00200054004000580040005C004006
:1034400013B524490B689A8A92B20192019A12F438
:10345000706F18BF204A0C461CBF01211170019AE1
:1034600012F4E06F2AD01A8B9A8822F48062120438
:10347000120C9A80019A910520D41A8892051DD4C5
:103480001A88D0050FD51A88D105FCD41A8892B2B3
:1034900042F400721A801A889205FCD40F4B1878F7
:1034A000FFF7BAFF0AE01A8892B242F400721A805B
:1034B0009A8822F440721204120C9A802268938A2D
:1034C00023F470631B041B0C9382054B00221A70BB
:1034D00002B010BD702E00206E2E00202C15002092
:1034E0006D2E002007B502AA012302F8013D4821F4
:1034F00077200DF0D1F803B05DF804FB07B502AA00
:10350000012302F8013D582177200DF0C5F803B0E2
:103510005DF804FB07B502AA034602F8011D682006
:1035200019460DF0B9F803B05DF804FB2DE9F84336
:103530000D4C0E4E102581466583012090460F46A6
:1035400004F02CFF49F08001304605F0E1FA4146D5
:1035500000223B46304605F0ADFA2583012004F0F9
:103560001DFF0120BDE8F883000802400030014043
:103570002DE9F0410A4C0B4E102590460F4665830D
:1035800040F08001304605F0C3FA30464146002243
:103590003B4605F08FFA25830120BDE8F08100BF8E
:1035A00000080240003001402DE9F0410B4C0C4E68
:1035B00010258046658301200F4604F0EFFE41464A
:1035C000304605F0A5FA3946304605F0A1FA2583C4
:1035D000012004F0E3FE0120BDE8F0810008024074
:1035E0000030014073B50D460646FFF7DDFF64204D
:1035F00004F0D4FE1524304601210DF10702FFF737
:1036000095FF9DF80730AB420CD029463046FFF7B6
:10361000CBFF013C642004F0C1FE14F0FF04EAD1AA
:10362000204600E0012002B070BD2DE9F0433C4D82
:103630002B7F85B0002B6FD13A4B1B68002B6BD0D2
:103640001A681AB13849086B02430A639A88986865
:10365000ADF800200026022269468DF803208DF87F
:10366000026005F0BFF8304B30485A6C304C42F0E5
:1036700004025A645A6C42F480425A64032720239D
:103680004FF0010802A902938DF80C608DF80E60CE
:103690008DF80F808DF80D7004F010F8254BDA6866
:1036A00022F0F002DA60DA6842F02002DA60236881
:1036B000214A23F020032360636823F02003636022
:1036C000236843F020032360A36823F02003A36052
:1036D000E36823F02003E360136843F020031360E2
:1036E0004FF0170901A88DF804908DF805708DF83A
:1036F00006708DF8078003F0BCFF104B5A681AB1B2
:10370000304604F0DDFE03E00D4A5A6083F8009075
:103710002023636101232B7705B0BDE8F08300BF50
:10372000F00D0020B00900200038024000080240DF
:10373000003C014000380140083C0140D413002007
:103740005138000808B5FFF770FF024B4FF4805264
:103750001A8008BD08040020384AD38813B5384CB5
:103760000133D380FFF761FF637F002B39D1354AE6
:10377000138823F040031B041B0C1380138823F0D1
:1037800038031B041B0C43F03003138013889BB2D7
:1037900043F04003138080216B20FFF705FF3220A8
:1037A00004F007FE01216B20FFF71CFF18211B20EE
:1037B000FFF718FF07211A20FFF714FF224B1920EB
:1037C0001978FFF70FFF10211C20FFF70BFF1221C4
:1037D0003720FFF707FF38200121FFF703FF012300
:1037E00063771A4C174A00232380138823F0400381
:1037F0001B041B0C1380138823F038031B041B0CC1
:1038000043F00803138013889BB243F040031380F6
:103810006846FFF7A3FD9DF90230013303D19DF9FE
:103820000030013302D023889BB223B1002306204D
:10383000238004F045FE02B010BD00BF960F0020AB
:10384000F00D002000300140C40900206414002065
:103850007E4B5A6992062DE9F34740F1F38020220E
:103860005A617B4C7B4E04F07DFDD4F8BC30C4F82B
:10387000BC00C31A962B0546338008D9236A1F2B38
:103880000EDC04EB8302012151620B4407E0236A42
:103890001F2B05DC04EB83020021516201332362FC
:1038A000226A6B4B202A6BD1D96A9A6A890041EA55
:1038B00042015A6A0A43196B42EAC102596B42EA51
:1038C0000112996B42EA4112D96B42EA8112196CDA
:1038D00042EAC112596C42EA0122996C42EA412241
:1038E000D96C42EA8122196D42EAC122596D42EA3D
:1038F0000132996D42EA4132D96D42EA8132196E44
:1039000042EAC132D96EB2809A6E890041EA420120
:103910005A6E0A43196F42EAC102596F42EA011214
:10392000996F42EA4112D96F42EA8112D3F88010AE
:1039300042EAC112D3F8841042EA0122D3F8881077
:1039400042EA4122D3F88C1042EA8122D3F8901047
:1039500042EAC122D3F8941042EA0132D3F8981017
:1039600042EA4132D3F89C1042EA8132D3F8A010E7
:1039700042EAC132F28072880132728000221A62F9
:10398000D4F8A430324F0133C4F8A430324B0621AE
:10399000D3F804C018786A46E047002840D0D7F82A
:1039A000A8C07B6938699DF8052007EB4C0EBEF96D
:1039B000B010BEF9ACA0BEF9B480C1EB0309BB697D
:1039C0009DF80210CAEB000AC8EB03089DF800003E
:1039D0009DF8013043EA00209DF80330AEF8AC00BA
:1039E00043EA01219DF80430AEF8B01042EA032307
:1039F000AEF8B43008FA83F3BB610CF10103012B7C
:103A0000C8BF00230AFA80F009FA81F1C4BFC7F8E1
:103A1000A830012338617961D4BFC7F8A8307B731F
:103A2000D4F8A4300A4F012B0CDD04F09BFCD7F82E
:103A3000B830C7F8B850C01A0023C7F8A430012323
:103A400070803B7302B0BDE8F08700BF003C0140CE
:103A5000F00D0020960F00209C090020054A08B5B3
:103A6000138801339BB21380034B1878FFF7D4FC03
:103A7000002008BDB20E00202C15002010B540001B
:103A8000204CC0B2207020480170204900200870EE
:103A90001F4901240C701F490B601F490B601F4B0D
:103AA0001F491A701F4B204A1B680C7010709888B1
:103AB00010F4007F0846114615D11A88D2050DD49E
:103AC00047F230521C88A40502D5013AFAD112E01F
:103AD0008AB11A8892B242F480721A809A8892B29D
:103AE00042F440729A8047F23053027812B1013B9F
:103AF000FBD100E013B9BDE81040AFE7087880F0D3
:103B0000010010BD5D2E00205E2E00205F2E0020E3
:103B1000602E0020682E0020642E00206C2E0020D5
:103B20006D2E0020702E00206E2E002007B5002183
:103B300001AB03227720FFF7A1FF9DF805309DF828
:103B400004001B0243EA00439DF80600184303B03B
:103B50005DF804FB08B5FFF7E9FF014B986008BD6D
:103B6000F00D002008B5FFF7E1FF014B586008BDDC
:103B7000F00D002030B505460C4613462946224676
:103B80006820BDE8304079E7FFF7A6B958E4FFF7B1
:103B9000A3B955E42DE9F04F2DED028B4B28A1B0D0
:103BA000044600F0DA8500F2D080322800F0038667
:103BB00067D8222800F05F8423D8032800F09C8176
:103BC00014D8012800F08C81022840F0628604207D
:103BD0000AF072FD52200AF042FD43200AF03FFD38
:103BE00046200AF03CFD4C2000F0EBBD042800F01C
:103BF0008E81052840F04D861A200AF05DFD0024D4
:103C000095E1282800F0908515D8242800F07385C8
:103C1000262840F03E86D24C06200AF04DFDB4F82E
:103C2000E8000AF04CFDB4F8EA000AF048FDB4F8E8
:103C3000EC0000F0D7BD2A2800F089852C2840F040
:103C40002886C74C0C200AF037FD94F81E010AF0B4
:103C500006FDB4F828010AF032FDB4F824010AF098
:103C60002EFDB4F826010AF02AFD94F81F010AF08F
:103C7000F6FCB4F82C010AF022FDB4F82E0100F095
:103C8000B1BD3D2800F0C88224D8382800F039851D
:103C900012D8342800F01184362840F0FA85B14B50
:103CA000AF4C93F8EE00C0EBC000C0B20AF004FDC8
:103CB00004F1200500F0A3BD3A2800F07D823B28E6
:103CC00040F0E78501200AF0F7FCA64B5B6F1878FF
:103CD00000F077BD452800F0C98527D8402800F0BE
:103CE0007385422840F0D5859D4C10200AF0E4FCF5
:103CF00060790AF0B4FCA0680AF0EAFC94F81E01AE
:103D00000AF0ADFCB4F8E8000AF0D9FCB4F8EA0017
:103D10000AF0D5FCB4F8EC000AF0D1FCB4F80E01BE
:103D20000AF0CDFCB4F8100100F05CBD472800F0AB
:103D30007B85C0F06885492840F0AB8502200AF0F9
:103D4000BBFC894B188800F04DBD6F2800F06F82D6
:103D50004CD8692800F0018224D8652800F00E8133
:103D600015D84D2800F00885642840F0928507207A
:103D70000AF0A2FCE7200AF072FC794B58790AF0AD
:103D80006EFC00200AF06BFC042000F07EBD66286B
:103D900000F0B281682840F07C8510200AF08CFC8D
:103DA0000024D2E16C2800F0EB8117D86A2800F0DB
:103DB00017846B2840F06D856A4C05200AF07CFC66
:103DC000B4F88A000AF07BFCB4F88C000AF077FCA7
:103DD00094F88E0000F0010000F0F3BC6D2800F0B4
:103DE000E1816E2800F0EC8100F053BD762800F0F0
:103DF00017844ED8732800F0DE833FD8702800F077
:103E00005382722840F04585554C16200AF054FC28
:103E1000B4F824010AF053FCB4F8D0000AF04FFCC7
:103E2000B4F8D2000AF04BFCB4F8D4000AF047FC16
:103E3000B4F868010AF043FC94F877010AF00FFC2B
:103E400000200AF00CFC94F878010AF008FC94F8C1
:103E500013010AF004FC94F820010AF000FC002091
:103E60000AF0FDFB3F4B5B6F0A20B3F9563093FB22
:103E7000F0F080B20AF023FC00F047BC742800F098
:103E80004183752840F005852F200AF015FC374C3A
:103E9000E9E2A02800F021840AD8772800F06B839B
:103EA0007B2840F0F6843C200AF006FC002484E2E3
:103EB000F02800F00584FE2800F0F583A42840F0E7
:103EC000E884284D95F8A40080000130C0B20AF0C3
:103ED000F3FB95F8A4000AF0C2FB00242E46C9E3C8
:103EE00003200AF0E9FB00200AF0B9FB20460AF0A3
:103EF000B6FB0D2000F065BC0AF0DEFB02200AF0E4
:103F0000AEFB20460AF0ABFB012000F05ABC0620B5
:103F10000AF0D2FB42200AF0A2FB4A200AF09FFBE3
:103F200046200AF09CFB34200AF099FB0BE1104B71
:103F3000185D01340AF093FB0B2CF8D100240D4BD3
:103F4000185D01340AF08BFB082CF8D100240A4BD1
:103F5000185D01340AF083FB072CF8D100F097BC00
:103F60000C350020B00E0020B03D00203B7E010843
:103F7000F793010803940108DB930108C14C0B205F
:103F80000AF09AFB20880AF09AFB608880B20AF057
:103F900096FB6368C3F3C000C3F38002800040EA6D
:103FA0004200C3F340021043C3F3401240EAC20090
:103FB00003F0100318430AF082FBE3682289247C93
:103FC00002F0080103F4475A4AEA010A03F4804167
:103FD0004AEA010A03F400414AEA010A03F4803183
:103FE0004AEA010A03F400314AEA010A03F4802193
:103FF0004AEA010A03F4002103F4801B4AEA010A99
:104000004AEA0B0A03F0007B4AEA0B0A03F0006B52
:104010004AEA0B0B9C4903F0805A4BEA0A0A03F068
:10402000005B4AEA0B0B097803F0804A4BEA0A0A64
:1040300003F0004312F0010F4AEA0303C1F38001C9
:1040400014BF4FF002094FF00009194312F0020F9C
:1040500014BF4FF004084FF0000841EA090112F0C4
:10406000040F14BF4FF0100C4FF0000C41EA080190
:1040700012F0400F14BF4FF0200E4FF0000E41EA37
:104080000C0112F0100F14BF4FF40077002741EA23
:104090000E0112F0200F14BF4FF480660026394342
:1040A00012F4807F14BF4FF400650025314312F4F1
:1040B000007F14BF4FF400100020294312F4806FDA
:1040C00041EA000114BF4FF080620022002011433A
:1040D0000346A3420AD26D4A9D5C012202FA05F50D
:1040E0000D421CBF9A4010430133F2E70AF0F0FA88
:1040F000674B93F8280564E312200AF0DDFA654B5C
:104100001B88B3F5806F8CBF0826012600255D4C07
:1041100004F1320333F9150090FBF6F0013580B25B
:104120000AF0CDFA032DF2D1208F0AF0C8FA608F81
:104130000AF0C5FAA08F0AF0C2FA00200AF0BFFA0E
:1041400000200AF0BCFA00204CE3534B185D013408
:104150000AF085FA102CF8D199E3504D28784000E8
:1041600000F0FE000AF0A8FA00242B789C4280F0B0
:104170008E834B4B33F814000AF0A1FA0134F4E7B4
:10418000404C06200AF098FAB4F856000AF097FA64
:10419000B4F858000AF093FAB4F95A300A2093FBA5
:1041A000F0F037E0374C06200AF086FAE06D0AF0AE
:1041B0008FFAB4F8600015E304200AF07DFA63E397
:1041C00007200AF079FA374B2E4C1888FF28A8BF31
:1041D000FF20C0B20AF043FA606E4FF6FF75A842A6
:1041E000A8BF284620EAE07080B20AF068FAB4F866
:1041F00068000AF064FA264BE06E93F813313BB185
:104200000A235843A842A8BF284620EAE07001E0EC
:1042100000F30F0080B2E5E21D4C02200AF04CFAD8
:1042200094F870010AF01BFA94F86F01C9E2154C7A
:104230000B200AF041FA236F18780AF010FA236F66
:1042400058780AF00CFA002625462B6F0D4C3344A3
:10425000013618790AF003FA032EF6D1236FD879C4
:104260000AF0FDF9236F98780AF0F9F9236FD878EE
:104270000AF0F5F9236F58890AF021FA236F187AAA
:104280009FE200BFB00E0020283E0020C10E00209B
:104290000C35002008040020EE0E00206C3A0020AF
:1042A000AC3A0020D0130020C84C1E200AF004FABB
:1042B000636F1B78022B4FF000056BD1636F03EB2C
:1042C000850393ED080AB2EE048A20EE080A10F086
:1042D00003FB80F30800C0B20AF0C1F9636FDFEDA1
:1042E000BC7A03EB850393ED0B0A20EE270A10F04E
:1042F000F3FA80F30800C0B20AF0B1F9636FDFEDA2
:10430000B57A03EB850393ED0E0A20EE270A10F031
:10431000E3FA80F30800C0B201350AF0A0F9032DDA
:10432000CCD1072D636F23D193ED110A20EE080A3B
:1043300010F0D2FA80F30800C0B20AF090F9636F6F
:1043400093ED120A20EE080A10F0C6FA80F3080076
:10435000C0B20AF084F9636F93F84C3000EE103A63
:10436000B8EE400A10F0B8FA80F30800C0B20BE0D3
:104370002B4458780AF073F9636F2B44D87A0AF00B
:104380006EF9636F2B44587D01350AF068F90A2DE8
:10439000C7D17CE2636F2B4458780AF060F9636FF1
:1043A0002B44D87A0AF05BF9636F2B440135587DB2
:1043B0000AF055F90A2DEDD169E2844D9FED858A09
:1043C0006B6F03EB840393ED080A20EE080A10F0EC
:1043D00083FA80B20AF073F96B6F03EB840393EDF9
:1043E0000B0A20EE080A10F077FA80B20AF067F99B
:1043F0006B6F03EB840393ED0E0A20EE080A10F0B6
:104400006BFA013480B20AF05AF9032CD5D1072C8B
:104410006B6F16D193ED110A20EE080A10F05CFACA
:1044200080B20AF04CF96B6F93ED120A20EE080A85
:1044300010F052FA80B20AF042F96B6F93F84C0018
:104440000BE0234458780AF03AF96B6F2344D87A8A
:104450000AF035F96B6F2344587D01340AF02FF9C7
:104460000A2CD4D113E214F8010F002800F00F82B7
:104470000AF0F5F8F7E750200AF01EF90025534B33
:104480005C6F554B04EB85040C2194F8792001FBFB
:104490000233013593F838000AF0E1F894F87A0015
:1044A0000AF0DDF894F87B000AF0D9F894F87C0063
:1044B0000AF0D5F8142DE2D1E9E148200AF0FCF821
:1044C0000025424B5C6F062303FB0544013594F83D
:1044D000CE000AF0C4F894F8C9000AF0C0F894F8C5
:1044E000CA000AF0BCF894F8CB000AF0B8F894F8C7
:1044F000CC000AF0B4F894F8CD000AF0B0F80C2D16
:10450000DFD1C4E14FF00008012600272F4B1A7CB1
:10451000974227DA11330024FA5C2F4D0C2305F162
:1045200030016343595C914207D12B44586B0FF023
:10453000D2FF82462EB9B14605E00134222CECD1DF
:104540000EE080440CE0D1450ADA0C2303FB04534F
:104550005B6B13F809000AF082F809F10109F2E730
:104560000137D3E7002E00F092815FFA88F00AF05D
:10457000A3F80026C9E7154D287C0AF09DF8002411
:104580002B7C9C4280F08381144BE65C0021124816
:104590000C2200F1300702FB01F3DA5DB24205D1D3
:1045A000034493F838000AF05AF802E00131222956
:1045B000EDD10134E4E708200AF07EF80124E0B2EE
:1045C00001340AF04CF8092CF9D160E1B00E00205A
:1045D0000000C84200007A443C7E0108C10E002061
:1045E000BB4C10200AF068F894F8780000F0020044
:1045F0000AF035F894F879000AF031F8E06F0AF023
:1046000067F8D4F880000AF063F8B4F884000AF080
:1046100056F8B4F886000AF052F8B4F88800E1E0E1
:104620000AF000F8074612200AF046F8A84C27B90D
:10463000D4F89060D4F8945007E0102F13BF0025F1
:10464000D4F89860D4F89C502E4638460AF007F803
:1046500030460AF03DF828460AF03AF8D4F8A000AF
:104660000AF036F800200AF02AF800200AF027F8AD
:104670000020A6E096F8A4309C4280F00881954D79
:10468000285D09F0ECFF05F11003185D09F0E7FF64
:1046900005F120033035185D09F0E1FF285D09F0D0
:1046A000DEFF0134E6E708200AF006F800248A4B12
:1046B00033F8140001340AF002F8042CF7D1E6E0D4
:1046C000834C042009F0F8FF636FB3F85A0009F037
:1046D000F6FF636FB3F8580084E00C2009F0ECFF9C
:1046E0007E4B186809F0F4FF7D4B186809F0F0FF65
:1046F0007C4B1868C9E0042009F0DEFF7A4B98680B
:10470000C3E0042009F0D8FF774C94F8080109F0C1
:10471000A6FF94F80C0109F0A2FF94F80B0109F030
:104720009EFF94F80D014CE06F4C072009F0C4FF88
:10473000B4F80E0109F0C3FFB4F8100109F0BFFF8F
:1047400094F8120109F08BFFB4F814014AE001203B
:1047500009F0B2FF644B587933E0634C042009F050
:10476000ABFF94F8660109F07AFF94F8670109F04D
:1047700076FFB4F8680135E05C4C5D4D207800EBC5
:104780004000C0B209F098FF002623789E4205F150
:1047900002057CD215F8020C09F061FF15F8010C36
:1047A00000EB800000EB800000F2EE2080B209F008
:1047B00086FF0136E9E7012009F07EFF4A4B93F8B6
:1047C000200109F04CFF62E0082009F075FF002489
:1047D000454B2344013493F8160109F040FF082C9F
:1047E000F6D154E009F06BFF51E0424AD25C9042AE
:1047F00051D00C33302BF8D10834AC4247D094F868
:104800007E010023F1E73C4C0D2009F055FF02F03A
:104810003BF909F024FFA08809F05AFF206909F04C
:1048200057FF02F011F930E009F010FF054684202F
:1048300009F042FF284609F04BFF2F4B1C6905F198
:104840008003A3428CBF641B802402F0FFF928463A
:104850002246694602F064FA00240546AC4216DAA4
:104860001DF8040009F0FBFE0134F7E7132009F0FE
:1048700023FF0024214B185D013409F0F0FE0B2CBE
:10488000F8D1002009F024FF002009F021FF0120C9
:1048900018E0002016E009F0E2FEB4F8800109F00B
:1048A0000EFF94F8820109F0DAFE94F8830109F012
:1048B000D6FE94F8850109F0D2FE94F8840109F03F
:1048C000CEFE99E721B0BDEC028BBDE8F08F00BFB2
:1048D000B00E0020550F0020960F0020107AFF1F09
:1048E000147AFF1F187AFF1F0C3500206C3A002045
:1048F0003C360020783A002008040020F793010895
:104900002DE9FF4708F0DCF8774B1F78002F40F0C7
:10491000D685764D2B685B0540F1D185744B754C7F
:10492000B3F8DE802378744E002B00F019823268D1
:104930006368D31A7C2B40F21382237A62600133BE
:10494000237207F12400C0B208F0AAF86B4B33F9C8
:10495000173007EE903A6A4B1B88B8EEE77A07EEFD
:10496000903AF8EEE77A0137C7EE277A9FED657A3D
:1049700067EE877AFDEEE77ACDED017ABDF90400A6
:1049800008F07CF8032FDCD1302008F089F85E4B6A
:10499000DFF86091B3F9000008F070F808F078F8DB
:1049A000237A9F0732D1D9F8042041F288339A4202
:1049B00019D9102008F074F86427D9F80C0090FB7E
:1049C000F7F000B208F05AF8212008F069F8D9F899
:1049D0000C0090FBF7F307FB13000028B8BF404220
:1049E00000B208F04BF8142008F05AF8474BB3F91E
:1049F00004000A2390FBF3F008F040F81C2008F0B4
:104A00004FF8002008F03AF808F042F8237A5807E7
:104A100040F08281022008F043F8364B1869642385
:104A2000323090FBF3F000B208F028F8384B032046
:104A3000B3F9067008F034F8364B1B7859074FF07D
:104A4000050997FBF9F7BFB20BD53348414603F090
:104A500044FC20B92B6813F0100F18BF002738B2A0
:104A600005E02E4B1B689889B0FBF9F000B208F006
:104A700005F82B689A0740F1AC80DFF8A8A0B4F8DD
:104A80001480274F9AF800303A884FEA08184FF000
:104A900064091FFA88F809FB02325B00B2FBF3F3EA
:104AA00048EA03281FFA88F8C3F3032348EA0308F7
:104AB000062007F0F5FF0FFA88F007F0DFFFA38A62
:104AC0009AF8001001339BB293FBF1F201FB123311
:104AD000A382A3699B7B012B26D1392007F0E0FF3D
:104AE000B7F900003CE000BF383E0020A83A0020A3
:104AF0000C350020A80F0020582E0020E20E0020C8
:104B00000804002000007A44100F0020060F002047
:104B100084280020283E0020223600202413002074
:104B2000D0130020740700203F886E233A205F4393
:104B30004FF0150807F0B4FF97FBF8F71FFA87F856
:104B4000B8FBF9F738B207F099FF09FB17873B204C
:104B500007F0A6FFB8B2471D0A2097FBF0F000B29D
:104B600007F08CFF282007F09BFFAB4B0A201B6847
:104B700093FBF0F000B207F081FF042007F090FFF4
:104B8000A64BA7491B6808689A894FF6FF7398429D
:104B9000A8BF1846C2B10028ACBF131A134607EECF
:104BA000903A9FEDA07AF8EEE77A67EE877A07EE03
:104BB000102AB8EEC77AC7EE877AFDEEE77A17EECD
:104BC000900A6428A8BF642020EAE07000B207F0D1
:104BD00055FF954B1B689B0640F19380934B1A78C9
:104BE00012F0020F98461FD0DFF87892112007F0DC
:104BF00057FFB9F800008E4B4FF4F367784390FBF2
:104C0000F3F000B207F03AFF192007F049FFB9F8B6
:104C100000004743642097FBF0F797FBF0F300FB9D
:104C2000137000B207F02AFF824B1F8898F80030FB
:104C300013F0020F08BF0027012007F031FF38B240
:104C400007F01CFF092007F02BFF002007F016FFDC
:104C5000794B1F78794B1A88B2F5967F09D9237A58
:104C600003F00F03072B04D842F20F77974228BFB7
:104C70001746052007F014FFA3695B7B0BB938B218
:104C80001CE0A7F1200307EE903A9FED6D7AF8EE55
:104C9000E77AF6EE006AC7EE877ABEEE007AF5EEA6
:104CA000C07AF1EE10FA58BFB0EE667A77EE877AE6
:104CB000FDEEE77ACDED017ABDF9040007F0DEFEE6
:104CC00098F800309F0702D4237F012B03D10123E2
:104CD00023775C481CE05C4BDFED5C6A9B6993EDDD
:104CE000017AD3ED027A27EE267A67EEA67ABDEE38
:104CF000C77AFDEEE77A8DED027ACDED037A02A850
:104D000006E0534A92E8030002AB83E8030018462A
:104D100001F070F907F0BCFE237A282B20D14A4B12
:104D2000306800221A724FF03C094FF47A73B0FBDE
:104D3000F3F8172007F0B4FEB8FBF9F7B7FBF9F06A
:104D400009FB1070000200B207F098FE182007F06F
:104D5000A7FE09FB178000B207F090FE07F098FE4F
:104D6000637FDFF8E480002B00F0728103F0FAFA31
:104D7000D8F82030374AC31A9342074640F2EE80F3
:104D8000002388F8263088F82830334B1B88DAB2A5
:104D90001B0A88F8422088F8433088F8382088F8C1
:104DA0003930D8F8502033689A1AD8F85430D97B63
:104DB0004FF47A734B439A420ED3284B1B68C8F8C2
:104DC0005030274B1B78013B012B9FBF102388F8E5
:104DD0002630022388F828300F4B1B491A68104BE5
:104DE0000A2092FBF0F284F84020121284F841204D
:104DF0000E4A1B6893FBF0F384F844301B1284F8CE
:104E0000453012780C4B96071B7884F872302BD4FF
:104E10002D2381F87330A0E01C0F00202413002004
:104E2000140F00200000C842B40E0020280F0020FC
:104E3000A0860100340F0020290F00201007002059
:104E40006666E63F2C0F0020A80F00208096184BC6
:104E5000108001083F0D0300D0130020582E0020C1
:104E60008A260020360F0020042B8CBF33233223E8
:104E700081F87330C54BDFF84C93D3F800A05E681F
:104E8000C34AC44B9AFBF3F04FF0060809FB00A19C
:104E900096FBF3F309FB036903EB830308FB01F1C2
:104EA00003EB830391FBF2FC4FF0640E02FB1C1139
:104EB0009B0091FBFEF184F86410091208FB09F8CD
:104EC00084F8651098FBF2F143FA81F39BB284F801
:104ED00067301B0A84F86830AF4B02FB118292FBEB
:104EE000FEF284F86920121284F86A201A882423BA
:104EF000534393FBFEFEA94B84F85FE01B8884F8C4
:104F00006B301B0A84F86C30A54B00EB80001B88CB
:104F10000A22B3FBF2F303F5FA739BB200EB8000B5
:104F2000800084F86D301B0A40FA8CF084F86E30F3
:104F30009C4B80B24FEADA7A84F86200F60F000ADE
:104F4000CEF3072E1B8884F861A084F8630084F8F0
:104F5000666084F860E084F87430276294F8849086
:104F6000914EB9F1000F0FD1D6F88C0003F0F4FA8E
:104F7000012809D90228DFF8508200F0628201F08E
:104F80002BF8012388F80030D4F89060864B002E6F
:104F90005ED093F884203AB1D3F8982040F6B73128
:104FA000BA1A8A4216D853E0012283F88420D3F833
:104FB0009C20D3F88C001278022A04D804300221F5
:104FC00000F0F4FF02E0022103F0BAFA002384F8B3
:104FD000A0303BE093F89420AAB9C3F8902083F85E
:104FE0008420D3F89C20D3F88C001278022A04D8AD
:104FF0000430012100F0DAFF02E0012103F0A0FA01
:1050000000F0EAFF22E0013AD2B283F8942093F84C
:10501000A01093F8A10042B901304A1C83F8A10006
:1050200083F8A020D3F88C000EE03246013012F84D
:1050300001EB83F8A1000EEB0106D3F88C0083F896
:10504000A060C3F89020714603F089FAC4F8987004
:1050500094F8A230544EEBB1D6F8A430D3B1D6F8C0
:10506000A830BBB1514F1A683B60514B1A60514A8E
:10507000D6F8AC301344187AFEF78CFD3B6898796B
:1050800009F0EDFAD6F8AC300133092B88BF0023C4
:10509000C6F8AC30484E94F8B0203768424B002A2E
:1050A00000F00D82D3F8B420002A00F0088293F8B3
:1050B000B830013B012B00F20282D4F8B400DFF8D3
:1050C000E88003F049FAE0B1D8F8B40003F041FAFF
:1050D00098F8B930D6F800A07E2B81460ED1022375
:1050E0001B2888F8B83009D1D8F8B40003F034FA96
:1050F00020B90123C8F8BCA088F8C03084F8B99062
:10510000DBE7D8F8BC2033689B1A41F6583293424B
:105110001FD9032388F8B830D1E1284A32F81300A8
:1051200010B903464FF403600133B0F5C06FDBB232
:1051300000F0A2801ED9B0F5006F00F0A58051D913
:10514000B0F5036F5FD184F8C1301D4B1B68990621
:1051500060D494F8C01094F8C130002900F06E813A
:105160003268D21B012AD8D984F8C130002384F8D0
:10517000C030A4E1B0F5007F62D027D8B0F5807FC1
:1051800069D0B0F5887F00F0B380E6E72C0F0020EF
:1051900040420F0080969800360F00203A0F002002
:1051A000340F00203C0F0020A80F00207C26002098
:1051B0008026002010800108582E0020C296010889
:1051C000B40E0020806967FF1C040020B0F5806FDA
:1051D00000F0B080B0F5826F00F0EF80B0F5047F92
:1051E000BBD124E0B0F5E26F00F09580B0F5E46F3C
:1051F00000F09780B0F5E06FAFD184F8C130B14BCB
:10520000B3F9001092E0B0F5046F7BD0B0F5026FF7
:10521000A3D1FCE0AC4B1B789A079AD5AB4B19880D
:1052200024234B431233642193FBF1F1FFE084F814
:10523000C1302B689B078CD5A54B0A211B88F5E054
:1052400084F8C1302B68190583D5A24B19680A234D
:1052500091FBF3F1EBE084F8C1309F4BDFF88C82D7
:105260001B685A077FF575AFD8F80C1000F06AFE7E
:10527000002388F8C0306CE784F8C1302B681B0528
:105280007FF567AF954B3BE0934A84F8C1301268D5
:1052900091067FF55EAF8C4A127892077FF559AF81
:1052A00013F0010F8E4B11D05B6883EAE371002B82
:1052B000A1EBE37101EB51014FF01902B1FBF2F1E7
:1052C000ACBF41F0004141F040410EE01B6883EA71
:1052D000E371A1EBE371002B01EB51014FF01902D7
:1052E000B1FBF2F1B8BF41F080414FF400607DE0C6
:1052F00084F8C130784B1B685B077FF52AAF794B88
:10530000196894E084F8C130774BB3F9041001EBCD
:10531000810149006AE084F8C1306A4BB3F9021098
:1053200004E084F8C130674BB3F904102C2391FBDF
:10533000F3F15BE084F8C13094F8C2306B4A01337A
:10534000DBB2032B88BF012382F8C23094F8C2106D
:1053500042F210735943664B1B78D80748BF01319E
:105360009A0748BF02315807624B1B8848BF043177
:10537000DA0748BF0A31980748BF14311A0648BFF8
:105380002831D80548BF28315A0748BF643118076B
:1053900048BFC8319A0548BF01F5C871980648BF93
:1053A00001F57A71DA0648BF01F5FA61580648BF7F
:1053B00001F57A614FF4806039E084F8C130464BE2
:1053C0001B6813F0200817D03F4B1A7812F0020F19
:1053D00014BF4FF47A71002112F0010F464A14BF36
:1053E0004FF4FA6300230B441178194400F0AAFD2E
:1053F000002384F8C030ACE62B6819067FF5A9AE0F
:10540000414600F09FFD394B83F8C080A1E684F847
:10541000C130314B1B689A067FF59BAE2A4B1B7837
:105420009B077FF596AE354B1B886421594300F0EE
:1054300089FD2E4B002283F8C0208AE684F8C13013
:105440003DE098F8003023B1C6F8887088F80090E5
:105450009AE5D6F88830FB1AB3F57A6FFFF494AD6D
:105460000123D6F88C0088F8003003F072F88046EB
:10547000D6F88C0003F06DF818F07F0F7FF484AD40
:105480008A2802D08E280DD07EE5134B1B68980623
:105490007FF57AAD96F88430002B7FF475AD06F178
:1054A000580306E096F88430002B7FF46DAD06F1CA
:1054B0002403C6F890302D2386F8943064E504B0B8
:1054C000BDE8F087E20E0020280F0020360F0020F4
:1054D000D01300201C0F0020B40E0020140F002059
:1054E0002C0F0020100F0020060F0020A80F002016
:1054F000283E0020B80E0020290F0020340F002085
:105500002B4B2C4A1B68126810B51A602A4A116886
:10551000596051689268DA60284A99601168196187
:10552000516892689A61264A59611168D961516837
:1055300092685A62234A19621188198551885985DF
:105540009188D288DA85204A9985118819865188F0
:10555000598692889A861D4A1188D98651889288E0
:105560005A871B4A1987118899875188D987194604
:10557000928821F8402F174A10780022824206DADA
:10558000154C34F8124021F8024F0132F6E7134A65
:105590001288A3F86A20124A1288A3F86C20114AD4
:1055A00012681A67104A1288A3F8742010BD00BF51
:1055B0001C3B0020E0270020BC280020C828002039
:1055C000D428002084280020E80E0020E20E0020CD
:1055D000060F00204C290020EE0E00204013002072
:1055E000C8260020B40F0020180F0020A0F17D0372
:1055F000012B70B504460D460A4E05D830687D2152
:1056000002F0ADFF84F020043068214602F0A7FFCD
:1056100035B12B881C4404EB142404F0FF042C80C7
:1056200070BD00BF5C1000202DE9F8430E4B93E8DD
:10563000800305460E460024B44213DA7B1933F981
:10564000140008EB050333F9142009EB050333F9C3
:1056500014301344022293FBF2F3C01A08F0EFFD5A
:105660000134E9E7BDE8F8831C3B002010B5104B7E
:1056700093F85035012B014612D10E4A0E4C10788A
:10568000431CDBB213701B0644BF0023137021546C
:1056900001F0EAF93F2809D9BDE8104001F0F2BA5B
:1056A000064BBDE81040186802F059BF10BD00BF9E
:1056B0000C350020DC250020DE250020EC0B00202E
:1056C00070B54720FFF7D2FF174B1B681B0307D5A8
:1056D000164B174A5B6810681B68C01A08F09FFDDC
:1056E000144E154C154D307808F099FD2368286844
:1056F000C01A08F0A4FD63686868C01A08F09FFD2E
:105700000F4B188808F08BFD0E4B188808F087FDAA
:105710000D4B188808F083FD337823742B68A36041
:105720006B68E36070BD00BF000C00201C3B0020D4
:10573000E0270020290F0020083B00202C0F00202C
:10574000340F0020360F0020380F00207FB5264C84
:10575000264E274D2749284A284B20B12848008843
:10576000B0F5805F31D23088ADF8040028781E4D46
:1057700091F8201012788DF806008DF807108DF83A
:1057800008201B788DF8093001A8294606220EF062
:10579000DDFD30B30198BDF808302860AB805320A0
:1057A000FFF764FF208808F03AFDA07808F037FD85
:1057B000E37801932379029301A86379039308F0B6
:1057C0009DFC0F4B00221A800BE03088208091F85E
:1057D0002010287812781B78A070E1702271637114
:1057E000DDE704B070BD00BF6B100020B80E0020D4
:1057F000280F0020C03D00203C0C0020EA0C0020B7
:10580000060C00200A4A138801331380094A1368E2
:1058100001331360084A138801339BB2202B01BF68
:1058200000231380054A138808BF01331380704793
:10583000060C00200C0C0020080C0020903C0020DE
:1058400038B5294B1B78083B012B05460C464AD836
:105850004520FFF70BFF2846FFF708FF0E2D33D03A
:1058600003D83DB10D2D07D038BD142D20D0FF2D0C
:1058700032D038BD20682BE0637820789BB180F06F
:105880008000FFF7F3FEA568E8B2FFF7EFFEC5F36F
:105890000720FFF7EBFEC5F30740FFF7E7FE280EF2
:1058A000FFF7E4FE04E0FFF7E1FE606808F0C7FCE4
:1058B0002078FFF7DBFE606808F0C1FC2489E0B2C5
:1058C000FFF7D4FE200A0BE0206808F0A8FC60680F
:1058D000BDE8384008F0A3BC044808F0B4FC002040
:1058E000BDE83840C2E638BDE90B0020E296010869
:1058F0002DE9F04FBA4BBB4F1A888BB00193002AA9
:1059000040F0A080B7F84E05B74E42F20103C41A2A
:1059100060426041FFF71AFFFFF7F2FD346849204B
:10592000FFF7A4FEB14B2546186808F078FC55F83F
:10593000040B08F074FC28460AF0CAFF04F11000BA
:105940000AF0C6FF04F11C094FF01008A84D01230E
:105950002A6803FA08F3134203D0D9F8000008F0CC
:105960006EFC08F10108B8F1130F09F10409EDD13B
:1059700004F128000AF09CFFB7F8D030B4F92E00EB
:10598000C01A08F04CFC2B68D80408D5994BB4F821
:105990006A001B88181AC0F30D0008F040FC2B6841
:1059A000990403D5B4F86C0008F039FC2B681A058B
:1059B00002D5206F08F043FC2B681B0403D5B4F814
:1059C000740008F02CFC04F130000AF071FFA046CE
:1059D00004F136000AF06CFF04F13C000AF068FFA5
:1059E000B7F8D03038F9420FC01A08F018FC012778
:1059F000814B1B789F4208DA38F9020FB4F9423024
:105A0000C01A08F01CFC0137F2E72B68980505D591
:105A1000B4F96400A0F2DC5008F011FC3268774859
:105A20007260B260121AD110754A4A43531C0322A5
:105A300093FBF2F202EB42029A1A782303FB020371
:105A40003360BAE16F4B704A1B6811688B4206D015
:105A50000AA9002041F8203D1360FFF7F1FE019BE9
:105A600097F84E151B8897F84F050B44013BB3FB85
:105A7000F0F200FB12338B4280F06A815A4F012012
:105A8000FFF764FEFFF73CFD50203E687D68FFF79E
:105A9000EDFDBA683B6810681B687A6803441068BB
:105AA000A3EB400008F0CBFB6A6873689B1A029373
:105AB000AA68B3689B1A0393EA68F36802A89B1A62
:105AC00004930AF005FF2A6933699B1A02936A69F5
:105AD00073699B1A0393B369AA6902A89B1A04937A
